:020000040800F2
:1000000070B80020350400083D0400083F040008D3
:1000100041040008430400084504000800000000F3
:10002000000000000000000000000000ED020008D9
:100030004904000800000000A503000809040008A6
:100040004F0400084F0400084F0400084F04000844
:100050004F0400084F0400084F0400084F04000834
:100060004F0400084F0400084F0400084F04000824
:100070004F0400084F040008151600082116000858
:100080002D160008391600084F040008091600084C
:10009000FD1500084F0400084F0400084F04000835
:1000A0004F0400084F0400084F0400084F040008E4
:1000B0004F04000800000000000000005D2D000853
:1000C000512D0008752D0008692D00084F04000807
:1000D0004F0400084F0400084F0400084F040008B4
:1000E0004F0400084F04000800000000000000005A
:1000F0000000000000000000000000000000000000
:10010000000000004F040008000000004F04000839
:100110000000000000000000633500084F040008E4
:100120004F0400084F0400084F0400084F04000863
:100130004F04000800000000000000000000000064
:100140004F0400084F0400084F0400084F04000843
:100150004F0400084F0400084F0400084F04000833
:100160004F0400084F0400084F040008000000007E
:100170004F0400084F0400084F0400084F04000813
:100180004F0400084F0400084F04000800F002F874
:1001900000F068F80AA090E8000C82448344AAF1B9
:1001A0000107DA4501D100F05DF8AFF2090EBAE8B7
:1001B0000F0013F0010F18BFFB1A43F0010318479B
:1001C000BCD30000DCD300000A4410F8014B14F04B
:1001D0000F0508BF10F8015B240908BF10F8014B98
:1001E0006D1E05D010F8013B6D1E01F8013BF9D1E1
:1001F000641E03D0641E01F8015BFBD19142E4D37D
:10020000704700000023002400250026103A28BF74
:1002100078C1FBD8520728BF30C148BF0B60704778
:1002200066290CF08A87782900F01082732900F083
:10023000EA87002070471FB50CF072FF9DE80300AD
:1002400000F021FC01F04EF80400002000210CF029
:10025000B9FCE06000F0E2FB1FBD10B5002000F02B
:10026000D6FF10BD01F019F81146FFF7E4FF08F0C2
:10027000F0F801F033F903B4FFF7EFFF03BC00F02F
:10028000DFFB000080F309887047EFF309807047B7
:10029000684680F3098804480078C00714BF02202C
:1002A000032080F31488704770010020DFF818C025
:1002B000EFF305831B0618BF6047EFF31483DB07DA
:1002C00008BF604700DF70477DAD0008DFF818C049
:1002D000EFF305831B0618BF6047EFF31483DB07BA
:1002E00008BF604700DF7047F5AD0008EFF30980F5
:1002F000816911F8021CE1BB90E80F1010B5E047CE
:10030000BDE81040EFF3098C8CE80700214B93E81F
:100310000600914208BF704741B91EF0100F16D178
:100320001D49086820F00100086010E01EF0100F61
:1003300006BF2CED108A0120002081F838002CE93E
:10034000F00FC1F83CC00CB40CF03EF90CBC1A60C4
:10035000D2F83CC0BCE8F00F92F8380000280EBF7D
:100360006FF0020E6FF0120E00F058B88CF309888F
:10037000704710B5094A1268914209D8084C54F8E0
:10038000214090E80F10A047EFF3098C8CE80F0094
:1003900010BD0000C800002034EF00E0548D0008BC
:1003A000548D000810B50CF009F8BDE81040154B4D
:1003B00093E80600914208BF7047EFF3098C1EF0E6
:1003C000100F06BF2CED108A0120002081F83800A4
:1003D0002CE9F00FC1F83CC00CB40CF0F5F80CBCE3
:1003E0001A60D2F83CC0BCE8F00F92F83800002840
:1003F0000EBF6FF0020E6FF0120E00F015B88CF306
:1004000009887047C800002010B50CF001F9CCE74E
:1004100010B509F0DDFC0CF0FBF8C6E7BCEC088A6F
:10042000BCEC08CAFFF7A2BFBCEC088ABCEC08CA47
:10043000FFF7E5BF0948804709480047FEE7FEE7A8
:10044000FEE7FEE7FEE7FEE7FEE7FEE7FEE7FEE784
:1004500004480549054A064B704700000F3500085F
:100460008D0100087008002070B8002070880020FE
:1004700070880020004870478403002070B5A0FBFE
:100480000140B4F1805170F1000024BF002070BD24
:10049000204600F070FB05001CBF214600F036FC32
:1004A000284670BD70B516460D46041F002808BFCB
:1004B00070BD002E1CBF05F10C0007F03BFF2B4662
:1004C0005868002818BFA04238BF0346F8D31968FF
:1004D000CA18A24218BF5C6003D122681C461144AE
:1004E000196021680A19824218BF606004D142680D
:1004F0006260006808442060002E1CBF05F10C00FB
:1005000007F01CFF70BD10B5044600F09FFA0168AB
:100510002046BDE810400122C4E753EA020C00F077
:1005200069802DE9F04B4FF00006002B1FBFB3FA96
:1005300083F503FA05F424FA05F65E4012BF16436C
:10054000B2FA82F502FA05F4C5F120051EBF22FABF
:1005500005FC44EA0C04203556EA044C4FEA1444E6
:1005600018BF641C4FF000084FF00009904271EB77
:10057000030C39D3002919BFB1FA81F701FA07F644
:10058000B0FA80F700FA07F6C7F120071EBF20FA7D
:1005900007FC46EA0C062037B6FBF4FCA7EB050780
:1005A000103F07F01F0BCBF120062CFA06F60CFAD1
:1005B0000BFB44BFB3460026202FA4BF5E464FF07E
:1005C000000B5BEA060C08BF4FF0010B19EB0B099F
:1005D00048EB0608ABFB027C06FB02CC0BFB03CC12
:1005E000C01B71EB0C01C1E70B4602464146484671
:1005F000BDE8F08B13B5084318BF4FF0FF3001463C
:10060000AFF30080BDE81C40704700000FB41CB57C
:100610000C0007AA009007D04142A14202D3204417
:10062000401E01E04FF0FF30074B7B4469460190CC
:10063000069800F032FB0021002C01D0009A1170C6
:100640001CBC5DF814FB00009306000070B5044666
:100650000D4621461068AFF300802188090502D5B8
:100660000F4A7A4402E00E4A7A440E32002104F125
:10067000240305E000F00F060009965D5E54491C56
:100680000028F7D120780023000704D5702D02D070
:1006900009B1022311322046BDE8704000F09EBA35
:1006A000D8CA00002DE9F0410F4605460020286217
:1006B0002846E968884770B3252805D0D5E9012187
:1006C0009047286A401CF2E7E968284600268847D8
:1006D0006C2804460AD0682C08D04C2C35D06A2CE3
:1006E00031D0742C31D07A2C2FD016E0E968064630
:1006F00028468847B042044608D16C2E23D04FF4D8
:1007000080662846E9688847044606E06C2E03D0D8
:100710004FF4807601E01EE04026E4B1A4F14100F0
:10072000192802D8203446F400663A462146284665
:100730002E60FFF775FD60B1012808D0FF1D27F07E
:1007400007070837B4E78026DBE70026D9E73F1D17
:10075000AEE72046B2E7286ABDE8F08110B5002078
:1007600000F0CDFAFFF779FDBDE81040012000F060
:1007700067B90B460146184600F0AABA10B5431CEB
:1007800002E010F8011B71B18107FAD14FF001327C
:1007900002C88C1A8C4314EAC211F9D0C01A0A0696
:1007A00003D0C01E10BDC01A10BD0A0401D0801EA7
:1007B00010BD0902FCD0401E10BD032A40F230805B
:1007C00010F0030C00F0158011F8013BBCF1020F92
:1007D000624498BF11F801CB00F8013B38BF11F813
:1007E000013BA2F1040298BF00F801CB38BF00F82A
:1007F000013B11F0030300F06780083AC0F0088065
:1008000051F8043B083A51F804CBA0E80810F5E78A
:10081000121D5CBF51F8043B40F8043BAFF300806D
:10082000D20724BF11F8013B11F801CB48BF11F8E2
:10083000012B24BF00F8013B00F801CB48BF00F8B2
:10084000012B7047431A28BF9A427FF6B6AF104477
:100850001144032A40F2268010F0030F1EBF11F846
:10086000013D521E00F8013D10F0030F7FF4F6AF7A
:1008700011F0030300F06D80083AC0F00B8051F8CE
:10088000043D083A51F804CD40F8043D40F804CD49
:10089000FFF7F3BF121D5CBF51F8043D40F8043D63
:1008A000AFF30080D20724BF11F8013D11F801CD4C
:1008B00048BF11F8012C24BF00F8013D00F801CD1C
:1008C00048BF00F8012C704710B5203AC0F00B80EB
:1008D000B1E81850A0E81850B1E81850A0E8185036
:1008E000203ABFF4F5AF5FEA027C24BFB1E81850AC
:1008F000A0E8185044BF18C918C0BDE810405FEA0E
:10090000827C24BF51F8043B40F8043B08BF704789
:10091000D20728BF31F8023B48BF11F8012B28BF8E
:1009200020F8023B48BF00F8012B7047431A28BF4C
:100930009A427FF6C9AF1044114410F0030F1EBF56
:1009400011F8013D521E00F8013D10F0030F7FF435
:10095000F6AF103AC0F00A8010B531E9185020E91E
:100960001850103ABFF4F9AFBDE81040530724BF48
:1009700031E9081020E9081044BF51F8043D40F85F
:10098000043D12F0030F08BF7047D20728BF31F8AB
:10099000023D48BF11F8012C28BF20F8023D48BF96
:1009A00000F8012C704702F0FF0343EA032242EAF9
:1009B000024200F0ADB902F0FF0343EA032242EA2B
:1009C000024200F002B84FF0000200B51346944610
:1009D0009646203922BFA0E80C50A0E80C50B1F197
:1009E0002001BFF4F7AF090728BFA0E80C5048BFAB
:1009F0000CC05DF804EB890028BF40F8042B08BF49
:100A0000704748BF20F8022B11F0804F18BF00F844
:100A1000012B7047704770477047000070B5064C57
:100A20007C44064D7D4404E020460168084480472C
:100A3000241DAC42F8D170BD94CB00009CCB0000CB
:100A400001491820ABBEFEE72600020010B5FFF7F3
:100A500011FD083010BD704770477047704738B5BA
:100A600004460A4600206946AFF30080002808BF0C
:100A700038BD02460099204600F080F9012038BDBB
:100A8000012000F003BCF8B5AFF30080054600205C
:100A90000C46102000BF0646A819A0420DD93246C8
:100AA00069460020AFF30080070008BF00F0EEFBAE
:100AB0000098A04218BF0546C419FFF7C7FF05609C
:100AC0000746F01D20F007004619284600F046F9B9
:100AD000B44208BFF8BDA21B31463868BDE8F840F3
:100AE00000F04CB90844401E491E88437047082155
:100AF000001DF7E72DE9F04117460E460446FFF7C3
:100B0000F6FFA042054633D9002F1CBF06F10C00AA
:100B100007F010FC30467468F4B12168A94217D37D
:100B200005F1080291423CBF6168416007D36268E9
:100B300061194A602268521B0A6041602560002FDB
:100B40001CBF06F10C0007F0F9FB201DBDE8F08189
:100B500020466468002CE0D129463046FFF77FFF2D
:100B60000028D7D1002F1CBF06F10C0007F0E6FBD0
:100B70000020BDE8F08110B50446FFF767FF01686B
:100B80002046BDE810400122B4E770B50C4605468A
:100B9000012A05D02878800600D5EA69002302E002
:100BA000012305E05B1C934202D2E05C0028F9D1EE
:100BB000A869E618C01AA861286A1844286228465D
:100BC000AFF3008004E0D5E9012114F8010B904750
:100BD000B442F8D32846AFF3008070BD2DE9F0474A
:100BE0000D4699469246044600F12408016888069D
:100BF00004D5E06921F01001216000E00120A84245
:100C000001DD471B00E00027A1697A1902EB09000A
:100C1000081AA0612078C00602D42046AFF30080F5
:100C2000002608E0D4E901211AF806009047206A5E
:100C3000401C761C20624E45F4DB2078C0060AD5A5
:100C40002046AFF3008006E0D4E901213020904730
:100C5000206A401C2062381EA7F10107F4DC07E07F
:100C6000D4E9012118F805009047206A401C206251
:100C7000281EA5F10105F3DC2046AFF300802078A3
:100C8000000602D50220BDE8F0870120FBE7000046
:100C900001694A1C02610878704700B58FB0CDE940
:100CA00001310021059105497944CDE90310114630
:100CB0006846FFF7F7FC0FB000BD0000E5FFFFFF3F
:100CC000D1E900239A4202D2531C0B601070704786
:100CD0002DE9F041074615460E461020FFF74BFF61
:100CE00004000AD06760C4E9026500F032F80168C8
:100CF000216004600020BDE8F0810120FBE710B511
:100D000000F0ACFABDE8104000F0A2BA4FF00002CB
:100D10000429C0F0128010F0030C3FF456AECCF161
:100D2000040CBCF1020F18BF00F8012BA8BF20F87B
:100D3000022BA1EB0C01FFF748BE5FEAC17C24BF88
:100D400000F8012B00F8012B48BF00F8012B704779
:100D5000704710B5FFF78EFB383010BD00210160E1
:100D6000C0E901100C3007F0E7BA10207047801A74
:100D70000844401E491E88431044704770B514460D
:100D800005468C464368002B18BF634538BF18469C
:100D9000F8D302681044604508D0664660460422D5
:100DA0000821FFF7E4FF811B8446641A2946CCF82A
:100DB0000040BDE8704000220CF10400FFF772BB58
:100DC0002DE9FF4F0C461E464FF0FF378BB0D2E99E
:100DD0000001DDF860800A908A46C1F30A5505B922
:100DE0003D46002108464FF00000BAF1000F00F424
:100DF000400005DA00EB80004FF4400101EA5000AA
:100E00004FEA9059B9F1010F00DDB9460A9850EA4E
:100E10004A000ED044F61050A5F2FF3545432F147A
:100E2000B8F1000F1ED07542291E1EDDC9F1000267
:100E30001CE0B8F1010F4FF0000001D0302103E0B9
:100E4000F24305E02154401CB042FBDB3046002257
:100E5000002121540B99C1F80880C1E900200FB08E
:100E600000F0BCB9BD1B6D1CDEE74A4600DA6942E2
:100E700006A800F0C1FA06AB93E8070003AB83E8CD
:100E8000070050460A9907F09DFB8DE80700A0F582
:100E900000501F3800900398002D0ADD42F21F0118
:100EA0004A460844002303A90390684607F006FE5B
:100EB00009E0A0F500504A461F38002303A903901B
:100EC000684607F010FE8DE807000004000C03D010
:100ED0004FF0FF30410800E01046B8F1000F03D09A
:100EE0000022009215461EE0751E05D400F0FFF9A1
:100EF000303262556D1EF9D5B3460122084302D047
:100F000000227F1C04E02078302801D100227F1EBF
:100F1000002A099784D01DE0112D07DA00F0E7F9C7
:100F2000303262556D1C50EA0102F5D1084302D0FF
:100F30000098C8B10EE00021681E05E0235C625CE9
:100F400063542254401E491C8142F7DBAB46A81B68
:100F5000401E0990002004F80B000B98099AC0F875
:100F60000880C0E9002B7AE711264FF0000857E708
:100F70002DE9F04F88460446D21D22F0070191B0BA
:100F8000D1E90001CDE90A0107F0EFFE02460B9816
:100F9000C00F01D02D2007E02068810701D52B204C
:100FA00002E0202101EAC000032A099001D0072AAB
:100FB00005DB03464146204600F0DEF90BE12078D0
:100FC000800601D5E06900E00620B8F1650F814692
:100FD00006D0B8F1660F18D0B8F1670F70D131E0C4
:100FE0000020B9F1110F009001DB112301E009F19C
:100FF00001030AAA01A90CA8FFF7E2FEDDE90C70C3
:10100000002609F10105834647E001204B46009088
:101010004FF000470AAA01A90CA8FFF7D1FEDDE9AD
:101020000DB00C995D46002610B909F101000D18AC
:10103000B9EB050003D4C0F1FF3609F10105A5EBBA
:1010400009002BE0B9F1010F01DA4FF0010900208E
:10105000B9F1110F0090484601DD112300E003466D
:101060000AAA01A90CA8FFF7ABFEDDE90C704D46FA
:1010700000268346207800070AD4AB4500DA5D4697
:1010800001A8012D04DD411911F8011C302907D0F8
:101090004F4502DA17F1040F04DA012082460FE00F
:1010A0006D1EEEE7002F02DCED1B3E4403E0781CD2
:1010B000A84200DD7D1CB81B00F1010A4FF000477B
:1010C0002078000703D4AA4501DB4FF0FF3A002146
:1010D000B7F1004F0DF143088DF8431024D00220E2
:1010E0002B23002F01DA7F422D230A21021EA0F1BB
:1010F000010000DC5FB197FBF1FC97FBF1F201FB13
:101100001C7C17460CF1300C08F801CDEEE7A8F175
:10111000010003702188090501D5452100E0652102
:10112000A0F1010800F8011C09980FA9A1EB08071C
:10113000FF1D00B10120411901EBEA70A16938449B
:10114000081A401EA0612078C00602D42046AFF3E2
:101150000080099828B1D4E901219047206A401CF9
:1011600020622078C00622D52046AFF300801EE022
:10117000002E04DBB34502DD01A8805D00E03020D5
:10118000D4E901219047206A401C2062761CAAF114
:1011900001005FEA000A0AD100F0A4F8C068016803
:1011A000405CD4E901219047206A401C2062281E3F
:1011B000A5F10105DCDC07E0D4E9012118F8010BF9
:1011C0009047206A401C2062381EA7F10107F3DC1B
:1011D0002046AFF30080032011B041E630BCBDE8EB
:1011E000C08F10B5436913B1AFF3008001E0FFF782
:1011F000CCFC012010BD127800F124010A700022FD
:101200004A700122EDE711684FF0FF32E9E72DE95E
:10121000F0410646FFF79DFD8046454613E016B1B6
:10122000E068B0420ED120682860D4E90101D8F806
:10123000007088472046FFF766F9D8F80000B842EA
:10124000EBD100E025462C68002CE8D1BDE8F08108
:10125000002801D0FFF7F4BB7047000010B5002153
:1012600002A000F044F9012010BD0000534947419D
:101270004252543A2041626E6F726D616C20746507
:10128000726D696E6174696F6E00000010B500F0D8
:1012900047F9BDE81040FFF7DBBF7546FFF7EAF8F6
:1012A000AE4605006946534620F00700854618B053
:1012B00020B5FFF7CDF8BDE820404FF000064FF015
:1012C00000074FF000084FF0000BAC46ACE8C00937
:1012D000ACE8C009ACE8C009ACE8C00921F00701DE
:1012E0008D46704710B5FFF7C5F8203010BD30B5FA
:1012F000B0F10A0271F100034FEA900E4EEA817ECE
:10130000B0EB0E0061EB91014FEA101E4EEA017E38
:1013100010EB0E0041EB11114FEA102E4EEA016E58
:1013200010EB0E0041EB11214FEA104E4EEA014E38
:1013300010EB0E0041EB1141401841F100014FEA62
:10134000D00040EA41704FEAD1014FEA810444EAFB
:10135000907410EB800544EB01046D1944EB040418
:10136000521BA3414FF0000348BF0A3200D530BDE5
:10137000401C41F1000130BD2DE9F0411F460446FB
:1013800003260168072A01F4006004DB08B116A5F2
:1013900005E016A503E008B115A500E015A521F0AC
:1013A00010002060A069C01EA0610FB1401EA061A6
:1013B0002046AFF300804FB1D4E901213846904771
:1013C000206A401C2062C01C206206E0206AFAE706
:1013D000D4E9012115F8010B9047761EF8D220467A
:1013E000AFF30080BDE8F0814E414E006E616E00AB
:1013F000494E4600696E66002DE9F0478146164663
:101400008AB0354878440DC88DE80D0032487844DC
:10141000801C03AC0DC884E80D0041F69B300844E5
:10142000372190FBF1F290FBF1F5A5F1800501FB6E
:1014300012041B3C02D56442012000E00020DFF8CA
:1014400098A080460027FA44AAF1BE0A0EE0E00701
:101450000AD03246684607EB470101230AEB8101B7
:1014600007F041FB8DE8070064107F1C002CEED1D3
:10147000194F7F44AE3F19E0E80715D007EB041081
:101480000DF1180A90E80E008AE80E00C068F042DC
:1014900001D1981908903246012306A903A807F044
:1014A00022FB03AB83E807006D10641C002DE3D121
:1014B0004FF0010332466946B8F1000F03A802D08D
:1014C00007F0FCFA01E007F00EFBC9E90001C9F8DA
:1014D00008200AB0BDE8F087DCBD000010B5044666
:1014E000AFF300802046BDE81040FEF7C4BE70B5E3
:1014F00005460C460A2000E06D1C00F039F835B1B5
:1015000028780028F8D102E0641C00F031F814B10A
:1015100020780028F8D1BDE870400A2000F028B8F3
:1015200010B5012805D0002103A0FFF7E0FF01203E
:1015300010BD09A1F8E7000053494752544D454DED
:101540003A204F7574206F662068656170206D6564
:101550006D6F7279000000003A2048656170206D5F
:10156000656D6F727920636F727275707465640057
:1015700008B569468DF800000320ABBE08BD000029
:1015800030B44FF0013C50F8042B51F8043BCCFA36
:1015900052F4D51A20D1FCB950F8042B51F8043B71
:1015A000CCFA52F4D51A17D1B4B950F8042B51F82B
:1015B000043BCCFA52F4D51A0ED16CB950F8042B76
:1015C00051F8043BCCFA52F4D51A05D1002CDAD0EC
:1015D00030BC4FF00000704729BAB1FA81F111F028
:1015E0001801D1F120008440F2D1CA40CB4012F062
:1015F000FF0213F0FF0330BCD01A704740F20860BE
:10160000C2F2000000F0FEB940F20860C2F2000031
:1016100000F0F8B940F24470C2F2000000F09CBC47
:1016200040F2FC60C2F2000000F096BC40F2B460F0
:10163000C2F2000000F090BC40F26C60C2F2000008
:1016400000F08ABCFEE740F21020C2F20000027FE8
:1016500002F0FD01012942F20001C4F202010BD1A6
:101660000B6843F400630B600B6823F400630B60AA
:101670000B6843F400730B6002F0FE02022A0BD1E8
:101680000A6842F480520A600A6822F480520A60B2
:101690000A6842F480620A60002101777047000006
:1016A000F0B581B042F210060446C4F2020600F022
:1016B000ACFE3168C9030AD50546671C27B100F0A6
:1016C000A4FE401BA04227D23068C003F6D4306885
:1016D0004CF2FA31B268C0F20201014002F000405F
:1016E000421811D040F21023C2F200035F6842EAB0
:1016F00007025A6010B1B2681043B06000294FF081
:10170000010018BF316008E03068C0074FF00000EA
:1017100003D00121316000E0032001B0F0BD90F85A
:101720002020013A012A04D8006800F114020020A8
:1017300004E000F1240201204FF4802113681943D2
:101740001160704710B590F820E0D0F800C0AEF1FD
:10175000010EBEF1010FDCF808E00DD81EF0E05FCD
:1017600010D0CEF3016EBEF1030F11D100F12401B0
:1017700001204FF4000233E000F1240101204FF476
:1017800080222DE000F1240101204FF4001227E017
:10179000012000FA0EF01860886818B14B6840EA22
:1017A000C30001E008684005D1E9033403430CEBB2
:1017B0000E10C0F88031C0F88441097D012905D19F
:1017C00000F5C2710B6843F480730B605168C0F878
:1017D0008C11126800F5C071C0F888210020012228
:1017E0000B681A430A6010BDB0B5026890F820304B
:1017F000013B012B27D8D2F80002012340F0010061
:10180000C2F80002D1F814E0CC690EF01F0003FA10
:1018100000F0D2F81C326FEA000C8343012CC2F8AE
:101820001C3216D064BBD2F80C3203EA0C03C2F8A7
:101830000C32CB688C8844EA034302EBCE04C4F834
:1018400040320B4614E0416A41F48021416201209C
:10185000B0BDD2F80C320343C2F80C320B688C884E
:1018600044EA034302EBCE04C4F8403201F10C0316
:101870008C681B8843EA044302EBCE04C4F844326C
:10188000D2F804328D6943EA0004D1F810E0096A05
:10189000002D08BF03EA0C04C2F80442D2F8143247
:1018A000BEF1000F43EA000408BF03EA0C0401295B
:1018B000C2F8144204D1D2F81C120843C2F81C0228
:1018C000D2F8000220F00100C2F800020020B0BDF2
:1018D00090F82020013A012A06D80068426922EADD
:1018E0000101416100207047416A41F48021416259
:1018F00001207047704710B590F82040013C012C42
:1019000070D8D0F800C000290CBFDCF80C40DCF81F
:101910001040A4076CD00CEB011CDCF8B0410CF5B6
:10192000D87E14F004049460DCF8B04119BFE408D8
:101930005460640D1460DEF800400029C4F34004D4
:10194000D460DCF8B44104F00F041461DCF8B44155
:10195000C4F307249461DCF8B4414FEA14445461A1
:10196000DCF8B8211A70026802EB0112D2F8B82133
:101970004FEA12225A70026802EB0112D2F8B82123
:101980004FEA12429A70026802EB0112D2F8B821B3
:101990004FEA1262DA70026802EB0112D2F8BC213F
:1019A0001A71026802EB0112D2F8BC214FEA12222E
:1019B0005A71026802EB0112D2F8BC214FEA1242BE
:1019C0009A71026802EB0112D2F8BC214FEA12624E
:1019D000DA7100680CBF00F10C0100F11001002069
:1019E00020220AE000F1240101204FF4802204E0CB
:1019F00000F1240101204FF400120B681A430A6021
:101A000010BD00002DE9F04F81B004460068466922
:101A1000D0F804908768D0F80CB0D0F810A0D0F8B7
:101A20001880F10701D1002546E0F9070FD0012108
:101A3000BA07816006D478071CD4380720D404F193
:101A4000340001E004F128000168204688470025A1
:101A5000F8051AD520684FF48071BA05816005D465
:101A600078050AD438050ED4A16B00E0E16A20465F
:101A700088470AE04FF40065EAE705F5005504E001
:101A80004FF48055E4E705F58045F80314D5206848
:101A90004FF48031BA03816005D4780307D438034A
:101AA00008D4E16B00E0216B2046884704E005F58F
:101AB000004501E005F58035300707D51BF0100023
:101AC00004D0206845F400751021C160700708D566
:101AD0001BF0080005D02068616C0822C260204617
:101AE0008847B00706D52068C068800702D0216CFF
:101AF00020468847700607D51AF0100004D02068E9
:101B000045F4806510210161B00608D51AF008007F
:101B100005D02068E16C0822026120468847F00663
:101B200006D520680069800702D0A16C204688474E
:101B3000B00308D519F0100005D02068216D1022DF
:101B4000426020468847F00308D519F0080005D008
:101B50002068616D0822426020468847300440D5E5
:101B60005FEA49703AD506F4807008EA10202843ED
:101B70005FEA8871014648BF41F00201B20558BFD3
:101B800001465FEA48700D4648BF45F00405700500
:101B900058BF0D46300521D518F070001ED0103802
:101BA0000009052815D8DFE800F00306090C0F121C
:101BB00045F008050DE045F010050AE045F0200568
:101BC00007E045F0400504E045F0800501E045F4FC
:101BD00080752068816921F070018161206804218D
:101BE00041604DB1606AA16D40EA05022046626223
:101BF00001B000F004B8084701B000F005B830BCEF
:101C0000BDE8C04FFFF7F7BF30BCBDE8C08F000094
:101C10002DE9F041002861D0044690F8200000280A
:101C200049D141F6936141F6F76541F6FB6241F611
:101C30009568C0F60001C0F60005C0F6000241F646
:101C4000FF6341F6FD60C0F60008C0F6000341F6F0
:101C5000F56641F6F967C0F60000C4E90A5204F1DE
:101C600030026164E16D41F6996C41F6976EC0F601
:101C70000006C0F60007C8C2C4E90F0841F69B6021
:101C800041F6017241F6F503C0F6000CC0F6000EF5
:101C9000C0F60000C0F60002C0F60003C4E912CE90
:101CA00020656265A36521B941F69151C0F6000136
:101CB000E165204688472068016821F00201016043
:101CC00000F0A3FB054600BF20684168890708D5DE
:101CD00000F09BFB401B0B28F6D312E00120BDE86F
:101CE000F081016841F00101016000F08EFB0546C2
:101CF00020684168C9070BD100F087FB401B0B2807
:101D0000F6D3606A052140F40030606201203BE0B8
:101D1000217E0268012922F0800208BF8032026021
:101D2000617E0268012922F0400208BF4032026051
:101D3000A17E0268012922F0200208BF2032026041
:101D4000E17E0268012922F0100218BF1032026001
:101D5000217F0268012922F0080208BF08320260D0
:101D6000617F0268012922F0040208BF0432026088
:101D7000271D8ECF66691A433A4332430139114316
:101D8000C16100200121606284F82010BDE8F0816B
:101D900080B586B0006846F20041C4F20001884276
:101DA00037D141F24C00C4F20200C16841F0007129
:101DB000C160C16801F0007101910199016841F0B1
:101DC00002010160006801A900F002000190019881
:101DD0004FF44070019002200290002003900320F5
:101DE00004900920059040F20040C4F6000000F085
:101DF00031FA13200021002200F076FB132000F0BE
:101E000066FB14200021002200F06EFB142000F07D
:101E10005EFB06B080BD0000A2B190F82030012B1F
:101E20000DD10E290ED8DFE801F0081B1D1F21235C
:101E30002527292B2D2F31171900826227E090F8D2
:101E400020302BB1416A41F480014162012070478A
:101E50000E2903D00D29F5D1C26518E0026616E0FF
:101E6000C26214E0026312E0426310E082630EE09B
:101E7000C2630CE002640AE0426408E0826406E0A7
:101E8000C26404E0026502E0426500E08265002071
:101E9000704770477047704770477047B0B5044649
:101EA00090F8200001281CD1022084F8200020682E
:101EB000016821F00101016000F0A7FA054600BFAA
:101EC00020684068C00712D000F09FFA401B0B2822
:101ED000F6D3606A40F400306062052084F8200088
:101EE00003E0606A40F4002060620120B0BD002081
:101EF0006062B0BD70477047704770477047704769
:101F0000704780B590F82510022920D10168D0F8DB
:101F100038E0D0E910C30A68BEF1000F22F00E02CB
:101F20000A600A6822F001020A6003F01C014FF007
:101F3000010202FA01F1CCF804104FF0000180F820
:101F4000252080F8241005D0F047002102E004216C
:101F5000C1630121084680BDB0B5D0E910C3026855
:101F6000DCF8001003F01C030424D2F800E09C40CD
:101F70000C4218BF1EF004051AD102249C400C42EA
:101F800018BF1EF002051FD1D94009071BD51EF04E
:101F9000080118D0116821F00E011160012101FA29
:101FA00003F2CCF80420C16380F82510416B18E0DF
:101FB0001168890603D4116821F004011160CCF87E
:101FC0000440016B91B9B0BD1168890606D411684F
:101FD00021F00A011160012180F82510CCF804409D
:101FE000C16A0022002980F82420ECD0BDE8B0406E
:101FF000084700002DE9F04F81B040F21029C2F2ED
:10200000000999F80020012A01D1022680E08246C9
:10201000012089F800004CF250308846FFF740FB61
:102020000646002871D142F214040020C4F20204D2
:10203000C9F8040054F8141C54F8140C890503D48E
:1020400040050BD4002012E020F4007044F8140C7A
:1020500054F8140C400503D4012008E0022000E0ED
:10206000032054F8141C21F4806144F8141C89F8EE
:102070001C00DAF80000012815D19AF80400C00706
:1020800003D0206840F004002060206840F48030D5
:1020900020604CF25030FFF703FB2168064621F028
:1020A000040020602FE04FF0FF30C8F80000DAE9AC
:1020B00002703844874222D2FD0040F2FA7B00BF12
:1020C0002068E90861F3CA002060206840F002003F
:1020D0002060206840F4803020604CF25030FFF7E0
:1020E000DFFA2168064621EA0B0020604EB9DAE9E2
:1020F000020101370844874205F10805E0D30026B4
:1021000001E0C8F80070FFF79EFA002089F800008F
:10211000304601B000F000B830BCBDE8C08F40F2DE
:102120001020C2F200004068704742F21401C4F26D
:102130000201086840F0004200200A607047000079
:102140002DE9F04740F21029C2F20009144699F82F
:102150000020012A01D1022562E08046012089F891
:1021600000004CF250301F460E46FFF799FA054624
:10217000002852D142F2000A0020C4F2020AC9F833
:102180000400DAF80010490506D5DAF8000020F45A
:102190008060CAF800000220B8F1000F89F81C0026
:1021A0001FD0A8F10100022830D2DAF8140040F460
:1021B0008020CAF8140072B6402000BF54F8041BF7
:1021C0000138020646F8041BF8D162B64CF25030D2
:1021D000FFF766FAB8F1020F05461CD16FF48020B4
:1021E0000EE0DAF8140040F00100CAF814004CF2D6
:1021F000503034607760FFF753FA05466FF0010006
:10220000DAF814100840CAF8140004E04CF2503018
:10221000FFF746FA0546FFF716FA002089F8000096
:102220002846BDE8F08742F20800C4F20200C16807
:10223000B1F1FF3FC4BF0020704740F22311C4F248
:102240006751016048F6AB11CCF6EF510160C068F0
:10225000C00F70472DE9F04F82B041F20002C4F682
:10226000000290420A684FF0070308BF0423002AC7
:10227000009300F0BA8000F138434FEAB32740F2F0
:10228000004A009BC4F2010A042F38BF3B464FF0BE
:10229000010E002500260127009300BFA7F1010CC5
:1022A0000EFA0CF912EA090800F095804A6842F02B
:1022B0001004122C15D16FF0030202EA5C020244F2
:1022C000D2F820B006F01C030F24D1F810E09C4097
:1022D0002BEA04040EFA03F3234313624A684FF017
:1022E000010E03680324AC406FEA040BA34302F021
:1022F0000304AC402343122A036013D80EFA02F3FE
:1023000013F0061F0ED08368CC6803EA0B03AC40C1
:10231000234383604368140923EA090304FA0CF495
:1023200023434360C3688C6803EA0B03AC40234338
:10233000D200C3604FD541F26003C4F202031A68B1
:102340004FF6084942F001021A601A68CFF6FF7989
:1023500002F001020192019A2CF00302524452F859
:1023600009C006F00C040F23A3402CEA030C009BC9
:1023700003FA04F444EA0C0342F80930DAF800C026
:102380004B684CEA0804DA0358BF2CEA0804CAF880
:102390000040DAF804C09A034CEA080458BF2CEA5B
:1023A0000804CAF80440DAF808C0DA024CEA080463
:1023B00058BF2CEA080440F20C4CCAF80840C4F29A
:1023C000010CDCF800209B0242EA080458BF22EA14
:1023D0000804CCF800400A68043632FA07F307F123
:1023E000010705F102057FF459AF02B000F000B813
:1023F00030BCBDE8C08F426951404161704718232D
:10240000002A08BF2823C150704780B540F2382009
:10241000C2F200004068804700B180BDBDE8804046
:1024200006F022B870477047D0F800C0DCF81830CA
:10243000DCF80020D90502F0800208D53AB1416CE1
:1024400041F0010141644FF48071CCF81C10590532
:1024500008D53AB1416C41F0080141644FF4806104
:10246000CCF81C10990508D53AB1416C41F0020135
:1024700041644FF40071CCF81C10416C11F00B0F4B
:1024800018BF00F0D5BC70470268436B91691268B1
:1024900003B118477047704770477047704780B561
:1024A000032000F04CF80F2000F007F808B10120DD
:1024B00080BD00F00BF8002080BD80B540F23820D0
:1024C000C2F2000000688047002080BD704700F025
:1024D0001F01012202FA01F14EF200124009CEF270
:1024E000000242F82010704710B54EF60C5CCEF298
:1024F000000CDCF80030C3F3022E8EF00704042C2D
:1025000028BF0424BEF103034FF0FF3E0EFA04F48B
:1025100038BF0023A14399400EFA03F39A431143B5
:1025200000F1604200F00F03090102F56442043B30
:102530006344002848BF03F10C02117010BD4EF631
:102540000C51CEF200010A684FF6FF031A4060F307
:102550000A2242F0806040F0FD7008607047000081
:1025600047F2000CC4F2000CDCF80020B0F5007F4C
:1025700002F4C0602AD1B0F5007F31D0DCF8000051
:10258000012262F34A20CCF8000040F27C10C2F233
:1025900000000068322358434DF68363C4F21B33B6
:1025A000A0FB030302EB9340002200BFDCF81410F1
:1025B000013842F10003490501D5002BF6D1DCF8C2
:1025C0001400400544BF0320704709E0B0F5806F58
:1025D00006D0DCF80000022161F34A20CCF80000AC
:1025E0000020704747F20000C4F20000006800F4C9
:1025F000C06070472DE9F04381B0002800F0A28050
:1026000042F20008C4F202080446D8F800000D4661
:1026100000F0070088420DD2D8F8000020F0070033
:102620002843C8F80000D8F8000000F00700A842CE
:1026300040F08880206841F20809C107C4F202090D
:1026400034D0606840B102280BD003280ED159F86D
:10265000081C89010ED475E059F8081C890709D4B3
:1026600070E059F8081C890304D46BE059F8081C81
:10267000490567D5D9F8001021F003010843C9F8CE
:102680000000FFF7C2FE064641F28837D9F8000085
:10269000616800F00C00B0EB810F06D0FFF7B5FECB
:1026A000801BB842F2D903204DE02068810707D58E
:1026B000D9F80010A26821F0F0011143C9F8001008
:1026C000D8F8001001F00701A9420CD9D8F8001081
:1026D00021F007012943C8F80010D8F8001001F0D4
:1026E0000701A9422ED1410707D5D9F80010E268A9
:1026F00021F4E0611143C9F80010000708D5D9F8AA
:102700000000216920F4605040EAC100C9F80000CF
:1027100000F01CF8D9F800104DF2FC12C1F30311BF
:10272000C0F60002515C40F27C1201F01F0120FA59
:1027300001F1C2F200020F20116001B0BDE8F043C8
:10274000FFF7BBBE012001B0BDE8F08341F2000CF1
:10275000C4F2020CDCF8080010F00C02DCF80C00EB
:1027600005D00C2A30D100F0030001282CD1DCF870
:102770000000000703D4DCF89400000A02E0DCF853
:10278000000000094DF20C2300F00F00C0F600031A
:1027900053F82030002A184618BF00200C2A18BF12
:1027A0007047DCF80C00DCF80C1000F00302C1F3F9
:1027B0000210022A00F101000FD0032A04BF49F2DF
:1027C0008063C0F298030CE0042A1BD0082A1ED1B3
:1027D00049F28060C0F29800704742F20043C0F2B4
:1027E000F403DCF80C10B3FBF0F0DCF80C20C1F3C0
:1027F00006214843C2F34161022202EB4101B0FBD2
:10280000F1F0704742F20040C0F2F400704700203F
:102810000023C3E72DE9F04381B0002800F0528186
:1028200041F200060446C4F20206B068F16822785C
:1028300000F00C08D00601F003071BD42078C00775
:102840004FD0B8F1080F45D0B8F10C0F08BF032FD7
:1028500040D06068B0F5803F07D0B0F5A02F40F0C1
:10286000BA81306840F480203060306840F48030B5
:102870003060BBE1B8F1000F1CD0B8F10C0F08BFFD
:10288000012F17D0A1693068002900F04C8140F079
:1028900001003060FFF7B9FD054600BF30688007D2
:1028A00000F15481FFF7B1FD401B02284FF00300F7
:1028B000F4D908E13068800703D5A069002800F04A
:1028C0000181206A3168090700F1CF80D6F89410A1
:1028D0000909CBE03068800303D56068002800F068
:1028E000F180207880072CD5B8F1040F1BD0B8F107
:1028F0000C0F08BF022F16D0E1683068002900F0E5
:10290000858140F480703060FFF77FFD054600BF91
:10291000306840050ED4FFF778FD401B02284FF0C9
:102920000300F5D9CFE03068400503D5E068002802
:1029300000F0C8807068216920F0FE4040EA016024
:1029400070602078000723D42078400738D420789E
:1029500080066FD4A06A002800F0D481B8F10C0F73
:1029600000F0B0803168022821F08071316040F0C1
:102970005F81FFF74AFD05463068800140F18F8195
:10298000FFF743FD401B02284FF00300F4D99AE003
:102990006169D6F89400002900F0B08040F0010091
:1029A000C6F89400FFF731FD054600BFD6F8940045
:1029B0008007C9D4FFF729FD401B0228F6D908E19A
:1029C000B06D10F0805908D1B06D40F08050B06506
:1029D000B06D00F080500090009847F20007C4F2FC
:1029E00000073868C00512D4386840F48070386039
:1029F000FFF70BFD054600BF3868C00507D4FFF799
:102A000004FD401B02284FF00300F5D95BE0A068ED
:102A1000012808D0052840F0C080D6F8900040F08A
:102A20000400C6F89000D6F8900040F00100C6F807
:102A30009000C0E0616AD6F89800002900F0988004
:102A400040F00100C6F89800FFF7DFFC054600BF24
:102A5000D6F8980080073FF57DAFFFF7D6FC401B06
:102A600002284FF00300F3D92DE0316801F0F001A6
:102A7000884214D900F006FD20BB306840F0080001
:102A800030603068D4E9072120F0F000084330605E
:102A9000706820F47F4040EA0220706016E03168E0
:102AA00041F008013160316821F0F00101433160EB
:102AB0007168E26921F47F4141EA0221716000F00E
:102AC000E1FC18B1012001B0BDE8F083FFF73EFE44
:102AD000B1684DF2FC12C1F30311C0F60002515C63
:102AE00001F01F01C84040F27C11C2F200010860F1
:102AF0000F20FFF7E2FC0028E5D19FE620F001005F
:102B0000C6F89400FFF781FC054600BFD6F8940094
:102B100080077FF519AFFFF778FC401B02284FF0C4
:102B20000300F3D9CFE720F001003060FFF76DFC20
:102B3000054600BF306880077FF580AEFFF765FC73
:102B4000401B02284FF00300F4D9BCE7306840F086
:102B5000080030603068D4E9072120F0F000084315
:102B60003060706820F47F4040EA0220706065E6C3
:102B700020F00100C6F89800FFF747FC054600BFAB
:102B8000D6F8980080077FF5E5AEFFF73EFC401BC6
:102B900002284FF00300F3D995E7D6F890100028EB
:102BA00021F00101C6F89010D6F8901021F0040130
:102BB000C6F8901059D0FFF728FC054641F2883737
:102BC000D6F89000800761D4FFF71FFC401BB84285
:102BD000F6D9032077E73168002821F4803131608D
:102BE000316821F48021316000F08E80FFF70DFC08
:102BF000054600BF306880033FF573AEFFF705FC64
:102C0000401B64284FF00300F4D95CE720F4807087
:102C10003060FFF7FAFB0546306840057FF591AE5E
:102C2000FFF7F3FB401B02284FF00300F4D94AE7FB
:102C30003068000103D4F06820F00300F060F06811
:102C40004FF6FF71CFF6EE610840F060FFF7DDFB55
:102C5000044600BF3068800154D5FFF7D6FB001B47
:102C600003284FF00300F5D32DE7FFF7CEFB054611
:102C700041F28837D6F89000800707D5FFF7C5FBEB
:102C8000401BB8424FF00300F4D91CE7B9F1000F24
:102C90007FF45DAEB06D20F08050B06557E604F172
:102CA0002C078FCF256C6FF00F0404EB011141EA64
:102CB000022108430021CFF6E07101EB07516FF3C9
:102CC000140108434FF07E4101EB056101F07E41A4
:102CD00040EAC3600843F060306840F080703060C4
:102CE000F06840F08070F060FFF78FFB04463068BA
:102CF000800107D4FFF789FB001B02284FF0030077
:102D0000F5D9E0E60020DEE6FFF77FFB05463068F8
:102D100080037FF5E6ADFFF778FB401B64284FF09A
:102D20000300F4D9CFE6006841F21112C16821F026
:102D30000101C160016A114208D1016A40F24442B6
:102D4000114203D1016821F00101016000207047A8
:102D500040F28C70C2F20000FFF766BB40F28C704C
:102D6000C2F20000FFF790BB40F2D870C2F2000040
:102D7000FFF75ABB40F2D870C2F20000FFF784BBE5
:102D8000806A0023D0E90E128B63936390F84110A0
:102D9000602918BFFFF77FBB202180F84110FFF7A3
:102DA00041BB10B590F84110036801F028012829B3
:102DB00019D19969D3F818E09A68D3F80CC0C4689F
:102DC000C1F30041022C4FEA1E4E12D18EEAD214FA
:102DD00014F0060F17D01C680CF0FE0224F0B804A3
:102DE0001C6000230CE00821D961002180F840100C
:102DF00010BD1A6822F0B8021A6000230EF0FE021D
:102E000080F8403010E0846C01348464846C022CBF
:102E100018BF10BD4FF0000C08246FF39F22C0F8BC
:102E200048C0DC6180F840C0BDE81040FFF7FBBA45
:102E300010B5002304460022CFF6FF7390F841003E
:102E400084F84220E3626285626C11436164A0F100
:102E5000280194F8410002291BD800F028002828F6
:102E600094F841004FF0F20100F0280008BF422121
:102E7000282820684FF0B40208BF042203681143D9
:102E800023EA0101016043F22311C0F60001282268
:102E90000DE094F841002068016821F0FE01016016
:102EA00094F8411060294FF0000102D0202284F8EC
:102EB000412000222263616302680168520410D439
:102EC000090420D494F84100602833D12020002147
:102ED00084F84100204684F84010BDE81040FFF718
:102EE000A1BA21F480410160A06B10B342F6815178
:102EF000C0F600018163002184F84010FFF701F85B
:102F0000B8B1A06B11E0016821F400410160E06BF1
:102F100078B142F68151C0F600018163002184F846
:102F20004010FEF7EEFF20B1E06B816BBDE8104072
:102F3000084710BD0021204684F84010BDE810402D
:102F4000FFF7A9BA0022CFF6FF72C2620022202347
:102F50004907026380F8413080F84220426311D56E
:102F60000168436A496A1970436A018D01334362FB
:102F700041B101390185418D01394185416C41F0F3
:102F80000401416490F8411090F8411001680B6809
:102F900023F0FE030B601023CB6180F84020FFF785
:102FA0007BBAB0B50446006820230268C3610823D9
:102FB000C36194F8413094F8413003684EF600053F
:102FC00023F0FE0303604368CFF6006543F400433B
:102FD000436043682B40436083690D469B0744BFB1
:102FE000002181628169C90703D1816941F0010132
:102FF0008161510403D4110406D5E16B00E0A16B9B
:1030000011B109684968618569070CD5406A616A30
:103010000870616A208D0131616220B1013820851C
:10302000608D01386085608D18B1606C40F00400DF
:1030300060640020206384F842006063606C70B1BB
:10304000616C2046FFF7F4FE94F84100282818BF71
:10305000B0BD20462946BDE8B040FFF773BFE06A27
:1030600010F5803F0ED194F84100202184F84110E2
:1030700000212228204684F8401012D1BDE8B0403B
:10308000FFF70BBA0020CFF6FF70E062202000218E
:1030900084F84100204684F84010BDE8B040FFF7B6
:1030A000FBB9BDE8B040FFF7F9B94FF0000C80F86C
:1030B00042C090F84120292A16D1282280F84120C8
:1030C0002122026390F84120016802F02802282A98
:1030D0000A686FF0F20308BF6FF042031A400A60FB
:1030E00080F840C0FFF7DAB990F841102A2918BFDC
:1030F0007047282180F841102221016390F8411087
:10310000036801F02801282919686FF0F40208BF4C
:103110006FF0440211401960002180F84010FFF761
:10312000BCB970B50446C06A94F84030012B04BFA6
:10313000022070BD0D4602EA05060121F20684F860
:10314000401015D4710725D431075DD4B10763D57C
:10315000618D00296AD0606A216810F8012B8A62AB
:103160006062608D01386085208D0138208553E0D4
:10317000618D49B321681022CA61616C6FF0807261
:10318000104241F00400606446D1616C2046FFF7B4
:103190004FFE41E0618D61B12168626A496A117038
:1031A000616A228D01316162511E2185618D013973
:1031B0006185618D81BB0021CFF6FF7188422BD0E4
:1031C0002046FFF772FF27E094F84110282908BF36
:1031D000B0F1007F1CD094F8412021681023292AE7
:1031E000CB6119D10022CFF6FF72904214D08869CA
:1031F000800744BF002088628869C007E0D18869E1
:1032000040F001008861DBE72046FFF7CAFD03E0DC
:1032100020462946FFF796FEB00603D520462946EC
:10322000FFF7BFFE002084F8400070BD6FF0807192
:103230000842F1D1C4E710B540F2086046F20041FF
:10324000C2F20000C4F2000140F200140222002386
:10325000C0F2011480E80E0000F10C014FF4803C34
:103260004FF4800E81E8085084618383FEF7D0FC20
:1032700018B1BDE81040FEF7E5B910BD80B582B0C9
:1032800041F24800C4F202000168002241F001014D
:103290000160016801F0010101910199016841F0AB
:1032A000020101600068002100F002000090009817
:1032B0000E20FFF719F90E20FFF709F90F20002162
:1032C0000022FFF711F90F20FFF701F9102000216C
:1032D0000022FFF709F91020FFF7F9F8112000216B
:1032E0000022FFF701F91120FFF7F1F84420002137
:1032F0000022FFF7F9F84420FFF7E9F84520002104
:103300000022FFF7F1F8452002B0BDE88040FFF74A
:10331000DEB82DE9F04F87B0002741F24C00CDE92F
:103320000577C4F20200016840F2004B41F004014D
:1033300001600168C4F6000B01F0040101910199DC
:1033400001680BF5806541F002010160016800220F
:1033500001F002010191019901684FF44C5A41F0CA
:1033600001010160016801F0010101910199016809
:1033700041F080010160016801F080010191019933
:10338000016841F00801016000684FF44C5100F001
:103390000800019001982846FFF731F84FF090405F
:1033A0004FF41F6100224FF41F69FFF728F85846B9
:1033B00040F60301002240F60308FFF720F84CF620
:1033C000FE0002AE0290032428463146CDE90347B1
:1033D000FEF740FFCDF808A04FF0010A284631461D
:1033E000CDE903A70597FEF735FF49F23C0002A996
:1033F00091C158463146FEF72DFF49F2030002A95C
:1034000091C14FF090403146FEF724FF0A2002A9F7
:1034100091C10BF5C0503146FEF71CFF042002A9F4
:1034200091C10BF500603146FEF714FF4FF4806048
:1034300002900020C1F21100CDE903072846314671
:10344000FEF708FF4FF090403146CDE9029ACDE9F2
:103450000477FEF7FFFE58463146CDE9028ACDE9F2
:103460000477FEF7F7FE4FF40050CDE90207584607
:1034700031460497FEF7EEFE07B000F000B830BC0E
:10348000BDE8C08FB0B582B041F25805C4F2020564
:1034900029680446C9000FD4286840F0805028608D
:1034A000286800F0805001900198FFF79BF8296888
:1034B00021F08051296001E0FFF794F8B0F5007F1A
:1034C00006D1812C08D30120A02C88BF02200DE05A
:1034D000802C03D9032009E0002007E0A4F170004C
:1034E000B0FA80F04009802C08BF022042F20001AF
:1034F000C4F202010A6822F0070202440A60096865
:1035000001F00701081A18BF012002B0B0BD4EF645
:103510000850CEF20000D0F880104FF0000C41F4BB
:103520007001C0F8801041F20001C4F202010A6883
:1035300042F001020A60C1F808C00B684FF6FF7242
:10354000CEF6F6221A400A604FF48052CA600A682A
:1035500022F480220A60C1F818C04FF000610160B7
:10356000704740F62400C2F2000001680869C007F5
:103570001ABFC8685FEAC07070476FF0010205208B
:103580000A6101F0E9B840F2705040F64051C2F2D1
:103590000000C0F203010023C0E9001340F278519B
:1035A00048F2EF2040F20002C2F20001C0F6000033
:1035B000C0F60002C1E900338B60FDF7DAB8000005
:1035C00080B540F2144C0020C2F2000C4FF47A7E19
:1035D000012300210CEB01021431B1F5A07FC2F8E8
:1035E00004E01372D0601061F4D180BD80B540F268
:1035F0005C51C2F2000100200A4642F8040F8860C4
:103600000A6047F6DF7040F20002C0F60000C0F624
:103610000002FDF7AEF843F23560C0F60000BDE8E9
:10362000804007F0C7B8016809690847016809695F
:1036300008470000F0B587B00020069010461546F8
:10364000FDF79CF810F1100F46D204460B2804D267
:103650006E468DF80B406CB911E004F1100020F0BB
:103660000F07384606F02CFE0646009047F0004053
:10367000CDE90140304629462246FDF79EF8002557
:1036800016A268460021355504F02BFA90E80E008A
:103690000DF10C0C8CE80E00C0E90055856003A804
:1036A00003F014FD9DF91700B0F1FF3F05DC05990B
:1036B000039821F0004104F02CFE9DF90B00B0F1BD
:1036C000FF3F05DC0299009821F0004104F021FE43
:1036D000069801300690FBE7FDF740F86F73616CC8
:1036E0005F696E69745F7072655F6D61696E5F744A
:1036F0003A3A6F6E5F666174616C2829202D3E2016
:10370000000000002DE9F0470446002A4FF00000B9
:1037100059D00F46216816460A68BA4288BFBDE8EC
:10372000F0871D464B681A44BA424CD3C868B04271
:103730003CBF0020BDE8F087384600F08FFF82468E
:10374000384600F0BFFF8046B819013800F086FF08
:10375000216881468A69924511D0501C03D00846E1
:1037600000F034F802E0084600F061F82068FF221B
:10377000D0E90310FDF71FF92168C1F818A0D14561
:1037800003D148692946404419E0C8684969A0EB5B
:10379000080201EB08002946B61AAF18FDF752F8E7
:1037A000206800F013F82068FF22D0E90310FDF72D
:1037B00002F921680AF1010248698A6139463246F4
:1037C000FDF740F80120BDE8F0870000F0B581B0BA
:1037D000044690F8200010B9204600F028F8FEF7C3
:1037E00022FDA06900F05EFF616ACE0815D0054693
:1037F000002700BF2068E91988420AD8626810448F
:10380000884206D32069C319C2595B680020FEF7BD
:1038100097FC013E07F10807ECD1FEF780FC009011
:1038200000980090FEF781FC012001B0F0BD70B55A
:1038300086B0044690F82000D0B9206800F00EFF52
:10384000D4E900120546501800F008FF401B002183
:1038500001260291CDE9036505900191FEF7E3FC95
:1038600002A801A9FEF7C6FBFEF75FFC84F8206002
:10387000012006B070BD2DE9F04104464FF4006010
:10388000069D6062002016460F4621604FF000083A
:1038900000F0FBFE0068B84204D9022000F0F5FEFB
:1038A0000068206000F02EFF40684FF0FF31806814
:1038B000666000286062C4E9061808BF4020E06026
:1038C00015B10120256106E020F0070004F023FD7A
:1038D00005462061002020720020656184F82000E8
:1038E000FEF7A1FC2046BDE8F0810068FFF79FBF0E
:1038F00080B500688169013118BFFFF767FF0120BB
:1039000080BD2DE9F04381B0DDF8209007462820E6
:10391000984615460E4604F000FD31462A464346B9
:103920000446CDF80090FFF7A6FF38463C6001B092
:10393000BDE8F08340F25850C2F2000000787047B2
:103940004068806870474268002093688B4288BF57
:103950007047D2681A448A4228BF01207047F0B5E8
:1039600081B00446816008461D46164600F0B5FE4B
:1039700008B1A76804E0032000F087FE0768A7608D
:10398000002000F082FE00683F1A002000F07DFE5B
:103990008068B6F5006FB7FBF0F0606028BF4FF4A9
:1039A0000066002E08BF4026E66015B101202560A4
:1039B00006E040F6F870304004F0ADFC20600020D6
:1039C0002074FEF730FC204601B0F0BDF0B581B0A8
:1039D000074600681546426838461C460E46904722
:1039E00080B13868A91942683846904701464FF0BF
:1039F000000044B139B1204631462A46FCF722FF87
:103A0000012000E0002001B0F0BD70B50446006860
:103A10001546426820460E46904720B12068A919F5
:103A2000426820469047002070BD0000F0B581B08C
:103A3000044600681646426820461D460F469047D9
:103A4000002851D02068F11942682046904701466D
:103A5000002D4FF0000048D0002946D0D4E900C026
:103A60000368D0E90212DCF818C02046E047D8B35A
:103A70006068324681680068791A21F007010844BD
:103A80002946FCF7DFFE2068016920468847FEF7DB
:103A9000CAFB6068C768FE081DD001688568D1E967
:103AA000002300202946FEF74BFB102F13D30835C7
:103AB000012001276168096801EBC00351F830203B
:103AC0005B6800202946FEF73BFB0137B8B286420F
:103AD00005F10805EED8FEF722FB00900098009053
:103AE000FEF723FB012000E0002001B0F0BD40689C
:103AF000C068704780B586B0012240680392406874
:103B00000021CDE90402CDE90111FEF78CFB02A8EA
:103B100001A9FEF76FFAFEF708FB012006B080BD91
:103B2000012070472DE9F04107464DF29C30C0F668
:103B30000000083038601420984615460E4604F000
:103B4000ECFB31462A4643460446FFF708FF384659
:103B50007C60BDE8F08180B500F005F80821BDE883
:103B6000804004F0D6BBB0B504464DF29C30656889
:103B7000C0F60000083020604DB1287C18B92868D4
:103B800008B104F0BFFB2846142104F0C2FB204614
:103B9000B0BD0120704780B582B00068009043F648
:103BA0003B40C0F600000190684604F0B5FCFFF70A
:103BB000F0FF012002B080BD80B550B3037840F61D
:103BC000006C0146CEF2000C4FF00100BBB14FF08B
:103BD000604E00BFDCF88020D2070BD0DCF800205C
:103BE000D20707D0DEF8002012B900BFFAE700BF05
:103BF0008EF8003011F8013F0130002BEAD1DCF8DB
:103C00008010C9071CBFDCF800105FEAC17102D147
:103C100080BD002080BD4FF0604100BF0A680AB936
:103C200000BFFBE70A220A7080BD90F90B10026802
:103C3000002948BF1046FFF7BFBF80B503F01FFA49
:103C40004FF47A720023FCF768FC80BD70B582B037
:103C50000C46054600F025FB0068E840C0071FD071
:103C600040F2801105EB8500C2F2000101EBC000BB
:103C7000C56900212846072200230094002600F091
:103C800025F92846022102220023009400F01EF9A3
:103C90002846042100220023009400F017F900E0D8
:103CA000FF2670B202B070BDF0B58BB040F280124A
:103CB00004460021C2F20002002000BF1CB15718C8
:103CC000FB69A34205D02831502900F10100F5D14C
:103CD00083E0C1B21F2900F0808040F20C41C2F2A3
:103CE0000001096821FA00F0C00776D00020CDE974
:103CF0000200CDE90000684604AE00F10805304638
:103D00001C21FCF760FE2046002132462B46FDF7C1
:103D1000F2FD049808997E6A00908DF80410D6E9A7
:103D200000407978021BB1EB221F0DD804F110017D
:103D3000451A324604D020462A46FCF7F7FD7A6A37
:103D40006019706050681646B168884204D09DE8DA
:103D50002E002EC070603CE03168401A012101EB5A
:103D60002011B1F1805F3AD24FF6F075B1EBE00F60
:103D7000C7F6FF754FEA201206F1080398BFC1107D
:103D8000A84204A828BF6FF0704104F02FF80698ED
:103D90009DE82E002EC0069800F110030693D6E988
:103DA000001505986A1A801A012A059005DBFCF7B0
:103DB00004FDDDE90503D6E9001530600591736067
:103DC00006950798B268B06004A80792049104F0C1
:103DD00027F8796909B1B86988470BB0F0BDFCF7DD
:103DE000BDFC00002DE9F0418CB040F28012044689
:103DF0000021C2F2000200201CB15718FB69A34247
:103E000005D02831502900F10100F5D144E0C1B2BC
:103E10001F2941D040F20C41C2F20001096821FA89
:103E200000F0C00738D0796809B1B86888473E6AA1
:103E3000D6E90001884232D0D0E90012D0E902036D
:103E4000CDE90112CDE90303D6E9005005F11001D7
:103E5000B0EB010803D028464246FCF767FD05EBAE
:103E600008007060F8690121FDF759FC06AD281DB6
:103E70001421FCF7A8FD01989DF808106FF3DF20CE
:103E800006900020059001A80A9100F1080205ABF8
:103E900020462946FDF756FC0CB0BDE8F081012014
:103EA0008DF81800F8690168496901F001018DF881
:103EB00018100121FDF70CFD9DF81800F968002984
:103EC000EAD038690CB0BDE8F04108472DE9F0416F
:103ED0008AB0804610980D46190141EA022400F08C
:103EE0000F0020444001012700900026694640460B
:103EF000CDE90677CDE90166CDE903660595CDE903
:103F00000876FDF771FC90B94FF4F07040EA441068
:103F1000CDE90006681C059069464046CDE9026679
:103F200008970996FDF760FCB0FA80F04609304624
:103F30000AB0BDE8F0812DE9F04784B0904640F228
:103F40000C42C2F200021268C240D20736D040F2E0
:103F5000801200EB8000C2F200020C46002102EB4E
:103F6000C00588F80010AA465AF81C0FCDE90211C6
:103F7000CDE900110221FDF7ABFC55F8247FD7E90C
:103F8000006086421CD096E80E108DE80E1006F1F7
:103F90001001B0EB010930463A4605D030464A469A
:103FA000FCF7C4FC2A68106806EB090179605168C7
:103FB0000025081A000988F8000002E0FF2508E043
:103FC000FF25DAF800000221FDF7A9FB9DE80F00AC
:103FD0000FC468B204B0BDE8F0872DE9F04786B0A1
:103FE00040F20C42C2F200021268C240D2073FD037
:103FF00040F2801900EB8004C2F200098A460121D8
:1040000009EBC4068DF80410B04658F81C0F01687F
:10401000496901F001018DF804100121FDF758FCF8
:104020009DF8040000F001008DF8030056F8207F91
:1040300019F83410D7E90050421BB1EB221F0FD101
:1040400005F11001B0EB01093A4604D028464A4672
:10405000FCF76CFC326805EB090078605068174685
:10406000B968884206D09AE84E004EC078603EE0BB
:10407000FF2046E03968401A012101EB2011B1F11F
:10408000805F42D24FF6F076B1EBE00FC7F6FF76D5
:104090004FEA201207F1080398BFC110B04201A8EF
:1040A00028BF6FF0704103F0A1FE03989AE84E001C
:1040B0004EC0039800F110030393D7E9001602984D
:1040C000721A801A012A029005DBFCF776FBDDE903
:1040D0000203D7E90016386002917B6003960498CA
:1040E000BA68B86001A80492019103F099FE9DF8A6
:1040F0000300C00704D0D8F800000121FDF70FFB32
:10410000002040B206B0BDE8F087FCF727FB2DE9A0
:10411000F04F8BB00C46054600F0C3F80068012153
:1041200001FA05F910EA090F00F0808040F20C480E
:10413000C2F20008D8F80000002610EA090F76D174
:1041400000F0AFF8294603F05EFB40F2801C05EB5F
:104150008500C2F2000CD4E904A3D4E9001ED4E91E
:1041600002B20CEBC0074CF830107B61C7E9032AA0
:10417000C7E901EBA069B86100F093F800EB850096
:104180004068006847F81C0F0C2004F0C6F805468C
:10419000C0E90066866078600C2004F0BEF8B86064
:1041A0002178C0E900668660284604F03CF8B868CB
:1041B000617804F038F80DF1040A3C680125504696
:1041C000142107960895FCF7FEFB0E200A90204666
:1041D000514609950696FDF707FB3C6843F6E55204
:1041E000C0F6000220460021FDF716FEF0B943F6A6
:1041F000E552C0F6000220460121FDF70DFEA8B9E8
:1042000043F6E552C0F6000220460221FDF704FE07
:1042100060B943F6A942C0F6000220460621FDF728
:10422000FBFD18B93868FDF739FE20B1FF2670B2E2
:104230000BB000F008B8D8F80000002640EA0900EA
:10424000C8F80000F3E730BCBDE8C08F10B582B0FD
:1042500040F20C41C2F200010968C140C9071CD0FC
:1042600001218DF8071040F2801100EB8000C2F2AE
:10427000000101EBC004E0690168496901F0010136
:104280008DF807100121FDF723FB9DF80700E06979
:104290000221FDF744FA002000E0FF2040B202B006
:1042A00010BD4DF25020C0F6000070472DE9F041DE
:1042B0008CB040F20C41C2F200010968C140C9074C
:1042C0004DD040F2801100EB8000C2F2000101EB02
:1042D000C00757F81C8F01208DF81800D8F800008F
:1042E0000121406900F001008DF818004046FDF7FB
:1042F000EFFA9DF8180000F001008DF813007C68BB
:10430000D4E9000188422CD0D0E90012D0E90203A0
:10431000CDE90012CDE90203D4E9005005F1100106
:10432000461A03D028463246FCF700FBA81906AD12
:104330006060281D1421FCF746FB00989DF80410CE
:104340006FF3DF2006900020059068460A9100F187
:10435000080205AB40462946FDF7F4F905E0FF20C9
:1043600008E09DF81300C00703D038680121FDF76D
:10437000D6F9002040B20CB0BDE8F081B0B50446DB
:1043800040F21040C2F200000068012101FA04F579
:10439000284214D000F05EF8016829421ABF00EBF1
:1043A000840040680020851C00F054F800EB840075
:1043B00040680178284600F0EDF8002000E0FF207A
:1043C00040B2B0BDB0B5044640F21040C2F20000A9
:1043D0000068012101FA04F5284214D000F03AF8EF
:1043E000016829421ABF00EB840040680020851C48
:1043F00000F030F800EB840040684178284600F077
:10440000C9F8002000E0FF2040B2B0BD70B50446FE
:1044100000F020F80068012101FA04F5284216D0C6
:1044200040F21046C2F20006306828420DD1FFF774
:1044300081FA60B100F00EF8214603F0E9F9306826
:10444000284330602046FFF7BDFF002000E0FF203A
:1044500040B270BD4DF26420C0F600007047B0B5A8
:10446000044640F21040C2F200000068012101FA47
:1044700004F528420DD0FFF7EDFF016829421ABF6D
:1044800000EB840040680020023000F0AAF8002011
:1044900000E0FF2040B2B0BD10B50446FFF7DAFFE0
:1044A0000068E04000F0010010BD81B001680131FA
:1044B00004BF01B07047416800910099006880F323
:1044C000088801B0084700004EF60C50BFF34F8F2C
:1044D000CEF200000168042201F4E061C0F2FA5259
:1044E00011430160BFF34F8F00BFFDE7002070470D
:1044F0000020704781B041F24C00C4F20200016814
:1045000041F001010160006800F001000090009896
:1045100001B0704781B041F24C00C4F20200016862
:1045200041F002010160006800F002000090009874
:1045300001B0704781B041F24C00C4F20200016842
:1045400041F004010160006800F004000090009850
:1045500001B0704781B041F24C00C4F20200016822
:1045600041F008010160006800F008000090009828
:1045700001B0704781B041F24C00C4F20200016802
:1045800041F010010160006800F0100000900098F8
:1045900001B07047B0B50C46054600F01DF82B88F9
:1045A000FF21DAB20A2A15D813F4704512D1190A7C
:1045B00030F81230012505FA01F1194209D000EB5B
:1045C0008200806928B189B22246FDF718FF0021D8
:1045D00000E0FF2148B2B0BD4DF28820C0F60000D7
:1045E000704710B50446FFF7F7FF2388FF21DAB2C2
:1045F0000A2A14D813F4704411D1190A30F8123071
:10460000012404FA01F1194208D000EB820080690C
:1046100020B189B2FDF7EFFE002100E0FF2148B292
:1046200010BDB0B584B040F25855C2F200052978EB
:1046300089B9044640680021CDE9011043F62B40BA
:10464000C0F60000039001A802F01FFD2046FFF70E
:10465000A2FA01202870012004B0B0BDB0B5044614
:1046600000F050F8D0E9001001F00101494201EAE0
:104670000005204600F031F810B12868201A00E04B
:104680006868A968B0FBF1F0B0BD10B5044600F051
:1046900039F80168E140C9070EBF002000EB840033
:1046A000406810BD10B5044600F02CF84068016861
:1046B000806800FB0414204600F00FF8002818BFA3
:1046C000204610BD10B5044600F01CF84068806814
:1046D000B4FBF0F101FB104010BD10B5044600F032
:1046E00011F80178406801F0010149420840016871
:1046F000A14205D840680844A04284BF012010BDF3
:10470000002010BD4DF23430C0F60000704710B5E7
:1047100040F25451C2F200010968044621FA00F047
:10472000C00711D000F013F800EB84004068406827
:10473000FEF7F9FA40F2144204EB8401C2F20002DF
:10474000002002F8210000E0FF2040B210BD4DF231
:104750004C30C0F600007047B0B540F25451C2F280
:1047600000010968044621FA00F0C00708BFB0BD87
:1047700040F2144104EB8400C2F2000101EB800519
:10478000E96809B128698847287A00B1B0BD204698
:10479000BDE8B040FFF7BBBF00207047B0B540F2A6
:1047A000E430C2F20000007840F2AC55C007C2F21B
:1047B0000005BFF35F8F01D02868B0BD40F2E43040
:1047C000C2F2000003F0CAFE0028F5D0082003F072
:1047D000A4FD04464DF2CC30C0F600000830206045
:1047E000082003F09AFD0021C0E90011606040F24A
:1047F000E430C2F200002C6003F0E0FEDCE70020B1
:10480000704700207047704710B5044601F026F845
:104810006168486060682146406800F0CDFF6068CC
:104820000121017010BD4068406801F01CB80020F3
:10483000704710B504464DF2CC30C0F60000083089
:10484000206060680021616010B1082103F061FD03
:1048500020460821BDE8104003F05BBD10B50446BA
:104860004DF2CC30C0F600000830206060680021B6
:10487000616010B1082103F04CFD204610BD0020FE
:104880007047B0B540F2E830C2F20000007840F264
:10489000B055C007C2F20005BFF35F8F01D0286892
:1048A000B0BD40F2E830C2F2000003F057FE00282D
:1048B000F5D0082003F031FD04464DF20040C0F66B
:1048C000000008302060082003F027FD0021C0E927
:1048D0000011606040F2E830C2F200002C6003F08A
:1048E0006DFEDCE70020704700207047704710B570
:1048F000044600F0B3FF6168486060682146406884
:1049000000F05AFF60680121017010BD002070475F
:1049100000207047406801214170704710B504467F
:104920004DF20040C0F600000830206060680021B1
:10493000616010B1082103F0ECFC20460821BDE8BD
:10494000104003F0E6BC10B504464DF20040C0F63E
:1049500000000830206060680021616010B108210B
:1049600003F0D7FC204610BDB0B501200C4681F8FD
:10497000300000F0BBFC054602F0A0FF216818B132
:10498000284600F023FD02E0084600F08EFFE069B3
:10499000012816D1D4E90A1001308842E06210D310
:1049A000606A0121012884F831100AD1606800F0A2
:1049B000F1FD94F83100002818BFB0BD00206062FE
:1049C0002086B0BD70B582B00D46096851B104466D
:1049D000281D164602F07CFF20B16869012804D129
:1049E000A86910B9002002B070BD4FF0000016B9E0
:1049F000616A0129F7D0D5E9033695E80450696961
:104A0000C4E9053604F10803E16183E80450AB69A9
:104A100084F830002362606844F66913C0F600032E
:104A2000002918BF0121009400F0B7FD50B1D4E96E
:104A3000073601210022012B18BF1646C4E90916CA
:104A4000E26201E000216162002184F83110CAE7CE
:104A50000020704700207047B0B5044640680D46FE
:104A60008172203000F0DAFD606829464068BDE8B8
:104A7000B04000F098BE00F001B87047F0B581B0CA
:104A800004464068D0E90325D0E9066712B1204604
:104A900029469047304600F0E4FE014620462A466B
:104AA000B847F7E710B50446406838B1216800F010
:104AB000ABFE606800F08BFD0020606004F1200018
:104AC00000F0BEFD204610BD70B582B04B69BBB38F
:104AD0000446088800284FF0000032D08B7883B35A
:104AE000606891E80850D1E9035649698360C0F8CD
:104AF0000CC0C0F810E0C0E90556C161636844F617
:104B00007D211889C0F60001C61D26F00700188116
:104B100003F12000002A18BF11469B7A4FF6F87265
:104B200016402246009600F070FD6068203000F0CC
:104B30002EFD61684860214600F03EFE012000E045
:104B4000002002B070BD4068406800F08CBE0020BC
:104B50007047000070B504464DF23440C0F60000C6
:104B600008302060242003F0D8FB00260546C0E969
:104B70000066402028810820A8720AA044F67B2203
:104B800005F114034FF0FF31C0F6000207C305F131
:104B90002000C5E9036600F044FD2046C5E9004653
:104BA000656070BD6576745468726561640000006C
:104BB00080B500F005F80821BDE8804003F0A9BBEE
:104BC00010B504464DF234414068C0F6000108318A
:104BD000216020B1FFF766FF242103F09AFB2046F5
:104BE00010BD10B540F2EC30C2F20000007840F287
:104BF000B454C007C2F20004BFF35F8F01D0206835
:104C000010BD40F2EC30C2F2000003F0A7FC002817
:104C1000F5D0042003F081FB00F017F9206040F28A
:104C2000EC30C2F2000003F0C9FCE8E7F0B581B057
:104C3000FFF7D7FF0446FFF7B1FD21680546D1E92C
:104C400006744E6AFFF7E0FD17B128462146B847C3
:104C5000002EFDD028462146B047F9E786B004462D
:104C6000D1E900CED1E90235D1E90420C4E9023509
:104C7000C4E90420C4E900CED1E906C2D1E908356F
:104C8000D1E90A01C4E90835C4E90A01C4E906C248
:104C9000A08844F6DB4E44F62D43226804F13C051F
:104CA00044F6015CC0F6000EC0F60003A18AC0F60F
:104CB000000C4FF400668DE84300CDE9033E284622
:104CC0000023CDF814C000F01AFD284600F081FC46
:104CD000012084F8300000F0C9FC10B5FFF7D1FDC9
:104CE0000446FFF704FEFFF77CFF0068826812B1FC
:104CF000C168204690472046BDE81040FFF70ABE35
:104D00002DE9F0418CB015460F460646FFF769FFC6
:104D100080460068002E476385637BD0304600F0F4
:104D20007FFD58B106460068C1683046884728B103
:104D30003068C16830468847064603E04DF2755634
:104D4000C0F60006202003F0E8FA07460090202075
:104D5000C8F2000002901020019033A138461022C2
:104D6000FBF72BFD0024684631463C7402F073FECD
:104D700090E80E000DF10C0C8CE80E00C0E9004428
:104D800084602EA103A802F066FE90E80E000DF1EB
:104D9000180C8CE80E00C0E90044846006A829467F
:104DA00002F059FE90E80E000DF1240C8CE80E0084
:104DB000C0E90044846009A802F088F99DF92F0039
:104DC000B0F1FF3F05DC0B99099821F0004103F099
:104DD000A0FA9DF92300B0F1FF3F05DC0899069881
:104DE00021F0004103F095FA9DF91700B0F1FF3F63
:104DF00005DC0599039821F0004103F08AFA9DF93A
:104E00000B00B0F1FF3F05DC0299009821F0004152
:104E100003F07FFAD8F80000816A09B1C06A8847B8
:104E20000CB0BDE8F08100BF66726F6D206F733A01
:104E30003A5468726561642000000000202D3E2015
:104E4000000000000068FFF709FFF0B581B00027FF
:104E500004460760402003F060FA05464FF47A707C
:104E600040F20011C0F2080185E883004FF4807021
:104E70006F61A8820820A87505F118001921C5E9FD
:104E80000377C5E90D7705F13C06FBF79CFD30463D
:104E900000F057FC266885F8307025603EB106F1B9
:104EA0003C0000F06BFC3046402103F032FA204613
:104EB00001B0F0BD10B5416804464FF0000079B173
:104EC00022686AB1086802680846904701281CBF3A
:104ED000002010BD60682168026852699047012077
:104EE00010BD4068806800F0B9BB00207047B0B5C5
:104EF000044640680D468173283000F08FFB6068DF
:104F000029464068BDE8B04000F04DBC00F002B852
:104F1000704700002DE9F04180464068D0E9042642
:104F20008568C769446A1AB140463146904700BF58
:104F30002846394600F08DFB014640463246A047E0
:104F4000F6E710B50446406838B1216800F05CFC13
:104F5000606800F03CFB00206060A06818B100F0C1
:104F600029FC0020A06004F1280000F069FB204625
:104F700010BDF0B581B015468A6904464FF00000B7
:104F8000E2B30A7DD2B3088800284FF0000035D084
:104F90008A789AB360684E6901F10807D1E900CEBA
:104FA0008CCF066200F114068CC6C0E903CE896975
:104FB000416261688889073020F0070291F820007B
:104FC0008A8100F049FB626844F61571C0F6000161
:104FD0009060002D18BF2946937B978902F1280025
:104FE0002246009700F011FB6068283000F0CFFAED
:104FF00061684860214600F0DFFB012001B0F0BD90
:10500000002070470020704770B504464DF268409C
:10501000C0F60000083020602C2003F07EF9002646
:105020000546C0E9006686604020A8810820A87374
:105030000CA04FF0FF31C5E90601022085F82000E1
:1050400044F61170C0F60000686205F12800C5E959
:10505000046600F0E6FA2046C5E90046AE606560E9
:1050600070BD00BF6D7367546872656164000000B5
:1050700080B500F005F80821BDE8804003F049B98B
:1050800010B504464DF268414068C0F60001083191
:10509000216020B1FFF755FF2C2103F03AF920469B
:1050A00010BDB0B5426805464FF000008AB10C460D
:1050B000296871B1106801681046884706281CBF2E
:1050C0000020B0BD686829680268D3692246984705
:1050D0000120B0BD002070470B681BB1406880689C
:1050E00000F0FABA00207047B0B5044640680D469B
:1050F0008173283000F092FA606829464068BDE864
:10510000B04000F050BB00F001B870472DE9F04707
:1051100084B08246406845F20B148568D0E90426C5
:10512000C769406AC0F60004002818BF0446002082
:105130000390029012B1504631469047E8460DF177
:10514000080900BF404629463A4600F09AFADDE9D0
:1051500000100390029101B18847504649463246FB
:10516000A047EFE770B582B00B7DBBB3044608885B
:1051700000284FF0000032D015468A787AB3D1E982
:10518000032691E801504B69C4E9062604F10C029C
:10519000236282E801508969073020F007006162CC
:1051A000A081D8B200F080FA45F20D11C0F60001DE
:1051B000A060002D18BF29462268A37BA68904F1B0
:1051C00028052846009600F020FA284600F0DFF96E
:1051D0002168606000F0F0FA012000E0002002B0D9
:1051E00070BD10B50446406838B1216800F00CFB72
:1051F000606800F0ECF900206060A06818B100F071
:10520000EAFA0020A06004F1280000F019FA204614
:1052100010BD4068FFF7A6BF002070470020704710
:1052200070B504464DF29C40C0F600000830206086
:105230002C2003F072F800260546C0E9006686605F
:105240004020A8810820A8730CA04FF0FF31C5E9C9
:105250000601022085F8200045F20B10C0F6000080
:10526000686205F12800C5E9046600F0DAF9204615
:10527000C5E90046AE60656070BD00BF63626B54F7
:10528000687265616400000080B500F005F80821CF
:10529000BDE8804003F03DB810B504464DF29C4196
:1052A0004068C0F600010831216020B1FFF799FF86
:1052B0002C2103F02EF8204610BDB0B542680546FB
:1052C0004FF000008AB10C46296871B1106801687E
:1052D0001046884703281CBF0020B0BD68682968B5
:1052E00002689369224698470120B0BDB0B540F2EC
:1052F000F030C2F20000007840F2B855C007C2F2A8
:105300000005BFF35F8F01D02868B0BD40F2F030D8
:10531000C2F2000003F022F90028F5D0042002F0C8
:10532000FCFF04460C2002F0F8FF3221C0F20041DD
:1053300001600821818000218160206040F2F0300E
:10534000C2F200002C6003F039F9DDE7002914BF38
:105350000846704700F0A9BA70B588B004460068E6
:10536000866856BB082002F0D8FFFFF74DFE216883
:1053700001AD886028461821FBF725FB20680178DD
:1053800002798DF8061041888DF8182045F24D32CB
:10539000C0F60002ADF804104FF0FF31079209A2E9
:1053A0000591039404920021806843F22D620291DA
:1053B000C0F600022946FFF7DCFDB6FA86F0400988
:1053C00008B070BD74544D526D616E0010B5006828
:1053D000846824B120680022836920469847002C05
:1053E00018BF0124204610BD70B50468A4B105465D
:1053F00080680E46214668B101680968884704281C
:1054000006D1A868324601680B6A2946984703E02E
:10541000296809B168688847002C18BF0124204614
:1054200070BDB0B540F2F430C2F20000007840F236
:10543000BC55C007C2F20005BFF35F8F01D02868DA
:10544000B0BD40F2F430C2F2000003F087F800284B
:10545000F5D0042002F061FF04460C2002F05DFF4D
:1054600031220821C0F200420023C0E900218360FC
:10547000206040F2F430C2F200002C6003F09EF88D
:10548000DDE7000070B588B00446006886684EBB52
:105490008A88828009680160082002F03EFFFFF7D9
:1054A000BFFE216801AD886028461821FBF78BFA02
:1054B000002120680791027803798DF80620428840
:1054C0008DF81830ADF804204FF0FF32059208A295
:1054D0000492806843F227620291C0F600022946D6
:1054E000FFF797FEB6FA86F0400908B070BD00BF1E
:1054F0007443424B6D616E0070B582B040F26C54E3
:10550000C2F20004217809B101213DE0D0E9001286
:10551000114338D0018900294FF0000134D0827A3C
:1055200092B3018B00294FF000012DD0827E5AB337
:10553000D0E900CED0E90231D0E9042540F2D016FE
:10554000C2F20006C6E90425C6E90231C6E900CE6A
:10555000D0E906CED0E90835D0E90A21C6E90835F8
:10556000C6E90A21C6E906CE006B30630020009030
:1055700045F67310C0F6000001906846FFF751F839
:105580000121217000E00021084602B070BD0068D2
:1055900005F0C9BA032105F095BB80B586B0DDF8EA
:1055A00020C04FF0FF3ECDE902EE0492002918BF63
:1055B00001218DF81410CDE9003C02A96A460323AD
:1055C00005F034FBB0FA80F0400906B080BD05F06C
:1055D00089B970B582B0044600680026051D01A98E
:1055E0002846019604F012FE019810B104F068FEFE
:1055F00006462846314604F073FC40F26851C2F278
:10560000000101200C6002B070BD0068DDF800C030
:10561000C0E900120372A0F80AC070470068017266
:10562000704710B504460C2004F04AFE01460020E5
:10563000C1E900000120087248812046216010BDA8
:1056400010B50446006810B10C2102F062FE20463D
:1056500010BD032204F0EABE04F016BF80B5032398
:1056600004F088FFB0FA80F0400980BD40F2685035
:10567000C2F20000006818B10068806B05F0A2B8A3
:10568000704770B50D46096814460646084611462F
:10569000032204F0CBFE69683060084621460322ED
:1056A00004F0C4FE706070BDB0B504460C2004F078
:1056B00007FE05460020C5E90000A86004F0C0FF11
:1056C000A860204604F0E0FE2860204604F0DCFEDE
:1056D000014628466960B0BD70B50C4605460068B5
:1056E00009680323164604F045FF6868616832467E
:1056F000032304F03FFFB0FA80F0400970BD2DE9AC
:10570000F0470668DDE90B98DDF834A0099D089F95
:1057100006F114001C211446FBF755F940F2011064
:1057200040F27C11C0F20F10C2F20001321D096874
:1057300013C237827582C6E90CA9C6F83880BDE865
:10574000F087F0B581B004463C2004F0B9FD002795
:1057500005468761077700F1280604301121FBF721
:1057600032F930461421C5F82270C5F81E70FBF7D7
:105770002AF92C602046256001B0F0BD10B5044622
:10578000006810B13C2102F0C4FD204610BD80B578
:1057900004F0C0FD022803D1BDE8804005F010B838
:1057A0000020002180BD80B505F0C6F9B0FA80F078
:1057B000400980BD04F000BE80B584B0CDE9000191
:1057C00040F25C516A46C2F2000102A8134602F0A0
:1057D000B1FC04B080BD10B5044680684FF0FF31C5
:1057E00004F0BAFF206804F0E7FD606804F0E4FD0F
:1057F000A06804F08FFFA06804F0E8FE20460C21AA
:10580000BDE8104002F085BD80B582B0019040F245
:105810005C50C2F2000001A902F05CFC02B080BD45
:105820004FF00001C0B140F25C53C2F200035A686D
:1058300092B103F1040C6146136983422CBF1146F7
:1058400004321268002AF7D1614502D00A69824207
:1058500001D9002100E0496908467047032005F09E
:1058600081B804F02FBD80B50246084611460322D8
:1058700004F044FDB0FA80F0400980BD05F086B91F
:1058800010B500680468606A012802D16068FFF7FB
:1058900081FE94F8310010B900206062208601205A
:1058A00010BD00680068FFF78DB8B0B50546006808
:1058B000006890F8304074B10C304FF0FF3100F0C8
:1058C00031F828680021006890F8312080F8301005
:1058D0000AB141620186002C18BF01242046B0BDE8
:1058E00070B50446042002F018FD0546342002F08D
:1058F00014FD064608302821FBF765F800203460C7
:105900003086FFF7BBFF706020462E60256070BDBB
:10591000032202608B68D1E90021C360C0E9012144
:1059200070470000B0B50C46054601F0D1FF60B1EC
:1059300028680138032808D8DFE800F002090F15AD
:10594000281DBDE8B040FFF7B5BA0020B0BD281D46
:105950002146BDE8B040FFF7B0BC281D2146BDE898
:10596000B040FFF741BD281D2146BDE8B040FFF71C
:1059700098BBFFF70CBF70B58EB00A68044600688C
:105980000021012A0260816004D0FF2A04BF0021A7
:1059900001600121826B01730ABB0220FEF775FED4
:1059A0000220FEF772FE20680568012D18BF02254F
:1059B0002846FEF76AFE06682846FEF766FE45683A
:1059C000042002F0AAFC4FF0000C31462A464FF4A6
:1059D0000063CDF800C0FDF794FF2168886300F0F4
:1059E000BDFF02A901F030F898B120689DF80D20A4
:1059F00001688261012906D1BDF83010A0F81510A8
:105A00009DF8321004E0BDF80E10A0F8151000212A
:105A1000C17501200EB070BD10B540F2F830C2F271
:105A20000000007840F2C054C007C2F20004BFF387
:105A30005F8F01D0206810BD40F2F830C2F2000044
:105A400002F08CFD0028F5D0042002F066FC00F086
:105A50007FFD206040F2F830C2F2000002F0AEFD9F
:105A6000E8E72DE9F0418EB00E4680460020FE2189
:105A700001AF8DF80400ADF8080003918DF8100017
:105A800005908DF8180007F1180011211C461546E5
:105A9000FAF799FF384621460C968DF8345001F0FC
:105AA00007FE9DF82C104046002200F007F838460B
:105AB00001F02BFE0EB0BDE8F08100002DE9F041B1
:105AC00017460D4600F04AFF044600F06CFFFF2D1C
:105AD00080461AD04FF000078DB30F2D2FD0A84568
