:020000040800F2
:1000000018C800205D0400086504000867040008A3
:10001000690400086B0400086D040008000000007B
:1000200000000000000000000000000015030008B0
:100030007104000800000000CD030008310400082E
:1000400077040008770400087704000877040008A4
:100050007704000877040008770400087704000894
:100060007704000877040008770400087704000884
:1000700077040008770400083D1800084D180008B0
:100080005D1800086D18000877040008FD160008C8
:10009000ED160008770400087704000877040008CC
:1000A0007704000877040008770400087704000844
:1000B000770400087704000800000000FD4D0008E8
:1000C000ED4D00081D4E00080D4E000809660008A1
:1000D0007704000877040008770400087704000814
:1000E000770400087704000800000000000000000A
:1000F0000000000000000000000000000000000000
:1001000000000000770400080000000077040008E9
:1001100077040008000000007704000800000000D9
:100120007704000877040008770400087D180008A9
:100130007704000877040008770400080000000036
:10014000770400087704000877040008698A00082B
:100150007704000877040008770400087704000893
:100160007704000877040008770400080000000006
:1001700000000000770400080000000000000000FC
:100180007704000877040008770400087704000863
:100190007704000800F002F800F078F80AA090E870
:1001A000000C82448344AAF10107DA4501D100F032
:1001B0006DF8AFF2090EBAE80F0013F0010F18BF87
:1001C000FB1A43F00103184730BD010050BD010088
:1001D0000A444FF0000C10F8013B13F0070408BF6D
:1001E00010F8014B1D1108BF10F8015B641E05D00B
:1001F00010F8016B641E01F8016BF9D113F0080FC0
:100200001EBF10F8014BAD1C0C1B09D16D1E58BF51
:1002100001F801CBFAD505E014F8016B01F8016B88
:100220006D1EF9D59142D6D37047000000230024FB
:1002300000250026103A28BF78C1FBD8520728BFF6
:1002400030C148BF0B60704766291BF0C682782911
:1002500000F01082732901F04C80002070471FB518
:100260001BF0AEFA9DE8030000F03BFC01F0B0F893
:100270000400002000211AF0F5FFE06000F0FCFB14
:100280001FBD10B5002001F038F810BD01F07BF85B
:100290001146FFF7E4FF16F03BFC01F095F903B4BB
:1002A000FFF7EFFF03BC00F0F9FB000080F30988C3
:1002B0007047EFF309807047684680F30988044867
:1002C0000078C00714BF0220032080F31488704711
:1002D00070010020DFF818C0EFF305831B0618BF7C
:1002E0006047EFF31483DB0708BF604700DF704708
:1002F00021940108DFF818C0EFF305831B0618BF2F
:100300006047EFF31483DB0708BF604700DF7047E7
:1003100099940108EFF30980816911F8021CE1BB8F
:1003200090E80F1010B5E047BDE81040EFF3098CDE
:100330008CE80700214B93E80600914208BF704704
:1003400041B91EF0100F16D11D49086820F00100B8
:10035000086010E01EF0100F06BF2CED108A01207F
:10036000002081F838002CE9F00FC1F83CC00CB433
:100370001AF07AFC0CBC1A60D2F83CC0BCE8F00F52
:1003800092F8380000280EBF6FF0020E6FF0120EC8
:1003900000F058B88CF30988704710B5094A126804
:1003A000914209D8084C54F8214090E80F10A0471A
:1003B000EFF3098C8CE80F0010BD0000C80000208E
:1003C00034EF00E0F8730108F873010810B51AF073
:1003D00045FBBDE81040154B93E80600914208BF6D
:1003E0007047EFF3098C1EF0100F06BF2CED108A3A
:1003F0000120002081F838002CE9F00FC1F83CC042
:100400000CB41AF031FC0CBC1A60D2F83CC0BCE849
:10041000F00F92F8380000280EBF6FF0020E6FF058
:10042000120E00F015B88CF309887047C800002040
:1004300010B51AF03DFCCCE710B518F01BF81AF017
:1004400037FCC6E7BCEC088ABCEC08CAFFF7A2BFC1
:10045000BCEC088ABCEC08CAFFF7E5BF0948804736
:1004600009480047FEE7FEE7FEE7FEE7FEE7FEE796
:10047000FEE7FEE7FEE7FEE704480549054A064BAE
:1004800070470000CB66000895010008182800207E
:1004900018C8002018A8002018A80020004870479D
:1004A0000C05002070B5A0FB0140B4F1805170F143
:1004B000000024BF002070BD204600F08AFB05002C
:1004C0001CBF214600F08BFA284670BD70B5164659
:1004D0000D46041F002808BF70BD002E1CBF05F18B
:1004E0000C0016F003FA2B465868002818BFA042EB
:1004F00038BF0346F8D31968CA18A24218BF5C6017
:1005000003D122681C461144196021680A198242ED
:1005100018BF606004D142686260006808442060CF
:10052000002E1CBF05F10C0016F0F0F970BD10B5DF
:10053000044600F0B9FA01682046BDE810400122E7
:10054000C4E753EA020C00F069802DE9F04B4FF04C
:100550000006002B1FBFB3FA83F503FA05F424FA53
:1005600005F65E4012BF1643B2FA82F502FA05F4B0
:10057000C5F120051EBF22FA05FC44EA0C04203513
:1005800056EA044C4FEA144418BF641C4FF00008AC
:100590004FF00009904271EB030C39D3002919BFC9
:1005A000B1FA81F701FA07F6B0FA80F700FA07F618
:1005B000C7F120071EBF20FA07FC46EA0C062037C9
:1005C000B6FBF4FCA7EB0507103F07F01F0BCBF1C0
:1005D00020062CFA06F60CFA0BFB44BFB3460026A5
:1005E000202FA4BF5E464FF0000B5BEA060C08BF4D
:1005F0004FF0010B19EB0B0948EB0608ABFB027C33
:1006000006FB02CC0BFB03CCC01B71EB0C01C1E75A
:100610000B46024641464846BDE8F08B13B50843F9
:1006200018BF4FF0FF300146AFF30080BDE81C401B
:10063000704700000FB41CB50C0007AA009007D04B
:100640004142A14202D32044401E01E04FF0FF305E
:10065000074B7B4469460190069800F0B6FB0021E9
:10066000002C01D0009A11701CBC5DF814FB000036
:100670009B07000070B504460D4621461068AFF395
:1006800000802188090502D50F4A7A4402E00E4A0B
:100690007A440E32002104F1240305E000F00F0635
:1006A0000009965D5E54491C0028F7D1207800238C
:1006B000000704D5702D02D009B102231132204663
:1006C000BDE8704000F022BB50B101002DE9F041BF
:1006D0000F460546002028622846E968884770B31F
:1006E000252805D0D5E901219047286A401CF2E76A
:1006F000E9682846002688476C2804460AD0682CFA
:1007000008D04C2C35D06A2C31D0742C31D07A2CB6
:100710002FD016E0E968064628468847B0420446CE
:1007200008D16C2E23D04FF480662846E9688847AC
:10073000044606E06C2E03D04FF4807601E01EE004
:100740004026E4B1A4F14100192802D8203446F42F
:1007500000663A46214628462E60FFF775FD60B1D7
:10076000012808D0FF1D27F007070837B4E78026C7
:10077000DBE70026D9E73F1DAEE72046B2E7286A4F
:10078000BDE8F08110B5002000F051FBFFF779FDC6
:10079000BDE81040012000F081B90B460146184623
:1007A00000F02EBB10B5431C02E010F8011B71B124
:1007B0008107FAD14FF0013202C88C1A8C4314EA37
:1007C000C211F9D0C01A0A0603D0C01E10BDC01A4B
:1007D00010BD0A0401D0801E10BD0902FCD0401ECD
:1007E00010BD032A40F2308010F0030C00F0158099
:1007F00011F8013BBCF1020F624498BF11F801CB24
:1008000000F8013B38BF11F8013BA2F1040298BF88
:1008100000F801CB38BF00F8013B11F0030300F0F2
:100820006780083AC0F0088051F8043B083A51F854
:1008300004CBA0E80810F5E7121D5CBF51F8043B9B
:1008400040F8043BAFF30080D20724BF11F8013B0E
:1008500011F801CB48BF11F8012B24BF00F8013B70
:1008600000F801CB48BF00F8012B7047431A28BF9E
:100870009A427FF6B6AF10441144032A40F2268014
:1008800010F0030F1EBF11F8013D521E00F8013D8C
:1008900010F0030F7FF4F6AF11F0030300F06D804A
:1008A000083AC0F00B8051F8043D083A51F804CDE5
:1008B00040F8043D40F804CDFFF7F3BF121D5CBFC4
:1008C00051F8043D40F8043DAFF30080D20724BF47
:1008D00011F8013D11F801CD48BF11F8012C24BFDA
:1008E00000F8013D00F801CD48BF00F8012C704729
:1008F00010B5203AC0F00B80B1E81850A0E81850AD
:10090000B1E81850A0E81850203ABFF4F5AF5FEAFC
:10091000027C24BFB1E81850A0E8185044BF18C9A1
:1009200018C0BDE810405FEA827C24BF51F8043B48
:1009300040F8043B08BF7047D20728BF31F8023B9C
:1009400048BF11F8012B28BF20F8023B48BF00F830
:10095000012B7047431A28BF9A427FF6C9AF104453
:10096000114410F0030F1EBF11F8013D521E00F894
:10097000013D10F0030F7FF4F6AF103AC0F00A808B
:1009800010B531E9185020E91850103ABFF4F9AF0A
:10099000BDE81040530724BF31E9081020E90810D2
:1009A00044BF51F8043D40F8043D12F0030F08BF66
:1009B0007047D20728BF31F8023D48BF11F8012C1B
:1009C00028BF20F8023D48BF00F8012C704702F014
:1009D000FF0343EA032242EA024200F002B84FF06A
:1009E00000020429C0F0128010F0030C00F01B80FC
:1009F000CCF1040CBCF1020F18BF00F8012BA8BF0A
:100A000020F8022BA1EB0C0100F00DB85FEAC17CCD
:100A100024BF00F8012B00F8012B48BF00F8012B80
:100A200070474FF0000200B51346944696462039B1
:100A300022BFA0E80C50A0E80C50B1F12001BFF497
:100A4000F7AF090728BFA0E80C5048BF0CC05DF8FD
:100A500004EB890028BF40F8042B08BF704748BF4B
:100A600020F8022B11F0804F18BF00F8012B7047BF
:100A7000704770477047000070B5064C7C44064DC7
:100A80007D4404E02046016808448047241DAC42B0
:100A9000F8D170BDB4B40100C4B4010001491820FC
:100AA000ABBEFEE72600020010B5FFF7F7FC0830EA
:100AB00010BD704770477047704738B504460A4606
:100AC00000206946AFF30080002808BF38BD024609
:100AD0000099204600F0C8F9012038BD012000F03F
:100AE0004BBCF8B5AFF30080054600200C46102043
:100AF00000BF0646A819A0420DD93246694600201B
:100B0000AFF30080070008BF00F036FC0098A04259
:100B100018BF0546C419FFF7C7FF05600746F01D5B
:100B200020F007004619284600F08EF9B44208BFAD
:100B3000F8BDA21B31463868BDE8F84000F094B912
:100B40000844401E491E884370470821001DF7E7EE
:100B50002DE9F04117460E460446FFF7F6FFA04286
:100B6000054633D9002F1CBF06F10C0015F0BEFE60
:100B700030467468F4B12168A94217D305F1080220
:100B800091423CBF6168416007D3626861194A6065
:100B90002268521B0A6041602560002F1CBF06F1CD
:100BA0000C0015F0B3FE201DBDE8F08120466468FE
:100BB000002CE0D129463046FFF77FFF0028D7D12F
:100BC000002F1CBF06F10C0015F0A0FE0020BDE8B0
:100BD000F08110B50446FFF767FF01682046BDE8C5
:100BE00010400122B4E70844401E491E8843704764
:100BF0000821001DF7E72DE9F04791460C46804695
:100C0000FFF752FF0668604234EA000001D1042C6D
:100C100002D20520BDE8F087601E40F00707484675
:100C2000FFF7E6FF484505469CBF0620BDE8F08774
:100C300006F10C0015F05AFE74683046002C2FD0D7
:100C40002368211D494207EA0102934224D9991AD7
:100C50008D4221D84AB1214614440B689B1A236067
:100C60004B6863600A6041600846226805F108012C
:100C70008A4205D36119521B0A602560416008460B
:100C80006168416006F10C0015F040FE241D002053
:100C9000C8F80040BDE8F08720466468002CCFD13A
:100CA00029463046FFF709FF0028C5D106F10C00A0
:100CB00015F02CFE0620BDE8F08770B50C46054601
:100CC000012A05D02878800600D5EA69002302E0D1
:100CD000012305E05B1C934202D2E05C0028F9D1BD
:100CE000A869E618C01AA861286A1844286228462C
:100CF000AFF3008004E0D5E9012114F8010B90471F
:100D0000B442F8D32846AFF3008070BD2DE9F04718
:100D10000D4699469246044600F12408016888066B
:100D200004D5E06921F01001216000E00120A84213
:100D300001DD471B00E00027A1697A1902EB0900D9
:100D4000081AA0612078C00602D42046AFF30080C4
:100D5000002608E0D4E901211AF806009047206A2D
:100D6000401C761C20624E45F4DB2078C0060AD574
:100D70002046AFF3008006E0D4E9012130209047FF
:100D8000206A401C2062381EA7F10107F4DC07E04E
:100D9000D4E9012118F805009047206A401C206220
:100DA000281EA5F10105F3DC2046AFF30080207872
:100DB000000602D50220BDE8F0870120FBE7000015
:100DC00001694A1C02610878704700B58FB0CDE90F
:100DD00001310021059105497944CDE903101146FF
:100DE0006846FFF773FC0FB000BD0000E5FFFFFF92
:100DF000D1E900239A4202D2531C0B601070704755
:100E00002DE9F041074615460E461020FFF7E1FE9A
:100E100004000AD06760C4E9026500F010F80168B8
:100E2000216004600020BDE8F0810120FBE710B5DF
:100E300000F08AFABDE8104000F080BA704710B5A3
:100E4000FFF72CFB383010BD00210160C0E9011014
:100E50000C3015F053BD10207047801A0844401E16
:100E6000491E88431044704770B5144605468C46A9
:100E70004368002B18BF634538BF1846F8D3026893
:100E80001044604508D06646604604220821FFF7FA
:100E9000E4FF811B8446641A2946CCF80040BDE873
:100EA000704000220CF10400FFF710BB2DE9FF4F4A
:100EB0000C461E464FF0FF378BB0D2E90001DDF83B
:100EC00060800A908A46C1F30A5505B93D46002163
:100ED00008464FF00000BAF1000F00F4400005DAB8
:100EE00000EB80004FF4400101EA50004FEA9059B6
:100EF000B9F1010F00DDB9460A9850EA4A000ED058
:100F000044F61050A5F2FF3545432F14B8F1000FF9
:100F10001ED07542291E1EDDC9F100021CE0B8F189
:100F2000010F4FF0000001D0302103E0F24305E053
:100F30002154401CB042FBDB3046002200212154EA
:100F40000B99C1F80880C1E900200FB000F0BCB9CE
:100F5000BD1B6D1CDEE74A4600DA694206A800F0B8
:100F6000C1FA06AB93E8070003AB83E807005046DD
:100F70000A9915F079FE8DE80700A0F500501F389A
:100F800000900398002D0ADD42F21F014A460844F2
:100F9000002303A90390684616F0E2F809E0A0F5E3
:100FA00000504A461F38002303A90390684616F0F4
:100FB000ECF88DE807000004000C03D04FF0FF3080
:100FC000410800E01046B8F1000F03D00022009263
:100FD00015461EE0751E05D400F0FFF9303262554B
:100FE0006D1EF9D5B3460122084302D000227F1CB2
:100FF00004E02078302801D100227F1E002A0997C2
:1010000084D01DE0112D07DA00F0E7F93032625587
:101010006D1C50EA0102F5D1084302D00098C8B116
:101020000EE00021681E05E0235C625C63542254DC
:10103000401E491C8142F7DBAB46A81B401E0990AD
:10104000002004F80B000B98099AC0F80880C0E94A
:10105000002B7AE711264FF0000857E72DE9F04FF3
:1010600088460446D21D22F0070191B0D1E9000163
:10107000CDE90A0116F0CBF902460B98C00F01D05A
:101080002D2007E02068810701D52B2002E02021D8
:1010900001EAC000032A099001D0072A05DB0346B4
:1010A0004146204600F0DEF90BE12078800601D5AC
:1010B000E06900E00620B8F1650F814606D0B8F17E
:1010C000660F18D0B8F1670F70D131E00020B9F188
:1010D000110F009001DB112301E009F101030AAABD
:1010E00001A90CA8FFF7E2FEDDE90C70002609F16A
:1010F0000105834647E001204B4600904FF0004732
:101100000AAA01A90CA8FFF7D1FEDDE90DB00C99E0
:101110005D46002610B909F101000D18B9EB050074
:1011200003D4C0F1FF3609F10105A5EB09002BE05E
:10113000B9F1010F01DA4FF001090020B9F1110FE7
:101140000090484601DD112300E003460AAA01A9E8
:101150000CA8FFF7ABFEDDE90C704D460026834678
:10116000207800070AD4AB4500DA5D4601A8012DBE
:1011700004DD411911F8011C302907D04F4502DA6E
:1011800017F1040F04DA012082460FE06D1EEEE72E
:10119000002F02DCED1B3E4403E0781CA84200DD7A
:1011A0007D1CB81B00F1010A4FF0004720780007B2
:1011B00003D4AA4501DB4FF0FF3A0021B7F1004FFD
:1011C0000DF143088DF8431024D002202B23002F6B
:1011D00001DA7F422D230A21021EA0F1010000DC6A
:1011E0005FB197FBF1FC97FBF1F201FB1C7C17460A
:1011F0000CF1300C08F801CDEEE7A8F10100037006
:101200002188090501D5452100E06521A0F10108EB
:1012100000F8011C09980FA9A1EB0807FF1D00B1F8
:101220000120411901EBEA70A1693844081A401EF7
:10123000A0612078C00602D42046AFF30080099850
:1012400028B1D4E901219047206A401C206220780F
:10125000C00622D52046AFF300801EE0002E04DB3E
:10126000B34502DD01A8805D00E03020D4E9012112
:101270009047206A401C2062761CAAF101005FEAB8
:10128000000A0AD100F0A4F8C0680168405CD4E903
:1012900001219047206A401C2062281EA5F101050B
:1012A000DCDC07E0D4E9012118F8010B9047206A43
:1012B000401C2062381EA7F10107F3DC2046AFF383
:1012C0000080032011B041E630BCBDE8C08F10B5EE
:1012D000436913B1AFF3008001E0FFF7EEFC01209A
:1012E00010BD127800F124010A7000224A70012218
:1012F000EDE711684FF0FF32E9E72DE9F0410646CE
:10130000FFF79DFD8046454613E016B1E068B04208
:101310000ED120682860D4E90101D8F80070884710
:101320002046FFF704F9D8F80000B842EBD100E0FE
:1013300025462C68002CE8D1BDE8F081002801D0BA
:10134000FFF7ACBB7047000010B5002102A000F011
:1013500044F9012010BD0000534947414252543A1C
:101360002041626E6F726D616C207465726D696E82
:101370006174696F6E00000010B500F047F9BDE8B8
:101380001040FFF7DBBF7546FFF788F8AE46050053
:101390006946534620F00700854618B020B5FFF790
:1013A0006BF8BDE820404FF000064FF000074FF00B
:1013B00000084FF0000BAC46ACE8C009ACE8C0092F
:1013C000ACE8C009ACE8C00921F007018D467047C0
:1013D00010B5FFF763F8203010BD30B5B0F10A0248
:1013E00071F100034FEA900E4EEA817EB0EB0E00E1
:1013F00061EB91014FEA101E4EEA017E10EB0E00E8
:1014000041EB11114FEA102E4EEA016E10EB0E0067
:1014100041EB11214FEA104E4EEA014E10EB0E0047
:1014200041EB1141401841F100014FEAD00040EA80
:1014300041704FEAD1014FEA810444EA907410EB05
:10144000800544EB01046D1944EB0404521BA341D5
:101450004FF0000348BF0A3200D530BD401C41F1B7
:10146000000130BD2DE9F0411F4604460326016806
:10147000072A01F4006004DB08B116A505E016A5F3
:1014800003E008B115A500E015A521F010002060CB
:10149000A069C01EA0610FB1401EA0612046AFF33D
:1014A00000804FB1D4E9012138469047206A401CA2
:1014B0002062C01C206206E0206AFAE7D4E901211C
:1014C00015F8010B9047761EF8D22046AFF3008046
:1014D000BDE8F0814E414E006E616E00494E4600FF
:1014E000696E66002DE9F047814616468AB0354898
:1014F00078440DC88DE80D0032487844801C03AC58
:101500000DC884E80D0041F69B300844372190FB5C
:10151000F1F290FBF1F5A5F1800501FB12041B3CF3
:1015200002D56442012000E00020DFF898A0804648
:101530000027FA44AAF1BE0A0EE0E0070AD03246BC
:10154000684607EB470101230AEB810115F01DFEF8
:101550008DE8070064107F1C002CEED1194F7F44EA
:10156000AE3F19E0E80715D007EB04100DF1180A9B
:1015700090E80E008AE80E00C068F04201D1981988
:1015800008903246012306A903A815F0FEFD03AB1F
:1015900083E807006D10641C002DE3D14FF00103B8
:1015A00032466946B8F1000F03A802D015F0D8FD05
:1015B00001E015F0EAFDC9E90001C9F808200AB008
:1015C000BDE8F08790A3010010B50446AFF300809A
:1015D0002046BDE81040FEF762BE70B505460C46D9
:1015E0000A2000E06D1C00F039F835B12878002899
:1015F000F8D102E0641C00F031F814B12078002822
:10160000F8D1BDE870400A2000F028B810B50128D4
:1016100005D0002103A0FFF7E0FF012010BD09A1C4
:10162000F8E7000053494752544D454D3A204F7555
:1016300074206F662068656170206D656D6F7279CA
:10164000000000003A2048656170206D656D6F7282
:101650007920636F727275707465640008B56946AD
:101660008DF800000320ABBE08BD000000000000A4
:1016700030B44FF0013C50F8042B51F8043BCCFA45
:1016800052F4D51A20D1FCB950F8042B51F8043B80
:10169000CCFA52F4D51A17D1B4B950F8042B51F83A
:1016A000043BCCFA52F4D51A0ED16CB950F8042B85
:1016B00051F8043BCCFA52F4D51A05D1002CDAD0FB
:1016C00030BC4FF00000704729BAB1FA81F111F037
:1016D0001801D1F120008440F2D1CA40CB4012F071
:1016E000FF0213F0FF0330BCD01A704780B541F6FB
:1016F0006060C2F2000000F0A3FA80BD80B541F640
:101700006060C2F2000000F09BFA80BD84B08DF8EA
:101710000F000291ADF806209DF80F0001460091E0
:1017200023281DD80099DFE801F012131415161BA9
:101730001B1B1B1B1B1B1B1B1B1B1B1B1B1B1B1BF9
:101740001B1B1B1B1B1B1B1B1B1B1718191A08E041
:1017500007E006E005E004E003E002E001E000E06D
:10176000FFE7002004B070470020704780B582B0CA
:1017700041F6C430C2F20000009041F29011C2F272
:1017800000010022019205F0F3F9009840F6901153
:10179000C2F2000105F0DEF9019802B080BD000040
:1017A00080B584B0039002910398029915F092F9E4
:1017B00028B9FFE70398029907F07EF9FFE703993C
:1017C00041F6C430C2F20000019005F0C3F901985F
:1017D00005F07AF9002004B080BD000080B586B025
:1017E0000490ADF80E1000208DF80D0041F6C430C5
:1017F000C2F20000D0F8900202900298D0F81402D1
:1018000020B1FFE701208DF8170013E00499BDF81F
:101810000E2041F6C430C2F20000019005F0A8F994
:10182000019805F06BFA8DF80D009DF80D008DF80C
:101830001700FFE79DF8170006B080BD80B541F6A0
:101840009C70C2F2000000F0A5FC80BD80B541F69E
:101850005470C2F2000000F09DFC80BD80B541F6DE
:101860000C70C2F2000000F095FC80BD80B541F61E
:10187000C460C2F2000000F08DFC80BD42F2041092
:10188000C2F2000000F086BC40F29C30C2F20000C0
:10189000027F42F20001032AC4F2020103D0022AAD
:1018A00011D0012A1BD10B6802F0FE0243F4006341
:1018B0000B600B68022A23F400630B600B6843F48F
:1018C00000730B600BD10A6842F480520A600A6808
:1018D00022F480520A600A6842F480620A600021A1
:1018E00001777047F0B581B042F210060446C4F2A9
:1018F000020600F057FF3168C9030AD50546671C88
:1019000027B100F04FFF401BA04224D23068C00333
:10191000F6D430684CF2FA31B268C0F202010840E5
:1019200002F000410A180FD040F29C33C2F20003CB
:101930005F6842EA07025A6011B1B2681143B160B0
:1019400000B13060012007E03068C0071CBF0120F3
:101950003060002000E0032001B0F0BD90F82020AE
:10196000013A012A04D8006800F11402002004E0C2
:1019700000F1240201204FF4802113681943116003
:10198000704710B590F820E0D0F800C0AEF1010E1D
:10199000BEF1010FDCF808E00DD81EF0E05F10D0BA
:1019A000CEF3016EBEF1030F11D100F1240101202D
:1019B0004FF4000233E000F1240101204FF48022B3
:1019C0002DE000F1240101204FF4001227E0012056
:1019D00000FA0EF01860886818B14B6840EAC3003E
:1019E00001E008684005D1E9033403430CEB0E1015
:1019F000C0F88031C0F88441097D012905D100F586
:101A0000C2710B6843F480730B605168C0F88C118D
:101A1000126800F5C071C0F88821002001220B680F
:101A20001A430A6010BDB0B5026890F82030013B3F
:101A3000012B27D8D2F80002012340F00100C2F8A0
:101A40000002D1F814E0CC690EF01F0003FA00F098
:101A5000D2F81C326FEA000C8343012CC2F81C320E
:101A600016D064BBD2F80C3203EA0C03C2F80C3275
:101A7000CB688C8844EA034302EBCE04C4F84032BE
:101A80000B4614E0416A41F4802141620120B0BD5F
:101A9000D2F80C320343C2F80C320B688C8844EA4B
:101AA000034302EBCE04C4F8403201F10C038C680E
:101AB0001B8843EA044302EBCE04C4F84432D2F854
:101AC00004328D6943EA0004D1F810E0096A002D60
:101AD00008BF03EA0C04C2F80442D2F81432BEF183
:101AE000000F43EA000408BF03EA0C040129C2F80E
:101AF000144204D1D2F81C120843C2F81C02D2F8D6
:101B0000000220F00100C2F800020020B0BD90F8F1
:101B10002020013A012A06D80068426922EA010120
:101B2000416100207047416A41F4802141620120F7
:101B30007047704710B590F82040013C012C70D8D8
:101B4000D0F800C000290CBFDCF80C40DCF81040D5
:101B5000A4076CD00CEB011CDCF8B0410CF5D87E6E
:101B600014F004049460DCF8B04119BFE408546038
:101B7000640D1460DEF800400029C4F34004D46012
:101B8000DCF8B44104F00F041461DCF8B441C4F390
:101B900007249461DCF8B4414FEA14445461DCF842
:101BA000B8211A70026802EB0112D2F8B8214FEA8C
:101BB00012225A70026802EB0112D2F8B8214FEAE1
:101BC00012429A70026802EB0112D2F8B8214FEA71
:101BD0001262DA70026802EB0112D2F8BC211A71AB
:101BE000026802EB0112D2F8BC214FEA12225A71AC
:101BF000026802EB0112D2F8BC214FEA12429A713C
:101C0000026802EB0112D2F8BC214FEA1262DA71CB
:101C100000680CBF00F10C0100F11001002020222F
:101C20000AE000F1240101204FF4802204E000F1D9
:101C3000240101204FF400120B681A430A6010BD02
:101C40002DE9F04F81B0044600684669D0F8049051
:101C50008768D0F80CB0D0F810A0D0F81880F10741
:101C600001D1002543E0F9070CD00121BA078160BA
:101C700005D4780719D438071DD4616B00E0A16A38
:101C8000204688470025F8051AD520684FF4807152
:101C9000BA05816005D478050AD438050ED4A16B45
:101CA00000E0E16A204688470AE04FF40065EAE771
:101CB00005F5005504E04FF48055E4E705F580454F
:101CC000F80314D520684FF48031BA03816005D43D
:101CD000780307D4380308D4E16B00E0216B204679
:101CE000884704E005F5004501E005F5803530073B
:101CF00007D51BF0100004D0206845F400751021B2
:101D0000C160700708D51BF0080005D02068616C21
:101D10000822C26020468847B00706D52068C06800
:101D2000800702D0216C20468847700607D51AF03C
:101D3000100004D0206845F4806510210161B006D0
:101D400008D51AF0080005D02068E16C082202616D
:101D500020468847F00606D520680069800702D033
:101D6000A16C20468847B00308D519F0100005D0B3
:101D70002068216D1022426020468847F00308D574
:101D800019F0080005D02068616D082242602046E5
:101D90008847300440D55FEA49703AD506F4807030
:101DA00008EA102028435FEA8871014648BF41F0E5
:101DB0000201B20558BF01465FEA48700D4648BFB0
:101DC00045F00405700558BF0D46300521D518F0C3
:101DD00070001ED010380009052815D8DFE800F083
:101DE0000306090C0F1245F008050DE045F010053B
:101DF0000AE045F0200507E045F0400504E045F025
:101E0000800501E045F480752068816921F070014A
:101E100081612068042141604DB1606AA16D40EA92
:101E200005022046626201B000F004B8084701B024
:101E300000F005B830BCBDE8C04FFFF7F7BF30BCBD
:101E4000BDE8C08F2DE9F041002861D0044690F82C
:101E50002000002849D142F2331542F2371242F2F3
:101E6000D10842F2CF0142F2D50C42F2D30EC0F6B5
:101E70000005C0F6000242F23B1342F23910C0F6F0
:101E80000008C0F60001C0F6000CC0F6000EC0F657
:101E9000000342F2311642F23517C0F60000C4E9E1
:101EA0000A5204F13002C0F60006C0F60007C8C2AC
:101EB000C4E90F086164C4E912CEE16D42F2D700B3
:101EC00042F23D1241F63333C0F60000C0F6000284
:101ED000C0F6000320656265A36521B941F6D171A2
:101EE000C0F60001E165204688472068016821F0BE
:101EF0000201016000F056FC054600BF2068416801
:101F0000890708D500F04EFC401B0B28F6D312E0E1
:101F10000120BDE8F081016841F00101016000F09D
:101F200041FC054620684168C9070BD100F03AFC26
:101F3000401B0B28F6D3606A052140F40030606234
:101F4000012041E0217E0268012922F0800308BFC0
:101F500042F080030360617E0268012922F04003A1
:101F600008BF42F040030360A17E0268012922F00D
:101F7000200308BF42F020030360E17E02680129CC
:101F800042F0100308BF22F010030360217F0268B3
:101F9000012922F0080308BF42F008030360617FB3
:101FA0000268012922F0040308BF42F00403036021
:101FB000271D8ECF66691A433A43324301391143D4
:101FC000C16100200121606284F82010BDE8F08129
:101FD00080B586B0006846F20041C4F20001884234
:101FE00036D141F25800C4F20200016841F000719C
:101FF0000160006801A900F00070019001984FF4A1
:102000004070019002200290002003900320049071
:102010000920059040F20040C4F6000000F0E4FA08
:1020200013200021002201F060F9132001F050F983
:1020300014200021002201F058F9142001F048F981
:1020400015200021002201F050F9152001F040F97F
:1020500006B080BDA2B190F82030012B0DD10E2921
:102060000ED8DFE801F0081B1D1F21232527292B8F
:102070002D2F31171900826227E090F820302BB104
:10208000416A41F480014162012070470E2903D06A
:102090000D29F5D1C26518E0026616E0C26214E0AF
:1020A000026312E0426310E082630EE0C2630CE060
:1020B00002640AE0426408E0826406E0C26404E06C
:1020C000026502E0426500E08265002070477047CB
:1020D0007047704770477047B0B5044690F82000CD
:1020E00001281CD1022084F820002068016821F01A
:1020F0000101016000F056FB054600BF2068406802
:10210000C00712D000F04EFB401B0B28F6D3606ACC
:1021100040F400306062052084F8200003E0606A2B
:1021200040F4002060620120B0BD00206062B0BDBC
:10213000704770477047704770477047704780B569
:1021400090F82510022920D10168D0F838E0D0E9B4
:1021500010C30A68BEF1000F22F00E020A600A687E
:1021600022F001020A6003F01C014FF0010202FAA2
:1021700001F1CCF804104FF0000180F8252080F820
:10218000241005D0F047002102E00421C1630121A1
:10219000084680BDB0B50268D0E910C4DCF8005034
:1021A000136804F01C0E590711D5042101FA0EF42E
:1021B00014EA05010BD01168890603D4116821F0D7
:1021C00004011160CCF80440016B71BB30E0990749
:1021D00013D5022101FA0EF414EA05010DD011689D
:1021E000890606D4116821F00A011160012180F8E6
:1021F0002510CCF80440C16A13E0190718D508214E
:1022000001FA0EF1294013D0116821F00E0111607E
:10221000012101FA0EF2CCF80420C16380F82510E8
:10222000416B002280F8242011B1BDE8B04008477E
:10223000B0BD00285BD02DE9F04740F2004CC4F25D
:10224000020C02684FF6F8310CF1080ECBF6FD7166
:10225000724538BF01F580614CF6CD431144CCF690
:10226000CC43A1FB03136FF00301674601EA930A15
:102270004FF00203D0E90249D0F8108038BFA7F52B
:102280008067C0E9107A80F82530136847F6F07748
:10229000BB432343D0E9057643EA090343EA080335
:1022A000D0E907513B4333432B431943B4F5804FE7
:1022B000116012D00CF1A8040AF01C010F23724522
:1022C00038BFACF5567422688B409A43226042684E
:1022D000236802FA01F11943216000210122C16340
:1022E00080F8252080F82410BDE8F04700E00121A7
:1022F00008467047F0B590F824C0BCF1010F35D006
:102300004FF0010E80F824E090F825C0BCF1010FD9
:1023100029D14FF0020C80F825C04FF0000CC0F816
:102320003CC0D0F800C08468056B066CDCF8007017
:10233000102C27F00107CCF80070406C00F01C0056
:102340000EFA00F070600846CCF8043004BF104666
:102350000A46CCF80800CCF80C20DCF800003DB1AF
:1023600040F00E000CE0002180F824100220F0BDA7
:1023700020F00400CCF80000DCF8000040F00A0077
:10238000CCF80000DCF8000040F00100CCF80000C0
:102390000020F0BD2DE9F04F81B040F29C39C2F22F
:1023A000000999F80020012A01D102267EE0824628
:1023B000012089F800004CF250308846FFF792FA6D
:1023C000064600286FD142F200040020C4F2020445
:1023D000C9F8040021682068890503D4400509D4A0
:1023E000002012E020F4007020602068400507D42F
:1023F00001200AE0206820F480602060022004E0D0
:10240000206820F480602060032089F81C00DAF83E
:102410000000012815D19AF80400C00703D06069B4
:1024200040F004006061606940F4803060614CF20B
:102430005030FFF757FA6169064621F004006061E9
:102440002FE04FF0FF30C8F80000DAE9027038449E
:10245000874222D2FD0040F2FA7B00BF6069E908A2
:1024600061F3CA006061606940F002006061606908
:1024700040F4803060614CF25030FFF733FA61690C
:10248000064621EA0B0060614EB9DAE90201013724
:102490000844874205F10805E0D3002601E0C8F8AA
:1024A0000070FFF7F1F9002089F80000304601B014
:1024B00000F000B830BCBDE8C08F40F29C30C2F2E2
:1024C00000004068704742F21401C4F2020108683B
:1024D00040F0004200200A60704700002DE9F047FC
:1024E00040F29C39C2F20009144699F80020012AF2
:1024F00001D102265EE08046012089F800004CF2FE
:1025000050301F460D46FFF7EDF9064600284ED124
:1025100042F2000A0020C4F2020AC9F80400DAF804
:102520000010490506D5DAF8000020F48060CAF8EA
:1025300000000220B8F1000F89F81C0020D0A8F19B
:102540000100012816D8DAF8140040F48020CAF8F7
:10255000140072B6402000BF54F8041B0138020674
:1025600045F8041BF8D162B6B8F1020F02D16FF43E
:1025700080240FE04CF25030FFF7B4F9064614E027
:10258000DAF8140040F00100CAF814002C606F6003
:102590006FF001044CF25030FFF7A4F9DAF8141090
:1025A000064601EA0400CAF81400FFF76DF900209E
:1025B00089F800003046BDE8F08742F20800C4F216
:1025C0000200C168B1F1FF3FC4BF0020704740F274
:1025D0002311C4F26751016048F6AB11CCF6EF51FC
:1025E0000160C068C00F70472DE9F04F82B00A68E3
:1025F000002A00F0C28041F2000500F13847C4F61D
:102600000005072340F200494FEAB726A84208BF59
:102610000423C4F20109042E38BF4FEAB7234FF058
:10262000010E002500260127009300BFA7F1010C31
:102630000EFA0CFA12EA0A0800F095804A6842F095
:102640001004122C15D16FF0030202EA5C0202445E
:10265000D2F820B006F01C030F24D1F810E09C4003
:102660002BEA04040EFA03F3234313624A684FF083
:10267000010E03680324AC406FEA040BA34302F08D
:102680000304AC402343122A036013D80EFA02F36A
:1026900013F0061F0ED08368CC6803EA0B03AC402E
:1026A000234383604368140923EA0A0304FA0CF401
:1026B00023434360C3688C6803EA0B03AC402343A5
:1026C000D200C3604FD541F26003C4F202031A681E
:1026D0004FF6084A42F001021A601A68CFF6FF7AF4
:1026E00002F001020192019A2CF003024A4452F8CE
:1026F0000AC006F00C040F23A3402CEA030C009B35
:1027000003FA04F444EA0C0342F80A30D9F800C092
:102710004B684CEA0804DA0358BF2CEA0804C9F8ED
:102720000040D9F804C09A034CEA080458BF2CEAC8
:102730000804C9F80440D9F808C0DA024CEA0804D1
:1027400058BF2CEA080440F20C4CC9F80840C4F207
:10275000010CDCF800209B0242EA080458BF22EA80
:102760000804CCF800400A68043632FA07F307F18F
:10277000010705F102057FF459AF02B000F000B87F
:1027800030BCBDE8C08F0069084018BF0120704709
:1027900042695140416170471823002A08BF28232D
:1027A000C150704780B540F2C030C2F200004068AE
:1027B000804700B180BDBDE8804014F0C7B990F8F3
:1027C0004120202A03D190F84020012A01D1022182
:1027D00018E0242280F841200268136823F00103E6
:1027E0001360136823F48053136013681943116056
:1027F000116841F001011160202180F84110002191
:1028000080F840100846704790F84120202A03D1F4
:1028100090F84020012A01D1022117E0242280F8FB
:1028200041200268136823F001031360136823F446
:10283000706343EA01211160116841F001011160E8
:10284000202180F84110002180F840100846704790
:1028500070477047D0F800C0DCF81830DCF8002072
:10286000D90502F0800208D53AB1416C41F001016E
:1028700041644FF48071CCF81C10590508D53AB169
:10288000416C41F0080141644FF48061CCF81C10A8
:10289000990508D53AB1416C41F0020141644FF409
:1028A0000071CCF81C10416C11F00B0F08BF704781
:1028B000416C02F0B0BB0268436B9169126803B1CE
:1028C00018477047704710B500B3044690F84100B0
:1028D00028B9002084F84000204600F0B8FA2420EF
:1028E00084F8410094E80910E2680168012A21F0A7
:1028F0000101016023F070610161816821F40041F0
:10290000816009D14CF4004181600DE044204FF416
:1029100000710160012010BD4CF40441022A816065
:1029200004BF4FF400614160416804F1100C41F0B4
:10293000007141F400414160C16821F40041C1606F
:102940009CE80E10114341EA0321C160216A41EA6B
:102950000C010160016841F00101016000202021AB
:10296000606484F84110206384F8420010BD0000C8
:102970002DE9F04F83B004460020029094F8410006
:10298000202808D1206888468169090403D494F876
:102990004010012903D1022003B000F077B80121D3
:1029A00084F8401024211D46914684F841100021EE
:1029B0006FF39F285E1C4FF0200A6164E1680129D3
:1029C0004FF4205104BF42F20001C0F20021414403
:1029D0004160FFF7E7FE216807460A4652F8183FB4
:1029E0009B0613D48869C00610D494F84100A0282F
:1029F0000CD036B1FFF7D6FE8DB3C01BA8422ED83F
:102A000021680A4652F8180F8006EBD5D2F800B0BC
:102A10002046202100222B46009702F067FF5FEA44
:102A2000CB6128D528BB20681021C161C0F81CA04B
:102A300002994A1C494502920ED14168002241F494
:102A400080414160204620212B46009702F04EFF36
:102A500078B92068C0F81CA002994945AED320205F
:102A600084F84100606C40F020006064002084F82D
:102A70004000012090E70028FBD120682021C1619F
:102A8000002084F8411084F8400085E730BCBDE8A0
:102A9000C08F704780B588B0079008F0F7FB0190B1
:102AA000079904A80290002208F0D4FA019802992C
:102AB0000FF0ACFA8DF81B009DF81B001F2801D108
:102AC000FFE70AE09DF81B000FF012F88DF80F00E9
:102AD0009DF80F0008F08EFAFFE708B080BD0000F7
:102AE00080B588B0079008F0D1FB0090079904A842
:102AF0000190002208F0AEFA009801990FF086FAD2
:102B00008DF81B009DF81B001F2801D1FFE731E065
:102B10009DF81B000EF0ECFF8DF80F009DF80F00E4
:102B200000EB800141F6C410C2F2000000EBC100CE
:102B3000083010F0ADFA28B9FFE79DF80F0008F053
:102B400059FA17E09DF80F0041F6C411C2F20001D6
:102B500001EB8000D0F8A400029002989DF80F20AD
:102B600002EB820201EBC20359799A689B8900F05B
:102B700003F8FFE708B080BD2DE9F04381B00446BB
:102B800090F84100202808D10D462168886900048A
:102B900003D494F84000012804D10226304601B045
:102BA000BDE8F083012084F84000222084F8410031
:102BB000102084F8420000206064002045F277482D
:102BC000CFF6FF70C0F6000862626385E062C4F869
:102BD0003480608DB0F5807F04D3FF2323854FF0D0
:102BE000807904E0638D23857BB34FF00079E06B3F
:102BF000E8B144F66D6744F65B6CC0F60007C0F6BA
:102C0000000C00262431C0E90B76C0E90DC6FFF7A1
:102C100071FBB0B3202084F8410084F84260606CFE
:102C200040F01000606484F840600126B6E7202080
:102C300084F84100002084F84200616C012641F0D4
:102C40008001616484F84000A8E745F2B750C0F6FF
:102C500000006063486849F60002C7F60042104071
:102C60006FF39F25284440F0004040F4105000F1DD
:102C700000700026486084F84060086840F0F20068
:102C80002BE02168208D626B4B6849F60007C7F680
:102C900000476FF39F253B40C7B245EA090545EA67
:102CA00007473B4343F0004343F410534B60638DAD
:102CB000181A608545F20970C0F60000F22384F806
:102CC0004060824208BF90230868424508BF9023B5
:102CD00018430860086840F4004008605EE72DE98A
:102CE000F04381B0044690F84100202808D10D46F9
:102CF00021688869000403D494F84000012804D1B5
:102D00000226304601B0BDE8F083012084F840007F
:102D1000212084F84100102084F8420000206064E3
:102D2000002045F27748CFF6FF70C0F600086262D7
:102D30006385E062C4F83480608DB0F5807F04D391
:102D4000FF2323854FF0807904E0638D238593B3BF
:102D50004FF00079A06B00B344F6FB6744F65B6C60
:102D6000C0F60007C0F6000C0026C0E90B76C0E9EB
:102D70000DC601F1280C11466246FFF7BBFAB0B34D
:102D8000202084F8410084F84260606C40F010001C
:102D9000606484F840600126B3E7202084F8410095
:102DA000002084F84200616C012641F080016164DA
:102DB00084F84000A5E745F2B750C0F60000606314
:102DC000486849F60002C7F6004210406FF39F259D
:102DD000284440F0004040F4005000F1007000260C
:102DE000486084F84060086840F0F2002BE02168F9
:102DF000208D626B4B6849F60007C7F600476FF3FA
:102E00009F253B40C7B245EA090545EA07473B43D2
:102E100043F0004343F400534B60638D181A608500
:102E200045F20970C0F60000F22384F84060824247
:102E300008BF90230868424508BF902318430860E4
:102E4000086840F4804008605BE7704770472DE9F0
:102E5000F04F87B00446006845F6FF31C4F2000128
:102E600088427EDC45F20041C4F20001884200F055
:102E7000E48045F60001C4F20001884240F0BC81C4
:102E80004FF440600290122003900120049004202F
:102E9000069040F2004040F21C080327C4F60000F0
:102EA00002A9C4F202080597FFF79EFB41F2580001
:102EB000C4F20200016841F6547541F480010160DA
:102EC0000068C2F2000500F480000190019808F14A
:102ED0003C0000264FF08009C5E900072846C5E9F7
:102EE0000266C5E90496C5E906662E62FFF7A1F9F8
:102EF00038B14BF69760C0F6010040F2331105F08F
:102F0000E5FDE563AC6241F69C7508F12800C2F26C
:102F100000051021C5E9000705F1080080E842021C
:102F20002846C5E90566C5E90766FFF782F938B1A5
:102F30004BF69760C0F601004FF4A27105F0C6FD94
:102F4000212000210022A563AC6200F0CEF92120EF
:102F500000F0BEF922200021002200F0C6F9222054
:102F6000D8E045F60041C4F20001884200F0D58067
:102F700048F20041C4F20001884240F03D81C02087
:102F80000290122003900120049003200590052058
:102F9000069040F2004040F21C08C4F6000002A96E
:102FA000C4F20208FFF720FB41F25800C4F202000D
:102FB000416842F2740541F0020141604068C2F28A
:102FC000000500F002000190019808F57B700027D1
:102FD0008026C5E900072846C5E90277C5E90467E8
:102FE000C5E906772F62FFF724F938B14BF69760F1
:102FF000C0F6010040F2B51105F068FDE563AC6272
:1030000042F2BC0508F58060C2F200051021C5E956
:1030100000072846C5E90217C5E90467C5E9067730
:103020002F62FFF706F9002800F0E4804BF6976066
:10303000C0F601004FF4E371DAE04FF4C060029093
:103040001220039001200490042040F21C08032762
:10305000069002A94FF09040C4F202080597FFF7CE
:10306000C3FA41F25800C4F20200016841F60C753F
:1030700041F4001101600068C2F2000500F4001084
:103080000190019808F150001021C5E9000705F1F1
:10309000080000264FF0800980E842022846C5E972
:1030A0000566C5E90766FFF7C4F830B14BF69760CF
:1030B000C0F60100F32105F009FDA563AC6241F6FD
:1030C000C46508F16400C2F20005C5E9000728469E
:1030D000C5E90266C5E90496C5E906662E62FFF7F2
:1030E000A8F838B14BF69760C0F601004FF4827132
:1030F00005F0ECFC1F2000210022E563AC6200F02B
:10310000F4F81F2000F0E4F820200021002200F055
:10311000ECF8202000F0DCF86EE002AD40F21C0973
:103120004FF0800A122601274FF0030B4FF00408DE
:103130004FF090402946C4F20209CDF808A003964A
:103140000497CDF814B0CDF81880FFF74DFA102091
:1031500002A981E8C10840F20040C4F600002946F7
:10316000CDF81880FFF740FA41F25800C4F202008F
:10317000016841F6E47541F4000101600068C2F2A3
:10318000000500F400000190019809F114000026E8
:10319000C5E9000B2846C5E90266C5E904A6C5E9EC
:1031A00006662E62FFF745F838B14BF69760C0F619
:1031B00001004FF4BD7105F089FCE563AC6242F299
:1031C0002C05C2F20005102005F10801C5E9009B9D
:1031D00081E841042846C5E90566C5E90766FFF7A9
:1031E00028F838B14BF69760C0F6010040F28B1119
:1031F00005F06CFCA563AC6207B000F000B830BC11
:10320000BDE8C08F7047704780B5032000F098F884
:10321000002000F004F800F00BF8002080BD80B51D
:1032200040F2C030C2F2000000688047002080BD3C
:1032300080B584B0FFE741F26000C4F2020001688B
:1032400041F001010160006800F001000390039863
:10325000FFE7FFE741F25800C4F20200016841F0C5
:1032600080510160006800F0805002900298FFE7F2
:10327000032000F065F86FF00B0000220192114668
:1032800000F033F8019A6FF00A00114600F02DF8B3
:10329000019A6FF00900114600F027F8019A6FF0CB
:1032A0000400114600F021F8019A6FF00300114666
:1032B00000F01BF8019A6FF00100114600F015F8BC
:1032C000019A4FF0FF30114600F00FF804B080BDB6
:1032D00000F01F01012202FA01F14EF20012400932
:1032E000CEF2000242F82010704710B54EF60C5C8A
:1032F000CEF2000CDCF80030C3F3022E8EF007048F
:10330000042C28BF0424BEF103034FF0FF3E0EFA45
:1033100004F438BF0023A14399400EFA03F39A4303
:10332000114300F00F0200F160430901043A03F574
:1033300064436244002848BF02F10C03197010BDB9
:103340004EF60C51CEF200010A684FF6FF031A4008
:1033500060F30A2242F0806040F0FD700860704720
:1033600082B0019001980068009001990120C1F895
:103370006C040099B1F8580040F00100A1F8580021
:103380000099B1F8580040F00200A1F85800002060
:1033900002B0704782B001900198006800900199D6
:1033A0000120C1F868040199002081F86004009AA6
:1033B000B2F8541041F00101A2F85410009AB2F88A
:1033C000541041F00201A2F8541002B070470000FE
:1033D00080B584B003908DF80B109DF80B0001466A
:1033E000019120B1FFE70198012815D027E003984B
:1033F000806958B1FFE703F019F94EF61051CEF28B
:103400000001086820F006000860FFE70398D0F884
:10341000700404F023FB12E00398D0F8700404F069
:103420002DFC0398806948B1FFE74EF61051CEF2AB
:103430000001086840F006000860FFE7FFE704B0FD
:1034400080BD000084B00390ADF80A10ADF80820EC
:103450000193BDF80A00000600280AD5FFE703988B
:10346000BDF80A1001F00F0100EB41102830009068
:1034700008E00398BDF80A1000EB411000F50A704F
:103480000090FFE7BDF8080038B9FFE70099002079
:10349000087301980099C8800AE000990120087318
:1034A000019800990881BDF8060000994881FFE75E
:1034B000002004B07047000080B582B001908DF804
:1034C0000310019AD2F870049DF8031002EB411228
:1034D000D26B04F04BF802B080BD000080B582B022
:1034E00001908DF80310019AD2F870049DF8031032
:1034F00002EB4112D2F83C2204F0EAF802B080BD9F
:1035000080B584B002908DF807109DF80700000682
:1035100000280DD5FFE702989DF8071001F00F0174
:1035200000EB4110283000900099012048700DE018
:1035300002989DF8071001F00F0100EB411000F513
:103540000A700090009900204870FFE79DF807007E
:1035500000F00F0000990870FFE7029890F8280427
:10356000012804D1FFE702208DF80F0014E0029932
:10357000012081F82804FFE7FFE70298006800991E
:1035800005F08AF8FFE70299002081F82804FFE798
:1035900000208DF80F00FFE79DF80F0004B080BDFC
:1035A00080B584B002908DF807109DF8070000F0F8
:1035B0000F0002994968884204D9FFE701208DF87D
:1035C0000F0049E09DF80700000600280DD5FFE731
:1035D00002989DF8071001F00F0100EB4110283010
:1035E00000900099012048700DE002989DF80710A6
:1035F00001F00F0100EB411000F50A7000900099F6
:1036000000204870FFE70099002088709DF80700AF
:1036100000F00F0000990870FFE7029890F8280466
:10362000012804D1FFE702208DF80F0014E0029971
:10363000012081F82804FFE7FFE70298006800995D
:1036400005F0D3F8FFE70299002081F82804FFE78E
:1036500000208DF80F00FFE79DF80F0004B080BD3B
:1036600082B001908DF8031001989DF8031001F0CD
:103670000F0100EB4110B0F8440202B070470000A7
:1036800080B586B004908DF80F10ADF80C208DF841
:103690000B3000208DF80A009DF80F00000600286E
:1036A0000DD5FFE704989DF80F1001F00F0100EB16
:1036B0004110283001900199012048700DE00498D4
:1036C0009DF80F1001F00F0100EB411000F50A709A
:1036D0000190019900204870FFE79DF80F0000F06D
:1036E0000F0001990870BDF80C00019908619DF860
:1036F0000B000199C8700198407820B1FFE701994B
:103700000878C881FFE79DF80B00022804D1FFE785
:10371000019900200871FFE7FFE7049890F828045A
:10372000012804D1FFE702208DF8170015E0049965
:10373000012081F82804FFE7FFE704980068019959
:1037400004F09AFEFFE70499002081F82804FFE7BF
:103750009DF80A008DF81700FFE79DF8170006B0E6
:1037600080BD000080B586B005908DF813100392DF
:10377000029305989DF8131001F00F0100EB411022
:1037800000F50A7001900398019948610298019927
:10379000886101990020C861019948709DF8130063
:1037A00000F00F00019908709DF81300000730B970
:1037B000FFE705980068019905F068F805E00598AD
:1037C0000068019905F062F8FFE7002006B080BDAF
:1037D00080B584B002908DF807109DF8070000F0C6
:1037E0000F0002994968884204D9FFE701208DF84B
:1037F0000F0053E09DF80700000600280DD5FFE7F5
:1038000002989DF8071001F00F0100EB41102830DD
:1038100000900099012048700BE002989DF8071075
:1038200000EB411000F50A700090009900204870EC
:10383000FFE70099012088709DF8070000F00F0055
:1038400000990870FFE7029890F82804012804D135
:10385000FFE702208DF80F0020E00299012081F897
:103860002804FFE7FFE702980068009904F0F5FFDD
:103870009DF80700000738B9FFE70299086801F5CD
:10388000866104F0B0FFFFE7FFE70299002081F8AE
:103890002804FFE700208DF80F00FFE79DF80F00D8
:1038A00004B080BD80B586B005908DF813100392EA
:1038B000029305989DF8131001F00F0100EB4110E1
:1038C0002830019003980199486102980199886114
:1038D00001990020C8610199012048709DF81300EA
:1038E00000F00F00019908709DF81300000730B92F
:1038F000FFE705980068019904F0C8FF05E0059806
:103900000068019904F0C2FFFFE7002006B080BD07
:1039100080B582B001900198006805F0ADF8000410
:10392000002804D5FFE7019802F01EFBFFE701988D
:10393000006805F0A1F84005002810D5FFE70198C0
:103940000168B1F8440020F48060A1F844000198B7
:1039500000F030FA0198002100F072FAFFE70198B8
:10396000006805F089F84004002809D5FFE70198B0
:103970000168B1F8440020F48040A1F84400FFE75A
:103980000198006805F078F88004002809D5FFE761
:1039900001980168B1F8440020F40050A1F84400F7
:1039A000FFE70198006805F067F8C00400282AD5F1
:1039B000FFE701980168B1F8400020F00400A1F889
:1039C000400001980168B1F8400020F00800A1F81B
:1039D0004000019890F86004012808D1FFE70198A1
:1039E000002180F860140198FFF7F2FCFFE70198CE
:1039F00000F002FA01980168B1F8440020F4805008
:103A0000A1F84400FFE70198006805F035F80005CB
:103A1000002828D5FFE701980168B1F8400040F080
:103A20000800A1F8400001980168B1F8440020F4B2
:103A30000060A1F8440001980168B1F8400040F02E
:103A40000400A1F840000198006805F015F800F4A2
:103A500080510020B0EB113F04D1FFE7019800F046
:103A600055FAFFE7FFE70198006805F005F8000642
:103A7000002834D5FFE701980168B1F8440020F030
:103A80008000A1F84400019890F8600410BBFFE7A3
:103A900001980168B1F8400040F00400A1F840002E
:103AA00001980168B1F8400040F00800A1F840001A
:103AB0000198012180F8601401980068B0F8540062
:103AC00000F0F0008008019AC2F864040198FFF742
:103AD0007FFC03E0019800F019FAFFE7FFE7019887
:103AE000006804F0C9FF800500280CD5FFE70198A5
:103AF0000168B1F8440020F40070A1F84400019876
:103B000000F094F9FFE70198006804F0B5FFC005E4
:103B1000002809D5FFE701980168B1F8440020F4B6
:103B20008070A1F84400FFE702B080BDF0B58BB013
:103B30000990099820B9FFE701208DF82B00FCE0DF
:103B4000099890F8290440B9FFE70999002081F805
:103B50002804099800F0F6F8FFE70999032081F896
:103B600029040998006804F034FEDDF824E0CDF85B
:103B700018E0DEF80000DEF80410DEF80820DEF8B9
:103B80000C30DEF810C0DEF81440DEF81850DEF815
:103B90001C60DEF82070EE46CEF81070CEF80C6097
:103BA000CEF80850CEF80440CEF800C004F072FD04
:103BB000099800680021079104F075FF07988DF8B7
:103BC0002300FFE79DF823000E2836D8FFE7099869
:103BD0009DF8231000EB4111012081F829009DF888
:103BE0002300099901EB401181F828009DF823007A
:103BF000099901EB4011C88609989DF8231000EB44
:103C00004111002081F82B0009999DF8232001EB38
:103C10004211886309999DF8232001EB4211C86382
:103C200009999DF8232001EB42110864FFE79DF8F4
:103C3000230001308DF82300C4E700208DF8230015
:103C4000FFE79DF823000E2832D8FFE709989DF87A
:103C5000231000EB4111002081F829029DF8231068
:103C6000099A02EB411282F8281209999DF8232043
:103C700001EB421181F82B0209999DF8232001EBF9
:103C80004211C1F8380209999DF8232001EB421135
:103C9000C1F83C0209999DF8232001EB4211C1F8BB
:103CA0004002FFE79DF8230001308DF82300C8E7AC
:103CB000DDF824E0CDF814E0DEF80000DEF80410B2
:103CC000DEF80820DEF80C30DEF810C0DEF8144014
:103CD000DEF81850DEF81C60DEF82070EE46CEF8F4
:103CE0001070CEF80C60CEF80850CEF80440CEF834
:103CF00000C004F05AFD0999002081F824000999B8
:103D0000012081F829040998C069012804D1FFE73E
:103D10000998FFF73FFBFFE70998006A012804D1E3
:103D2000FFE70998FFF71CFBFFE70998006804F01C
:103D300033FD00208DF82B00FFE79DF82B000BB022
:103D4000F0BD000080B588B007900798006846F67F
:103D50000001C4F20001884229D1FFE74FF4C050AE
:103D600002900220039000200490032005900A2076
:103D700006904FF0904002A9FEF736FCFFE741F2B3
:103D80005800C4F20200016841F0806101600068DF
:103D900000F0806001900198FFE74320009000222E
:103DA0001146FFF7A2FA0098FFF792FAFFE708B072
:103DB00080BD000080B582B0019001208DF8030025
:103DC00001988068022804D1FFE701208DF80300E4
:103DD00003E001208DF80300FFE70198D0F870049C
:103DE0009DF8031003F05EFE0198D0F8700403F014
:103DF000FBFD02B080BD000080B582B0019001984B
:103E0000806958B1FFE74EF61051CEF20001086804
:103E100020F00600086002F005FCFFE70198D0F8EA
:103E2000700403F01BFE02B080BD000080B582B0BC
:103E300001900198D0F8700403F01AFE02B080BD22
:103E400080B584B002908DF80710FFE7029890F8D3
:103E50002804012804D1FFE702208DF80F001AE0A2
:103E60000299012081F82804FFE7FFE79DF8070089
:103E7000029981F82400029800689DF8071004F068
:103E800014FEFFE70299002081F82804FFE70020D4
:103E90008DF80F00FFE79DF80F0004B080BD000013
:103EA00080B582B001900199D1F8700401F5866166
:103EB00003F03AFE02B080BD80B582B00090FFE70B
:103EC000009890F82804012804D1FFE702208DF81B
:103ED000070017E00099012081F82804FFE7FFE7B9
:103EE0000098006804F04FFC0098006804F0B1FDF1
:103EF000FFE70099002081F82804FFE700208DF8F3
:103F00000700FFE79DF8070002B080BD80B582B0D2
:103F100001900198D0F8700403F0B0FE0198806918
:103F200048B1FFE74EF61051CEF20001086840F0AC
:103F300006000860FFE702B080BD000047F2000104
:103F4000C4F200010A68B0F5007F02F4C0602AD113
:103F5000B0F5007F2FD00868012262F34A20086084
:103F600040F2C010C2F20000006844F24022C0F2E9
:103F70000F02904211D34DF68362C4F21B32A0FBB4
:103F80000202900C32225043C0F101004A695205EE
:103F900003D5002800F10100F8D14869400544BF6D
:103FA0000320704707E0B0F5806F04D00868022254
:103FB00062F34A2008600020704747F20400C4F210
:103FC0000000016841F480610160704747F2000021
:103FD000C4F20000006800F4C06070472DE9F043AF
:103FE00081B00446407841F20C070007C4F2020792
:103FF0001BD5E06C68B1B0F5400F11D0B0F5000FE3
:1040000040F03B81386840F4803038604FF4000065
:1040100006E0201D002102F01DFA814638B9E06C4F
:10402000F96F21F440010843F8674FF00009A078C8
:10403000800757D5F86CC0000BD4F86C4FF001081E
:1040400040F08050F864F86C00F0805000900098C8
:1040500001E04FF0000847F20005C4F200052868AF
:1040600040F480702860FEF79DFB06462868C00576
:1040700007D4FEF797FB801B0228F7D94FF00309FE
:1040800029E0B9F1000F26D1D7F8840010F4407070
:1040900017D0616E884211D0D7F88400D7F8841009
:1040A00020F4407041F48031C7F88410D7F88410B0
:1040B00021F48031C7F88410C7F88400C00740F0AD
:1040C000DF80D7F88400616E20F4407008434FF021
:1040D0000009C7F88400B8F1000F03D0F86C20F095
:1040E0008050F8642168C80705D0F86F226A20F074
:1040F00003001043F867880705D5F86F626A20F05F
:104100000C001043F867480705D5F86FA26A20F045
:1041100030001043F867080705D5F86FE26A20F011
:10412000C0001043F867880605D5F86F226B20F4AD
:1041300040601043F867880505D5F86F626C20F47D
:1041400040201043F867480505D5F86FA26C20F4AD
:1041500040101043F867480605D5F86F626B20F4ED
:1041600040501043F867080605D5F86FA26B20F49D
:1041700040401043F867C80505D5F86FE26B20F49E
:1041800040301043F867C80207D5D7F89000226C7A
:1041900020F003001043C7F89000880418D5FA6F88
:1041A000206D22F040620243B0F1806FFA6707D0C1
:1041B000B0F1006F0CD1386840F48010386007E02F
:1041C000201D012102F046F92168002818BF814610
:1041D000080318D5FA6F606D22F040620243B0F117
:1041E000806FFA6707D0B0F1006F0CD1386840F4E7
:1041F0008010386007E0201D012102F02BF92168B2
:10420000002818BF8146480318D5FA6FA06D22F028
:1042100040620243B0F1806FFA6707D0B0F1006FDF
:104220000CD1386840F48010386007E0201D01216F
:1042300002F010F92168002818BF8146480410D503
:10424000F86FE26D20F040501043B2F1805FF867E4
:1042500007D1201D022102F0FDF82168002818BFB7
:104260008146C80305D5F86F216E20F00040084351
:10427000F867484601B0BDE8F0834FF00109D6E683
:10428000FEF790FA064641F288354FF0030900BF69
:10429000D7F8840080073FF514AFFEF783FA801B40
:1042A000A842F5D917E700002DE9F04381B00028B6
:1042B00000F09C8042F20008C4F202080446D8F8DC
:1042C00000000D4600F0070088420DD2D8F800002B
:1042D00020F007002843C8F80000D8F8000000F0DC
:1042E0000700A84240F08280206841F20809C10717
:1042F000C4F2020932D06068022806D0032809D12E
:1043000059F8081C89010DD470E059F8081C89037C
:1043100008D46BE059F8081C10B1490502D465E0D7
:10432000890763D5D9F8001021F003010843C9F8C3
:104330000000FEF737FA064641F28837D9F8000048
:10434000616800F00C00B0EB810F06D0FEF72AFA8E
:10435000801BB842F2D9032449E02068810707D5C1
:10436000D9F80010A26821F0F0011143C9F800103B
:10437000D8F8001001F00701A9420CD9D8F80010B4
:1043800021F007012943C8F80010D8F8001001F007
:104390000701A9422AD1410707D5D9F80010E268E0
:1043A00021F4E0611143C9F80010000708D5D9F8DD
:1043B0000000216920F4605040EAC100C9F8000003
:1043C00000F019F8D9F800104BF6D802C1F3031128
:1043D000C0F60102515C0024C84040F2C011C2F294
:1043E000000108600020FEF71AFF00E001242046CB
:1043F00001B0BDE8F08341F20801C4F2020108688F
:1044000010F00C0F09D0086800F00C000C280CD13B
:10441000486800F00300012807D151F8080C000794
:1044200010D4D1F88C00000A0FE00A6842F2004074
:1044300002F00C02C0F2F400042A4FF0000C14D079
:1044400008230CE051F8080C00094BF6E80200F0D4
:104450000F00C0F6010252F82000002384460A68CB
:1044600002F00C029A4218BF00200A6802F00C0207
:104470000C2A18BF704748684A68800742F200401B
:10448000C0F2F400C2F3021258BF60464B6801321A
:10449000B0FBF2F0C3F3062249685043C1F3416117
:1044A000022202EB4101B0FBF1F070472DE9F0412F
:1044B00082B0002800F0B7810446007841F200067F
:1044C000C006C4F2020667D42078C00717D0B068CF
:1044D00000F00C0008280BD0B06800F00C000C288D
:1044E00040F0AC80F06800F00300032840F0A680A4
:1044F0003068800303D56068002800F0948120783C
:1045000080071ED5B06800F00C0004280BD0B068FE
:1045100000F00C000C2840F0DB80F06800F0030095
:10452000022840F0D5803068400503D5E0680028B7
:1045300000F079817068216920F0FE4040EA016056
:1045400070602078000741D42078400756D4207846
:10455000800600F19180A06A002800F03382B168E3
:1045600001F00C010C2900F05E813168022821F075
:104570008071316040F0D781FEF714F9054600BF25
:104580003068800140F1EB81FEF70CF9401B0228F6
:104590004FF00300F4D947E1B06810F00C0F3DD0A4
:1045A000A1693068002900F0828040F0010030608D
:1045B000FEF7F8F8054600BF3068800700F1A080DC
:1045C000FEF7F0F8401B0228F6D9FDE06169D6F845
:1045D0009400002900F0A68040F00100C6F8940085
:1045E000FEF7E0F8054600BFD6F894008007ABD48C
:1045F000FEF7D8F8401B0228F6D9E5E0B06DC00000
:1046000000F1A580B06D4FF0010840F08050B0651A
:10461000B06D00F08050019001989AE030688007FA
:1046200003D5A069002800F0FE80206A31680907E0
:1046300000F1CC80D6F894100909C8E06568B5F59A
:10464000803F07D03068B5F5A02F40F0528140F48C
:1046500080203060306840F480303060FEF7A2F88F
:10466000054600BF306880033FF549AFFEF79AF872
:10467000401B6428F6D9A7E0616AD6F898000029A3
:1046800000F0E98040F00100C6F89800FEF78AF8D3
:10469000054600BFD6F8980080073FF55CAFFEF7EF
:1046A00081F8401B02284FF00300F3D9BCE020F052
:1046B00001003060FEF776F8054600BF30688007DD
:1046C0007FF502AFFEF76EF8401B0228F6D97BE0BB
:1046D000E1683068002900F0D28040F480703060DA
:1046E000FEF760F8054600BF306840053FF522AF91
:1046F000FEF758F8401B02284FF00300F4D993E06E
:10470000306840F0080030603068D4E9072120F0BC
:10471000F00008433060706820F47F4040EA0220D7
:104720007060D1E620F00100C6F89400FEF73AF878
:10473000054600BFD6F8940080077FF505AFFEF769
:1047400031F8401B02284FF00300F3D96CE04FF022
:10475000000847F20007C4F200073868C00512D409
:10476000386840F480703860FEF71CF8054600BFDA
:104770003868C00507D4FEF715F8401B02284FF033
:104780000300F5D950E0A568012D08D0D6F89000B7
:10479000052D40F0878040F00400C6F89000D6F860
:1047A000900040F00100C6F89000FDF7FBFF0546C1
:1047B00041F28837D6F89000800700F19180FDF72C
:1047C000F1FF401BB842F5D903202DE0316801F01C
:1047D000F001884214D901F0D2FE20BB306840F0CD
:1047E000080030603068D4E9072120F0F000084369
:1047F0003060706820F47F4040EA0220706016E06C
:10480000316841F008013160316821F0F001014365
:1048100031607168E26921F47F4141EA02217160EF
:1048200001F0ADFE18B1012002B0BDE8F081FFF744
:10483000E2FDB1684BF6D802C1F30311C0F60102E4
:10484000515CC84040F2C011C2F200010860002073
:10485000FEF7E5FC38E620F00100C6F89800FDF709
:10486000A1FF0546D6F8980080077FF574AEFDF7E6
:1048700099FF401B02284FF00300F3D9D4E720F43E
:1048800080703060FDF78EFF054600BF3068400540
:104890007FF557AEFDF786FF401B02284FF003005F
:1048A000F4D9C1E720F00100C6F89000D6F89000D6
:1048B00020F00400C6F89000FDF774FF002D0546B7
:1048C0007FF476AF41F28837D6F89000800707D59D
:1048D000FDF768FF401BB8424FF00300F4D9A3E78F
:1048E000B8F1000F3FF433AEB06D20F08050B065EA
:1048F0002DE620F480303060306820F48020306075
:10490000FDF750FF002D05467FF4ACAE07E0FDF744
:1049100049FF401B64284FF003003FF685AF306825
:104920008003F4D4EBE53068000103D4F06820F094
:104930000300F060F0684FF6FF71CFF6EE610840BB
:10494000F060FDF72FFF0446306880013AD5FDF78F
:1049500029FF001B03284FF00300F5D364E704F19F
:104960002C078FCF256C6FF00F0404EB011141EA87
:10497000022108430021CFF6E07101EA0751A1F5B9
:10498000001108434FF07E4101EA056101F17E41CB
:1049900040EAC3600843F060306840F080703060E7
:1049A000F06840F08070F060FDF7FCFE044630686F
:1049B000800107D4FDF7F6FE001B02284FF003002C
:1049C000F5D931E700202FE7A0B110B504464079B2
:1049D00020B900202071204600F00EF802206071FE
:1049E0002068016841F0040101600120607100202D
:1049F000A06010BD0120704781B0006840F6000142
:104A0000C5F2060188420CD141F24C00C4F202000A
:104A1000016841F480210160006800F4802000906A
:104A2000009801B070477047B0B582B00446006886
:104A3000416882684B0605D502F04103012B01D184
:104A4000E16C05E00B0608D512F0020305D0216DDC
:104A5000204602B0BDE8B04008478B0657D512F497
:104A6000B07354D012F0400316D094F85D30032B8D
:104A700007D100210191C1680191806801900198DE
:104A800045E0236E43F00403236600230193C368CB
:104A9000019383680193019B93060CD5236E43F029
:104AA000010323660023019383680193036823F0C5
:104AB00040030360019BD20508D5226E42F0080234
:104AC00022660022019282680192019A226EF2B15E
:104AD0004268890722F0E00242604FF0010284F848
:104AE0005D2016D0416846F2156521F00301416052
:104AF000A06DC0F6000510B18563FDF720FB606D69
:104B000028B1856302B0BDE8B040FDF718BB02B024
:104B1000B0BD204602B0BDE8B040FFF784BF00281A
:104B20004DD0B0B500258562044690F85D0020B9EF
:104B3000204684F85C5000F044F8022084F85D00C0
:104B40002068D4F80CE00268BEF5E06F4EF4006314
:104B500022F0400298BF0125B3F5706F02601CBFC0
:104B60000022A262226B4FEA053C2AB90123BEF55E
:104B7000E06F88BF02232363D4E90135D4E904211F
:104B80002B431A43A369114303F40072E5691143EF
:104B9000226A2943A56A114329430160042101EADD
:104BA0001341626A4CEA0E05636B294311431943B2
:104BB000416000200121206684F85D10B0BD012015
:104BC00070472DE9F04385B00446006843F60001C4
:104BD000C4F2000188425AD043F20001C4F201013C
:104BE000884273D141F25800C4F2020081686D46D8
:104BF00041F48051816080684FF0020800F48050D9
:104C000000900098522000904FF0010903260527DC
:104C10004FF090402946CDF80480CDF808900396D7
:104C20000497FDF7E1FC20208DE8010340F20040ED
:104C3000C4F600002946CDE90367FDF7D5FC42F232
:104C4000041540F24440C2F20005C4F202000421FF
:104C500010220023802785E88F002846C5E9053308
:104C6000C5E90733FDF7E5FA30B14BF6B760C0F69A
:104C700001009E2103F02AFF232000210022656508
:104C8000AC62FEF732FB2320FEF722FB1EE041F26E
:104C90005800C4F20200016841F4804101600068DC
:104CA000694600F48040009000984FF470400090F6
:104CB0000220019000200290032003900520049020
:104CC00040F20040C4F60000FDF78EFC05B0BDE8E0
:104CD000F0834EF21001CEF200010A68042822F09F
:104CE000040308BF42F004030B60704710B590F84E
:104CF0003C20012A4FF0020222D04FF0010C80F834
:104D00003CC080F83D20026842F600445368D2F867
:104D100008E0C4F20104A24203D14C6823F47003FA
:104D200023430C6823F07003896823432EF080042A
:104D3000214353609160002280F83DC080F83C2000
:104D4000104610BDB0B110B5044690F83D0028B92A
:104D5000002084F83C00204600F00EF8022084F881
:104D60003D002068211D01F0DAFC012084F83D009F
:104D7000002010BD0120704710B582B0006844F2D9
:104D80000041C4F20101884214D041F20001C4F292
:104D90000001884227D141F25800C4F202000168A4
:104DA000362441F010010160006800F0100001900D
:104DB00001980DE041F25800C4F202008168192404
:104DC00041F400318160806800F400300090009868
:104DD000204600210022FEF788FA204602B0BDE8F6
:104DE0001040FEF775BA02B010BD000080B542F267
:104DF0004C10C2F20000FDF72DFD80BD80B542F2DF
:104E00004C10C2F20000FDF756FD80BD80B542F2A5
:104E10009810C2F20000FDF71DFD80BD80B542F282
:104E20009810C2F20000FDF746FD80BD806A01685F
:104E3000D0E90EC34A6842F400424A600021CCF82F
:104E40003810996390F84110602918BFFDF73ABDFA
:104E5000202180F84110FDF7FBBC806A0268516890
:104E600041F400431021536000F0D5B810B5846AB6
:104E70002168086820F400400860608DA0B1208D92
:104E8000626A243102446262608DFF2894BF638DA0
:104E9000FF23E06B2385FDF72DFAC8B120461021D2
:104EA000BDE8104000F0B7B8606B45F2097345F2F9
:104EB0007742C0F60003C0F60002F424984208BF0F
:104EC00060249042086808BF60242043086010BD39
:104ED000616B45F20973206845F27742C0F6000322
:104EE000C0F60002F424994208BF60249142016890
:104EF00008BF60242143016010BD10B5846A226898
:104F0000106820F480401060608DA0B1208D616A2F
:104F1000283201446162608DFF2894BF638DFF23B6
:104F2000A06B2385FDF7E6F9C8B120461021BDE846
:104F3000104000F070B8606B45F2097345F277419C
:104F4000C0F60003C0F60001F424984208BF6024B4
:104F50008842106808BF60242043106010BD616B58
:104F600045F20973206845F27742C0F60003C0F6A7
:104F70000002F424994208BF60249142016808BFEE
:104F800060242143016010BD10B590F84110036802
:104F900001F02801282919D19969C1F30041D3F8FA
:104FA00018E09A68D3F80CC0C4684FEA1E4E022C71
:104FB00012D18EEAD21414F0060F17D01C680CF030
:104FC000FE0224F0B8041C6000230CE00821D96123
:104FD000002180F8401010BD1A6822F0B8021A6053
:104FE00000230EF0FE0280F8403010E0846C0134A3
:104FF0008464846C022C18BF10BD4FF0000C082490
:105000006FF39F22C0F848C0DC6180F840C0BDE863
:105010001040FDF71EBC10B5002204460020CFF65C
:10502000FF7284F84200E2626085606C084360644D
:1050300094F84100282807D094F84100292803D08B
:1050400094F841002A285ED194F84100F22100F042
:105050002800282894F8410008BF422100F02800C9
:10506000282820684FF0B40208BF042203681143C7
:1050700023EA0101016045F2D971C0F6000128223E
:1050800084F84120002222636163026801685204AF
:1050900010D4090420D494F84100602844D1202081
:1050A000002184F84100204684F84010BDE81040FB
:1050B000FDF7CEBB21F480410160A06B10B344F634
:1050C0002D61C0F600018163002184F84010FDF7D6
:1050D00036F8B8B1A06B11E0016821F4004101601D
:1050E000E06B78B144F62D61C0F6000181630021C8
:1050F00084F84010FDF723F820B1E06B816BBDE828
:105100001040084710BD94F8410094F84100206811
:10511000016821F0FE01016094F8411060294FF010
:105120000001AFD02022ABE70021204684F84010D8
:10513000BDE81040FDF7C6BB0022CFF6FF72C26289
:10514000002220234907026380F8413080F8422082
:10515000426312D50168436AD1F824C0591C4162E8
:1051600083F800C0018D41B101390185418D0139BC
:105170004185416C41F00401416490F8411090F880
:10518000411001680B6823F0FE030B601023CB6114
:1051900080F84020FDF77DBC02682023D361D2F85F
:1051A00004C04EF60003CFF6006303EA0C0353601D
:1051B0000023036343630023CFF6FF73C906C36272
:1051C00005D51021D161416C41F004014164916920
:1051D000890744BF002191629169C90703D1916990
:1051E00041F00101916190F84110F22301F0280192
:1051F000282990F8411008BF422301F0280CB4215F
:10520000BCF1280F08BF0421D2F800C019432CEAD2
:1052100001011160416C19B990F84110602902D167
:10522000416CFFF7F8BE90F8411021290FD12021E1
:1052300080F8411090F842100022402980F8422066
:1052400080F8402008BFFDF701BEFDF749BC90F88B
:105250004110222918BF7047202180F8411090F892
:1052600042100022402980F8422080F8402008BFE8
:10527000FDF7EBBDFDF70EBC4FF0000C80F842C00F
:1052800090F841202023212A80F8413015D11122A5
:105290000263C0F834C090F84120016802F028028F
:1052A000282A0A686FF0F20308BF6FF042031A4021
:1052B0000A6080F840C0FDF713BC12210163C0F8FA
:1052C00034C090F84110036801F0280128291968BA
:1052D0006FF0F40208BF6FF044021140196080F8CB
:1052E00040C0FDF7D7BBB0B5044600682022C261BC
:1052F0000822C26194F8412094F8412002684EF6D9
:10530000000322F0FE0202604268CFF6006342F41E
:105310000042426042680D461A404260826992072C
:1053200044BF002181628169C90703D1816941F0CD
:1053300001018161016849045CBF01685FEA0141C4
:105340000DD5E16B09B9A16B49B1016849044FF072
:10535000380158BF3C21615809684968618569076F
:105360000BD5406A616A4A1C62620870208D20B1C8
:1053700001382085608D01386085608D18B1606CC2
:1053800040F0040060640020206384F84200606301
:10539000606C70B1616C2046FFF73DFE94F84100EF
:1053A000282818BFB0BD20462946BDE8B040FFF709
:1053B000C3BEE06A10F5803F0ED194F84100202171
:1053C00084F8411000212228204684F8401012D190
:1053D000BDE8B040FDF716BF0020CFF6FF70E062D9
:1053E0002020002184F84100204684F84010BDE8C8
:1053F000B040FDF74EBBBDE8B040FDF704BF4FF035
:10540000000C80F842C090F84120292A16D12822A9
:1054100080F841202122026390F84120016802F0C7
:105420002802282A0A686FF0F20308BF6FF04203CF
:105430001A400A6080F840C0FDF7E5BE90F84110C0
:105440002A2918BF7047282180F8411022210163C2
:1054500090F84110036801F02801282919686FF0BD
:10546000F40208BF6FF0440211401960002180F877
:105470004010FDF7C7BE10B5044690F84000012863
:1054800004BF022010BD02EA01004FF0010CC30668
:1054900084F840C01AD40B063FD512F040023CD02D
:1054A0002068016821F040010160628D4168002A96
:1054B0004AD0628D6FF39F21B2F5807F4FD34FF0BA
:1054C000FF0EA4F828E04FF0807C54E02068102202
:1054D000616BC261626C45F2097342F0040245F2ED
:1054E000774CC0F600036264C0F6000CF4229942C7
:1054F00008BF60226145016808BF60221143016056
:105500008169890744BF002181628169C9074ED141
:10551000816941F00101816149E0420605D48006BC
:1055200045D52046FFF738FE41E0608D90B92068F0
:10553000416889013BD4E16A11F5803F06D1416899
:1055400041F48041416032E0880103D42046FFF7F6
:1055500093FE2CE020464021FFF75DFD27E0B4F8E4
:105560002AE0A4F828E0E36A13F5803F14BFD4F8DA
:105570002CC04FF0007C436849F60042CFF6004251
:105580001A4041EA0C015FFA8EF3114341EA0341EC
:105590004160618DA1EB0E01618594F841200168A5
:1055A000222A14BF41F4804141F4004101600020EF
:1055B00084F8400010BD70B5044690F84000012802
:1055C00004BF022070BD02EA01060D460120F1066B
:1055D00084F8400015D4700727D4B0072CD42806CF
:1055E00040D512F040003DD0608D10B1208D0028D4
:1055F00041D020684068800138D42046FFF73CFE47
:1056000026E020681021C161616C41F004016164F1
:105610008169890744BF002181628169C90717D167
:10562000816941F00101816112E02068616A406A8C
:105630004A1C6262087005E0606A2168421C62626E
:1056400000788862208D01382085608D0138608562
:10565000B00603D520462946FFF79EFD002084F8BA
:10566000400070BD7006F3D5608DD0B1204640215A
:10567000FFF7D1FCECE720684168628D6FF39F2152
:10568000B2F5807F19D3FF222285426849F6004394
:10569000CFF600431A40114441F0807141F47F017C
:1056A00030E0206841688901D2D4E16A11F5803F79
:1056B000A3D1416841F4804124E0628D2285E36AF0
:1056C00013F5803F0ED1D0F804C049F60043CFF661
:1056D0000043D2B203EA0C0341EA0241194401F14A
:1056E00000710FE0D4F82CC0D0F804E049F6004374
:1056F000D2B2CFF6004341EA024103EA0E0341EA87
:105700000C0119434160A3E710B5044690F840002E
:10571000012804BF022010BD02EA01000123C206D5
:1057200084F8403007D4020722D4800650D52046A2
:10573000FFF7D9FD4CE02068026852045CBF0268A4
:105740005FEA024242D5E26B0AB9A26B4AB1026833
:1057500052044FF0380258BF3C22A25812685268D7
:1057600052B11021C161606C40F0040060642FE010
:105770002046FFF709FC2BE0E26AB2F1007F03D07C
:10578000E26AB2F1007F07D194F84120282A03D1C0
:105790002046FFF7D1FC1BE0E16A11F5803F15D0F0
:1057A00094F84110292911D11021C161816989071B
:1057B00044BF002181628169C90703D1816941F039
:1057C000010181612046FFF71AFE01E01021C1614D
:1057D000002084F8400010BD70B5044690F84000E9
:1057E000012804BF022070BD02EA01060D46012017
:1057F000F10684F8400015D470071DD4300742D458
:10580000B00769D5608D00285DD0606A2168421CB0
:10581000626200788862608D01386085208D013871
:10582000208559E0608DE8B120681021C161606C6D
:1058300040F0040060644FE0608D58B12068616AF8
:10584000406A4A1C62620870208D01382085608D94
:1058500001386085608D00283ED1E06A10F5803FF8
:1058600037D139E0E06AB0F1007F03D0E06AB0F1EF
:10587000007F0CD194F84100282808D12046294601
:10588000FFF75AFC28E02046FFF77EFB24E0E06AA1
:1058900010F5803F13D094F8410029280FD12068DB
:1058A0001021C1618169890744BF0021816281693A
:1058B000C9070ED1816941F00101816109E02068C9
:1058C0001021C16108E0E06AB0F1807F01D0E06A98
:1058D00010B92046FFF793FDB00603D520462946B0
:1058E000FFF701FD002084F8400070BD2DE9F04372
:1058F00081B081460068154682690E461140891BB9
:10590000B1FA81F14909A94216D1DDF820801F467C
:105910005C1C00BF44B1FCF745FF7FB1A0EB080061
:10592000B8420BD8D9F8000081693140891BB1FA1F
:1059300081F14909A942EDD000200EE0D9F84400D8
:1059400040F02000C9F84400202089F841000020E0
:1059500089F8420089F84000012001B0BDE8F083D9
:1059600010B541F6606046F20041C2F20000C4F298
:105970000001082200234FF0807480E80E0000F13F
:105980000C014FF4802C4FF4401E81E808508461D4
:105990008383FCF757FA28B103A04F21BDE81040DC
:1059A00003F094B810BD00BF2E2E2F7372632F62C8
:1059B0006F6172642F7266652F763138332F737280
:1059C000632F63616E2E630080B582B041F24800A0
:1059D000C4F202000168002241F001010160016887
:1059E00001F0010101910199016841F0020101609A
:1059F0000068002100F00200009000980C20FDF7E4
:105A000074FC0C20FDF764FC0D2000210022FDF742
:105A10006CFC0D20FDF75CFC0E2000210022FDF740
:105A200064FC0E20FDF754FC0F2000210022FDF73E
:105A30005CFC0F20FDF74CFC102000210022FDF73C
:105A400054FC1020FDF744FC112000210022FDF73A
:105A50004CFC1120FDF73CFC382000210022FDF712
:105A600044FC3820FDF734FC392000210022FDF7EA
:105A70003CFC3920FDF72CFC3B2000210022FDF7E7
:105A800034FC3B2002B0BDE88040FDF721BC2DE98D
:105A9000F04F85B041F24C00C4F20200016840F2C0
:105AA000004A41F0040101600168C4F6000A01F0F7
:105AB00004010091009901680AF5806641F08001B7
:105AC00001600168002201F08001009100990168E5
:105AD0004FF4404441F0010101600168002701F0EA
