:020000040800F2
:10000000F8B40020ED040008F5040008F704000827
:10001000F9040008FB040008FD04000800000000CB
:10002000000000000000000000000000BD03000808
:10003000010500080000000075040008D90400084C
:100040000705000807050008070500080705000860
:100050000705000807050008070500080705000850
:1000600007050008070500080705000849210008E2
:1000700059210008070500080705000807050008C2
:100080000705000807050008E91E00080705000825
:10009000070500080705000807050008BD2100083E
:1000A000D58B0008058C0008F58B0008E58B00084F
:1000B000158C0008258C00080705000807050008B6
:1000C00007050008070500080705000807050008E0
:1000D00007050008070500080705000807050008D0
:1000E000B1210008070500080705000807050008FA
:1000F00007050008070500080705000807050008B0
:10010000070500080705000807050008070500089F
:10011000070500080705000807050008070500088F
:10012000070500080705000807050008070500087F
:10013000070500080705000807050008070500086F
:10014000070500080705000807050008070500085F
:10015000070500080705000807050008070500084F
:10016000070500080705000807050008070500083F
:10017000070500080705000807050008070500082F
:100180000705000807050008F1750008E17500087B
:100190000705000800000000C9210008D921000857
:1001A00007050008070500080705000807050008FF
:1001B00007050008070500080705000807050008EF
:1001C00007050008070500080705000807050008DF
:1001D000070500080705000800F002F800F0ABF87A
:1001E0000AA090E8000C82448344AAF10107DA4592
:1001F00001D100F0A0F8AFF2090EBAE80F0013F039
:10020000010F18BFFB1A43F00103184730E4010047
:1002100050E401000A4410F8014B14F00F0508BF28
:1002200010F8015B240908BF10F8014B6D1E05D0C2
:1002300010F8013B6D1E01F8013BF9D1641E03D09B
:10024000641E01F8015BFBD19142E4D370470000CA
:100250000023002400250026103A28BF78C1FBD8CF
:10026000520728BF30C148BF0B6070476E2900F0AD
:10027000DF85702900F0A58266291DF0E6846529D6
:100280001DF0E38467291DF0E08461291DF0DF84FF
:1002900003681B0A28BF41F08001692900F08C85A2
:1002A000642900F08985752900F086856F2900F0A2
:1002B000B186782900F07182E92900F04B86E429A3
:1002C00000F04886F52900F04586EF2900F0AE865B
:1002D000F82900F070820368DB0928BF41F0800133
:1002E000632901F0C183732901F0C683E32901F07A
:1002F000D183F32901F0D683002070471FB51DF08C
:1003000092FC9DE8030000F0B0FB01F09AFC0400B1
:10031000002000211CF088FE401C606000200021AD
:100320001CF098FEE06001F0CDFD1FBD10B500206F
:1003300001F0E0FB10BD01F05FFC1146FFF7DEFFAE
:1003400018F002F801F034FD03B4FFF7EFFF03BC2F
:1003500000F068FB80F309887047EFF3098070476D
:10036000684680F3098804480078C00714BF02205B
:10037000032080F31488704770010020DFF818C054
:10038000EFF305831B0618BF6047EFF31483DB0709
:1003900008BF604700DF7047B1B10108DFF818C03F
:1003A000EFF305831B0618BF6047EFF31483DB07E9
:1003B00008BF604700DF704729B20108EFF30980EA
:1003C000816911F8021CE1BB90E80F1010B5E047FD
:1003D000BDE81040EFF3098C8CE80700214B93E84F
:1003E0000600914208BF704741B91EF0100F16D1A8
:1003F0001D49086820F00100086010E01EF0100F91
:1004000006BF2CED108A0120002081F838002CE96D
:10041000F00FC1F83CC00CB41CF0D4FA0CBC1A604C
:10042000D2F83CC0BCE8F00F92F8380000280EBFAC
:100430006FF0020E6FF0120EBCEC108A8CF309887C
:10044000704710B5094A1268914209D8084C54F80F
:10045000214090E80F10A047EFF3098C8CE80F00C3
:1004600010BD0000C800002034EF00E0DC9001085F
:10047000DC90010810B51CF09FF9BDE81040154B49
:1004800093E80600914208BF7047EFF3098C1EF015
:10049000100F06BF2CED108A0120002081F83800D3
:1004A0002CE9F00FC1F83CC00CB41CF08BFA0CBC6A
:1004B0001A60D2F83CC0BCE8F00F92F8380000286F
:1004C0000EBF6FF0020E6FF0120EBCEC108A8CF3B0
:1004D00009887047C800002010B51CF097FACCE7D7
:1004E00010B519F091FE1CF091FAC6E70948804753
:1004F00009480047FEE7FEE7FEE7FEE7FEE7FEE706
:10050000FEE7FEE7FEE7FEE704480549054A064B1D
:1005100070470000C18B0008D9010008F8140020C2
:10052000F8B40020F8940020F894002000487047A8
:10053000AC04002070B5A0FB0140B4F1805170F113
:10054000000024BF002070BD204600F006FB05001F
:100550001CBF214600F04BFE284670BD70B5164604
:100560000D46041F002808BF70BD002E1CBF05F1FA
:100570000C0017F0E5F92B465868002818BFA04278
:1005800038BF0346F8D31968CA18A24218BF5C6086
:1005900003D122681C461144196021680A1982425D
:1005A00018BF606004D1426862600068084420603F
:1005B000002E1CBF05F10C0017F0D2F970BD10B56C
:1005C000044600F035FA01682046BDE810400122DB
:1005D000C4E753EA020C00F069802DE9F04B4FF0BC
:1005E0000006002B1FBFB3FA83F503FA05F424FAC3
:1005F00005F65E4012BF1643B2FA82F502FA05F420
:10060000C5F120051EBF22FA05FC44EA0C04203582
:1006100056EA044C4FEA144418BF641C4FF000081B
:100620004FF00009904271EB030C39D3002919BF38
:10063000B1FA81F701FA07F6B0FA80F700FA07F687
:10064000C7F120071EBF20FA07FC46EA0C06203738
:10065000B6FBF4FCA7EB0507103F07F01F0BCBF12F
:1006600020062CFA06F60CFA0BFB44BFB346002614
:10067000202FA4BF5E464FF0000B5BEA060C08BFBC
:100680004FF0010B19EB0B0948EB0608ABFB027CA2
:1006900006FB02CC0BFB03CCC01B71EB0C01C1E7CA
:1006A0000B46024641464846BDE8F08B13B5084369
:1006B00018BF4FF0FF300146AFF30080BDE81C408B
:1006C000704700000FB41CB50C0007AA009007D0BB
:1006D0004142A14202D32044401E01E04FF0FF30CE
:1006E000074B7B4469460190069800F0BAFB002155
:1006F000002C01D0009A11701CBC5DF814FB0000A6
:10070000A30700000FB41CB50C0007AA009007D087
:100710004142A14202D32044401E01E04FF0FF308D
:10072000074B7B4469460190069800F09AFB002134
:10073000002C01D0009A11701CBC5DF814FB000065
:1007400063070000F0B40D460188090502D5214C6D
:100750007C4402E01F4C7C440E34002100F124064E
:1007600008E002F00F071209E75D42EA03721B0975
:100770007754491C52EA0307F3D102780023120789
:1007800004D5702D06D009B1022311342246F0BCE5
:1007900000F0B9BA01231034F8E770B504460D46ED
:1007A0002146106800F07DFA024629462046BDE841
:1007B00070400023C6E7D21D22F00703D3E90023CF
:1007C000C0E70368126843F0200303600823C36195
:1007D0000023B7E7FED401002DE9F05F8946044607
:1007E0004FF0000ADFF874B1FB44C0F820A02046A7
:1007F000E1688847002874D0252806D0D4E9012173
:100800009047206A401C2062F1E700265F462046A0
:10081000E16888472028054607DB312D05D2781985
:1008200010F8200C08B10643F1E7B00701D526F017
:100830000406C4F81CA00027C4F818A02A2D09D06B
:10084000284618F092FC38B304EB8708303DC8F80E
:10085000185019E059F8041B204604EB87029161F7
:10086000E1688847012F054618D1E069002820DAA1
:1008700026F020061DE0D8F8180000EB800005EBFC
:1008800040003038C8F818002046E168884705461F
:1008900018F06BFC0028EED1012F0AD02E2D08D1C4
:1008A0002046E16888477F1C0546022F46F0200657
:1008B000C4DBA069002803DA404246F00106A061CB
:1008C000F00701D026F010066C2D0BD0682D09D052
:1008D0004C2D39D06A2D35D0742D35D07A2D33D0AA
:1008E00016E038E0E1682F4620468847B8420546C2
:1008F00009D16C2F26D04FF48060E1680643204672
:100900008847054604E06C2F1AD04FF480700643E8
:100910000DB3A5F14100192802D8203546F4006630
:100920004A462946204626604E46FFF79FFC80B186
:1009300001280BD0F61D26F0070000F1080956E744
:100940004020E4E78020D8E70020D6E706F104093C
:100950004DE7284652E7206ABDE8F09F8ED401009B
:1009600010B5002000F083FBFFF7E0FCBDE810406D
:10097000012000F057B80B460146184600F060BB56
:1009800010B5431C02E010F8011B71B18107FAD1C8
:100990004FF0013202C88C1A8C4314EAC211F9D00C
:1009A000C01A0A0603D0C01E10BDC01A10BD0A042A
:1009B00001D0801E10BD0902FCD0401E10BD02F007
:1009C000FF0343EA032242EA024200F012BC4FF066
:1009D000000200B5134694469646203922BFA0E88F
:1009E0000C50A0E80C50B1F12001BFF4F7AF09079B
:1009F00028BFA0E80C5048BF0CC05DF804EB89008C
:100A000028BF40F8042B08BF704748BF20F8022BCE
:100A100011F0804F18BF00F8012B704770477047E6
:100A20007047000001491820ABBEFEE72600020017
:100A300010B5FFF77BFD083010BD70477047704759
:100A4000704738B504460A4600206946AFF3008077
:100A5000002808BF38BD02460099204600F007FC78
:100A6000012038BD012001F083B8F8B5AFF3008054
:100A7000054600200C46102000BF0646A819A042DB
:100A80000DD9324669460020AFF30080070008BF49
:100A900001F06EF80098A04218BF0546C419FFF790
:100AA000C7FF05600746F01D20F0070046192846DD
:100AB00000F0CDFBB44208BFF8BDA21B3146386838
:100AC000BDE8F84000F0D3BB0844401E491E8843EF
:100AD00070470821001DF7E72DE9F04117460E4643
:100AE0000446FFF7F6FFA042054633D9002F1CBF8E
:100AF00006F10C0016F024FF30467468F4B121684A
:100B0000A94217D305F1080291423CBF61684160D8
:100B100007D3626861194A602268521B0A6041600B
:100B20002560002F1CBF06F10C0016F019FF201DD8
:100B3000BDE8F08120466468002CE0D129463046AB
:100B4000FFF77FFF0028D7D1002F1CBF06F10C0054
:100B500016F006FF0020BDE8F08110B50446FFF74F
:100B600067FF01682046BDE810400122B4E7084451
:100B7000401E491E884370470821001DF7E72DE9F4
:100B8000F04791460C468046FFF752FF06686042E8
:100B900034EA000001D1042C02D20520BDE8F08720
:100BA000601E40F007074846FFF7E6FF4845054648
:100BB0009CBF0620BDE8F08706F10C0016F0C0FED1
:100BC00074683046002C2FD02368211D494207EA63
:100BD0000102934224D9991A8D4221D84AB1214663
:100BE00014440B689B1A23604B6863600A60416081
:100BF0000846226805F108018A4205D36119521B93
:100C00000A602560416008466168416006F10C0099
:100C100016F0A6FE241D0020C8F80040BDE8F087AD
:100C200020466468002CCFD129463046FFF709FFE3
:100C30000028C5D106F10C0016F092FE0620BDE892
:100C4000F08770B5044685690068C10601D5302675
:100C500000E02026C00707D070BDD4E9012130464E
:100C60009047206A401C20626D1EF6D570BD70B59D
:100C7000044685690078C00707D170BDD4E9012119
:100C800020209047206A401C20626D1EF6D570BD62
:100C900009684A0501D540B27047C905FCD500B2C4
:100CA000704709684A0501D5C0B27047C905FCD52F
:100CB00080B2704770B50C460546012A05D02878E9
:100CC000800600D5EA69002302E0012305E05B1CF1
:100CD000934202D2E05C0028F9D1A869E618C01A54
:100CE000A861286A184428622846FFF7AAFF04E092
:100CF000D5E9012114F8010B9047B442F8D32846F6
:100D0000FFF7B5FF70BD2DE9F0470D4699469246B5
:100D1000044600F124080168880604D5E06921F042
:100D20001001216000E00120A84201DD471B00E026
:100D30000027A1697A1902EB0900081AA06120783E
:100D4000C00602D42046FFF77CFF002608E0D4E965
:100D500001211AF806009047206A401C761C206288
:100D60004E45F4DB2078C0060AD52046FFF769FF20
:100D700006E0D4E9012130209047206A401C20621F
:100D8000381EA7F10107F4DC07E0D4E9012118F8C7
:100D900005009047206A401C2062281EA5F101052D
:100DA000F3DC2046FFF763FF2078000602D502201F
:100DB000BDE8F0870120FBE72DE9F041064600245D
:100DC00010687529314616A510D0FFF761FF00287D
:100DD00002DA404213A507E031688A0701D512A55F
:100DE00002E0490704D511A5012401E0FFF759FFEE
:100DF00000210A2206F1240709E0B0FBF2FCB0FB57
:100E0000F2F302FB1C00303078541846491C0028CD
:100E1000F3D123462A463046BDE8F041FFF773BFC1
:100E2000000000002D0000002B000000200000004A
:100E300011680268006A530501D508700AE0D305FD
:100E400001D5088006E0130603D5C217C1E90002E8
:100E500000E008600120704701694A1C02610878BF
:100E6000704700B58FB0CDE90131002105910549EA
:100E70007944CDE9031011466846FFF7ADFC0FB089
:100E800000BD0000E5FFFFFFD1E900239A4202D236
:100E9000531C0B60107070472DE9FF5F15468A46A2
:100EA0000446DFF8AC80F8440027D8E900103E463D
:100EB000CDE9001010E03AF816106A4602A800F0DA
:100EC000F5FD411C07D02178890603D5E269391860
:100ED00091420DD80744761C2078800602D5E0693F
:100EE000B84205DDAE42E6DB3AF816000028E2D152
:100EF000A069C01BA0612046FFF7A3FED8E900103F
:100F0000CDE90010002017E03AF818106A4602A850
:100F100000F0CCFDB0F1FF3F81460BD000250DF174
:100F2000080B05E0D4E901211BF8050090476D1C72
:100F30004D45F7D308F10100B0428046E4DB206A5A
:100F4000384420622046FFF792FEBDE8FF9F000074
:100F5000E2CD01002DE9F0418046D21D22F00702CA
:100F60000025D2E90002F52915A614D0011E72F160
:100F7000000106DA0023D0EB030063EB020211A6A6
:100F800008E0D8F800108B0701D50FA602E049074A
:100F900001D50EA601251146002408F1240704E01E
:100FA00000F087F930323A55641C50EA0102F7D15B
:100FB0002B46324621464046BDE8F041FFF7A3BE2E
:100FC000000000002D0000002B00000020000000A9
:100FD00030B4002100F1240408E002F00705D20833
:100FE000303542EA4372DB086554491C52EA030576
:100FF000F3D10468002310A2250708D504F02004CB
:101000000C4304D0C46901230CA2641EC46130BC2B
:10101000FFF779BE10B5044621461068FFF741FE80
:1010200002462046BDE810400023D1E7D21D22F041
:101030000701D1E90023CBE70000000030000000E9
:101040002DE9F041074615460E461020FFF785FDB5
:1010500004000AD06760C4E9026500F0F3F8016893
:10106000216004600020BDE8F0810120FBE710B59D
:1010700000F066FDBDE8104000F05DBD032A40F2BF
:10108000308010F0030C00F0158011F8013BBCF12A
:10109000020F624498BF11F801CB00F8013B38BF42
:1010A00011F8013BA2F1040298BF00F801CB38BF50
:1010B00000F8013B11F0030300F06780083AC0F02C
:1010C000088051F8043B083A51F804CBA0E8081016
:1010D000F5E7121D5CBF51F8043B40F8043BAFF349
:1010E0000080D20724BF11F8013B11F801CB48BFA3
:1010F00011F8012B24BF00F8013B00F801CB48BFD9
:1011000000F8012B7047431A28BF9A427FF6B6AF0A
:1011100010441144032A40F2268010F0030F1EBF32
:1011200011F8013D521E00F8013D10F0030F7FF44D
:10113000F6AF11F0030300F03585083AC0F00B80DC
:1011400051F8043D083A51F804CD40F8043D40F808
:1011500004CDFFF7F3BF121D5CBF51F8043D40F80A
:10116000043DAFF30080D20724BF11F8013D11F810
:1011700001CD48BF11F8012C24BF00F8013D00F853
:1011800001CD48BF00F8012C704710B5203AC0F0DF
:101190000B80B1E81850A0E81850B1E81850A0E84A
:1011A0001850203ABFF4F5AF5FEA027C24BFB1E8E3
:1011B0001850A0E8185044BF18C918C0BDE8104026
:1011C0005FEA827C24BF51F8043B40F8043B08BF2F
:1011D0007047D20728BF31F8023B48BF11F8012BF6
:1011E00028BF20F8023B48BF00F8012B70474FF0A2
:1011F00000020429C0F0128010F0030C3FF4E9ABA8
:10120000CCF1040CBCF1020F18BF00F8012BA8BFF1
:1012100020F8022BA1EB0C01FFF7DBBB5FEAC17CDE
:1012200024BF00F8012B00F8012B48BF00F8012B68
:101230007047704710B500F004FD001D10BD00BFE1
:10124000E9BD010010B5FFF771F9383010BD00217C
:101250000160C0E901100C3016F07ABB1020704715
:10126000801A0844401E491E88431044704770B5D8
:10127000144605468C464368002B18BF634538BFAB
:101280001846F8D302681044604508D066466046A8
:1012900004220821FFF7E4FF811B8446641A2946D3
:1012A000CCF80040BDE8704000220CF10400FFF7CC
:1012B00055B930B5B0F10A0271F100034FEA900E52
:1012C0004EEA817EB0EB0E0061EB91014FEA101EF9
:1012D0004EEA017E10EB0E0041EB11114FEA102E89
:1012E0004EEA016E10EB0E0041EB11214FEA104E59
:1012F0004EEA014E10EB0E0041EB1141401841F156
:1013000000014FEAD00040EA41704FEAD1014FEAB4
:10131000810444EA907410EB800544EB01046D19DC
:1013200044EB0404521BA3414FF0000348BF0A32B0
:1013300000D530BD401C41F1000130BD2DE9FF4F0B
:101340000C461E464FF0FF378BB0D2E90001DDF8A6
:1013500060800A908A46C1F30A5505B93D460021CE
:1013600008464FF00000BAF1000F00F4400005DA23
:1013700000EB80004FF4400101EA50004FEA905921
:10138000B9F1010F00DDB9460A9850EA4A000ED0C3
:1013900044F61050A5F2FF3545432F14B8F1000F65
:1013A0001ED07542291E1EDDC9F100021CE0B8F1F5
:1013B000010F4FF0000001D0302103E0F24305E0BF
:1013C0002154401CB042FBDB304600220021215456
:1013D0000B99C1F80880C1E900200FB0BDE8F08F7B
:1013E000BD1B6D1CDEE74A4600DA694206A800F024
:1013F0006DFC06AB93E8070003AB83E8070050469B
:101400000A9917F0A3FA8DE80700A0F500501F38DD
:1014100000900398002D0ADD42F21F014A4608445D
:10142000002303A90390684617F00CFD09E0A0F51E
:1014300000504A461F38002303A90390684617F05E
:1014400016FD8DE807000004000C03D04FF0FF30BC
:10145000410800E01046B8F1000F03D000220092CE
:1014600015461EE0751E05D4FFF723FF3032625586
:101470006D1EF9D5B3460122084302D000227F1C1D
:1014800004E02078302801D100227F1E002A09972D
:1014900084D01DE0112D07DAFFF70BFF30326255C3
:1014A0006D1C50EA0102F5D1084302D00098C8B182
:1014B0000EE00021681E05E0235C625C6354225448
:1014C000401E491C8142F7DBAB46A81B401E099019
:1014D000002004F80B000B98099AC0F80880C0E9B6
:1014E000002B7AE711264FF0000857E72DE9F04F5F
:1014F00088460446D21D22F0070191B0D1E90001CF
:10150000CDE90A0117F0F5FD02460B98C00F01D096
:101510002D2007E02068810701D52B2002E0202143
:1015200001EAC000032A099001D0072A05DB03461F
:101530004146204600F08AFB0BE12078800601D569
:10154000E06900E00620B8F1650F814606D0B8F1E9
:10155000660F18D0B8F1670F70D131E00020B9F1F3
:10156000110F009001DB112301E009F101030AAA28
:1015700001A90CA8FFF7E2FEDDE90C70002609F1D5
:101580000105834647E001204B4600904FF000479D
:101590000AAA01A90CA8FFF7D1FEDDE90DB00C994C
:1015A0005D46002610B909F101000D18B9EB0500E0
:1015B00003D4C0F1FF3609F10105A5EB09002BE0CA
:1015C000B9F1010F01DA4FF001090020B9F1110F53
:1015D0000090484601DD112300E003460AAA01A954
:1015E0000CA8FFF7ABFEDDE90C704D4600268346E4
:1015F000207800070AD4AB4500DA5D4601A8012D2A
:1016000004DD411911F8011C302907D04F4502DAD9
:1016100017F1040F04DA012082460FE06D1EEEE799
:10162000002F02DCED1B3E4403E0781CA84200DDE5
:101630007D1CB81B00F1010A4FF00047207800071D
:1016400003D4AA4501DB4FF0FF3A0021B7F1004F68
:101650000DF143088DF8431024D002202B23002FD6
:1016600001DA7F422D230A21021EA0F1010000DCD5
:101670005FB197FBF1FC97FBF1F201FB1C7C174675
:101680000CF1300C08F801CDEEE7A8F10100037071
:101690002188090501D5452100E06521A0F1010857
:1016A00000F8011C09980FA9A1EB0807FF1D00B164
:1016B0000120411901EBEA70A1693844081A401E63
:1016C000A0612078C00602D42046FFF7BAFA099834
:1016D00028B1D4E901219047206A401C206220787B
:1016E000C00622D52046FFF7ACFA1EE0002E04DB30
:1016F000B34502DD01A8805D00E03020D4E901217E
:101700009047206A401C2062761CAAF101005FEA23
:10171000000A0AD100F095FAC0680168405CD4E97B
:1017200001219047206A401C2062281EA5F1010576
:10173000DCDC07E0D4E9012118F8010B9047206AAE
:10174000401C2062381EA7F10107F3DC2046FFF79A
:101750008EFA032011B041E62DE9F04F04460D4604
:10176000D21D22F0070089B0D0E9009748463946DB
:1017700017F0BFFC0246F80F01D02D2307E02068C8
:10178000810701D52B2302E0202101EAC0038DF857
:1017900020300BB1012000E00020032A824601D056
:1017A000072A04DB2946204600F050FA3FE1207862
:1017B000800601D40D2500E0E569C7F30A560D2D1A
:1017C00049DA00214FEA175B08464FF00000002F6E
:1017D00000F4400007DA00EB80004FF4400100EB1A
:1017E000D07001EA60008115012901DD4FF0FF3161
:1017F00000224FEA850CBCF1180F06D31346ACF15A
:1018000018004FF08052C24003E04FF4801323FAD7
:101810000CF30CF10C0CBCF1200F04D3ACF1200C38
:1018200009FA0CF001E007FA0CF000294FF000482B
:1018300001DD18B90FE00ED140450CD319EB0209B8
:101840005F4121B9404502D19F4329EA0209BBEB20
:10185000175F00D0761C2088000502D57B487844AD
:1018600002E07A487844193808AA302302F80A308E
:10187000037C0AF10101002E0AF1020A53546A4660
:1018800002DC4FF0300101E04FF031014FF0010870
:101890008DF8001002D0A6F2FF3603E059EA4701A6
:1018A00000D06B4E002D02DC2178090704D54FF0E3
:1018B00002082E218DF80110C44600210BE0C7F369
:1018C00003433F01C35C491C6D1E02F80830052923
:1018D00008F1010801DA002DF1DC00210CE000EB39
:1018E0001973491C1B786D1E082902F808304FEA4D
:1018F000091908F1010801DA002DF0DC21688B06D6
:1019000002D516E0A8F10108E04505DD02EB080369
:1019100013F8013C302BF5D0B8F1000F09DD02EBD4
:10192000080313F8013C2E2B03D1090701D4A8F1B9
:101930000108002D05DD3E2102F808106D1E08F19A
:101940000108407C002E02F8080008F1010804DAC2
:101950002D20764202F8080002E02B2002F8080051
:101960000A214FF47A70864208F101080BDB96FBDE
:10197000F0F3303302F8083096FBF0F308F1010879
:1019800000FB136601E0642E0CDB642096FBF0F391
:10199000303302F8083096FBF0F308F1010800FB41
:1019A000136601E00A2E06DB96FBF1F0303002F8F8
:1019B000080008F1010896FBF1F001FB10603030DF
:1019C00002F80800A16908F1010808EB050202EB22
:1019D0000A00081AA0612078C00602D42046FFF74A
:1019E00030F9216A08AE01EB0A00206204E0D4E974
:1019F000012116F8010B9047BAF1010AF7D22078BD
:101A0000C00602D52046FFF71CF96E4609E016F81D
:101A1000010B3E280FD0D4E901219047206A401CD9
:101A20002062B8F10108F2D22046FFF720F909B090
:101A30000320BDE8F08F206A2844206203E0D4E947
:101A40000121302090476D1EEBD3F8E745C401001B
:101A500002FCFFFF10B5436913B1AFF3008001E052
:101A6000FFF728F9012010BD127800F124010A7057
:101A700000224A700122EDE711684FF0FF32E9E7DA
:101A800010B5436913B1AFF3008001E0FFF704FA2A
:101A9000012010BD128800F1240182840022C2843A
:101AA0000122EDE711684FF0FF32E9E72DE9F0413F
:101AB00016460C460546FFF7BDFB036893F8010187
:101AC000012807D0FF2C12D8185D80B101202C709E
:101AD000BDE8F081D3F807013246214603F207132F
:101AE000C7182846BC46BDE8F041002360474FF0C8
:101AF000FF30EDE72DE9F0410646FFF7A3FB8046F6
:101B0000454613E016B1E068B0420ED12068286067
:101B1000D4E90101D8F8007088472046FEF74FFD50
:101B2000D8F80000B842EBD100E025462C68002C24
:101B3000E8D1BDE8F081002801D0FEF773BF7047FF
:101B400010B5002102A000F03CF9012010BD0000FA
:101B5000534947414252543A2041626E6F726D615F
:101B60006C207465726D696E6174696F6E0000003F
:101B700010B500F03FF9BDE81040FFF7DCBF431A95
:101B800028BF9A427FF601AB1044114410F0030FB6
:101B90001EBF11F8013D521E00F8013D10F0030F69
:101BA0007FF4F6AF103AC0F00A8010B531E9185052
:101BB00020E91850103ABFF4F9AFBDE810405307C0
:101BC00024BF31E9081020E9081044BF51F8043D52
:101BD00040F8043D12F0030F08BF7047D20728BF3A
:101BE00031F8023D48BF11F8012C28BF20F8023D12
:101BF00048BF00F8012C70477546FEF797FCAE46CB
:101C000005006946534620F00700854618B020B508
:101C1000FEF77AFCBDE820404FF000064FF00007C9
:101C20004FF000084FF0000BAC46ACE8C009ACE840
:101C3000C009ACE8C009ACE8C00921F007018D4635
:101C4000704710B5FEF772FC203010BD2DE9F04151
:101C50001F46044603260168072A01F4006004DBDE
:101C600008B116A505E016A503E008B115A500E02A
:101C700015A521F010002060A069C01EA0610FB161
:101C8000401EA0612046FEF7DCFF4FB1D4E90121E0
:101C900038469047206A401C2062C01C206206E043
:101CA000206AFAE7D4E9012115F8010B9047761E66
:101CB000F8D22046FEF7DBFFBDE8F0814E414E0032
:101CC0006E616E00494E4600696E66002DE9F04770
:101CD000814616468AB0354878440DC88DE80D0017
:101CE00032487844801C03AC0DC884E80D0041F6EE
:101CF0009B300844372190FBF1F290FBF1F5A5F100
:101D0000800501FB12041B3C02D56442012000E067
:101D10000020DFF898A080460027FA44AAF1BE0A06
:101D20000EE0E0070AD03246684607EB4701012380
:101D30000AEB810117F09BF88DE8070064107F1C07
:101D4000002CEED1194F7F44AE3F19E0E80715D0C3
:101D500007EB04100DF1180A90E80E008AE80E0057
:101D6000C068F04201D1981908903246012306A9B3
:101D700003A817F07CF803AB83E807006D10641C20
:101D8000002DE3D14FF0010332466946B8F1000F50
:101D900003A802D017F056F801E017F068F8C9E977
:101DA0000001C9F808200AB0BDE8F0875CC0010056
:101DB00010B50446AFF300802046BDE81040FEF7A2
:101DC000C3BA70B505460C460A2000E06D1C15F03C
:101DD000CFFD35B128780028F8D102E0641C15F059
:101DE000C7FD14B120780028F8D1BDE870400A2062
:101DF00015F0BEBD10B5012805D0002103A0FFF7E6
:101E0000E0FF012010BD09A1F8E700005349475247
:101E1000544D454D3A204F7574206F6620686561BA
:101E200070206D656D6F7279000000003A20486582
:101E30006170206D656D6F727920636F727275705D
:101E4000746564000000000030B44FF0013C50F8AD
:101E5000042B51F8043BCCFA52F4D51A20D1FCB92A
:101E600050F8042B51F8043BCCFA52F4D51A17D190
:101E7000B4B950F8042B51F8043BCCFA52F4D51AFB
:101E80000ED16CB950F8042B51F8043BCCFA52F443
:101E9000D51A05D1002CDAD030BC4FF000007047C5
:101EA00029BAB1FA81F111F01801D1F12000844072
:101EB000F2D1CA40CB4012F0FF0213F0FF0330BC56
:101EC000D01A704770B5064C7C44064D7D4404E042
:101ED0002046016808448047241DAC42F8D170BDFB
:101EE000BCC80100C8C8010080B540F62060C2F23D
:101EF000000000F0C8FC40F6B860C2F2000000F03C
:101F0000C2FC80BD70B5044600688268836802F038
:101F1000040203F00803D21852D0C268920114D50B
:101F2000627F012A11D1227F012A0ED10168490660
:101F300007D40121CAF24031013943D00268520668
:101F4000FAD540210160012104E0022902D10221D9
:101F5000082611E0826852070AD58268920707D4E2
:101F600082684FF6C073C7F6FF731A401032826062
:101F700001294FF0040610D0826812070AD5826842
:101F8000920707D482684FF6C073C7F6FF731A40F2
:101F900020328260032908BF0C2602F0A3FD2168CD
:101FA000896831420CD0054602F09CFD411B206837
:101FB000062902D38168314204D180683042F3D1CE
:101FC000002070BDE06D40F01000E065206E40F034
:101FD00001002066012070BD0146806AC36DC26D9C
:101FE00013F0500F06D0D2060FD4406D00F134022A
:101FF000084620E042F40071C16501680B68CA68B8
:102000001B0705D4910709D513E000F1780212E00F
:1020100012F4406F0DD1C96889040AD4C16D21F44E
:102020008071C165C16DC90403D4C16D41F0010166
:10203000C16500F16C0211680847806AC16D826F4A
:1020400041F04001C165016E41F004010166104795
:10205000806A016F08470000B0B5016804468A68CD
:102060008868C0074FF0000031D012F0020218BF9C
:10207000B0BD886800F00D0001281FD188684FF6B8
:10208000C072C7F6FF7210400230886003200860FB
:1020900002F028FD21688968C9070DD0054600BFF8
:1020A00002F020FD411B2068032902D38168C90783
:1020B00004D18068C007F3D10020B0BDE06D40F0CE
:1020C0001000E065206E40F0010020660120B0BDE8
:1020D00070B5044600688168C90733D14FF6C076F1
:1020E000C7F6FF76816806F17F02114209D0E06DE4
:1020F00040F01000E065206E40F0010020660120F5
:1021000070BD8168314041F00101816002F0EAFC5C
:1021100021680A68D20715D1054600BF8868C00744
:1021200004D18868304040F00100886002F0DAFC99
:10213000401B2168032802D30868C007D7D008686D
:10214000C007EBD0002070BD80B540F69C70C2F295
:10215000000001F0A0F980BD80B540F6FC70C2F22D
:10216000000001F098F980BD70B5D0E913C4D0F833
:1021700054E0CCF80440BEF1000F1CBFD0E916C4F7
:10218000CCF80440D0E9106E0468D0F808C00EF016
:102190001F00012505FA00F0706008466360BCF17D
:1021A000100F04BF10460A46A060E26070BD000038
:1021B00080B54FF4004002F0A4FB80BD80B58020C4
:1021C00002F09FFB80BD704780B541F25C00C2F217
:1021D000000001F0BDFC80BD80B541F25C00C2F2A0
:1021E000000001F0B5FC80BD40F23430C2F20000C6
:1021F000027F02F0FD01012942F20001C4F2020156
:102200000FD10B6823F400730B600B6843F4006379
:102210000B600B6823F400630B600B6843F40073DE
:102220000B6002F0FE02022A0BD10A6842F48052CF
:102230000A600A6822F480520A600A6842F48062E6
:102240000A6000210177704742F21401C4F20201D2
:10225000CA68520202D448F2040009E0C20703D05F
:102260000A6842F004020A60800704D54FF4004077
:102270000A6810430860086840F4803008607047BE
:1022800042F21402C4F20202D3685B0203D4116862
:1022900021F4006106E0C90713680CBF43F4006134
:1022A00023F4006111601168C0B221F47E7141EA2B
:1022B000C0001060106840F002001060106840F428
:1022C000803010607047000070B542F2100604467E
:1022D000C4F2020602F006FC054600BF3068C003E7
:1022E00006D502F0FFFB401BA042F7D9032070BDCA
:1022F00030684CF2FA31014008D040F23430C2F27A
:10230000000042680A434260012006E03068C007CE
:102310004FF0000008BF70BD0121316070BD0000AA
:10232000B0B5044602F0DEFB216805460A6942F4B6
:102330008030086120680069C0030BD502F0D2FB31
:10234000401BB0F5FA7FF5D9606B40F08000606308
:102350000120B0BD00206063B0BD0000B0B582B008
:1023600004460020019094F85800012801D1022071
:102370003BE0012084F8580020460D46FFF76CFE34
:10238000E16D10B141F010012BE041F202129143D6
:102390000231E16521684FF6C0738A68C3F6FF73A6
:1023A0001A4005F080431A4402F100428A604DF65B
:1023B0000262C0F2040200BF8B68B3F1FF3F0CDC85
:1023C000019B01330193019B9342F5D3E06D40F0F3
:1023D000100020F00201012003E0E16D012262F310
:1023E0000101E165002184F8581002B0B0BD7047CA
:1023F000704770477047704770B582B090F85820AA
:10240000012A01D1022182E0002201920092026899
:1024100040F2080CC5F2000CB2F1A04F0CF1F80527
:1024200008D040F20043C5F200039A4231D10CF5C6
:102430009F6300E02B469B68946823435B0728D486
:102440004FF4E063D1F800E0AA4208BF4FF44073B4
:10245000B2F1A04F08BF4FF440735CF80340BEF1E7
:10246000000F24F460441AD04D6890F8386042F4AC
:10247000807245EA46352C4340F20015C5F200054E
:10248000AA424CF8034019D1DCF80020DCF80041E6
:102490001BE0C16D41F02001C165012134E042F42F
:1024A000807140F20012C5F2000291424CF80340E4
:1024B00018D1DCF80010DCF800211AE0DCF8004448
:1024C000DCF80055DCF800262C432243D2071AD151
:1024D0005CF8032040F61F748968A243114341EA67
:1024E0000E010EE0DCF80024DCF80065DCF80016D4
:1024F00032431143C90706D15CF8031040F61F723E
:1025000091434CF803100021002280F8582008461F
:1025100002B070BDF0B581B00022009290F8582052
:10252000012A01D10221A8E10123076880F858306F
:10253000BB685B0735D4D1E900631F22C3F30125D3
:1025400007EB85052C6B03F01F039A40C6F38466E6
:1025500024EA020206FA03F31A432A63BA68BB6844
:1025600002F0040203F00803D21840F0BB800A68AE
:10257000042607F1140306EAD25CC2F340668D68B4
:1025800053F82660C2F304540722A240B5F1004F6D
:1025900026EA02060BD143F80C601A6842F00043A9
:1025A0000DE0C16D41F02001C165012162E105FA34
:1025B00004F2324343F80C201A6822F000437B6196
:1025C000D1E90436FD68042B5FD13A6E3A6E0B6890
:1025D000C2F3846293FAA3F6C3F3846C6FF3DF4310
:1025E000B6FA86F5002B2C464FF6FF7E08BF6446F0
:1025F000A242C0F2070E0CD13A6E22F000423A66B7
:102600000A6802EA0E03C2F3846C92FAA2F2B2FAEA
:1026100082F57A6E7A6E002BC2F384622C4608BF74
:102620006446A2420CD17A6E22F000427A660A68B1
:1026300002EA0E03C2F3846C92FAA2F2B2FA82F5B5
:10264000BA6EBA6E002BC2F384622C4608BF644691
:10265000A2420CD1BA6E22F00042BA660A6802EABF
:102660000E03C2F3846C92FAA2F2B2FA82F5FA6E09
:10267000FA6E002BC2F3846208BF6546AA4231D1CC
:10268000FA6E22F00042FA662CE0062202EA950277
:1026900006FA02FC0E6807F1600555F823404FF278
:1026A0000002C0F2FF3206F0F846224046EA0C066D
:1026B000324342F0004245F823200A698B6955F8FD
:1026C000226026F08076334345F822300A690B7F7A
:1026D00055F82260012B26F0007608BF06F100763F
:1026E00045F82260BA68D2074BD10E68CA68002547
:1026F0003346C4F27F05AA426FF3DF4318D1D7F8FF
:10270000B02042EA0302C7F8B020BBB196FAA6F2A5
:10271000B2FA82F2013202F01E03092B02F01F030B
:1027200015D801229A4003EB430342EA03531AE00F
:10273000D7F8B0209A43C7F8B02022E0012202EB7C
:10274000966202F01E030A2B02F01F03E9D3012256
:1027500000269A4003EB4303CFF6206606EB0353B3
:102760001A4342F00073C3F3406607EB86068A689B
:102770007569C3F3045307249C40A5439A402A4338
:1027800072610D680021C8F208010D4271D040F25B
:10279000001EC5F2000E0EF500731C46774518BFEB
:1027A0000EF5C0642146B7F1A04F08BF19468E68E8
:1027B0000022CCF22132954206F0E07C04D01022B7
:1027C000C9F2C00295422BD1320252D440F20062CB
:1027D000C5F20002974202D0B7F1A04F49D18A68F2
:1027E00022F0E07242EA0C0242F400028A6040F2F7
:1027F0007C11C2F20001096842F663528909C0F2F5
:102800003E52A1FB0212910901EB41010C2202EBA5
:10281000810100BF0091009959B300990139F9E78E
:102820000022CCF25272954208BF16F0807218D086
:102830000021CCF684318D424FF0000108BF16F420
:10284000800217D1B7F1A04F02D0774511D02346AF
:10285000996821F0E07141EA0C0141F4800199602E
:1028600007E08A6822F0E07242EA0C0242F08072CD
:102870008A600021002280F85820084601B0F0BD8F
:102880007047704770472DE9F04F81B004460168EA
:1028900040F20830C5F2000000F58068A0F502792A
:1028A00040460E684D68494504BF40F20830C5F205
:1028B0000000B1F1A04F04BF40F20830C5F20000A3
:1028C0000068B20700F01F0A10D515F002000DD005
:1028D000E06DC00603D4E06D40F40060E065D4F81C
:1028E0008C102046884721680220086040F2001BB7
:1028F0007007C5F2000B02D515F0040004D13007B3
:1029000055D515F0080052D0204650F85C2FD2065D
:1029100003D4026842F400720260CA6812F4406F85
:102920003FD159450CD040F20052C5F2000291420D
:102930000A4617D140F20832C5F20002F83201E02F
:102940004FF0A0428A420A460CD0BAF1090F00F2B9
:102950002181012202FA0AF240F221231A420A4698
:1029600000F01881D26892041BD40A68120718D5A7
:102970008A6852070BD44A6822F00C024A60016848
:1029800021F4807101600168C90406D509E0E06D99
:1029900040F01000E06504F16000016841F00101C1
:1029A0000160E16E2046884721680C200860B0066F
:1029B00002D515F0200004D1700638D515F040007E
:1029C00035D0204650F85C2FD20603D4026842F47A
:1029D00000520260CB6CCA68594503F4C0730CD036
:1029E00040F20057C5F20007B9420F4616D140F237
:1029F0000837C5F20007F83701E04FF0A0478F42D3
:102A00000F460BD0BAF1070F00F2A980012707FA91
:102A10000AF717F0C10F0F4600F0A180FF68002BE6
:102A200078D0E16F20468847216860200860300632
:102A30000CD515F0800009D0E06D616F40F4803056
:102A4000E06520468847216880200860F0050ED5A3
:102A500015F480700BD0E06DD4F8841040F4003091
:102A6000E0652046884721684FF480700860B00513
:102A70000ED515F400700BD0E06DD4F8881040F43A
:102A80008020E0652046884721684FF40070086088
:102A9000F00625D515F0100022D0E06B90B1BAF108
:102AA000000F58D040F208304945C5F2000008BF79
:102AB0008046B1F1A04F08BF8046D8F8000010F45E
:102AC000604F0BD0E06DA16F40F48060E065206E38
:102AD00040F00200206620468847216810200860E8
:102AE000700514D515F4806011D0E06DD4F8802005
:102AF00040F48040E065206E4FF4806340F00800B1
:102B0000206620460B6001B0BDE8F04F104701B0D1
:102B1000BDE8F08FBB0106D502F4406207F4005314
:102B2000D2187FF47EAF0A6852067FF57AAF17F4A9
:102B300000127FF476AF8A68120720D44A6822F028
:102B400060024A60016821F4805101600168C90592
:102B50003FF567AF19E0C868C007B3D1BEE7594574
:102B600028D040F20057C5F20007B9420F467FF463
:102B700055AF40F20837C5F20007F8374EE7E06D71
:102B800040F01000E06504F16000016841F00101CF
:102B9000016046E7594510D040F20052C5F20002EC
:102BA00091420A467FF4DEAE40F20832C5F20002DE
:102BB000F832D7E64FF0A04730E74FF0A042D1E619
:102BC00070B582B004460020002C01907DD0E06DED
:102BD00000283ED142F6830142F68100C0F6000192
:102BE000C0F600002167D4F8901042F6556242F614
:102BF000850342F2F13C42F2F33E42F2F53542F2F5
:102C0000F736E06642F2EF30C0F60002C0F600038D
:102C1000C0F6000CC0F6000EC0F60005C0F60006B7
:102C2000C0F600006267A367C4F87CC0C4F880E007
:102C3000C4E92156C4F88C0029B942F65761C0F6A0
:102C40000001C4F89010204688470020206684F8D0
:102C5000580021688868800006D588684FF6C072E1
:102C6000C5F6FF72104088608868C00020D44FF617
:102C7000C0728868C5F6FF7202F18052104000F100
:102C80008050886040F27C10C2F20000006842F67A
:102C900063528009C0F23E52A0FB02029009022258
:102CA00002EB40000190019810B101980138F9E75A
:102CB0008868C0000BD4E06D40F01000E065206E25
:102CC00040F001002066012002E00120C0E0002069
:102CD0008A68E36D02F0040203F01003D218E26D7B
:102CE00017D122F481720232E2658A68D20733D1A9
:102CF00040F2001341F48072C5F2000340F2080C68
:102D00009A42C5F2000C08D1DCF80030DCF8002152
:102D10000AE042F01001012099E0DCF80024DCF820
:102D20000065DCF8003632431A43D20714D10CF1A7
:102D3000F8024FF4E0666368914208BF4FF44076B2
:102D4000B1F1A04F08BF4FF440765CF8062022F4A2
:102D50007C121A434CF80620627FE36B43EA42324E
:102D6000D4E902631A4394F824303243012B42EA37
:102D7000034206D1A36A0026CFF6FE7606EB434354
:102D80001A43E36A23B1266B03F4787333431A437F
:102D9000CB6844F20706CFF6F07633401A43CA6098
:102DA0000A69636B22F040621A430A618A688B6881
:102DB00002F0040203F00803D2183AD194F8382044
:102DC000237F520042EA8332CB6844F20206B343C7
:102DD0001A43CA6022690B694AB143F480330B611C
:102DE000D1F8C03043F6FF76B3431A4307E023F42B
:102DF00080320A61D1F8C02043F6FF739A43C1F8CC
:102E0000C02094F840300A69012B0FD140F2FD73C5
:102E100022EA030CD4E91136D4E9135243EA0C0335
:102E200033432B431A4342F0010201E022F0010236
:102E30000A6162690B6B012A23F00F0202D1236A37
:102E4000013B1A430A63E16D012262F30101E1656E
:102E500002B070BD7047F0B59BB0044616A81421AF
:102E6000FDF7B5FD01A85421FDF7B1FD206840F242
:102E70000011C5F20001884268D0B0F1A04F40F0C7
:102E8000DC804FF4004001904FF00050129001A8F8
:102E900002F044FA08B1FFF796F940F20C51C2F281
:102EA00000010A6841F24C00C4F20200531C0B609E
:102EB00042B9016841F400510160016801F4005118
:102EC00000910099016816AD41F0010101600168AF
:102ED000032701F00101009100990168002641F0EB
:102EE000020101600068294600F00200009000988D
:102EF0000D2016904FF090401797189601F00CFD9A
:102F000040F60200CDE9160740F20040C4F600008A
:102F10002946189601F000FD40F69C750820C2F283
:102F20000005C4F20200052180224FF4807385E879
:102F3000430005F114004FF480674FF0200CC5E901
:102F4000036280E888104FF4005065E04FF40040C1
:102F500001904FF00050129001A802F0DFF908B183
:102F6000FFF731F940F20C51C2F200010A6841F258
:102F70004C00C4F20200531C0B6042B9016841F4DA
:102F800000510160016801F400510091009901684D
:102F900016AD41F0010101600168032701F0010154
:102FA000009100990168002641F004010160006869
:102FB000294600F0040000900098C02016904FF0C1
:102FC00090401797189601F0A7FC1020CDE916073E
:102FD00040F20040C4F6000000F5806029461896D3
:102FE00001F09AFC0820C4F2020040F6FC7514308F
:102FF000C2F2000524214FF4807385E8430005F1F7
:10300000140080224FF480674FF0200C80E8881075
:103010004FF44050C5E903622862284600F088FA60
:1030200008B1FFF7D0F81220052100226565AC62D7
:1030300002F0BCF8122002F0A7F81BB0F0BD0000AF
:1030400022B1C36DDB0707D1C36D8BB1016E41F0B7
:1030500010010166012070470A29F7D8DFE801F066
:1030600006121416181A231D200C0F00C2661CE04D
:103070000A2904D00929E9D1C0F8902015E0C0F848
:10308000942012E0026710E042670EE082670CE0D5
:10309000C2670AE0C0F8802007E0C0F8882004E09A
:1030A000C0F88C2001E0C0F88420002070472DE992
:1030B000F041044640F200170068C5F200074FF4E3
:1030C000C163B84208BF4FF40273B0F1A04F08BF0C
:1030D0004FF40273DB5986689046720704D40E469B
:1030E00094F85810012902D10220BDE8F08107F5BB
:1030F000A06203F01F050121904284F8581018BF08
:10310000002D08D12046FEF7E3FF70B1002184F8BE
:103110005810BDE8F081052DF4D0092DF2D0002023
:1031200084F858000120BDE8F0812168E06D40F688
:103130000172904300F58070B942E06508D040F21A
:103140000050C5F20000814208D107F5407001E04F
:103150004FF0A040884218BF002D03D1E06D20F44D
:103160008010E065E06D41F6D973C0044FF00000B7
:1031700044BF206E20F006002066606D42F25107C9
:10318000C0F60003C0F6000742F23B050022C0F67D
:103190000005C0E90B371C2345630B6084F85820F9
:1031A0004A68434642F010024A60CA6842F001028F
:1031B000CA604031324600F04EFA21684FF6C073C3
:1031C0008A68C7F6FF731A4004328A60BDE8F0814E
:1031D000B0B5044690F85800012801D1022537E027
:1031E000012084F8580020460321FEF78BFE054697
:1031F00058BB2168606DCA6822F00102CA6090F86D
:103200002520022A11D100F0D2F868B105462068C5
:10321000E16D41F04001E165416821F0100141603C
:103220002046FEF719FF10E02168486820F01000E2
:1032300048602046FEF710FF054630B9E06D41F2C8
:103240000111884301300025E065002084F8580012
:103250002846B0BDB0B598B1044690F8210028B911
:10326000002084F82000204600F00DF80025201DE5
:1032700014216562FDF7ABFB012084F8210000E01A
:1032800001252846B0BD81B041F24801C4F20201D7
:103290000068A1F58962904208D1086840F00800F2
:1032A0000860086800F008000090009801B07047BE
:1032B00080B54FF01F0E00BFBEF1000F08D0AEF179
:1032C000010E0EF01F0321FA03F3DB07F4D001E037
:1032D0004FF0FF3E4FEAF20CBCF1030F16D8DFE8C7
:1032E0000CF005020E12BEF10F0F0FD800684161FD
:1032F000816821F0180111438160002080BDBEF17A
:10330000070FF3D902E0BEF1060FEFD9012080BD0F
:1033100010B588B10446407F20B9002020772046B0
:1033200000F02EF802206077207938B1D4E902123B
:103330002046FFF7BDFF58B1012010BD206841F6BF
:10334000B751C0F2C1414161816821F0180181602B
:103350006079002814BF20694FF0FF302168D4E95C
:1033600005230861886820F0600010438860886841
:1033700020F080001843886001206077002010BD95
:1033800081B0006843F20001C4F2020188420CD10E
:1033900041F24800C4F20200016841F4805101602A
:1033A000006800F480500090009801B0704780B52C
:1033B000014690F82500022824D10868D1E910CEF2
:1033C0008A6C036823F00E030360136823F4807390
:1033D0001360026822F0010202600EF01F00012259
:1033E00002FA00F0CCF80400D1E913205060486DD7
:1033F00030B1026822F480720260D1E916024260A4
:10340000002002E00420C8630120012281F8252069
:10341000002281F8242080BD80B590F82510022973
:103420002CD10168D0E910CE826C0B6823F00E031A
:103430000B600B6823F001030B60116821F48071AD
:1034400011600EF01F02012101FA02F2CCF80420F3
:10345000D0E913325A60426D32B1136823F480739D
:103460001360D0E91623536080F82510826B002189
:1034700080F8241052B19047002107E00421C16375
:103480000121002280F8251080F82420084680BD04
:1034900090F825007047B0B5D0E910C30268DCF899
:1034A000001003F01F030424D2F800E09C400C42FB
:1034B00018BF1EF004051AD102249C400C4218BF0C
:1034C0001EF002051FD1D94009071BD51EF00801C7
:1034D00018D0116821F00E011160012101FA03F2E8
:1034E000CCF80420C16380F82510416B18E0116806
:1034F000890603D4116821F004011160CCF804405E
:10350000016B91B9B0BD1168890606D4116821F02C
:103510000A011160012180F82510CCF80440C16A2D
:103520000022002980F82420ECD0BDE8B0400847F4
:1035300000284FF0010100F08C802DE9F04740F2A7
:10354000000CC4F2020C03684FF6F8320CF5816EE1
:10355000CBF6FD72734538BF02F580624CF6CD4460
:103560001A44CCF6CC44A2FB042803F0FC02A2F1DE
:103570000802A2FB04290CF580656FF00304D0E972
:103580000262D0F810A03CBF0025C4F2020504EA94
:103590009804C0E91054022580F825501D6847F6AC
:1035A000F07725EA07073A43476942EA0A02856944
:1035B0003A43C7692A43056A3A432A4332431A60A9
:1035C0000CF50262734538BF0CF50062A3180CF5C8
:1035D0000862C264C9F3041240F6840C01FA02F2D4
:1035E000B6F5804FC4F2020C8364026505D1002158
:1035F00041601960CCF800201CE041685FFA81FE50
:10360000013903294FF00001C3F800E0CCF8002095
:1036100010D8AEF101020CEB820747F87C1F02F0D4
:103620001F01012202FA01F30CF1BC023946CCF869
:10363000C03001E00022002300F1540C8CE80E00A1
:1036400000210122C16380F8252080F82410BDE804
:10365000F0470846704710B5044690F8240001284A
:1036600020D0012084F8240094F82500012816D1E8
:10367000022084F825000020E063D4F800C0DCF8C4
:10368000000020F00100CCF800002046FEF76CFDA1
:103690002068226B01683AB141F00E010AE0002077
:1036A00084F82400022010BD21F0040101600168AB
:1036B00041F00A010160A16C0A68D20303D50A68CF
:1036C00042F480720A60616D19B10A6842F4807236
:1036D0000A60016841F001010160002010BD000096
:1036E00070B540F25836C2F2000671680446884749
:1036F000054618B915F060F8054600BF70688047A8
:1037000008B915F059F8401BA04228BF70BDF5E775
:1037100010B590F85C30013B012B6FD8006811F0B8
:10372000070ED0F858C00CF0010300D01BB311F005
:10373000380F02D01CF002041DD011F4E07F02D03B
:103740001CF0040417D011F4F05F02D01CF0080440
:1037500011D011F4604F02D01CF010040BD011F402
:10376000403F02D01CF0200405D011F47C0F06D09D
:103770001CF0400403D1C46D44F00104C465BEF1E3
:10378000000F18BF002B23D111F0380F18BF1CF009
:1037900002031DD111F4E07F18BF1CF0040317D100
:1037A00011F4F05F18BF1CF0080311D111F4604F41
:1037B00018BF1CF010030BD111F4403F18BF1CF0D0
:1037C000200305D111F47C0F18BF1CF0400303D077
:1037D000C36D43F00203C3650B0604D5D0F8DC309B
:1037E0001343C0F8DC30CB0504D5D0F8E0301A43E1
:1037F000C0F8E02000F15402002003E000F1600274
:103800000120022113681943116010BD2DE9F04118
:1038100090F85C30022B15D10668D6F8C4309B02B4
:1038200014D4D6F8C430D1E90075D1F808E00C6999
:10383000C3F3014C8DB144EA070343EA0E0343F09E
:10384000804E0EE0016E41F0080102E0016E41F48D
:10385000007101660120BDE8F08144EA87434EEA29
:10386000030ED1E90757D1E9058445EA0765CB681E
:103870002C43456D44EA08040CEBCC071C4305EBD4
:10388000C70345F837E05C60CF68B7F5803F0CD3DD
:103890004EF2483508330024C0F6010517591F5170
:1038A000CF890434EF5DBC42F8D3012101FA0CF159
:1038B000C6F8CC1081650020BDE8F08180B590F895
:1038C0005C20013A012A13D80A68BAB101F1040E4A
:1038D000D1E904319EE80450406C43EA4E7E41EA4F
:1038E0008C7100EBC20340F832E00020596080BDCB
:1038F000016E41F002010166012080BDD1E9032380
:10390000D1E901CED206496942EA8E7242EA034207
:10391000006C114340F82C10002080BD80B590F859
:103920005CC0BCF1010F13D100689200D0F880C0D8
:10393000DDF808E042EA011141EA43012CF03F0CB6
:1039400041EA0E0141EA0C01C0F88010002080BD60
:10395000016E41F004010166012080BDB0B590F810
:103960005C20013A012A43D800680B06426D22EA26
:103970000102426544BF0022C0F8DC20C90544BFF3
:103980000021C0F8E010426D816D12F0070401F0D3
:10399000010302F0380E31D083BB01F0020CBEF1FE
:1039A000000F18BFBCF1000F56D112F4E07F18BF12
:1039B00011F0040350D112F4F05F18BF11F00803A6
:1039C0004AD112F4604F18BF11F0100344D112F421
:1039D000403F18BF11F020033ED112F47C0F18BFF6
:1039E00011F0400138D1C16D21F00201C16533E011
:1039F000016E41F0020101660120B0BDBEF1000F71
:103A000001F0020C02D0BCF1000F21D012F4E07FD3
:103A100002D011F004051BD012F4F05F02D011F0B7
:103A2000080515D012F4604F02D011F010050FD028
:103A300012F4403F02D011F0200509D012F47C0F9F
:103A400002D011F0400503D0C56D25F00105C56514
:103A5000002CA4D0002BA2D00020B0BD704770472E
:103A600070B590F85C50022D0AD1D0F800C0402902
:103A70000AD15CF8905F2D0763D000F1480509E09A
:103A8000016E41F008015FE05CF8985F2D0758D0A7
:103A900000F14C05DCF80040D5F800E0C4F3012C3F
:103AA0000CEBCC045EF8345015F0804555605EF8A0
:103AB000345025F0604608BFC5F38A4616605EF8AC
:103AC000345005F0005595605EF834500EEBC40E8E
:103AD00005F000441461BEF80440D461DEF80440EF
:103AE00014F47024D460DEF8044004F480145461AB
:103AF000DEF8044004F4001494619EF8074004F0DA
:103B00007F041462DEF804404FEAD47454620FD08C
:103B10004EF248350EF1080E0024C0F6010500BF34
:103B20001EF804601E55D6890134AE5DB442F7D349
:103B3000006840290CBFC0F894C0C0F89CC00020A9
:103B400070BD016E41F480710166012070BD704747
:103B50002DE9F04F83B004460068016D426D056D9C
:103B6000D0F85480D0F850A0476D036D01EA0209E7
:103B70000293436D0193036D0093D0F854B0036D2D
:103B80005B0644BF416D5FEA41616CD4016D05EA9B
:103B90000806C90509F4E05544BF416D5FEAC1510B
:103BA00068D407EA0A0706F007062DB12068626E9E
:103BB000056520462946904707F038052EB1206854
:103BC000A26E06652046314690472DB12068E26E10
:103BD00005652046294690472068016D890544BF48
:103BE000416D5FEA815151D4016D090644BF416DB9
:103BF0005FEA016152D4016D890444BF416D5FEAFF
:103C0000814157D4016D0904009901EA0B0544BFB5
:103C1000416D5FEA014156D4016DDDE9013249048D
:103C200002EA030205F4602144BF436D5FEA4343A7
:103C300052D402F4710521B10165D4F88C202046DC
:103C4000904725B120680565206E28432066206EC8
:103C500030B1D4F88810204603B0BDE8F04F0847D3
:103C600003B0BDE8F08F40210165E16F2046884731
:103C700020688BE74FF48073D0F8D810D0F8E0209C
:103C80000365A36F1140204698478AE74FF40071FF
:103C90000165216F204688472068A5E78023D0F87A
:103CA000D410D0F8DC200365636F1140204698479C
:103CB0002068A0E74FF400510165D4F88010204639
:103CC000884720689EE74FF400410165D4F88410CE
:103CD0002046884720689FE74FF480430365236EA2
:103CE00043F080032366A4E770B5002862D0044641
:103CF00090F85C0000284AD1002044F27D0184F84D
:103D00005D0044F2B500C0F6000144F27F0244F2C7
:103D1000B703C0F60000C0F60002C0F60003A166BB
:103D2000D4F8901044F2B30544F2B10C43F64F3E80
:103D300044F2AF066066E266236744F2AD0043F6E4
:103D40005D2243F65F23C0F60005C0F6000CC0F606
:103D5000000EC0F60006C0F60000C0F60002C0F675
:103D600000036567C4F878C0C4F87CE0C4F88060DC
:103D7000C4F88400C4F88820C4F88C3029B943F60C
:103D80005B71C0F60001C4F8901020468847206897
:103D9000816921F01001816100F0A4FE054600BF99
:103DA00020688169090707D500F09CFE401B0B289D
:103DB000F6D312E0012070BD816941F001018161FB
:103DC00000F090FE054600BF20688169C9070BD14D
:103DD00000F088FE401B0B28F6D3206E032140F034
:103DE000010020660120B5E0826946F2004CC4F271
:103DF000000C42F002026045826102D16268CCF898
:103E00000021227C8369012A23F0400318BF40333C
:103E10008361627C8369012A23F4804308BF03F530
:103E200080438361A27C8369012A23F4805318BFF5
:103E300003F580538361826922F44076D4E902233A
:103E400016438661866926F0A4068661066926F017
:103E5000100606619BB1012B0DD0022B09D086699B
:103E6000032B46F080068661066946F0100606615F
:103E700005D1202300E00423866933438361D4E91C
:103E80000563D4E907516FF0FF0E013B0EEB0525EA
:103E900045EA436300250139CFF6FF75194305EB69
:103EA00006431943B2F5407FC1610FD104F12406E6
:103EB0004ECE013A0EEB03231A436FF00F0303EBD0
:103EC00006131A4305EB01411143C160D4E90D13F8
:103ED000E26BD0F8C0603243C0F8C0200CF58066B9
:103EE0000CF58042B04204BF4AF25072C4F20002A4
:103EF0000CF50066B04208BF02F5D4622264D0F827
:103F0000806026F4F81646EA0141C0F8801002F1FC
:103F100070016164D0F8801021F0706141EA0361A2
:103F2000C0F8801002F1B000A06402F5C470E06433
:103F300002F51870206502F51E70606502F5547078
:103F4000002100BF42F8041B8242FBD30020012164
:103F5000A065206684F85C1070BD10B59AB0044668
:103F6000684604305021FCF732FD206846F6000117
:103F7000C4F20001884243D14FF4805000904FF0CA
:103F800080700E90684601F0C9F908B1FEF71BF980
:103F900041F24C00C4F20200C16841F00071C160FE
:103FA000C16801F0007115911599016841F0020195
:103FB0000160006815A900F00200159015984FF4F3
:103FC0004050159002201690002017900320189062
:103FD0000920199040F20040C4F6000000F09CFC5B
:103FE00056200021002201F0E1F8562001F0CCF823
:103FF00057200021002201F0D9F8572001F0C4F821
:104000001AB010BD82B190F85C30012B09D106299D
:104010000AD8DFE801F004191B1E211316000267FD
:104020001CE090F85C302BB1016E41F480710166A8
:1040300001207047062904D00529F5D1C0F8902049
:104040000CE0C0F8942009E0C26707E0C0F88020C7
:1040500004E0C0F8842001E0C0F888200020704708
:1040600031B190F85C20012A02BF816600207047C0
:10407000016E41F4807101660120704770477047FE
:1040800090F85C1001290AD1022180F85C100168C7
:104090008A6922F001028A610021016604E0016E52
:1040A00041F00401016601210846704770477047DE
:1040B00070477047704770472DE9F04740F2343938
:1040C000C2F2000999F80020012A01D102265EE01F
:1040D0000546012089F800004FF47A708846FEF703
:1040E000F3F8064600284FD142F200040020C4F243
:1040F0000204C9F8040020682168490502D4C0F30D
:10410000402009E0216810F400704FF0030021F412
:10411000806108BF0220216089F81C0028680128FE
:104120000DD16868FEF790F84FF47A70FEF7CCF87E
:104130000646606948F204018843606122E04FF05E
:10414000FF30C8F80000D5E902703844874215D224
:1041500040F2FA3A69683846FEF792F84FF47A70FE
:10416000FEF7B2F86169064621EA0A0060613EB9CD
:10417000D5E90201013708448742EBD3002601E06C
:10418000C8F80070FEF730F8002089F800003046CB
:10419000BDE8F08770B5416842F2200CC4F2020C11
:1041A00004294FF006021DD803291BD00722042939
:1041B000026017D80CF10C03DFE801F00B030614C2
:1041C00009000CF1100304E00CF12C0301E00CF1E8
:1041D00030031968072201F07F0181601968C1F37B
:1041E0000641C160DCF80010C9B20B46AA2918BF0D
:1041F000BB23CC2908BF0B460361DCF80010C36960
:1042000021F0FF015D1E012D816171D8083200216E
:104210000260C4F20101096847F2E056C1F6FF7678
:10422000C905348840F20001C0F604014FF6FF755D
:1042300009D4AC424FF0006E10D034684FF00061EA
:1042400064F358210AE0AC4205D031684FF0006EAB
:1042500061F3582E00E08E464FF00061DCF800401C
:1042600064020DD4022B1FD0012B3BD1DCF80410CB
:104270004FF0006661F312160662DCF808601CE07D
:10428000022B1FD0012B2DD1DCF804104FF6F8744F
:10429000C0F2030404EAC10171440162DCF80810B1
:1042A00004EAC10171441CE0DCF824104FF0006600
:1042B00061F312160662DCF828604FF0006166F3C5
:1042C00012110EE0DCF824604FF6F875C0F2030519
:1042D00005EAC6060E440662DCF8286005EAC60652
:1042E00031444162DCF8081001F000411943C1611A
:1042F00002F110010160DCF85030C16A03F4803330
:104300004E1E012E83620ED830320129026005D084
:10431000022918BF70BD0CF1540101E00CF15001ED
:104320000968C9B2016370BD2DE9F04740F2343A23
:10433000C2F2000A9AF80010012901D10224D9E141
:104340000546012000248AF80000CAF804402868C5
:1043500042F21409C107C4F2020931D0D5E901685B
:10436000EF684FF47A70FDF7AFFF044620BB042ED0
:1043700017D8DFE806F003080D16120048EA0740D8
:10438000C9F818000DE048EA0740C9F81C0008E029
:1043900048EA0740C9F8380003E048EA0740C9F88E
:1043A0003C00D9F8000040F40030C9F800004FF498
:1043B0007A70FDF789FF04462868002C18BF012495
:1043C00081071AD52E694FF47A70FDF77DFF80B909
:1043D000D9F80C0020F0FF003043C9F80C00D9F8E0
:1043E000000040F40030C9F800004FF47A70FDF787
:1043F0006BFF002818BF01242868410740F1958011
:10440000D5E905674FF47A70FDF75EFF002840F0AC
:10441000888006F00600C10207EAC62066F308217C
:1044200007F4E06200F48050F30766F3492118BFF7
:10443000104407F40052730766F38A2148BF104402
:1044400016F4805207F4804318BF184441EA820CE6
:1044500016F0080207F4803318BF184316F0100353
:1044600007F4003118BF0843D11807F48022B306BF
:1044700048BF104307F40022730648BF104316F0EC
:10448000800207F480134CEA413C18BF184307F43C
:104490000003B10548BF1843730507F0807148BF9A
:1044A0000843330507F0007148BF0843B30407F021
:1044B000806148BF084373044FF4402307F0006154
:1044C00003EA463348BF084306F4606143EA4232D8
:1044D00042EA813106F4C04241EA423141EA0C012C
:1044E00016F4004207F040521CBF104341F0405107
:1044F00007F0804316F4803218BF1843D9F80C3007
:1045000041EA823123EA01010843C9F80C00D9F8D5
:10451000000040F40030C9F800004FF47A70FDF755
:10452000D3FE002818BF01242868010740F19980B4
:10453000D5E90867BE4200F09480D5F81C804FF49E
:104540007A70FDF7C1FE002840F087800020C4F299
:104550000100006847F2E052C1F6FF72C005118801
:1045600040F20000C0F604004FF6FF7309D49942F0
:104570004FF0006110D012684FF0006062F35820D5
:104580000AE0994205D010684FF0006160F35821AD
:1045900000E001464FF00060D9F80C20520208F00C
:1045A000030212D4022A23D0012A44D1D9F81010D0
:1045B00047F6FF7206F17840914341EA1010C9F8BE
:1045C000100007F1784000090FE0022A1FD0012AED
:1045D00031D1D9F8102047F6FF73701A9A4342EA96
:1045E000D000C9F81000781AC00809F114011CE0C5
:1045F000D9F8301047F6FF7206F17840914341EA4E
:104600001010C9F8300007F1784000090BE0D9F824
:10461000302047F6FF73311A9A43381A42EAD10123
:10462000C008C9F8301009F134010A6847F6FF7371
:104630009A4310430860D9F814004FEAD87161F327
:10464000DF70C9F81400D9F8000040F40030C9F850
:1046500000004FF47A70FDF737FE002818BF0124E0
:104660002868810627D5D5E90B764FF47A70FDF7D7
:104670002BFEE0B9022F09D0012F0ED1D9F85C0032
:1046800020F0FF003043C9F85C0006E0D9F8600074
:1046900020F0FF003043C9F86000D9F8000040F472
:1046A0000030C9F800004FF47A70FDF70DFE0028C5
:1046B00018BF01242868C00619D5AD6A4FF47A7076
:1046C000FDF702FE80B9D9F85C0020F48030284361
:1046D000C9F85C00D9F8000040F40030C9F80000C7
:1046E0004FF47A70FDF7F0FD002818BF0124002078
:1046F0008AF800002046BDE8F08740F23430C2F26C
:1047000000004068704742F21400C4F202000168E1
:1047100041F0004101600068C043C00F704742F2A1
:104720001400C4F20200016841F080410160006899
:10473000012121EA9070704742F20C00C4F202009D
:10474000816849005CBF0020704742F63B21C0F6FB
:104750001901016046F67F61C4F65D410160806821
:10476000C0F38070704700002DE9F04381B040F243
:104770003438C2F20008144698F80020012A01D10A
:10478000022052E00546012088F800004FF47A70BC
:104790001F460E46FDF798FD002843D142F214094A
:1047A000C4F202090020C8F804000DB3681E0228F4
:1047B00034D2D9F8000040F48020C9F80000EFF3AB
:1047C0001080EFF3108172B6402100BF54F8042B23
:1047D00001390B0646F8042BF8D180F310884FF40A
:1047E0007A70FDF771FD022D1CD16FF480210FE06E
:1047F000D9F8000040F00100C9F8000034604FF41F
:104800007A70BFF36F8F7760FDF75EFD6FF0010187
:10481000D9F800201140C9F8001003E04FF47A7075
:10482000FDF752FD002188F8001001B0BDE8F083CB
:1048300042F20800C4F20200C168B1F1FF3FC4BFF8
:104840000020704740F22311C4F26751016048F61E
:10485000AB11CCF6EF510160C068C00F704710B3C8
:1048600070B5044690F8310028B9002084F8300073
:10487000204600F022F80025202620466560E560ED
:10488000258284F83360C4E905552562A58384F840
:104890003260FDF745FD012807D1606BA02640F08E
:1048A0001001012003E00120704700210020616316
:1048B00084F8316084F8305070BD81B041F2480115
:1048C000C4F20201006801F56E72904208D10868D6
:1048D00040F010000860086800F010000090009898
:1048E00001B0704780B584B0ADF80E00AFF3008022
:1048F000BDF80E10684606F039FD0CF03FFB04B021
:1049000080BD40F21441C4F201010A68024214BFA2
:1049100008607047FFF7E6BF2DE9F04F82B00D68E1
:10492000002D00F0C98041F2004400F13847C4F680
:10493000000406224FEAB726A04208BF0522052E32
:1049400038BF4FEAB722002401274FF0000E00269F
:10495000009200BF07FA06FB15EA0B0800F0A280E0
:10496000D1F804A003220AF0030CACF10105A24027
:10497000012D6FEA02090FD88268CD6802EA0902A8
:10498000A5402A4382604268CAF3001522EA0B025E
:10499000B5402A43426005E0BCF1030F02D14FF05D
:1049A000030C21E0C2688D6802EA0902A5402A438F
:1049B000BCF1020FC26017D16FF0030202EA560287
:1049C00002440EF01C030F25D2F820C005FA03FAAA
:1049D0000D692CEA0A0C05FA03F343EA0C0313628F
:1049E000D1F804A00AF0030C02680CFA04F302EAFE
:1049F00009021A431AF4403F026053D041F26003A7
:104A0000C4F202031A6840F2004942F001021A603F
:104A10001A68C4F2010902F001020192019A26F01B
:104A200003024FF6084A4A44CFF6FF7A52F80AC00A
:104A30000EF00C050F23009FAB402CEA030307FA8E
:104A400005F52B4342F80A30D9F808C04B684CEA08
:104A50000805DA0258BF2CEA080540F20C4CC9F8E8
:104A60000850C4F2010CDCF800209F0242EA08055D
:104A700058BF22EA0805CCF80050D9F804209D035D
:104A800042EA080758BF22EA0807C9F80470D9F8B3
:104A90000020DB0342EA080758BF22EA0807C9F8EA
:104AA000007001270D68013635FA06F20EF1040E8A
:104AB00004F102047FF44EAF02B0BDE8F08F00694C
:104AC000084018BF01207047426902EA0103914380
:104AD00041EA0341816170471823002A08BF282357
:104AE000C150704780B540F25830C2F200004068B3
:104AF000804700B180BDBDE8804013F05DBE90F8F6
:104B00004120202A03D190F84020012A01D102211E
:104B100018E0242280F841200268136823F0010382
:104B20001360136823F480531360136819431160F2
:104B3000116841F001011160202180F8411000212D
:104B400080F840100846704790F84120202A03D191
:104B500090F84020012A01D1022117E0242280F898
:104B600041200268136823F001031360136823F4E3
:104B7000706343EA01211160116841F00101116085
:104B8000202180F84110002180F84010084670472D
:104B900070477047D0F800C0DCF81830DCF800200F
:104BA000D90502F0800208D53AB1416C41F001010B
:104BB00041644FF48071CCF81C10590508D53AB106
:104BC000416C41F0080141644FF48061CCF81C1045
:104BD000990508D53AB1416C41F0020141644FF4A6
:104BE0000071CCF81C10416C11F00B0F08BF70471E
:104BF00002F0BDBD0268436B9169126803B11847AA
:104C00007047704700285DD070B5044690F84100A9
:104C100000283FD1002044F6396184F8400044F672
:104C20007960C0F6000145F24712C0F60000C0F6F8
:104C300000022165616F45F2451344F6356C45F27B
:104C4000690E45F2670544F60346E064626544F682
:104C5000913044F69332C0F60003C0F6000CC0F663
:104C6000000EC0F60005C0F60006C0F60000C0F653
:104C70000002A365C4F85CC0C4F860E0C4E919563A
:104C8000E066226721B945F26B01C0F60001616759
:104C900020468847242084F84100D4E90003D4E961
:104CA0000212066823F0706326F0010606600361B5
:104CB0008368012A23F40043836005D141F4004155
:104CC000816009E00120704741F40441022A8160BB
:104CD00004BF4FF400614160416804F1100641F0E7
:104CE000007141F400414160C16821F40041C1609C
:104CF0004ECE114341EA0321C160216A3143016074
:104D0000016841F00101016000202021606484F805
:104D10004110206384F8420070BD00002DE9F04F7F
:104D200083B004460020029094F84100202808D166
:104D300020688A468169090403D494F84010012947
:104D400003D1022003B0BDE8F08F012184F84010A8
:104D5000242184F84110002161640A21D14661F3C5
:104D60009F2948F208011D46904661F39F2A5F1C67
:104D7000E1680129494608BF51464160FFF7B2FE8C
:104D8000216806468A698B6902F0200203F010034D
:104D9000D2180FD137B1FFF7A5FEADB3801BA842E3
:104DA00032D8216888698A6900F0200002F0100278
:104DB0008018EFD0D1F818B02046202100222B46D1
:104DC000009603F0B1F95FEACB6129D548BB2068B2
:104DD0001021C1612021C161029941450ED1416874
:104DE000002241F480414160204620212B4600965C
:104DF00003F09AF9A8B920682021C1610299013114
:104E0000029102994145B3D3202084F84100606C9F
:104E100040F0200060640120002184F8401091E7F8
:104E200008B101208EE720682021C16184F841107B
:104E30000020F1E77047000080B586B00590AFF321
:104E40000080059902A805F03DFF0BF089FC8DF864
:104E500013009DF813001F2801D1FFE70AE09DF819
:104E600013000BF033FA8DF807009DF8070005F0EA
:104E70000DFFFFE706B080BD80B586B00590AFF3AB
:104E80000080059902A805F01DFF0BF069FC8DF864
:104E900013009DF813001F2801D1FFE731E09DF8B2
:104EA00013000BF013FA8DF807009DF8070000EBD4
:104EB000800040F6A031C2F2000101EBC0000830D2
:104EC0000CF092FB28B9FFE79DF8070005F0DEFE25
:104ED00017E09DF8070040F6A031C2F2000101EB97
:104EE0008000D0F8A400009000989DF8072002EB05
:104EF000820201EBC20359799A689B8900F003F89A
:104F0000FFE706B080BD2DE9F04381B0044690F87C
:104F10004100202808D10D4621688869000403D487
:104F200094F84000012804D10226304601B0BDE8C3
:104F3000F083012084F84000222084F841001020F2
:104F400084F8420000206064002047F66B48CFF6EA
:104F5000FF70C0F6000862626385E062C4F83480C6
:104F6000608DB0F5807F04D3FF2323854FF08079D7
:104F700004E0638D23857BB34FF00079E06BE8B1EB
:104F800047F24F6747F23D6CC0F60007C0F6000CD1
:104F900000262431C0E90B76C0E90DC6FEF75BFBA5
:104FA000A8B3202084F8410084F84260606C40F08F
:104FB0001000606484F840600126B6E7202084F881
:104FC0004100002084F84200616C012641F080011C
:104FD000616484F84000A8E747F6AD50C0F60000D1
:104FE0006063486849F60002CFF600426FF39F25E0
:104FF0001040284440F0007040F4105000264860F3
:1050000084F84060086840F0F20008608DE7208D69
:1050100022686FF39F25C1B245EA0141636B57686F
:1050200049F60005CFF6004541EA09012F40394312
:1050300041F410515160618D081A608584F8406018
:10504000106847F60371C0F6000140F090078B42EC
:1050500008BF3846434508BF38461060106840F422
:105060000040106061E7704770472DE9F0439BB046
:10507000044601A804305021FBF7A9FC206848F23F
:105080000041C4F20001884259D14FF40030019030
:1050900001A800F043F908B1FDF795F841F24C067C
:1050A000C4F20206306840F2004440F00400306070
:1050B0003068C4F6000400F00400169016983068BA
:1050C00016AD40F00200306030684FF0120800F07A
:1050D0000200169016984020169008204FF0010903
:1050E00003271A9004F580602946CDF85C80CDF83E
:1050F00060901997FFF710FC802016A981E8010342
:1051000020462946CDE91977FFF706FC30690021D2
:1051100040F0020030613069002200F0020000908F
:105120000098522000F042F8522000F02DF8532051
:105130000021002200F03AF8532000F025F81BB0BF
:10514000BDE8F0837047704780B542F20000C4F2BA
:105150000200016841F480710160032000F051F801
:105160000F2000F007F808B1012080BD00F00BF817
:10517000002080BD80B540F25830C2F200000068C7
:105180008047002080BD704700280ED4C1B200F0D7
:105190001F00012202FA00F04EF20012CEF20002CD
:1051A00042EAD10121F003010860704710B54EF6C4
:1051B0000C5CCEF2000CDCF80030C3F3022E8EF053
:1051C0000704042C28BF0424BEF103034FF0FF3E64
:1051D0000EFA04F438BF0023A14399400EFA03F3FA
:1051E0009A43114300F00F0200F160430901043AB1
:1051F00003F564436244002848BF02F10C031970B0
:1052000010BD4EF60C51CEF200010A684FF6FF03B6
:105210001A4060F30A2242F0806040F0FD7008609E
:1052200070470000B0F5007F34D000286AD147F203
:10523000000CC4F2000CDCF80010DCF8802001F453
:10524000C06122F48072B1F5806FCCF8802062D109
:10525000DCF80010012262F34A21CCF8001040F281
:105260007C11C2F200010968322359434DF6836371
:10527000C4F21B33A1FB031302EB9341002200BFD6
:10528000DCF81400013942F10003400533D5002B4E
:10529000F6D130E047F2000CC4F2000CDCF800104C
:1052A000DCF8802001F4C06142F48072B1F5806FB7
:1052B000CCF880202FD1DCF80010012262F34A21C3
:1052C000CCF8001040F27C11C2F2000109683223D0
:1052D00059434DF68363C4F21B33A1FB031302EB66
:1052E00093410022DCF81400013942F1000340052B
:1052F00001D5002BF6D1DCF81400400544BF032093
:10530000704708E047F20000C4F200000168022282
:1053100062F34A2101600020704700002DE9F0414E
:1053200082B00446807841F20C060007C4F20206FF
:1053300001D400204FE0F06C10F0805808D1F06CE0
:1053400040F08050F064F06C00F0805001900198C3
:1053500047F20007C4F20007386840F480703860F4
:10536000FFF7C0FB054600BF3868C00506D4FFF74D
:10537000B9FB401B0228F7D9032025E0D6F88400AA
:1053800010F4407017D0216D884211D0D6F88400F7
:10539000D6F8841020F4407041F48031C6F88410AF
:1053A000D6F8841021F48031C6F88410C6F8840041
:1053B000C00740F0E880D6F88400216D20F44070EA
:1053C0000843C6F884000020B8F1000F03D1F16C47
:1053D00021F08051F1642168CA0705D0F26F63683B
:1053E00022F003021A43F2678A0705D5F26FA36819
:1053F00022F00C021A43F2674A0705D5F26FE36800
:1054000022F030021A43F2670A0705D5F26F2369CA
:1054100022F0C0021A43F267CA0605D5F26F63692B
:1054200022F440721A43F2678A0605D5F26FA36927
:1054300022F440621A43F2674A0605D5F26FE36927
:1054400022F440521A43F2670A0605D5F26F236A26
:1054500022F440421A43F267CA0505D5F26F636A27
:1054600022F440321A43F2678A0307D5D6F8902017
:10547000A36A22F003021A43C6F890208A0505D5D4
:10548000F26FE36A22F440221A43F2674A050CD510
:10549000F26F236B22F440121A43B3F5801FF267B8
:1054A00003D1326842F4801232600A050CD5F26FE3
:1054B000636B22F440021A43B3F5800FF26703D105
:1054C000326842F480123260CA040CD5F26FA36BCA
:1054D00022F040721A43B3F1807FF26703D1326841
:1054E00042F4801232608A040CD5F26FE36B22F032
:1054F00040621A43B3F1006FF26703D1326842F49D
:10550000801232604A040CD5F26F236C22F04062A4
:105510001A43B3F1006FF26703D1326842F480128C
:1055200032600A040CD5F26F636C22F040521A43C9
:10553000B3F1805FF26703D1326842F480323260A7
:10554000CA030CD5F26FA36C22F040421A43B3F1A8
:10555000804FF26703D1326842F4803232604903EF
:105560000ED5D6F89010E26C21F440111143B2F53B
:10557000001FC6F8901003D1316841F480113160EA
:1055800002B0BDE8F081FFF7ADFA054641F2883779
:10559000D6F8840080073FF50EAFFFF7A3FA401B53
:1055A000B842F5D9E8E600002DE9F04700285CD0C4
:1055B00042F2000AC4F2020A0446DAF800000D467C
:1055C00000F00F0088420CD2DAF8000020F00F0043
:1055D0002843CAF80000DAF8000000F00F00A842E3
:1055E00043D1206841F20808C107C4F2020802D181
:1055F000810778D490E06168022932D0032937D13D
:1056000058F8081C890130D5D8F80410D8F80410CF
:1056100042F20042C1F30311D8F804300131C0F264
:10562000F402B2FBF1F1C3F30622D8F8043051437F
:10563000C3F34162022303EB4202B1FBF2F14BF2EE
:105640000042C0F2C442914208D9D8F8001011F0CB
:10565000F00F19D0800701D5A068A8B14FF000095C
:105660001BE058F8080C800306D40120BDE8F08741
:1056700058F8080C4005F8D500F0A1F84BF20041AD
:10568000C0F2C4418842E9D9D8F80000082161F38A
:1056900007104FF00109C8F80000D8F80000616851
:1056A00020F003000843C8F80000FFF71BFA064685
:1056B00041F28837D8F80000616800F00C00B0EBC8
:1056C000810F05D0FFF70EFA801BB842F2D940E0F7
:1056D0002068810707D4B9F1000F1DD0D8F8001059
:1056E00021F0F00116E0410705D5D8F8001041F48B
:1056F000E061C8F80010010706D5D8F800100722AD
:1057000062F30D21C8F80010D8F80010A26821F04B
:10571000F0011143C8F80010DAF8001001F00F0191
:10572000A9421AD9DAF8000020F00F002843CAF87D
:105730000000FFF7D7F9064641F28837DAF8000093
:1057400000F00F00A84207D0FFF7CCF9801BB84249
:10575000F4D90320BDE8F0872068410707D5D8F8C1
:105760000010E26821F4E0611143C8F8001000075E
:1057700008D5D8F80000216920F4605040EAC10043
:10578000C8F8000000F01BF8D8F800104DF684525D
:10579000C1F30311C0F60102515C40F27C1201F02A
:1057A0001F0120FA01F140F26030C2F200000068EF
:1057B000C2F200021160BDE8F047FFF7DBBC41F226
:1057C0000801C4F20201086800F00C00042842F24B
:1057D0000040C0F2F40008BF70470A6802F00C02F3
:1057E000082A19D00A6802F00C020C2A1CBF0020FB
:1057F00070474A684A684B68C2F303120132B0FB33
:10580000F2F04968C3F306225043C1F3416102221A
:1058100002EB4101B0FBF1F0704700002DE9F041CF
:1058200082B0002800F001810446007841F20006B1
:10583000C007C4F2020654D12078800772D42078C1
:10584000000700F195802078400700F1B3802078B0
:10585000800600F1FF80E069002840D0B16801F0C7
:105860000C010C2940F04C81012800F0DE80F0682A
:10587000216A00F003028A4240F0D780626A6FF02A
:105880000F0300F0F00103EB0212914240F0CD80D3
:10589000A16A00F4FE42B2EB012F40F0C680E16A3B
:1058A00000F07842B2EBC16F40F0BF80226B002362
:1058B000CFF6E07303EA025200F4C001A2F5001231
:1058C000914240F0B280616B4FF07E4202EA01618A
:1058D00000F0C06001F17E41884240F0A6800020C7
:1058E0005EE1B06800F00C01F068082959D003228D
:1058F00081F00C0122EA00000844B0FA80F040096F
:105900004FD16068B0F5803F07D0B0F5A02F40F0D0
:10591000CC80306840F480203060306840F48030C3
:105920003060CDE0B068F16800F00C00042866D06B
:1059300001F0030180F00C0081F002010844B0FA8C
:1059400080F040095BD1E1683068002900F0C68032
:1059500040F480703060FFF7C5F8054630684005B8
:1059600000F1E480FFF7BEF8401B0228F6D916E1EB
:105970006169D6F89400002900F0858040F00100AC
:10598000C6F89400FFF7AEF8054600BFD6F89400BD
:1059900080073FF558AFFFF7A5F8401B0228F5D95F
:1059A000FDE0306880037FF547AF606800287FF432
:1059B00043AF3AE0B06D10F0805808D1B06D40F0C0
:1059C0008050B065B06D00F080500190019847F2B2
:1059D0000007C4F200073868C00528D4386840F4CE
:1059E00080703860FFF77EF8054600BF3868C00554
:1059F0001DD4FFF777F8401B0228F7D9CFE03068B5
:105A0000400501D5E06880B17068216920F0FE4052
:105A100040EA0160706040F26030C2F2000000684D
:105A2000FFF7A8FB00283FF40AAF0120B8E0A06808
:105A3000012808D0052840F09680D6F8900040F064
:105A40000400C6F89000D6F8900040F00100C6F8B7
:105A5000900095E0A169D6F8980000296ED040F03A
:105A60000100C6F89800FFF73DF80546D6F8980003
:105A700080073FF5F0AEFFF735F8401B02284FF0E6
:105A80000300F3D98CE020F00100C6F89400FFF782
:105A900029F80546D6F8940080077FF5D4AEFFF7C5
:105AA00021F8401B0228F5D979E03168002821F45B
:105AB00080313160316821F48021316000F08E80C6
:105AC000FFF710F8054600BF306880033FF5B4AE1D
:105AD000FFF708F8401B6428F6D960E020F48070D6
