:020000040800F2
:10000000E8B40020690400087104000873040008C3
:100010007504000877040008790400080000000057
:10002000000000000000000000000000390300088C
:100030007D04000800000000F103000855040008DA
:100040008304000883040008830400088304000874
:100050008304000883040008830400088304000864
:100060008304000883040008830400085119000871
:100070006119000883040008830400088304000851
:100080008304000883040008F116000883040008B4
:10009000830400088304000883040008C5190008CD
:1000A000C17F0008F17F0008E17F0008D17F0008D0
:1000B0000180000811800008830400088304000800
:1000C00083040008830400088304000883040008F4
:1000D00083040008830400088304000883040008E4
:1000E000B919000883040008830400088304000889
:1000F00083040008830400088304000883040008C4
:1001000083040008830400088304000883040008B3
:1001100083040008830400088304000883040008A3
:100120008304000883040008830400088304000893
:100130008304000883040008830400088304000883
:100140008304000883040008830400088304000873
:100150008304000883040008830400088304000863
:100160008304000883040008830400088304000853
:100170008304000883040008830400088304000843
:100180008304000883040008DD690008CD690008C5
:100190008304000800000000D1190008E1190008DC
:1001A0008304000883040008830400088304000813
:1001B0008304000883040008830400088304000803
:1001C00083040008830400088304000883040008F3
:1001D000830400088304000800F002F800F068F8C7
:1001E0000AA090E8000C82448344AAF10107DA4592
:1001F00001D100F05DF8AFF2090EBAE80F0013F07C
:10020000010F18BFFB1A43F00103184720C4010077
:1002100040C401000A4410F8014B14F00F0508BF58
:1002200010F8015B240908BF10F8014B6D1E05D0C2
:1002300010F8013B6D1E01F8013BF9D1641E03D09B
:10024000641E01F8015BFBD19142E4D370470000CA
:100250000023002400250026103A28BF78C1FBD8CF
:10026000520728BF30C148BF0B60704766291BF09A
:100270009685782900F00482732900F0EE8700202B
:1002800070471FB51BF079FD9DE8030000F005FBEA
:1002900001F08FF80400002000211AF085FFE060D3
:1002A00001F014FA1FBD10B5002000F0DAFF10BDF8
:1002B00001F05AF81146FFF7E4FF16F017FA01F0C3
:1002C00075F903B4FFF7EFFF03BC00F0C3FA0000B9
:1002D00080F309887047EFF309807047684680F320
:1002E000098804480078C00714BF0220032080F367
:1002F0001488704770010020DFF818C0EFF3058301
:100300001B0618BF6047EFF31483DB0708BF604785
:1003100000DF7047A1930108DFF818C0EFF30583F1
:100320001B0618BF6047EFF31483DB0708BF604765
:1003300000DF704719940108EFF30980816911F813
:10034000021CE1BB90E80F1010B5E047BDE810407B
:10035000EFF3098C8CE80700214B93E806009142EB
:1003600008BF704741B91EF0100F16D11D4908682B
:1003700020F00100086010E01EF0100F06BF2CED09
:10038000108A0120002081F838002CE9F00FC1F814
:100390003CC00CB41AF00EFC0CBC1A60D2F83CC085
:1003A000BCE8F00F92F8380000280EBF6FF0020E84
:1003B0006FF0120EBCEC108A8CF30988704710B5F0
:1003C000094A1268914209D8084C54F8214090E833
:1003D0000F10A047EFF3098C8CE80F0010BD000050
:1003E000C800002034EF00E07C7301087C73010832
:1003F00010B51AF0D9FABDE81040154B93E8060085
:10040000914208BF7047EFF3098C1EF0100F06BF32
:100410002CED108A0120002081F838002CE9F00F23
:10042000C1F83CC00CB41AF0C5FB0CBC1A60D2F881
:100430003CC0BCE8F00F92F8380000280EBF6FF007
:10044000020E6FF0120EBCEC108A8CF30988704714
:10045000C800002010B51AF0D1FBCCE710B517F09A
:10046000CBFF1AF0CBFBC6E7094880470948004795
:10047000FEE7FEE7FEE7FEE7FEE7FEE7FEE7FEE754
:10048000FEE7FEE704480549054A064B70470000B1
:10049000AD7F0008D9010008E8140020E8B400206E
:1004A000E8940020E894002000487047AC04002045
:1004B00070B5A0FB0140B4F1805170F1000024BF81
:1004C000002070BD204600F060FA05001CBF2146E8
:1004D00000F049FC284670BD70B516460D46041F55
:1004E000002808BF70BD002E1CBF05F10C0015F0E0
:1004F0000BFC2B465868002818BFA04238BF0346A3
:10050000F8D31968CA18A24218BF5C6003D12268E8
:100510001C461144196021680A19824218BF6060A4
:1005200004D142686260006808442060002E1CBF4D
:1005300005F10C0015F0F8FB70BD10B5044600F095
:100540008FF901682046BDE810400122C4E753EA54
:10055000020C00F069802DE9F04B4FF00006002BF3
:100560001FBFB3FA83F503FA05F424FA05F65E40DB
:1005700012BF1643B2FA82F502FA05F4C5F120055E
:100580001EBF22FA05FC44EA0C04203556EA044C4E
:100590004FEA144418BF641C4FF000084FF00009E4
:1005A000904271EB030C39D3002919BFB1FA81F7DE
:1005B00001FA07F6B0FA80F700FA07F6C7F120074C
:1005C0001EBF20FA07FC46EA0C062037B6FBF4FCF7
:1005D000A7EB0507103F07F01F0BCBF120062CFA05
:1005E00006F60CFA0BFB44BFB3460026202FA4BF2F
:1005F0005E464FF0000B5BEA060C08BF4FF0010BA4
:1006000019EB0B0948EB0608ABFB027C06FB02CC9E
:100610000BFB03CCC01B71EB0C01C1E70B46024680
:1006200041464846BDE8F08B13B5084318BF4FF06C
:10063000FF300146AFF30080BDE81C40704700006A
:100640000FB41CB50C0007AA009007D04142A1428C
:1006500002D32044401E01E04FF0FF30074B7B44A3
:1006600069460190069800F08CFA0021002C01D018
:10067000009A11701CBC5DF814FB000047050000D7
:1006800070B504460D4621461068AFF300802188FE
:10069000090502D50F4A7A4402E00E4A7A440E3226
:1006A000002104F1240305E000F00F060009965D27
:1006B0005E54491C0028F7D120780023000704D598
:1006C000702D02D009B1022311322046BDE87040DE
:1006D00000F0F8B908B701002DE9F0410F460546D2
:1006E000002028622846E968884770B3252805D08D
:1006F000D5E901219047286A401CF2E7E9682846BD
:10070000002688476C2804460AD0682C08D04C2C58
:1007100035D06A2C31D0742C31D07A2C2FD016E001
:10072000E968064628468847B042044608D16C2E40
:1007300023D04FF480662846E9688847044606E0DF
:100740006C2E03D04FF4807601E01EE04026E4B129
:10075000A4F14100192802D8203446F400663A4634
:10076000214628462E60FFF781FD60B1012808D0A0
:10077000FF1D27F007070837B4E78026DBE70026D0
:10078000D9E73F1DAEE72046B2E7286ABDE8F08111
:1007900010B5002000F027FAFFF785FDBDE81040F6
:1007A000012000F057B80B460146184600F004BA85
:1007B00010B5431C02E010F8011B71B18107FAD19A
:1007C0004FF0013202C88C1A8C4314EAC211F9D0DE
:1007D000C01A0A0603D0C01E10BDC01A10BD0A04FC
:1007E00001D0801E10BD0902FCD0401E10BD02F0D9
:1007F000FF0343EA032242EA024200F0B6BA4FF096
:10080000000200B5134694469646203922BFA0E860
:100810000C50A0E80C50B1F12001BFF4F7AF09076C
:1008200028BFA0E80C5048BF0CC05DF804EB89005D
:1008300028BF40F8042B08BF704748BF20F8022BA0
:1008400011F0804F18BF00F8012B704770477047B8
:100850007047000001491820ABBEFEE726000200E9
:1008600010B5FFF721FE083010BD70477047704784
:10087000704738B504460A4600206946AFF3008049
:10088000002808BF38BD02460099204600F0A3FAB0
:10089000012038BD012000F023BDF8B5AFF3008082
:1008A000054600200C46102000BF0646A819A042AD
:1008B0000DD9324669460020AFF30080070008BF1B
:1008C00000F00EFD0098A04218BF0546C419FFF7BE
:1008D000C7FF05600746F01D20F0070046192846AF
:1008E00000F069FAB44208BFF8BDA21B314638686F
:1008F000BDE8F84000F06FBA0844401E491E884326
:1009000070470821001DF7E72DE9F04117460E4614
:100910000446FFF7F6FFA042054633D9002F1CBF5F
:1009200006F10C0015F0F0F930467468F4B1216856
:10093000A94217D305F1080291423CBF61684160AA
:1009400007D3626861194A602268521B0A604160DD
:100950002560002F1CBF06F10C0015F0E5F9201DE5
:10096000BDE8F08120466468002CE0D1294630467D
:10097000FFF77FFF0028D7D1002F1CBF06F10C0026
:1009800015F0D2F90020BDE8F08110B50446FFF75C
:1009900067FF01682046BDE810400122B4E7084423
:1009A000401E491E884370470821001DF7E72DE9C6
:1009B000F04791460C468046FFF752FF06686042BA
:1009C00034EA000001D1042C02D20520BDE8F087F2
:1009D000601E40F007074846FFF7E6FF484505461A
:1009E0009CBF0620BDE8F08706F10C0015F08CF9DD
:1009F00074683046002C2FD02368211D494207EA35
:100A00000102934224D9991A8D4221D84AB1214634
:100A100014440B689B1A23604B6863600A60416052
:100A20000846226805F108018A4205D36119521B64
:100A30000A602560416008466168416006F10C006B
:100A400015F072F9241D0020C8F80040BDE8F087B9
:100A500020466468002CCFD129463046FFF709FFB5
:100A60000028C5D106F10C0015F05EF90620BDE89E
:100A7000F08770B50C460546012A05D02878800617
:100A800000D5EA69002302E0012305E05B1C9342E4
:100A900002D2E05C0028F9D1A869E618C01AA86162
:100AA000286A184428622846AFF3008004E0D5E99C
:100AB000012114F8010B9047B442F8D32846AFF354
:100AC000008070BD2DE9F0470D46994692460446D8
:100AD00000F124080168880604D5E06921F01001BE
:100AE000216000E00120A84201DD471B00E0002753
:100AF000A1697A1902EB0900081AA0612078C006E2
:100B000002D42046AFF30080002608E0D4E901219A
:100B10001AF806009047206A401C761C20624E4559
:100B2000F4DB2078C0060AD52046AFF3008006E04B
:100B3000D4E9012130209047206A401C2062381EF1
:100B4000A7F10107F4DC07E0D4E9012118F805005A
:100B50009047206A401C2062281EA5F10105F3DCA5
:100B60002046AFF300802078000602D50220BDE8C1
:100B7000F0870120FBE7000001694A1C0261087848
:100B8000704700B58FB0CDE90131002105910549CD
:100B90007944CDE9031011466846FFF79DFD0FB07B
:100BA00000BD0000E5FFFFFFD1E900239A4202D219
:100BB000531C0B60107070472DE9F0410746154635
:100BC0000E461020FFF7E1FE04000AD06760C4E97A
:100BD000026500F0EBF80168216004600020BDE8C8
:100BE000F0810120FBE710B500F062FBBDE810408A
:100BF00000F058BB032A40F2308010F0030C00F0E4
:100C0000158011F8013BBCF1020F624498BF11F846
:100C100001CB00F8013B38BF11F8013BA2F10402FF
:100C200098BF00F801CB38BF00F8013B11F0030377
:100C300000F06780083AC0F0088051F8043B083A99
:100C400051F804CBA0E80810F5E7121D5CBF51F87D
:100C5000043B40F8043BAFF30080D20724BF11F8F7
:100C6000013B11F801CB48BF11F8012B24BF00F85C
:100C7000013B00F801CB48BF00F8012B7047431A35
:100C800028BF9A427FF6B6AF10441144032A40F2BF
:100C9000268010F0030F1EBF11F8013D521E00F810
:100CA000013D10F0030F7FF4F6AF11F0030300F0E5
:100CB0003183083AC0F00B8051F8043D083A51F8EE
:100CC00004CD40F8043D40F804CDFFF7F3BF121DFA
:100CD0005CBF51F8043D40F8043DAFF30080D207FB
:100CE00024BF11F8013D11F801CD48BF11F8012CC6
:100CF00024BF00F8013D00F801CD48BF00F8012CE9
:100D0000704710B5203AC0F00B80B1E81850A0E849
:100D10001850B1E81850A0E81850203ABFF4F5AFC9
:100D20005FEA027C24BFB1E81850A0E8185044BF25
:100D300018C918C0BDE810405FEA827C24BF51F892
:100D4000043B40F8043B08BF7047D20728BF31F886
:100D5000023B48BF11F8012B28BF20F8023B48BFD7
:100D600000F8012B70474FF000020429C0F01280F8
:100D700010F0030C3FF445ADCCF1040CBCF1020FB4
:100D800018BF00F8012BA8BF20F8022BA1EB0C0123
:100D9000FFF737BD5FEAC17C24BF00F8012B00F8E4
:100DA000012B48BF00F8012B7047704710B5FFF7C3
:100DB0007BFB383010BD00210160C0E901100C3010
:100DC00014F0AABF10207047801A0844401E491E24
:100DD00088431044704770B5144605468C464368F6
:100DE000002B18BF634538BF1846F8D3026810447B
:100DF000604508D06646604604220821FFF7E4FFFC
:100E0000811B8446641A2946CCF80040BDE8704036
:100E100000220CF10400FFF75FBB2DE9FF4F0C46E9
:100E20001E464FF0FF378BB0D2E90001DDF860803D
:100E30000A908A46C1F30A5505B93D460021084685
:100E40004FF00000BAF1000F00F4400005DA00EBAB
:100E500080004FF4400101EA50004FEA9059B9F187
:100E6000010F00DDB9460A9850EA4A000ED044F658
:100E70001050A5F2FF3545432F14B8F1000F1ED0D6
:100E80007542291E1EDDC9F100021CE0B8F1010FF8
:100E90004FF0000001D0302103E0F24305E021547F
:100EA000401CB042FBDB30460022002121540B994C
:100EB000C1F80880C1E900200FB0BDE8F08FBD1B6C
:100EC0006D1CDEE74A4600DA694206A800F0FCFA2B
:100ED00006AB93E8070003AB83E8070050460A9986
:100EE00015F084FE8DE80700A0F500501F38009033
:100EF0000398002D0ADD42F21F014A4608440023F0
:100F000003A90390684616F0EDF809E0A0F500503B
:100F10004A461F38002303A90390684616F0F7F8E5
:100F20008DE807000004000C03D04FF0FF304108AB
:100F300000E01046B8F1000F03D0002200921546E1
:100F40001EE0751E05D400F039FA303262556D1E70
:100F5000F9D5B3460122084302D000227F1C04E0E9
:100F60002078302801D100227F1E002A099784D0E2
:100F70001DE0112D07DA00F021FA303262556D1CA8
:100F800050EA0102F5D1084302D00098C8B10EE042
:100F90000021681E05E0235C625C63542254401EFD
:100FA000491C8142F7DBAB46A81B401E099000207C
:100FB00004F80B000B98099AC0F80880C0E9002BD0
:100FC0007AE711264FF0000857E72DE9F04F8846E1
:100FD0000446D21D22F0070191B0D1E90001CDE90C
:100FE0000A0116F0D6F902460B98C00F01D02D2049
:100FF00007E02068810701D52B2002E0202101EACB
:10100000C000032A099001D0072A05DB03464146A8
:10101000204600F019FA0BE12078800601D5E0693E
:1010200000E00620B8F1650F814606D0B8F1660FE2
:1010300018D0B8F1670F70D131E00020B9F1110F6D
:10104000009001DB112301E009F101030AAA01A9C3
:101050000CA8FFF7E2FEDDE90C70002609F101059E
:10106000834647E001204B4600904FF000470AAA14
:1010700001A90CA8FFF7D1FEDDE90DB00C995D4682
:10108000002610B909F101000D18B9EB050003D4D1
:10109000C0F1FF3609F10105A5EB09002BE0B9F11C
:1010A000010F01DA4FF001090020B9F1110F009092
:1010B000484601DD112300E003460AAA01A90CA855
:1010C000FFF7ABFEDDE90C704D4600268346207825
:1010D00000070AD4AB4500DA5D4601A8012D04DD06
:1010E000411911F8011C302907D04F4502DA17F1D8
:1010F000040F04DA012082460FE06D1EEEE7002F98
:1011000002DCED1B3E4403E0781CA84200DD7D1CA0
:10111000B81B00F1010A4FF000472078000703D404
:10112000AA4501DB4FF0FF3A0021B7F1004F0DF166
:1011300043088DF8431024D002202B23002F01DA1E
:101140007F422D230A21021EA0F1010000DC5FB1C5
:1011500097FBF1FC97FBF1F201FB1C7C17460CF1AD
:10116000300C08F801CDEEE7A8F1010003702188EA
:10117000090501D5452100E06521A0F1010800F82D
:10118000011C09980FA9A1EB0807FF1D00B1012060
:10119000411901EBEA70A1693844081A401EA061A8
:1011A0002078C00602D42046AFF30080099828B109
:1011B000D4E901219047206A401C20622078C006B3
:1011C00022D52046AFF300801EE0002E04DBB3459D
:1011D00002DD01A8805D00E03020D4E901219047C4
:1011E000206A401C2062761CAAF101005FEA000A16
:1011F0000AD100F0DEF8C0680168405CD4E9012142
:101200009047206A401C2062281EA5F10105DCDC05
:1012100007E0D4E9012118F8010B9047206A401C2F
:101220002062381EA7F10107F3DC2046AFF30080EF
:10123000032011B041E610B5436913B1AFF300804C
:1012400001E0FFF716FC012010BD127800F1240127
:101250000A7000224A700122EDE711684FF0FF3258
:10126000E9E72DE9F0410646FFF7A0FD8046454637
:1012700013E016B1E068B0420ED120682860D4E9CE
:101280000101D8F8007088472046FFF756F9D8F8D2
:101290000000B842EBD100E025462C68002CE8D1D4
:1012A000BDE8F081002801D0FFF7D4BA70470000F4
:1012B00010B5002102A000F082F9012010BD00004D
:1012C000534947414252543A2041626E6F726D61F8
:1012D0006C207465726D696E6174696F6E000000D8
:1012E00010B500F085F9BDE81040FFF7DBBF431AE9
:1012F00028BF9A427FF605AD1044114410F0030F49
:101300001EBF11F8013D521E00F8013D10F0030F01
:101310007FF4F6AF103AC0F00A8010B531E91850EA
:1013200020E91850103ABFF4F9AFBDE81040530758
:1013300024BF31E9081020E9081044BF51F8043DEA
:1013400040F8043D12F0030F08BF7047D20728BFD2
:1013500031F8023D48BF11F8012C28BF20F8023DAA
:1013600048BF00F8012C70477546FFF79DF8AE4660
:1013700005006946534620F00700854618B020B5A1
:10138000FFF780F8BDE820404FF000064FF000075F
:101390004FF000084FF0000BAC46ACE8C009ACE8D9
:1013A000C009ACE8C009ACE8C00921F007018D46CE
:1013B000704710B5FFF778F8203010BD30B5B0F1A8
:1013C0000A0271F100034FEA900E4EEA817EB0EB03
:1013D0000E0061EB91014FEA101E4EEA017E10EB08
:1013E0000E0041EB11114FEA102E4EEA016E10EB88
:1013F0000E0041EB11214FEA104E4EEA014E10EB68
:101400000E0041EB1141401841F100014FEAD000BC
:1014100040EA41704FEAD1014FEA810444EA9074F6
:1014200010EB800544EB01046D1944EB0404521BDE
:10143000A3414FF0000348BF0A3200D530BD401C25
:1014400041F1000130BD00002DE9F0411F46044686
:1014500003260168072A01F4006004DB08B116A521
:1014600005E016A503E008B115A500E015A521F0DB
:1014700010002060A069C01EA0610FB1401EA061D5
:101480002046AFF300804FB1D4E9012138469047A0
:10149000206A401C2062C01C206206E0206AFAE735
:1014A000D4E9012115F8010B9047761EF8D22046A9
:1014B000AFF30080BDE8F0814E414E006E616E00DA
:1014C000494E4600696E66002DE9F0478146164692
:1014D0008AB0354878440DC88DE80D00324878440C
:1014E000801C03AC0DC884E80D0041F69B30084415
:1014F000372190FBF1F290FBF1F5A5F1800501FB9E
:1015000012041B3C02D56442012000E00020DFF8F9
:1015100098A080460027FA44AAF1BE0A0EE0E00730
:101520000AD03246684607EB470101230AEB8101E6
:1015300015F0EDFD8DE8070064107F1C002CEED146
:10154000194F7F44AE3F19E0E80715D007EB0410B0
:101550000DF1180A90E80E008AE80E00C068F0420B
:1015600001D1981908903246012306A903A815F065
:10157000CEFD03AB83E807006D10641C002DE3D1A2
:101580004FF0010332466946B8F1000F03A802D0BC
:1015900015F0A8FD01E015F0BAFDC9E90001C9F890
:1015A00008200AB0BDE8F08770A9010010B5044614
:1015B000AFF300802046BDE81040FEF782BE70B554
:1015C00005460C460A2000E06D1C00F039F835B1E4
:1015D00028780028F8D102E0641C00F031F814B13A
:1015E00020780028F8D1BDE870400A2000F028B823
:1015F00010B5012805D0002103A0FFF7E0FF01206E
:1016000010BD09A1F8E7000053494752544D454D1C
:101610003A204F7574206F662068656170206D6593
:101620006D6F7279000000003A2048656170206D8E
:10163000656D6F727920636F727275707465640086
:1016400008B569468DF800000320ABBE08BD000058
:1016500030B44FF0013C50F8042B51F8043BCCFA65
:1016600052F4D51A20D1FCB950F8042B51F8043BA0
:10167000CCFA52F4D51A17D1B4B950F8042B51F85A
:10168000043BCCFA52F4D51A0ED16CB950F8042BA5
:1016900051F8043BCCFA52F4D51A05D1002CDAD01B
:1016A00030BC4FF00000704729BAB1FA81F111F057
:1016B0001801D1F120008440F2D1CA40CB4012F091
:1016C000FF0213F0FF0330BCD01A704770B5064C10
:1016D0007C44064D7D4404E0204601680844804770
:1016E000241DAC42F8D170BD94AF0100A0AF010041
:1016F00080B540F61060C2F2000000F0C8FC40F671
:10170000A860C2F2000000F0C2FC80BD70B50446C3
:1017100000688268836802F0040203F00803D218AC
:1017200052D0C268920114D5627F012A11D1227F62
:10173000012A0ED10168490607D40121CAF24031BD
:10174000013943D002685206FAD5402101600121D7
:1017500004E0022902D10221082611E08268520722
:101760000AD58268920707D482684FF6C073C7F61D
:10177000FF731A401032826001294FF0040610D026
:10178000826812070AD58268920707D482684FF6EA
:10179000C073C7F6FF731A4020328260032908BF66
:1017A0000C2602F095FB2168896831420CD0054671
:1017B00002F08EFB411B2068062902D3816831426A
:1017C00004D180683042F3D1002070BDE06D40F05C
:1017D0001000E065206E40F001002066012070BD21
:1017E0000146806AC36DC26D13F0500F06D0D20659
:1017F0000FD4406D00F13402084620E042F400713D
:10180000C16501680B68CA681B0705D4910709D533
:1018100013E000F1780212E012F4406F0DD1C968B4
:1018200089040AD4C16D21F48071C165C16DC904F8
:1018300003D4C16D41F00101C16500F16C02116872
:101840000847806AC16D826F41F04001C165016E39
:1018500041F0040101661047806A016F08470000EB
:10186000B0B5016804468A688868C0074FF0000078
:1018700031D012F0020218BFB0BD886800F00D0030
:1018800001281FD188684FF6C072C7F6FF7210405A
:10189000023088600320086002F01AFB2168896822
:1018A000C9070DD0054600BF02F012FB411B20689E
:1018B000032902D38168C90704D18068C007F3D126
:1018C0000020B0BDE06D40F01000E065206E40F0FB
:1018D000010020660120B0BD70B504460068816833
:1018E000C90733D14FF6C076C7F6FF76816806F197
:1018F0007F02114209D0E06D40F01000E065206EDB
:1019000040F001002066012070BD8168314041F047
:101910000101816002F0DCFA21680A68D20715D162
:10192000054600BF8868C00704D18868304040F091
:101930000100886002F0CCFA401B2168032802D322
:101940000868C007D7D00868C007EBD0002070BD7A
:1019500080B540F68C70C2F2000001F0A0F980BDA5
:1019600080B540F6EC70C2F2000001F098F980BD3D
:1019700070B5D0E913C4D0F854E0CCF80440BEF1FF
:10198000000F1CBFD0E916C4CCF80440D0E9106E9B
:101990000468D0F808C00EF01F00012505FA00F019
:1019A000706008466360BCF1100F04BF10460A4621
:1019B000A060E26070BD000080B54FF4004002F00E
:1019C00096F980BD80B5802002F091F980BD704706
:1019D00080B541F24C00C2F2000001F0BDFC80BDB8
:1019E00080B541F24C00C2F2000001F0B5FC80BDB0
:1019F00040F23430C2F20000027F02F0FD01012902
:101A000042F20001C4F202010FD10B6823F400730B
:101A10000B600B6843F400630B600B6823F40063F6
:101A20000B600B6843F400730B6002F0FE02022AA5
:101A30000BD10A6842F480520A600A6822F480528C
:101A40000A600A6842F480620A60002101777047E8
:101A500042F21401C4F20201CA68520202D448F2EE
:101A6000040009E0C20703D00A6842F004020A60D9
:101A7000800704D54FF400400A68104308600868E6
:101A800040F480300860704742F21402C4F202024F
:101A9000D3685B0203D4116821F4006106E0C90732
:101AA00013680CBF43F4006123F4006111601168F6
:101AB000C0B221F47E7141EAC0001060106840F0AD
:101AC00002001060106840F4803010607047000021
:101AD00070B542F210060446C4F2020602F0F8F9AC
:101AE000054600BF3068C00306D502F0F1F9401B7F
:101AF000A042F7D9032070BD30684CF2FA310140A2
:101B000008D040F23430C2F2000042680A4342601A
:101B1000012006E03068C0074FF0000008BF70BD2C
:101B20000121316070BD0000B0B5044602F0D0F96B
:101B3000216805460A6942F480300861206800691E
:101B4000C0030BD502F0C4F9401BB0F5FA7FF5D9FC
:101B5000606B40F0800060630120B0BD00206063D6
:101B6000B0BD0000B0B582B004460020019094F8EA
:101B70005800012801D102203BE0012084F85800E0
:101B800020460D46FFF76CFEE16D10B141F01001EB
:101B90002BE041F2021291430231E16521684FF6D8
:101BA000C0738A68C3F6FF731A4005F080431A4475
:101BB00002F100428A604DF60262C0F2040200BFE8
:101BC0008B68B3F1FF3F0CDC019B01330193019B58
:101BD0009342F5D3E06D40F0100020F002010120A7
:101BE00003E0E16D012262F30101E165002184F867
:101BF000581002B0B0BD70477047704770477047CB
:101C000070B582B090F85820012A01D1022182E0FB
:101C1000002201920092026840F2080CC5F2000C0A
:101C2000B2F1A04F0CF1F80508D040F20043C5F224
:101C300000039A4231D10CF59F6300E02B469B686C
:101C4000946823435B0728D44FF4E063D1F800E0A5
:101C5000AA4208BF4FF44073B2F1A04F08BF4FF43F
:101C600040735CF80340BEF1000F24F460441AD0C6
:101C70004D6890F8386042F4807245EA46352C434E
:101C800040F20015C5F20005AA424CF8034019D1F4
:101C9000DCF80020DCF800411BE0C16D41F02001C0
:101CA000C165012134E042F4807140F20012C5F2B6
:101CB000000291424CF8034018D1DCF80010DCF827
:101CC00000211AE0DCF80044DCF80055DCF80026BE
:101CD0002C432243D2071AD15CF8032040F61F742C
:101CE0008968A243114341EA0E010EE0DCF80024AA
:101CF000DCF80065DCF8001632431143C90706D151
:101D00005CF8031040F61F7291434CF80310002159
:101D1000002280F85820084602B070BDF0B581B0AE
:101D20000022009290F85820012A01D10221A8E156
:101D30000123076880F85830BB685B0735D4D1E9C8
:101D400000631F22C3F3012507EB85052C6B03F00D
:101D50001F039A40C6F3846624EA020206FA03F3DC
:101D60001A432A63BA68BB6802F0040203F008034E
:101D7000D21840F0BB800A68042607F1140306EA73
:101D8000D25CC2F340668D6853F82660C2F30454F7
:101D90000722A240B5F1004F26EA02060BD143F814
:101DA0000C601A6842F000430DE0C16D41F0200163
:101DB000C165012162E105FA04F2324343F80C20C7
:101DC0001A6822F000437B61D1E90436FD68042BD8
:101DD0005FD13A6E3A6E0B68C2F3846293FAA3F64F
:101DE000C3F3846C6FF3DF43B6FA86F5002B2C4601
:101DF0004FF6FF7E08BF6446A242C0F2070E0CD128
:101E00003A6E22F000423A660A6802EA0E03C2F312
:101E1000846C92FAA2F2B2FA82F57A6E7A6E002B94
:101E2000C2F384622C4608BF6446A2420CD17A6E8B
:101E300022F000427A660A6802EA0E03C2F3846C5A
:101E400092FAA2F2B2FA82F5BA6EBA6E002BC2F31F
:101E500084622C4608BF6446A2420CD1BA6E22F0BE
:101E60000042BA660A6802EA0E03C2F3846C92FA70
:101E7000A2F2B2FA82F5FA6EFA6E002BC2F3846215
:101E800008BF6546AA4231D1FA6E22F00042FA66D6
:101E90002CE0062202EA950206FA02FC0E6807F11F
:101EA000600555F823404FF20002C0F2FF3206F001
:101EB000F846224046EA0C06324342F0004245F81A
:101EC00023200A698B6955F8226026F08076334317
:101ED00045F822300A690B7F55F82260012B26F065
:101EE000007608BF06F1007645F82260BA68D2078E
:101EF0004BD10E68CA6800253346C4F27F05AA425A
:101F00006FF3DF4318D1D7F8B02042EA0302C7F8D5
:101F1000B020BBB196FAA6F2B2FA82F2013202F018
:101F20001E03092B02F01F0315D801229A4003EB70
:101F3000430342EA03531AE0D7F8B0209A43C7F8A4
:101F4000B02022E0012202EB966202F01E030A2B6F
:101F500002F01F03E9D3012200269A4003EB43035A
:101F6000CFF6206606EB03531A4342F00073C3F327
:101F7000406607EB86068A687569C3F30453072435
:101F80009C40A5439A402A4372610D680021C8F223
:101F900008010D4271D040F2001EC5F2000E0EF590
:101FA00000731C46774518BF0EF5C0642146B7F193
:101FB000A04F08BF19468E680022CCF2213295420C
:101FC00006F0E07C04D01022C9F2C00295422BD169
:101FD000320252D440F20062C5F20002974202D0AF
:101FE000B7F1A04F49D18A6822F0E07242EA0C02B0
:101FF00042F400028A6040F27C11C2F200010968DA
:1020000042F663528909C0F23E52A1FB02129109C5
:1020100001EB41010C2202EB810100BF009100990C
:1020200059B300990139F9E70022CCF25272954276
:1020300008BF16F0807218D00021CCF684318D4292
:102040004FF0000108BF16F4800217D1B7F1A04F7E
:1020500002D0774511D02346996821F0E07141EA1A
:102060000C0141F48001996007E08A6822F0E07277
:1020700042EA0C0242F080728A600021002280F85D
:102080005820084601B0F0BD7047704770472DE9F1
:10209000F04F81B00446016840F20830C5F20000FC
:1020A00000F58068A0F5027940460E684D68494504
:1020B00004BF40F20830C5F20000B1F1A04F04BFE8
:1020C00040F20830C5F200000068B20700F01F0AB5
:1020D00010D515F002000DD0E06DC00603D4E06D00
:1020E00040F40060E065D4F88C10204688472168F1
:1020F0000220086040F2001B7007C5F2000B02D5F9
:1021000015F0040004D1300755D515F0080052D061
:10211000204650F85C2FD20603D4026842F40072C5
:102120000260CA6812F4406F3FD159450CD040F2AA
:102130000052C5F2000291420A4617D140F208321D
:10214000C5F20002F83201E04FF0A0428A420A468E
:102150000CD0BAF1090F00F22181012202FA0AF231
:1021600040F221231A420A4600F01881D2689204F4
:102170001BD40A68120718D58A6852070BD44A681C
:1021800022F00C024A60016821F48071016001684C
:10219000C90406D509E0E06D40F01000E06504F1E7
:1021A0006000016841F001010160E16E204688474E
:1021B00021680C200860B00602D515F0200004D17B
:1021C000700638D515F0400035D0204650F85C2F09
:1021D000D20603D4026842F400520260CB6CCA6893
:1021E000594503F4C0730CD040F20057C5F2000704
:1021F000B9420F4616D140F20837C5F20007F8374A
:1022000001E04FF0A0478F420F460BD0BAF1070F05
:1022100000F2A980012707FA0AF717F0C10F0F464D
:1022200000F0A180FF68002B78D0E16F204688473E
:1022300021686020086030060CD515F0800009D0B8
:10224000E06D616F40F48030E0652046884721688A
:1022500080200860F0050ED515F480700BD0E06D7D
:10226000D4F8841040F40030E065204688472168A7
:102270004FF480700860B0050ED515F400700BD0D7
:10228000E06DD4F8881040F48020E065204688474F
:1022900021684FF400700860F00625D515F0100095
:1022A00022D0E06B90B1BAF1000F58D040F2083064
:1022B0004945C5F2000008BF8046B1F1A04F08BFF4
:1022C0008046D8F8000010F4604F0BD0E06DA16F8D
:1022D00040F48060E065206E40F0020020662046F9
:1022E0008847216810200860700514D515F48060B7
:1022F00011D0E06DD4F8802040F48040E065206E7D
:102300004FF4806340F00800206620460B6001B067
:10231000BDE8F04F104701B0BDE8F08FBB0106D516
:1023200002F4406207F40053D2187FF47EAF0A68CB
:1023300052067FF57AAF17F400127FF476AF8A6801
:10234000120720D44A6822F060024A60016821F432
:10235000805101600168C9053FF567AF19E0C868A1
:10236000C007B3D1BEE7594528D040F20057C5F2A7
:102370000007B9420F467FF455AF40F20837C5F267
:102380000007F8374EE7E06D40F01000E06504F11B
:102390006000016841F00101016046E7594510D035
:1023A00040F20052C5F2000291420A467FF4DEAECE
:1023B00040F20832C5F20002F832D7E64FF0A047EB
:1023C00030E74FF0A042D1E670B582B0044600205D
:1023D000002C01907DD0E06D00283ED142F28B01AF
:1023E00042F28900C0F60001C0F600002167D4F86F
:1023F000901042F25D6242F28D0341F6F93C41F6E3
:10240000FB3E41F6FD3541F6FF36E06641F6F7301A
:10241000C0F60002C0F60003C0F6000CC0F6000EC5
:10242000C0F60005C0F60006C0F600006267A367AC
:10243000C4F87CC0C4F880E0C4E92156C4F88C001C
:1024400029B942F25F61C0F60001C4F8901020463D
:1024500088470020206684F858002168886880003A
:1024600006D588684FF6C072C5F6FF7210408860C6
:102470008868C00020D44FF6C0728868C5F6FF7225
:1024800002F18052104000F18050886040F27C10D0
:10249000C2F20000006842F663528009C0F23E5268
:1024A000A0FB02029009022202EB40000190019879
:1024B00010B101980138F9E78868C0000BD4E06DCD
:1024C00040F01000E065206E40F001002066012021
:1024D00002E00120C0E000208A68E36D02F00402FF
:1024E00003F01003D218E26D17D122F48172023288
:1024F000E2658A68D20733D140F2001341F480725A
:10250000C5F2000340F2080C9A42C5F2000C08D153
:10251000DCF80030DCF800210AE042F01001012074
:1025200099E0DCF80024DCF80065DCF80036324382
:102530001A43D20714D10CF1F8024FF4E066636835
:10254000914208BF4FF44076B1F1A04F08BF4FF45D
:1025500040765CF8062022F47C121A434CF80620E0
:10256000627FE36B43EA4232D4E902631A4394F890
:1025700024303243012B42EA034206D1A36A0026EB
:10258000CFF6FE7606EB43431A43E36A23B1266B8C
:1025900003F4787333431A43CB6844F20706CFF64B
:1025A000F07633401A43CA600A69636B22F04062D6
:1025B0001A430A618A688B6802F0040203F0080378
:1025C000D2183AD194F83820237F520042EA83325D
:1025D000CB6844F20206B3431A43CA6022690B690E
:1025E0004AB143F480330B61D1F8C03043F6FF7633
:1025F000B3431A4307E023F480320A61D1F8C020C4
:1026000043F6FF739A43C1F8C02094F840300A693A
:10261000012B0FD140F2FD7322EA030CD4E91136ED
:10262000D4E9135243EA0C0333432B431A4342F0D9
:10263000010201E022F001020A6162690B6B012ACA
:1026400023F00F0202D1236A013B1A430A63E16DB2
:10265000012262F30101E16502B070BD7047F0B57F
:102660009BB0044616A81421FEF7C9F801A854210E
:10267000FEF7C5F8206840F20011C5F2000188425B
:1026800068D0B0F1A04F40F0DC804FF400400190E2
:102690004FF00050129001A802F036F808B1FFF791
:1026A00096F940F20C51C2F200010A6841F24C0066
:1026B000C4F20200531C0B6042B9016841F400519E
:1026C0000160016801F4005100910099016816ADA4
:1026D00041F0010101600168032701F0010100914F
:1026E00000990168002641F0020101600068294656
:1026F00000F00200009000980D2016904FF09040DE
:102700001797189601F0FEFA40F60200CDE9160779
:1027100040F20040C4F600002946189601F0F2FA93
:1027200040F68C750820C2F20005C4F202000521B3
:1027300080224FF4807385E8430005F114004FF4C4
:1027400080674FF0200CC5E9036280E888104FF4E1
:10275000005065E04FF4004001904FF0005012909F
:1027600001A801F0D1FF08B1FFF731F940F20C5197
:10277000C2F200010A6841F24C00C4F20200531C8C
:102780000B6042B9016841F400510160016801F435
:10279000005100910099016816AD41F001010160FE
:1027A0000168032701F001010091009901680026EA
:1027B00041F0040101600068294600F00400009027
:1027C0000098C02016904FF090401797189601F08F
:1027D00099FA1020CDE9160740F20040C4F6000037
:1027E00000F580602946189601F08CFA0820C4F2A2
:1027F000020040F6EC751430C2F2000524214FF4BB
:10280000807385E8430005F1140080224FF480674F
:102810004FF0200C80E888104FF44050C5E9036267
:102820002862284600F088FA08B1FFF7D0F8122095
:10283000052100226565AC6201F0AEFE122001F0B8
:1028400099FE1BB0F0BD000022B1C36DDB0707D1BC
:10285000C36D8BB1016E41F010010166012070471C
:102860000A29F7D8DFE801F006121416181A231DFA
:10287000200C0F00C2661CE00A2904D00929E9D106
:10288000C0F8902015E0C0F8942012E0026710E034
:1028900042670EE082670CE0C2670AE0C0F8802061
:1028A00007E0C0F8882004E0C0F88C2001E0C0F800
:1028B0008420002070472DE9F041044640F20017C3
:1028C0000068C5F200074FF4C163B84208BF4FF477
:1028D0000273B0F1A04F08BF4FF40273DB59866852
:1028E0009046720704D40E4694F85810012902D17C
:1028F0000220BDE8F08107F5A06203F01F05012169
:10290000904284F8581018BF002D08D12046FEF7D9
:10291000E3FF70B1002184F85810BDE8F081052D67
:10292000F4D0092DF2D0002084F858000120BDE831
:10293000F0812168E06D40F60172904300F58070EF
:10294000B942E06508D040F20050C5F20000814273
:1029500008D107F5407001E04FF0A040884218BF51
:10296000002D03D1E06D20F48010E065E06D41F2B0
:10297000E173C0044FF0000044BF206E20F0060059
:102980002066606D41F65907C0F60003C0F60007E7
:1029900041F643050022C0F60005C0E90B371C23B1
:1029A00045630B6084F858204A68434642F01002A1
:1029B0004A60CA6842F00102CA604031324600F003
:1029C0004EFA21684FF6C0738A68C7F6FF731A4043
:1029D00004328A60BDE8F081B0B5044690F8580032
:1029E000012801D1022537E0012084F85800204653
:1029F0000321FEF78BFE054658BB2168606DCA684F
:102A000022F00102CA6090F82520022A11D100F0BC
:102A1000D2F868B105462068E16D41F04001E165FA
:102A2000416821F0100141602046FEF719FF10E0D7
:102A30002168486820F0100048602046FEF710FF2B
:102A4000054630B9E06D41F201118843013000259F
:102A5000E065002084F858002846B0BDB0B598B1B4
:102A6000044690F8210028B9002084F82000204670
:102A700000F00DF80025201D14216562FDF7BFFE52
:102A8000012084F8210000E001252846B0BD81B076
:102A900041F24801C4F202010068A1F58962904246
:102AA00008D1086840F008000860086800F00800D5
:102AB0000090009801B0704780B54FF01F0E00BF26
:102AC000BEF1000F08D0AEF1010E0EF01F0321FA87
:102AD00003F3DB07F4D001E04FF0FF3E4FEAF20CC6
:102AE000BCF1030F16D8DFE80CF005020E12BEF1A0
:102AF0000F0F0FD800684161816821F01801114360
:102B00008160002080BDBEF1070FF3D902E0BEF165
:102B1000060FEFD9012080BD10B588B10446407F73
:102B200020B900202077204600F02EF802206077A0
:102B3000207938B1D4E902122046FFF7BDFF58B121
:102B4000012010BD206841F6B751C0F2C14141617A
:102B5000816821F0180181606079002814BF206924
:102B60004FF0FF302168D4E905230861886820F020
:102B7000600010438860886820F0800018438860F7
:102B800001206077002010BD81B0006843F2000191
:102B9000C4F2020188420CD141F24800C4F20200A2
:102BA000016841F480510160006800F48050009099
:102BB000009801B0704780B5014690F825000228C2
:102BC00024D10868D1E910CE8A6C036823F00E0383
:102BD0000360136823F480731360026822F001021B
:102BE00002600EF01F00012202FA00F0CCF804008F
:102BF000D1E913205060486D30B1026822F4807230
:102C00000260D1E916024260002002E00420C8639D
:102C10000120012281F82520002281F8242080BD96
:102C200080B590F8251002292CD10168D0E910CE8A
:102C3000826C0B6823F00E030B600B6823F001031A
:102C40000B60116821F4807111600EF01F020121E8
:102C500001FA02F2CCF80420D0E913325A60426D36
:102C600032B1136823F480731360D0E916235360E4
:102C700080F82510826B002180F8241052B1904713
:102C8000002107E00421C1630121002280F8251002
:102C900080F82420084680BD90F825007047B0B524
:102CA000D0E910C30268DCF8001003F01F0304240D
:102CB000D2F800E09C400C4218BF1EF004051AD167
:102CC00002249C400C4218BF1EF002051FD1D940BF
:102CD00009071BD51EF0080118D0116821F00E015C
:102CE0001160012101FA03F2CCF80420C16380F8DD
:102CF0002510416B18E01168890603D4116821F092
:102D000004011160CCF80440016B91B9B0BD1168A9
:102D1000890606D4116821F00A011160012180F8AA
:102D20002510CCF80440C16A0022002980F8242034
:102D3000ECD0BDE8B040084700284FF0010100F09A
:102D40008C802DE9F04740F2000CC4F2020C0368BD
:102D50004FF6F8320CF5816ECBF6FD72734538BF35
:102D600002F580624CF6CD441A44CCF6CC44A2FB6A
:102D7000042803F0FC02A2F10802A2FB04290CF5CE
:102D800080656FF00304D0E90262D0F810A03CBF68
:102D90000025C4F2020504EA9804C0E91054022593
:102DA00080F825501D6847F6F07725EA07073A4373
:102DB000476942EA0A0285693A43C7692A43056AB4
:102DC0003A432A4332431A600CF50262734538BF16
:102DD0000CF50062A3180CF50862C264C9F3041272
:102DE00040F6840C01FA02F2B6F5804FC4F2020CF0
:102DF0008364026505D1002141601960CCF8002090
:102E00001CE041685FFA81FE013903294FF000019F
:102E1000C3F800E0CCF8002010D8AEF101020CEBB2
:102E2000820747F87C1F02F01F01012202FA01F31A
:102E30000CF1BC023946CCF8C03001E0002200237E
:102E400000F1540C8CE80E0000210122C16380F8CF
:102E5000252080F82410BDE8F0470846704710B5DB
:102E6000044690F82400012820D0012084F8240092
:102E700094F82500012816D1022084F825000020AE
:102E8000E063D4F800C0DCF8000020F00100CCF8CA
:102E900000002046FEF76CFD2068226B01683AB105
:102EA00041F00E010AE0002084F82400022010BD49
:102EB00021F004010160016841F00A010160A16C88
:102EC0000A68D20303D50A6842F480720A60616D11
:102ED00019B10A6842F480720A60016841F0010188
:102EE0000160002010BD000070B540F25836C2F2FB
:102EF0000006716804468847054618B913F0ACFD12
:102F0000054600BF7068804708B913F0A5FD401B57
:102F1000A04228BF70BDF5E710B590F85C30013BCA
:102F2000012B6FD8006811F0070ED0F858C00CF0D4
:102F3000010300D01BB311F0380F02D01CF00204C3
:102F40001DD011F4E07F02D01CF0040417D011F45E
:102F5000F05F02D01CF0080411D011F4604F02D0D1
:102F60001CF010040BD011F4403F02D01CF02004E0
:102F700005D011F47C0F06D01CF0400403D1C46DC1
:102F800044F00104C465BEF1000F18BF002B23D12B
:102F900011F0380F18BF1CF002031DD111F4E07FAF
:102FA00018BF1CF0040317D111F4F05F18BF1CF018
:102FB000080311D111F4604F18BF1CF010030BD19E
:102FC00011F4403F18BF1CF0200305D111F47C0F11
:102FD00018BF1CF0400303D0C36D43F00203C36568
:102FE0000B0604D5D0F8DC301343C0F8DC30CB0539
:102FF00004D5D0F8E0301A43C0F8E02000F15402C4
:10300000002003E000F1600201200221136819434F
:10301000116010BD2DE9F04190F85C30022B15D104
:103020000668D6F8C4309B0214D4D6F8C430D1E96F
:103030000075D1F808E00C69C3F3014C8DB144EA86
:10304000070343EA0E0343F0804E0EE0016E41F0A9
:10305000080102E0016E41F4007101660120BDE843
:10306000F08144EA87434EEA030ED1E90757D1E9DC
:10307000058445EA0765CB682C43456D44EA08049E
:103080000CEBCC071C4305EBC70345F837E05C604D
:10309000CF68B7F5803F0CD34CF258450833002475
:1030A000C0F6010517591F51CF890434EF5DBC42AA
:1030B000F8D3012101FA0CF1C6F8CC10816500208B
:1030C000BDE8F08180B590F85C20013A012A13D860
:1030D0000A68BAB101F1040ED1E904319EE8045046
:1030E000406C43EA4E7E41EA8C7100EBC20340F82B
:1030F00032E00020596080BD016E41F0020101669E
:10310000012080BDD1E90323D1E901CED20649696E
:1031100042EA8E7242EA0342006C114340F82C10DE
:10312000002080BD80B590F85CC0BCF1010F13D1C8
:1031300000689200D0F880C0DDF808E042EA011192
:1031400041EA43012CF03F0C41EA0E0141EA0C0137
:10315000C0F88010002080BD016E41F004010166BE
:10316000012080BDB0B590F85C20013A012A43D817
:1031700000680B06426D22EA0102426544BF00224C
:10318000C0F8DC20C90544BF0021C0F8E010426D42
:10319000816D12F0070401F0010302F0380E31D006
:1031A00083BB01F0020CBEF1000F18BFBCF1000F91
:1031B00056D112F4E07F18BF11F0040350D112F47D
:1031C000F05F18BF11F008034AD112F4604F18BF26
:1031D00011F0100344D112F4403F18BF11F0200346
:1031E0003ED112F47C0F18BF11F0400138D1C16DEF
:1031F00021F00201C16533E0016E41F00201016678
:103200000120B0BDBEF1000F01F0020C02D0BCF1F4
:10321000000F21D012F4E07F02D011F004051BD082
:1032200012F4F05F02D011F0080515D012F4604FCF
:1032300002D011F010050FD012F4403F02D011F06F
:10324000200509D012F47C0F02D011F0400503D004
:10325000C56D25F00105C565002CA4D0002BA2D0BA
:103260000020B0BD7047704770B590F85C50022DDB
:103270000AD1D0F800C040290AD15CF8905F2D0730
:1032800063D000F1480509E0016E41F008015FE0FC
:103290005CF8985F2D0758D000F14C05DCF8004031
:1032A000D5F800E0C4F3012C0CEBCC045EF83450EC
:1032B00015F0804555605EF8345025F0604608BF33
:1032C000C5F38A4616605EF8345005F000559560E7
:1032D0005EF834500EEBC40E05F000441461BEF8E5
:1032E0000440D461DEF8044014F47024D460DEF8A5
:1032F000044004F480145461DEF8044004F4001423
:1033000094619EF8074004F07F041462DEF80440E4
:103310004FEAD47454620FD04CF258450EF1080EA7
:103320000024C0F6010500BF1EF804601E55D689B2
:103330000134AE5DB442F7D3006840290CBFC0F839
:1033400094C0C0F89CC0002070BD016E41F4807133
:103350000166012070BD70472DE9F04F83B004462F
:103360000068016D426D056DD0F85480D0F850A012
:10337000476D036D01EA02090293436D0193036DEA
:103380000093D0F854B0036D5B0644BF416D5FEA13
:1033900041616CD4016D05EA0806C90509F4E055E0
:1033A00044BF416D5FEAC15168D407EA0A0706F0DD
:1033B00007062DB12068626E0565204629469047B4
:1033C00007F038052EB12068A26E0665204631460A
:1033D00090472DB12068E26E05652046294690474A
:1033E0002068016D890544BF416D5FEA815151D468
:1033F000016D090644BF416D5FEA016152D4016D60
:10340000890444BF416D5FEA814157D4016D0904CD
:10341000009901EA0B0544BF416D5FEA014156D4B2
:10342000016DDDE90132490402EA030205F460217D
:1034300044BF436D5FEA434352D402F4710521B1A6
:103440000165D4F88C202046904725B12068056599
:10345000206E28432066206E30B1D4F888102046B4
:1034600003B0BDE8F04F084703B0BDE8F08F40213E
:103470000165E16F2046884720688BE74FF4807331
:10348000D0F8D810D0F8E0200365A36F1140204693
:1034900098478AE74FF400710165216F20468847FD
:1034A0002068A5E78023D0F8D410D0F8DC2003658D
:1034B000636F1140204698472068A0E74FF4005101
:1034C0000165D4F880102046884720689EE74FF4B5
:1034D00000410165D4F884102046884720689FE7A2
:1034E0004FF480430365236E43F080032366A4E713
:1034F00070B5002862D0044690F85C0000284AD1DC
:10350000002043F6850184F85D0043F6BD00C0F657
:10351000000143F6870243F6BF03C0F60000C0F681
:103520000002C0F60003A166D4F8901043F6BB0574
:1035300043F6B90C43F2573E43F6B7066066E266BF
:10354000236743F6B50043F2652243F26723C0F6D2
:103550000005C0F6000CC0F6000EC0F60006C0F66E
:103560000000C0F60002C0F600036567C4F878C02A
:10357000C4F87CE0C4F88060C4F88400C4F88820F3
:10358000C4F88C3029B943F26371C0F60001C4F865
:103590009010204688472068816921F010018161E0
:1035A00000F096FC054600BF20688169090707D531
:1035B00000F08EFC401B0B28F6D312E0012070BDFA
:1035C000816941F00101816100F082FC054600BF84
:1035D00020688169C9070BD100F07AFC401B0B28D9
:1035E000F6D3206E032140F0010020660120B5E0F3
:1035F000826946F2004CC4F2000C42F002026045BF
:10360000826102D16268CCF80021227C8369012AA0
:1036100023F0400318BF40338361627C8369012A31
:1036200023F4804308BF03F580438361A27C836950
:10363000012A23F4805318BF03F580538361826904
:1036400022F44076D4E9022316438661866926F087
:10365000A4068661066926F0100606619BB1012B5F
:103660000DD0022B09D08669032B46F080068661B7
:10367000066946F01006066105D1202300E0042308
:10368000866933438361D4E90563D4E907516FF058
:10369000FF0E013B0EEB052545EA4363002501398A
:1036A000CFF6FF75194305EB06431943B2F5407F8A
:1036B000C1610FD104F124064ECE013A0EEB032373
:1036C0001A436FF00F0303EB06131A4305EB014196
:1036D0001143C160D4E90D13E26BD0F8C0603243EE
:1036E000C0F8C0200CF580660CF58042B04204BFE3
:1036F0004AF25072C4F200020CF50066B04208BFF4
:1037000002F5D4622264D0F8806026F4F81646EA06
:103710000141C0F8801002F170016164D0F880109E
:1037200021F0706141EA0361C0F8801002F1B0003D
:10373000A06402F5C470E06402F51870206502F51B
:103740001E70606502F55470002100BF42F8041B32
:103750008242FBD300200121A065206684F85C1022
:1037600070BD10B59AB00446684604305021FDF78C
:1037700046F8206846F60001C4F20001884243D1B1
:103780004FF4805000904FF080700E90684600F02B
:10379000BBFF08B1FEF71BF941F24C00C4F2020076
:1037A000C16841F00071C160C16801F000711591FC
:1037B0001599016841F002010160006815A900F047
:1037C0000200159015984FF4405015900220169065
:1037D00000201790032018900920199040F2004013
:1037E000C4F6000000F08EFA56200021002200F0FE
:1037F000D3FE562000F0BEFE57200021002200F02C
:10380000CBFE572000F0B6FE1AB010BD82B190F882
:103810005C30012B09D106290AD8DFE801F0041930
:103820001B1E2113160002671CE090F85C302BB1C0
:10383000016E41F48071016601207047062904D0B1
:103840000529F5D1C0F890200CE0C0F8942009E0DB
:10385000C26707E0C0F8802004E0C0F8842001E0DF
:10386000C0F888200020704731B190F85C20012A10
:1038700002BF816600207047016E41F480710166CD
:10388000012070477047704790F85C1001290AD1F9
:10389000022180F85C1001688A6922F001028A61C5
:1038A0000021016604E0016E41F00401016601217E
:1038B00008467047704770477047704770477047B9
:1038C0002DE9F04740F23439C2F2000999F800209E
:1038D000012A01D102265EE00546012089F8000098
:1038E0004FF47A708846FEF7F3F8064600284FD169
:1038F00042F200040020C4F20204C9F80400206867
:103900002168490502D4C0F3402009E0216810F481
:1039100000704FF0030021F4806108BF0220216095
:1039200089F81C00286801280DD16868FEF790F816
:103930004FF47A70FEF7CCF80646606948F204014D
:103940008843606122E04FF0FF30C8F80000D5E9FD
:1039500002703844874215D240F2FA3A6968384614
:10396000FEF792F84FF47A70FEF7B2F861690646F6
:1039700021EA0A0060613EB9D5E902010137084435
:103980008742EBD3002601E0C8F80070FEF730F85C
:10399000002089F800003046BDE8F08770B5416826
:1039A00042F2200CC4F2020C04294FF006021DD88A
:1039B00003291BD007220429026017D80CF10C033D
:1039C000DFE801F00B03061409000CF1100304E01A
:1039D0000CF12C0301E00CF130031968072201F00F
:1039E0007F0181601968C1F30641C160DCF80010F5
:1039F000C9B20B46AA2918BFBB23CC2908BF0B4666
:103A00000361DCF80010C36921F0FF015D1E012D88
:103A1000816171D8083200210260C4F20101096895
:103A200047F2E056C1F6FF76C905348840F200013E
:103A3000C0F604014FF6FF7509D4AC424FF0006E9A
:103A400010D034684FF0006164F358210AE0AC42B2
:103A500005D031684FF0006E61F3582E00E08E46BD
:103A60004FF00061DCF8004064020DD4022B1FD03F
:103A7000012B3BD1DCF804104FF0006661F3121605
:103A80000662DCF808601CE0022B1FD0012B2DD150
:103A9000DCF804104FF6F874C0F2030404EAC10124
:103AA00071440162DCF8081004EAC10171441CE0B1
:103AB000DCF824104FF0006661F312160662DCF8A1
:103AC00028604FF0006166F312110EE0DCF824600C
:103AD0004FF6F875C0F2030505EAC6060E44066205
:103AE000DCF8286005EAC60631444162DCF80810BB
:103AF00001F000411943C16102F110010160DCF8DD
:103B00005030C16A03F480334E1E012E83620ED8FA
:103B100030320129026005D0022918BF70BD0CF1B6
:103B2000540101E00CF150010968C9B2016370BD94
:103B300040F23430C2F200004068704742F2140094
:103B4000C4F20200016841F0004101600068C04316
:103B5000C00F70472DE9F04381B040F23438C2F213
:103B60000008144698F80020012A01D1022052E0F2
:103B70000546012088F800004FF47A701F460E4673
:103B8000FDF7A6FF002843D142F21409C4F202094E
:103B90000020C8F804000DB3681E022834D2D9F8FA
:103BA000000040F48020C9F80000EFF31080EFF32C
:103BB000108172B6402100BF54F8042B01390B0666
:103BC00046F8042BF8D180F310884FF47A70FDF793
:103BD0007FFF022D1CD16FF480210FE0D9F8000087
:103BE00040F00100C9F8000034604FF47A70BFF370
:103BF0006F8F7760FDF76CFF6FF00101D9F800203F
:103C00001140C9F8001003E04FF47A70FDF760FF2F
:103C1000002188F8001001B0BDE8F08342F20800EE
:103C2000C4F20200C168B1F1FF3FC4BF0020704779
:103C300040F22311C4F26751016048F6AB11CCF693
:103C4000EF510160C068C00F704710B370B50446F3
:103C500090F8310028B9002084F83000204600F0A8
:103C600022F80025202620466560E560258284F83C
:103C70003360C4E905552562A58384F83260FDF7F9
:103C800053FF012807D1606BA02640F010010120EE
:103C900003E00120704700210020616384F8316057
:103CA00084F8305070BD81B041F24801C4F2020185
:103CB000006801F56E72904208D1086840F010006B
:103CC0000860086800F010000090009801B070478C
:103CD00080B584B0ADF80E00AFF30080BDF80E10D3
:103CE000684606F0AFFC0BF02DFB04B080BD40F23F
:103CF0001441C4F201010A68024214BF086070470F
:103D0000FFF7E6BF2DE9F04F82B00D68002D00F0FF
:103D1000C98041F2004400F13847C4F6000406228D
:103D20004FEAB726A04208BF0522052E38BF4FEA4A
:103D3000B722002401274FF0000E0026009200BF9A
:103D400007FA06FB15EA0B0800F0A280D1F804A0E0
:103D500003220AF0030CACF10105A240012D6FEA29
:103D600002090FD88268CD6802EA0902A5402A43F9
:103D700082604268CAF3001522EA0B02B5402A436A
:103D8000426005E0BCF1030F02D14FF0030C21E0CB
:103D9000C2688D6802EA0902A5402A43BCF1020FFD
:103DA000C26017D16FF0030202EA560202440EF01D
:103DB0001C030F25D2F820C005FA03FA0D692CEA7E
:103DC0000A0C05FA03F343EA0C031362D1F804A0CA
:103DD0000AF0030C02680CFA04F302EA09021A431F
:103DE0001AF4403F026053D041F26003C4F2020370
:103DF0001A6840F2004942F001021A601A68C4F2DF
:103E0000010902F001020192019A26F003024FF625
:103E1000084A4A44CFF6FF7A52F80AC00EF00C0561
:103E20000F23009FAB402CEA030307FA05F52B4351
:103E300042F80A30D9F808C04B684CEA0805DA02A3
:103E400058BF2CEA080540F20C4CC9F80850C4F2DF
:103E5000010CDCF800209F0242EA080558BF22EA64
:103E60000805CCF80050D9F804209D0342EA080761
:103E700058BF22EA0807C9F80470D9F80020DB030C
:103E800042EA080758BF22EA0807C9F8007001276C
:103E90000D68013635FA06F20EF1040E04F1020443
:103EA0007FF44EAF02B0BDE8F08F0069084018BF44
:103EB00001207047426902EA0103914341EA03414C
:103EC000816170471823002A08BF2823C15070471A
:103ED00080B540F25830C2F200004068804700B11F
:103EE00080BDBDE8804012F0B7BD90F84120202A87
:103EF00003D190F84020012A01D1022118E02422A8
:103F000080F841200268136823F0010313601368EE
:103F100023F480531360136819431160116841F052
:103F200001011160202180F84110002180F840102B
:103F30000846704790F84120202A03D190F840208D
:103F4000012A01D1022117E0242280F841200268D1
:103F5000136823F001031360136823F4706343EACA
:103F600001211160116841F001011160202180F8E8
:103F70004110002180F84010084670477047704794
:103F8000D0F800C0DCF81830DCF80020D90502F0C9
:103F9000800208D53AB1416C41F0010141644FF40F
:103FA0008071CCF81C10590508D53AB1416C41F02C
:103FB000080141644FF48061CCF81C10990508D5C4
:103FC0003AB1416C41F0020141644FF40071CCF808
:103FD0001C10416C11F00B0F08BF704702F0BDBD03
:103FE0000268436B9169126803B1184770477047C4
:103FF00000285DD070B5044690F8410000283FD1FC
:10400000002044F2252184F8400044F26520C0F6E7
:10401000000144F23352C0F60000C0F600022165F0
:10402000616F44F2315344F2212C44F2554E44F274
:10403000534543F6EF76E064626543F67D7043F6E0
:104040007F72C0F60003C0F6000CC0F6000EC0F68A
:104050000005C0F60006C0F60000C0F60002A36529
:10406000C4F85CC0C4F860E0C4E91956E066226791
:1040700021B944F25741C0F60001616720468847E4
:10408000242084F84100D4E90003D4E90212066830
:1040900023F0706326F00106066003618368012A3D
:1040A00023F40043836005D141F40041816009E0BD
:1040B0000120704741F40441022A816004BF4FF49B
:1040C00000614160416804F1100641F0007141F463
:1040D00000414160C16821F40041C1604ECE1143EE
:1040E00041EA0321C160216A31430160016841F066
:1040F0000101016000202021606484F841102063E8
:1041000084F8420070BD00002DE9F04F83B00446F2
:104110000020029094F84100202808D120688A46A7
:104120008169090403D494F84010012903D10220C5
:1041300003B0BDE8F08F012184F84010242184F8F9
:104140004110002161640A21D14661F39F2948F2A0
:1041500008011D46904661F39F2A5F1CE168012912
:10416000494608BF51464160FFF7B2FE2168064646
:104170008A698B6902F0200203F01003D2180FD174
:1041800037B1FFF7A5FEADB3801BA84232D8216836
:1041900088698A6900F0200002F010028018EFD0D0
:1041A000D1F818B02046202100222B46009603F0BB
:1041B000B1F95FEACB6129D548BB20681021C16104
:1041C0002021C161029941450ED14168002241F48C
:1041D00080414160204620212B46009603F09AF949
:1041E000A8B920682021C161029901310291029988
:1041F0004145B3D3202084F84100606C40F020009A
:1042000060640120002184F8401091E708B101208A
:104210008EE720682021C16184F841100020F1E779
:104220007047000080B586B00590AFF30080059917
:1042300002A805F0B3FE0AF077FC8DF813009DF894
:1042400013001F2801D1FFE70AE09DF813000AF0D0
:104250001BFA8DF807009DF8070005F083FEFFE7C5
:1042600006B080BD80B586B00590AFF3008005999B
:1042700002A805F093FE0AF057FC8DF813009DF894
:1042800013001F2801D1FFE731E09DF813000AF069
:10429000FBF98DF807009DF8070000EB800040F661
:1042A000A031C2F2000101EBC00008300BF080FB2E
:1042B00028B9FFE79DF8070005F054FE17E09DF8C8
:1042C000070040F6A031C2F2000101EB8000D0F8F7
:1042D000A400009000989DF8072002EB820201EBF9
:1042E000C20359799A689B8900F003F8FFE706B08A
:1042F00080BD2DE9F04381B0044690F841002028AC
:1043000008D10D4621688869000403D494F8400060
:10431000012804D10226304601B0BDE8F083012017
:1043200084F84000222084F84100102084F84200E4
:1043300000206064002047F25708CFF6FF70C0F6F7
:10434000000862626385E062C4F83480608DB0F575
:10435000807F04D3FF2323854FF0807904E0638DB1
:1043600023857BB34FF00079E06BE8B146F63B273D
:1043700046F6292CC0F60007C0F6000C00262431B2
:10438000C0E90B76C0E90DC6FEF769FDA8B3202091
:1043900084F8410084F84260606C40F01000606472
:1043A00084F840600126B6E7202084F84100002010
:1043B00084F84200616C012641F08001616484F858
:1043C0004000A8E747F29910C0F600006063486813
:1043D00049F60002CFF600426FF39F2510402844B3
:1043E00040F0007040F410500026486084F84060AF
:1043F000086840F0F20008608DE7208D22686FF3B6
:104400009F25C1B245EA0141636B576849F6000533
:10441000CFF6004541EA09012F40394341F41051DC
:104420005160618D081A608584F84060106847F219
:10443000EF21C0F6000140F090078B4208BF3846DC
:10444000434508BF38461060106840F400401060D3
:1044500061E7704770472DE9F0439BB0044601A81F
:1044600004305021FCF7CBF9206848F20041C4F237
:104470000001884259D14FF40030019001A800F0AA
:1044800043F908B1FDF7A3FA41F24C06C4F2020663
:10449000306840F2004440F0040030603068C4F6F8
:1044A000000400F0040016901698306816AD40F035
:1044B0000200306030684FF0120800F002001690E1
:1044C00016984020169008204FF0010903271A90F3
:1044D00004F580602946CDF85C80CDF8609019978E
:1044E000FFF710FC802016A981E801032046294629
:1044F000CDE91977FFF706FC3069002140F0020092
:1045000030613069002200F00200009000985220D3
:1045100000F042F8522000F02DF853200021002234
:1045200000F03AF8532000F025F81BB0BDE8F08306
:104530007047704780B542F20000C4F20200016883
:1045400041F480710160032000F051F80F2000F069
:1045500007F808B1012080BD00F00BF8002080BDF5
:1045600080B540F25830C2F2000000688047002059
:1045700080BD704700280ED4C1B200F01F00012298
:1045800002FA00F04EF20012CEF2000242EAD1012D
:1045900021F003010860704710B54EF60C5CCEF2B6
:1045A000000CDCF80030C3F3022E8EF00704042C5C
:1045B00028BF0424BEF103034FF0FF3E0EFA04F4BB
:1045C00038BF0023A14399400EFA03F39A431143E5
:1045D00000F00F0200F160430901043A03F564435F
:1045E0006244002848BF02F10C03197010BD4EF65A
:1045F0000C51CEF200010A684FF6FF031A4060F337
:104600000A2242F0806040F0FD70086070470000B0
:10461000B0F5007F34D000286AD147F2000CC4F214
:10462000000CDCF80010DCF8802001F4C06122F4FA
:104630008072B1F5806FCCF8802062D1DCF8001078
:10464000012262F34A21CCF8001040F27C11C2F240
:1046500000010968322359434DF68363C4F21B33CA
:10466000A1FB031302EB9341002200BFDCF814000E
:10467000013942F10003400533D5002BF6D130E07B
:1046800047F2000CC4F2000CDCF80010DCF88020CB
:1046900001F4C06142F48072B1F5806FCCF88020E3
:1046A0002FD1DCF80010012262F34A21CCF800106F
:1046B00040F27C11C2F200010968322359434DF6E1
:1046C0008363C4F21B33A1FB031302EB934100226B
:1046D000DCF81400013942F10003400501D5002B3C
:1046E000F6D1DCF81400400544BF0320704708E011
:1046F00047F20000C4F200000168022262F34A217E
:1047000001600020704700002DE9F04182B00446AE
:10471000807841F20C060007C4F2020601D40020A2
:104720004FE0F06C10F0805808D1F06C40F08050F1
:10473000F064F06C00F080500190019847F200079F
:10474000C4F20007386840F480703860FFF7C0FB9F
:10475000054600BF3868C00506D4FFF7B9FB401B0B
:104760000228F7D9032025E0D6F8840010F4407021
:1047700017D0216D884211D0D6F88400D6F8841065
:1047800020F4407041F48031C6F88410D6F88410CB
:1047900021F48031C6F88410C6F88400C00740F0C8
:1047A000E880D6F88400216D20F440700843C6F8F4
:1047B00084000020B8F1000F03D1F16C21F080518A
:1047C000F1642168CA0705D0F26F636822F0030222
:1047D0001A43F2678A0705D5F26FA36822F00C022C
:1047E0001A43F2674A0705D5F26FE36822F03002F8
:1047F0001A43F2670A0705D5F26F236922F0C00257
:104800001A43F267CA0605D5F26F636922F4407253
:104810001A43F2678A0605D5F26FA36922F4406253
:104820001A43F2674A0605D5F26FE36922F4405253
:104830001A43F2670A0605D5F26F236A22F4404252
:104840001A43F267CA0505D5F26F636A22F4403253
:104850001A43F2678A0307D5D6F89020A36A22F09C
:1048600003021A43C6F890208A0505D5F26FE36A61
:1048700022F440221A43F2674A050CD5F26F236BEB
:1048800022F440121A43B3F5801FF26703D1326855
:1048900042F4801232600A050CD5F26F636B22F489
:1048A00040021A43B3F5800FF26703D1326842F435
:1048B00080123260CA040CD5F26FA36B22F04072F2
:1048C0001A43B3F1807FF26703D1326842F4801259
:1048D00032608A040CD5F26FE36B22F040621A4317
:1048E000B3F1006FF26703D1326842F48012326094
:1048F0004A040CD5F26F236C22F040621A43B3F1E4
:10490000006FF26703D1326842F4801232600A0409
:104910000CD5F26F636C22F040521A43B3F1805F02
:10492000F26703D1326842F480323260CA030CD598
:10493000F26FA36C22F040421A43B3F1804FF2674A
:1049400003D1326842F48032326049030ED5D6F882
:104950009010E26C21F440111143B2F5001FC6F82B
:10496000901003D1316841F48011316002B0BDE88C
:10497000F081FFF7ADFA054641F28837D6F884009A
:1049800080073FF50EAFFFF7A3FA401BB842F5D9F9
:10499000E8E600002DE9F04700285CD042F2000A6A
:1049A000C4F2020A0446DAF800000D4600F00F00D7
:1049B00088420CD2DAF8000020F00F002843CAF831
:1049C0000000DAF8000000F00F00A84243D1206890
:1049D00041F20808C107C4F2020802D1810778D465
:1049E00090E06168022932D0032937D158F8081CB9
:1049F000890130D5D8F80410D8F8041042F20042EA
:104A0000C1F30311D8F804300131C0F2F402B2FB53
:104A1000F1F1C3F30622D8F804305143C3F34162E5
:104A2000022303EB4202B1FBF2F14BF20042C0F26F
:104A3000C442914208D9D8F8001011F0F00F19D0F3
:104A4000800701D5A068A8B14FF000091BE058F815
:104A5000080C800306D40120BDE8F08758F8080C44
:104A60004005F8D500F0A1F84BF20041C0F2C44176
:104A70008842E9D9D8F80000082161F307104FF007
:104A80000109C8F80000D8F80000616820F00300B0
:104A90000843C8F80000FFF71BFA064641F28837C2
:104AA000D8F80000616800F00C00B0EB810F05D071
:104AB000FFF70EFA801BB842F2D940E02068810768
:104AC00007D4B9F1000F1DD0D8F8001021F0F00183
:104AD00016E0410705D5D8F8001041F4E061C8F8A8
:104AE0000010010706D5D8F80010072262F30D2147
:104AF000C8F80010D8F80010A26821F0F0011143A6
:104B0000C8F80010DAF8001001F00F01A9421AD914
:104B1000DAF8000020F00F002843CAF80000FFF781
:104B2000D7F9064641F28837DAF8000000F00F00A6
:104B3000A84207D0FFF7CCF9801BB842F4D9032074
:104B4000BDE8F0872068410707D5D8F80010E26873
:104B500021F4E0611143C8F80010000708D5D8F827
:104B60000000216920F4605040EAC100C8F800004C
:104B700000F01BF8D8F800104BF69462C1F3031153
:104B8000C0F60102515C40F27C1201F01F0120FAD4
:104B900001F140F26030C2F200000068C2F200028F
:104BA0001160BDE8F047FFF7DBBC41F20801C4F239
:104BB0000201086800F00C00042842F20040C0F234
:104BC000F40008BF70470A6802F00C02082A19D0E6
:104BD0000A6802F00C020C2A1CBF002070474A68C9
:104BE0004A684B68C2F303120132B0FBF2F0496825
:104BF000C3F306225043C1F34161022202EB41019B
:104C0000B0FBF1F0704700002DE9F04182B00028C0
:104C100000F001810446007841F20006C007C4F2AA
:104C2000020654D12078800772D42078000700F162
:104C300095802078400700F1B3802078800600F14D
:104C4000FF80E069002840D0B16801F00C010C2918
:104C500040F04C81012800F0DE80F068216A00F00D
:104C600003028A4240F0D780626A6FF00F0300F0BF
:104C7000F00103EB0212914240F0CD80A16A00F4F2
:104C8000FE42B2EB012F40F0C680E16A00F07842AC
:104C9000B2EBC16F40F0BF80226B0023CFF6E07310
:104CA00003EA025200F4C001A2F50012914240F062
:104CB000B280616B4FF07E4202EA016100F0C06099
:104CC00001F17E41884240F0A68000205EE1B0689C
:104CD00000F00C01F068082959D0032281F00C0182
:104CE00022EA00000844B0FA80F040094FD1606821
:104CF000B0F5803F07D0B0F5A02F40F0CC803068F1
:104D000040F480203060306840F480303060CDE086
:104D1000B068F16800F00C00042866D001F00301CF
:104D200080F00C0081F002010844B0FA80F04009E4
:104D30005BD1E1683068002900F0C68040F48070E3
:104D40003060FFF7C5F805463068400500F1E480A3
:104D5000FFF7BEF8401B0228F6D916E16169D6F8C4
:104D60009400002900F0858040F00100C6F894000E
:104D7000FFF7AEF8054600BFD6F8940080073FF570
:104D800058AFFFF7A5F8401B0228F5D9FDE03068C1
:104D900080037FF547AF606800287FF443AF3AE0B7
:104DA000B06D10F0805808D1B06D40F08050B06503
:104DB000B06D00F080500190019847F20007C4F2F6
:104DC00000073868C00528D4386840F4807038601F
:104DD000FFF77EF8054600BF3868C0051DD4FFF711
:104DE00077F8401B0228F7D9CFE03068400501D59D
:104DF000E06880B17068216920F0FE4040EA0160FF
:104E0000706040F26030C2F200000068FFF7A8FB5B
:104E100000283FF40AAF0120B8E0A068012808D0BC
:104E2000052840F09680D6F8900040F00400C6F8BF
:104E30009000D6F8900040F00100C6F8900095E090
:104E4000A169D6F8980000296ED040F00100C6F89C
:104E50009800FFF73DF80546D6F8980080073FF523
:104E6000F0AEFFF735F8401B02284FF00300F3D9EE
:104E70008CE020F00100C6F89400FFF729F8054601
:104E8000D6F8940080077FF5D4AEFFF721F8401BD9
:104E90000228F5D979E03168002821F480313160A9
:104EA000316821F48021316000F08E80FFF710F826
:104EB000054600BF306880033FF5B4AEFFF708F841
:104EC000401B6428F6D960E020F480703060FEF763
:104ED000FFFF0546306840057FF5A7AEFEF7F8FFF7
:104EE000401B02284FF00300F4D94FE0316802283C
:104EF00021F0807131604CD1FEF7EAFF054600BF1A
:104F00003068800140F18B80FEF7E2FF401B0228F1
:104F10004FF00300F4D939E07068216920F0FE40B9
:104F200040EA0160706080E620F00100C6F8980059
:104F3000FEF7CEFF054600BFD6F8980080077FF544
:104F400080AEFEF7C5FF401B02284FF00300F3D9E7
:104F50001CE0D6F8901021F00101C6F89010D6F8A8
:104F6000901021F00401C6F89010E8B3FEF7B0FFEE
:104F7000054641F2883700BFD6F89000800745D437
:104F8000FEF7A6FF401BB842F6D9032002B0BDE8E9
:104F9000F081F0684FF6FF7120F00300F060F068D8
:104FA000CFF6EE610840F060FEF792FF044600BFC6
:104FB000306880017FF589AEFEF78AFF001B02286A
:104FC0004FF00300F4D9E1E7FEF782FF054600BF8A
:104FD000306880037FF526AEFEF77AFF401B642819
:104FE0004FF00300F4D9D1E7FEF772FF054641F216
:104FF000883700BFD6F89000800707D5FEF768FF16
:10500000401BB8424FF00300F4D9BFE7B8F1000FDE
:105010007FF413AEB06D20F08050B0650DE6F068FF
:1050200048F20C01C0F29F1104F1200700EA010CC4
:105030008ECF6FF00F00D4E90C5400EB0210002269
:10504000CFF6E07241EA0C0102EA05520843A2F5EC
:1050500000124FF07E4540EA032005EA0465104344
:1050600005F17E4540EAC7602843F060306840F0B3
:1050700080703060F06840F08070F060FEF728FFCC
:105080000446306880013FF520AEFEF721FF001B8B
:1050900002284FF00300F4D978E7D0B110B50446E8
:1050A000407A20B900202072204600F014F8022037
:1050B0006072D4E90001026822F008021143016025
:1050C000016841F004010160012060720020E0608D
:1050D00010BD0120704710B596B0044601A80430F9
:1050E0005021FBF78CFB206840F60001C5F2060159
:1050F000884215D14FF48040019001A8FFF704FBCE
:1051000008B1FCF764FC41F24C00C4F202000168F3
:1051100041F080610160006800F0806000900098BC
:1051200016B010BD7047704770477047F0B590F8E3
:105130003C20012A01D102216BE0D1E90232D1E900
:1051400000CE22F47C5223F470531A4348F2FF73CA
:10515000CFF6F07303EA0E0342EA030E0A692CF459
:1051600077234EEA030C22F476224B6942EA0C02C2
:105170001A430B6B22F4742C23F470238A6943EADC
:105180000C0343EA0243026842F6004EC4F2010EE9
:1051900045F2000C7245C4F2010C18BF624520D1E3
:1051A000CC6923F080532343724518BF62451FD159
:1051B00001F12006002770CECFF6F04723F07C7374
:1051C00007EA0656334324F000742343724543EA4A
:1051D000050318BF624512D1C96A23F000530B437F
:1051E00013E043F20044C4F20104A242D8D0DBE74A
:1051F00043F20044C4F20104A242D9D005E043F2D4
:105200000047C4F20107BA42E6D00021536480F897
:105210003C100846F0BD000070B590F83C30012B02
:1052200001D1022164E013680F2B15DC5D1E072DF0
:105230003BD84FF0090E4FF0000C4FF40074DFE83C
:1052400005F03A04341B343434224FF00A0E4FF088
:10525000010C4FF480642EE03F2B06DC102B19D09C
:10526000202B22D14FF0050C1DE0402B19D0802BB4
:105270001BD14FF0070C16E04FF00B0E4FF0020C55
:105280004FF4006417E04FF00C0E4FF0030C4FF496
:10529000805410E04FF00D0E4FF0040C4FF400540A
:1052A00009E04FF0060C002403E0002300244FF037
:1052B000000C4FF0000E022904D0012914D101681E
:1052C000603101E0016864310D68D2E901629D43FB
:1052D00006FA0CF633402B4402FA0EF2A3432240A6
:1052E0001A440A60002100E00121002280F83C20DD
:1052F000084670BDB0B5044690F83C00012804BFD4
:105300000220B0BD0D462068D1E90021AB684FF006
:10531000010C84F83CC002F01CFF2068816DD5E9C7
:10532000042321F0E7012D7B19431143012D08BF10
:1053300041F0200141F001018165002084F83C002A
:10534000B0BD70470168886D20F0010200208A65B9
:1053500070470168086840F4805200200A60704776
:105360007047704770B590F83C20012A4FF0020258
:105370005FD080F83D20026842F600435468D2F8BE
:1053800008C0C4F2010345F2000E9A42C4F2010EB5
:1053900018BF724528D14D6824F470042C434FF691
:1053A0008F75CFF6FF550E682C4042F6FF35C4F2DC
:1053B00001053443AA4254600BDC40F2FF73C4F28F
:1053C00000039A4217DCB2F1804F27D040F200432D
:1053D00019E043F6FF74C4F20104A24216DC9A42BB
:1053E0001CD043F2004315E043F20045C4F201052E
:1053F000AA42D0D0D3E740F60003C4F200039A4299
:105400000CD040F60043C4F2000305E0724505D01D
:1054100044F20003C4F201039A4204D189682CF0DB
:105420008003194391600121002280F83D1080F82B
:105430003C20104670BD7047002800F09C8070B57D
:10544000044690F83D00002873D1002084F83C0009
:1054500046F6950046F69701C0F60000C0F600013A
:1054600046F6C71246F24B4546F24B66C0F60002BE
:1054700045F6D95C45F6DB5EC0F60005C0F60006D1
:10548000C4F88400C4F8881046F24D6045F6B35164
:1054900046F6C913C0F6000CC0F6000EC4F88C2006
:1054A000C4E92756C0F60000C0F6000145F22912F3
:1054B00045F22515C0F60003C4F894C0C4F898E07E
:1054C000C0F60002C0F6000545F2613C45F2433EDD
:1054D000C4F8A400C4F8A81004F1B800E16CC4F842
:1054E000903045F22B1345F22716C0F6000CC0F69B
:1054F000000EC4F8AC2080E8205045F2633045F23D
:105500003742C0F60003C0F60006C0F60000C0F641
:105510000002C4F8B030C4F8B460C4F8C400C4F8E1
:10552000C82021B945F27B51C0F60001E164204654
:105530008847022084F83D002068211D02F070FD9C
:10554000012084F8480084F83E0084F83F0084F885
:10555000400084F8410084F8420084F8430084F855
:10556000440084F8450084F8460084F8470084F835
:105570003D00002070BD0120704770B586B0044624
:1055800001A81421FBF73BF9206840F20041C4F266
:10559000000188424CD044F20001C4F2010188426B
:1055A00000F0898042F60041C4F20101884240F0D7
:1055B000808041F24C00C4F20200416941F4006174
:1055C0004161416901F4006100910099016841F075
:1055D00002010160006801A900F00200009000983B
:1055E0004FF480600190122002900120039000206F
:1055F00004900C20059040F20040C4F60000FEF735
:1056000081FB182000210022FEF7C6FF1820FEF7BC
:10561000B1FF1A2000210022FEF7BEFF1A20FEF77C
:10562000A9FF1B2000210022FEF7B6FF1B203EE051
:1056300041F24C00C4F20200C16801AC41F0020129
:10564000C160C168022501F0020100910099016862
:10565000002641F001010160016801F001010091A3
:105660000099016841F0020101600068214600F0E4
:10567000020000900098102001904FF09040029599
:10568000CDE903660595FEF73DFB112001A961C137
:1056900040F20040C4F600002146CDE90465FEF763
:1056A00031FB1D2000210022FEF776FF1D20FEF7B2
:1056B00061FF06B070BD41F24C00C4F202004169C6
:1056C000002241F4803141614069002100F48030C2
:1056D000009000981820FEF75FFF182006B0BDE884
:1056E0007040FEF747BF90F83D1001291CBF012014
:1056F0007047022180F83D10016842F6FF30C4F285
:10570000010081420BDC40F2FF70C4F200008142D4
:1057100014DCB1F1804F28D040F2004016E043F68F
:10572000FF70C4F20100814213DC42F60040C4F273
:105730000100814219D043F2004012E040F600001F
:10574000C4F20000814210D040F60040C4F20000D4
:1057500009E045F20000C4F20100814205D044F2A4
:105760000000C4F2010081420CD188680722C0F217
:1057700001020240062A4FF0000008D0B2F5803F37
:1057800008BF7047086840F00100086000207047BB
:1057900090F83D1001291CBF01207047022180F8BC
:1057A0003D10016842F6FF32C868C4F2010291421E
:1057B00040F00100C8600BDC40F2FF70C4F2000052
:1057C000814214DCB1F1804F28D040F2004016E055
:1057D00043F6FF70C4F20100814213DC42F6004040
:1057E000C4F20100814219D043F2004012E040F6B9
:1057F0000000C4F20000814210D040F60040C4F224
:10580000000009E045F20000C4F20100814205D029
:1058100044F20000C4F2010081420CD188680722E2
:10582000C0F201020240062A4FF0000008D0B2F593
:10583000803F08BF7047086840F001000860002002
:1058400070470146006841F21113026A1A4208D1FA
:10585000026A44F244431A4203D1026822F0010270
:1058600002600122002081F83D20704780B590F849
:105870003C20012A4FF0020200F0928080F83D2087
:10588000D0F800C08822DCF80830CFF6CE721A407B
:10589000CCF808200B68B3F5005F0CDA3F2B20DD55
:1058A0005F2B30DD602B7DD0702B00F09D80B3F539
:1058B000805F6ED0E0E02F22C0F21002934217DD2D
:1058C0004F21C0F210018B4245DD5021C0F2100182
:1058D0008B4252D06021C0F210018B424DD070211A
:1058E00047E01F2B3EDC002B47D0102B45D0C3E0F8
:1058F000B3F1101F3BDAB3F5005F00F08880B3F519
:10590000801F3AD0B8E0402B00F09480502B40F03C
:10591000B380D1F804E0C968DCF82030DCF820203E
:1059200022F00102CCF82020DCF8182022F0F0024E
:1059300042EA011123F00A0242EA0E02CCF81810E2
:10594000CCF82020DCF808104FF68872CFF6CF7222
:10595000114057311BE03021C0F210018B420CD0B6
:10596000402106E0202B08D0302B06D084E004D064
:105970002021C0F210018B427ED1DCF808104FF6D6
:105980008872CFF6CF721140194341F00701CCF86D
:1059900008100022012180F83D10002180F83C1001
:1059A000104680BDD1F804E0C968DCF8203023F04F
:1059B0001003CCF82030DCF81830DCF8202023F479
:1059C000704322F0A00243EA013142EA0E12CCF801
:1059D0001810CCF82020DCF808104FF68872CFF6AB
:1059E000CF7211406731D2E7D1E901E3C968DCF831
:1059F000082043EA0E0322F47F4243EA01211143C7
:105A0000CCF80810DCF8081041F07701BFE7D1E9C5
:105A100001E3C968DCF8082043EA0E0322F47F4260
:105A200043EA01211143CCF80810DCF8081041F4D6
:105A30008041ACE7D1F804E0C968DCF82030DCF83C
:105A4000202022F00102CCF82020DCF8182022F0DF
:105A5000F00242EA011123F00A0242EA0E02CCF8F7
:105A60001810CCF82020DCF808104FF68872CFF61A
:105A7000CF72114047318AE701228BE7002800F0FE
:105A8000B8802DE9F047044690F83D000D46002807
:105A900065D1002084F83C0046F6950046F6970153
:105AA000C0F60000C0F6000146F6C71246F6C9135C
:105AB00045F6D95C45F6DB5E46F24B4646F24B674F
:105AC00004F18408C0F60002C0F60003C0F6000C22
:105AD000C0F6000EC0F60006C0F6000788E80F50BA
