:020000040000fa
:020000040002f8
:10380000000c0000000000000000000000000000ac
:1038100000000000000000000000000000000000a8
:103820000000000000000000000000000000000098
:103830000000000000000000000000000000000088
:103840000000000000000000000000000000000078
:020000040000fa
:08000000002c040001000000c7
:020000040000fa
:020000040002f8
:10580000efac2000003f24000001880000000000f1
:105810000c000700800d2500110020001f0007006c
:10582000000020000000e000020032000000020042
:10583000000000007c4c0200010000000040da0083
:105840000000fe004440a900400220000000e000eb
:105850000300320020002000a00188004440a8007e
:1058600000000600f03fb1000180b10006003500e5
:10587000ee03090000000000403fb1000180b100cc
:10588000fbff3d001000b000203fb00002003500db
:10589000008009000000000000000600910188005f
:1058a000800078000000eb0015003700e280400027
:1058b00032a0b4009101ba00e280400032a0b400ee
:1058c0009102ba00e280400032a0b4000002eb0076
:1058d000472bde00f507b200602ce10004003a001f
:1058e0000059eb008301e900fdff3e000400370092
:1058f0006128e100010032000082eb000400070093
:105900001101ba000200e000e8ff3a0000000600c2
:105910003159ba008301e9000c0032002159ba0064
:105920008301e900080032000400e00003003a00af
:10593000e280400032a0b400f5ff370011d9ba0070
:105940008301e900faff3a008100e800e1804000ad
:1059500032a0b400000006003200f8009101880077
:10596000023b88000008bb000500fc005105200038
:10597000313b8800a10a2000313b880061e7a80084
:1059800000000000000000003200f90000000600e6
:105990000400a100010037000400a0003200f8005c
:1059a0009101880011002400013b8800f10f2000c4
:1059b0003208bb000400a700b20078000198bb00c9
:1059c0008301e900faff3a00680151000400a700d2
:1059d00068015100680050001208bb00e2ff370068
:1059e000f30f20003200f8009101880031002400fc
:1059f000013b88000208bb000388bb00daff3700c8
:105a00003200f800003b8800d7ff37003200f80072
:105a1000910188008002780062004000e080480028
:105a20003549ba003204e0000410a700100032002b
:105a30008301e9000e0032002549ba003204e0007b
:105a40000410a7000a0032008301e90008003200b8
:105a50000408a300eeff320015c9ba003204e000ca
:105a60000410a700020032008301e900e8ff3a00b9
:105a70003200f900000006006022b8000602200093
:105a80000000d0008180d2000482d2008582d20042
:105a90000000a0000202520083825a00030031007d
:105aa0000202420083824a000000a1000603e900ce
:105ab000f3ff3a0000000600889fbe008a9fbe00e8
:105ac000010578000100e0000400350008003c00fa
:105ad0000000e000200032000500370060001000e8
:105ae000e080180002003b0001f02c001a00370093
:105af0000004be006011b8006b0920000982cf00cd
:105b0000020039000882cf000441b000694252000f
:105b10000e00320008003b008281710061016400c8
:105b20008904d1000884d3008b05e8000442e80012
:105b3000f9ff3a00050037000804440089844c004e
:105b40008b05e9000442e900fbff3a00c8000700aa
:105b50000af0a70001f0a0004f05be004f04be00f0
:105b60000000060003f0a200889fbe008a9fbe00ce
:105b70008c1f7800e4000700eb0033006450e10064
:105b80004f0032006420e1005200320003826c00ba
:105b900007003b000905d0000306d000820f540027
:105ba0000c065d0002003900020032008901780015
:105bb000030678008582550004003d000003fd00c7
:105bc0008103fd008502ea008b854200840f72008c
:105bd00002003b0060001000e08018006011b80077
:105be0000005eb007a28e1000a0039000600780081
:105bf000c75ddd00f707b200878075002d00370014
:105c0000828171000a017800610560008180d10005
:105c10000080d3008502e900f9ff3b000604400044
:105c20008784480002003b0060041400e0841c00ec
:105c30000988a300070032008a8171008281710007
:105c4000610164008904d1000884d3008b05e80059
:105c5000170037000978a30013003a000b00e0009a
:105c6000130034008b05e9000804440089844c00cb
:105c70000a4474000978a3000d003a000b00e0000c
:105c8000070034008b05e9000804440089844c00b7
:105c900001003a000b0020000978a300f7ff320052
:105ca0000001eb0002003700828171000a017800d8
:105cb0006f0007000cf0a70001f0a000a300370060
:105cc0006420e10002003a00838f6c00a3003300df
:105cd0000801be000200be009c0037000001eb007e
:105ce000a1000700040032000200200003f8230096
:105cf00001f0a7009bff0700000006000001be00a6
:105d0000c00007000470a70003f0a10003f8a3007f
:105d100013003a006509b100100032000900350097
:105d20006928e1000200350001002800000005009c
:105d300000004000818048008502e900fcff3a0035
:105d400000000600f88f4200050035008100d100f8
:105d50000080d3008502e800fcff3a000000060046
:105d60008000eb0000000500889fbe008a9fbe00f7
:105d70008c1f7800640007006b00330003866c0002
:105d80006450e1002e0032006420e1003300320054
:105d90006150e1002f0032006120e100310032004b
:105da00085855500eb07b00009002000080420009d
:105db000050037000804440089844c000a003100c3
:105dc0000603430087834b000001530081815b0081
:105dd000f8ff33000203be000800a00008044400de
:105de00089844c00f6ff3900c639dd008301730059
:105df00001003200130020008904d1000884d30080
:105e00000998a300050032000800a7000300a000c5
:105e10008904d1000884d3008b05e8008904d100ef
:105e20000884d3000001eb000281d20010000700bb
:105e300001f0a1000cf0a70001f0a0004300370022
:105e40006420e100450032000801be000200be00ef
:105e5000f7ff37006120e100400032006000b80029
:105e6000f3ff37000000200001f82700f0ff3700a3
:105e700081002000618055000b003d000b002000d8
:105e800061fe2f000100e1001d00340082817100dd
:105e9000610164008904d1000884d3000000e80097
:105ea000faff3a00710020006100640003007000f6
:105eb000020060000900320061044400e0844c00ec
:105ec0000988a500050032008b05e8006808e1009c
:105ed00002003a008904d1000884d300f20f2000a8
:105ee0000258e10005003d00c75ddd00f907b20082
:105ef0008980750008007800000006000bf8270074
:105f00008b007800000005000004be003d00070083
:105f10000003be000405be000200be0039000700f9
:105f2000844f7500000006000200be006450e100ce
:105f3000050036006420e100020036000968a30075
:105f400001003a000800be000160a0004f06780082
:105f50004f05be004f04be0000000600f0ff2f00fa
:105f6000f1ff2700f9ff3700889fbe008a9fbe001f
:105f70000003be00230007008505780082815200df
:105f8000020020006220e10004003a00f307b100a3
:105f9000040035007718e100040035000600be005b
:105fa000140037006000b8000f003700f50f200024
:105fb000faff2f008502d1000a85d3008301e90092
:105fc000fcff3b008184620000046500890f7400bf
:105fd000f2ff32008582ea000a85ea0081846200cd
:105fe00000046500a2ff070007f0a70001f0a00071
:105ff0000081eb000200e0004f05be004f04be0030
:1060000000000600c70ade00f107b200f50fb2007b
:1060100008003200e1cf4200020032000170a0000f
:1060200024000500810f7000010032000408050003
:1060300044000500810f700002003a0014000500c2
:106040008502e9000000400081c04800fcff3b00e1
:106050000170a000240005008001eb000200370061
:10606000817178008301e800828f5100fcff3a00c3
:10607000000006008001eb000200370061f07900ab
:106080008301e800828f5100fcff3a000000060007
:020000040000fa
:0200000401f009
:04000000ffff0000fe
:020000040000fa
:0200000401f009
:04000400ffff0000fa
:020000040000fa
:0200000401f009
:04000800ffff0000f6
:020000040000fa
:0200000401f009
:04000c0078ff000079
:020000040000fa
:0200000401f009
:0400100058ff000095
:020000040000fa
:0200000401f009
:040014007fff00006a
:020000040000fa
:0200000401f009
:04001800ffff0000e6
:020000040000fa
:0200000401f009
:04001c00ddff000004
:020000040000fa
:100008002c5101002c5101002c5101002c510100f0
:100018002c5101002c5101002c5101002c510100e0
:100028002c5101002c5101002c51010064470100a2
:100038002c5101002c5101002c5101008a4701006c
:10004800b04701002c5101002c5101002c51010036
:100058002c5101002c510100ba3601002c5101002d
:100068002c5101002c5101002c5101002c51010090
:100078002c5101002c5101002c5101002c51010080
:100088002c5101002c5101002c510100d6470100d0
:10009800fc4701002c5101002c5101002c5101009a
:1000a8002c5101002c5101002c5101005a3601003d
:1000b8002c5101002c5101002c5101002c51010040
:1000c8002c5101002c5101002c5101002c51010030
:1000d8002c5101002c5101002c5101002c51010020
:1000e8002c5101002c5101002c5101002c51010010
:1000f8002c5101002c5101002c5101002c51010000
:100108002c5101002c5101002c5101002c510100ef
:100118002c5101002c5101002c5101002c510100df
:100128002c5101002c5101002c5101002c510100cf
:100138002c5101002c5101002c5101002c510100bf
:100148002c5101002c5101002c5101002c510100af
:100158002c5101002c5101002c5101002c5101009f
:100168002c5101002c5101002c5101002c5101008f
:100178002c5101002c5101002c5101002c5101007f
:100188002c5101002c5101002c5101002c5101006f
:100198002c5101002c5101002c5101002c5101005f
:1001a8002c5101002c5101002c5101002c5101004f
:1001b8002c5101002c5101002c5101002c5101003f
:1001c8002c5101002c5101002c5101002c5101002f
:1001d8002c5101002c5101002c5101002c5101001f
:1001e8002c5101002c5101002c5101002c5101000f
:0801f8002c5101002c51010003
:020000040000fa
:100208002c5101002c5101002c5101002c510100ee
:100218002c5101002c5101002c5101002c510100de
:100228002c5101002c5101002c51010064470100a0
:100238002c5101002c5101002c5101008a4701006a
:10024800b04701002c5101002c5101002c51010034
:100258002c5101002c510100ba3601002c5101002b
:100268002c5101002c5101002c5101002c5101008e
:100278002c5101002c5101002c5101002c5101007e
:100288002c5101002c5101002c510100d6470100ce
:10029800fc4701002c5101002c5101002c51010098
:1002a8002c5101002c5101002c5101005a3601003b
:1002b8002c5101002c5101002c5101002c5101003e
:1002c8002c5101002c5101002c5101002c5101002e
:1002d8002c5101002c5101002c5101002c5101001e
:1002e8002c5101002c5101002c5101002c5101000e
:1002f8002c5101002c5101002c5101002c510100fe
:100308002c5101002c5101002c5101002c510100ed
:100318002c5101002c5101002c5101002c510100dd
:100328002c5101002c5101002c5101002c510100cd
:100338002c5101002c5101002c5101002c510100bd
:100348002c5101002c5101002c5101002c510100ad
:100358002c5101002c5101002c5101002c5101009d
:100368002c5101002c5101002c5101002c5101008d
:100378002c5101002c5101002c5101002c5101007d
:100388002c5101002c5101002c5101002c5101006d
:100398002c5101002c5101002c5101002c5101005d
:1003a8002c5101002c5101002c5101002c5101004d
:1003b8002c5101002c5101002c5101002c5101003d
:1003c8002c5101002c5101002c5101002c5101002d
:1003d8002c5101002c5101002c5101002c5101001d
:1003e8002c5101002c5101002c5101002c5101000d
:0803f8002c5101002c51010001
:020000040000fa
:020000040002f8
:10609000400400000000000000000000ff1b0000a2
:1060a0000100000040040000001c0000010000008e
:1060b000ff2b00000100000017020000000000009c
:1060c000f800000017000000f800000000010000c8
:0860d0000203000007000000bc
:020000040000fa
:020000040002f8
:1060d8000800fa0030079800a09c2000e20a20007f
:1060e8008000eb00daff07003e0090000000e000af
:1060f800100032003e0090009000900021079800a8
:106108003e009000a0009000110798003e0090000b
:10611800b0009000010f78003e0090001000780059
:10612800504e88003e00900040009000604e88006d
:106138000a0037000000eb002007980060002000ec
:106148001007980060002000000f78001000200061
:10615800504e88000000eb00604e8800590507008b
:106168002c100700114020009140780080cfb30028
:1061780000c060000024a00001e4b7000140200036
:106188009140780000ceb30080c0600000c8b30022
:1061980080cf5000f9ff3a002e0090000603070058
:1061a8002e0307001e00780067406000674060000b
:1061b8004401dd00510b200091407800f0c8b30085
:1061c80000c0600002407000b5e0b7001e009000fb
:1061d8006740600067416000610a200091407800d4
:1061e80080cfb30000c0600002407000a6e0b70096
:1061f800114020009140780080cfb30000c06000bb
:1062080001e4b70000c4bf0001ceb3000140600044
:106218000004e000fbff3a000080fa0000000600de
:106228000000fa0081e3a8008de3a8000004a9009b
:106238009860a90095c0a900504e80000000e000b9
:106248000500320095c0a8000c04a8009860a800ba
:106258000a24a9000a04a9000080fa000000060028
:106268003000fa00400f9800520f9800630f980012
:10627800615f9800041798006000b800200f98002c
:10628800310f98006000b800000f9800110f9800b7
:106298006000b80060079800710798004e089000e9
:1062a800ef0f500003003c000e109000e20f50006a
:1062b80003003600100f200010179800fe0037006a
:1062c8000004a8004e0890000000400000004000b4
:1062d80080007800004420000080400050079800ab
:1062e8005e0090000080e8004007980040412000d0
:1062f800100798006e589000e14f500054003a0083
:106308005e089000ee089000f2ff2f0003002000c6
:10631800000278008102780002007800830078008b
:1063280000016200018062006102b8002417980031
:10633800351798002e109000be109000c000dd00a8
:106348000000200020179800311798002e109000a8
:10635800be1090006112b8002417980035179800f5
:106368002e119000be119000020070008380700012
:10637800000f9800110f98005e089000ee0890003a
:106388004088de00cf80de00630160006000b80056
:1063980003002000020070008380700060079800ee
:1063a800710798005e089000ee0890004288de00b1
:1063b800cf80de00f27f200003002000000278007a
:1063c80081027800020078008300780000016200f2
:1063d800018062006102b8004417980055179800c0
:1063e8004e109000de109000c000dd00000020007c
:1063f80040179800511798004e109000de1090003a
:106408006112b80044179800551798004e11900073
:10641800de1190000200700083807000200f980049
:10642800310f98002e089000c500dd006e00900026
:1064380000804000e80040005e00900001087800fd
:106448008e0890004e009000010878002500370063
:106458005e089000ee089000f27f20000300200004
:10646800000278008102780002007800830078003a
:1064780000016200018062006102b80064179800a0
:10648800751798006e109000fe109000c000dd0097
:106498000000200060179800711798006e10900097
:1064a800fe1090006112b8006417980075179800e4
:1064b8006e119000fe119000020070008380700041
:1064c800200f9800310f98002e089000c500dd00bd
:1064d8005e00900001087800ce0090000000eb00fc
:1064e800800878004e0890000000e00003003d009e
:1064f8004e089000e30f500005003c0000422000c9
:1065080030079800804120002007980020003700bd
:106518004e089000e30f500003003c004e08900026
:10652800e70f500005003c0020422000300798008b
:106538008041200020079800150037004e08900081
:10654800e70f500003003c004e089000eb0f50008e
:1065580005003c004042200030079800a041200080
:10656800200798000a0037004e089000eb0f5000f3
:1065780003003c004e089000ef0f500004003c0060
:106588006042200030079800a041200020079800b2
:106598004e08900042002000110009000200d800b7
:1065a8008000fd00c200dd00f00020000100dd00d9
:1065b800800078000080eb00010f50003e00900042
:1065c800100078009e0060003e00900001087800ee
:1065d8003e009000900178004e0890004200200094
:1065e800110009000200d8008000fd00c200dd0093
:1065f800f00020000100dd00808071003e00900066
:10660800010878000e109000e20f50001f003e00b5
:106618004e08900082002000110009000200d800f6
:106628008000fd000000400080007800300020005d
:106638000100dd00800078000080eb00010f5000b1
:106648002e009000100078009e0060002e00900040
:10665800010878002e009000900178004e08900004
:1066680082002000110009000200d8008000fd000f
:1066780000004000800078000e1090000100dd004e
:10668800808071002e009000010878001e009000a4
:1066980010017800110020004e0890000008dd006d
:1066a800800071001e009000010878000004a90015
:1066b8008001eb00131798001e1090000080fa006c
:1066c800000006002600fa00000f9800120f98003c
:1066d800230f9800615798006000b8006007980081
:1066e800710798006000b8004007980051079800ab
:1066f8006000b80020079800310798000e08900045
:10670800e20f500003003400100f2000400f9800e3
:106718008a0037000004a8000e089000000040001e
:106728000000400080007800004320000080400006
:10673800100798001e009000008fe8006e5090002f
:10674800e14f500054003a001e089000ae08900037
:10675800f2ff2f0003002000000278008102780079
:106768000200780083007800000162000180620066
:106778006102b800540f9800650f98005e089000f9
:10678800ee089000c000dd0000002000500f9800c7
:10679800610f98005e089000ee0890006112b80042
:1067a800540f9800650f98005e099000ee0990005c
:1067b800020070008380700040079800510798001d
:1067c8001e089000ae0890004008de00010020007e
:1067d800630160006000b800030020000200700040
:1067e8008380700020079800310798001e089000e9
:1067f800ae0890004208de0001002000f27f200071
:10680800030020000002780081027800020078006e
:106818008300780000016200018062006102b80014
:10682800740f9800051798007e0890008e1090004d
:10683800c000dd0000002000700f980001179800cc
:106848007e0890008e1090006112b800740f9800b6
:10685800051798007e0990008e11900002007000c4
:106868008380700060079800710798006e009000a0
:10687800c500dd002e00900000804000e8004000c8
:106888001e00900001087800ce0090001e007800dd
:1068980001087800260037001e089000ae08900016
:1068a800f27f2000030020000002780081027800b7
:1068b8000200780083007800000162000180620015
:1068c8006102b80014179800251798001e10900050
:1068d800ae109000c000dd000000200010179800e6
:1068e800211798001e109000ae1090006112b80099
:1068f80014179800251798001e119000ae119000eb
:10690800020070008380700060079800710798008b
:106918006e0090004500dd00e80040001e00900079
:10692800010878009e0078000000eb0080087800dd
:106938000004a9008001eb00430f98004e08900066
:106948000080fa00000006000600fa00000f780038
:10695800110798001e00e00003003a00100f200005
:1069680020079800480037001e007800300090008b
:10697800e10f5000040032001e0078002000900053
:10698800e10f500003003a00400220002007980061
:106998003d003700504e80000000e0000e003a0035
:1069a80030c4bf00684060000004e000030032000b
:1069b8008002200020079800330037008040eb0059
:1069c8001e007800c50107003064a8000000eb0035
:1069d800200798002c0037000c04a90011a72000fc
:1069e8009140780072cabf0080cf500008003a007a
:1069f8000c04a8001e0090000000e00001003a000e
:106a08002400070080022000200798001e0037009d
:106a180070cabf000080fb007200b90080007800d7
:106a2800e09c2000808040001e00780008000900db
:106a3800b01878002101b1002001b10070cabf0070
:106a48000080fb008000e80072cabf000081fb00e4
:106a5800110009008200d8008000fd0070eab7002c
:106a680071cabf000040e80071eab7000c04a80032
:106a78001e0090000000e00001003a000500070039
:106a88000000eb00200798002e0090000080fa001c
:106a9800000006000000fa000c04a90065020700c7
:106aa8000c04a8000080fa00000006000600fa00a6
:106ab800100798001e0090000000e00003003a0054
:106ac800100f2000200798002f0037001e009000ac
:106ad80030009000e10f5000040032001e009000ca
:106ae80020009000e10f500003003a00400220000f
:106af80020079800240037000c04a90051a72000a3
:106b08009140780076cabf0080cf500004003a0058
:106b18000c04a80080022000200798001a00370003
:106b280061a720009140780074cabf0000c05000df
:106b38000040e900004f78009e4078001e00900059
:106b4800660107001e407800e301070075cabf0010
:106b58000040e80075eab70074cabf000080fb0077
:106b68008000e80076cabf000081fb001100090020
:106b78008200d8008000fd0074eab7000c04a80069
:106b88000000eb00200798002e0090000080fa001b
:106b9800000006000800fa00200798002e00900068
:106ba8000000e00003003a00100f200030079800b2
:106bb8003b00370008c4bf00f043b20020479800ec
:106bc8002e409000ef4f500009003e002e409000ec
:106bd8008080fb00100020000100dd0080007800ac
:106be80000218000008060000000e0000d003200fd
:106bf8002e409000ef4f50000d0036002e409000c0
:106c08000080fb00f0005000100020000100dd00b3
:106c18008000780010218000008060000000e00003
:106c280003003a0090022000300798001c0037004b
:106c3800ae4090002e00900060010700000f780021
:106c48001e00e000030032001e00780030079800a4
:106c5800130037002e409000ef4f500007003e0011
:106c68002e4090008080fb00100020000100dd0015
:106c78000080ea0000218800070037002e409000bd
:106c88000080fb00f0005000100020000100dd0033
:106c98000080ea00102188000000eb00300798000f
:106ca8003e0090000080fa00000006003600f80060
:106cb800809fbe00829fbe00849fbe00869fbe004c
:106cc8000200fa000ac4bf00614060000004e0004e
:106cd8001f00320004c4bf000074a1000080fb0044
:106ce800000f78001e0078000000e0001600350054
:106cf8001e007800e20f5000040034001e007800e7
:106d0800e30f5000050032000f00370075cabf00be
:106d18000040e90075eab7000b003700504e8000cc
:106d2800e20f500002003a00c201070006003700d7
:106d3800504e8000e10f500003003a0075cabf00b2
:106d48000040e90075eab7000a04a9008860a900b4
:106d58000080fa004f03be004f02be004f01be0084
:106d68004f00be003600f900004006003600f8006b
:106d7800809fbe00829fbe00849fbe00869fbe008b
:106d88000000fa0085c0a900604e80000000e00005
:106d980002003200604e8000000001000080fa000e
:106da8004f03be004f02be004f01be004f00be00a1
:106db8003600f900004006000200fa00000f7800d3
:106dc8000164a80010c4bf0001ccb30001407000ea
:106dd80010e4b7001e00e00005003a0010c4bf0030
:106de80001ccb3000140600010e4b7000600370092
:106df800014120009140780000ccb30000c0600041
:106e08000004a00010e4b700214120009140780060
:106e180080c3b30000c0700012e4b70012e4a800f9
:106e2800314120009140780080cfb30000c060005d
:106e38005040b30013e4b70021412000914078008e
:106e480080cfb30000c060000024a00012e4b700a7
:106e580012c4a8000080fa00000006000200fa0030
:106e6800504e80000000e00007003a00614020001a
:106e78009140780000ceb30000c060000004a0007c
:106e880006e4b70017003700504e8000e10f5000ad
:106e98000a003a0076cabf007f4060007f41600068
:106ea800614020009140780000ceb30000c060002f
:106eb8000240700006e4b7000a00370076cabf0037
:106ec800634040007f4060007f41600061402000d7
:106ed8009140780000ceb30000c06000024070000e
:106ee80006e4b70007c4bf007f40600001ccb300d0
:106ef8000140700007e4b700430007000004a90040
:106f0800504e8000000f78001e007800e10f5000fe
:106f1800130032001e007800e10f50000400390011
:106f28001e007800e20f5000160032002c003700d7
:106f380030e4a80031e4a90032e4a90033e4a90050
:106f480034e4a90035e4a90036e4a90037e4a9002f
:106f580030c4bf003040b30030e4b7002000370031
:106f680030e4a80031e4a80032e4a80033e4a80023
:106f780034e4a90035e4a90036e4a90037e4a900ff
:106f88001700370030e4a80031e4a80032e4a80074
:106f980033e4a80034e4a80035e4a80036e4a900e6
:106fa80037e4a9003143200091407800c0cfb300f6
:106fb80000c0600033e4b7004143200091407800ee
:106fc800c0cfb30000c0600034e4b70051432000d4
:106fd80091407800c0cfb30000c0600035e4b7002e
:106fe8000000eb00002188000000eb001021880061
:106ff8000000eb00402188000000eb0050218800d1
:107008000080fa00000006000000fa00e103a90071
:10701800e003a90081c3a90081a3a80001382000ca
:1070280091407800f0ccb30000c0600001c2b3000a
:107038000140700080e3b7000138200091407800db
:10704800c0cfb30000c0600080e3b7008183a9000f
:1070580020442000401c880070002000501c88003c
:1070680060042000101c880000402000201c8800bc
:10707800e123a900e023a9008dc3a9008da3a900dd
:10708800c138200091407800f0ccb30000c0600007
:1070980001c2b300014070008ce3b700c138200082
:1070a80091407800c0cfb30000c060008ce3b70007
:1070b8008d83a90000442000a01c880070002000d7
:1070c800b01c880020022000701c880000402000ae
:1070d800801c88000080fa00000006000600fa0004
:1070e80010079800414798004e4090000080fb0030
:1070f8004400dd008000780000402400008f40003c
:107108001e007800000178006000b8000089be0009
:10711800640141006000b8000089be0064014100bc
:107128006000b8000089be00640141006000b8003a
:107138000089be001e0090001000be00800078008c
:10714800f07f2000008160009e007800f07f200022
:10715800000061004201dd0030002e00910860004f
:10716800910871001e009000004890006f40600078
:107178001e0178000080fb00ef016000a200900073
:1071880000ff2f00008060000300700020019800bd
:107198001e007800200090006f4060000081fb0016
:1071a8001e009000ea0040009e01780066804100c1
:1071b800aefb07000080fa00000006000800fa0095
:1071c80010079800414798004e4090000080fb004f
:1071d8004400dd008000780000402400008f40005b
:1071e8001e009000000178006000b8000089be0011
:1071f800640141006000b8000089be0064014100dc
:107208006000b8000089be00640141006000b80059
:107218000089be00640141000000eb00000978000d
:107228001e00780010007800610060000000e00097
:1072380005003a001e007800100078006200600027
:107248000000e000030032004002200030079800f0
:107258001e0037009e0090000000eb00b000980070
:107268009e0090000000eb00a00098001e0078002f
:10727800100078004200de00f17f2000010060006d
:10728800010020001e0190000089be001e00780049
:10729800200090006f406000804078001e00900041
:1072a800014898001e009000004890000081fb00f3
:1072b8001e007800e60040001e0090006a004000b2
:1072c8006afb07000000eb00300798003e009000c2
:1072d8000080fa00000006000600fa002047980027
:1072e8002e409000004f7800504e8000e20f500072
:1072f80003003a002e4090000040e800004f78005c
:107308002e4090000080fb00200798002e0090007f
:10731800e10f50001c0032002e009000e10f5000d9
:1073280004003c002e0090000000e000080032003d
:107338003e0037002e009000e20f5000200032007f
:107348002e009000e30f50002b003200370037006a
:107358009e80fb0060062b000080400010407800f3
:107368006340600063416000014320009140780061
:10737800c0cfb30000c060000240700030e4b70026
:107388003064a800290037009e80fb0060062b00af
:107398000080400010407800634060006341600056
:1073a8001143200091407800c0cfb30000c06000b6
:1073b8000240700031e4b7003164a8001b003700b8
:1073c8009e80fb0060062b00008040001040780083
:1073d80063406000634160002143200091407800d1
:1073e800c0cfb30000c060000240700032e4b700b4
:1073f8003264a8000d0037009e80fb0060062b0059
:1074080000804000104078006340600063416000e5
:107418003143200091407800c0cfb30000c0600025
:107428000240700033e4b7003364a8000080fa001b
:10743800000006000400fa0071cabf000004e00062
:1074480003003a000000eb001007980062003700c4
:1074580001a720009140780071cabf0080cf50007a
:107468000900310021a720009140780071cabf00af
:1074780000c050008040780070cabf0000c04000c3
:10748800004f78000400370001a7200091407800e1
:1074980071cabf0000cf500035c4bf00684060000b
:1074a8000004e00014003a001e80fb007200b900de
:1074b80080007800e09c20000080400051c0b300ac
:1074c80006ff070050c0b3004600070071cabf009e
:1074d8000040e90071eab7001e80fb008000e80068
:1074e80072cabf000081fb00110009008200d800a9
:1074f8008000fd00004f780034c4bf006840600081
:107508000004e00017003a0071cabf000004e00060
:10751800140032001e80fb007200b9008000780061
:10752800e09c20000080400041c0b300ebfe070053
:1075380040c0b3002b00070071cabf000040e9003b
:1075480071eab7001e80fb008000e80072cabf0025
:107558000081fb00110009008200d8008000fd00b6
:10756800004f780033c4bf00684060000004e000aa
:1075780017003a0071cabf000004e000140032008e
:107588001e80fb007200b90080007800e09c20009b
:107598000080400031c0b300d0fe070030c0b30007
:1075a8001000070071cabf000040e90071eab70087
:1075b8001e80fb008000e80072cabf000081fb004b
:1075c800110009008200d8008000fd00004f7800fb
:1075d8000000eb00100798001e0090000080fa00e1
:1075e800000006000600fa00004f78001e80fb002d
:1075f800200798002e009000e20f50001c00320077
:107608002e009000e20f500007003c002e00900072
:107618000000e0000e0032002e009000e10f500044
:107628000f003200220037002e009000e40f5000b7
:10763800170032002e009000e40f500010003500b3
:107648002e009000e50f500015003200180037009a
:107658003064a8000000eb001007980016003700ff
:107668003164a8000000eb001007980012003700f2
:107678003264a8000000eb00100798000e003700e5
:107688003364a8000000eb00100798000a003700d8
:107698003464a8000000eb001007980006003700cb
:1076a8003564a8000000eb001007980002003700be
:1076b80010002000100798001e0090000080fa00bb
:1076c800000006000200fa00504e8000000f78000b
:1076d8001e007800e10f50000c0032001e007800f8
:1076e800e10f5000040039001e007800e20f50003e
:1076f8000b003200120037000040eb0072eab700be
:107708000040eb0076eab7000d0037000040eb00c0
:1077180072eab70040c0b30076eab7000800370045
:1077280090c0b30072eab7000040eb0070eab700ff
:1077380030c0b30076eab7000040eb0074eab70047
:107748000080fa00000006000e00fa0010079800fa
:107758001e0090001001be00f0bf210011002000a3
:10776800800f5100818f590003003e000000eb009c
:10777800404e8800290037001e0090001001be000e
:10778800f0bf210011002000800f5100818f5900a7
:107798000a0036001e0090001001be00f0bf220053
:1077a80011002000800f5100818f590003003e0016
:1077b80010002000404e8800180037001e0090007e
:1077c8001001be00f0ff2f00710f2000800f510044
:1077d800818f59000e0036001e0090001001be0077
:1077e80070012000810f2000800f5100818f590007
:1077f80007003e0020002000404e880040902000f6
:10780800820b20008000eb0011fa0700030037000c
:10781800000f200060079800780037001e009000d5
:107828001001be00404e80006a00b9008080e80068
:1078380080042b00008040001000be0000025100b0
:1078480081825900404e80006a00b90080007800ab
:1078580080042b0000804000104078000080fb006e
:10786800000040006101b9000400be0080f8070074
:1078780040079800510798004e029000de029000e1
:10788800e00f5200e08f5a00060035004e009000cd
:10789800de00900086f8070020079800310798005e
:1078a800160037004e009000610160006000b800cb
:1078b8000300200002007000838070004e029000d8
:1078c800de0290008501d1000481d300020070001f
:1078d8008380700076f80700200798003107980029
:1078e8002e019000be0190002e009000be00900076
:1078f8009bf8070020079800310798002e00900099
:10790800be009000f3f807000200200003f82300ef
:1079180093f80700f7f80700000f78001e007800ba
:10792800000040000081e900404e80006a00b90074
:107938008000780080042b00008040001040780010
:107948000080fb000090b9006101b800404e800043
:107958006a00b9008080e80080042b0000804000a5
:107968001000be000200400083804800004e8800de
:10797800114e8800024e8000134e8000404e800059
:107988006a00b9008000780080042b000080400065
:10799800104078000080fb00000040000080e900f3
:1079a800cf80de000200400083804800204e88001f
:1079b800314e8800404e8000e20f50000d0032002a
:1079c8001e0090001001be00004e8000114e800085
:1079d800000051008180590000004000818048006b
:1079e8000048880002102000f10f200000802000cd
:1079f80097f907008002eb00650798006e00900079
:107a08000080fa00000006000400fa001007980041
:107a18000000eb00000f78001e0090001001be006f
:107a2800004e8000114e8000800f5100818f590058
:107a3800070039001e0090001001be00204e800093
:107a4800314e8000800f5100818f590005003600ab
:107a58000e0007001e0090003bff0700000f780093
:107a6800070037001e0090001001be00004e800085
:107a7800114e800000005100818059007b010700f1
:107a88001e0078000080fa00000006000200fa00dc
:107a9800404e8000e20f500003003a00000f200023
:107aa800000f78000d003700004880000000e0005b
:107ab80008003200004e8000114e800003042000b0
:107ac80002802000b2f707000000eb0000488800a1
:107ad800030907000000eb00000f78001e00780083
:107ae8000080fa00000006000a00fa00100798005b
:107af8004147980032079800034f98000000eb00b8
:107b0800000f7800404e80000000e00006003a00b8
:107b18003e019000ce4090001e0090009c0107009e
:107b2800000f780012003700404e8000e10f50002f
:107b380007003a008e4990003e019000ce40900028
:107b48001e009000dd010700000f780008003700d4
:107b5800404e8000e20f500005003a003e019000c0
:107b6800ce4090001e0090004e010700000f7800e4
:107b78001e0078000080fa00000006000e00fa00df
:107b88000000eb00000f7800090137001e007800a4
:107b9800c300dd0040902000008040001001be00be
:107ba800120798002307980060002000810f20002a
:107bb8001e029000ae029000800f5200818f5a0082
:107bc8004b00320060002000810f20001e01900051
:107bd800ae019000800f5100818f590016003e00c1
:107be80020002000810f20001e029000ae029000ad
:107bf800800f5200818f5a00880032004000200018
:107c0800810f20001e019000ae019000800f5100ee
:107c1800818f59006f00320000002000810f200082
:107c28001e029000ae029000800f5200818f5a0011
:107c380071003200a8003700a0002000810f20004a
:107c48001e019000ae019000800f5100818f5900f5
:107c580030003200a0002000810f20001e0290009a
:107c6800ae029000800f5200818f5a0008003e003b
:107c780080002000810f20001e019000ae019000be
:107c8800800f5100818f5900100032009200370098
:107c9800c0002000810f20001e029000ae0290005c
:107ca800800f5200818f5a0023003200e00020002c
:107cb800810f20001e019000ae019000800f51003e
:107cc800818f59005e003200830037001e00780063
:107cd8004300dd00e40040004090200000814000a7
:107ce80080f52f00010020000089be007a003700cf
:107cf8001e0078004300dd00e400400040902000b2
:107d08000081400080f72f00010020000089be009c
:107d1800710037001e0078004300dd00e4004000d9
:107d28004090200000814000f0f72f000100200063
:107d38000089be00680037001e0378001e00780026
:107d48004300dd00e4004000409020000080400037
:107d58001000be00f20f200003002000000278008f
:107d68008102780002007800830078000001620038
:107d7800018062006102b800340798004507980046
:107d88003e009000ce009000c000dd000000200002
:107d980030079800410798003e009000ce00900000
:107da8006112b80034079800450798003e0190001a
:107db800ce01900002007000838070004331dd0026
:107dc800e401410042902000028141000089be0088
:107dd800410037001e0078004300dd00e400400049
:107de8004090200000814000700020000100200029
:107df8000089be00380037001e0078004300dd000f
:107e0800e40040004090200000814000f00f200076
:107e1800010020000089be002f0037001e007800f6
:107e28004300dd00e4004000409020000081400055
:107e3800f00f2000010020000089be002600370056
:107e48001e0378001e0078004300dd00e4004000b7
:107e580040902000008040001000be00320e20003c
:107e680003002000000278008102780002007800f8
:107e78008300780000016200018062006102b8009e
:107e880054079800650798005e009000ee00900087
:107e9800c000dd000000200050079800610798002e
:107ea8005e009000ee0090006112b8005407980040
:107eb800650798005e019000ee01900002007000d6
:107ec800838070004331dd00e401410042902000ce
:107ed800028141000089be000001eb0081072000fb
:107ee800a009200033742000814978008049780077
:107ef80082497800120020006104200070052000eb
:107f080024742000014a7800004a7800024a780068
:107f180043c7bf000047b2000004e000fcff3a007e
:107f28001e0078004300dd00e4004000409020007f
:107f380000804000100178001e007800c300dd00ba
:107f48004090200000804000900178001e007800da
:107f58004300dd008080e800409020000080400061
:107f680010007800830078007e08070000002400d5
:107f7800710807003200200081072000a0092000b6
:107f880035742000814a7800804a7800824a780057
:107f980012002000610420007005200023742000d6
:107fa8008149780080497800824978001e0fe800ee
:107fb8009e007800e04d8000808f5000f3fe39006d
:107fc8000080fa00000006000400fa0000c021004a
:107fd80011002000008fbe00070037002204240093
:107fe8001e00be005af607000020200001002000f5
:107ff8001e0f40005e97480000202000010020006e
:108008003e014000ae814800f0bf22001100200070
:10801800800f5100818f5900f0ff36000080fa0070
:10802800000006000400fa006000b800008fbe00df
:1080380007003700220424001e00be0044f6070093
:1080480000202000010020001e0f40005e9748001d
:10805800d0bf210011002000be0f1000ae8f180005
:10806800f4ff36000080fa00000006000400fa0061
:10807800008fbe00404e8000e20f500003003a001f
:108088001e00780000488800040037001e00be006b
:108098000000400081804800004888000080fa0005
:1080a800000006000a00fa001007980041479800ef
:1080b8003207980010002000000f78000040eb0005
:1080c800bee9b700e14d80003e0090001001be00ff
:1080d800c308dd0040902000008040000288be00f8
:1080e800bec9bf00e14f500017003e00e04d8000c0
:1080f800f60f500003003600000f200040079800dc
:1081080020003700e24d8000bec9bf008081fb001f
:108118001e007800800078001e009000008040005b
:10812800104278004310dd0003004000e4004000e6
:10813800409020000080400004487800bec9bf007d
:108148000040e800bee9b7003e00900040409000c3
:108158008040e9003e009000414098001e0fe80072
:108168004e4090000080fb009e0f5000dcff3c005a
:10817800e04d80000000e800e04d88000000eb00c2
:10818800400798004e0090000080fa0000000600aa
:108198000c00fa00200798006147980042079800f1
:1081a8001000200010079800024880001e00900070
:1081b800800078002e0090000080400090407800f9
:1081c8000080200000004100014878000200e8001b
:1081d80000488800004e8000114e8000e00f5000db
:1081e800e08f580008003a0000c02200410020003b
:1081f8000040880011408800100020000100200085
:1082080020408800314088001e0090000000e800ef
:108218001007980002c9bf000040e80002e9b70053
:108228004e009000404090008040e9004e009000d1
:108238004140980002c9bf00e44f500008003a00ce
:108248004e0090001000be0062004000e080480030
:108258004e0190000089be000040eb0002e9b70023
:1082680001488000f00f2000808f50000900360080
:1082780006fe07004e00900033fd0700000f78004f
:108288001e00e000030032001e007800500798002e
:10829800070037006e4090008080fb001e009000b1
:1082a800808f5000c0ff3c000000eb005007980092
:1082b8005e0090000080fa00000006001000fa003e
:1082c80030079800014f980052079800434f9800d4
:1082d800100020002007980002c9bf00e34f50009b
:1082e8000c003e00024880002e00900080007800bc
:1082f8003e00900000804000904078000080200000
:1083080000004100014878000200e80000488800a9
:108318000200370040c0b300204798002e009000ac
:108328000000e8002007980002c9bf000040e800ec
:1083380002e9b7005e009000404090008040e900ec
:108348005e0090004140980002c9bf00e44f500011
:1083580008003a005e0090001000be006200400075
:10836800e08048005e0190000089be000040eb00fc
:1083780002e9b70001488000f00f2000808f50000c
:108388000c0036004e4890000004e0000100320066
:10839800befd07005e009000ebfc0700000f7800b0
:1083a8001e00e000030032001e00780070079800ed
:1083b800070037000e4890008080fb002e009000d8
:1083c800808f5000c4ff3c000000eb00700798004d
:1083d8007e0090000080fa00000006001200fa00fb
:1083e8006007980071079800f0ff27005007980071
:1083f8000000eb00400798007e0090000000e000bd
:1084080003003a00100f2000000f98003e013700cb
:108418007e00900010007800680060000000e00016
:108428000c0032006e009000e10f50000600320090
:108438006e009000e30f5000030032006e009000c1
:10844800e50f500003003a00110f2000010f9800bb
:108458002d0137007e009000400090000000e000f1
:10846800090032006e0090008000e9007e00900054
:10847800400190006c08b900ea00400080a7200085
:1084880000804000020878007e009000100078000c
:10849800610060000000e0000100320004003700c5
:1084a8005e009000f1fb2f0001006000500798006b
:1084b8007e00900010007800620060000000e0007c
:1084c800040032005e009000f1ff2d000100600002
:1084d800500798007e00900010007800640060004b
:1084e8000000e00004003a005e009000d1ff2f0079
:1084f80001006000500798007e0090001000900076
:10850800c400dd00f0fc2f00008040004007980008
:10851800de0090004e009000008060005007980038
:108528006e009000e10f50001d003a006e009000b0
:108538000000e900021020006c00b90080007800fb
:1085480080a7200000804000020878006e0090009c
:108558000000e900221020006c00b900e40040008f
:1085680080a7200000804000020878006e0090007c
:108578000000e900421020006c00b900e60040004d
:1085880080a720000080400002087800de009000ec
:10859800b0ff2f000080600050079800610037008e
:1085a8006e009000610060000004e00015003200d9
:1085b80010c0b300004f78006e00900063005000b8
:1085c8000000d10010479800a0062b00104078004a
:1085d8008080fb001e4090000080fb000088b900ee
:1085e800800078001e80fb000080400000004000f2
:1085f800800078008010200000804000300798003c
:10860800140037000040eb00004f78006e00900027
:108618000080e9000000d10010479800a0062b0058
:10862800104078008080fb001e4090000080fb0016
:108638000088b900800078001e80fb0000804000a0
:10864800000040008000780060102000008040009a
:1086580030079800a0062b00104078008080fb00af
:108668001e4090000080fb000088b9008000780060
:108678001e80fb0000804000000040008000780061
:10868800c01020000080400020079800a0062b00a2
:10869800104078008080fb001e4090000080fb00a6
:1086a8000088b900800078001e80fb000080400030
:1086b8000000400080007800001120000080400089
:1086c800100798006e0090000000e9006c00b900e7
:1086d8008000780080a7200000804000be00900045
:1086e800010878006e0090000000e9006c00b900f5
:1086f800e400400080a7200000804000ae00900009
:10870800010878006e0090000000e9006c00b900d4
:10871800e600400080a72000008040009e009000f6
:10872800010878006e0090000000e9006c00b900b4
:108738008000780080a7200000804000900078002a
:108748000000eb00800878006e0090000000e9004f
:108758006c00b900e400400080a7200000804000c1
:10876800100178007e009000b0009000200090007a
:10877800000978006e0090000000e9006c00b90064
:10878800e600400080a720000080400090007800ac
:108798000000eb00800878006e0090000000e900ff
:1087a8006c00b900e600400080a72000008040006f
:1087b80010007800de009000010878007e0090002c
:1087c80010007800680060000000e000320032000d
:1087d8006e0090000000e9006c00b900800078008d
:1087e80080a7200000804000100078008080e8000a
:1087f8000000eb00800878006e0090000000e9009f
:108808006c00b900e400400080a720000080400010
:10881800100078000081e8007e009000b000900011
:10882800200090004008de000100200000097800c8
:108838006e0090000000e9006c00b900e6004000fe
:1088480080a7200000804000100178006e00900092
:108858000000e9006c00b900e600400080a7200095
:108868000080400010007800100078000030a00060
:10887800000978006e0090000000e9006c00b90063
:10888800e800400080a720008080400010c0b300ae
:10889800804878001a0037006e0090000000e90058
:1088a8006c00b900e600400080a72000008040006e
:1088b800100178006e0090000000e9006c00b9001b
:1088c800e600400080a720000080400010007800eb
:1088d8009000780070ff2f00008060000009780089
:1088e8006e0090000000e9006c00b900e80040004c
:1088f80080a72000808040000040eb00804878007e
:108908000000eb00000f98000e0890000080fa00ad
:10891800000006000200fa00000f78001e00e900bf
:108928006c00b900e600400080a7200000804000ed
:10893800100178001e00e9006c00b900e600400054
:1089480080a7200000804000100078009000780088
:108958000000280000807000000978000080fa00fc
:10896800000006000200fa00000f78001e00e9006f
:108978006c00b900e600400080a72000008040009d
:10898800100178001e00e9006c00b900e600400004
:1089980080a7200000804000100078009000780038
:1089a800f0ff270000806000000978000080fa00ce
:1089b800000006000800fa00000f78001107980070
:1089c80022079800330798001e00e9006c00b900e0
:1089d800e600400080a720000080400010017800d9
:1089e8001e00e9006c00b900e600400080a72000e6
:1089f800008040001000780090007800f0fc2f0004
:108a080000806000000978001e00e9006c00b900d1
:108a1800e600400080a72000008040001001780098
:108a28001e00e9006c00b900e600400080a72000a5
:108a38000080400010007800900078001e00900030
:108a48004400dd0000807000000978001e00e90085
:108a58006c00b900e800400080a7200000804000ba
:108a6800104078000004e000150032001e00e90004
:108a78006c00b900e400400080a72000008040009e
:108a8800900078002e009000800878001e00e90011
:108a98006c00b900e400400080a72000008040007e
:108aa800100078000081e8002e009000be009000c1
:108ab8004008de00010020000009780008003700a7
:108ac8001e00e9006c00b900e400400080a7200007
:108ad80000804000900078002e0090008008780008
:108ae8000080fa00000006000600fa00000f780077
:108af800110798001e007800200798002e009000ab
:108b0800e30f5000290032002e009000e30f5000c0
:108b180007003e002e009000e10f50000b003200cd
:108b28002e009000e20f5000140032004000370081
:108b38002e009000e40f5000270032002e00900015
:108b4800e50f500030003200390037001e00900059
:108b58006840500067406000674060004401dd00e5
:108b6800510a200091407800f0c8b30000c06000ae
:108b780002407000a5e0b7002d0037001e009000ed
:108b88006840500067406000674060004401dd00b5
:108b9800710a200091407800f0c8b30000c060005e
:108ba80002407000a7e0b700210037001e009000c7
:108bb800684050006740600067416000810a2000fb
:108bc8009140780080cfb30000c060000240700080
:108bd800a8e0b700160037001e009000684050005b
:108be80067406000674060004401dd00110b200011
:108bf80091407800f0c8b30000c0600002407000e7
:108c0800b1e0b7000a0037001e009000684050002d
:108c18006740600067416000210b200091407800a8
:108c280080cfb30000c0600002407000b2e0b7001f
:108c38000080fa00000006000400fa00000f780027
:108c48001e007800100798001e009000e30f5000e7
:108c5800150032001e009000e30f500007003e0090
:108c68001e009000e10f50000b0032001e00900023
:108c7800e20f50000a003200100037001e0090007a
:108c8800e40f50000a0032001e009000e50f50006b
:108c980009003200090037009460a8000700370077
:108ca80094e0a800050037009500a80003003700ed
:108cb8009760a800010037009780a8000080fa009c
:108cc800000006000400fa00000f78001e0078007b
:108cd800100798001e009000e30f500015003200a6
:108ce8001e009000e30f500007003e001e00900099
:108cf800e10f50000b0032001e009000e20f500000
:108d08000a003200100037001e009000e40f5000e7
:108d18000a0032001e009000e50f500009003200e2
:108d2800090037009460a9000700370094e0a90003
:108d3800050037009500a900030037009760a900d7
:108d4800010037009780a9000080fa0000000600a3
:108d58000600fa00200798002e0090000000e900a5
:108d68006c00b900e800400080a7200000804000a7
:108d7800104078000004e000190032002e00900036
:108d88000000e9006c00b9008000780080a720008e
:108d980000804000100078001000780001002000da
:108da800008fbe002e0090000000e9006c00b900a2
:108db8008000780080a72000008040001000780024
:108dc8000080e8001000780001002000c000dd00ed
:108dd800000020001e1f70001e9770000a00370058
:108de8002e0090000000e9006c00b90080007800b7
:108df80080a7200000804000100078001000780054
:108e080001002000008fbe001e00be000080fa0096
:108e1800000006000600fa00000f7800120798000c
:108e2800230798001e00e9006c00b900e800400024
:108e380080a7200000804000104078000004e00077
:108e4800150032001e00e9006c00b90080007800af
:108e580080a7200000804000100078000081e80012
:108e68001e009000ae0090004008de0001002000c7
:108e7800000978001e00e9006c00b9008000780045
:108e880080a7200000804000900078001e0090001d
:108e980080087800080037001e00e9006c00b9005f
:108ea8008000780080a720000080400090007800b3
:108eb8001e009000800878000080fa00000006007c
:108ec8003600f800809fbe00829fbe00849fbe00cf
:108ed800869fbe000000fa00105480000000e000e9
:108ee8000200320010548000000001008460a900d4
:108ef8000080fa004f03be004f02be004f01be00c3
:108f08004f00be003600f900004006003600f800a9
:108f1800809fbe00829fbe00849fbe00869fbe00c9
:108f28000000fa00705480000000e00002003200e7
:108f3800705480000000010084e0a9000080fa005d
:108f48004f03be004f02be004f01be004f00be00df
:108f58003600f900004006003600f800809fbe0089
:108f6800829fbe00849fbe00869fbe000000fa005c
:108f7800d05480000000e00002003200d05480008d
:108f8800000001008500a9000080fa004f03be0020
:108f98004f02be004f01be004f00be003600f90070
:108fa800004006003600f800809fbe00829fbe0089
:108fb800849fbe00869fbe000000fa0030558000e6
:108fc8000000e0000200320030558000000001007f
:108fd8008760a9000080fa004f03be004f02be0060
:108fe8004f01be004f00be003600f90000400600e9
:108ff8003600f800809fbe00829fbe00849fbe009e
:10900800869fbe000000fa00905580000000e00036
:109018000200320090558000000001008780a900fe
:109028000080fa004f03be004f02be004f01be0091
:109038004f00be003600f900004006000200fa00aa
:10904800004f78001e407800bceab7000080fa00a4
:10905800000006002400fa00100f9800210f980065
:10906800320f98001e089000004890000004e000ad
:1090780003003a00600f2000500f98009c01370051
:109088001e0890001000be0002702000030020009f
:1090980000027800810278000200780083007800de
:1090a80000016200018062006102b800640f98004c
:1090b800750f98006e089000fe089000c000dd0053
:1090c80000002000600f9800710f98006e08900053
:1090d800fe0890006112b800640f9800750f9800a0
:1090e8006e099000fe0990000200700083807000f5
:1090f8000220200003002000820f5000838f5800b8
:1091080007003a00be0890001e089000d40107002e
:10911800000f78009e017800530f98007401370003
:109128001e0890001000be000270200003002000fe
:10913800000278008102780002007800830078003d
:1091480000016200018062006102b8000417980003
:10915800151798000e1090009e109000c000dd00ba
:109168000000200000179800111798000e109000ba
:109178009e1090006112b800041798001517980007
:109188000e1190009e119000020070008380700004
:10919800e00f5000e08f580007003a00be0890002a
:1091a8001e089000ae010700000f78009e017800ad
:1091b800530f98004e0137001e089000204a900077
:1091c800744798007e4090000080fb00400f980094
:1091d800ce0a9000e38f5200a40032004e0890009f
:1091e800e30f50000a003c00ce089000e18f5000c9
:1091f8003a0032004e099000e10f5100d4003c00c3
:10920800ce0990000300e000130032003601370059
:109218004e0a9000e60f5200ec003200ce0a900091
:10922800e68f520004003c004e089000e40f500006
:10923800750032002c013700ce089000ec8f5000ea
:1092480026013200f00f20004e099000800f5100d7
:10925800fb003200240137002e089000100078002f
:10926800e10f5000030032008001eb00530f98001b
:109278001f0137001e08900000489000e14f500081
:1092880003003e00140f2000540f98001801370007
:109298001e08900030489000b5eab7001e089000fc
:1092a8001000be0080007800000f200000806000e1
:1092b8004400de0080407800bccabf007e419000b8
:1092c80031010700ae0890002000200080087800d7
:1092d8008002eb00550f9800050137002e0890001a
:1092e80010007800e30f5000070032002e089000ad
:1092f80010007800e20f5000030032000000eb007d
:10930800500f9800fa0037001e089000004890009f
:10931800e64f500003003e00210f2000510f980037
:10932800f30037001e089000404890000004e00059
:109338000e003a001e089000504890000004e0001b
:109348000a003a001e08900070489000f04f400054
:1093580006003a001e08900000509000e14f5000af
:1093680002003a0010c0b300204798001e08900081
:1093780030489000baeab7001e08900040489000b4
:10938800b6eab7001e08900050489000b7eab70048
:109398001e08900070489000b8eab7001e089000b8
:1093a80000509000b9eab700b0558000c155800060
:1093b8008100d1000080d300b0558800c1558800d5
:1093c8002e08900010007800e20f500007003a00c5
:1093d80060ab2000dcf80700604798006e40900002
:1093e8000080fb00500f9800c100370060ab2000e0
:1093f80085f90700604798006e4090000080fb00e8
:10940800500f9800ba0037002e089000100078001e
:10941800e40f5000030032000001eb00520f9800e7
:10942800b300370099f907001e0890001000be002d
:1094380080007800000f2000008060004400de00fb
:1094480080407800bccabf007e419000ce00070073
:10945800ae0890005000200080087800c7f9070087
:109468008001eb00530f9800a10037002e089000f0
:1094780010007800e30f5000070032002e0890001b
:1094880010007800e20f5000030032000002eb00e9
:10949800540f98009600370051ab20009140780097
:1094a8001e089000004a90001e0890006a004000c4
:1094b8008141780062ab2000844078008af9070077
:1094c800604798006e4090000004e00004003200fd
:1094d8006e4090000080fb00500f98008400370019
:1094e800bacabf000004e00016003a002e08900037
:1094f80010007800e20f500008003a00b5cabf001b
:109508000004e00001003200affa0700c5fa0700c6
:10951800ae08900030002000800878001e089000f7
:109528001000be0080007800000f2000008060005e
:109538004400de0080407800bccabf007e41900035
:10954800910007008002eb00550f98006800370073
:109558002e08900010007800e30f5000030032003e
:109568000000eb00500f9800610037001e089000c3
:1095780000489000e44f500003003e00310f2000e7
:10958800510f98005a00370040f907001e08900054
:109598001000be0080007800000f200000806000ee
:1095a8004400de0080407800bccabf007e419000c5
:1095b80075000700ae089000400020008008780081
:1095c8000001eb00520f9800490037001e08900078
:1095d80000489000e14f500003003e00630f200058
:1095e800530f9800420037001e0890001000be007c
:1095f80080007800000f2000008060004400de003a
:1096080080407800bccabf007e4190005e00070021
:109618001e089000304890000004e000030032006b
:1096280010c0b300b4eab700020037000040eb00f6
:10963800b4eab7000002eb00540f98002c00370082
:10964800bccabf000080fb004400dd0000017800b8
:109658001e0890001000be0080007800000f200057
:10966800008060004400de006f0060008000710030
:10967800007020000080700020079800e900470073
:1096880000c0eb0080487800e900470080c0b300c4
:1096980090409800e900470010c0b300a04098002f
:1096a800e900470010c0b300b040980040c0b300c4
:1096b800004f9800e90047000e4990002e009000e6
:1096c8004c000700ae0890001000200080087800c9
:1096d8008002eb00550f9800050037000000eb00f2
:1096e800500f980002003700410f2000510f9800da
:1096f8005e0890000080fa00000006000c00fa00e6
:10970800604798007147980042079800234f9800d7
:10971800b4cabf000004e000190032008e80e800df
:1097280070c0b300804878000e80e800ae48900012
:10973800114098004e009000804078000e80e800ac
:10974800214098006e4090000080fb006f00600090
:10975800c400dd007e4090000080fb006f006000c8
:10976800808070000070200000807000000f78007a
:109778008e80e80032c0b3001e0078001d0007008c
:109788000080fa00000006000800fa004047980030
:1097980051479800624798000e80e800ee4090001c
:1097a800014878008e80e80010c0b300904098000f
:1097b8004e4090000080fb006f006000c400dd0098
:1097c8005e4090000080fb006f00600080807000a9
:1097d8000070200000807000000f78008e80e80084
:1097e80022c0b3001e007800020007000080fa00c3
:1097f800000006001800fa00100f9800210f9800ca
:10980800625798001e08900001002000008fbe00db
:109818000000eb00200798000000eb0030079800dc
:109828006e509000004f98000e4890000081fb0099
:109838006a004700ae0890000cf207008000eb00b9
:109848000e00780040f407008000780080022000b5
:10985800808f5000f9ff32000080fa0000000600f7
:109868000600fa00000f7800110798001e00780023
:10987800204890008080fb0020032000808f50004b
:1098880001003200150037001e00780030489000b3
:109898000004e0000e0032001e00780030489000fe
:1098a800ef4f50000a003e001e007800304890003c
:1098b800bceab7001e007800b04890001e00900077
:1098c800014878000000eb002007980005003700e9
:1098d800000f200020079800020037000000eb006e
:1098e800200798002e0090000080fa000000060073
:1098f8003600fa0020032000100798000000eb0053
:10990800300f98000000eb00e8000700ac010700ea
:10991800113a8000f0fb2f000081600061042000f4
:109928007005200023742000814978008049780060
:109938008249780000c021001100200040079800eb
:109948005107980040ac2000610020004e019000b3
:10995800de019000b5010700c4cabf006140600085
:109968000004e00003003a00c5cabf000004e0009c
:1099780002003a0030c0b300c5eab700f80047005b
:109988000000eb0080087800f80047000000eb00ba
:1099980090009800f80047000000eb00a000980035
:1099a800f80047000000eb00b0009800780047007e
:1099b800c7f107008040eb00f27f20000300200081
:1099c8000000eb003ff30700c5cabf008080fb0022
:1099d80000702000008070006101b9000002eb00f7
:1099e8008040eb000000eb001df207000002eb00d6
:1099f8008040eb00f27020000300200010002000df
:109a080017f2070051ac2000914078000001eb00ec
:109a18002000200078010700c5cabf0087fd0700a5
:109a2800fff1070040010700ec004700e0ff2f00ae
:109a380091086000ec004700d0ff2f0091086000fb
:109a4800ec00470070ff2f0091086000ec00470011
:109a5800b0ff2f0091086000ec00470030002000a4
:109a680090009800ec0047000000eb00c000980050
:109a78006c01470090d023000100200020019800cd
:109a880031019800ec0047001000200053fa07004d
:109a98006011b80010002000defc07001000200054
:109aa80088fc0700100020009afb070000c0eb00ac
:109ab8004077980000003700200220000e00400088
:109ac80034f40700000f7800900220009e0f100069
:109ad8003e003200420320000e014100f60047001c
:109ae800200220000e0040005afd0700000f7800f9
:109af8001e00e00012003200200220000e0040008c
:109b080020499000200220000e0040001000be00f6
:109b18006f426000200220000e0040001000be00ce
:109b280080007800000f2000008060004400de0004
:109b3800824178001e0178008440780043000700c5
:109b48004e709000e14f4000170032004e709000b8
:109b5800c5eab700c5cabf008080fb0000702000be
:109b6800008070006101b9000002eb008040eb004a
:109b78000000eb00baf1070051ac200091407800da
:109b88000001eb00200020001b01070040ac200072
:109b9800610020004e019000de01900030010700b6
:109ba80000c0eb00407798003e089000e10f50009d
:109bb80002003a00100020006afb07003e089000ef
:109bc800e50f500001003a00320007003e089000ff
:109bd8000000e000b8ff3a00100020005cfc07001d
:109be80020079800310798006c004700200190007a
:109bf800b00190002e009000be009000800f510030
:109c0800818f5900acff3e00df00070010002000e4
:109c180054fb07006011b800100020007dfc07000d
:109c28001e0090000000e900100798001e00900038
:109c38000000e00002003a00160007009eff37000f
:109c48001000200033fb07009bff37000800fa00d4
:109c580020479800314798002207980063479800ea
:109c6800ee4190002e019000be4090002e409000e2
:109c7800a2fe070010002000000f78000100370046
:109c88001e0fe800400620009e0f1000fcff340065
:109c9800f3ff37000000fa00a30007009e0007004a
:109ca8003e0107000080fa00000006000800fa00e4
:109cb80030079800570007003e0090000000e000c1
:109cc80004003a000e80e8005d0007000e8fe800ef
:109cd800020037003e009000000f78001e00780058
:109ce8000600070081e0a9001e80e8006400070064
:109cf8000000eb000080fa00000006000800fa00ef
:109d0800881f7800100798001e0090001004780043
:109d18006140b90066ef07002007980031079800f6
:109d28000800e00007003d0002002000037824003e
:109d38002e009000be00900089ef070020079800d1
:109d4800310798002e019000be019000000020000d
:109d5800012a240002f00700e6ef0700000f780050
:109d680043c7bf0002c7b3008240600000c3b3000e
:109d780080cf5000240032001e0078004200dd0031
:109d88000080e900303a880044c7bf00f043b200c1
:109d980044e7b700417420009140780000ceb3003a
:109da80000c0600044e7b7003200200081072000af
:109db800a009200033742000814978008049780088
:109dc80082497800120020006104200070052000fc
:109dd80023742000814978008049780082497800fe
:109de80043c7bf0002c7b3008240600000c3b3008e
:109df80080cf5000faff3a0042c7bf000042b200cd
:109e08000004e000fcff32004f0478000080fa00f4
:109e1800000006000000fa000000eb002016880091
:109e28000080eb00001688000000eb006016880038
:109e38000080eb00401688000080fa000000060051
:109e48000200fa00000f78009e007800a0002000b1
:109e5800800878001e01780092009000e0ff2f0033
:109e680000806000100198009e00780011009000aa
:109e78000010a000900098000080fa000000060082
:109e88000200fa00000f78001e00780010407800e9
:109e9800614060000004e000020032004580a80034
:109ea800010037004580a9001e00780010407800a6
:109eb800624060000004e000020032004400a90093
:109ec800010037004400a80044a0a80044e0a9000d
:109ed8004480a9004420a8000080fa000000060081
:109ee8000000fa00f05580000000e00005003a008c
:109ef800c082a900c282a90010002000f055880085
:109f0800030037000000eb00f0558800c082a8006d
:109f18000080fa00000006000000fa00c082a800d5
:109f28000080fa00000006000200fa00100020007d
:109f3800000f78000f003700005680000000e00096
:109f480005003a00c082a900c282a80010002000c3
:109f580000568800030037000000eb000056880018
:109f6800c082a80000502300c10020003bee07007b
:109f78001e0fe800400120009e0f1000eeff360083
:109f88000080fa00000006000000fa001056800069
:109f98000000e00005003a00c082a900c282a800c3
:109fa8001000200010568800030037000000eb0066
:109fb80010568800c082a8000080fa000000060041
:109fc8000000fa000000eb00201688000080eb007b
:109fd800001688000000eb00601688000080eb0087
:109fe800401688000080eb0060198800c082a90034
:109ff8000080fa00000006000600fa00000f780052
:10a0080021479800220798002e4090000081fb000d
:10a01800030020002e0290008040eb001e00780014
:10a028008ff007000080fa00000006000800fa0020
:10a03800000f78001207980023079800310798004e
:10a048000002eb00be0190001e0178001e00900087
:10a05800ae0090006bee07000080fa0000000600da
:10a068000a04fa002440200004024700000a78008d
:10a0780040402000000047000288be0080402000c9
:10a0880000004700010878000e81e80040402000e9
:10a09800000047000002eb00034020001000be0053
:10a0a80058ee07004040200000004700220424002a
:10a0b8001000be0026ee0700804020000000470088
:10a0c8001001780020402000000047009000780030
:10a0d8000e80e800e5ef07000000eb00000f7800b5
:10a0e800100037001e0078004700dd000e82e800ef
:10a0f800000242001e0078004700dd006101b9003f
:10a10800404020000000470030034100a083490080
:10a118000600be0003042000040178001aee0700c0
:10a128001e0fe800770020009e8f1300edff34001b
:10a138000080fa0000000600003b8800500520005f
:10a14800303b8800a00a2000303b880061e7a80067
:10a15800000000000000000061e7af00feff3700cc
:10a1680000000600900188008208bb00000006007d
:10a17800900188008308bb008288bb0000000600ad
:10a18800900188001100ba000000060090018800c4
:10a198001100ba009180ba00000006000002040015
:08a1a8000000000000000600a9
:020000040000fa
:020000040002f8
:10a1b000004400000002000000000000ca09000086
:10a1c000ae0000000000000000080000ca0100000e
:10a1d00000000000b40a00000a00000000000000b7
:10a1e000be0a00000600000000000000c40a0000d3
:10a1f0000600000000000000780a00003c0000009b
:10a2000000000000ca0a0000040000000200000074
:0ca2100000000000000000000000000042
:020000040000fa
:020000040002f8
:10a21c000000fa00416c20009140780000ceb300a1
:10a22c0000c060000044a000c4e6b700416b2000f1
:10a23c009140780000ceb30000c060000014a00074
:0ca24c00b4e6b7000080fa000000060035
:020000040000fa
:020000040002f8
:04a258000000fe0004
:00000001FF
