:020000040810E2
:10000000A09F00104905100851051008530510085D
:100010005505100857051008590510080000000084
:10002000000000000000000000000000190410089B
:100030005D05100800000000D10410083505100807
:1000400063051008630510086305100863051008B0
:1000500063051008630510086305100863051008A0
:100060006305100863051008630510086305100890
:10007000630510086305100863051008C71B100806
:100080006305100863051008F31A100863051008CB
:10009000E122100863051008ED221008630510081E
:1000A000F3A310080BA41008FFA31008F3A3100873
:1000B000630510086305100817A4100863051008ED
:1000C0006305100863051008630510086305100830
:1000D0006305100863051008630510086305100820
:1000E00023201008630510080000000063051008B5
:1000F0002FA4100863051008630510086305100895
:10010000630510086305100823A410086305100890
:1001100063051008630510086305100863051008DF
:10012000D31B100863051008630510086305100849
:1001300063051008630510086305100863051008BF
:1001400063051008630510080000000000000000AF
:10015000630510086305100863051008630510089F
:10016000630510086305100863051008630510088F
:1001700063051008630510086305100800000000FF
:10018000630510086305100863051008630510086F
:10019000630510086305100863051008630510085F
:1001A000630510086305100863051008630510084F
:1001B000630510086305100863051008630510083F
:1001C000630510086305100863051008630510082F
:1001D000630510086305100863051008630510081F
:1001E000630510086305100863051008630510080F
:1001F00063051008630510086305100863051008FF
:1002000063051008630510086305100863051008EE
:1002100063051008630510086305100863051008DE
:10022000630510086305100863051008000000004E
:1002300063051008419E1008459E100863051008CC
:1002400063051008630510086305100863051008AE
:10025000630510086305100863051008630510089E
:10026000630510086305100863051008630510088E
:10027000630510086305100863051008630510087E
:1002800063051008630510086305100800000000EE
:10029000630510086305100800F002F800F078F814
:1002A0000AA090E8000C82448344AAF10107DA45D1
:1002B00001D100F06DF8AFF2090EBAE80F0013F0AB
:1002C000010F18BFFB1A43F001031847D484010043
:1002D000F48401000A444FF0000C10F8013B13F0C5
:1002E000070408BF10F8014B1D1108BF10F8015B8F
:1002F000641E05D010F8016B641E01F8016BF9D182
:1003000013F0080F1EBF10F8014BAD1C0C1B09D1D8
:100310006D1E58BF01F801CBFAD505E014F8016B4A
:1003200001F8016B6D1EF9D59142D6D370470000DC
:100330000023002400250026103A28BF78C1FBD8EE
:10034000520728BF30C148BF0B607047662917F0BD
:100350000E85782900F05482732900F0E38500208F
:1003600070471FB517F0F1FC9DE8030000F0CDFCCD
:1003700001F0CCF804000020002116F0FDFEE06042
:1003800000F08EFC1FBD10B5002001F055F810BD27
:1003900001F097F81146FFF7E4FF12F088FA01F038
:1003A000B1F903B4FFF7EFFF03BC00F08BFC0000D2
:1003B00080F309887047EFF309807047684680F33F
:1003C000098804480078C00714BF0220032080F386
:1003D0001488704750010010DFF818C0EFF3058350
:1003E0001B0618BF6047EFF31483DB0708BF6047A5
:1003F00000DF7047FD521108DFF818C0EFF30583E6
:100400001B0618BF6047EFF31483DB0708BF604784
:1004100000DF704775531108EFF30980816911F807
:10042000021CE1BB90E80F1010B5E047BDE810409A
:10043000EFF3098C8CE80700214B93E8060091420A
:1004400008BF704741B91EF0100F16D11D4908684A
:1004500020F00100086010E01EF0100F06BF2CED28
:10046000108A0120002081F838002CE9F00FC1F833
:100470003CC00CB416F04EFB0CBC1A60D2F83CC069
:10048000BCE8F00F92F8380000280EBF6FF0020EA3
:100490006FF0120EBCEC108A8CF30988704710B50F
:1004A000094A1268914209D8084C54F8214090E852
:1004B0000F10A047EFF3098C8CE80F0010BD00006F
:1004C000A800001034EF00E028321108283211088B
:1004D00010B516F019FABDE81040154B93E8060068
:1004E000914208BF7047EFF3098C1EF0100F06BF52
:1004F0002CED108A0120002081F838002CE9F00F43
:10050000C1F83CC00CB416F005FB0CBC1A60D2F864
:100510003CC0BCE8F00F92F8380000280EBF6FF026
:10052000020E6FF0120EBCEC108A8CF30988704733
:10053000A800001010B516F011FBCCE710B513F0B1
:1005400009FF16F00BFBC6E709488047094800473A
:10055000FEE7FEE7FEE7FEE7FEE7FEE7FEE7FEE773
:10056000FEE7FEE704480549054A064B70470000D0
:10057000D1A3100899021008A0170010A09F001026
:10058000A0970010A0970010004870476406001064
:1005900070B5A0FB0140B4F1805170F1000024BFA0
:1005A000002070BD204600F028FC05001CBF21463D
:1005B00000F0DAFC284670BD70B516460D46041FE3
:1005C000002808BF70BD002E1CBF05F10C0012F002
:1005D000D6F82B465868002818BFA04238BF0346FB
:1005E000F8D31968CA18A24218BF5C6003D1226808
:1005F0001C461144196021680A19824218BF6060C4
:1006000004D142686260006808442060002E1CBF6C
:1006100005F10C0012F0B7F870BD10B5044600F0FB
:1006200057FB01682046BDE810400122C4E753EAA9
:10063000020C00F069802DE9F04B4FF00006002B12
:100640001FBFB3FA83F503FA05F424FA05F65E40FA
:1006500012BF1643B2FA82F502FA05F4C5F120057D
:100660001EBF22FA05FC44EA0C04203556EA044C6D
:100670004FEA144418BF641C4FF000084FF0000903
:10068000904271EB030C39D3002919BFB1FA81F7FD
:1006900001FA07F6B0FA80F700FA07F6C7F120076B
:1006A0001EBF20FA07FC46EA0C062037B6FBF4FC16
:1006B000A7EB0507103F07F01F0BCBF120062CFA24
:1006C00006F60CFA0BFB44BFB3460026202FA4BF4E
:1006D0005E464FF0000B5BEA060C08BF4FF0010BC3
:1006E00019EB0B0948EB0608ABFB027C06FB02CCBE
:1006F0000BFB03CCC01B71EB0C01C1E70B460246A0
:1007000041464846BDE8F08B13B5084318BF4FF08B
:10071000FF300146AFF30080BDE81C407047000089
:100720000FB41CB50C0007AA009007D04142A142AB
:1007300002D32044401E01E04FF0FF30074B7B44C2
:1007400069460190069800F0C0FB0021002C01D002
:10075000009A11701CBC5DF814FB0000AF0700008C
:1007600070B5044685690068C10601D5302600E0F1
:100770002026C00707D070BDD4E90121304690473C
:10078000206A401C20626D1EF6D570BD70B504460F
:1007900085690078C00707D170BDD4E90121202008
:1007A0009047206A401C20626D1EF6D570BD70B562
:1007B0000C460546012A05D02878800600D5EA694E
:1007C000002302E0012305E05B1C934202D2E05CBF
:1007D0000028F9D1A869E618C01AA861286A184447
:1007E00028622846FFF7BCFF04E0D5E9012114F890
:1007F000010B9047B442F8D32846FFF7C7FF70BDFE
:1008000070B504460D4621461068AFF3008021887C
:10081000090502D50F4A7A4402E00E4A7A440E32A4
:10082000002104F1240305E000F00F060009965DA5
:100830005E54491C0028F7D120780023000704D516
:10084000702D02D009B1022311322046BDE870405C
:1008500000F0DDBA587501002DE9F05F89460446C5
:100860004FF0000ADFF874B1FB44C0F820A0204626
:10087000E1688847002874D0252806D0D4E90121F2
:100880009047206A401C2062F1E700265F46204620
:10089000E16888472028054607DB312D05D2781905
:1008A00010F8200C08B10643F1E7B00701D526F097
:1008B0000406C4F81CA00027C4F818A02A2D09D0EB
:1008C000284612F0F8FC38B304EB8708303DC8F82E
:1008D000185019E059F8041B204604EB8702916177
:1008E000E1688847012F054618D1E069002820DA21
:1008F00026F020061DE0D8F8180000EB800005EB7C
:1009000040003038C8F818002046E168884705469E
:1009100012F0D1FC0028EED1012F0AD02E2D08D1E3
:100920002046E16888477F1C0546022F46F02006D6
:10093000C4DBA069002803DA404246F00106A0614A
:10094000F00701D026F010066C2D0BD0682D09D0D1
:100950004C2D39D06A2D35D0742D35D07A2D33D029
:1009600016E038E0E1682F4620468847B842054641
:1009700009D16C2F26D04FF48060E16806432046F1
:100980008847054604E06C2F1AD04FF48070064368
:100990000DB3A5F14100192802D8203546F40066B0
:1009A0004A462946204626604E46FFF7CFFC80B1D6
:1009B00001280BD0F61D26F0070000F1080956E7C4
:1009C0004020E4E78020D8E70020D6E706F10409BC
:1009D0004DE7284652E7206ABDE8F09F2E750100DA
:1009E00010B5002000F0B9FAFFF7CDFCBDE81040CB
:1009F000012000F067B90B460146184600F096BA90
:100A000010B5431C02E010F8011B71B18107FAD147
:100A10004FF0013202C88C1A8C4314EAC211F9D08B
:100A2000C01A0A0603D0C01E10BDC01A10BD0A04A9
:100A300001D0801E10BD0902FCD0401E10BD032A4B
:100A400040F2308010F0030C00F0158011F8013BEB
:100A5000BCF1020F624498BF11F801CB00F8013BD2
:100A600038BF11F8013BA2F1040298BF00F801CB96
:100A700038BF00F8013B11F0030300F06780083A2B
:100A8000C0F0088051F8043B083A51F804CBA0E8C4
:100A90000810F5E7121D5CBF51F8043B40F8043B19
:100AA000AFF30080D20724BF11F8013B11F801CB4E
:100AB00048BF11F8012B24BF00F8013B00F801CB1F
:100AC00048BF00F8012B7047431A28BF9A427FF6AF
:100AD000B6AF10441144032A40F2268010F0030FF1
:100AE0001EBF11F8013D521E00F8013D10F0030F2A
:100AF0007FF4F6AF11F0030300F06D80083AC0F008
:100B00000B8051F8043D083A51F804CD40F8043DFB
:100B100040F804CDFFF7F3BF121D5CBF51F8043D50
:100B200040F8043DAFF30080D20724BF11F8013D27
:100B300011F801CD48BF11F8012C24BF00F8013D88
:100B400000F801CD48BF00F8012C704710B5203ADD
:100B5000C0F00B80B1E81850A0E81850B1E8185068
:100B6000A0E81850203ABFF4F5AF5FEA027C24BF3A
:100B7000B1E81850A0E8185044BF18C918C0BDE823
:100B800010405FEA827C24BF51F8043B40F8043BEC
:100B900008BF7047D20728BF31F8023B48BF11F8A1
:100BA000012B28BF20F8023B48BF00F8012B7047FB
:100BB000431A28BF9A427FF6C9AF1044114410F07F
:100BC000030F1EBF11F8013D521E00F8013D10F049
:100BD000030F7FF4F6AF103AC0F00A8010B531E988
:100BE000185020E91850103ABFF4F9AFBDE8104092
:100BF000530724BF31E9081020E9081044BF51F819
:100C0000043D40F8043D12F0030F08BF7047D207BF
:100C100028BF31F8023D48BF11F8012C28BF20F849
:100C2000023D48BF00F8012C704702F0FF0343EA81
:100C3000032242EA024200F099B902F0FF0343EABC
:100C4000032242EA024200F002B84FF0000200B56F
:100C5000134694469646203922BFA0E80C50A0E8DF
:100C60000C50B1F12001BFF4F7AF090728BFA0E88D
:100C70000C5048BF0CC05DF804EB890028BF40F859
:100C8000042B08BF704748BF20F8022B11F0804F9B
:100C900018BF00F8012B704770477047704700007D
:100CA00070B5064C7C44064D7D4404E02046016846
:100CB00008448047241DAC42F8D170BD347B01004C
:100CC000387B010001491820ABBEFEE72600020078
:100CD00010B5FFF759FC083010BD704770477047DA
:100CE000704738B504460A4600206946AFF30080D5
:100CF000002808BF38BD02460099204600F06CF974
:100D0000012038BD012000F0D5BBF8B5AFF300805D
:100D1000054600200C46102000BF0646A819A04238
:100D20000DD9324669460020AFF30080070008BFA6
:100D300000F0C0FB0098A04218BF0546C419FFF799
:100D4000C7FF05600746F01D20F00700461928463A
:100D500000F032F9B44208BFF8BDA21B3146386832
:100D6000BDE8F84000F038B90844401E491E8843E9
:100D700070470821001DF7E72DE9F04117460E46A0
:100D80000446FFF7F6FFA042054633D9002F1CBFEB
:100D900006F10C0011F0F3FC30467468F4B12168E0
:100DA000A94217D305F1080291423CBF6168416036
:100DB00007D3626861194A602268521B0A60416069
:100DC0002560002F1CBF06F10C0011F0DCFC201D7B
:100DD000BDE8F08120466468002CE0D12946304609
:100DE000FFF77FFF0028D7D1002F1CBF06F10C00B2
:100DF00011F0C9FC0020BDE8F08110B50446FFF7F2
:100E000067FF01682046BDE810400122B4E72DE9E4
:100E1000F0470D4699469246044600F124080168C1
:100E2000880604D5E06921F01001216000E001206E
:100E3000A84201DD471B00E00027A1697A1902EBF7
:100E40000900081AA0612078C00602D42046FFF7E6
:100E500087FC002608E0D4E901211AF80600904733
:100E6000206A401C761C20624E45F4DB2078C006C8
:100E70000AD52046FFF774FC06E0D4E901213020B2
:100E80009047206A401C2062381EA7F10107F4DC5D
:100E900007E0D4E9012118F805009047206A401CBA
:100EA0002062281EA5F10105F3DC2046FFF76EFC49
:100EB0002078000602D50220BDE8F0870120FBE77C
:100EC00001694A1C02610878704700B58FB0CDE90E
:100ED00001310021059105497944CDE903101146FE
:100EE0006846FFF7B9FC0FB000BD0000E5FFFFFF4B
:100EF000D1E900239A4202D2531C0B601070704754
:100F000010B5436913B1AFF3008001E0FFF74FFC68
:100F1000012010BD127800F124010A7000224A70ED
:100F20000122EDE711684FF0FF32E9E72DE9F041CA
:100F3000074615460E461020FFF75FFF04000AD053
:100F40006760C4E9026500F032F80168216004605E
:100F50000020BDE8F0810120FBE710B500F092FA17
:100F6000BDE8104000F089BA4FF000020429C0F03B
:100F7000128010F0030C3FF46AAECCF1040CBCF10B
:100F8000020F18BF00F8012BA8BF20F8022BA1EB1D
:100F90000C01FFF75CBE5FEAC17C24BF00F8012BA7
:100FA00000F8012B48BF00F8012B7047704710B5BF
:100FB000FFF7EAFA383010BD00210160C0E90110E6
:100FC0000C3011F0DEBB10207047801A0844401E20
:100FD000491E88431044704770B5144605468C4638
:100FE0004368002B18BF634538BF1846F8D3026822
:100FF0001044604508D06646604604220821FFF789
:10100000E4FF811B8446641A2946CCF80040BDE801
:10101000704000220CF10400FFF7CEBA2DE9FF4F1B
:101020000C461E464FF0FF378BB0D2E90001DDF8C9
:1010300060800A908A46C1F30A5505B93D460021F1
:1010400008464FF00000BAF1000F00F4400005DA46
:1010500000EB80004FF4400101EA50004FEA905944
:10106000B9F1010F00DDB9460A9850EA4A000ED0E6
:1010700044F61050A5F2FF3545432F14B8F1000F88
:101080001ED07542291E1EDDC9F100021CE0B8F118
:10109000010F4FF0000001D0302103E0F24305E0E2
:1010A0002154401CB042FBDB304600220021215479
:1010B0000B99C1F80880C1E900200FB0BDE8F08F9E
:1010C000BD1B6D1CDEE74A4600DA694206A800F047
:1010D000A7FA06AB93E8070003AB83E80700504686
:1010E0000A9911F0D9FC8DE80700A0F500501F38CF
:1010F00000900398002D0ADD42F21F014A46084481
:10110000002303A90390684611F042FF09E0A0F50F
:1011100000504A461F38002303A90390684611F087
:101120004CFF8DE807000004000C03D04FF0FF30A7
:10113000410800E01046B8F1000F03D000220092F1
:1011400015461EE0751E05D400F0E5F930326255F3
:101150006D1EF9D5B3460122084302D000227F1C40
:1011600004E02078302801D100227F1E002A099750
:1011700084D01DE0112D07DA00F0CDF93032625530
:101180006D1C50EA0102F5D1084302D00098C8B1A5
:101190000EE00021681E05E0235C625C635422546B
:1011A000401E491C8142F7DBAB46A81B401E09903C
:1011B000002004F80B000B98099AC0F80880C0E9D9
:1011C000002B7AE711264FF0000857E72DE9F04F82
:1011D00088460446D21D22F0070191B0D1E90001F2
:1011E000CDE90A0112F02BF802460B98C00F01D08E
:1011F0002D2007E02068810701D52B2002E0202167
:1012000001EAC000032A099001D0072A05DB034642
:101210004146204600F0C4F90BE12078800601D554
:10122000E06900E00620B8F1650F814606D0B8F10C
:10123000660F18D0B8F1670F70D131E00020B9F116
:10124000110F009001DB112301E009F101030AAA4B
:1012500001A90CA8FFF7E2FEDDE90C70002609F1F8
:101260000105834647E001204B4600904FF00047C0
:101270000AAA01A90CA8FFF7D1FEDDE90DB00C996F
:101280005D46002610B909F101000D18B9EB050003
:1012900003D4C0F1FF3609F10105A5EB09002BE0ED
:1012A000B9F1010F01DA4FF001090020B9F1110F76
:1012B0000090484601DD112300E003460AAA01A977
:1012C0000CA8FFF7ABFEDDE90C704D460026834607
:1012D000207800070AD4AB4500DA5D4601A8012D4D
:1012E00004DD411911F8011C302907D04F4502DAFD
:1012F00017F1040F04DA012082460FE06D1EEEE7BD
:10130000002F02DCED1B3E4403E0781CA84200DD08
:101310007D1CB81B00F1010A4FF000472078000740
:1013200003D4AA4501DB4FF0FF3A0021B7F1004F8B
:101330000DF143088DF8431024D002202B23002FF9
:1013400001DA7F422D230A21021EA0F1010000DCF8
:101350005FB197FBF1FC97FBF1F201FB1C7C174698
:101360000CF1300C08F801CDEEE7A8F10100037094
:101370002188090501D5452100E06521A0F101087A
:1013800000F8011C09980FA9A1EB0807FF1D00B187
:101390000120411901EBEA70A1693844081A401E86
:1013A000A0612078C00602D42046FFF7D9F9099839
:1013B00028B1D4E901219047206A401C206220789E
:1013C000C00622D52046FFF7CBF91EE0002E04DB35
:1013D000B34502DD01A8805D00E03020D4E90121A1
:1013E0009047206A401C2062761CAAF101005FEA47
:1013F000000A0AD100F08AF8C0680168405CD4E9AC
:1014000001219047206A401C2062281EA5F1010599
:10141000DCDC07E0D4E9012118F8010B9047206AD1
:10142000401C2062381EA7F10107F3DC2046FFF7BD
:10143000ADF9032011B041E62DE9F0410646FFF772
:10144000B6FD8046454613E016B1E068B0420ED1C5
:1014500020682860D4E90101D8F800708847204648
:10146000FFF7DBF8D8F80000B842EBD100E02546E2
:101470002C68002CE8D1BDE8F081002801D0FFF7EE
:1014800021BC704710B5002102A000F044F90120F2
:1014900010BD0000534947414252543A2041626E08
:1014A0006F726D616C207465726D696E6174696FC5
:1014B0006E00000010B500F047F9BDE81040FFF7DE
:1014C000DCBF7546FFF760F8AE4605006946534637
:1014D00020F00700854618B020B5FFF743F8BDE8B7
:1014E00020404FF000064FF000074FF000084FF08B
:1014F000000BAC46ACE8C009ACE8C009ACE8C009D8
:10150000ACE8C00921F007018D46704710B5FFF720
:101510003BF8203010BD30B5B0F10A0271F1000384
:101520004FEA900E4EEA817EB0EB0E0061EB910126
:101530004FEA101E4EEA017E10EB0E0041EB111136
:101540004FEA102E4EEA016E10EB0E0041EB112116
:101550004FEA104E4EEA014E10EB0E0041EB1141E6
:10156000401841F100014FEAD00040EA41704FEAD3
:10157000D1014FEA810444EA907410EB800544EBFA
:1015800001046D1944EB0404521BA3414FF0000306
:1015900048BF0A3200D530BD401C41F1000130BDCA
:1015A0002DE9F0411F46044603260168072A01F48D
:1015B000006004DB08B116A505E016A503E008B13C
:1015C00015A500E015A521F010002060A069C01E3F
:1015D000A0610FB1401EA0612046FFF7C1F84FB1D6
:1015E000D4E9012138469047206A401C2062C01C83
:1015F000206206E0206AFAE7D4E9012115F8010B20
:101600009047761EF8D22046FFF7C0F8BDE8F0817B
:101610004E414E006E616E00494E4600696E660096
:101620002DE9F047814616468AB0354878440DC802
:101630008DE80D0032487844801C03AC0DC884E866
:101640000D0041F69B300844372190FBF1F290FBEE
:10165000F1F5A5F1800501FB12041B3C02D56442A3
:10166000012000E00020DFF898A080460027FA441F
:10167000AAF1BE0A0EE0E0070AD03246684607EB40
:10168000470101230AEB810111F097FC8DE8070067
:1016900064107F1C002CEED1194F7F44AE3F19E03F
:1016A000E80715D007EB04100DF1180A90E80E00BA
:1016B0008AE80E00C068F04201D1981908903246BD
:1016C000012306A903A811F078FC03AB83E8070007
:1016D0006D10641C002DE3D14FF0010332466946C2
:1016E000B8F1000F03A802D011F052FC01E011F094
:1016F00064FCC9E90001C9F808200AB0BDE8F08718
:10170000F867010010B50446AFF300802046BDE83D
:101710001040FEF746BE70B505460C460A2000E0B4
:101720006D1C11F032F835B128780028F8D102E0AC
:10173000641C11F02AF814B120780028F8D1BDE813
:1017400070400A2011F021B810B5012805D0002101
:1017500003A0FFF7E0FF012010BD09A1F8E700009A
:1017600053494752544D454D3A204F7574206F668A
:101770002068656170206D656D6F727900000000F2
:101780003A2048656170206D656D6F727920636FD6
:10179000727275707465640030B44FF0013C50F89B
:1017A000042B51F8043BCCFA52F4D51A20D1FCB9E1
:1017B00050F8042B51F8043BCCFA52F4D51A17D147
:1017C000B4B950F8042B51F8043BCCFA52F4D51AB2
:1017D0000ED16CB950F8042B51F8043BCCFA52F4FA
:1017E000D51A05D1002CDAD030BC4FF0000070477C
:1017F00029BAB1FA81F111F01801D1F12000844029
:10180000F2D1CA40CB4012F0FF0213F0FF0330BC0C
:10181000D01A7047B0B50446006842F2001140F497
:101820008070C4F20201884218D142F20830C4F23A
:101830000200006810F4403F18D005F0CBFF61684B
:101840000546B1F5803F05D0B1F5403F2AD0B1F54E
:10185000003F28D1080CB5FBF0F524E046F2083033
:10186000C5F60200006810F4403FE6D14FF40020B6
:1018700004F088FF61680546A1F580224FEAB24274
:101880000A2A10D8DFE802F00606060606065052BD
:10189000545658006FF0010000EA5140B5FBF0F5D6
:1018A00001E000BFAD0804F05DFB41F20301884296
:1018B0000ED8206842F601528168C0F2311295427A
:1018C0002CBF41F4807121F480718160B0BD00BFF4
:1018D0004BF62140C0F2BE00854205D820688168E1
:1018E00021F440718160B0BD47F64100C0F27D1027
:1018F000854207D820680122816862F3092181604E
:10190000B0BD00BF20684FF281028168C0F2FA22A8
:10191000954205D8022262F309218160B0BD00BF63
:1019200041F440718160B0BD2D09BCE76D09BAE793
:10193000AD09B8E7ED09B6E72D0AB4E70146806BBB
:10194000436D426D13F0500F0AD0D2064FBF00F125
:101950007002C06C00F14C0208461168084700BFD5
:1019600042F40071416501680B68CA681B0705D421
:10197000910709D000F164021168084712F4406F22
:10198000F8D1C9688904F5D4416D21F480714165AD
:10199000416DC904EED4416D41F00101416500F192
:1019A0006402116808470000806B416D026F41F0CE
:1019B00040014165816D41F00401816510470000DF
:1019C000806B816E08470000B0B5016804468A68E4
:1019D0008868C0074FF0000031D012F0020218BF33
:1019E000B0BD886800F00D0001281FD188684FF64F
:1019F000C072C7F6FF721040023088600320086092
:101A000004F0B8FA21688968C90704BF0020B0BD96
:101A1000054602E08068C00712D004F0ABFA411B13
:101A200020680329F6D38168C907F3D0606D40F0C0
:101A300010006065A06D40F00100A0650120B0BD00
:101A40000020B0BDF0B581B0044600688168C907C8
:101A50004CD14FF6C077C7F6FF77816807F17F0258
:101A600011420BD0606D40F010006065A06D40F039
:101A70000100A065012001B0F0BD00BF81683940C0
:101A800041F00101816004F075FA42F2000521681D
:101A9000C4F2020546F2083605F58072C5F6020664
:101AA00005F54273914208BF1E46A94208BF1E4673
:101AB0003368A942054616D0914214D113F01F0095
:101AC00014D110E08868C00704D18868384040F01D
:101AD0000100886004F04EFA401B2168032802D3FD
:101AE0000868C007BED00868C007EBD0002001B06E
:101AF000F0BD80B540F65020C1F2000000F02EFF8E
:101B000040F6E020C1F2000000F028FF40F67030FF
:101B1000C1F20000BDE8804000F020BF40F2FC6050
:101B2000C1F2000009F062BB80B540F65020C1F25E
:101B30000000002140F2FF7200F0DEFB68BB40F6BF
:101B4000E020C1F20000002140F2FF7200F0D4FB5F
:101B500018BB40F6502041F6B932C1F20000C0F681
:101B60001002002101F0A8FBB8B940F6502041F660
:101B70001D32C1F20000C0F61002012101F09CFBF1
:101B800058B940F650204BF23922C1F20000C0F69D
:101B90001002032101F090FB08B1012080BD40F646
:101BA000502040F2FC61C1F20000C1F200010622A7
:101BB000BDE8804000F074BC40F2FC60C1F200005F
:101BC0000C3009F013BB40F66870C1F2000001F060
:101BD0007FBE40F6F060C1F2000001F079BE000067
:101BE0008446006840F20F42C4F20202904211DCC7
:101BF0006F22C4F20202904222DC3F22C4F20202AF
:101C0000904239DC1022C4F2020290425AD02822BB
:101C100054E000BF40F26F42C4F2020290421BDC6B
:101C200040F23F42C4F2020290422DDC40F21042E8
:101C3000C4F20202904245D040F228423EE000BF8A
:101C40009F22C4F20202904228DC7022C4F20202F7
:101C5000904237D0882231E040F29F42C4F2020223
:101C6000904223DC40F27042C4F20202904229D03A
:101C700040F2884222E000BF4022C4F202029042B9
:101C800020D058221AE000BF40F24042C4F20202C3
:101C9000904217D040F2584210E000BFA022C4F298
:101CA000020290420ED0B82208E000BF40F2B842D3
:101CB000C4F20202904205D040F2A042C4F20202F5
:101CC000904219D100F0F8024AF6AB23103ACAF656
:101CD000AA23A2FB0331C1F302110AA3595C5F2AB4
:101CE000CCF85C1040F2FF3120EA010088BF0430DC
:101CF000CCF85800704700BF20F0FF00CCF8580027
:101D0000704700BF0006101600061016F0B5D0F898
:101D100000C040F26F44D0F858E0C4F20204A44579
:101D20001ADC9F25C4F20205AC4533DC5725C4F20A
:101D30000205AC455ADC1025C4F20205AC4500F0A2
:101D400098802825C4F20205AC4500F09280402519
:101D5000C4F202058AE000BF45F22F45C5F6020530
:101D6000AC452DDC40F2B745C4F20205AC454BDC76
:101D700040F27045C4F20205AC457AD040F2884585
:101D8000C4F20205AC4574D040F2A045C4F202058D
:101D90006CE000BF40F22745C4F20205AC4543DCCD
:101DA000A025C4F20205AC4563D0B825C4F20205F3
:101DB000AC455ED040F21045C4F2020556E000BFCB
:101DC00045F26B45C5F60205AC453FDC45F23045B2
:101DD000C5F60205AC454CD045F24445C5F60205B2
:101DE000AC4546D045F258453EE000BF5825C4F208
:101DF0000205AC453DD07025C4F20205AC4538D093
:101E00008825C4F2020531E040F2B845C4F202056B
:101E1000AC452ED045F20845C5F60205AC4528D0A4
:101E200045F21C4520E000BF40F22845C4F20205FF
:101E3000AC451ED040F24045C4F20205AC4518D076
:101E400040F25845C4F2020510E000BF45F26C456F
:101E5000C5F60205AC450CD045F29445C5F6020521
:101E6000AC4506D045F28045C5F60205AC4540F0CC
:101E7000D780C66ED0E91957002E6F601CBFD0E91D
:101E80001C566E60A44515DC9F24C4F20204A445D0
:101E90002CDC5724C4F20204A44551DC1024C4F203
:101EA0000204A4457AD02824C4F20204A44575D0C3
:101EB00040246FE045F22F44C5F60204A44529DC16
:101EC00040F2B744C4F20204A44545DC40F2704439
:101ED000C4F20204A44561D040F28844C4F2020472
:101EE000A4455BD040F2A04454E000BF40F2274438
:101EF000C4F20204A4453FDCA024C4F20204A445B9
:101F00004CD0B824C4F20204A44547D040F2104497
:101F100040E000BF45F26B44C5F60204A44555DC21
:101F200045F23044C5F60204A44562D045F244446B
:101F3000C5F60204A4455CD045F2584454E000BF05
:101F40005824C4F20204A44528D07024C4F2020428
:101F5000A44523D088241DE040F2B844C4F2020412
:101F6000A4451BD045F20844C5F60204A44540D060
:101F700045F21C4438E000BF40F22844C4F2020499
:101F8000A4450BD040F24044C4F20204A44505D05D
:101F900040F25844C4F20204A44541D1C46D3F2527
:101FA00004F01F0405FA04F48068CEF80840DCF859
:101FB0000070402827F48027CCF80070CCF804305B
:101FC00024D0CCF80810CCF80C20F0BD45F26C44BD
:101FD000C5F60204A4450CD045F28044C5F60204BF
:101FE000A44506D045F29444C5F60204A44518BFA2
:101FF000F0BDC46D806804F01F04012505FA04F4E7
:102000004028CEF80440CCF8043005D1CCF80820A4
:10201000CCF80C10F0BD00BFCCF80810CCF80C20A8
:10202000F0BD4FF4004003F09FBE40F67850C1F27F
:1020300000000068016C026912071CD5C06B814268
:1020400019D040F234714FF00102C1F20001B8BF63
:102050004FF0FF320B78104440F2F862012BC1F2CE
:102060000002106018BF704740F22072C1F20002F7
:10207000106002200870704710B540F67854C1F225
:10208000000420460C2106F01FFF2046082106F020
:10209000BFFE20463C2106F08BFA20461221BDE807
:1020A000104007F0C3BD000048F23E71C0F61101B8
:1020B00040F6006E6622CEF2000E01F1180C4FF0D1
:1020C000604300BFDEF88000C0071CBFDEF80000E0
:1020D0005FEAC07023D14A78DEF88000C0071CBFD9
:1020E000DEF800005FEAC07029D18A78DEF880004F
:1020F000C0071CBFDEF800005FEAC0702FD1CA78AD
:10210000DEF88000C0071CBFDEF800005FEAC07088
:1021100035D111F8042F6145D4D143E000BF1868D0
:1021200050B900BF186838B900BF186820B900BF9F
:1021300018680028F2D000BF1A70CCE700BF1868FA
:1021400050B900BF186838B900BF186820B900BF7F
:1021500018680028F2D000BF1A70C6E700BF1868E0
:1021600050B900BF186838B900BF186820B900BF5F
:1021700018680028F2D000BF1A70C0E700BF1868C6
:1021800050B900BF186838B900BF186820B900BF3F
:1021900018680028F2D000BF1A7011F8042F6145AA
:1021A0007FF490AFDEF88000C0071CBFDEF80000AF
:1021B0005FEAC0706CD148F25771C0F61101662217
:1021C00001F1450C4FF06043DEF88000C0071CBFF2
:1021D000DEF800005FEAC07019D14A78DEF88000AE
:1021E000C0071CBFDEF800005FEAC0701FD18A780C
:1021F000DEF88000C0071CBFDEF800005FEAC07098
:1022000025D111F8032F6145DED132E000BF1868F7
:1022100050B900BF186838B900BF186820B900BFAE
:1022200018680028F2D000BF1A70D6E700BF1868FF
:1022300050B900BF186838B900BF186820B900BF8E
:1022400018680028F2D000BF1A70D0E700BF1868E5
:1022500050B900BF186838B900BF186820B900BF6E
:1022600018680028F2D000BF1A7011F8032F6145DA
:10227000AAD1DEF88000C0071CBFDEF800005FEACC
:10228000C07019D1EFF3108072B600BFFEE700BF37
:102290004FF06041086860B900BF086848B900BFE6
:1022A000086830B900BF086818B900BF086800287E
:1022B000F2D00A2008707EE74FF06040016861B9F3
:1022C00000BF016849B900BF016831B900BF0168AA
:1022D00019B900BF01680029F2D00A210170D1E7C5
:1022E00040F23C70C1F2000002F074BF40F23C705A
:1022F000C1F2000002F06EBF70B582B0044600204B
:10230000019094F85000012802D1022002B070BD63
:10231000012084F85000204615460E46FFF754FB76
:10232000616D18B141F010014EE000BF41F20212A0
:1023300091430231616521684FF6C073D1F808C03E
:10234000C3F6FE7306F4803605F0804503EA0C03FD
:102350002E444FF2FF723344C2F2C35203F10043E2
:102360008B608B68B3F1FF3F2ADC019B0133019343
:10237000019B93421DD88B68B3F1FF3F20DC019B8A
:1023800001330193019B934213D88B68B3F1FF3F54
:1023900016DC019B01330193019B934209D88B68A2
:1023A000B3F1FF3F0CDC019B01330193019B93428E
:1023B000D7D9606D40F0100020F00201012003E049
:1023C000616D012262F301016165002184F8501002
:1023D00002B070BD704700007047000070470000F9
:1023E0007047000070470000B0B582B090F85020F0
:1023F000012A03D10221084602B0B0BD002342F2F7
:10240000083201930093C4F202020368A2F54274F9
:10241000A34227D14FF6006E4FF60055CFF6FF7E50
:10242000CFF6FF7552F80E40535923435B0719D47A
:10243000D1F800C01368BCF1000F23F440441DD054
:102440004B6823431360535952F80E502B43DB075C
:1024500022D1136840F61F758968AB43194341EADE
:102460000C0116E0416D41F020014165012100227F
:1024700080F85020084602B0B0BD00BF146051592A
:1024800052F80E301943C90708D1116840F61F737E
:10249000994311600021EAE70021E8E70021E6E71F
:1024A0002DE9F041A4B004460068154683685A0738
:1024B00004D40E4694F85010012903D1022024B010
:1024C000BDE8F08142F20008C4F20208012184F85C
:1024D0005010002108F5807740454FF0000015911D
:1024E000169108BF384600900AD0606D40F0200079
:1024F000606584F85010012024B0BDE8F08100BF71
:102500002046FFF79FFA18B96846FFF79BFA28B1F3
:10251000002184F8501024B0BDE8F0812268E06CFE
:10252000616D40F60173994301F5807141F63D13E9
:1025300041F6C11C61650021C0F61003C0F6100C05
:10254000A165C0E90F3C41F6A913C0F61003C364AE
:102550001C23136084F85010516808F5437341F050
:102560001001516046F20C31C5F60201BA4208BFB3
:102570001946424508BF194632462B4602F0F4F888
:1025800021684FF6C0738A68C7F6FF731A40043299
:102590008A6024B0BDE8F081F0B581B000220092DD
:1025A00090F85020012A03D10221084601B0F0BD65
:1025B0000123076880F85030BC68640700F1688127
:1025C000D1E9004294FAA4F5B5FA85F5260308BFCF
:1025D000A50E05F01F06FD69B3402B43FB61C2F356
:1025E000012307EB83031E6B02F01F021F2595409A
:1025F000AE43C4F3846505FA02F232431A63BA6843
:10260000BB6802F0040203F00803D21875D10A680F
:102610008B68C2F3406607EB86067569C2F3045205
:1026200007249440A54303FA02F22A43726141F25F
:102630000002C5F60042126802F07042B2F1805FFB
:1026400032D14A69FB680E2606EA530302FA03F305
:102650000C69042C37D00A6807F1600656F824503C
:1026600002F0F84205F000451A432A4346F82420B8
:102670000A694B7E56F82250012B25F0004508BF11
:1026800005F1004546F822500A7E0B69013AB2FA7C
:1026900082F252093E69D20203F01F0326F4F0468B
:1026A0009A4032433A6128E0FA684B69FE68D206E4
:1026B0004FEA56044CBF04F0080204F00E029340A7
:1026C0000C69042CC7D13A6E0B6802F0F8429B06E5
:1026D0009A4243D07A6E02F0F8429A4247D0BA6EDC
:1026E00002F0F8429A424BD0FA6E02F0F8429A4257
:1026F00003D1FA6E22F00042FA66BA68D2072BD1F3
:10270000CE684FF6FF7C0B68C0F20F0CD7F8C050B4
:1027100006F0180203EA0C042CFA02F2A5431A4050
:102720002A430025C4F2FF75AE42C7F8C02055D138
:1027300084B393FAA3F2B2FA82F2013202F01E03DA
:10274000092B02F01F032ED801229A4003EB43030A
:1027500042EA035333E000BF00219EE03A6E22F0CC
:1027600000423A667A6E02F0F8429A42B7D17A6E27
:1027700022F000427A66BA6E02F0F8429A42B3D171
:10278000BA6E22F00042BA66FA6E02F0F8429A423D
:10279000AFD0B2E7012202EB936202F01E030A2BD4
:1027A00002F01F03D0D3012200269A4003EB43031B
:1027B000CFF6206606EB03531A4342F00073C3F3CF
:1027C000406607EB86068A687569C3F304530724DD
:1027D0009C40A5439A402A4372610B68B3F1FF3FC6
:1027E00002DD002159E000BF42F2000146F2083C40
:1027F000C4F20201C5F6020C01F5807297426246EE
:1028000001F5427608BF32468F4208BF324642F297
:102810000014D2F800E047F48072C4F20204A2422D
:102820002ED18A68D1F808111143C90730D100218F
:10283000CCF684318B420EF0E07408BF1EF4000128
:1028400032D00021CCF252718B4208BF1EF0807151
:1028500030D00021CCF6B8718B424FF0000108BF98
:102860001EF4800219D1ACF54272974215D1DCF802
:10287000001021F0E071214341F480015BE000BFD2
:102880004FF60051CFF6FF715CF80110C907CED0AA
:10289000416D41F0200141650121002280F8502066
:1028A000084601B0F0BD00BFACF542718F4207D0C1
:1028B0000021F2E7ACF542718F4235D00021ECE700
:1028C000DCF8001042F6635221F0E071214341F43C
:1028D0000001CCF8001040F25C11C1F2000109685F
:1028E000C0F23E528909A1FB02129109022202EBB9
:1028F00041010091009919B30099013900910099A3
:1029000001B30099013900910099E9B100990139A9
:1029100000910099D1B100990139009100990029E5
:102920004FF00001E8D1B8E7DCF8001021F0E071C9
:10293000214341F08071CCF800100021ADE700BFC9
:102940000021AAE70021A8E70021A6E70021A4E7CB
:102950007047000070470000704700002DE9F04FFD
:1029600081B0044642F2000146F208302568C4F204
:102970000201C5F6020001F5807A2E68D5F80490B0
:1029800001F5427B554508BF58468D4208BF584661
:102990000768B00710D519F002000DD0606DC006B1
:1029A00003D4606D40F400606065D4F88410204664
:1029B0008847256802202860700707F01F0802D5A5
:1029C00019F0040004D130074CD519F0080049D0A3
:1029D000204650F8542FD20603D4026842F4007205
:1029E0000260EA6812F4406F36D12A4642F20001D2
:1029F0005545C4F2020108BF0A461346B8F1090F53
:102A000008BF2B46B8F1050F08BF2B46B8F1000FE1
:102A100008BF2B46AA4208BF1346DA6892041BD4AB
:102A20002A68120718D5AA6852070BD46A6822F0E0
:102A30000C026A60016821F4807101600168C904B8
:102A400006D509E0606D40F01000606504F15800A3
:102A5000016841F001010160616E204688472568E8
:102A60000C202860B00602D519F0200004D17006B1
:102A700056D519F0400053D0204650F8542FD206B6
:102A800003D4026842F40052026042F20003294675
:102A9000C4F20203EF6CEA68554508BF19460B46BD
:102AA000B8F1070F08BF2B46B8F1060F08BF2B4639
:102AB000B8F1000F08BF2B46A94208BF0B46DB68E0
:102AC00017F4C07F07D0990124D412F4406108BFE5
:102AD00013F400511ED1296849061BD513F40011C7
:102AE00018D1A96809070BD4696821F060016960F1
:102AF000016821F4805101600168C90506D509E02B
:102B0000606D40F01000606504F15800016841F00C
:102B100001010160616F20468847256860202860B8
:102B200030060CD519F0800009D0606DE16E40F4DC
:102B30008030606520468847256880202860F00541
:102B40000DD519F480700AD0606DE16F40F400304B
:102B500060652046884725684FF480702860B0057E
:102B60000ED519F400700BD0606DD4F8801040F4CD
:102B7000802060652046884725684FF400702860F3
:102B8000F00627D519F0100024D0206BA0B1B8F1C1
:102B9000000F39D046F20830C5F6020042F20001BB
:102BA000554508BF5846C4F202018D4208BF584639
:102BB000006810F4404F0BD0606D216F40F48060CE
:102BC0006065A06D40F00200A0652046884725683A
:102BD00010202860700513D519F4806010D0606D46
:102BE000A16F40F480406065A06D4FF4806240F0BA
:102BF0000800A06520462A6001B0BDE8F04F0847F4
:102C000001B0BDE8F08F00BFE8688007D4D1DFE7EE
:102C100070B582B00446002001904CB1606D58B18F
:102C20002068816889004BD48168C90052D584E04E
:102C30000125284602B070BD42F6551142F65110EA
:102C4000C0F61001C0F61000A166D4F8881042F654
:102C5000F56242F6591342F2D93542F2DD3C42F2B6
:102C6000E13E42F2E536606642F2D530C0F610022F
:102C7000C0F61003C0F61005C0F6100CC0F6100E1A
:102C8000C0F61006C0F61000E26623676567C4F858
:102C900078C0C4F87CE0C4F88060C4F8840029B926
:102CA00042F6D571C0F61001C4F888102046884756
:102CB0000020A06584F85000206881688900B3D5A1
:102CC00081684FF6C072C5F6FF721140816081685D
:102CD000C90032D44FF6C0728168C5F6FF7202F1A6
:102CE0008052114001F18051816040F25C11C1F2CB
:102CF0000001096842F663528909C0F23E52A1FB05
:102D00000212012101EB921101910199A9B100BFB9
:102D1000019901390191019979B101990139019123
:102D2000019951B1019901390191019929B1019993
:102D30000139019101990029EAD18168C90009D4BA
:102D4000616D012541F010016165A16D41F0010146
:102D5000A16500E000258168626D01F0040102F0C8
:102D600010028918616D40F0938021F48171023165
:102D700061658168C90728D142F2001240F4807170
:102D8000C4F20202914242F20001C4F2020140F098
:102D9000A7808A68D1F808311A43D20715D101F506
:102DA000807201F5427646F2080C90423246636822
:102DB000C5F6020C18BF0CF54072884208BF3246B7
:102DC000106820F47C101843106003F0CBF841F237
:102DD00003018842A0684FF00002A0F11001B1FA8F
:102DE00081F188BF012249091140226B237F617D57
:102DF000164616BF4E034A031C2046EA0341114300
:102E0000012B41EA000106D1206A0022CFF6FE72B2
:102E100002EB40400143606A20B1A26A00F478707E
:102E20001043014320684CF20303C268CFF6F073ED
:102E30001A401143C1608168826801F0040102F008
:102E40000802891838D1217DE26A44F2030342EA7C
:102E50008131C2689A431143C16094F838200169F6
:102E6000012A1DD14FF61E02CFF6004204F13C0E9E
:102E700001EA020C9EE84C400121CFF6FF7101EB04
:102E8000024143EA0C021143314341EA0E0109E0D9
:102E900041F0100001256065284602B070BD00BFFA
:102EA00021F0010101610169626B21F07041114360
:102EB00001612046FEF7AEFC2068E168026B012943
:102EC00022F00F0102D1A269013A11430163606D42
:102ED000012161F301006065284602B070BD00BFAA
:102EE00046F20802C5F602021268D2073FF457AF55
:102EF0006BE700007047B0B50446006846F2000179
:102F0000C5F6020188422CD042F20011C4F202013F
:102F100088423CD042F20001C4F20201884218BF4C
:102F2000B0BD40F22C70C1F20000016801390160AF
:102F300007D144F2D840C5F60200016821F0200113
:102F400001600025C5F6020505F500600C2102F0C0
:102F500075FE2846402102F071FE05F580600121D2
:102F60000EE044F2D840C5F60200816821F080717D
:102F700081600020C5F6020000F5A0504FF42071DA
:102F800002F05CFEE06CBDE8B04000F0D5BA40F263
:102F90002C70C1F2000001680139016007D144F2D0
:102FA000D840C5F60200016821F02001016000242C
:102FB000C5F6020404F500600C2102F03FFE204635
:102FC000402102F03BFE04F580600121BDE8B040E5
:102FD00002F034BE2DE9F04186B0044601A8142168
:102FE000FDF733FE206846F20001C5F60201884273
:102FF00000F0968042F20011C4F20201884200F013
:10300000F28042F20001C4F20201884240F0518194
:1030100040F22C71C1F200010A6844F2E040C5F6AA
:103020000200531C0B605AB950F8081C41F02001F3
:1030300040F8081C50F8081C01F02001009100998C
:103040000168002541F0040101600168C5F6020530
:1030500001F0040100910099016801AE41F0010105
:10306000016001684FF0030801F00101009100992F
:103070000168002741F0020101600068314600F05C
:103080000200009000980C20019005F50060CDF83A
:103090000880039702F072FE4020CDE9010828461F
:1030A0003146039702F06AFE0120CDE9010805F5DB
:1030B00080603146039702F061FE4FF000704FF0E0
:1030C000007104F0C7FC4FF080704FF0807104F085
:1030D000C1FC7020C4F2020040F6F06500F5687093
:1030E000C1F2000509214FF4805385E8830005F102
:1030F00014004FF480464FF4807C80E848104FF471
:1031000000304FF48062C5E908072846C5E903721C
:1031100000F0F2FF08B1FEF7C7FFE564AC63BFE063
:1031200044F2E040C5F602000168002641F08071DB
:103130000160016801F0807100910099016841F01F
:1031400020010160016801F02001009100990168EF
:1031500041F004010160006801A900F00400009042
:1031600000984FF420700190032002900020C5F6D3
:10317000020000F5A050039602F000FE4FF08060C0
:103180004FF0806104F066FC4FF000604FF000618A
:1031900004F060FC40F668757020C1F20005C4F2CE
:1031A000020073214FF4006385E8430005F1140029
:1031B0004FF400574FF4807C80E888104FF4803043
:1031C0004FF48062C5E908062846C5E9036200F0AD
:1031D00093FF08B1FEF768FFE564AC637F20002130
:1031E00000227F2460E040F22C71C1F200010A68E5
:1031F00044F2E040C5F60200531C0B605AB950F887
:10320000081C41F0200140F8081C50F8081C01F08F
:103210002001009100990168002441F0040101603F
:103220000168C5F6020401F00401009100990168EB
:1032300001AD41F0010101600168032601F00101C7
:10324000009100990168002741F0020101600068C7
:10325000294600F00200009000980C20019004F52F
:1032600000600296039702F089FD402001A9C1C1C8
:103270002046294602F082FD012001A9C1C104F5C2
:103280008060294602F07AFD4FF000704FF0007127
:1032900004F0E0FB4FF080704FF0807104F0DAFB37
:1032A000122005210022122402F0D0FF204602F055
:1032B000BBFF06B0BDE8F08122B1436DDB0707D14B
:1032C000436D9BB1816D41F0100181650120704714
:1032D0000A29F7D8DFE801F006161A1E2226322A3C
:1032E0002E0E120042660020704700BF0A2905D04A
:1032F0000929E7D1C0F8882000207047C0F88C2049
:103300000020704782660020704700BFC266002020
:10331000704700BF02670020704700BF426700206F
:10332000704700BF82670020704700BFC0F8802050
:1033300000207047C0F8842000207047C26700203A
:10334000704700002DE9F04142F20017036846F291
:103350000835C4F20207C5F602050446A7F58070D9
:1033600007F50276BB4208BF3546834208BF3546A3
:1033700028689B6890465A0704D40E4694F850106B
:10338000012903D10220BDE8F08100BF00F01F0534
:103390000120092D84F8500056D8A84040F2212180
:1033A000084251D02046FEF74DFB28B1002184F899
:1033B0005010BDE8F08100BF2168606D40F60172D9
:1033C000904300F58070B942606500D11DB9606D11
:1033D00020F480106065606D41F63D17C0044FF029
:1033E000000044BFA06D20F00600A065E06C41F62F
:1033F000C115C0F61007C0F61005C0E90F7541F6FB
:10340000A917C0F610070022C7641C27E36A0F60E3
:1034100084F850204A6842F010024A60CA6822F0DC
:1034200003021A43CA6040313246434601F09CF918
:1034300021684FF6C0738A68C7F6FF731A400432DA
:103440008A60BDE8F08100BF002084F850000120B0
:10345000BDE8F081426DD20708D1426DC2B1816DE5
:1034600041F0100181650120704700BF0A29F6D89C
:10347000DFE801F006222A323A424A525A121A0072
:1034800042F65111C0F6100141660020704700BF9E
:103490000A2909D00929E2D142F6D571C0F61001F6
:1034A000C0F888100020704742F6F761C0F610019E
:1034B000C0F88C100020704742F65511C0F610017C
:1034C00081660020704700BF42F6F561C0F610012A
:1034D000C1660020704700BF42F65911C0F61001C6
:1034E00001670020704700BF42F2D931C0F61001D9
:1034F00041670020704700BF42F2DD31C0F6100185
:1035000081670020704700BF42F2E131C0F6100130
:10351000C1670020704700BF42F2E531C0F61001DC
:10352000C0F880100020704742F2D531C0F610017B
:10353000C0F8841000207047F0B581B020B3016856
:103540000446086820F00100086040F26F40C4F2B1
:10355000020081424FF001001ADC9F22C4F20202F5
:10356000914231DC5722C4F20202914256DC102211
:10357000C4F20202914200F080802822C4F20202CA
:1035800091427AD0402273E0012001B0F0BD00BF2B
:1035900045F22F42C5F60202914229DC40F2B742C1
:1035A000C4F20202914245DC40F27042C4F20202CF
:1035B000914262D040F28842C4F2020291425CD051
:1035C00040F2A04254E000BF40F22742C4F202029F
:1035D00091423FDCA022C4F2020291424DD0B822B7
:1035E000C4F20202914248D040F2104240E000BFD3
:1035F00045F26B42C5F60202914251DC45F230427F
:10360000C5F6020291425ED045F24442C5F602027E
:10361000914258D045F2584250E000BF5822C4F2BF
:103620000202914229D07022C4F20202914224D0B7
:1036300088221DE040F2B842C4F2020291421CD03E
:1036400045F20842C5F6020291423CD045F21C42C6
:1036500034E000BF40F22842C4F2020291420CD092
:1036600040F24042C4F20202914206D040F2584277
:10367000C4F20202914240F00781002008604860D5
:103680008860C8600861212048612046FEF7A8FADA
:10369000E16D3F2201F01F0102FA01F1816022E099
:1036A00045F26C42C5F6020291420CD045F28042CE
:1036B000C5F60202914206D045F29442C5F60202D6
:1036C000914240F0E1800020086048608860C86056
:1036D00008612046FEF784FAE16D012201F01F0126
:1036E00002FA01F14160226845F2574CC5F6020C1E
:1036F00045F6FC0E6245C5F6020E13DC45F22F407E
:10370000C5F60200824221DC45F20840C5F60200FF
:10371000824236D045F21C40C5F60200824230D0CB
:10372000B4E000BF45F27F40C5F6020082421BDCD8
:1037300045F25840C5F60200824222D045F26C4064
:10374000C5F6020082421CD0A0E000BF45F2304026
:10375000C5F60200824214D045F24440C5F602008C
:1037600082420ED092E000BF45F29440C5F60200BE
:10377000824206D045F28040C5F60200824240F007
:10378000858002F0FC004CF6CD410838CCF6CC41E7
:10379000A0FB01010B09AEF1FC01AEF17C0503F0C9
:1037A0001F06012701EB830007FA06F604F1600704
:1037B00061C7002041F823006E606368591E072925
:1037C00054D862450EF1440C12DC45F22F45C5F683
:1037D0000205AA4220DC45F20845C5F60205AA42C8
:1037E0003CD045F21C45C5F60205AA4236D02DE074
:1037F00045F27F45C5F60205AA421BDC45F2584555
:10380000C5F60205AA4229D045F26C45C5F6020567
:10381000AA4223D01AE000BF45F23045C5F60205A2
:10382000AA421BD045F24445C5F60205AA4215D06E
:103830000CE000BF45F28045C5F60205AA420DD056
:1038400045F29445C5F60205AA4207D040F60002AB
:10385000C4F2020202F1FC0E02F5A07C012202FA7F
:1038600001F100224EF82320CCF80410C4E91B001B
:103870006067C4E90F00C4E91100C4E91300606582
:1038800084F8350084F8340001B0F0BD02F0F8008F
:103890004AF6AB211038CAF6AA21A0FB010540F276
:1038A0000F4340F600012809C4F20203C4F20201EA
:1038B00003F1AA069A4203464FF0080788BF07EBB8
:1038C000151301F18005B24228BF034667E70000E7
:1038D0002DE9F04782B004460020019040F25C10D0
:1038E000C1F20000A56D026848F2B513206840F2ED
:1038F0006F49C1F64E332E682968C4F20209484563
:10390000A2FB032816DC9F21C4F2020188422DDCB1
:103910005721C4F20201884252DC1021C4F2020194
:1039200088427CD02821C4F20201884277D040210D
:1039300070E000BF45F22F42C5F60202904229DC3A
:1039400040F2B742C4F20202904245DC40F27041BC
:10395000C4F20201884262D040F28841C4F20201FE
:1039600088425CD040F2A04154E000BF40F22741C1
:10397000C4F2020188423FDCA021C4F20201884265
:103980004DD0B821C4F20201884248D040F2104123
:1039900040E000BF45F26B42C5F60202904275DC82
:1039A00045F23042C5F60202904200F0828045F2B4
:1039B0004442C5F6020290427BD045F2584273E081
:1039C0005821C4F20201884229D07021C4F20201B8
:1039D000884224D088211DE040F2B842C4F202029D
:1039E00090421CD045F20842C5F60202904260D0D7
:1039F00045F21C4258E000BF40F22841C4F20201E7
:103A000088420CD040F24041C4F20201884206D004
:103A100040F25841C4F20201884240F06A83E16DED
:103A2000082201F01F018A4040F20F4A3242C4F2DC
:103A3000020A00F0E68050454FF0040312DC6F27C5
:103A4000C4F20207B8426FDC3F27C4F20207B84253
:103A500000F3A4801027C4F20207B84200F0C5802A
:103A60002827BDE048456BDC40F23F47C4F202071F
:103A7000B84200F39B8040F21047C4F20207B842FC
:103A800000F0B38040F22847AAE000BF45F26C4244
:103A9000C5F6020290420CD045F28042C5F6020201
:103AA000904206D045F29442C5F60202904240F0A0
:103AB00020830268E36D042703F01F039F400F4239
:103AC00018BF12F0040621D102279F400F4218BFF1
:103AD00012F002064CD1D940090740F10A8312F0D6
:103AE000080100F00683016821F00E010160012049
:103AF00000FA03F169600021606584F8341084F8ED
:103B00003500E16C002940F0DC82F2E211046F60C4
:103B100026D4910603D4016821F004010160216CD0
:103B2000002940F0CE82E4E29F27C4F20207B842A7
:103B300046DC7027C4F20207B84256D088274FE00F
:103B400040F29F47C4F20207B84241DC40F270479E
:103B5000C4F20207B84248D040F2884740E000BFB4
:103B6000D0034CBF216CA16C002940F0AA82C0E2B6
:103B700011046F6000F1AA82910609D4016821F056
:103B80000A010160002084F83400012084F8350027
:103B9000E16B002940F09582ABE200BF4027C4F200
:103BA0000207B84221D058271AE000BF40F2404730
:103BB000C4F20207B84218D040F2584710E000BFE4
:103BC000A027C4F20207B8420FD0B82708E000BF10
:103BD00040F2A047C4F20207B84206D040F2B8470C
:103BE000C4F20207B84218BF082307681F4208D072
:103BF000036823F004030360AA60626D42F00102CF
:103C0000626501228A4032426FD0504510DC6F233A
:103C1000C4F2020398421DDC3F23C4F2020398421F
:103C200034DC1023C4F20203984256D028234FE01C
:103C300048451BDC40F23F43C4F2020398422DDCAE
:103C400040F21043C4F20203984246D040F22843A7
:103C50003EE000BF9F23C4F20203984228DC702399
:103C6000C4F20203984238D0882331E040F29F43E7
:103C7000C4F20203984223DC40F27043C4F2020310
:103C800098422AD040F2884322E000BF4023C4F289
:103C90000203984221D058231AE000BF40F240436B
:103CA000C4F20203984218D040F2584310E000BF1B
:103CB000A023C4F2020398420FD0B82308E000BF4B
:103CC00040F2A043C4F20203984206D040F2B84347
:103CD000C4F20203984240F0FF8143691B0604D5F9
:103CE000AA60626D42F00202626504228A4032429A
:103CF0006FD0504510DC6F23C4F2020398421DDCE4
:103D00003F23C4F20203984234DC1023C4F20203BE
:103D1000984256D028234FE048451BDC40F23F43F1
:103D2000C4F2020398422DDC40F21043C4F20203B5
:103D3000984246D040F228433EE000BF9F23C4F2A1
:103D40000203984228DC7023C4F20203984238D060
:103D5000882331E040F29F43C4F20203984223DCFF
:103D600040F27043C4F2020398422AD040F28843E2
:103D700022E000BF4023C4F20203984221D058231E
:103D80001AE000BF40F24043C4F20203984218D048
:103D900040F2584310E000BFA023C4F2020398424F
:103DA0000FD0B82308E000BF40F2A043C4F20203E2
:103DB000984206D040F2B843C4F20203984240F061
:103DC000938103689B0704D5AA60626D42F00402E8
:103DD0006265102202FA01F1314200F08180504503
:103DE0004FF0080210DC6F23C4F2020398421DDC7E
:103DF0003F23C4F20203984234DC1023C4F20203CE
:103E0000984256D028234FE048451BDC40F23F4300
:103E1000C4F2020398422DDC40F21043C4F20203C4
:103E2000984246D040F228433EE000BF9F23C4F2B0
:103E30000203984228DC7023C4F20203984238D06F
:103E4000882331E040F29F43C4F20203984223DC0E
:103E500040F27043C4F2020398422AD040F28843F1
:103E600022E000BF4023C4F20203984221D058232D
:103E70001AE000BF40F24043C4F20203984218D057
:103E800040F2584310E000BFA023C4F2020398425E
:103E90000FD0B82308E000BF40F2A043C4F20203F1
:103EA000984206D040F2B843C4F20203984218BFC9
:103EB00004220368134213D0A96002680168520308
:103EC00008D4C90508D4016821F008010160216CFB
:103ED00021B905E008034FD4216C09B12046884779
:103EE000E06D00F01F01202000FA01F2324200F0E4
:103EF000AB8020681023504510DC6F27C4F2020706
:103F0000B8421DDC3F27C4F20207B84238DC102754
:103F1000C4F20207B8425AD0282753E048451BDCB8
:103F200040F23F47C4F20207B84231DC40F210478A
:103F3000C4F20207B8424AD040F2284742E000BF2C
:103F40009F27C4F20207B8422CDC7027C4F2020794
:103F5000B8423CD0882735E040F29F47C4F20207C0
:103F6000B84227DC40F27047C4F20207B8422ED0B4
:103F700040F2884726E000BFA16C0029AED1AFE730
:103F80004027C4F20207B84221D058271AE000BFE8
:103F900040F24047C4F20207B84218D040F25847F6
:103FA00010E000BFA027C4F20207B8420FD0B82724
:103FB00008E000BF40F2A047C4F20207B84206D0B2
:103FC00040F2B847C4F20207B84218BF022307689C
:103FD0001F4239D0AA6094F835300268042B1BD1F7
:103FE00022F016020260426922F080024261226CD5
:103FF0000AB9A26C1AB1026822F0080202603F20DE
:104000008840A860002084F83400012084F835003E
:10401000216D002955D16CE0016852030CD4C9050B
:104020000ED4016821F010010160002084F83400F2
:10403000012084F8350003E0080301D4616C00E03E
:10404000E16B09B120468847606D002851D0606D52
:10405000C00734D0042084F8350020684FEA982146
:10406000026822F001020260019A01328A42019242
:104070001AD80268D20717D0019A01328A420192F7
:1040800012D80268D2070FD0019A01328A420192F7
:104090000AD80268D20707D0019A01328A420192F7
:1040A00002D80268D207DFD1002184F834100068FA
:1040B000C0074FF0030008BF012084F83500E16C11
:1040C000B9B1204602B0BDE8F0470847D0030DD48F
:1040D000616C0029F5D10CE0026804228A4032426A
:1040E0007FF407AE75E600BF026872E6E16B002957
:1040F000E7D102B0BDE8F0872DE9F04381B0044676
:1041000001F038FF002C00F0AF800546206840F237
:104110006F48C4F20208404516DC9F21C4F2020138
:1041200088422DDC5721C4F20201884254DC102160
:10413000C4F20201884200F07E802821C4F202010C
:10414000884278D0402171E045F22F41C5F6020146
:10415000884229DC40F2B741C4F20201884247DCC0
:1041600040F27041C4F20201884264D040F28841BA
:10417000C4F2020188425ED040F2A04156E000BF86
:1041800040F22741C4F20201884241DCA021C4F27E
:10419000020188424FD0B821C4F2020188424AD0BD
:1041A00040F2104142E000BF45F26B41C5F602010A
:1041B000884200F3C78045F23041C5F602018842CB
:1041C00000F0D38045F24441C5F60201884200F078
:1041D000CC8045F25841C3E05821C4F20201884224
:1041E00029D07021C4F20201884224D088211DE028
:1041F00040F2B841C4F2020188421CD045F20841A5
:10420000C5F60201884200F0B08045F21C41A7E0EB
:1042100040F22841C4F2020188420CD040F24041F1
:10422000C4F20201884206D040F25841C4F20201B1
:10423000884240F02F81002184F83410022184F854
:104240003510016821F00101016000BF206801689C
:10425000C9070DD001F08EFE401B0628F6D32020A2
:104260006065032084F83500012001B0BDE8F083CB
:10427000016848F23F0204F10807CFF61062E0CF70
:1042800001EA020945EA0905D4E9052C04F11C0EEE
:1042900035439EE80A403D432A4311431943BEF18A
:1042A000040F41EA0C0303D1D4E90B1211430B4371
:1042B00041F20001C5F600410968B1F1005F1DD36C
:1042C0006168A1F12905292D18D8DFE805F0151539
:1042D0001515151517171717171717171717171776
:1042E000171717171515151517171717151517176A
:1042F000171717171515151543F480130360416937
:10430000BEF1040F21F0070141EA0E0140F0DE800A
:10431000D4E90A53002B41EA050100F0D780BCF52F
:10432000005F00F0B980BCF1000F40F0C180022DA9
:1043300000F0C180012D00F0B580002D00F0BB80A1
:10434000C4E000BF45F26C41C5F6020188420CD0C2
:1043500045F28041C5F60201884206D045F29441FB
:10436000C5F60201884240F09580002184F834109F
:10437000022184F8351004F1080C01689CE80C1047
:10438000D4E90595D4E9077EA2F18006B6FA86F64F
:104390006FF310117609402A45EA07024FEA863684
:1043A00041EAD30142EA090208BF1026314342EA3A
:1043B0000C0241EAD20141EA1E1140F80819C0B2CC
:1043C000CD2148433C2101EA9020E0652046FDF7DD
:1043D00007FCE16D012201F01F0102FA01F14160C9
:1043E0002068404500F381809F21C4F20201884289
:1043F00014DC5721C4F20201884227DC1021C4F2E8
:104400000201884200F0C7802821C4F202018842DC
:1044100000F0C1804021C4F20201B9E040F227411E
:10442000C4F20201884221DCA021C4F202018842C8
:1044300000F0B180B821C4F20201884200F0AB80E4
:1044400040F21041C4F20201A2E000BF5821C4F2C0
:104450000201884200F09F807021C4F2020188426C
:1044600000F099808821C4F2020191E040F22841D5
:10447000C4F20201884200F08E8040F24041C4F252
:104480000201884200F0878040F25841C4F20201E4
:104490007EE000BF4020E3E6032D17D8DFE805F0FB
:1044A0000E0B0E02A3F1C072B2FA82F2520904E0BE
:1044B000032D03D30AD1C3F300623AB140206065F3
:1044C000012084F8350001B0BDE8F0834161204649
:1044D000FDF786FBE16D3F2201F01F0102FA01F1B9
:1044E0008160206840457FF77FAF45F22F41C5F6D8
:1044F0000201884216DC40F2B741C4F20201884250
:1045000026DC40F27041C4F20201884243D040F2FE
:104510008841C4F2020188423DD040F2A041C4F279
:10452000020135E045F26B41C5F6020188421FDC0D
:1045300045F23041C5F6020188422CD045F2444193
:10454000C5F60201884226D045F258411EE000BF60
:1045500040F2B841C4F2020188421CD045F2084141
:10456000C5F60201884216D045F21C410EE000BF9C
:1045700045F26C41C5F6020188420CD045F29441E7
:10458000C5F60201884206D045F28041C5F6020117
:10459000884240F0E18045F2574CC5F6020C45F6E2
:1045A000FC016045C5F602010EDC45F22F42C5F65E
:1045B0000202904218DC45F20842C5F6020290421F
:1045C00028D045F21C4221E045F27F42C5F60202A6
:1045D000904213DC45F25842C5F60202904219D0CF
:1045E00045F26C4212E000BF45F23042C5F60202CD
:1045F00090420FD045F2444208E000BF45F2944299
:10460000C5F60202904205D045F28042C5F602028C
:10461000904245D100F0FC024CF6CD43083ACCF66E
:10462000CC43A2FB03231D09A1F1FC03A1F17C06ED
:1046300003EB850205F01F03012707FA03F5A368C2
:104640002266802B6666A56604D10020606010603B
:1046500075601DE06768FBB213607A1E072A7560FB
:1046600016D85E1E082E19D2604501F1440239DCCD
:1046700045F22F47C5F60207B84243DC45F208472A
:10468000C5F60207B8425BD045F21C474CE000BFBC
:104690000020C4E91B0060675EE000BFE06E56E0EA
:1046A00000F0F8024AF6AB23103ACAF6AA23A2FB9E
:1046B000032740F20F4540F600033A09C4F2020511
:1046C000C4F2020305F1AA06A84215464FF0080EEF
:1046D00088BF0EEB1715B04203F1800628BF1546C0
:1046E000A6E700BF45F27F47C5F60207B84213DCD4
:1046F00045F25847C5F60207B84221D045F26C474B
:1047000012E000BF45F23047C5F60207B84217D0A5
:1047100045F2444708E000BF45F28047C5F602076E
:10472000B8420DD045F29447C5F60207B84207D00B
:1047300040F60000C4F2020000F1FC0100F5A07296
:1047400001EB83000121B140C4E91B026167002134
:104750000160D4E91C01416000200121606584F8FA
:10476000351001B0BDE8F083B0B5E8B3054690F868
:104770003400012804BF0220B0BD012085F83400B8
:1047800095F83500012829D1022085F83500002050
:1047900068652868046824F0010404602846FDF771
:1047A000B5FA286840F20F42C4F2020240F26F41AB
:1047B0009042C4F2020119DC6F23C4F20203984252
:1047C00026DC3F23C4F2020398423DDC1023C4F2EE
:1047D000020398425FD0282358E000BF002085F8EC
:1047E00034004FF4006068650120B0BD88421BDCD6
:1047F00040F23F43C4F2020398422DDC40F21043E2
:10480000C4F20203984246D040F228433EE000BF83
:104810009F23C4F20203984228DC7023C4F20203EF
:10482000984238D0882331E040F29F43C4F202031B
:10483000984223DC40F27043C4F2020398422AD02B
:1048400040F2884322E000BF4023C4F202039842B2
:1048500021D058231AE000BF40F24043C4F20203C3
:10486000984218D040F2584310E000BFA023C4F291
:10487000020398420FD0B82308E000BF40F2B843CB
:10488000C4F20203984206D040F2A043C4F20203ED
:10489000984240F02F8103680B2464F344030360C3
:1048A0002B6C1BB10823046823430360884219DC86
:1048B0009F23C4F20203984232DC5723C4F202035E
:1048C000984259DC1023C4F20203984200F096800B
:1048D0002823C4F20203984200F090804023C4F2DF
:1048E000020389E045F22F43C5F6020398422DDC0E
:1048F00040F2B743C4F2020398424BDC40F27043EB
:10490000C4F20203984279D040F28843C4F2020311
:10491000984273D040F2A043C4F202036CE000BF9F
:1049200040F22743C4F20203984243DCA023C4F2BE
:104930000203984262D0B823C4F2020398425DD0C9
:1049400040F21043C4F2020356E000BF45F26B434D
:10495000C5F6020398423FDC45F23043C5F6020338
:1049600098424BD045F24443C5F60203984245D0E5
:1049700045F258433EE000BF5823C4F20203984278
:104980003CD07023C4F20203984237D08823C4F28B
:10499000020331E040F2B843C4F2020398422DD042
:1049A00045F20843C5F60203984227D045F21C435E
:1049B00020E000BF40F22843C4F2020398421DD019
:1049C00040F24043C4F20203984217D040F25843E9
:1049D000C4F2020310E000BF45F26C43C5F60203C7
:1049E00098420BD045F29443C5F60203984205D095
:1049F00045F28043C5F60203984274D12B6E1C68C1
:104A0000E40303D51C6844F480741C60EB6E1BB196
:104A10001D6845F480751D60904211DC6F21C4F261
:104A2000020188421EDC3F21C4F20201884235DCCB
:104A30001021C4F20201884255D0282150E000BF65
:104A400088421BDC40F23F41C4F2020188422DDC67
:104A500040F21041C4F20201884244D040F22841A1
:104A60003EE000BF9F21C4F20201884228DC702191
:104A7000C4F20201884236D0882131E040F29F41E1
:104A8000C4F20201884223DC40F27041C4F2020108
:104A9000884228D040F2884122E000BF4021C4F281
:104AA000020188421FD058211AE000BF40F2404165
:104AB000C4F20201884216D040F2584110E000BF13
:104AC000A021C4F2020188420DD0B82108E000BF45
:104AD00040F2B841C4F20201884204D040F2A04141
:104AE000C4F202018842016841F001010160002026
:104AF000B0BD00BF0368052464F3430303602B6C5F
:104B0000002B3FF4D3AE0423CDE600002DE9F041A5
:104B100040F21056C1F2000671680446884740F220
:104B20005C1841F2907705460028C1F20008C1F2F6
:104B3000000775D1D8F80000820B5DD012F0030396
:104B4000A2F1010122D000BF00BF00BF00BF00BF23
:104B500000BF00BF00BF00BF00BF00BF012B084661
:104B600000BF14D000BF00BF00BF00BF00BF00BF28
:104B700000BF00BF00BF00BF00BF022B00BF40F05E
:104B8000C580901E032905D236E000BF10460329D8
:104B900032D300BF00BF00BF00BF00BF00BF00BFD7
:104BA00000BF00BF00BF00BF00BF00BF00BF00BF0D
:104BB00000BF00BF00BF00BF00BF00BF00BF00BFFD
:104BC00000BF00BF00BF00BF00BF00BF00BF00BFED
:104BD00000BF00BF00BF00BF00BF00BF00BF00BFDD
:104BE00000BF00BF00BF00BF00BF00BF00BF00BFCD
:104BF00000BF043800BFCDD1D7E90001451C41F109
:104C00000000C7E900500BE0D7E90001013041F195
:104C10000001C7E90001401BA04228BFBDE8F081A8
:104C2000706880470028F6D1D8F80000820BEBD0DE
:104C300012F00303A2F1010120D000BF00BF00BFAA
:104C400000BF00BF00BF00BF00BF00BF00BF00BF6C
:104C5000012B084600BF12D000BF00BF00BF00BF3D
:104C600000BF00BF00BF00BF00BF00BF00BF022BDE
:104C700000BF3BD1901E032904D2C5E7104603298B
:104C8000C2D300BF00BF00BF00BF00BF00BF00BF56
:104C900000BF00BF00BF00BF00BF00BF00BF00BF1C
:104CA00000BF00BF00BF00BF00BF00BF00BF00BF0C
:104CB00000BF00BF00BF00BF00BF00BF00BF00BFFC
:104CC00000BF00BF00BF00BF00BF00BF00BF00BFEC
:104CD00000BF00BF00BF00BF00BF00BF00BF00BFDC
:104CE00000BF043800BFCDD18EE700BF00BF00BFBA
:104CF00000BF00BF00BF00BF00BF00BF00BF00BFBC
:104D000000BFD01E00BF0329BCD27DE700BF00BF9B
:104D100000BF00BF00BF00BF00BF00BF00BF00BF9B
:104D200000BFD01E00BF0329BFF434AF64E700000A
:104D300090F89830013B012B2CD80068836D0B4212
:104D400030D0836D0B408B4212BF0323C36D43F001
:104D50000203C3658B0504D5D0F8E0301343C0F8D7
:104D6000E0304B0504D5D0F8E4301A43C0F8E42015
:104D70004FF6FF72C3F6CF72436D0A401A43426585
:104D80008A0F4AF614010020C4F200010B681A438E
:104D90000A60704700F19C01012002220B681A434F
:104DA0000A607047C36D43F00103C3658B05D3D41C
:104DB000D7E700002DE9F04190F89830022B1BD185
:104DC0000668D6F8C03013F07C5F1FD0D6F8C43028
:104DD0009B0225D4D6F8C430D1E90075D1F808E09B
:104DE0000C69C3F3044C2DB344EA070343EA0E03F2
:104DF00043F0804E22E000BFD0F89C1041F0080143
:104E0000C0F89C100120BDE8F08100BFD0F89C10D4
:104E100041F02001C0F89C100120BDE8F08100BFE6
:104E2000D0F89C1041F40071C0F89C100120BDE83E
:104E3000F08100BF44EA87434EEA030ED1E90757E9
:104E4000D1E9058445EA0765CB682C4344EA0804A8
:104E50001C43836ED0F884500CFB03F705EB8703EB
:104E600045F827E05C60CF68B7F5803F0FD348F284
:104E7000B455083303320024C0F61105171957F84A
:104E8000037C1F51CF890434EF5DBC42F6D301216E
:104E900001FA0CF1C6F8D010C0F894100020BDE85B
:104EA000F08100007047000080B590F89820013A2A
:104EB000012A09D80B68CA6873B10B69072A43EA4B
:104EC000427E17D18B691AE0D0F89C1041F00201A4
:104ED000C0F89C10012080BD072A19D10A69D1E9C8
:104EE00006C3120442EA032242EA0C0242F0605274
:104EF00018E000BFD1F808C04B6943EA8C73006F1B
:104F0000496800EBC10240F831E00020536080BDE9
:104F10008B68D1E904CE9B0743EAC26242EA0C42A5
:104F200042EA0E02C06E496840F82120002080BD90
:104F300090F898C0BCF1010F0ED19200DDF800C0CE
:104F400042EA011141EA4301006841EA0C01C0F85C
:104F500080100020704700BFD0F89C1041F0040181
:104F6000C0F89C100120704790F89820013A012A5F
:104F700030D800680022CCF23002436D62EA0102B0
:104F80001A404AF6140C4265C4F2000CDCF80030FA
:104F90008A0523EA9173CCF8003044BF0022C0F8A0
:104FA000E020490544BF0021C0F8E410816D426D46
:104FB0000A438A4203D1C26D22F00102C265426DEA
:104FC0000A421CBF00207047C16D21F00201C1657B
:104FD00000207047D0F89C1041F00201C0F89C10EE
:104FE0000120704770470000704700002DE9F04332
:104FF00090F89870022F1DD1402925D10768D7F865
:10500000A06016F4FE0F00F0AF80D7F8A46076061B
:1050100000F0BC80D7F8A46000F17404F60148BF2A
:10502000D7F8A060D7F8A470466CC7F30525AC4646
:1050300031E000BFD0F89C1041F00801C0F89C108E
:105040000120BDE8F08300BF41291BD10768D7F8D4
:10505000B06016F4FE0F00F08780D7F8B4607606D3
:1050600000F09480D7F8B46000F17804F60148BFEE
:10507000D7F8B060D7F8B470C66CC7F30525AC4656
:1050800009E000BF076D8F426ED9456D00F17C04C9
:105090004FF0000C0E4627686E4357F8265007EB7A
:1050A000860E15F08045556057F8265025F060446F
:1050B00008BFC5F38A44146057F8265005F0005520
:1050C000956057F8264004F000441461BEF804408F
:1050D000D461DEF8044014F47024D460DEF8044097
:1050E00004F480145461DEF8044004F40014946164
:1050F0009EF8074004F07F041462DEF804404FEA93
:10510000D474546227D048F2B4580024C0F6110871
:105110000EEB0406377A651C1F55D78918F80770FF
:10512000BD4218D2757A1F197D70D58918F805907F
:10513000A51C4D450FD2B57ABD70D58918F80590DC
:10514000E51C4D4507D2F57A0434FD70D58918F871
:105150000550AC42DCD3402910D10068C0F8A8C08B
:105160000020BDE8F08300BFD0F89C1041F0200182
:10517000C0F89C100120BDE8F08300BF41290FD189
:105180000068C0F8B8C00020BDE8F083D0F89C10DB
:1051900041F48071C0F89C100120BDE8F08300BF8D
:1051A0001F2909D80122006802FA01F1C0F89810FD
:1051B0000020BDE8F08300BF01F01F01012200685C
:1051C00002FA01F1C0F89C100020BDE8F083000055
:1051D000704700002DE9F04F89B004464AF61000F0
:1051E000C4F2000001684AF61400C4F2000002682C
:1051F000206802EA0109056DD0F854A0036D0293FE
:10520000436D0193036D0493436D0393036D089302
:10521000436D0793036D0693436D0593D0F8548057
:10522000D0F850B05FEAC8530FD51BF480710CD092
:105230004FF4807101654AF610010020C4F20001AC
:105240000860D4F8C0102046884705EA0A064AF6E6
:10525000100A5FEA48504FEA8977C4F2000A12D573
:105260001BF480600FD02068D4F8B820D0F8DC1090
:10527000D0F8E43019404FF4806303650020CAF889
:10528000000020469047DDE9011000EA010506F420
:1052900070465FB120680021D4F8A020016509F0B4
:1052A0000300CAF80000204639469047DDE90310A4
:1052B00000EA010705F00F054EB12068D4F8A420DC
:1052C00006650020CAF8000020463146904707F0E6
:1052D000F0064DB12068D4F8A82005650020CAF872
:1052E00000002046294690474EB12068D4F8AC20F3
:1052F00006650020CAF800002046314690475FEA64
:1053000008500DD51BF400600AD020684FF40062ED
:10531000D4F8B01002650020CAF800002046884783
:105320005FEA885012D51BF400700FD02068D4F8C3
:10533000B420D0F8D810D0F8E03019404FF4007302
:1053400003650020CAF80000204690475FEA083055
:105350000DD51BF400200AD020684FF40022D4F8A9
:10536000BC1002650020CAF80000204688475FEAAA
:10537000C8300DD51BF480300AD020684FF480323D
:10538000D4F8C41002650020CAF8000020468847FF
:105390005FEA4830DDE9051000EA01050DD51BF490
:1053A00080200AD020684FF48022D4F8C81002650B
:1053B0000020CAF8000020468847DDE907100840B1
:1053C0005FEA883105F060710FD51BF400320CD014
:1053D00022684FF4003313650022CAF80020D4F885
:1053E0009C2042F08002C4F89C2000F0715541B12D
:1053F0002068D4F8D02001650020CAF800002046BB
:105400009047206845B100210565CAF80010D4F81E
:105410009C102943C4F89C10AAF5016188420BD066
:10542000D4F89C0000286DD0D4F8CC10204609B0E8
:10543000BDE8F04F084700BF606881688907EFD07A
:10544000016A426A1140026A436AD0F820801A4019
:10545000D0F82490D0F820B0466A036A11F00F010A
:105460000893436A02F030050793D0F824A0036A3A
:10547000069304D00162D4F8D4202046904708EA6D
:10548000090735B16068D4F8D8200562204629465E
:10549000904706EA0B065FEA4A6007F4C0750FD52D
:1054A000069810F040000BD06068D4F8DC30C16B77
:1054B000C26B4027090C02F03F0207622046984762
:1054C000DDE9071000EA010706F4FC4635B1606823
:1054D000D4F8E020056220462946904707F4F020E2
:1054E00036B161680E62D4F89C103143C4F89C1048
:1054F000002895D061680862D4F89C100843C4F86D
:105500009C008DE709B0BDE8F08F00002DE9F04F59
:1055100083B0002800F0A080044600684AF200082A
:10552000C4F20008404504BF08F58071616094F83A
:105530009810002964D1002084F8990044F6A560F1
:1055400045F63541C0F61000C0F6100145F6D932D7
:1055500045F6DD3345F6394704F1A00EC0F61002DA
:10556000C0F61003C0F610078EE88F0045F2D11088
:1055700045F6294145F6314645F62D4545F6D53CDB
:10558000C0F61000C0F6100145F6254244F6E5735A
:1055900044F6E97704F1C00EC0F61006C0F6100517
:1055A000C0F6100CC0F61002C0F61003C0F61007CB
:1055B0008EE88F00D4F8E410C4E92D65C4F8BCC0AF
:1055C00045F6194645F6214545F61D4C45F615406C
:1055D000C0F61006C0F61005C0F6100CC0F610009C
:1055E000C4E93565C4F8DCC0C4F8E00029B945F663
:1055F000B111C0F61001C4F8E410204688472068B5
:10560000816921F01001816100F0B4FC054600BF02
:1056100020688169090705D500F0ACFC401B0B2808
:10562000F6D310E0816941F00101816100F0A2FC34
:10563000054600BF20688169C90711D100F09AFCB6
:10564000401B0B28F6D30120D4F89C100843C4F863
:105650009C00032084F89800012003B0BDE8F08F7F
:10566000816941F002018161217C8269012922F076
:10567000400218BF40328261617C8269012922F4B4
:10568000804208BF02F580428261A17C82690129C3
:1056900022F4805218BF02F580528261816921F4A0
:1056A0004073D4E902120B438361836923F0A4039E
:1056B0008361036923F0100303619AB1012A0DD0BD
:1056C000022A09D08369032A43F0800383610369B6
:1056D00043F01003036105D1202200E00422836916
:1056E0001A438261D4E90572D4E90736551E6FF07A
:1056F000FF0202EB032343EA4563013E1E430023FE
:10570000CFF6FF7303EB07473743B1F5407FC7611F
:1057100010D1D4E90917D4E90B65013F02EB062249
:105720003A436FF00F0707EB05173A4303EB0141CC
:105730001143C160276E2FB1616ED0F8C0201143B4
:10574000C0F8C010E16D0191F94247F64061C0F622
:10575000110109D0D0F8C820A36E22F0070251F839
:1057600023301A43C0F8C820266C4EB1D0F8BC20B4
:10577000636C22F0070251F823301A43C0F8BC20B2
:10578000D4F848A0BAF1000F0AD0D0F8BC20E56CDC
:1057900022F0700251F8255042EA0512C0F8BC20F0
:1057A000D4F85090B9F1000F0AD0D0F8BC20656D44
:1057B00022F4E06251F8251042EA0121C0F8BC1041
:1057C0004045029704D161688A6822F003028A602A
:1057D0000021C4F89410C4F89C10012184F898109A
:1057E000D0F884104FF6FC7221EA0203D4E90D1EB2
:1057F000D4F83CB043EA8103656CC0F88430D0F83B
:1058000084300EEB010223F47F0343EA0E43C0F819
:105810008430D0F8883005FB06FC6FF38F0343EA31
:105820008203C0F88830D0F8883002EB4B0223F4B2
:10583000FE0343EA0B43C0F88830D0F8A0306FF382
:105840008F0343EA8203C0F8A030D0F8A03005FBF4
:10585000062223F4FE0343EA0643C0F8A030D0F842
:10586000B0306FF38F0343EA8203C0F8B030D0F852
:10587000B03023F4FE0343EA0A43C0F8B030E36CCF
:10588000D0F8AC5003FB0A226FF38F0545EA82057E
:10589000C0F8AC50656DD0F8F08005FB09226FF3BD
:1058A0008F0848EA8206C0F8F060D0F8F080A66D54
:1058B00028F47C1747EA0647C0F8F070D0F8C070AB
:1058C00002EB46026FF38F0747EA8202C0F8C0205E
:1058D000D0F8C02003FB0AF3DDF804A022F47C1208
:1058E00042EA0A42C0F8C020D0F8C020DDF80880A3
:1058F00022F07C5242EA0862C0F8C0204AF200005E
:10590000C4F2000000EB810000F5406101EB8E0E57
:105910000EEBCB0202EB8C0705FB09F507EB8303CB
:10592000D4F868C003EB850505EBC6060AFB0CF04E
:10593000C4E91D2704F17C0206EB800068C208FB65
:105940000CF2C4F8880000EB82004DF2FC32C4F285
:1059500000029042C4E91B1EC4F8900002D9202026
:1059600072E600BF81421FD200200A4642F8040BB3
:10597000D4F890309A4214D24860D4F8902001F1C3
:10598000080393420DD200208860D4F8902001F1E2
:105990000C03934205D2C860D4F890201031914294
:1059A000E2D303B0BDE8F08F002003B0BDE8F08F74
:1059B0002DE9F041B6B0044631A81421FBF745F9B2
:1059C00002A8BC21FBF741F920684AF20041C4F269
:1059D000000188425ED04AF20001C4F20001884210
:1059E00040F0A5804FF4004002904FF080501D9091
:1059F00002A801F0BDF808B1FCF756FB40F2307187
:105A0000C1F200010A6844F2E040C5F60200531CEE
:105A10000B6042B9C16841F48071C160C16801F492
:105A2000807101910199016831AC41F00801016078
:105A30000168022501F00801019101990168002621
:105A400041F0800101600068032700F080000190B0
:105A5000019840F21C50C1F2000000684FF00908A4
:105A60002146CDE9315533963497CDF8D48000F0F6
:105A700085F94FF4804031A9E1C140F21850C1F2DC
:105A8000000000682146CDF8D48000F077F9152495
:105A900013253CE04FF4004002904FF080501D90E1
:105AA00002A801F065F808B1FCF7FEFA40F2307187
:105AB000C1F200010A6844F2E040C5F60200531C3E
:105AC0000B6042B9C16841F48071C160C16801F4E2
:105AD000807101910199016841F002010160006843
