:020000040806EC
:10000000B02402244D0506085505060857050608C4
:10001000590506085B0506085D0506080000000096
:100020000000000000000000000000001D040608A1
:100030006105060800000000D50406083905060819
:1000400067050608670506086705060867050608C8
:1000500067050608670506086705060867050608B8
:100060006705060867050608670506089518060867
:10007000A1180608AD180608B9180608670506088D
:10008000C5180608D118060867050608AB1E06083D
:10009000C31E0608B71E0608CF1E06086705060819
:1000A0006705060867050608670506086705060868
:1000B0006705060867050608670506082978060823
:1000C0001D78060841780608357806088F8C0608E2
:1000D0009B8C06086705060867050608670506087D
:1000E00067050608670506080000000067050608A2
:1000F00001910608670506086705060867050608F2
:10010000670506086705060867050608A78C060840
:1001100067050608670506086705060867050608F7
:1001200067050608670506086705060867050608E7
:10013000670506086F1E06087B1E06086705060889
:1001400067050608670506080000000000000000BB
:1001500067050608670506086705060867050608B7
:10016000597806084D7806086705060867050608E9
:100170006705060867050608670506080000000011
:100180006705060867050608670506086705060887
:1001900067050608B38C0608BF8C060867050608C5
:1001A0006705060867050608670506086705060867
:1001B0006705060867050608670506086705060857
:1001C0006705060867050608670506086705060847
:1001D0006705060867050608670506086705060837
:1001E0006705060867050608670506086705060827
:1001F0006705060867050608670506086705060817
:100200006705060867050608670506086705060806
:10021000B9900608DD900608670506086705060818
:100220006705060867050608670506080000000060
:100230006705060815780608197806086705060890
:1002400067050608670506086705060867050608C6
:1002500067050608670506086705060867050608B6
:1002600067050608670506086705060867050608A6
:100270006705060867050608670506086705060896
:100280006705060867050608670506080000000000
:10029000670506086705060800F002F800F07BF81D
:1002A0000AA090E8000C82448344AAF10107DA45D1
:1002B00001D100F070F8AFF2090EBAE80F0013F0A8
:1002C000010F18BFFB1A43F0010318476C6D0100C2
:1002D0008C6D01000A444FF0000C10F8013B13F044
:1002E000070408BF10F8014B1D1108BF10F8015B8F
:1002F000641E05D010F8016B641E01F8016BF9D182
:1003000013F0080F1EBF10F8014BAD1C0C1B09D1D8
:100310006D1E58BF01F801CBFAD505E014F8016B4A
:1003200001F8016B6D1EF9D59142D6D370470000DC
:100330000023002400250026103A28BF78C1FBD8EE
:10034000520728BF30C148BF0B607047662916F0BE
:100350000A81642900F05682782900F08F8273297F
:1003600000F01E86002070471FB516F0EFF89DE8DC
:10037000030000F008FD01F007F90400002000214F
:1003800016F0AEF8E06000F0C9FC1FBD10B500200B
:1003900001F090F810BD01F0D2F81146FFF7E4FF2C
:1003A00011F0DBFB01F0ECF903B4FFF7EFFF03BC46
:1003B00000F0C6FC80F309887047EFF309807047AE
:1003C000684680F3098804480078C00714BF0220FB
:1003D000032080F31488704750010024DFF818C010
:1003E000EFF305831B0618BF6047EFF31483DB07A9
:1003F00008BF604700DF704769460708DFF818C08C
:10040000EFF305831B0618BF6047EFF31483DB0788
:1004100008BF604700DF7047E1460708EFF3098037
:10042000816911F8021CE1BB90E80F1010B5E0479C
:10043000BDE81040EFF3098C8CE80700214B93E8EE
:100440000600914208BF704741B91EF0100F16D147
:100450001D49086820F00100086010E01EF0100F30
:1004600006BF2CED108A0120002081F838002CE90D
:10047000F00FC1F83CC00CB415F000FD0CBC1A60C4
:10048000D2F83CC0BCE8F00F92F8380000280EBF4C
:100490006FF0020E6FF0120EBCEC108A8CF309881C
:1004A000704710B5094A1268914209D8084C54F8AF
:1004B000214090E80F10A047EFF3098C8CE80F0063
:1004C00010BD0000A800002434EF00E094250708C8
:1004D0009425070810B515F0CBFBBDE81040154B6F
:1004E00093E80600914208BF7047EFF3098C1EF0B5
:1004F000100F06BF2CED108A0120002081F8380073
:100500002CE9F00FC1F83CC00CB415F0B7FC0CBCE2
:100510001A60D2F83CC0BCE8F00F92F8380000280E
:100520000EBF6FF0020E6FF0120EBCEC108A8CF34F
:1005300009887047A800002410B515F0C3FCCCE76B
:1005400010B513F0BDF815F0BDFCC6E709488047AB
:1005500009480047FEE7FEE7FEE7FEE7FEE7FEE7A5
:10056000FEE7FEE7FEE7FEE704480549054A064BBD
:1005700070470000C58F060899020608B0140024D1
:10058000B0240224B0140224B0140224004870479E
:10059000E405002470B5A0FB0140B4F1805170F176
:1005A000000024BF002070BD204600F064FC050060
:1005B0001CBF214600F016FD284670BD70B51646DA
:1005C0000D46041F002808BF70BD002E1CBF05F19A
:1005D0000C0011F0F7F92B465868002818BFA0420C
:1005E00038BF0346F8D31968CA18A24218BF5C6026
:1005F00003D122681C461144196021680A198242FD
:1006000018BF606004D142686260006808442060DE
:10061000002E1CBF05F10C0011F0D8F970BD10B50B
:10062000044600F093FB01682046BDE8104001221B
:10063000C4E753EA020C00F069802DE9F04B4FF05B
:100640000006002B1FBFB3FA83F503FA05F424FA62
:1006500005F65E4012BF1643B2FA82F502FA05F4BF
:10066000C5F120051EBF22FA05FC44EA0C04203522
:1006700056EA044C4FEA144418BF641C4FF00008BB
:100680004FF00009904271EB030C39D3002919BFD8
:10069000B1FA81F701FA07F6B0FA80F700FA07F627
:1006A000C7F120071EBF20FA07FC46EA0C062037D8
:1006B000B6FBF4FCA7EB0507103F07F01F0BCBF1CF
:1006C00020062CFA06F60CFA0BFB44BFB3460026B4
:1006D000202FA4BF5E464FF0000B5BEA060C08BF5C
:1006E0004FF0010B19EB0B0948EB0608ABFB027C42
:1006F00006FB02CC0BFB03CCC01B71EB0C01C1E76A
:100700000B46024641464846BDE8F08B13B5084308
:1007100018BF4FF0FF300146AFF30080BDE81C402A
:10072000704700000FB41CB50C0007AA009007D05A
:100730004142A14202D32044401E01E04FF0FF306D
:10074000074B7B4469460190069800F0FCFB0021B2
:10075000002C01D0009A11701CBC5DF814FB000045
:100760002708000070B5044685690068C10601D5F8
:10077000302600E02026C00707D070BDD4E9012153
:1007800030469047206A401C20626D1EF6D570BD31
:1007900070B5044685690078C00707D170BDD4E9FB
:1007A000012120209047206A401C20626D1EF6D552
:1007B00070BD70B50C460546012A05D02878800624
:1007C00000D5EA69002302E0012305E05B1C9342A7
:1007D00002D2E05C0028F9D1A869E618C01AA86125
:1007E000286A184428622846FFF7BCFF04E0D5E9D0
:1007F000012114F8010B9047B442F8D32846FFF7C3
:10080000C7FF70BD2DE9F041064600241068752928
:10081000314616A510D0AFF30080002802DA40421E
:1008200013A507E031688A0701D512A502E0490740
:1008300004D511A5012401E0AFF3008000210A22B4
:1008400006F1240709E0B0FBF2FCB0FBF2F302FB77
:100850001C00303078541846491C0028F3D1234638
:100860002A463046BDE8F04100F00FBB0000000012
:100870002D0000002B0000002000000070B5044691
:100880000D4621461068AFF300802188090502D586
:100890000F4A7A4402E00E4A7A440E32002104F1F3
:1008A000240305E000F00F060009965D5E54491C24
:1008B0000028F7D120780023000704D5702D02D03E
:1008C00009B1022311322046BDE8704000F0DDBAC4
:1008D000D45C01002DE9F05F894604464FF0000A20
:1008E000DFF874B1FB44C0F820A02046E1688847D7
:1008F000002874D0252806D0D4E901219047206A29
:10090000401C2062F1E700265F462046E1688847E8
:100910002028054607DB312D05D2781910F8200C68
:1009200008B10643F1E7B00701D526F00406C4F884
:100930001CA00027C4F818A02A2D09D0284611F0C1
:1009400070FE38B304EB8708303DC8F8185019E042
:1009500059F8041B204604EB87029161E16888473F
:10096000012F054618D1E069002820DA26F020067C
:100970001DE0D8F8180000EB800005EB400030388F
:10098000C8F818002046E1688847054611F049FE7E
:100990000028EED1012F0AD02E2D08D12046E16883
:1009A00088477F1C0546022F46F02006C4DBA0695D
:1009B000002803DA404246F00106A061F00701D0AA
:1009C00026F010066C2D0BD0682D09D04C2D39D097
:1009D0006A2D35D0742D35D07A2D33D016E038E01D
:1009E000E1682F4620468847B842054609D16C2F5A
:1009F00026D04FF48060E1680643204688470546CC
:100A000004E06C2F1AD04FF4807006430DB3A5F1AB
:100A10004100192802D8203546F400664A46294686
:100A2000204626604E46FFF791FC80B101280BD08E
:100A3000F61D26F0070000F1080956E74020E4E71C
:100A40008020D8E70020D6E706F104094DE72846C4
:100A500052E7206ABDE8F09FAA5C010010B50020B3
:100A600000F0B9FAFFF792FCBDE81040012000F059
:100A700067B90B460146184600F096BA10B5431CFC
:100A800002E010F8011B71B18107FAD14FF0013279
:100A900002C88C1A8C4314EAC211F9D0C01A0A0693
:100AA00003D0C01E10BDC01A10BD0A0401D0801EA4
:100AB00010BD0902FCD0401E10BD032A40F2308058
:100AC00010F0030C00F0158011F8013BBCF1020F8F
:100AD000624498BF11F801CB00F8013B38BF11F810
:100AE000013BA2F1040298BF00F801CB38BF00F827
:100AF000013B11F0030300F06780083AC0F0088062
:100B000051F8043B083A51F804CBA0E80810F5E787
:100B1000121D5CBF51F8043B40F8043BAFF300806A
:100B2000D20724BF11F8013B11F801CB48BF11F8DF
:100B3000012B24BF00F8013B00F801CB48BF00F8AF
:100B4000012B7047431A28BF9A427FF6B6AF104474
:100B50001144032A40F2268010F0030F1EBF11F843
:100B6000013D521E00F8013D10F0030F7FF4F6AF77
:100B700011F0030300F06D80083AC0F00B8051F8CB
:100B8000043D083A51F804CD40F8043D40F804CD46
:100B9000FFF7F3BF121D5CBF51F8043D40F8043D60
:100BA000AFF30080D20724BF11F8013D11F801CD49
:100BB00048BF11F8012C24BF00F8013D00F801CD19
:100BC00048BF00F8012C704710B5203AC0F00B80E8
:100BD000B1E81850A0E81850B1E81850A0E8185033
:100BE000203ABFF4F5AF5FEA027C24BFB1E81850A9
:100BF000A0E8185044BF18C918C0BDE810405FEA0B
:100C0000827C24BF51F8043B40F8043B08BF704786
:100C1000D20728BF31F8023B48BF11F8012B28BF8B
:100C200020F8023B48BF00F8012B7047431A28BF49
:100C30009A427FF6C9AF1044114410F0030F1EBF53
:100C400011F8013D521E00F8013D10F0030F7FF432
:100C5000F6AF103AC0F00A8010B531E9185020E91B
:100C60001850103ABFF4F9AFBDE81040530724BF45
:100C700031E9081020E9081044BF51F8043D40F85C
:100C8000043D12F0030F08BF7047D20728BF31F8A8
:100C9000023D48BF11F8012C28BF20F8023D48BF93
:100CA00000F8012C704702F0FF0343EA032242EAF6
:100CB000024200F099B902F0FF0343EA032242EA3C
:100CC000024200F002B84FF0000200B5134694460D
:100CD0009646203922BFA0E80C50A0E80C50B1F194
:100CE0002001BFF4F7AF090728BFA0E80C5048BFA8
:100CF0000CC05DF804EB890028BF40F8042B08BF46
:100D0000704748BF20F8022B11F0804F18BF00F841
:100D1000012B7047704770477047000070B5064C54
:100D20007C44064D7D4404E0204601680844804729
:100D3000241DAC42F8D170BD506301005463010022
:100D400001491820ABBEFEE72600020010B5FFF7F0
:100D50001DFC083010BD704770477047704738B5AC
:100D600004460A4600206946AFF30080002808BF09
:100D700038BD02460099204600F06CF9012038BDCC
:100D8000012000F0D5BBF8B5AFF300800546002088
:100D90000C46102000BF0646A819A0420DD93246C5
:100DA00069460020AFF30080070008BF00F0C0FBD9
:100DB0000098A04218BF0546C419FFF7C7FF056099
:100DC0000746F01D20F007004619284600F032F9CA
:100DD000B44208BFF8BDA21B31463868BDE8F840F0
:100DE00000F038B90844401E491E88437047082166
:100DF000001DF7E72DE9F04117460E460446FFF7C0
:100E0000F6FFA042054633D9002F1CBF06F10C00A7
:100E100010F0D8FD30467468F4B12168A94217D3A8
:100E200005F1080291423CBF6168416007D36268E6
:100E300061194A602268521B0A6041602560002FD8
:100E40001CBF06F10C0010F0C1FD201DBDE8F081B3
:100E500020466468002CE0D129463046FFF77FFF2A
:100E60000028D7D1002F1CBF06F10C0010F0AEFDFA
:100E70000020BDE8F08110B50446FFF767FF016868
:100E80002046BDE810400122B4E72DE9F0470D46A9
:100E900099469246044600F124080168880604D564
:100EA000E06921F01001216000E00120A84201DD8D
:100EB000471B00E00027A1697A1902EB0900081A14
:100EC000A0612078C00602D42046FFF74BFC002624
:100ED00008E0D4E901211AF806009047206A401C76
:100EE000761C20624E45F4DB2078C0060AD52046E9
:100EF000FFF738FC06E0D4E9012130209047206A52
:100F0000401C2062381EA7F10107F4DC07E0D4E999
:100F1000012118F805009047206A401C2062281E15
:100F2000A5F10105F3DC2046FFF732FC207800062E
:100F300002D50220BDE8F0870120FBE701694A1CC9
:100F400002610878704700B58FB0CDE9013100210A
:100F5000059105497944CDE9031011466846FFF72C
:100F6000B9FC0FB000BD0000E5FFFFFFD1E9002391
:100F70009A4202D2531C0B601070704710B543693F
:100F800013B1AFF3008001E0FFF713FC012010BDA7
:100F9000127800F124010A7000224A700122EDE764
:100FA00011684FF0FF32E9E72DE9F0410746154699
:100FB0000E461020FFF75FFF04000AD06760C4E907
:100FC000026500F032F80168216004600020BDE88D
:100FD000F0810120FBE710B500F092FABDE8104067
:100FE00000F089BA4FF000020429C0F0128010F01E
:100FF000030C3FF46AAECCF1040CBCF1020F18BF35
:1010000000F8012BA8BF20F8022BA1EB0C01FFF781
:101010005CBE5FEAC17C24BF00F8012B00F8012B05
:1010200048BF00F8012B7047704710B5FFF7AEFAC4
:10103000383010BD00210160C0E901100C3010F003
:10104000C3BC10207047801A0844401E491E8843C4
:101050001044704770B5144605468C464368002B13
:1010600018BF634538BF1846F8D30268104460457E
:1010700008D06646604604220821FFF7E4FF811B82
:101080008446641A2946CCF80040BDE8704000222E
:101090000CF10400FFF792BA2DE9FF4F0C461E46F3
:1010A0004FF0FF378BB0D2E90001DDF860800A9085
:1010B0008A46C1F30A5505B93D46002108464FF05E
:1010C0000000BAF1000F00F4400005DA00EB8000E8
:1010D0004FF4400101EA50004FEA9059B9F1010F75
:1010E00000DDB9460A9850EA4A000ED044F6105086
:1010F000A5F2FF3545432F14B8F1000F1ED07542FD
:10110000291E1EDDC9F100021CE0B8F1010F4FF0ED
:10111000000001D0302103E0F24305E02154401CDF
:10112000B042FBDB30460022002121540B99C1F86C
:101130000880C1E900200FB0BDE8F08FBD1B6D1C19
:10114000DEE74A4600DA694206A800F0A7FA06ABD5
:1011500093E8070003AB83E8070050460A9910F0B4
:1011600051FE8DE80700A0F500501F38009003984D
:10117000002D0ADD42F21F014A460844002303A95C
:101180000390684611F0BAF809E0A0F500504A460D
:101190001F38002303A90390684611F0C4F88DE8B6
:1011A00007000004000C03D04FF0FF30410800E0BE
:1011B0001046B8F1000F03D00022009215461EE041
:1011C000751E05D400F0E5F9303262556D1EF9D573
:1011D000B3460122084302D000227F1C04E020789D
:1011E000302801D100227F1E002A099784D01DE0FB
:1011F000112D07DA00F0CDF9303262556D1C50EA3E
:101200000102F5D1084302D00098C8B10EE00021D8
:10121000681E05E0235C625C63542254401E491C36
:101220008142F7DBAB46A81B401E0990002004F862
:101230000B000B98099AC0F80880C0E9002B7AE7E8
:1012400011264FF0000857E72DE9F04F8846044675
:10125000D21D22F0070191B0D1E90001CDE90A01C8
:1012600011F0A3F902460B98C00F01D02D2007E022
:101270002068810701D52B2002E0202101EAC0006F
:10128000032A099001D0072A05DB03464146204680
:1012900000F0C4F90BE12078800601D5E06900E098
:1012A0000620B8F1650F814606D0B8F1660F18D058
:1012B000B8F1670F70D131E00020B9F1110F009043
:1012C00001DB112301E009F101030AAA01A90CA81D
:1012D000FFF7E2FEDDE90C70002609F10105834607
:1012E00047E001204B4600904FF000470AAA01A9B1
:1012F0000CA8FFF7D1FEDDE90DB00C995D46002684
:1013000010B909F101000D18B9EB050003D4C0F1C3
:10131000FF3609F10105A5EB09002BE0B9F1010F3A
:1013200001DA4FF001090020B9F1110F0090484691
:1013300001DD112300E003460AAA01A90CA8FFF76A
:10134000ABFEDDE90C704D46002683462078000791
:101350000AD4AB4500DA5D4601A8012D04DD411930
:1013600011F8011C302907D04F4502DA17F1040F9C
:1013700004DA012082460FE06D1EEEE7002F02DC4A
:10138000ED1B3E4403E0781CA84200DD7D1CB81B29
:1013900000F1010A4FF000472078000703D4AA4566
:1013A00001DB4FF0FF3A0021B7F1004F0DF1430888
:1013B0008DF8431024D002202B23002F01DA7F4226
:1013C0002D230A21021EA0F1010000DC5FB197FB72
:1013D000F1FC97FBF1F201FB1C7C17460CF1300C81
:1013E00008F801CDEEE7A8F1010003702188090596
:1013F00001D5452100E06521A0F1010800F8011C9C
:1014000009980FA9A1EB0807FF1D00B101204119A0
:1014100001EBEA70A1693844081A401EA0612078E7
:10142000C00602D42046FFF79DF9099828B1D4E9F7
:1014300001219047206A401C20622078C00622D5F6
:101440002046FFF78FF91EE0002E04DBB34502DDD6
:1014500001A8805D00E03020D4E901219047206A96
:10146000401C2062761CAAF101005FEA000A0AD142
:1014700000F08AF8C0680168405CD4E90121904717
:10148000206A401C2062281EA5F10105DCDC07E073
:10149000D4E9012118F8010B9047206A401C206212
:1014A000381EA7F10107F3DC2046FFF771F903208E
:1014B00011B041E62DE9F0410646FFF7B6FD804642
:1014C000454613E016B1E068B0420ED120682860AE
:1014D000D4E90101D8F8007088472046FFF79FF84B
:1014E000D8F80000B842EBD100E025462C68002C6B
:1014F000E8D1BDE8F081002801D0FFF721BC70479A
:1015000010B5002102A000F044F9012010BD000038
:10151000534947414252543A2041626E6F726D61A5
:101520006C207465726D696E6174696F6E00000085
:1015300010B500F047F9BDE81040FFF7DCBF754675
:10154000FFF724F8AE4605006946534620F0070031
:10155000854618B020B5FFF707F8BDE820404FF0EA
:1015600000064FF000074FF000084FF0000BAC46AC
:10157000ACE8C009ACE8C009ACE8C009ACE8C009F7
:1015800021F007018D46704710B5FEF7FFFF2030B0
:1015900010BD30B5B0F10A0271F100034FEA900EB0
:1015A0004EEA817EB0EB0E0061EB91014FEA101E16
:1015B0004EEA017E10EB0E0041EB11114FEA102EA6
:1015C0004EEA016E10EB0E0041EB11214FEA104E76
:1015D0004EEA014E10EB0E0041EB1141401841F173
:1015E00000014FEAD00040EA41704FEAD1014FEAD2
:1015F000810444EA907410EB800544EB01046D19FA
:1016000044EB0404521BA3414FF0000348BF0A32CD
:1016100000D530BD401C41F1000130BD2DE9F04145
:101620001F46044603260168072A01F4006004DB14
:1016300008B116A505E016A503E008B115A500E060
:1016400015A521F010002060A069C01EA0610FB197
:10165000401EA0612046FFF785F84FB1D4E9012173
:1016600038469047206A401C2062C01C206206E079
:10167000206AFAE7D4E9012115F8010B9047761E9C
:10168000F8D22046FFF784F8BDE8F0814E414E00C5
:101690006E616E00494E4600696E66002DE9F047A6
:1016A000814616468AB0354878440DC88DE80D004D
:1016B00032487844801C03AC0DC884E80D0041F624
:1016C0009B300844372190FBF1F290FBF1F5A5F136
:1016D000800501FB12041B3C02D56442012000E09E
:1016E0000020DFF898A080460027FA44AAF1BE0A3D
:1016F0000EE0E0070AD03246684607EB47010123B7
:101700000AEB810110F00FFE8DE8070064107F1CCA
:10171000002CEED1194F7F44AE3F19E0E80715D0F9
:1017200007EB04100DF1180A90E80E008AE80E008D
:10173000C068F04201D1981908903246012306A9E9
:1017400003A810F0F0FD03AB83E807006D10641CE4
:10175000002DE3D14FF0010332466946B8F1000F86
:1017600003A802D010F0CAFD01E010F0DCFDC9E9C9
:101770000001C9F808200AB0BDE8F087744F0100E5
:1017800010B50446AFF300802046BDE81040FEF7D8
:101790000BBE70B505460C460A2000E06D1C10F02B
:1017A00017F935B128780028F8D102E0641C10F050
:1017B0000FF914B120780028F8D1BDE870400A2054
:1017C00010F006B910B5012805D0002103A0FFF7DD
:1017D000E0FF012010BD09A1F8E70000534947527E
:1017E000544D454D3A204F7574206F6620686561F1
:1017F00070206D656D6F7279000000003A204865B9
:101800006170206D656D6F727920636F7272757093
:10181000746564000000000030B44FF0013C50F8E3
:10182000042BCCFA52F451F8043BD51A20D1FCB960
:1018300050F8042BCCFA52F451F8043BD51A17D1C6
:10184000B4B950F8042BCCFA52F451F8043BD51A31
:101850000ED16CB950F8042BCCFA52F451F8043B79
:10186000D51A05D1002CDAD030BC4FF000007047FB
:1018700029BAB1FA81F111F01801D1F120008440A8
:10188000F2D1CA40CB4012F0FF0213F0FF0330BC8C
:10189000D01A704740F6D400C2F2004000F09EBD5E
:1018A00040F65C00C2F2004000F098BD40F64C10DB
:1018B000C2F2004000F092BD40F6C410C2F20040F7
:1018C00000F08CBD40F63C20C2F2004000F086BD26
:1018D00040F6B420C2F2004000F080BD40F20F425A
:1018E000D0F800C0C4F20202944510DC6F22C4F2AA
:1018F0000202944520DC3F22C4F20202944536DC09
:101900001022C4F20202944554D028224EE040F244
:101910006F42C4F2020294451ADC40F23F42C4F224
:10192000020294452ADC40F21042C4F202029445BD
:1019300040D040F2284239E09F22C4F2020294458E
:1019400025DC7022C4F20202944533D088222DE0B7
:1019500040F29F42C4F2020294451FDC40F2704202
:10196000C4F20202944525D040F288421EE0402293
:10197000C4F2020294451DD0582217E040F24042C2
:10198000C4F20202944515D040F258420EE0A02263
:10199000C4F2020294450DD0B82207E040F2B842EA
:1019A000C4F20202944505D040F2A042C4F2020201
:1019B000944517D10CF0F8024AF6AB23103ACAF658
:1019C000AA23A2FB033109A35F2AC1F302115B5CC6
:1019D00040F2FF312CEA0101C36588BF0431816503
:1019E000084670472CF0FF01F9E700BF000610160B
:1019F0000006101610B545F257420168C5F60202FE
:101A000091420EDC45F22F42C5F60202914217DCEC
:101A100045F20842C5F60202914226D045F21C4228
:101A20001FE045F27F42C5F60202914211DC45F209
:101A30005842C5F60202914217D045F26C4210E0BE
:101A400045F23042C5F6020291420ED045F24442C0
:101A500007E045F29442C5F60202914205D045F2F4
:101A60008042C5F6020291421AD101F0FC014CF607
:101A7000CD420839CCF6CC42A1FB021245F6000358
:101A8000C5F60203120903F1800103EB820302F0A1
:101A90001F0203660123416603FA02F1816610BD4D
:101AA00001F0F8024AF6AB23103ACAF6AA23A2FBC9
:101AB000032340F20F42C4F202024FF0080E4FEA35
:101AC000131C914202F1AA04624688BF0EEB131266
:101AD00040F60003A142C4F2020328BF6246D2E7E7
:101AE00010B50279511E072988BF10BD45F2574C29
:101AF00045F6FC0E0368C5F6020CC5F6020E6345FA
:101B00000EF1440C0EDC45F22F44C5F60204A3424C
:101B100017DC45F20844C5F60204A34226D045F27C
:101B20001C441FE045F27F44C5F60204A34211DCC9
:101B300045F25844C5F60204A34217D045F26C445E
:101B400010E045F23044C5F60204A3420ED045F23F
:101B5000444407E045F28044C5F60204A34205D0A0
:101B600045F29444C5F60204A34209D10EEB820269
:101B7000C2660122C0F870C002FA01F1416710BDCF
:101B800040F6FC0EC4F2020E0EF1440CEEE770B506
:101B900040F26F44D0F800C0C4F20204D0F858E01C
:101BA000A44517DC9F25C4F20205AC452DDC572562
:101BB000C4F20205AC4550DC1025C4F20205AC4568
:101BC00000F08A802825C4F20205AC4500F084802C
:101BD00040256BE045F22F45C5F60205AC4527DCF4
:101BE00040F2B745C4F20205AC4542DC40F2704514
:101BF000C4F20205AC456FD040F28845C4F202053C
:101C0000AC4569D040F2A04550E040F22745C4F20F
:101C10000205AC453CDCA025C4F20205AC455BD016
:101C2000B825C4F20205AC4556D040F210453DE05F
:101C300045F26B45C5F60205AC453ADC45F2304548
:101C4000C5F60205AC4547D045F24445C5F6020548
:101C5000AC4541D045F2584539E05825C4F202055B
:101C6000AC4539D07025C4F20205AC4534D0882586
:101C70001CE040F2B845C4F20205AC452CD045F258
:101C80000845C5F60205AC4526D045F21C451EE0C8
:101C900040F22845C4F20205AC451DD040F2404553
:101CA000C4F20205AC4517D040F25845C4F2020513
:101CB0000FE045F26C45C5F60205AC450CD045F287
:101CC0009445C5F60205AC4506D045F28045C5F6FB
:101CD0000205AC4540F0CA80456EC66E002E866E89
:101CE0006E601CBFD0E91C566E60A44515DC9F24B5
:101CF000C4F20204A4452BDC5724C4F20204A44518
:101D00004EDC1024C4F20204A44576D02824C4F288
:101D10000204A44571D040246BE045F22F44C5F67F
:101D20000204A44527DC40F2B744C4F20204A445EF
:101D300042DC40F27044C4F20204A4455DD040F29B
:101D40008844C4F20204A44557D040F2A04450E0B5
:101D500040F22744C4F20204A4453CDCA024C4F2AF
:101D60000204A44549D0B824C4F20204A44544D0D6
:101D700040F210443DE045F26B44C5F60204A44530
:101D80004CDC45F23044C5F60204A44558D045F277
:101D90004444C5F60204A44552D045F258444BE0F1
:101DA0005824C4F20204A44527D07024C4F20204CB
:101DB000A44522D088241CE040F2B844C4F20204B6
:101DC000A4451AD045F20844C5F60204A44537D00C
:101DD00045F21C4430E040F22844C4F20204A44519
:101DE0000BD040F24044C4F20204A44505D040F2B6
:101DF0005844C4F20204A44538D18468C06D00F090
:101E00001F003F2505FA00F0CEF80800DCF80000BE
:101E1000402C20F48020CCF800001BE045F26C44FC
:101E2000C5F60204A4450BD045F28044C5F6020471
:101E3000A44505D045F29444C5F60204A44515D145
:101E4000C46D012504F01F04806805FA04F4CEF87F
:101E500004404028CCF8043004D1CCF80820CCF859
:101E60000C1070BDCCF80810CCF80C2070BD41F2FD
:101E70009020C2F2004001F07EBA41F29020C2F2FE
:101E8000004001F078BA000046F6D770C0F60700AF
:101E90000FF028FE46F6F070C0F607000FF022FEA5
:101EA000EFF3108072B600BFFEE740F27C60C2F232
:101EB000004001F0CEBC40F27C60C2F2004001F074
:101EC000C8BC40F26870C2F2004001F0C2BC40F2EF
:101ED0006870C2F2004001F0BCBC0000F0B5D1E96E
:101EE00000C4D1F808E00D692CB14EEA0C0425437A
:101EF00045F0804C03E045EA8C4444EA0E0C856EC4
:101F0000D0F88470D1E907466B438D6944EA0660D6
:101F1000D1F814E00543CC6807EB830045EA0E06D0
:101F200047F823C046EA04034360CB68B3F5803F1B
:101F300038BFF0BD46F6006C08300023C0F6070C31
:101F4000D758C750CF8904331CF80770BB42F7D36A
:101F5000F0BD80B5E8B190F83510022917D140F2F4
:101F60000F420168C4F20202914214DC6F23C4F2F2
:101F70000203994224DC3F23C4F2020399423ADC73
:101F80001023C4F20203994258D0282352E0802142
:101F900041650121C0E040F26F43C4F2020399425F
:101FA0001ADC40F23F43C4F2020399422ADC40F2B9
:101FB0001043C4F20203994240D040F2284339E072
:101FC0009F23C4F20203994225DC7023C4F202036A
:101FD000994233D088232DE040F29F43C4F202039C
:101FE00099421FDC40F27043C4F20203994225D0AB
:101FF00040F288431EE04023C4F2020399421DD000
:10200000582317E040F24043C4F20203994215D02E
:1020100040F258430EE0A023C4F2020399420DD0CF
:10202000B82307E040F2B843C4F20203994205D056
:1020300040F2A043C4F2020399426FD191424FF0A3
:10204000040280F8352010DC6F20C4F202008142C7
:1020500020DC3F20C4F20200814236DC1020C4F2B2
:102060000200814253D028204EE040F26F40C4F27B
:10207000020081421ADC40F23F40C4F20200814279
:102080002ADC40F21040C4F2020081423FD040F20C
:10209000284039E09F20C4F20200814225DC7020F4
:1020A000C4F20200814232D088202DE040F29F40ED
:1020B000C4F2020081421FDC40F27040C4F2020010
:1020C000814224D040F288401EE04020C4F2020049
:1020D00081421CD0582017E040F24040C4F2020078
:1020E000814214D040F258400EE0A020C4F2020019
:1020F00081420CD0B82007E040F2B840C4F20200A0
:10210000814204D040F2A040C4F20200814208683B
:1021100020F0010008600021084680BD0A6822F016
:102120000E020A6045F25742C5F6020291420A6861
:1021300022F001020A600EDC45F22F42C5F60202CF
:10214000914217DC45F20842C5F60202914226D0C0
:1021500045F21C421FE045F27F42C5F60202914261
:1021600011DC45F25842C5F60202914217D045F201
:102170006C4210E045F23042C5F6020291420ED0A8
:1021800045F2444207E045F29442C5F6020291420C
:1021900005D045F28042C5F6020291421AD1D0E93B
:1021A000181CD0E916E30A6822F480720A6003F072
:1021B0001F01012202FA01F1CEF80410816ECCF861
:1021C0000410C16E31B10A6822F480720A60D0E94D
:1021D0001C124A60002180F83410012280F835205A
:1021E000026D002A98D0904795E7B0B510B3044629
:1021F000006840F26F420125C4F202020168904279
:1022000021F00101016017DC9F21C4F20201884224
:102210002DDC5721C4F20201884250DC1021C4F2A7
:102220000201884278D02821C4F20201884273D08A
:1022300040216DE00125C9E045F22F41C5F60201BC
:10224000884227DC40F2B741C4F20201884242DCF6
:1022500040F27041C4F2020188425DD040F28841F0
:10226000C4F20201884257D040F2A04150E040F24F
:102270002741C4F2020188423CDCA021C4F20201E1
:10228000884249D0B821C4F20201884244D040F2C9
:1022900010413DE045F26B41C5F6020188424EDC3B
:1022A00045F23041C5F6020188425AD045F2444118
:1022B000C5F60201884254D045F258414DE05821FC
:1022C000C4F20201884227D07021C4F20201884280
:1022D00022D088211CE040F2B841C4F202018842B9
:1022E0001AD045F20841C5F60201884239D045F2BC
:1022F0001C4132E040F22841C4F2020188420BD076
:1023000040F24041C4F20201884205D040F25841F7
:10231000C4F20201884259D100210160416081600C
:10232000C1600161212141612046FFF7D7FAE16DCB
:102330003F2201F01F0102FA01F1816021E045F224
:102340006C41C5F6020188420BD045F28041C5F6CA
:102350000201884205D045F29441C5F60201884247
:1023600034D10021016041608160C160016120467B
:10237000FFF7B4FAE16D012201F01F0102FA01F149
:1023800041602046FFF736FB206E20B1002101603E
:10239000D4E91901416060680138072808D820464F
:1023A000FFF79EFB04F16C02002307CA03604A603A
:1023B00004F13C00182100256567C4E91B55FEF7B0
:1023C00082FC656584F8355084F834502846B0BDE9
:1023D000406D704790F83500704700002DE9F047D8
:1023E00082B00021019140F25C110446C2F200412A
:1023F00048F2B512C1F64E32A56D096840F26F4938
:102400000068C4F20209A1FB021848452E68296839
:1024100015DC9F21C4F2020188422BDC5721C4F253
:10242000020188424FDC1021C4F20201884278D0B8
:102430002821C4F20201884273D040216CE045F2A9
:102440002F42C5F60202904227DC40F2B742C4F2A6
:102450000202904243DC40F27041C4F20201884221
:102460005FD040F28841C4F20201884259D040F264
:10247000A04151E040F22741C4F2020188423DDC14
:10248000A021C4F2020188424BD0B821C4F202015B
:10249000884246D040F210413EE045F26B42C5F61C
:1024A0000202904273DC45F23042C5F602029042CD
:1024B00000F0808045F24442C5F60202904279D095
:1024C00045F2584271E05821C4F20201884228D0F6
:1024D0007021C4F20201884223D088211CE040F21E
:1024E000B842C4F2020290421BD045F20842C5F63F
:1024F000020290425ED045F21C4256E040F2284172
:10250000C4F2020188420CD040F24041C4F2020100
:10251000884206D040F25841C4F20201884240F09D
:102520000F83E16D082201F01F0140F20F4A8A403B
:10253000C4F2020A324200F0D18050454FF0040349
:1025400012DC6F27C4F20207B84264DC3F27C4F2F2
:102550000207B84200F392801027C4F20207B84283
:1025600000F0B0802827A8E0484560DC40F23F47F3
:10257000C4F20207B84200F3888040F21047C4F268
:102580000207B84200F09E8040F2284795E045F2ED
:102590006C42C5F6020290420CD045F28042C5F66C
:1025A0000202904206D045F29442C5F602029042E1
:1025B00040F0C6820268E36D03F01F0304279F40CA
:1025C0000F4218BF12F004061BD102279F400F4292
:1025D00018BF12F0020639D1D940090740F1B08284
:1025E00012F0080100F0AC82016821F00E010160D8
:1025F000012000FA03F169606065002184F834105D
:1026000095E211046F6033D4910635D4016821F04E
:102610000401016030E09F27C4F20207B8423DDCAC
:102620007027C4F20207B8424CD0882745E040F238
:102630009F47C4F20207B84237DC40F27047C4F249
:102640000207B8423ED040F2884736E011046F607E
:1026500000F17982910600F17A82016821F00A0185
:102660000160002084F83400012084F835006EE217
:10267000D00301D4A16C5DE2216C5BE24027C4F27F
:102680000207B8421ED0582717E040F24047C4F274
:102690000207B84216D040F258470EE0A027C4F215
:1026A0000207B8420ED0B82707E040F2A047C4F2B4
:1026B0000207B84206D040F2B847C4F20207B84257
:1026C00018BF082307681F4208D0036823F00403DB
:1026D0000360AA60626D42F00102626501228A40D5
:1026E00032426AD0504510DC6F23C4F20203984294
:1026F0001CDC3F23C4F20203984232DC1023C4F2F4
:102700000203984251D028234AE048451ADC40F29F
:102710003F43C4F2020398422ADC40F21043C4F261
:102720000203984241D040F2284339E09F23C4F28B
:102730000203984225DC7023C4F20203984234D08D
:1027400088232DE040F29F43C4F2020398421FDC2D
:1027500040F27043C4F20203984226D040F288430C
:102760001EE04023C4F2020398421ED0582317E013
:1027700040F24043C4F20203984216D040F258435C
:102780000EE0A023C4F2020398420ED0B82307E063
:1027900040F2A043C4F20203984206D040F2B8438C
:1027A000C4F20203984240F0D48143691B0604D569
:1027B000AA60626D42F00202626504228A403242DF
:1027C0006AD0504510DC6F23C4F2020398421CDC2F
:1027D0003F23C4F20203984232DC1023C4F2020306
:1027E000984251D028234AE048451ADC40F23F4342
:1027F000C4F2020398422ADC40F21043C4F20203FE
:10280000984241D040F2284339E09F23C4F20203AA
:10281000984225DC7023C4F20203984234D0882306
:102820002DE040F29F43C4F2020398421FDC40F2C5
:102830007043C4F20203984226D040F288431EE05F
:102840004023C4F2020398421ED0582317E040F2FE
:102850004043C4F20203984216D040F258430EE0BF
:10286000A023C4F2020398420ED0B82307E040F23E
:10287000A043C4F20203984206D040F2B843C4F227
:102880000203984240F0678103689B0704D5AA6061
:10289000626D42F004026265102202FA01F13142D7
:1028A0007BD050454FF0080210DC6F23C4F20203C6
:1028B00098421CDC3F23C4F20203984232DC10230E
:1028C000C4F20203984251D028234AE048451ADC5A
:1028D00040F23F43C4F2020398422ADC40F2104324
:1028E000C4F20203984241D040F2284339E09F23CA
:1028F000C4F20203984225DC7023C4F2020398421A
:1029000034D088232DE040F29F43C4F20203984262
:102910001FDC40F27043C4F20203984226D040F21A
:1029200088431EE04023C4F2020398421ED058237D
:1029300017E040F24043C4F20203984216D040F23E
:1029400058430EE0A023C4F2020398420ED0B823ED
:1029500007E040F2A043C4F20203984206D040F2DE
:10296000B843C4F20203984218BF0422036813421A
:1029700013D0A96001684903016806D4C90506D4CB
:10298000016821F00801016001E0080301D4216C15
:1029900000E0A16C09B120468847E06D00F01F01FE
:1029A000202000FA01F2324200F0A08020681023BB
:1029B000504510DC6F27C4F20207B8421CDC3F27E9
:1029C000C4F20207B84232DC1027C4F20207B84250
:1029D00051D028274AE048451ADC40F23F47C4F26C
:1029E0000207B8422ADC40F21047C4F20207B8429C
:1029F00041D040F2284739E09F27C4F20207B8428D
:102A000025DC7027C4F20207B84234D088272DE0B5
:102A100040F29F47C4F20207B8421FDC40F2704701
:102A2000C4F20207B84226D040F288471EE0402791
:102A3000C4F20207B8421ED0582717E040F24047C0
:102A4000C4F20207B84216D040F258470EE0A02761
:102A5000C4F20207B8420ED0B82707E040F2A04700
:102A6000C4F20207B84206D040F2B847C4F20207E7
:102A7000B84218BF022307681F4237D0AA6094F8F3
:102A80003520042A026819D122F016020260426938
:102A900022F080024261226C0AB9A26C1AB102686B
:102AA00022F0080202603F208840A860002084F8DD
:102AB0003400012084F83500216D3BE051030168AA
:102AC0000CD4C9050ED4016821F01001016000206A
:102AD00084F83400012084F8350003E0080301D4B1
:102AE000616C00E0E16B09B120468847606D38B346
:102AF000606DC0071DD0042084F8350020684FEABF
:102B00009821026822F00102026000BF019A01329E
:102B100001928A4202D80268D207F7D1002184F8D4
:102B200034100068C0074FF0030008BF012084F88C
:102B30003500E16C21B1204602B0BDE8F0470847FE
:102B400002B0BDE8F087D00301D4616CF2E7E16B1D
:102B5000F0E7026831E602689EE600002DE9F041E8
:102B6000044601F01FFD002C00F0AA8040F26F48DF
:102B700005462068C4F20208404515DC9F21C4F2D6
:102B8000020188422BDC5721C4F20201884251DC49
:102B90001021C4F2020188427AD02821C4F2020135
:102BA000884275D040216EE045F22F41C5F6020102
:102BB000884227DC40F2B741C4F20201884245DC7A
:102BC00040F27041C4F20201884261D040F2884173
:102BD000C4F2020188425BD040F2A04153E040F2CF
:102BE0002741C4F2020188423FDCA021C4F2020165
:102BF00088424DD0B821C4F20201884248D040F248
:102C0000104140E045F26B41C5F60201884200F3F5
:102C10008F8045F23041C5F60201884200F09A806B
:102C200045F24441C5F60201884200F0938045F226
:102C300058418BE05821C4F20201884228D070210B
:102C4000C4F20201884223D088211CE040F2B8413E
:102C5000C4F2020188421BD045F20841C5F60201C8
:102C6000884277D045F21C4170E040F22841C4F21E
:102C7000020188420CD040F24041C4F20201884275
:102C800006D040F25841C4F20201884240F0BB80B5
:102C9000002184F83410022184F83510016821F0F5
:102CA0000101016020680168C9070CD001F07AFCBD
:102CB000401B0628F6D320206065032084F83500E9
:102CC0000120BDE8F08148F23F0204F108060168E6
:102CD000CFF61062114065694CCE1143A2691943C9
:102CE000E3693143266A0D43616A2B43042943EAB1
:102CF000060343EA020303D1D4E90B652E433343B1
:102D000041F20006C5F600463668B6F1005F63D3AF
:102D10006568A5F13F06132E58D80127B74040F249
:102D20000F36C0F20F06374250D043F4801353E001
:102D300045F26C41C5F6020188420BD045F2804154
:102D4000C5F60201884205D045F29441C5F602015C
:102D5000884258D104F1080E002184F83410022171
:102D600084F835100168A3699EE80450A2F180053B
:102D7000E769B5FA85F566696D09402A4FEA853538
:102D800043EA07026FF3101142EA060208BF10255A
:102D900041EADC0142EA0E02236A294341EAD201F8
:102DA00041EA131140F80819C0B2CD2148433C2133
:102DB00001EA9020E0652046FEF790FDE16D0122DA
:102DC00001F01F0102FA01F1416042E0A5F129067C
:102DD000062E38BF43F4801303600429436923F0AF
:102DE000070341EA030129D1D4E90A5341EA050165
:102DF00023B3B2F5005F08D09AB9022D14D0012D8B
:102E000009D08DB11AE0402056E7032D16D8DFE82F
:102E100005F00E0B0E02A3F1C072B2FA82F2520953
:102E200004E0032D03D309D1C3F3006232B1402083
:102E30006065012084F83500BDE8F08141612046DD
:102E4000FEF74CFDE16D3F2201F01F0102FA01F196
:102E500081602068404517DC9F21C4F2020188424E
:102E60002DDC5721C4F20201884250DC1021C4F24B
:102E70000201884200F089802821C4F202018842C0
:102E800000F0838040216BE045F22F41C5F602013E
:102E9000884227DC40F2B741C4F20201884242DC9A
:102EA00040F27041C4F2020188426ED040F2884183
:102EB000C4F20201884268D040F2A04150E040F2E2
:102EC0002741C4F2020188423CDCA021C4F2020185
:102ED00088425AD0B821C4F20201884255D040F24B
:102EE00010413DE045F26B41C5F6020188423ADCF3
:102EF00045F23041C5F60201884246D045F24441D0
:102F0000C5F60201884240D045F2584139E05821C7
:102F1000C4F20201884238D07021C4F20201884212
:102F200033D088211CE040F2B841C4F2020188424B
:102F30002BD045F20841C5F60201884225D045F262
:102F40001C411EE040F22841C4F2020188421CD01C
:102F500040F24041C4F20201884216D040F258418A
:102F6000C4F202010FE045F26C41C5F6020188424D
:102F70000BD045F29441C5F60201884205D045F2D6
:102F80008041C5F60201884220D12046FEF732FD7D
:102F9000A068802802D10020606000E06068C1B2B3
:102FA00004F1600701388CCF072811605F6009D8F1
:102FB0002046FEF795FD04F16C02002307CA03606A
:102FC0004A6003E000206067C4E91B0000206065E0
:102FD000012184F83510BDE8F081B0B5E0B30546B5
:102FE00090F83400012801D10220B0BD012085F8FD
:102FF000340095F83500012828D1022085F83500E5
:10300000002068652868046824F0010404602846EC
:10301000FEF7BDFD40F20F422868C4F2020240F202
:103020006F419042C4F2020118DC6F23C4F2020324
:10303000984224DC3F23C4F2020398423ADC102376
:10304000C4F20203984259D0282352E0002085F8A8
:1030500034004FF4006068650120B0BD88421ADC7E
:1030600040F23F43C4F2020398422ADC40F210438C
:10307000C4F20203984241D040F2284339E09F2332
:10308000C4F20203984225DC7023C4F20203984282
:1030900034D088232DE040F29F43C4F202039842CB
:1030A0001FDC40F27043C4F20203984226D040F283
:1030B00088431EE04023C4F2020398421ED05823E6
:1030C00017E040F24043C4F20203984216D040F2A7
:1030D00058430EE0A023C4F2020398420ED0B82356
:1030E00007E040F2B843C4F20203984206D040F22F
:1030F000A043C4F20203984240F01B8103680B24F2
:1031000064F3440303602B6C1BB10823046823435E
:103110000360884217DC9F23C4F2020398422DDC2F
:103120005723C4F20203984250DC1023C4F2020376
:10313000984200F089802823C4F20203984200F0EC
:10314000838040236BE045F22F43C5F6020398428B
:1031500027DC40F2B743C4F20203984242DC40F25B
:103160007043C4F2020398426ED040F28843C4F226
:103170000203984268D040F2A04350E040F2274357
:10318000C4F2020398423CDCA023C4F2020398423A
:103190005AD0B823C4F20203984255D040F21043EB
:1031A0003DE045F26B43C5F6020398423ADC45F236
:1031B0003043C5F60203984246D045F24443C5F673
:1031C0000203984240D045F2584339E05823C4F2F4
:1031D0000203984238D07023C4F20203984233D0DD
:1031E00088231CE040F2B843C4F2020398422BD07B
:1031F00045F20843C5F60203984225D045F21C4328
:103200001EE040F22843C4F2020398421CD040F270
:103210004043C4F20203984216D040F25843C4F22D
:1032200002030FE045F26C43C5F6020398420BD04F
:1032300045F29443C5F60203984205D045F2804317
:10324000C5F6020398426ED12B6E1C68E40303D5C9
:103250001C6844F480741C60EB6E1BB11D6845F45F
:1032600080751D60904210DC6F21C4F2020188421B
:103270001CDC3F21C4F20201884232DC1021C4F27E
:10328000020188424FD028214AE088421ADC40F2ED
:103290003F41C4F2020188422ADC40F21041C4F2EC
:1032A000020188423FD040F2284139E09F21C4F218
:1032B0000201884225DC7021C4F20201884232D02A
:1032C00088212DE040F29F41C4F2020188421FDCB8
:1032D00040F27041C4F20201884224D040F2884199
:1032E0001EE04021C4F2020188421CD0582117E0A0
:1032F00040F24041C4F20201884214D040F25841E9
:103300000EE0A021C4F2020188420CD0B82107E0EF
:1033100040F2B841C4F20201884204D040F2A04118
:10332000C4F202018842016841F0010101600020FD
:10333000B0BD0368052464F3430303602B6C002BCA
:103340003FF4E7AE0423E1E670B540F28846044658
:10335000C2F2004670688047054618B90EF004FCBA
:10336000054600BF7068804708B90EF0FDFB401BA2
:10337000A042F7D370BDB0B50446006841F23415E1
:103380004119CA6A520644BF0A685FEA42625ED4C3
:103390004119CA6AD2071CBF09685FEAC1715FD1CF
:1033A00041F234110144CA6A520444BF0A685FEA18
:1033B000424260D4D0F8B01001F4C041B1F5C04F22
:1033C0000BD1D0F8B800E067E020E066D4F89010A8
:1033D000204688470020E0672068D0F8B010C90672
:1033E0000DD5D0F8C00000F06000C4F88000D4F81B
:1033F0009810204688470020C4F880002068D0F844
:10340000B01089060CD5D0F8C00000F00F00C4F849
:103410008400D4F89C10204688470020C4F884001B
:10342000A825C5F6000501F0AAF8032801D12868EF
:1034300001E055F8400F400258BFB0BD4FF4800086
:103440002860D4F8A0102046BDE8B040084748F2F4
:103450004000C862D4F88C1020468847206897E75F
:10346000D4F888102046884720684FF48B5148F2E2
:103470000102425094E7606F40F008006067C86A3C
:10348000C004C86A06D400F4CD40A0674FF4CD4014
:10349000C86209E041F202121040A067086820F4F7
:1034A00040400860E020E066D4F89010204688474D
:1034B00020687FE790F89830013B012B0BD800681B
:1034C000836D0B420CD0836D0B408B420CD1C36DCE
:1034D00043F0020309E000F19C010120022221E0F7
:1034E000C36D43F0010300E00323C3658B0504D5DE
:1034F000D0F8E0301343C0F8E0304B0504D5D0F8E5
:10350000E4301A43C0F8E4204FF6FF72436DC3F66F
:10351000CF720A401A4342658A0F4AF6140100200E
:10352000C4F200010B681A430A607047B0B5044644
:1035300090F8980002281AD12068D0F8C03013F013
:103540007C5F19D0D0F8C4309B021AD4D0F8C400E4
:10355000C0F3044520462B46FEF7C0FC206801213D
:10356000A940C0F8D0100020C4F89410B0BDD4F821
:103570009C0040F0080008E0D4F89C0040F02000D7
:1035800003E0D4F89C0040F40070C4F89C000120D3
:10359000B0BD704780B590F89820013A012A0AD84A
:1035A0000A68002ACA680ED00B69072A43EA427EDD
:1035B00016D18B6919E0D0F89C1041F00201C0F8D7
:1035C0009C10012080BD072A18D10A69D1F81CC0BF
:1035D00012048B6942EA0C221A4342F0605217E04F
:1035E000D1F808C04B6943EA8C73006F496800EB5F
:1035F000C10240F831E00020536080BD8B68D1F8F3
:1036000010C09B0743EAC2624B6942EA0C421A436C
:103610004968C06E40F82120002080BD90F898C015
:10362000BCF1010F0DD19200006842EA0111DDF8F2
:1036300000C041EA430141EA0C01C0F880100020BB
:103640007047D0F89C1041F00401C0F89C10012094
:10365000704790F89820013A012A2ED8006800227D
:10366000CCF230024AF6140C62EA0102436DC4F255
:10367000000C1A4042658A05DCF8003023EA91729A
:10368000CCF8002002D50022C0F8E020490502D580
:103690000021C0F8E410816D426D0A438A4203D1D3
:1036A000C26D22F00102C265426D0A4203D1C16DB2
:1036B00021F00201C16500207047D0F89C1041F054
:1036C0000201C0F89C10012070477047704700004D
:1036D00070B590F89850022D1BD140291ED1056875
:1036E000D5F8A04014F4FE0F00F08C80D5F8A4406B
:1036F000640600F09280D5F8A440E40148BFD5F8F4
:10370000A040D5F8A45000F17404C5F3052E456C13
:103710001DE0D0F89C1041F0080182E0412918D149
:103720000568D5F8B04014F4FE0F6BD0D5F8B4405E
:10373000640672D0D5F8B440E40148BFD5F8B04073
:10374000D5F8B45000F17804C5F3052EC56CF446E5
:1037500009E0056D8D4255D900F17C04D0F854E0A4
:103760004FF0000C0D4605FB0EF6246854F8265069
:1037700015F08045556054F826E02EF0604508BFEE
:10378000CEF38A4504EB860E156054F8265005F0FA
:103790000055956054F8264004F000441461BEF8CA
:1037A0000440D461DEF8044014F47024D460DEF8E0
:1037B000044004F480145461DEF8044004F400145E
:1037C00094619EF8074004F07F041462DEF8044020
:1037D0004FEAD47454620FD00EF1080546F6006E1D
:1037E0000024C0F6070E00BF2E5D1E550134D68999
:1037F0001EF80660B442F7D3402908D10068C0F82B
:10380000A8C023E0D0F89C1041F0200109E0412934
:103810000BD10068C0F8B8C018E0D0F89C1041F493
:103820008071C0F89C10012070BD1F2906D8006867
:10383000012202FA01F1C0F8981007E0006801F0D7
:103840001F01012202FA01F1C0F89C10002070BD96
:1038500070472DE9F04F87B004464AF6100C4AF63F
:103860001400C4F2000CC4F20000DCF8001002687E
:10387000206802EA010A056D476D066DD0F854B064
:10388000036D0293436D0193036D0693436D05939E
:10389000036D0493436D0393436DDB0544BF016DDA
:1038A0005FEAC15101D4E1460BE04FF4807101653C
:1038B0000020CCF80000D4F8C0102046E14688472C
:1038C0002068416D05EA070849054FEA8A7744BF39
:1038D000016D5FEA415100F1F38006EA0B0508F43F
:1038E00070465FB120680021D4F8A02001650AF07D
:1038F0000300C9F80000204639469047DDE9011071
:1039000000EA010705F00F054EB12068D4F8A420A5
:10391000314606650020C9F800002046904707F0B0
:10392000F0064DB120682946D4F8A820056500208E
:10393000C9F80000204690474EB12068D4F8AC206A
:10394000314606650020C9F80000204690472068EF
:10395000416D090544BF016D5FEA015100F1C0806E
:10396000416D890544BF016D5FEA815100F1C4805A
:10397000416D090344BF016D5FEA013100F1CD8063
:10398000416DC90344BF016D5FEAC13100F1D180CF
:10399000416D4903DDE9032101EA020544BF016DE0
:1039A0005FEA413100F1D180416D8903DDE90521F4
:1039B00002EA010205F0607144BF036D5FEA8333E0
:1039C00000F1CF8002F0715539B101650020C9F8CE
:1039D00000002046D4F8D0209047206845B1056506
:1039E0000021C9F80010D4F89C102943C4F89C1099
:1039F000A9F5016188420AD0D4F89C0000285CD067
:103A0000D4F8CC10204607B0BDE8F04F08476068F6
:103A100081688907F0D0016A426A036A476A1140E7
:103A200003EA070211F00F0102F03005066A476A47
:103A3000D0F820A0D0F824B0D0F82080D0F824907E
:103A400004D001622046D4F8D420904707EA060744
:103A500035B16068D4F8D8202946056220469047E1
:103A600060680AEA0B0607F4C075416A490644BF5C
:103A7000016A5FEA416100F1818008EA090706F402
:103A8000FC4635B16068D4F8E0202946056220463E
:103A9000904707F4F02036B161680E62D4F89C10AC
:103AA0003143C4F89C100028A6D061680862D4F89D
:103AB0009C100843C4F89C009EE707B0BDE8F08F57
:103AC000D0F8DC104FF48063D0F8E42003650020C8
:103AD000C9F800001140D4F8B82020469047FCE611
:103AE0004FF4006101650020C9F80000D4F8B0105F
:103AF00020468847206833E7D0F8D8104FF4007389
:103B0000D0F8E02003650020C9F800001140D4F887
:103B1000B4202046904720682AE74FF40021016531
:103B20000020C9F80000D4F8BC102046884720685F
:103B300026E74FF4803101650020C9F80000D4F871
:103B4000C41020468847206822E74FF48021016591
:103B50000020C9F80000D4F8C81020468847206823
:103B600022E74FF4003303650023C9F80030D4F88E
:103B70009C3043F08003C4F89C3023E7C16B4023A2
:103B8000C26B0362090C02F03F02D4F8DC3020461D
:103B9000984772E72DE9F04F85B0002800F0AC801F
:103BA0004AF200080446C4F200080068404502D109
:103BB00008F58071616094F89810002970D1002098
:103BC00084F8990043F2935044F28D21C0F6060028
:103BD000C0F60601C4F8A00044F24720C4F8A410BF
:103BE00044F24921C0F60600C0F60601C4F8A80058
:103BF00044F28F20C4F8AC1044F28B21C0F60600CA
:103C0000C0F60601C4F8B00044F28920C4F8B4102C
:103C100044F24521C0F60600C0F60601C4E92E01B3
:103C200043F6510044F28721C0F60600C0F60601B3
:103C3000C4F8C00044F28520C4F8C41043F2CB613C
:103C4000C0F60600C0F60601C4F8C80043F2CD6015
:103C5000C4F8CC1044F27F21C0F60600C0F606017D
:103C6000C4F8D00044F28320C4F8D41044F2812177
:103C7000C0F60600C0F60601C4E93601D4F8E41027
:103C800044F27D20C0F60600C4F8E00029B944F2F1
:103C90002B01C0F60601C4F8E410204688472068CE
:103CA000816921F01001816100F07CFC054600BFB4
:103CB00020688169090705D500F074FC401B0B28BA
:103CC000F6D310E0816941F00101816100F06AFCE6
:103CD000054600BF20688169C90711D100F062FC68
:103CE000401B0B28F6D30120D4F89C100843C4F8DD
:103CF0009C00032084F89800012005B0BDE8F08FF7
:103D0000816941F002018161217C826922F04002D7
:103D1000012918BF40328261617C826922F48042AD
:103D2000012908BF02F580428261A17C826922F4E8
:103D30008052012918BF02F580528261816921F405
:103D40004073D4E902120B438361836923F0A40317
:103D50008361036923F0100303619AB1012A0DD036
:103D6000022A09D08369032A43F08003836103692F
:103D700043F01002026105D1202200E00422836991
:103D80001A438261D4E90572E369561E6FF0FF029F
:103D9000256A02EB0323B1F5407F43EA4663A5F1B0
:103DA000010646EA030640F20003CFF6FF7303EB79
:103DB000074746EA0701C16110D1D4E90B65D4E990
:103DC0000917013F02EB06226FF00F063A4306EB9C
:103DD00005173A4303EB01411143C160236E2BB138
:103DE000616ED0F8C0201143C0F8C010E16DCDE97C
:103DF0000313D94246F23861C0F6070109D0D0F862
:103E0000C820A36E22F0070251F823301A43C0F8ED
:103E1000C820D4F840A0BAF1000F09D0D0F8BC20D7
:103E2000636C22F0070251F823301A43C0F8BC201B
:103E3000A76C57B1D0F8BC20E36C22F0700251F8A7
:103E4000233042EA0312C0F8BC20D4F850C0BCF1C1
:103E5000000F0AD0D0F8BC20636D22F4E06251F864
:103E6000231042EA0121C0F8BC10404504D161682A
:103E70008A6822F003028A600021C4F89410C4F812
:103E80009C10012184F898104FF6FC72D0F8841031
:103E9000D4F83C9021EA0203656CD4E90D12029239
:103EA000019543EA8103C0F88430D0F8843023F4CC
:103EB0007F0343EA0243C0F884305318D0F8886087
:103EC0006FF38F0646EA8306C0F88860D0F88860F2
:103ED00003EB490326F4FE0646EA0946C0F888606B
:103EE000D0F8A0606FF38F0646EA8306C0F8A060A2
:103EF000D0F8A06005FB0A3326F4FE0646EA0A461F
:103F0000C0F8A060D0F8B0606FF38F0646EA830671
:103F1000C0F8B060D0F8B06026F4FE0646EA074666
:103F2000C0F8B060E66CD0F8AC506FF38F0506FBBC
:103F300007337E4345EA8305C0F8AC50D4F854807B
:103F400008FB0C35D0F8F0306FF38F0308FB0CFC46
:103F500043EA8503C0F8F030D0F8F0E0A36D2EF40A
:103F60007C1242EA0342C0F8F02005EB4302D0F88D
:103F7000C0506FF38F0545EA8202C0F8C020D0F828
:103F8000C020DDF80CB022F47C1242EA0B42C0F8EB
:103F9000C020019AD0F8C05025F07C5502FB0AFEE3
:103FA0004AF20002C4F20002DDF810A002EB810127
:103FB000029A01F5406145EA0A6501EB8207C0F803
:103FC000C05007EBC902A56E02EB8E00626700EBE2
:103FD00086060BFB05F2276706EB8C07C4E91E0675
:103FE0000AFB05F007EBC30303EB8202C4F884303D
:103FF0004DF2FC33E16602EB8000C4F2000398420C
:10400000C4F88070C4F88820C4F8900001D920203A
:104010006AE6814207D2002041F8040BD4F89020D0
:104020009142F9D369E6002067E62DE9F041B6B088
:10403000044631A81421FCF746FE02A8BC21FCF777
:1040400042FE4AF200412068C4F20001884261D079
:104050004AF20001C4F20001884240F0AA804FF405
:10406000004002904FF080501D9002A801F0C0F86F
:1040700008B1FDF709FF40F2706144F2E040C2F27E
:104080000041C5F602000A68002A02F101020A6036
:1040900008D1C16841F48071C160C16801F48071C8
:1040A00001910199016831AC41F00801016001689A
:1040B000022501F0080101910199016841F0800198
:1040C00001600068214600F080000190019840F2F4
:1040D0009840C2F200404FF00008CDE93155006829
:1040E000CDF8CC80032734970926359600F054F993
:1040F00031A94FF48040349781E8210140F2944087
:104100002146C2F200403596006800F045F91524BA
:1041100013253EE04FF4004002904FF080501D9078
:1041200002A801F065F808B1FDF7AEFE40F270613B
:1041300044F2E040C2F20041C5F602000A68002ADB
:1041400002F101020A6008D1C16841F48071C160C6
:10415000C16801F4807101910199016841F0020187
:104160000160006831A900F0020001900198602010
:1041700031900220329000203390032034900920A7
:10418000359040F20040C5F6020000F005F9162413
:10419000142500210022284600F09AFF284600F04E
:1041A00087FF00210022204600F092FF204600F009
:1041B0007FFF36B0BDE8F0818AB190F89830012BCE
:1041C0000AD107290BD8DFE801F0041C1F2225289B
:1041D0001619C0F8B02022E090F898303BB1D0F822
:1041E0009C1041F48071C0F89C1001207047072991
:1041F00004D00629F3D1C0F8E42010E0C0F8E8208C
:104200000DE0C0F8BC200AE0C0F8C02007E0C0F80C
:10421000C42004E0C0F8C82001E0C0F8CC20002091
:10422000704739B190F89820012A03D1C0F8A8103E
:1042300000207047D0F89C1041F48071C0F89C10A9
:104240000120704770477047704790F89810012917
:104250000BD1022180F8981001688A6922F00102CE
:104260008A610021C0F89C1006E0D0F89C1041F053
:104270000401C0F89C100121084670477047704740
:104280007047704770477047704770477047704776
:104290002DE9F04F81B000297BD000F1264242F297
:1042A000004302F1FF72C5F602030A2698424FEA64
:1042B000B22740F2040B08BF0926092FC5F6000BF0
:1042C00038BF4FEAB22600220027009600264FF0A2
:1042D0000F0C00BF012303FA06FA1AEA010851D0B5
:1042E00040F2084326F00305C5F6000307F00C0E64
:1042F0000CFA0EF9ED58009B05EA090503FA0EF3D6
:104300009D4222D1DBF87C304FF0B04523EA080310
:10431000CBF87C30DBF8803040F2084423EA080315
:10432000CBF880302B68C5F6000423EA08032B6025
:10433000B308DBF8005025EA0805CBF8005054F824
:10434000235025EA090544F823506FF003040323A2
:1043500004EA56040568934004441D43056007F0D1
:104360001C050CFA05FE256A25EA0E052562C568BE
:104370009D43C560456825EA0A054560856825EACC
:10438000030383600136043731FA06F302F10202B7
:10439000A0D101B0BDE8F08F2DE9F04F82B00F68D9
:1043A000002F00F0D78000F126420A2502F1FF73AA
:1043B00042F20042C5F602024FEAB32690424FF0A5
:1043C000010A08BF0925092E4FF0000638BF4FEA41
:1043D000B3250023009500250AFA05FC17EA0C080E
:1043E00000F0A680D1F80490B9F1120F00F2AB8072
:1043F0000AFA09F717F0061F00F0A5800322876864
:1044000002FA06F4D1F80CE0A7436FEA040B0EFAA7
:1044100006F42743876047684FEA19144FEA450AB4
:1044200027EA0C07AC402743476049F01004C768EF
:10443000122C8C6807EA0B0704FA0AF447EA04070F
:10444000C76015D16FF003020F2402EA550703F08D
:104450001C02074404FA02FED7F820C00C692CEABB
:104460000E0C04FA02F242EA0C023A62D1F804900D
:1044700009F00302076802FA0AF207EA0B075FEA8B
:10448000C9044FF0010A42EA0702026050D544F223
:10449000F44740F2084EC5F60207C5F6000E0F2499
:1044A0004FF0B0493A6842F002023A603A6802F0CE
:1044B0000202019225F00302019F03F00C0752F85B
:1044C0000EC0BC402CEA040C009C04FA07F747EA33
:1044D0000C0742F80E7040F2040EC5F6000EDEF82E
:1044E0007CC04F684CEA0804FA0358BF2CEA080461
:1044F000BA03CEF87C40DEF880C04CEA080458BF0E
:104500002CEA0804FA02CEF88040D9F800C04CEA40
:10451000080458BF2CEA0804BF02C9F80040DEF8BE
:10452000002042EA080458BF22EA0804CEF80040FE
:1045300001350F6837FA05F206F1020603F10403AC
:104540007FF44AAF06E00322B24602FA06F76FEAAA
:10455000070B6AE702B0BDE8F08F0069084018BF9A
:1045600001207047426902EA0103914341EA034195
:1045700081617047002A08BF0904816170474EF6C7
:104580000050CEF20000006800F0F0010120702918
:1045900008BF0320704741F20000C5F600400068E4
:1045A000000C704780B540F28840C2F2004040687D
:1045B000804700B180BDBDE880400DF0D5BA46F21D
:1045C0008041C5F6020151F8200040F20031C8F2E6
:1045D0000001401A18BF01207047704746F2005191
:1045E000C5F60201C8680A6882430A604860FFF79E
:1045F000F4BF46F2004241F44071C5F6020242F8AF
:104600002010704790F84120202A03D190F84020D4
:10461000012A01D1022118E0242280F841200268F9
:10462000136823F001031360136823F480531360AD
:10463000136819431160116841F0010111602021D4
:1046400080F84110002180F840100846704790F82B
:104650004120202A03D190F84020012A01D10221D3
:1046600017E0242280F841200268136823F0010338
:104670001360136823F4706343EA01211160116829
:1046800041F001011160202180F84110002180F8E3
:1046900040100846704770477047E0B110B50446B7
:1046A000242084F841002068A16F026822F00102F2
:1046B000026021B944F68931C0F60601A16720469F
:1046C00088470020606484F84100206384F8420039
:1046D00084F8400010BD01207047D0F800C0DCF81D
:1046E0001830DCF80020D90502F0800208D53AB174
:1046F000416C41F0010141644FF48071CCF81C1011
:10470000590508D53AB1416C41F0080141644FF4B4
:104710008061CCF81C10990508D53AB1416C41F084
:10472000020141644FF40071CCF81C10416C11F08F
:104730000B0F08BF704703F035BA0268436B9169ED
:10474000126803B1184770477047002859D010B558
:10475000044690F84100E8BB002084F8400044F68D
:10476000BD1044F67911C0F60600C0F60601E064FB
:1047700044F67D70216544F67B71C0F60600C0F6F4
:104780000601606544F67510A16544F68731C0F6F0
:104790000600C0F60601E06544F68530216644F265
:1047A0004971C0F60600C0F60601C4E91901616F3F
:1047B00044F2976044F29962C0F60600C0F6060221
:1047C000E066226721B944F67D41C0F606016167C3
:1047D00020468847242084F8410094E80910E268C4
:1047E0000168012A21F00101016023F0706101617B
:1047F000816821F40041816005D14CF40041816061
:1048000009E001207047022A4CF40441816002D182
:104810004FF400614160416804F1100C41F00071F7
:1048200041F400414160C16821F40041C1609CE84D
:104830000E10114341EA0321C160216A41EA0C01D3
:104840000160016841F001010160002060642021E5
:1048500084F84110206384F8420010BD2DE9F04F28
:1048600083B000270297044690F84100202808D121
:1048700020688A468169090403D494F8401001290C
:1048800003D1022003B0BDE8F08F012184F840106D
:10489000242184F84110002161640A21D14661F38A
:1048A0009F2948F208011D46904661F39F2A5F1C2C
:1048B000E1680129494608BF51464160FFF772FE91
:1048C000216806468A698B6902F0200203F0100312
:1048D000D2180FD137B1FFF765FEADB3801BA842E8
:1048E00032D8216888698A6900F0200002F010023D
:1048F0008018EFD0D1F818B02021002220462B4696
:10490000009603F073FF5FEACB6129D548BB2068AE
:104910001021C1612021C161029941450ED1416838
:10492000002241F480414160202120462B46009620
:1049300003F05CFFA8B920682021C1610299013110
:10494000029102994145B3D3202084F84100606C64
:1049500040F0200060640120002184F8401091E7BD
:1049600008B101208EE720682021C161002084F871
:104970004110F1E77047000010B5044608F0FCF85C
:10498000DCB1011D002000BF0A681268A24204D0F9
:1049900028300431A028F7D10FE0B0F59B6F0CD080
:1049A00040F6A041C2F20041084400210173C16AEF
:1049B00019B1006BBDE81040084710BD10B50446A2
:1049C00008F0DAF884B1021D0021AC20131853F866
:1049D000AC3C1B68A34204D028310430A029F5D197
:1049E00002E0B1F59B6F00D110BD40F6A043C2F2CA
:1049F000004319440A6942B14C6934B1497B1858E3
:104A0000A3B2BDE8104000F009B800200873CA6ADC
:104A1000002AE9D0086BBDE8104010472DE9F043AB
:104A200081B0044690F84100202808D10D46216845
:104A30008869000403D494F84000012804D10226B8
:104A4000304601B0BDE8F083012084F84000222008
:104A500084F84100102084F84200002060640020A7
:104A600048F27D186262CFF6FF706385C0F60608D3
:104A7000E062C4F83480608DB0F5807F04D3FF23FA
:104A800023854FF0807904E0638D23857BB34FF05D
:104A90000079E06BE8B147F6852647F6A107243197
:104AA000C0F60606C0F60607C66300260664C0E91F
:104AB0001376FEF792FAB8B3202084F8410084F808
:104AC0004260606C40F01000606484F84060012631
:104AD000B6E7202084F84100002084F84200616C91
:104AE000012641F08001616484F84000A8E748F2A3
:104AF000B92049F60002C0F6060060634868C7F6B0
:104B000000426FF39F2510402844002640F00040EB
:104B100040F4105000F10070486084F8406008686C
:104B200040F0F20008608BE7218D626B6FF39F25E8
:104B30002068CFB2436845EA074749F60005C7F643
:104B4000004547EA09072B403B4343F0004343F449
:104B500010534360638D591A618584F8406048F2B0
:104B600015410368C0F6060143F090078A4208BF6A
:104B70003B46424508BF3B460360016841F40041A3
:104B800001605DE770477047B0B545F600410446E7
:104B90000068C4F20001884229D045F60001C4F241
:104BA0000001884242D045F20041C4F2000188422F
:104BB00018BFB0BD44F2E84040F20045C5F602001F
:104BC000C5F60205016821F4001101604FF48071FF
:104BD0002846FFF75DFB80212846FFF759FBA06BB5
:104BE000FDF703FB04F13C0020241F253BE044F2C9
:104BF000E84040F20042C5F60200C5F6020202F5A6
:104C0000C055016821F40001016080212846FFF7AA
:104C10003FFB4FF480712846FFF73AFBE06BFDF74E
:104C2000E4FA04F13800492448251CE044F2E84045
:104C300040F20042C5F60200C5F6020202F58055B8
:104C4000016821F48001016002212846FFF720FB62
:104C500001212846FFF71CFBE06BFDF7C6FA04F1C3
:104C60003800222421250068FDF7BFFA284600F00D
:104C70000BFA2046BDE8B04000F006BA2DE9F0413D
:104C8000B6B0044631A81421FCF71DF802A8BC21D7
:104C9000FCF719F845F600412068C4F2000188428B
:104CA0007AD045F60001C4F20001884200F0E480A9
:104CB00045F20041C4F20001884240F05B810820C7
:104CC000029002A800F094FA08B1FDF7DDF844F272
:104CD000E04540F21008C5F6020531A9C4F2020809
:104CE000286840F002002860286800F00200019067
:104CF00001984FF4C070319012203290012033900F
:104D0000032034900420359040F20040C5F60200A4
:104D1000FFF742FBA868142140F40010A860A868BF
:104D200040F6D405C2F2004500F4001001900027BF
:104D30000198222068604020A86005F11400C5F8A1
:104D400000804FF48066EF602E61FBF7BCFF2846C1
:104D5000FDF704FF08B1FDF797F8A56308F1180007
:104D6000AC6340F65C05C2F20045142128602120A6
:104D7000C5E9010705F11400C5E90376FBF7A3FFB8
:104D80002846FDF7EBFE08B1FDF77EF8E56305F177
:104D9000380020251F26DCE00820029002A800F041
:104DA00027FA08B1FDF770F844F2E04540F2100828
:104DB000C5F6020531A9C4F20208286840F0800057
:104DC0002860286800F08000019001984FF4C070BE
:104DD000319012203290012033900320349004202F
:104DE000359040F20040C5F6020000F5C050FFF7D4
:104DF000D3FAA868142140F40000A860A86840F61F
:104E00003C25C2F2004500F4000001900027019803
:104E100008F1780028604920686005F11400C5E9B0
:104E200002774FF480662E61FBF74DFF2846FDF7B1
:104E300095FE08B1FDF728F8E56308F19000AC6332
:104E400040F6B425C2F20045142128604A2068606B
:104E50004020C5E9020705F114002E61FBF733FF7E
:104E60002846FDF77BFE08B1FDF70EF8A56305F1B6
:104E70003800492548266CE00820029002A800F07E
:104E8000B7F908B1FDF700F844F2E0451221C5F684
:104E9000020540F21008C4F20208286840F0200021
:104EA0002860286800F020000190019832910121CB
:104EB000339140F200410320C5F602013190349055
:104EC0000420359001F5805031A9FFF765FAA868F4
:104ED000142140F48000A860A86840F64C15C2F286
:104EE000004500F4800001900027019808F130008F
:104EF00028602320686005F11400C5E902774FF4AB
:104F000080662E61FBF7DFFE2846FDF727FE08B11D
:104F1000FCF7BAFFE56308F14800AC6340F6C4153E
:104F2000C2F2004514212860242068604020C5E9B1
:104F3000020705F114002E61FBF7C5FE2846FDF7B8
:104F40000DFE08B1FCF7A0FFA56305F1380022258E
:104F50002126046005210022304600F0B9F83046D1
:104F600000F0A6F805210022284600F0B1F82846F6
:104F700000F09EF836B0BDE8F0817047704780B50C
:104F8000032000F0D2F800F0FDFE44F2184146F292
:104F9000C363C5F60201C0F607030A68096801F099
:104FA0000F01C2F30322595C9A5C01F01F0102F069
:104FB0001F02D04040F26012C2F2004220FA01F11A
:104FC000116040F25C11C2F2004108600F2000F055
:104FD00007F808B1012080BD00F055F8002080BD21
:104FE00080B540F28840C2F200400068804700204F
:104FF00080BDB0B502784EF6985CCEF2000C4378D6
:10500000CCF80030E2B14368CCF80430037BC17ABD
:1050100090F80AE0457B447A42EA0372837B42EAD5
:105020000161C27B41EACE41007A41EA854141EA11
:10503000434141EA024141EA042141EA400002E0E1
:105040000020CCF80400CCF80800B0BD4EF6245087
:10505000CEF20000BFF35F8F016821F48031016060
:105060000021016770474EF6245140F00100CEF256
:1050700000010867086840F480300860BFF34F8F74
:10508000BFF36F8F70477047002810D481B24EF283
:1050900080134909CEF2000300F01F00012202FA3A
:1050A00000F043F82100BFF34F8FBFF36F8F7047BD
:1050B00000280CD481B200F01F000122490902FA35
:1050C00000F04EF20012CEF2000242F821007047CA
:1050D00070B54EF60C5C4FF0FF36CEF2000C00F1CE
:1050E000604505F56445DCF80030C3F3022E8EF010
:1050F0000703042B28BF0423BEF1030406FA03F3BD
:1051000021EA030100F00F0338BF0024043B00280C
:10511000634406FA04F048BF03F10C05A14022EAFB
:10512000000008430001287070BD4EF60C514FF688
:10513000FF03CEF200010A681A4060F30A2242F02F
:10514000806040F0FD7008607047000070B544F664
:105150000C060446C5F602063168306801F0070106
:10516000062912D120F03F0020433060FFF71AFAE1
:10517000054600BF56F8080C80040CD4FFF712FA5D
:10518000401BB0F57A7FF5D91DE000F03F00001B11
:1051900018BF012070BDA4F11D010020112913D8F2
:1051A000012202FA01F111F0031F0DD0FFF7FAF905
:1051B000044600BF3068C00307D4FFF7F3F9001BB3
:1051C000B0F57A7FF6D9012070BD002070BD44F69D
:1051D0000000C5F60200016841F48071016070476B
:1051E00044F2A041C5F602010A6810430860704706
:1051F0002DE9F0470446C07844F210480007C5F690
:10520000020825D5606E4FEA305103290AD8DFE83D
:1052100001F0020B1018D8F81C1041F40031C8F846
:105220001C100EE0012614E0201D022103F028FCD2
:1052300004E004F12400022103F0A6FC064640B974
:10524000606ED8F8401021F440110843C8F84000BF
:1052500000266078C00701D1354629E0606D04283A
:105260000DD83546DFE800F0030E13191900D8F801
:105270001C00354640F40030C8F81C000DE0012544
:10528000012716E0201D002103F0FAFB04E004F1E1
:105290002400002103F078FC05462F464DB9D8F8CC
:1052A0004000616D20F0070000250843C8F8400069
:1052B00037466078800729D5A06D4FEAB0100428E2
:1052C0000BD8DFE800F0030D12181800D8F81C0006
:1052D00040F40030C8F81C000DE00125012616E05E
:1052E000201D002103F0CCFB04E004F12400002188
:1052F00003F04AFC05462E464DB9D8F84000A16D92
:1053000020F4E07000250843C8F840003E4660786D
:1053100040072CD5D4F8A4004FEA705004280BD8CD
:10532000DFE800F0030E13191900D8F81C0040F450
:105330000030C8F81C000EE001254FF0010917E00D
:10534000201D002103F09CFB04E004F12400002157
:1053500003F01AFC0546A94655B9D8F84800D4F818
:10536000A41020F4600000250843C8F84800B146A6
:10537000607800072BD5D4F8A8004FEA30600428E5
:105380000BD8DFE800F0030D12181800D8F81C0045
:1053900040F40030C8F81C000DE00125012717E09B
:1053A000201D002103F06CFB04E004F12400002127
:1053B00003F0EAFB05462F4655B9D8F84800D4F863
:1053C000A81020F0E06000250843C8F848004F46C8
:1053D000E078800722D5A06C4FEA301003280AD865
:1053E000DFE800F011020C11D8F81C0040F4003086
:1053F000C8F81C0007E00125012610E0201D02214D
:1054000003F03EFB05462E464DB9D8F83C00A16C92
:1054100020F0300000250843C8F83C003E46607884
:10542000C00629D5E06D4FEA303004280BD8DFE8FC
:1054300000F0030D12181800D8F81C0040F40030DA
:10544000C8F81C000DE00125012716E0201D0021F1
:1054500003F016FB04E004F12400002103F094FBA8
:1054600005462F464DB9D8F84000E16D20F4E040E4
:1054700000250843C8F8400037466078800622D5EA
:10548000206E4FEA3040052809D8DFE800F011030C
:105490000B111111201D012103F0F2FA07E0012583
:1054A000012611E004F12400012103F06DFB054603
:1054B0002E464DB9D8F84000216E20F4E02000259A
:1054C0000843C8F840003E466078400624D5D4F82A
:1054D000AC004FEA3070052809D8DFE800F011036E
:1054E0000B111111201D012103F0CAFA07E001255B
:1054F000012712E004F12400012103F045FB0546D9
:105500002F4655B9D8F84800D4F8AC1020F0E04048
:1055100000250843C8F848003746607800061ED5C5
:10552000E06E88B1B0F1005F09D0B0F1805F28D1A2
:10553000D8F81C0040F40030C8F81C0004E0201D1E
:10554000012103F09DFA05462E464DB9D8F84000DA
:10555000E16E20F0405000250843C8F840003E4668
:10556000E078C00724D0606C03280DD8DFE800F095
:1055700015021015D8F81C0040F40030C8F81C00C3
:105580000BE001250126EBE701254FF0010910E0B2
:10559000201D022103F074FA0546A9464DB9D8F83A
:1055A0003C00616C20F0030000250843C8F83C0073
:1055B000B146A078400601D44F4617E0D8F8F00372
:1055C00040F48070C8F8F003FEF7ECFF064600BF19
:1055D000D8F8F003C00507D4FEF7E4FF801B642869
:1055E000F6D90325032701E02F468DB12078C007A7
:1055F00053D0A06F4FEAF00005283AD8DFE800F05A
:1056000042033C424242201D012103F039FA38E0B6
:10561000D8F86010D4F8B000414011F4407F11D0A8
:10562000D8F86010D8F8602042F48032C8F86020C2
:10563000D8F8602021F4407122F48032C8F860204C
:10564000C8F86010B0F5807F40F00E82FEF7AAFF28
:10565000064641F2883A0325032700BFD8F86000C8
:10566000800700F1FF81FEF79DFF801B5045F5D9B3
:10567000BCE70125012611E004F12400012103F01B
:1056800083FA05462E464DB9D8F84400A16F20F0A4
:10569000380000250843C8F844003E4620788007BB
:1056A00020D5606F052809D8DFE800F011030B1141
:1056B0001111201D012103F0E3F907E00125012765
:1056C00011E004F12400012103F05EFA05462F46A3
:1056D0004DB9D8F84400616F20F007000025084359
:1056E000C8F8440037462078400722D5D4F8900007
:1056F000052809D8DFE800F011030B111111201D56
:10570000012103F0BDF907E00126012512E004F1B3
:105710002400012103F038FA05462E4655B9D8F881
:105720004800D4F8901020F0070000250843C8F87E
:1057300048003E462078800624D5D4F88C004FEAF5
:105740003070052809D8DFE800F011030B111111A2
:10575000201D002103F094F907E00127012512E044
:1057600004F12400022103F00FFA05462F4655B933
:10577000D8F84400D4F88C1020F0E040002508430D
:10578000C8F8440037462078400624D5D4F898005D
:105790004FEAB020052809D8DFE800F011030B110B
:1057A0001111201D002103F06BF907E001260125EE
:1057B00012E004F12400022103F0E6F905462E462A
:1057C00055B9D8F84800D4F8981020F4E0500025D6
:1057D0000843C8F848003E462078000624D5D4F88F
:1057E0009C004FEA7030052809D8DFE800F011036B
:1057F0000B111111201D002103F042F907E00127D0
:10580000012512E004F12400022103F0BDF9054650
:105810002F4655B9D8F84800D4F89C1020F46040C1
:1058200000250843C8F8480037462068010716D508
:10583000D4F88000B0F5805F09D104F12400022182
:1058400003F0A2F9002818BF0127D4F88000D8F887
:10585000441021F440510843C8F844002068C106B0
:1058600016D5D4F89400B0F5807F09D104F1240056
:10587000022103F089F9002818BF0127D4F8940009
:10588000D8F8481021F440710843C8F8480020684F
:1058900000031FD5D4F8A000B0F5003F0ED0B0F53E
:1058A000803F05D068BB201D002103F0E9F804E02B
:1058B00004F12400022103F067F905462E4655B98C
:1058C000D8F84800D4F8A01020F440300025084350
:1058D000C8F848003E46A078400727D5D4F8840091
:1058E000B0F5401F16D0B0F5001F0DD0B0F5801FE9
:1058F00040F0B580D8F81C0040F40030C8F81C0017
:1059000008E001260125E6E704F12400012103F067
:105910003BF905462F4655B9D8F84400D4F8841011
:1059200020F4401000250843C8F844003746A0780A
:10593000C00701D13E461EE0E06CB0F5803F07D0C5
:10594000B8B9D8F81C0040F40030C8F81C0004E0D6
:10595000201D022103F094F805462E465DB9D8F8C3
:105960003C00E16C20F4803000250843C8F83C007E
:10597000E0E7012601252068810008D504F1240014
:10598000022103F001F9002818BF012620688103D5
:105990001BD5E16F6FF0010202EB3122022A0AD31C
:1059A0004FEA31223AB1012A06D1D8F81C2042F43C
:1059B0000032C8F81C200DB1012606E0D8F84420BA
:1059C00022F440721143C8F84410C10207D5D8F838
:1059D0004010226F21F000411143C8F84010C1006F
:1059E00008D5D8F80010D4F8B42021F48041114330
:1059F000C8F80010810207D5D8F84010A26E21F037
:105A000080711143C8F8401041000CD5D8F800103F
:105A100021F40041C8F80010D4F8B810D8F80020DC
:105A20001143C8F80010B0F1FF3F07DCD8F83C1074
:105A3000226D21F040511143C8F83C10000208D5F6
:105A4000D8F84400D4F8881020F440000843C8F87F
:105A50004400002E18BF01263046BDE8F08701271C
:105A6000012564E7D4F8B0004FF6CF73D8F80020D2
:105A7000C0F2FF0300F4407122F47C5203EA1013D9
:105A80006FF31F30B1F5407F08BF1A430025C8F8F7
:105A90000020D8F860100843C8F860008CE50000CA
:105AA0002DE9F04381B0002800F01B8142F200088C
:105AB0000446C5F200288946D8F8000000F00F001F
:105AC00088420ED2D8F8000020F00F0040EA09000A
:105AD000C8F80000D8F8000000F00F00484540F07A
