:020000040800F2
:1000000050B90020350400083D0400083F040008F2
:1000100041040008430400084504000800000000F3
:10002000000000000000000000000000ED020008D9
:100030004904000800000000A503000809040008A6
:100040004F0400084F0400084F0400084F04000844
:100050004F0400084F0400084F0400084F04000834
:100060004F0400084F0400084F0400081916000848
:100070004F0400084F040008251600083116000838
:100080003D160008491600084F0400080D16000828
:10009000011600084F0400084F0400084F04000830
:1000A000853B0008A33B00084F0400084F040008EC
:1000B0004F0400080000000000000000E5310008C7
:1000C000D9310008FD310008F13100084F04000863
:1000D0004F0400084F0400084F0400084F040008B4
:1000E0004F0400084F04000800000000000000005A
:1000F0000000000000000000000000000000000000
:10010000000000004F040008000000004F04000839
:100110000000000000000000C13B00084F04000880
:100120004F0400084F0400084F0400084F04000863
:100130004F04000800000000000000000000000064
:100140004F0400084F0400084F0400084F04000843
:100150004F0400084F0400084F0400084F04000833
:100160004F0400084F0400084F040008000000007E
:100170004F0400084F0400084F0400084F04000813
:100180004F0400084F0400084F04000800F002F874
:1001900000F068F80AA090E8000C82448344AAF1B9
:1001A0000107DA4501D100F05DF8AFF2090EBAE8B7
:1001B0000F0013F0010F18BFFB1A43F0010318479B
:1001C000F0CA000010CB00000A4410F8014B14F0F4
:1001D0000F0508BF10F8015B240908BF10F8014B98
:1001E0006D1E05D010F8013B6D1E01F8013BF9D1E1
:1001F000641E03D0641E01F8015BFBD19142E4D37D
:10020000704700000023002400250026103A28BF74
:1002100078C1FBD8520728BF30C148BF0B60704778
:1002200066290CF08683782900F01082732900F08B
:100230009387002070471FB50CF06EFB9DE803000C
:1002400000F011FB01F033F80400002000210CF055
:10025000B5F8E06001F0C2F91FBD10B5002000F054
:100260007FFF10BD00F0FEFF1146FFF7E4FF07F02F
:10027000D8FC01F019F903B4FFF7EFFF03BC00F05D
:10028000CFFA000080F309887047EFF309807047C8
:10029000684680F3098804480078C00714BF02202C
:1002A000032080F31488704770010020DFF818C025
:1002B000EFF305831B0618BF6047EFF31483DB07DA
:1002C00008BF604700DF704775A50008DFF818C059
:1002D000EFF305831B0618BF6047EFF31483DB07BA
:1002E00008BF604700DF7047EDA50008EFF3098005
:1002F000816911F8021CE1BB90E80F1010B5E047CE
:10030000BDE81040EFF3098C8CE80700214B93E81F
:100310000600914208BF704741B91EF0100F16D178
:100320001D49086820F00100086010E01EF0100F61
:1003300006BF2CED108A0120002081F838002CE93E
:10034000F00FC1F83CC00CB40BF03AFD0CBC1A60C5
:10035000D2F83CC0BCE8F00F92F8380000280EBF7D
:100360006FF0020E6FF0120E00F058B88CF309888F
:10037000704710B5094A1268914209D8084C54F8E0
:10038000214090E80F10A047EFF3098C8CE80F0094
:1003900010BD0000C800002034EF00E04C850008CC
:1003A0004C85000810B50BF005FCBDE81040154B5E
:1003B00093E80600914208BF7047EFF3098C1EF0E6
:1003C000100F06BF2CED108A0120002081F83800A4
:1003D0002CE9F00FC1F83CC00CB40BF0F1FC0CBCE4
:1003E0001A60D2F83CC0BCE8F00F92F83800002840
:1003F0000EBF6FF0020E6FF0120E00F015B88CF306
:1004000009887047C800002010B50BF0FDFCCCE750
:1004100010B509F0D9F80BF0F7FCC6E7BCEC088A78
:10042000BCEC08CAFFF7A2BFBCEC088ABCEC08CA47
:10043000FFF7E5BF0948804709480047FEE7FEE7A8
:10044000FEE7FEE7FEE7FEE7FEE7FEE7FEE7FEE784
:1004500004480549054A064B70470000313B000837
:100460008D0100085009002050B90020508900205B
:1004700050890020004870478C03002070B5A0FB15
:100480000140B4F1805170F1000024BF002070BD24
:10049000204600F060FA05001CBF214600F0DFFB9B
:1004A000284670BD70B516460D46041F002808BFCB
:1004B00070BD002E1CBF05F10C0007F024FB2B467D
:1004C0005868002818BFA04238BF0346F8D31968FF
:1004D000CA18A24218BF5C6003D122681C461144AE
:1004E000196021680A19824218BF606004D142680D
:1004F0006260006808442060002E1CBF05F10C00FB
:1005000007F005FB70BD10B5044600F08FF90168D7
:100510002046BDE810400122C4E753EA020C00F077
:1005200069802DE9F04B4FF00006002B1FBFB3FA96
:1005300083F503FA05F424FA05F65E4012BF16436C
:10054000B2FA82F502FA05F4C5F120051EBF22FABF
:1005500005FC44EA0C04203556EA044C4FEA1444E6
:1005600018BF641C4FF000084FF00009904271EB77
:10057000030C39D3002919BFB1FA81F701FA07F644
:10058000B0FA80F700FA07F6C7F120071EBF20FA7D
:1005900007FC46EA0C062037B6FBF4FCA7EB050780
:1005A000103F07F01F0BCBF120062CFA06F60CFAD1
:1005B0000BFB44BFB3460026202FA4BF5E464FF07E
:1005C000000B5BEA060C08BF4FF0010B19EB0B099F
:1005D00048EB0608ABFB027C06FB02CC0BFB03CC12
:1005E000C01B71EB0C01C1E70B4602464146484671
:1005F000BDE8F08B13B5084318BF4FF0FF3001463C
:10060000AFF30080BDE81C40704700000FB41CB57C
:100610000C0007AA009007D04142A14202D3204417
:10062000401E01E04FF0FF30074B7B4469460190CC
:10063000069800F022FA0021002C01D0009A1170D7
:100640001CBC5DF814FB00007304000070B5044688
:100650000D4621461068AFF300802188090502D5B8
:100660000F4A7A4402E00E4A7A440E32002104F125
:10067000240305E000F00F060009965D5E54491C56
:100680000028F7D120780023000704D5702D02D070
:1006900009B1022311322046BDE8704000F08EB946
:1006A000D0C200002DE9F0410F4605460020286227
:1006B0002846E968884770B3252805D0D5E9012187
:1006C0009047286A401CF2E7E968284600268847D8
:1006D0006C2804460AD0682C08D04C2C35D06A2CE3
:1006E00031D0742C31D07A2C2FD016E0E968064630
:1006F00028468847B042044608D16C2E23D04FF4D8
:1007000080662846E9688847044606E06C2E03D0D8
:100710004FF4807601E01EE04026E4B1A4F14100F0
:10072000192802D8203446F400663A462146284665
:100730002E60FFF775FD60B1012808D0FF1D27F07E
:1007400007070837B4E78026DBE70026D9E73F1D17
:10075000AEE72046B2E7286ABDE8F08110B5002078
:1007600000F0BDF9FFF779FDBDE81040012000F071
:1007700057B80B460146184600F09AB910B5431C0D
:1007800002E010F8011B71B18107FAD14FF001327C
:1007900002C88C1A8C4314EAC211F9D0C01A0A0696
:1007A00003D0C01E10BDC01A10BD0A0401D0801EA7
:1007B00010BD0902FCD0401E10BD02F0FF0343EA49
:1007C000032242EA024200F04CBA4FF0000200B5A8
:1007D000134694469646203922BFA0E80C50A0E864
:1007E0000C50B1F12001BFF4F7AF090728BFA0E812
:1007F0000C5048BF0CC05DF804EB890028BF40F8DE
:10080000042B08BF704748BF20F8022B11F0804F1F
:1008100018BF00F8012B7047704770477047000001
:1008200001491820ABBEFEE72600020010B5FFF715
:1008300021FE083010BD704770477047704738B5CB
:1008400004460A4600206946AFF30080002808BF2E
:1008500038BD02460099204600F039FA012038BD23
:10086000012000F0BBBCF8B5AFF3008005460020C6
:100870000C46102000BF0646A819A0420DD93246EA
:1008800069460020AFF30080070008BF00F0A6FC17
:100890000098A04218BF0546C419FFF7C7FF0560BE
:1008A0000746F01D20F007004619284600F0FFF922
:1008B000B44208BFF8BDA21B31463868BDE8F84015
:1008C00000F005BA0844401E491E884370470821BD
:1008D000001DF7E72DE9F04117460E460446FFF7E5
:1008E000F6FFA042054633D9002F1CBF06F10C00CD
:1008F00007F009F930467468F4B12168A94217D3AA
:1009000005F1080291423CBF6168416007D362680B
:1009100061194A602268521B0A6041602560002FFD
:100920001CBF06F10C0007F0F2F8201DBDE8F081B5
:1009300020466468002CE0D129463046FFF77FFF4F
:100940000028D7D1002F1CBF06F10C0007F0DFF8FC
:100950000020BDE8F08110B50446FFF767FF01688D
:100960002046BDE810400122B4E770B50C460546AC
:10097000012A05D02878800600D5EA69002302E024
:10098000012305E05B1C934202D2E05C0028F9D110
:10099000A869E618C01AA861286A1844286228467F
:1009A000AFF3008004E0D5E9012114F8010B904772
:1009B000B442F8D32846AFF3008070BD2DE9F0476C
:1009C0000D4699469246044600F1240801688806BF
:1009D00004D5E06921F01001216000E00120A84267
:1009E00001DD471B00E00027A1697A1902EB09002D
:1009F000081AA0612078C00602D42046AFF3008018
:100A0000002608E0D4E901211AF806009047206A80
:100A1000401C761C20624E45F4DB2078C0060AD5C7
:100A20002046AFF3008006E0D4E901213020904752
:100A3000206A401C2062381EA7F10107F4DC07E0A1
:100A4000D4E9012118F805009047206A401C206273
:100A5000281EA5F10105F3DC2046AFF300802078C5
:100A6000000602D50220BDE8F0870120FBE7000068
:100A700001694A1C02610878704700B58FB0CDE962
:100A800001310021059105497944CDE90310114652
:100A90006846FFF707FE0FB000BD0000E5FFFFFF4F
:100AA000D1E900239A4202D2531C0B6010707047A8
:100AB0002DE9F041074615460E461020FFF74BFF83
:100AC00004000AD06760C4E9026500F0EBF8016831
:100AD000216004600020BDE8F0810120FBE710B533
:100AE00000F064FBBDE8104000F05BBB032A40F25D
:100AF000308010F0030C00F0158011F8013BBCF1C0
:100B0000020F624498BF11F801CB00F8013B38BFD7
:100B100011F8013BA2F1040298BF00F801CB38BFE5
:100B200000F8013B11F0030300F06780083AC0F0C1
:100B3000088051F8043B083A51F804CBA0E80810AB
:100B4000F5E7121D5CBF51F8043B40F8043BAFF3DE
:100B50000080D20724BF11F8013B11F801CB48BF38
:100B600011F8012B24BF00F8013B00F801CB48BF6E
:100B700000F8012B7047431A28BF9A427FF6B6AFA0
:100B800010441144032A40F2268010F0030F1EBFC8
:100B900011F8013D521E00F8013D10F0030F7FF4E3
:100BA000F6AF11F0030300F03383083AC0F00B8076
:100BB00051F8043D083A51F804CD40F8043D40F89E
:100BC00004CDFFF7F3BF121D5CBF51F8043D40F8A0
:100BD000043DAFF30080D20724BF11F8013D11F8A6
:100BE00001CD48BF11F8012C24BF00F8013D00F8E9
:100BF00001CD48BF00F8012C704710B5203AC0F075
:100C00000B80B1E81850A0E81850B1E81850A0E8DF
:100C10001850203ABFF4F5AF5FEA027C24BFB1E878
:100C20001850A0E8185044BF18C918C0BDE81040BB
:100C30005FEA827C24BF51F8043B40F8043B08BFC4
:100C40007047D20728BF31F8023B48BF11F8012B8B
:100C500028BF20F8023B48BF00F8012B70474FF037
:100C600000020429C0F0128010F0030C3FF4AFAD75
:100C7000CCF1040CBCF1020F18BF00F8012BA8BF87
:100C800020F8022BA1EB0C01FFF7A1BD5FEAC17CAC
:100C900024BF00F8012B00F8012B48BF00F8012BFE
:100CA0007047704710B5FFF7E5FB383010BD0021E5
:100CB0000160C0E901100C3006F027BF102070471A
:100CC000801A0844401E491E88431044704770B57E
:100CD000144605468C464368002B18BF634538BF51
:100CE0001846F8D302681044604508D0664660464E
:100CF00004220821FFF7E4FF811B8446641A294679
:100D0000CCF80040BDE8704000220CF10400FFF771
:100D1000C9BB2DE9FF4F0C461E464FF0FF378BB085
:100D2000D2E90001DDF860800A908A46C1F30A55D5
:100D300005B93D46002108464FF00000BAF1000F0A
:100D400000F4400005DA00EB80004FF4400101EAB6
:100D500050004FEA9059B9F1010F00DDB9460A98E9
:100D600050EA4A000ED044F61050A5F2FF35454334
:100D70002F14B8F1000F1ED07542291E1EDDC9F1D7
:100D800000021CE0B8F1010F4FF0000001D030214B
:100D900003E0F24305E02154401CB042FBDB304647
:100DA0000022002121540B99C1F80880C1E90020DC
:100DB0000FB000F0BCB9BD1B6D1CDEE74A4600DA7F
:100DC000694206A800F0FEFA06AB93E8070003AB01
:100DD00083E8070050460A9906F0F0FF8DE8070007
:100DE000A0F500501F3800900398002D0ADD42F254
:100DF0001F014A460844002303A90390684607F0F0
:100E000059FA09E0A0F500504A461F38002303A90B
:100E10000390684607F063FA8DE807000004000CB1
:100E200003D04FF0FF30410800E01046B8F1000F4A
:100E300003D00022009215461EE0751E05D400F076
:100E40003BFA303262556D1EF9D5B3460122084394
:100E500002D000227F1C04E02078302801D100223B
:100E60007F1E002A099784D01DE0112D07DA00F0BB
:100E700023FA303262556D1C50EA0102F5D1084365
:100E800002D00098C8B10EE00021681E05E0235C86
:100E9000625C63542254401E491C8142F7DBAB461E
:100EA000A81B401E0990002004F80B000B98099A1B
:100EB000C0F80880C0E9002B7AE711264FF000083F
:100EC00057E72DE9F04F88460446D21D22F007016E
:100ED00091B0D1E90001CDE90A0107F042FB0246D9
:100EE0000B98C00F01D02D2007E02068810701D5A5
:100EF0002B2002E0202101EAC000032A099001D042
:100F0000072A05DB03464146204600F01BFA0BE1A9
:100F10002078800601D5E06900E00620B8F1650F71
:100F2000814606D0B8F1660F18D0B8F1670F70D1BE
:100F300031E00020B9F1110F009001DB112301E035
:100F400009F101030AAA01A90CA8FFF7E2FEDDE9F5
:100F50000C70002609F10105834647E001204B464D
:100F600000904FF000470AAA01A90CA8FFF7D1FE94
:100F7000DDE90DB00C995D46002610B909F10100BC
:100F80000D18B9EB050003D4C0F1FF3609F10105D6
:100F9000A5EB09002BE0B9F1010F01DA4FF00109CF
:100FA0000020B9F1110F0090484601DD112300E047
:100FB00003460AAA01A90CA8FFF7ABFEDDE90C70F5
:100FC0004D4600268346207800070AD4AB4500DA58
:100FD0005D4601A8012D04DD411911F8011C3029DD
:100FE00007D04F4502DA17F1040F04DA01208246D8
:100FF0000FE06D1EEEE7002F02DCED1B3E4403E028
:10100000781CA84200DD7D1CB81B00F1010A4FF0DE
:1010100000472078000703D4AA4501DB4FF0FF3AD0
:101020000021B7F1004F0DF143088DF8431024D093
:1010300002202B23002F01DA7F422D230A21021EDA
:10104000A0F1010000DC5FB197FBF1FC97FBF1F22E
:1010500001FB1C7C17460CF1300C08F801CDEEE7C3
:10106000A8F1010003702188090501D5452100E0A0
:101070006521A0F1010800F8011C09980FA9A1EB56
:101080000807FF1D00B10120411901EBEA70A169B9
:101090003844081A401EA0612078C00602D42046B9
:1010A000AFF30080099828B1D4E901219047206A64
:1010B000401C20622078C00622D52046AFF3008075
:1010C0001EE0002E04DBB34502DD01A8805D00E0D8
:1010D0003020D4E901219047206A401C2062761C10
:1010E000AAF101005FEA000A0AD100F0E0F8C06846
:1010F0000168405CD4E901219047206A401C2062CD
:10110000281EA5F10105DCDC07E0D4E9012118F86F
:10111000010B9047206A401C2062381EA7F101078E
:10112000F3DC2046AFF30080032011B041E630BC71
:10113000BDE8C08F10B5436913B1AFF3008001E083
:10114000FFF713FC012010BD127800F124010A7092
:1011500000224A700122EDE711684FF0FF32E9E703
:101160002DE9F0410646FFF79DFD8046454613E018
:1011700016B1E068B0420ED120682860D4E90101C0
:10118000D8F8007088472046FFF7BDF9D8F800006E
:10119000B842EBD100E025462C68002CE8D1BDE830
:1011A000F081002801D0FFF73BBB704710B500214C
:1011B00002A000F082F9012010BD00005349474110
:1011C0004252543A2041626E6F726D616C207465B8
:1011D000726D696E6174696F6E00000010B500F089
:1011E00085F9BDE81040FFF7DCBF431A28BF9A42DB
:1011F0007FF603AD1044114410F0030F1EBF11F829
:10120000013D521E00F8013D10F0030F7FF4F6AFD0
:10121000103AC0F00A8010B531E9185020E9185092
:10122000103ABFF4F9AFBDE81040530724BF31E9CD
:10123000081020E9081044BF51F8043D40F8043D6F
:1012400012F0030F08BF7047D20728BF31F8023DE4
:1012500048BF11F8012C28BF20F8023D48BF00F814
:10126000012C70477546FFF705F9AE460500694643
:10127000534620F00700854618B020B5FFF7E8F880
:10128000BDE820404FF000064FF000074FF0000887
:101290004FF0000BAC46ACE8C009ACE8C009ACE8C4
:1012A000C009ACE8C00921F007018D46704710B5B0
:1012B000FFF7E0F8203010BD30B5B0F10A0271F14F
:1012C00000034FEA900E4EEA817EB0EB0E0061EB18
:1012D00091014FEA101E4EEA017E10EB0E0041EB29
:1012E00011114FEA102E4EEA016E10EB0E0041EB89
:1012F00011214FEA104E4EEA014E10EB0E0041EB69
:101300001141401841F100014FEAD00040EA41701C
:101310004FEAD1014FEA810444EA907410EB800552
:1013200044EB01046D1944EB0404521BA3414FF03C
:10133000000348BF0A3200D530BD401C41F1000116
:1013400030BD00002DE9F0411F4604460326016828
:10135000072A01F4006004DB08B116A505E016A514
:1013600003E008B115A500E015A521F010002060EC
:10137000A069C01EA0610FB1401EA0612046AFF35E
:1013800000804FB1D4E9012138469047206A401CC3
:101390002062C01C206206E0206AFAE7D4E901213D
:1013A00015F8010B9047761EF8D22046AFF3008067
:1013B000BDE8F0814E414E006E616E00494E460020
:1013C000696E66002DE9F047814616468AB03548B9
:1013D00078440DC88DE80D0032487844801C03AC79
:1013E0000DC884E80D0041F69B300844372190FB7E
:1013F000F1F290FBF1F5A5F1800501FB12041B3C15
:1014000002D56442012000E00020DFF898A0804669
:101410000027FA44AAF1BE0A0EE0E0070AD03246DD
:10142000684607EB470101230AEB810106F057FFED
:101430008DE8070064107F1C002CEED1194F7F440B
:10144000AE3F19E0E80715D007EB04100DF1180ABC
:1014500090E80E008AE80E00C068F04201D19819A9
:1014600008903246012306A903A806F038FF03AB13
:1014700083E807006D10641C002DE3D14FF00103D9
:1014800032466946B8F1000F03A802D006F012FFF9
:1014900001E006F024FFC9E90001C9F808200AB0FC
:1014A000BDE8F08708B6000010B50446AFF3008031
:1014B0002046BDE81040FEF7DEBE70B505460C467E
:1014C0000A2000E06D1C00F039F835B128780028BA
:1014D000F8D102E0641C00F031F814B12078002843
:1014E000F8D1BDE870400A2000F028B810B50128F6
:1014F00005D0002103A0FFF7E0FF012010BD09A1E6
:10150000F8E7000053494752544D454D3A204F7576
:1015100074206F662068656170206D656D6F7279EB
:10152000000000003A2048656170206D656D6F72A3
:101530007920636F727275707465640008B56946CE
:101540008DF800000320ABBE08BD000000000000C5
:1015500030B44FF0013C50F8042B51F8043BCCFA66
:1015600052F4D51A20D1FCB950F8042B51F8043BA1
:10157000CCFA52F4D51A17D1B4B950F8042B51F85B
:10158000043BCCFA52F4D51A0ED16CB950F8042BA6
:1015900051F8043BCCFA52F4D51A05D1002CDAD01C
:1015A00030BC4FF00000704729BAB1FA81F111F058
:1015B0001801D1F120008440F2D1CA40CB4012F092
:1015C000FF0213F0FF0330BCD01A704702F0FF0394
:1015D00043EA032242EA0242FFF7F9B870B5064C2B
:1015E0007C44064D7D4404E0204601680844804761
:1015F000241DAC42F8D170BD08B7000010B7000040
:1016000040F21460C2F2000000F0F6B940F214603B
:10161000C2F2000000F0F0B940F27860C2F20000BF
:1016200000F094BC40F29870C2F2000000F08EBC52
:1016300040F25070C2F2000000F088BC40F2087026
:10164000C2F2000000F082BC40F2C060C2F20000B2
:1016500000F07CBC704740F21820C2F20000027F0C
:1016600002F0FD01012942F20001C4F202010BD196
:101670000B6843F400630B600B6823F400630B609A
:101680000B6843F400730B6002F0FE02022A0BD1D8
:101690000A6842F480520A600A6822F480520A60A2
:1016A0000A6842F480620A600021017770470000F6
:1016B000F0B581B042F210060446C4F2020600F012
:1016C000A9FE3168C9030AD50546671C27B100F099
:1016D000A1FE401BA0421AD23068C003F6D4306885
:1016E0004CF2FA31C0F20201014008D040F2182059
:1016F000C2F2000042680A434260012005E03068FF
:10170000C0074FF0000003D00121316000E003204A
:1017100001B0F0BD90F82020013A012A04D80068F9
:1017200000F11402002004E000F1240201204FF433
:101730008021136819431160704710B590F820E0BC
:10174000D0F800C0AEF1010EBEF1010FDCF808E0E8
:101750000DD81EF0E05F10D0CEF3016EBEF1030F86
:1017600011D100F1240101204FF4000233E000F117
:10177000240101204FF480222DE000F124010120FA
:101780004FF4001227E0012000FA0EF0186088687C
:1017900018B14B6840EAC30001E008684005D1E990
:1017A000033403430CEB0E10C0F88031C0F88441C1
:1017B000097D012905D100F5C2710B6843F48073DE
:1017C0000B605168C0F88C11126800F5C071C0F848
:1017D0008821002001220B681A430A6010BDB0B5B1
:1017E000026890F82030013B012B27D8D2F8000284
:1017F000012340F00100C2F80002D1F814E0CC69E6
:101800000EF01F0003FA00F0D2F81C326FEA000C51
:101810008343012CC2F81C3216D064BBD2F80C32C0
:1018200003EA0C03C2F80C32CB688C8844EA034309
:1018300002EBCE04C4F840320B4614E0416A41F496
:10184000802141620120B0BDD2F80C320343C2F8BE
:101850000C320B688C8844EA034302EBCE04C4F8D4
:10186000403201F10C038C681B8843EA044302EB0D
:10187000CE04C4F84432D2F804328D6943EA00043D
:10188000D1F810E0096A002D08BF03EA0C04C2F881
:101890000442D2F81432BEF1000F43EA000408BF3C
:1018A00003EA0C040129C2F8144204D1D2F81C1234
:1018B0000843C2F81C02D2F8000220F00100C2F86E
:1018C00000020020B0BD90F82020013A012A06D87D
:1018D0000068426922EA0101416100207047416AC3
:1018E00041F48021416201207047704710B590F8A3
:1018F0002040013C012C70D8D0F800C000290CBF5A
:10190000DCF80C40DCF81040A4076CD00CEB011C98
:10191000DCF8B0410CF5D87E14F004049460DCF8D7
:10192000B04119BFE4085460640D1460DEF8004053
:101930000029C4F34004D460DCF8B44104F00F047F
:101940001461DCF8B441C4F307249461DCF8B441B9
:101950004FEA14445461DCF8B8211A70026802EBB3
:101960000112D2F8B8214FEA12225A70026802EB33
:101970000112D2F8B8214FEA12429A70026802EBC3
:101980000112D2F8B8214FEA1262DA70026802EB53
:101990000112D2F8BC211A71026802EB0112D2F8CE
:1019A000BC214FEA12225A71026802EB0112D2F8EE
:1019B000BC214FEA12429A71026802EB0112D2F87E
:1019C000BC214FEA1262DA7100680CBF00F10C0111
:1019D00000F11001002020220AE000F12401012082
:1019E0004FF4802204E000F1240101204FF40012A2
:1019F0000B681A430A6010BD2DE9F04F81B0044610
:101A000000684669D0F804908768D0F80CB0D0F828
:101A100010A0D0F81880F10701D1002546E0F907A1
:101A20000FD00121BA07816006D478071CD438078B
:101A300020D404F1340001E004F1280001682046BC
:101A400088470025F8051AD520684FF48071BA053B
:101A5000816005D478050AD438050ED4A16B00E066
:101A6000E16A204688470AE04FF40065EAE705F599
:101A7000005504E04FF48055E4E705F58045F80390
:101A800014D520684FF48031BA03816005D47803FF
:101A900007D4380308D4E16B00E0216B2046884767
:101AA00004E005F5004501E005F58035300707D570
:101AB0001BF0100004D0206845F400751021C160AF
:101AC000700708D51BF0080005D02068616C08225B
:101AD000C26020468847B00706D52068C0688007E6
:101AE00002D0216C20468847700607D51AF01000F6
:101AF00004D0206845F4806510210161B00608D546
:101B00001AF0080005D02068E16C08220261204626
:101B10008847F00606D520680069800702D0A16CCE
:101B200020468847B00308D519F0100005D020687A
:101B3000216D1022426020468847F00308D519F035
:101B4000080005D02068616D082242602046884761
:101B5000300440D55FEA49703AD506F4807008EA4F
:101B6000102028435FEA8871014648BF41F0020116
:101B7000B20558BF01465FEA48700D4648BF45F0C0
:101B80000405700558BF0D46300521D518F07000CA
:101B90001ED010380009052815D8DFE800F003062C
:101BA000090C0F1245F008050DE045F010050AE09C
:101BB00045F0200507E045F0400504E045F08005CC
:101BC00001E045F480752068816921F07001816130
:101BD0002068042141604DB1606AA16D40EA0502B0
:101BE0002046626201B000F004B8084701B000F07E
:101BF00005B830BCBDE8C04FFFF7F7BF30BCBDE84B
:101C0000C08F00002DE9F041002861D0044690F813
:101C10002000002849D141F6876141F6EB6541F685
:101C2000EF6241F68968C0F60001C0F60005C0F613
:101C3000000241F6F36341F6F160C0F60008C0F619
:101C4000000341F6E96641F6ED67C0F60000C4E91D
:101C50000A5204F130026164E16D41F68D6C41F687
:101C60008B6EC0F60006C0F60007C8C2C4E90F08B4
:101C700041F68F6041F6F56241F6EB03C0F6000CC9
:101C8000C0F6000EC0F60000C0F60002C0F6000369
:101C9000C4E912CE20656265A36521B941F685517C
:101CA000C0F60001E165204688472068016821F000
:101CB0000201016000F0AEFB054600BF20684168EC
:101CC000890708D500F0A6FB401B0B28F6D312E0CD
:101CD0000120BDE8F081016841F00101016000F0E0
:101CE00099FB054620684168C9070BD100F092FBBB
:101CF000401B0B28F6D3606A052140F40030606277
:101D000001203BE0217E0268012922F0800208BF09
:101D100080320260617E0268012922F0400208BF21
:101D200040320260A17E0268012922F0200208BF31
:101D300020320260E17E0268012922F0100218BF01
:101D400010320260217F0268012922F0080208BFD8
:101D500008320260617F0268012922F0040208BF94
:101D600004320260271D8ECF66691A433A4332431C
:101D700001391143C16100200121606284F8201003
:101D8000BDE8F08180B586B0006846F20041C4F23B
:101D90000001884237D141F24C00C4F20200C16810
:101DA00041F00071C160C16801F0007101910199B9
:101DB000016841F002010160006801A900F0020021
:101DC000019001984FF44070019002200290002091
:101DD0000390032004900920059040F20040C4F6CF
:101DE000000000F039FA13200021002200F083FBEC
:101DF000132000F071FB14200021002200F07BFB77
:101E0000142000F069FB06B080BD0000A2B190F87C
:101E10002030012B0DD10E290ED8DFE801F0081B70
:101E20001D1F21232527292B2D2F311719008262F1
:101E300027E090F820302BB1416A41F480014162E3
:101E4000012070470E2903D00D29F5D1C26518E095
:101E5000026616E0C26214E0026312E0426310E020
:101E600082630EE0C2630CE002640AE0426408E0B0
:101E7000826406E0C26404E0026502E0426500E0BC
:101E80008265002070477047704770477047704701
:101E9000B0B5044690F8200001281CD1022084F837
:101EA00020002068016821F00101016000F0B2FA11
:101EB000054600BF20684068C00712D000F0AAFAAB
:101EC000401B0B28F6D3606A40F4003060620520A6
:101ED00084F8200003E0606A40F400206062012082
:101EE000B0BD00206062B0BD70477047704770475A
:101EF00070477047704780B590F82510022920D1AF
:101F00000168D0F838E0D0E910C30A68BEF1000FCC
:101F100022F00E020A600A6822F001020A6003F051
:101F20001C014FF0010202FA01F1CCF804104FF04D
:101F3000000180F8252080F8241005D0F04700210A
:101F400002E00421C1630121084680BDB0B5D0E99B
:101F500010C30268DCF8001003F01C030424D2F85C
:101F600000E09C400C4218BF1EF004051AD1022468
:101F70009C400C4218BF1EF002051FD1D940090732
:101F80001BD51EF0080118D0116821F00E01116058
:101F9000012101FA03F2CCF80420C16380F8251076
:101FA000416B18E01168890603D4116821F004011F
:101FB0001160CCF80440016B91B9B0BD116889067D
:101FC00006D4116821F00A011160012180F8251062
:101FD000CCF80440C16A0022002980F82420ECD00B
:101FE000BDE8B040084700002DE9F04F81B040F255
:101FF0001829C2F2000999F80020012A01D102260D
:1020000080E08246012089F800004CF2503088467A
:10201000FFF74EFB0646002871D142F2140400205F
:10202000C4F20204C9F8040054F8141C54F8140C47
:10203000890503D440050BD4002012E020F4007081
:1020400044F8140C54F8140C400503D4012008E0A3
:10205000022000E0032054F8141C21F4806144F8AD
:10206000141C89F81C00DAF80000012815D19AF830
:102070000400C00703D0206840F0040020602068FE
:1020800040F4803020604CF25030FFF711FB2168A3
:10209000064621F0040020602FE04FF0FF30C8F822
:1020A0000000DAE902703844874222D2FD0040F293
:1020B000FA7B00BF2068E90861F3CA00206020684D
:1020C00040F002002060206840F4803020604CF234
:1020D0005030FFF7EDFA2168064621EA0B00206038
:1020E0004EB9DAE9020101370844874205F10805D3
:1020F000E0D3002601E0C8F80070FFF7ACFA00203A
:1021000089F80000304601B000F000B830BCBDE8EE
:10211000C08F40F21820C2F200004068704742F2BF
:102120001401C4F20201086840F0004200200A6075
:10213000704700002DE9F04740F21829C2F200096B
:10214000144699F80020012A01D1022569E0804651
:10215000012089F800004CF250301F460E46FFF770
:10216000A7FA0546002859D142F2000A0020C4F21D
:10217000020AC9F80400DAF80010490506D5DAF8B1
:10218000000020F48060CAF800000220B8F1000FBF
:1021900089F81C0024D0A8F10100022837D2DAF80F
:1021A000140040F48020CAF81400EFF31080EFF31D
:1021B000108172B6402100BF54F8042B01390B0680
:1021C00046F8042BF8D180F310884CF25030FFF71A
:1021D0006FFAB8F1020F05461ED16FF4802010E0AF
:1021E000DAF8140040F00100CAF8140034604CF230
:1021F0005030BFF36F8F7760FFF75AFA05466FF0E4
:102200000100DAF814100840CAF8140004E04CF297
:102210005030FFF74DFA0546FFF71DFA002089F808
:1022200000002846BDE8F08742F20800C4F2020030
:10223000C168B1F1FF3FC4BF0020704740F22311D5
:10224000C4F26751016048F6AB11CCF6EF51016062
:10225000C068C00F704700002DE9F04F82B041F216
:102260000002C4F6000290420A684FF0070308BF5C
:102270000423002A009300F0BA8000F138434FEAAB
:10228000B32740F2004A009BC4F2010A042F38BF72
:102290003B464FF0010E002500260127009300BFAA
:1022A000A7F1010C0EFA0CF912EA090800F095806A
:1022B0004A6842F01004122C15D16FF0030202EAB2
:1022C0005C020244D2F820B006F01C030F24D1F8BF
:1022D00010E09C402BEA04040EFA03F3234313623C
:1022E0004A684FF0010E03680324AC406FEA040B08
:1022F000A34302F00304AC402343122A036013D823
:102300000EFA02F313F0061F0ED08368CC6803EABE
:102310000B03AC40234383604368140923EA090399
:1023200004FA0CF423434360C3688C6803EA0B038C
:10233000AC402343D200C3604FD541F26003C4F2E6
:1023400002031A684FF6084942F001021A601A683F
:10235000CFF6FF7902F001020192019A2CF00302FC
:10236000524452F809C006F00C040F23A3402CEA93
:10237000030C009B03FA04F444EA0C0342F809300E
:10238000DAF800C04B684CEA0804DA0358BF2CEABC
:102390000804CAF80040DAF804C09A034CEA0804BA
:1023A00058BF2CEA0804CAF80440DAF808C0DA0278
:1023B0004CEA080458BF2CEA080440F20C4CCAF856
:1023C0000840C4F2010CDCF800209B0242EA080439
:1023D00058BF22EA0804CCF800400A68043632FAF2
:1023E00007F307F1010705F102057FF459AF02B0C9
:1023F00000F000B830BCBDE8C08F426928230A4213
:1024000008BF1823C15070471823002A08BF28238B
:10241000C150704780B540F23820C2F200004068D9
:10242000804700B180BDBDE8804005F001BC704729
:102430007047D0F800C0DCF81830DCF80020D9056F
:1024400002F0800208D53AB1416C41F001014164CB
:102450004FF48071CCF81C10590508D53AB1416C85
:1024600041F0080141644FF48061CCF81C109905DB
:1024700008D53AB1416C41F0020141644FF400715A
:10248000CCF81C10416C11F00B0F18BF00F014BFFA
:1024900070470268436B9169126803B1184770472F
:1024A000704770477047704780B5032000F04EF8C2
:1024B000002000F007F808B1012080BD00F00BF803
:1024C000002080BD80B540F23820C2F200000068D4
:1024D0008047002080BD704700280BD400F01F010A
:1024E000012202FA01F14EF200124009CEF200027E
:1024F00042F82010704710B54EF60C5CCEF2000C7E
:10250000DCF80030C3F3022E8EF00704042C28BF41
:102510000424BEF103034FF0FF3E0EFA04F438BF6B
:102520000023A14399400EFA03F39A43114300F0AC
:102530000F02043A624409010C3200F16043B0F129
:10254000FF3FC8BF03F56442117010BD4EF60C5139
:10255000CEF200010A684FF6FF031A4060F30A2228
:1025600042F0806040F0FD700860704747F2000C58
:10257000C4F2000CDCF80020B0F5007F02F4C0606B
:102580002AD1B0F5007F31D0DCF80000012262F3DF
:102590004A20CCF8000040F21420C2F2000000688B
:1025A000322358434DF68363C4F21B33A0FB03036D
:1025B00002EB9340002200BFDCF81410013842F116
:1025C0000003490501D5002BF6D1DCF814004005C5
:1025D00044BF0320704709E0B0F5806F06D0DCF8F7
:1025E0000000022161F34A20CCF80000002070476F
:1025F00047F20000C4F20000006800F4C0607047B9
:102600002DE9F04381B00446407841F20C07000701
:10261000C4F202071BD5E06C68B1B0F5400F11D0D1
:10262000B0F5000F40F03781386840F480303860F2
:102630004FF4000006E0201D002101F087F98146DB
:1026400038B9E06CF96F21F440010843F8674FF0A6
:102650000009A078800753D5F86C10F0805808D195
:10266000F86C40F08050F864F86C00F080500090F6
:10267000009847F20005C4F20005286840F4807015
:102680002860FFF7C7FE06462868C00507D4FFF795
:10269000C1FE801B0228F7D94FF0030929E0B9F1E8
:1026A000000F26D1D7F8840010F4407017D0616E67
:1026B000884211D0D7F88400D7F8841020F44070F5
:1026C00041F48031C7F88410D7F8841021F48031A8
:1026D000C7F88410C7F88400C00740F0DF80D7F83F
:1026E0008400616E20F4407008434FF00009C7F881
:1026F0008400B8F1000F03D1F86C20F08050F8642A
:102700002168C80705D0F86F226A20F00300104343
:10271000F867880705D5F86F626A20F00C0010434F
:10272000F867480705D5F86FA26A20F0300010431B
:10273000F867080705D5F86FE26A20F0C00010437B
:10274000F867880605D5F86F226B20F440601043C7
:10275000F867880505D5F86F626C20F440201043B7
:10276000F867480505D5F86FA26C20F440101043B7
:10277000F867480605D5F86F626B20F440501043A7
:10278000F867080605D5F86FA26B20F440401043A7
:10279000F867C80505D5F86FE26B20F440301043A8
:1027A000F867C80207D5D7F89000226C20F0030024
:1027B0001043C7F89000880418D5FA6F206D22F0F6
:1027C00040620243B0F1806FFA6707D0B0F1006F4A
:1027D0000CD1386840F48010386007E0201D0121DA
:1027E00001F0B4F82168002818BF8146080318D505
:1027F000FA6F606D22F040620243B0F1806FFA67B9
:1028000007D0B0F1006F0CD1386840F48010386008
:1028100007E0201D012101F099F82168002818BF68
:102820008146480318D5FA6FA06D22F0406202433A
:10283000B0F1806FFA6707D0B0F1006F0CD1386843
:1028400040F48010386007E0201D012101F07EF87F
:102850002168002818BF8146480410D5F86FE26D42
:1028600020F040501043B2F1805FF86707D1201D7F
:10287000022101F06BF82168002818BF8146C803C7
:1028800005D5F86F216E20F000400843F8674846F0
:1028900001B0BDE8F0834FF00109DAE6FFF7BAFDB9
:1028A000064641F288354FF0030900BFD7F884008F
:1028B00080073FF514AFFFF7ADFD801BA842F5D9A7
:1028C00017E700002DE9F04381B0002800F0A68052
:1028D00042F20008C4F202080446D8F800000D468F
:1028E00000F0070088420DD2D8F8000020F0070061
:1028F0002843C8F80000D8F8000000F00700A842FC
:1029000040F08C80206841F20809C107C4F2020936
:1029100034D0606840B102280BD003280ED159F89A
:10292000081C89010ED479E059F8081C890709D4DC
:1029300074E059F8081C890304D46FE059F8081CA6
:1029400049056BD5D9F8001021F003010843C9F8F7
:102950000000FFF75FFD064641F28837D9F8000016
:10296000616800F00C00B0EB810F06D0FFF752FD5C
:10297000801BB842F2D9032051E02068810707D5B7
:10298000D9F80010A26821F0F0011143C9F8001035
:10299000D8F8001001F00701A9420CD9D8F80010AE
:1029A00021F007012943C8F80010D8F8001001F001
:1029B0000701A94232D1410707D5D9F80010E268D2
:1029C00021F4E0611143C9F80010000708D5D9F8D7
:1029D0000000216920F4605040EAC100C9F80000FD
:1029E00000F020F8D9F800104CF65C42C1F3031156
:1029F000C0F60002515C40F2142201F01F0120FADF
:102A000001F140F24020C2F200000068C2F2000270
:102A1000116001B0BDE8F043FFF754BD012001B0E3
:102A2000BDE8F08341F20001C4F20201886810F0B1
:102A30000C02C86805D00C2A27D100F00300012839
:102A400023D10868000703D4D1F89400000A01E0FC
:102A5000086800094CF66C4300F00F00C0F6000354
:102A600053F82030002A184618BF00200C2A18BF3F
:102A70007047C86800F0030002280FD0032804BF85
:102A800049F28063C0F298030CE0042A1DD0082AA2
:102A900020D149F28060C0F29800704742F20043B2
:102AA000C0F2F403C868CA68C0F30210C2F3062279
:102AB000C96801305A43B2FBF0F0C1F34161022210
:102AC00002EB4101B0FBF1F0704742F20040C0F26E
:102AD000F400704700200023C8E700002DE9F04310
:102AE00081B0002800F05E8241F200060446C4F284
:102AF0000206B068F168227800F00C08D00601F0F8
:102B000003071BD42078C0074FD0B8F1080F45D079
:102B1000B8F10C0F08BF032F40D06068B0F5803FBC
:102B200007D0B0F5A02F40F04182306840F48020FB
:102B30003060306840F48030306040E2B8F1000F1F
:102B40001CD0B8F10C0F08BF012F17D0A169306855
:102B5000002900F08E8140F001003060FFF75AFC40
:102B6000054600BF3068800700F19681FFF752FCF0
:102B7000401B02284FF00300F4D914E230688007AC
:102B800003D5A069002800F00D82206A316809078A
:102B900000F10B81D6F89410090907E13068800331
:102BA00003D56068002800F0FD81207880072CD5CF
:102BB000B8F1040F1BD0B8F10C0F08BF022F16D0CC
:102BC000E1683068002900F0098240F480703060CC
:102BD000FFF720FC054600BF306840050ED4FFF724
:102BE00019FC401B02284FF00300F5D9DBE13068E7
:102BF000400503D5E068002800F0D48170682169A1
:102C000020F0FE4040EA016070602078000760D448
:102C10002078400774D42078800600F1AB80A06A49
:102C2000002800F05382022840F04881F068E16AF1
:102C300000F003028A4240F06581226B6FF00F03BF
:102C400000F0700103EB0212914240F05B81616B76
:102C500000F4FE42B2EB012F40F05481A16B00F072
:102C60007842B2EBC16F40F04D81E26B0023CFF6AA
:102C7000E07303EB025200F4C0016FF314029142BF
:102C800040F04081216C4FF07E4202EB016100F088
:102C9000C06001F07E41884240F03481306880019C
:102CA00000F11482306840F080703060F06840F0CD
:102CB0008070F060FFF7AEFB04463068800100F1E1
:102CC0000582FFF7A7FB001B02284FF00300F4D991
:102CD00069E16169D6F89400002900F0B58040F000
:102CE0000100C6F89400FFF795FB0546D6F894005E
:102CF00080078DD4FFF78EFB401B0228F6D94AE1EE
:102D0000B06D10F0805908D1B06D40F08050B065C2
:102D1000B06D00F080500090009847F20007C4F2B8
:102D200000073868C00512D4386840F480703860F5
:102D3000FFF770FB054600BF3868C00507D4FFF7F2
:102D400069FB401B02284FF00300F5D92BE1A06876
:102D5000012808D0052840F00281D6F8900040F004
:102D60000400C6F89000D6F8900040F00100C6F8C4
:102D7000900002E1616AD6F89800002900F0DB803B
:102D800040F00100C6F89800FFF744FB054600BF7D
:102D9000D6F8980080073FF542AFFFF73BFB401B9A
:102DA00002284FF00300F3D9FDE0316801F0F00193
:102DB000884216D900F077FE002840F0F380306892
:102DC00040F0080030603068D4E9072120F0F000BE
:102DD00008433060706820F47F4040EA0220706051
:102DE00014E03168B8F1000F41F00801316031683A
:102DF00021F0F00141EA000131607168E26921F4DB
:102E00007F4141EA0221716000F0C780FFF70AFEAE
:102E1000B1684CF65C42C1F30311C0F60002515C8C
:102E200040F2142201F01F0120FA01F140F240208B
:102E3000C2F200000068C2F200021160FFF742FB1C
:102E4000002840F0B0805DE620F00100C6F8940054
:102E5000FFF7E0FA054600BFD6F8940080077FF53B
:102E6000D7AEFFF7D7FA401B02284FF00300F3D983
:102E700099E020F001003060FFF7CCFA054600BF72
:102E8000306880077FF53EAEFFF7C4FA401B02288A
:102E90004FF00300F4D986E0306840F0080030605D
:102EA0003068D4E9072120F0F000084330607068F2
:102EB00020F47F4040EA0220706023E6B8F10C0F56
:102EC00070D0306820F0807030603068000103D42A
:102ED000F06820F00300F060F0684FF6FF71CFF665
:102EE000EE610840F060FFF795FA04463068800113
:102EF00040F1EC80FFF78EFA001B03284FF003002F
:102F0000F4D350E0B8F10C0F4CD03068400149D4F4
:102F1000306820F080703060FFF77CFA054630683A
:102F2000800140F19680FFF775FA401B02284FF0B0
:102F30000300F4D937E020F00100C6F89800FFF74D
:102F400069FA0546D6F8980080077FF568AEFFF766
:102F500061FA401B02284FF00300F3D923E0D6F8B2
:102F60009010002821F00101C6F89010D6F89010BA
:102F700021F00401C6F8901042D0FFF74BFA054645
:102F800041F28837D6F8900080074AD4FFF742FA1A
:102F9000401BB842F6D9032005E000F084FD00286C
:102FA0003FF434AF012001B0BDE8F083316821F473
:102FB00080313160316821F480213160D0B3FFF776
:102FC00029FA0546306880033FF5EFADFFF722FA96
:102FD000401B64284FF00300F4D9E4E720F480702C
:102FE0003060FFF717FA0546306840057FF50DAEF3
:102FF000FFF710FA401B02284FF00300F4D9D2E784
:10300000FFF708FA054641F28837D6F890008007A6
:1030100007D5FFF7FFF9401BB8424FF00300F4D982
:10302000C1E7B9F1000F7FF4F6ADB06D20F080502C
:10303000B065F0E5FFF7EEF90546306880037FF5EF
:10304000B4ADFFF7E7F9401B64284FF00300F4D953
:10305000A9E7F06848F28C01C0F29D1104F12C0739
:1030600000EA010C8ECF6FF00F00D4E90F5400EB93
:1030700002100022CFF6E07241EA0C0102EB055289
:1030800008436FF314024FF07E4540EA032005EB3E
:103090000465104305F07E4540EAC7602843F060B0
:1030A000306840F080703060F06840F08070F06010
:1030B000FFF7B0F904463068800107D4FFF7AAF99A
:1030C000001B02284FF00300F5D96CE700206AE7E7
:1030D00070B504460079012804BF022070BD0120AC
:1030E00020716079012813D102200D466071FFF72D
:1030F00091F9064620684168C9070DD1FFF78AF9A2
:10310000801B0328F6D3012002216071A16009E031
:103110000420A060012005E08068E06028600120B4
:10312000607100200021217170BD0000B0B528B38E
:103130000446407920B900202071204600F025F88F
:10314000022060712068016841F00401016040685C
:10315000400611D4FFF75EF9054600BF20684068BD
:1031600040070DD5FFF756F9401B0328F6D304207E
:1031700060710220A06001E0042060710120B0BDF8
:10318000012060710020A060B0BD10B59CB0044665
:1031900002A804306421FDF718FB206840F6000106
:1031A000C5F20601884215D14FF48020029002A892
:1031B000FFF726FA08B1FEF74DFA41F24C00C4F2CF
:1031C0000200016841F480210160006800F4802061
:1031D000019001981CB010BD40F2E070C2F20000F6
:1031E000FFF727B940F2E070C2F20000FFF751B9D3
:1031F00040F62C00C2F20000FFF71BB940F62C008D
:10320000C2F20000FFF745B9806A0023D0E90E1230
:103210008B63936390F84110602918BFFFF740B9A2
:10322000202180F84110FFF702B910B590F8411045
:10323000036801F02801282919D19969D3F818E009
:103240009A68D3F80CC0C468C1F30041022C4FEA5D
:103250001E4E12D18EEAD21414F0060F17D01C683D
:103260000CF0FE0224F0B8041C6000230CE00821DE
:10327000D961002180F8401010BD1A6822F0B80210
:103280001A6000230EF0FE0280F8403010E0846CDB
:1032900001348464846C022C18BF10BD4FF0000C04
:1032A00008246FF39F22C0F848C0DC6180F840C05A
:1032B000BDE81040FFF7BCB810B50023044600225B
:1032C000CFF6FF7390F8410084F84220E3626285F4
:1032D000626C11436164A0F1280194F84100022955
:1032E0001BD800F02800282894F841004FF0F20184
:1032F00000F0280008BF4221282820684FF0B402BF
:1033000008BF04220368114323EA0101016043F26C
:10331000B151C0F6000128220DE094F84100206868
:10332000016821F0FE01016094F8411060294FF01E
:10333000000102D0202284F8412000222263616330
:1033400002680168520410D4090420D494F84100A2
:10335000602833D12020002184F84100204684F8E1
:103360004010BDE81040FFF762B821F480410160D1
:10337000A06B10B343F20921C0F600018163002164
:1033800084F84010FEF7B7FDB8B1A06B11E00168FA
:1033900021F400410160E06B78B143F20921C0F6ED
:1033A00000018163002184F84010FEF7A4FD20B1E4
:1033B000E06B816BBDE81040084710BD002120463E
:1033C00084F84010BDE81040FFF76AB80022CFF63D
:1033D000FF72C262002220234907026380F8413055
:1033E00080F84220426311D50168436A496A197026
:1033F000436A018D0133436241B101390185418D39
:1034000001394185416C41F00401416490F841105B
:1034100090F8411001680B6823F0FE030B60102345
:10342000CB6180F84020FFF73CB8B0B50446006897
:1034300020230268C36194F8413094F84130036856
:103440004EF6000523F0FE0303604368CFF60065E7
:1034500043F40043436043682B40436083690D4657
:103460009B0744BF002181628169C90703D181693B
:1034700041F001018161510403D4110406D5E16BCF
:1034800000E0A16B11B109684968618569070ED533
:10349000406A616A25F004050870606A411C208D4D
:1034A000616220B101382085608D01386085608DB2
:1034B00018B1606C40F0040060640020206384F860
:1034C00042006063606C70B1616C2046FFF7F4FEEF
:1034D00094F84100282818BFB0BD20462946BDE811
:1034E000B040FFF773BFE06A10F5803F0ED194F84B
:1034F0004100202184F8411000212228204684F830
:10350000401015D1BDE8B040FEF7CCBF00252046E5
:10351000CFF6FF7500F010F820200021E56284F856
:103520004100204684F84010BDE8B040FEF7B9BF26
:10353000BDE8B040FEF7B7BF4FF0000C80F842C0C6
:1035400090F84120292A16D1282280F841202122F2
:10355000026390F84120016802F02802282A0A68D4
:103560006FF0F20308BF6FF042031A400A6080F860
:1035700040C0FEF798BF90F841102A2918BF704745
:10358000282180F841102221016390F8411003683E
:1035900001F02801282919686FF0F40208BF6FF0C4
:1035A000440211401960002180F84010FEF77ABFF4
:1035B000F0B581B00446C66A90F84000012801D1F8
:1035C00002207AE002EA01070D460120B90684F8DC
:1035D000400003D520462946FFF727FFF80615D4FB
:1035E000780725D438075DD4B80763D5608D0028E7
:1035F00065D0606A216810F8012B8A626062608D74
:1036000001386085208D0138208553E0608D48B3F6
:1036100020681021C161606C6FF080710E4240F033
:103620000400606446D1616C2046FFF745FE41E02E
:10363000608D60B12068616A406A0870606A218D9F
:1036400001306062481E2085608D01386085608D84
:1036500080BB0020CFF6FF7086422BD02046FFF7BC
:103660006BFF27E094F84100282808BFB6F1007FDF
:103670001CD094F84110206810222929C26119D168
:103680000021CFF6FF718E4214D08169890744BFB3
:10369000002181628169C907E0D1816941F001019E
:1036A0008161DBE72046FFF7C0FD03E020462946A5
:1036B000FFF78CFE002084F8400001B0F0BD6FF0F1
:1036C00080700642F6D1C9E710B540F2146046F2A8
:1036D0000041C2F20000C4F2000140F200140A22CC
:1036E0000023C0F2011480E80E0000F10C014FF439
:1036F000803C4FF4800E81E8085084618383FEF79C
:1037000081FA18B1BDE81040FDF7A4BF10BD80B527
:1037100082B041F24800C4F202000168002241F088
:1037200001010160016801F0010101910199016845
:1037300041F0020101600068002100F002000090E9
:1037400000980B20FEF7D7FE0B20FEF7C5FE0E20DB
:1037500000210022FEF7CFFE0E20FEF7BDFE0F2057
:1037600000210022FEF7C7FE0F20FEF7B5FE102055
:1037700000210022FEF7BFFE1020FEF7ADFE112053
:1037800000210022FEF7B7FE1120FEF7A5FE44201F
:1037900000210022FEF7AFFE4420FEF79DFE4520EB
:1037A00000210022FEF7A7FE452002B0BDE88040C0
:1037B000FEF792BE2DE9F04F87B0002741F24C0092
:1037C000CDE90577C4F20200016840F2004B41F0F8
:1037D000040101600168C4F6000B01F004010191CD
:1037E000019901680BF5806541F0020101600168F3
:1037F000002201F0020101910199016843F2F03ABF
:1038000041F001010160016801F00101019101999C
:10381000016841F080010160016801F080010191BF
:103820000199016841F008010160006843F2F0313C
:1038300000F00800019001982846FEF7E5FD4FF0E2
:1038400090404FF4006100224FF40069FEF7DCFD68
:10385000584648F60301002248F60308FEF7D4FD57
:103860004FF4484002AE0290032428463146CDE989
:103870000347FEF7F1FCCDF808A04FF0010A2846F7
:103880003146CDE903A70597FEF7E6FC41F23C007F
:1038900002A991C158463146FEF7DEFC49F2F0100C
:1038A00002A991C14FF090403146FEF7D5FC0B20A4
:1038B00002A991C10BF5C0503146FEF7CDFC0420A2
:1038C00002A991C10BF500603146FEF7C5FC4FF42B
:1038D000806002900020C1F21100CDE90307284664
:1038E0003146FEF7B9FC4FF090403146CDE9029ADF
:1038F000CDE90477FEF7B0FC58463146CDE9028A9F
:10390000CDE90477FEF7A8FC4FF40050CDE902079B
:10391000584631460497FEF79FFC07B000F000B808
:1039200030BCBDE8C08F80B540F6780040F600019D
:10393000C2F20000C5F206010160FFF7F7FB18B103
:10394000BDE88040FDF786BE80BD0000F0B581B0C7
:1039500041F20007C4F20207FA680D4691070446D7
:1039600013D0F868216800F0030088424FF001008E
:1039700040F09780002900F09480F8686168C0F3F7
:103980000210013088422FD130E0206803280BD08C
:10399000022814D0012827D13968012211F0020130
:1039A00082EA510114D11EE0396889030FD43968C5
:1039B000012211F4802182EA914109D113E0396892
:1039C000012211F4806182EA912101D10BE00021F2
:1039D000FA68636822F073026FF00F0606EB0313B8
:1039E00010431843F86009B101205AE0386820F00C
:1039F00080603860FEF70EFD064600BF38680001A3
:103A000005D5FEF707FD801B0228F7D942E0012DFE
:103A10000DD0F5B9386948F2FF01C0F2FF710840D6
:103A2000D4E9021240EA012040EAC26022E048F2F2
:103A3000FF013869CFF6FF112269002301F1B4615B
:103A4000CFF6E0730840A16803EB02526FF3140253
:103A50000DE0386948F2FF016269CFF6FF114FF0BF
:103A60007E430840A16803EB026202F07E4240EA16
:103A7000012010433861386840F080603860FEF7FC
:103A8000C9FC05463868000106D4FEF7C3FC401B9C
:103A90000228F7D9032004E0A06939690843386196
:103AA000002001B0F0BDB0B582B041F25805C4F2BB
:103AB000020529680446C9000FD4286840F08050E8
:103AC0002860286800F0805001900198FEF790FD72
:103AD000296821F08051296001E0FEF789FDB0F5E9
:103AE000007F06D1812C08D30120A02C88BF0220A2
:103AF0000DE0802C03D9032009E0002007E0A4F1A9
:103B00007000B0FA80F04009802C08BF022042F219
:103B10000001C4F202010A6822F0070202440A60AE
:103B2000096801F00701081A18BF012002B0B0BDF2
:103B30004EF60850CEF20000D0F880104FF0000C86
:103B400041F47001C0F8801041F20001C4F202019A
:103B50000A6842F001020A60C1F808C00B684FF61B
:103B6000FF72CEF6F6221A400A604FF48052CA6005
:103B70000A6822F480220A60C1F818C04FF0006180
:103B80000160704740F68800C2F2000000680169D9
:103B9000C9071FBFC1685FEAC1716FF00101016110
:103BA000704740F6C800C2F2000000680169C9070A
:103BB0001FBFC1685FEAC1716FF001010161704709
:103BC00040F60810C2F2000000680169C9071FBF73
:103BD000C1685FEAC1716FF001010161704740F295
:103BE000F03040F64051C2F20000C0F20301002361
:103BF000C0E9001340F2F83147F6C12040F200025C
:103C0000C2F20001C0F60000C0F60002C1E90033B4
:103C10008B60FCF7AEBD000080B540F2D44C0020B4
:103C2000C2F2000C4FF47A7E012300210CEB01025A
:103C30001431B1F5A07FC2F804E01372D0601061B6
:103C4000F4D180BD80B540F2BC41C2F20001002039
:103C50000A4642F8040F88600A6047F62F2040F2B7
:103C60000002C0F60000C0F60002FCF782FD43F639
:103C7000B140C0F60000BDE8804006F097B9016889
:103C80000969084701680969084700004EF60C50A9
:103C9000BFF34F8FCEF200000168042201F4E0610F
:103CA000C0F2FA5211430160BFF34F8F00BFFDE72E
:103CB00088B00020079010461546FCF75FFD10F114
:103CC000100F4BD204460B2804D201AE8DF80F40E2
:103CD0006CB911E004F1100020F00F07384605F030
:103CE000EBFE0646019047F00040CDE90240304629
:103CF00029462246FCF7FAFE002519A201A8002158
:103D0000355503F032FD90E80E000DF1100C8CE8F3
:103D10000E0040F20841C2F20001096805604560EA
:103D2000856009B104A888479DF91B00B0F1FF3FE9
:103D300005DC0699049821F0004103F0D3FE9DF9BB
:103D40000F00B0F1FF3F05DC0399019821F000411D
:103D500003F0C8FE079801300790FBE7FCF7FEFC74
:103D60006F73616C5F696E69745F7072655F6D61BE
:103D7000696E5F743A3A6F6E5F666174616C282990
:103D8000202D3E2000000000F0B581B0044690F8E0
:103D9000200010B9204600F02CF8FEF745FA606AC2
:103DA000C5081CD0A0690026C0020027B0F5802FEE
:103DB00038BF00F1006700BF2068B91988420AD8EF
:103DC00062681044884206D32069831982595B686F
:103DD0000020FEF7AFF9013D06F10806ECD1FEF731
:103DE00098F900900098009001B0BDE8F040FEF70F
:103DF00096B9B0B586B0044690F8200038BBD4E937
:103E00000001802300F1784201446FF31100B0F10A
:103E1000006F4FF0800008BFD00A01F178426FF3C5
:103E20001101B1F1006F08BFD30A191A0022012550
:103E30000292CDE9035005910192FEF7F5F902A82F
:103E400001A9FEF7D1F8FEF76AF984F8205006B010
:103E5000B0BD4068806870474268002093688B421C
:103E600088BF7047D2681A448A4228BF0120704731
:103E7000F0B581B0074600681546426838461C46D2
:103E80000E46904780B13868A91942683846904775
:103E900001464FF0000044B139B1204631462A4670
:103EA000FCF769FE012000E0002001B0F0BD70B514
:103EB000044600681546426820460E46904720B1E9
:103EC0002068A919426820469047002070BD000074
:103ED000F0B581B0044600681646426820461D468B
:103EE0000F469047E8B32068F11942682046904792
:103EF00001464FF00000ADB3A1B3D4E900C00368A0
:103F0000D0E90212DCF818C02046E04748B36068E8
:103F1000324681680068791A21F007010844294671
:103F2000FCF729FE2068016920468847FEF77CF9E6
:103F30006168C868C60817D08D680020002700BFD8
:103F4000096801EBC00351F830205B680020294666
:103F5000FEF7F0F80137B8B2864205D96168083536
:103F6000EEE7002001B0F0BDFEF7D3F80090009816
:103F70000090FEF7D4F80120F4E74068C06870476D
:103F800080B586B001224068039240680021CDE9E7
:103F90000402CDE90111FEF747F902A801A9FEF7D5
:103FA00023F8FEF7BCF8012006B080BD0120704761
:103FB00080B500F005F80821BDE8804003F092BD0F
:103FC000B0B504464CF694306568C0F60000083081
:103FD00020604DB1287C18B9286808B103F07BFD3A
:103FE0002846142103F07EFD2046B0BD80B590F92F
:103FF0000B200168002A58BF014641B30B7840F6F8
:10400000006CCEF2000C4FF00100B3B14FF0604EE7
:10401000DCF88020D2070BD0DCF80020D20707D0D4
:10402000DEF8002012B900BFFAE700BF8EF80030BA
:1040300011F8013F0130002BEAD1DCF88010C907EC
:104040001CBFDCF800105FEAC17102D180BD002006
:1040500080BD4FF0604100BF0A680AB900BFFBE7AE
:104060000A220A7080BD80B540F28410C2F20000BE
:10407000006880474FF47A720023FCF74EFA80BD47
:10408000B0B540F2C411C2F20001CC690546204629
:10409000002107222B4600F028F9204602210222A7
:1040A0002B4600F022F92046042100222B46BDE8D1
:1040B000B04000F01AB900002DE9F0418CB040F298
:1040C000C41104460020C2F2000100BF34B100EB6D
:1040D000800201EBC207FA69A24206D0C0074FF086
:1040E0000100F3D00CB0BDE8F08140F2CC41C2F247
:1040F0000001096821FA00F0C007F3D00020CDE9E3
:104100000300CDE9010001A805AE00F10805304625
:104110001C21FCF75AFB2046002132462B46FDF7B6
:10412000E5FB059809993D4655F8246F01908DF8F7
:104130000810D6E9004015F8231C021BB1EB221F22
:104140000FD804F11001B0EB0108324604D020462C
:104150004246FDF74AF82A6804EB08007060506890
:104160001646B168884204D001AD2ECD2EC07060D5
:104170003CE03168401A012101EB2011B1F1805F70
:104180003BD24FF6F075B1EBE00FC7F6FF754FEA83
:10419000201206F1080398BFC110A84205A828BF45
:1041A0006FF0704103F044FB01AD07982ECD2EC097
:1041B000079800F110030793D6E9001506986A1ACC
:1041C000801A012A069005DBFCF790FCDDE9060366
:1041D000D6E9001530600691736007950898B268BB
:1041E000B06005A80892059103F03CFB79690029AD
:1041F0003FF478AFB869884774E7FCF7AFFA00007E
:104200002DE9F0418CB040F2C41104460020C2F206
:10421000000100BF44B100EB800201EBC2052F4654
:1042200057F81C2FA24206D0C0074FF00100F1D072
:104230000CB0BDE8F08140F2CC41C2F20001096847
:1042400021FA00F0C007F3D0696809B1A86888476F
:104250002E6AD6E90001884230D0D0E90012D0E9B8
:104260000203CDE90112CDE90303D6E9005005F1BF
:104270001001B0EB010803D028464246FCF7B5FF19
:1042800005EB0800706038680121FDF743FA06ADC0
:10429000281D1421FCF799FA01989DF808106FF376
:1042A000DF2006900020059001A80A9100F1080285
:1042B00005AB20462946FDF740FAB9E701208DF805
:1042C000180038680168496901F001018DF818107B
:1042D0000121FDF7F8FA9DF81800E9680029A7D038
:1042E00028690CB0BDE8F04108472DE9F0418AB0DB
:1042F000804603F00F00540344EA40100D460126A7
:1043000000900027059169464046CDE90666CDE953
:104310000177CDE90377CDE90867FDF760FA68B961
:1043200044F4F070CDE90007681C059069464046EA
:10433000CDE9027708960997FDF751FA0AB0BDE872
:10434000F08140F2D041C2F200010968C140C907C2
:1043500008BF70474CF63841C0F6000101EB800001
:104360004168881C497800F052B8FFF78FFC81B093
:1043700041F24C00C4F20200016841F00101016009
:10438000006800F001000090009801B0704781B013
:1043900041F24C00C4F20200016841F002010160E8
:1043A000006800F002000090009801B0704781B0F2
:1043B00041F24C00C4F20200016841F004010160C6
:1043C000006800F004000090009801B0704781B0D0
:1043D00041F24C00C4F20200016841F008010160A2
:1043E000006800F008000090009801B0704781B0AC
:1043F00041F24C00C4F20200016841F0100101607A
:10440000006800F010000090009801B0704780B57F
:104410000388D8B20A281AD88E4613F4704116D1F0
:104420004CF6C43CC0F6000C190A3CF810300122CE
:1044300002FA01F1194208BF80BD0CEB80008069CF
:1044400028B189B27246BDE88040FDF7DDBF80BD6E
:10445000002070470020704700207047704780B5EB
:104460004068426808461146032205F043FBB0FA53
:1044700080F0400980BD0020704710B504464CF61E
:104480006420C0F600000830206060680021616090
:1044900010B1082103F026FB20460821BDE810409A
:1044A00003F020BB10B504464CF66420C0F60000B3
:1044B0000830206060680021616010B1082103F0BD
:1044C00011FB204610BD00207047002070470020DF
:1044D00070477047002070470020704710B50446B1
:1044E0004CF63020C0F600000830206060680021E3
:1044F000616010B1082103F0F5FA20460821BDE8FB
:10450000104003F0EFBA10B504464CF63020C0F668
:1045100000000830206060680021616010B108214F
:1045200003F0E0FA204610BD10B501200C4681F8DA
:10453000300000F06BFB00682168806820B10268E1
:1045400093690022984702E0084600F073FEE06994
:10455000012817D1D4E90A1001308842E06211D352
:10456000606A0121012884F831100BD160680321B1
:1045700005F0A4FF94F83100002818BF10BD0020FA
:104580006062208610BD002070470020704780B513
:1045900040688172026A4068117205F0C9FEB0FA83
:1045A00080F0400980BD00F001F870470446406883
:1045B000D0E90325D0E9066712B120462946904785
:1045C000304605F07BFA014620462A46B847F7E711
:1045D00080B54068426808461146032205F08AFA11
:1045E000B0FA80F0400980BD0020704780B500F02F
:1045F00005F80821BDE8804003F074BAB0B5044660
:104600004CF698206568C0F60000083020608DB137
:10461000686830B100F052FC686805F05FFD00206A
:104620006860286A10B10C2103F05CFA2846242146
:1046300003F058FA2046B0BD10B540F27040C2F207
:104640000000007840F26C44C007C2F20004BFF3DF
:104650005F8F01D0206810BD40F27040C2F20000B0
:1046600003F078FB0028F5D0042005F025FA00F0CF
:1046700089F9206040F27040C2F2000003F09AFB1A
:10468000E8E70000FFF7D8FF044640F25840C2F2C6
:104690000000007840F25446C007C2F20006BFF3A3
:1046A0005F8F1BD020683468D0E90675466A032006
:1046B00005F054FD6168486060682146406800F07C
:1046C000C1FB60680121017017B120462946B84737
:1046D000002EFDD020462946B047F9E740F2584069
:1046E000C2F2000003F036FB0028DBD0082005F002
:1046F000E3F905464CF66420C0F600000830286057
:10470000082005F0D9F90021C0E90011686040F2E5
:104710005840C2F20000356003F04CFBC2E782B0A3
:104720000446D1E900CED1E90235D1E90420C4E93B
:104730000235C4E90420C4E900CED1E906C2D1E9BA
:104740000835D1E90A01C4E90835C4E90A01C4E918
:1047500006C225462268A188B4F814C055F83C0F5B
:1047600000230091CDF804C000F043FB284600F080
:104770001AFB012084F8300000F030FBB0B540F2A5
:104780005040C2F20000007840F24C45C007C2F22F
:104790000005BFF35F8F18D02C68032005F0DEFC06
:1047A0006168486060682146406800F04BFB6068C3
:1047B00001250570FFF740FF0068826812B1C168EB
:1047C0002046904760684570B0BD40F25040C2F24C
:1047D000000003F0BFFA0028DED0082005F06CF9D5
:1047E00004464CF63020C0F6000008302060082057
:1047F00005F062F90021C0E90011606040F250400C
:10480000C2F200002C6003F0D5FAC5E72DE9F041B3
:104810008CB015460F460646FFF70EFF804600682F
:10482000002E4763856300F0948040F2BC40C2F2E2
:1048300000004168E1B1021D104600BF0B69B342A0
:104840002CBF0846043109680029F7D190420FD0E7
:104850000169B1420CD8466956B13068C16830462A
:10486000884728B13068C16830468847064603E06B
:104870004CF6AB46C0F60006202005F01DF90746B1
:1048800000902020C8F2000002901020019035A175
:1048900038461022FCF72AF90024684631463C7459
:1048A00002F01DFF90E80E000DF10C0C8CE80E00DC
:1048B000C0E90044846030A103A802F010FF90E832
:1048C0000E000DF1180C8CE80E00C0E90044846065
:1048D00006A8294602F003FF90E80E000DF1240C13
:1048E0008CE80E0040F20841C2F200010968046041
:1048F0004460846009B109A888479DF92F00B0F190
:10490000FF3F05DC0B99099821F0004103F0EAF81C
:104910009DF92300B0F1FF3F05DC0899069821F0CE
:10492000004103F0DFF89DF91700B0F1FF3F05DC0F
:104930000599039821F0004103F0D4F89DF90B008C
:10494000B0F1FF3F05DC0299009821F0004103F02F
:10495000C9F8D8F80000816A09B1C06A88470CB06C
:10496000BDE8F08166726F6D206F733A3A546872D9
:104970006561642000000000202D3E200000000042
:10498000FFF7CDFE2DE9F041002480460460402071
:1049900005F092F805464FF47A7040F20011C0F22B
:1049A000080185E813004FF480706C61A88208202C
:1049B000A87505F118001921C5E90344C5E90D449E
:1049C000FBF703FF3C2005F077F806468461047787
:1049D00000F1280704301121FBF7F7FE38461421B7
:1049E000C6F82240C6F81E40FBF7EFFE284640F806
:1049F0003C6F3060D8F8006085F83040C8F800504F
:104A000046B1F06B10B13C2103F06CF83046402108
:104A100003F068F84046BDE8F08180B540680323A4
:104A2000806805F0A3F9B0FA80F0400980BD00204D
:104A3000704780B540688173826A4068117205F0E2
:104A400077FCB0FA80F0400980BD00F001F87047B3
:104A500080464068D0E904268568C769446A1AB16F
:104A600040463146904700BF28463946032205F0AC
:104A7000D9F8014640463246A047F5E70020704786
:104A80000020704780B500F005F80821BDE880409F
:104A900003F028B8B0B504464CF6CC206568C0F6E3
:104AA000000008302060BDB1686830B100F006FA3F
:104AB000686805F013FB00206860A86818B105F06D
:104AC00077F80020A860A86A10B10C2103F00AF85A
:104AD00028462C2103F006F82046B0BD0020704780
:104AE00070B50D46096881B1406803238668144695
:104AF000306805F03BF9706869682246032305F0C9
:104B000035F9B0FA80F0400970BD002070BD80B565
:104B100040688173826A4068117205F009FCB0FA3E
:104B200080F0400980BD00F001F8704782B08146F6
:104B3000406844F62B358468D0E9042AC669406A87
:104B4000C0F60005002818BF05460020019000901F
:104B500012B1484651469047E84600BF20683146AA
:104B6000032205F05FF861680746084631460322D4
:104B700005F058F80190009707B1B84748464146FC
:104B80005246A847EAE7002070470020704780B5EA
:104B900000F005F80821BDE8804002F0A3BF70B521
:104BA00004464CF600306568C0F60000083020600E
:104BB00055B3686830B100F081F9686805F08EFA85
:104BC00000206860AE68B6B1B0684FF0FF3105F004
:104BD000BFF9306804F0ECFF706804F0E9FFB068DA
:104BE00005F094F9B06805F0EDF830460C2102F0BC
:104BF00079FF0020A860A86A10B10C2102F072FFB2
:104C000028462C2102F06EFF204670BDB0B540F260
:104C10007840C2F20000007840F27445C007C2F24A
:104C20000005BFF35F8F01D02868B0BD40F2784027
:104C3000C2F2000003F08EF80028F5D0042004F042
:104C40003BFF04460C2004F037FF3221C0F2004144
:104C500001600821818000218160206040F278405D
:104C6000C2F200002C6003F0A5F8DDE7002914BFB4
:104C70000846704700F0DEBAB0B540F26040C2F2BC
:104C80000000007840F25C45C007C2F20005BFF3A7
:104C90005F8F01D02868B0BD40F26040C2F20000D2
:104CA00003F058F80028F5D0042004F005FF04466E
:104CB0000C2004F001FF31220821C0F20042002341
:104CC000C0E900218360206040F26040C2F2000031
:104CD0002C6003F06FF8DDE770B582B040F2484415
:104CE000C2F20004217800295BD1D0E900121143FF
:104CF00057D00189002954D0817A002951D0018BE5
:104D000000294ED0817E00294BD0D0E900CED0E9D9
:104D10000235D0E9041240F28816C2F20006C6E954
:104D20000412C6E90235C6E900CED0E90835D0E95B
:104D300006CED0E90A21C6E9083540F2C845C2F2DC
:104D40000005C6E90A21C6E906CE2978006B306362
:104D500029BB40F20540C2F20000017899B940F247
:104D6000841145F22F32C2F20001C0F600020A603F
:104D700040F2084143F6ED72C2F20001C0F60002B3
:104D80000A60012101700020009044F26700C0F623
:104D900000000190684602F0BBFF0120287001204E
:104DA000207002B070BD70B582B004460068002665
:104DB000051D01A92846019604F024FE019810B1B2
:104DC00004F07AFE06462846314604F085FC40F29F
:104DD000B840C2F20000046002B070BD40F2B840BA
:104DE000C2F20000006818B10068806B05F0E6B8F8
:104DF0007047F0B581B00546DDE9067614301C2118
:104E00001446FBF7E2FC40F2011040F21421C0F21C
:104E10000F10C2F200012A1D096813C244F60D00EA
:104E2000C0F6000044F2856144F27D7205F1300362
:104E30002F826E82C0F60001C0F6000207C301B0E7
:104E4000F0BD00002DE9F04140F2BC46C2F2000680
:104E5000374657F8044F8846054684B1371D00BFD2
:104E60002069A84204D92068274630B909E000BF6C
:104E700008D2274657F8040F20B10446F0E73C4615
:104E800000E02746386808B1BDE8F081182004F03A
:104E900013FE0146C0E904580020C1E900008C60FF
:104EA00039603068006808B130603968706802F0B5
:104EB00023FDB0680130B060BDE8F081F0B540F28C
:104EC000BC43C2F200035F688FB11C1D014620463F
:104ED0003A4600BF15698D422CBF10460432126855
:104EE000002AF7D1A04202D002698A4200D9F0BD5F
:104EF000416831B10A4600BF14461268002AFBD14E
:104F00000DE0024652F8084F2568854207D000BFE1
:104F100015682A4652F8084F2668AE42F8D11A683A
:104F2000824208BF1C609A68D0F800C0013ABCF108
:104F3000000F9A6005D079B10B4609680029FBD1B2
:104F400000E00346D3F804C0BCF1000F05D14FF0D8
:104F5000000C4FF0010E05E0034699684FF0000E7B
:104F6000CCF808109A681168994202D0C2F804C0BF
:104F700007E0BB42C2F800C001D0516801E0002147
:104F800067461C7B834214D082689A6085682D68CE
:104F90002D1A18BF012542F82530D0E900521D60B6
:104FA000AB605A6002B19360027B87421A7308BFFC
:104FB0001F46002C00F0DA80002F00F0D780BEF1F1
:104FC000000F68D04FF0010C4FF0000E8B680A7B89
:104FD0001C688C422CD0CAB95C6881F80CC022686D
:104FE00083F80CE05A6002B193609A68A2609A68F4
:104FF000154655F8046B9E4208BF15462C60236089
:105000000A68974208BF0F4651689C600B6813B14D
:105010001A7B002A47D04C6814B1227B002A5CD04E
:105020008B6881F80CE0BB4239D0197B51BB37E06B
:10503000BAB94A6881F80CC083F80CE01A6002B172
:1050400093609A688A609A68144654F8045B9D429B
:1050500008BF144621604B6099609F4208BF0F460D
:1050600019680C6814B1227B002A67D04B6813B111
:105070001A7B002A49D08B6881F80CE0197B79B142
:10508000BB420DD099680A4652F8044B9C4218BFA7
:105090000A4611689AE701218CF80C1066E03B463D
:1050A0000121197362E04C680CB1227BAAB1012284
:1050B0001A735A6800270F730A6002B191608A68F8
:1050C0000C469A608F683A4652F8046B8E4208BFCD
:1050D0003A46136059608B6000E00B4699680127DF
:1050E0000A7B1A734A680F73136827734B6003B106
:1050F00099608B6893608F683B4653F8046B8E42CF
:1051000008BF3B461A6011602FE00CB1227BAAB1A8
:1051100001221A731A6800270F734A6002B1916066
:105120008A680C469A608F683A4652F8046B8E4241
:1051300008BF3A46136019608B6000E00B4699681F
:1051400001270A7B1A730A680F73536827730B6071
:1051500003B199608B6893608F683B4653F8046B8A
:105160008E4208BF3B461A6051608A601821BDE834
:10517000F04002F0B7BC10B50446406A012803D1E4
:105180006068032105F09AF994F8310000B110BD70
:1051900000206062208610BDB0B586B00D4609685B
:1051A000002944D00446281D02F0F0F900283ED022
:1051B0006869012801D1A869C8B3606A012836D09E
:1051C000D5E900CED5E90223D5E90401C4E90423D9
:1051D000C4E90601C4E902CEA8690025206284F86A
:1051E0003050002918BF01218DF8141044F22951C4
:1051F00060684FF0FF32C0F60001CDE90222CDE930
:10520000001402A96A460323CDF810C005F00AF97C
:1052100008B1656208E0D4E907120120012904F110
:10522000240118BF2A4625C1002084F8310006B0A9
:10523000B0BD000070B504460068066896F83000FE
:1052400000285BD006F10C05284602F09FF90028E3
:105250004AD028680138032846D8DFE800F0021257
:105260002030706900283FD03169E9B301680968CE
:105270008847012838D170693169026852699047BE
:1052800032E0706980B3316971B301680968884799
:10529000032829D170693169026893691CE0354699
:1052A00055F8101F01B3B069E0B10168096888477B
:1052B000042815D1B06901680B6A29460CE07069B1
:1052C00090B1316981B101680968884706280BD11E
:1052D000706931690268D3694FF0FF32984703E083
:1052E000296809B17069884720680021006890F832
:1052F000312080F830100AB14162018670BD70B56E
:105300000446042004F0D8FB0546342004F0D4FB06
:10531000064608302821FBF758FA00203460308612
:1053200005F030F8706020462E60256070BD80B5B5
:1053300004F0ECFB022803D1BDE8804004F03CBE41
:105340000020002180BD10B540F28040C2F2000074
:10535000007840F27C44C007C2F20004BFF35F8FC4
:1053600001D0206810BD40F28040C2F2000002F07F
:10537000F1FC0028F5D0042004F09EFB00F032FA86
:10538000206040F28040C2F2000002F013FDE8E726
:1053900070B58EB00C4605460020FE2101AE8DF89A
:1053A0000400ADF8080003918DF8100005908DF809
:1053B000180006F118001121FBF707FA32208DF8CA
:1053C0003400304621460C9502F024F821686FF035
:1053D0000203C1F302229DF83400062A08BF6FF0D1
:1053E000010253FA82F3042B02D3D2B2012A0FD165
:1053F00001F00F01884204D1059800788DF82C0047
:1054000001E09DF82C00002100F00CF80EB070BDFA
:1054100001F4E062217AB2F5E06F18BF01F07F017C
:10542000E8E700002DE9F04F8DB00E46054600F08C
:1054300005FC01AF804638463021FBF7C6F9D8F8A5
:1054400000103B464868C968026894693022A0474A
:105450009DF80890D8F80000FF2D80F800903BD010
:10546000002D5AD00F2D58D0A94556D02846FEF70A
:1054700007FE01AE30463021FBF7A7F9D8F800103F
:1054800033464868C968026897693022B8478DF882
:105490000850D8F8001033464868C9680268D769D0
:1054A0003022B84720B19DF80800D8F800100870E5
:1054B00001AD28463021FBF788F9D8F800102B46BB
:1054C0004868C968026897693022B8479DF80800A3
:1054D000D8F80010087020E048F2010046EA000405
:1054E0004FF6FF70844218D040F6780B4FF0000A58
:1054F000C2F2000B01AF002658463946CDF804A091
:10550000FDF7E6FD019800F00F0524FA05F0C0074D
:10551000A6D0F82E06F10106EED90DB000F000B8C5
:1055200030BCBDE8C08F70B590B00D460446002079
:10553000FE216E468DF80000ADF8040002918DF852
:105540000C0004908DF8140006F118001121FBF7EF
:105550003CF93046294601F05DFF28686FF00202F1
:10556000C0F30221062908BF6FF0010152FA81F24F
:10557000042A73D200F00F0010B19DF8280006E055
:1055800004980078002818BF01208DF82800A16B2E
:1055900084F825000868FEF72CFC00F04FFB00F0B3
:1055A00072FB54F8281F9DF8042021F0FF0100F041
:1055B0000F0041EA001002F00F01084440F4E060DF
:1055C00040F2F83520600020C2F200052072D5E9D3
:1055D000010201219042217104D094E84E004EC096
:1055E000686039E02A68801A01EB2011B1F1805F10
:1055F00040D24FF6F073B1EBE00FC7F6FF734FEAFE
:10560000201298BFC11098420BA828BF6FF07041BC
:1056100002F03DF90D9894E84E004EC0D5E9001611
:10562000DDE90C40721A00F11003A01A012A0D9353
:105630000C9005DBFBF75AFADDE90C03D5E90016FF
:1056400028600E98AA68A8600BA80C916B600D9654
:105650000E920B9102F03AF910B070BDC9B2012957
:1056600088D000F4E061287AB1F5E06F18BF00F04F
:105670007F0081E7FBF772F82DE9F0439DB00D46FE
:1056800004460020FE210DAE8DF83400ADF8380040
:105690000F918DF8400011908DF8480006F1180028
:1056A0001121FBF792F83046294601F0B3FE00F0D5
:1056B000C5FA01AE054630463021FBF786F8296869
:1056C00033464868C968026897693022B84720683D
:1056D0009DF80980012807D19DF82C909DF82D6038
:1056E0009DF82E70042505E09DF80A909DF80B604A
:1056F000FF27032500F0A2FA00F0C5FA54F8281F8E
:1057000000228DF86620ADF864209DF8382021F045
:10571000FF0100F00F0041EA001002F00F01084401
:1057200040F4E0602060FF20207204F1090018A915
:105730002A468DF860808DF861908DF862608DF852
:105740006370FBF7D3F940F2F836C2F20006D6E9EF
:1057500001016A1C8842227104D094E88E008EC038
:1057600070603AE03168401A012101EB2011B1F17B
:10577000805F35D24FF6F073B1EBE00FC7F6FF73E1
:105780004FEA201298BFC110984218A828BF6FF0A6
:10579000704102F07CF81A9894E88E008EC0D6E929
:1057A0000017DDE919507A1A00F11003A81A012A2E
:1057B0001A93199005DBFBF799F9DDE91903D6E98E
:1057C000001730601B98B268B06018A81991736018
:1057D0001A971B92189102F079F81DB0BDE8F0837A
:1057E000FAF7BCFF10B504463C2004F065F901232C
:1057F00000214FF0FF328381FE234FF07F4C4FF0AA
:10580000FF0EC0E9001281600361C0F814C0C0F847
:1058100018E0026201778184C0E90A11C0E90C1125
:105820008163206001F0C0FD204610BDB0B540F29C
:105830008840C2F20000007840F28444C007C2F2FF
:105840000004BFF35F8F01D02068B0BD40F28840F4
:10585000C2F2000002F07EFA0028F5D040F22040AB
:1058600044F6403240F21845C2F200000021C0F276
:105870004C02C2F20005C0E90011C0E90221016139
:10588000286001F091FD40F28840C2F200002560DE
:1058900002F090FAD8E7704701F086FD40F2000070
:1058A00045F27861C2F20000C1F2342101600121A9
:1058B000416044F20001C0F601018160FEF755FD30
:1058C0002DE9F04387B0FFF7B1FF8046FFF79EF95F
:1058D000054600688068D0B3FFF7CEF9054600683A
:1058E0008168002900F0AB80042004F0E5F8FFF7A0
:1058F00006FDD8F8002045F69907002102F10C0CAE
:105900000323C0F600078CE88900C2E90611D8F825
:105910000000826892B100F10C0700928CCFD0E9B0
:1059200006600591CDE9036010680691006869463C
:10593000CDE90137FFF730FCD8F8000001680029F5
:1059400000F00381406807B0BDE8F0430847082035
:105950004FF0080904F0B0F806464CF6CC20C0F62B
:105960000000083030602C2004F0A6F80024074620
:10597000C0E9004484604020B88175A04FF0FF3139
:10598000C7E90601022087F8200044F64F20C0F640
:10599000000078620C2087F80E90C7E9044404F0F8
:1059A0008BF80121C0E9004401724181B862C7E966
:1059B0000064BC6077602868866029688888020671
:1059C0008AD04A88002A87D00B78002B3FF484AF16
:1059D0008E684FF0FF37716881F8200044F66D4003
:1059E0008A818B7300225DA3C0F60000CA73C1E9EF
:1059F0000425C1E90637A1F8212081F82320486257
:105A000071688889073020F0070291F820008A81A8
:105A100004F036F9716888608A7B8B89886A43F65E
:105A20008541C0F60001C0E900160272438104F00E
:105A300076FC716848603146FFF704FA4CE7312183
:105A4000C0F200414FF008090160A0F8049008205E
:105A500004F032F806464CF60030C0F6000008307C
:105A600030602C2004F028F800240746C0E90044E8
:105A700084604020B8813BA04FF0FF31C7E90601A8
:105A8000022087F8200044F62B30C0F60000786230
:105A90000C2087F80E90C7E9044404F00DF80121AA
:105AA000C0E9004401724181B862C7E90064BC608A
:105AB00077602868866029680D79002D3FF414AF5F
:105AC000488800283FF410AF0A78002A3FF40CAF52
:105AD000896807304F6820F00700BA73002424A1BA
