:020000040800F2
:1000000090BC0020350400083D0400083F040008AF
:1000100041040008430400084504000800000000F3
:10002000000000000000000000000000ED020008D9
:100030004904000800000000A503000809040008A6
:100040004F0400084F0400084F0400084F04000844
:100050004F0400084F0400084F0400084F04000834
:100060004F0400084F0400084F040008331800082C
:100070004F0400084F0400083F1800084B18000800
:1000800057180008631800084F04000827180008D4
:100090001B1800084F0400084F0400084F04000814
:1000A000095800082D5800084F0400084F040008A4
:1000B0004F0400080000000000000000DD450008BB
:1000C000D1450008F5450008E94500084F0400083F
:1000D0004F0400084F0400084F0400084F040008B4
:1000E0004F0400084F04000800000000000000005A
:1000F0000000000000000000000000000000000000
:10010000000000004F040008000000004F04000839
:100110000000000000000000515800084F040008D3
:100120004F0400084F0400084F0400084F04000863
:100130004F04000800000000000000000000000064
:100140004F0400084F0400084F0400084F04000843
:100150004F0400084F0400084F0400084F04000833
:100160004F0400084F0400084F040008000000007E
:100170004F0400084F0400084F0400084F04000813
:100180004F0400084F0400084F04000800F002F874
:1001900000F068F80AA090E8000C82448344AAF1B9
:1001A0000107DA4501D100F05DF8AFF2090EBAE8B7
:1001B0000F0013F0010F18BFFB1A43F0010318479B
:1001C00060E9000080E900000A4410F8014B14F0D7
:1001D0000F0508BF10F8015B240908BF10F8014B98
:1001E0006D1E05D010F8013B6D1E01F8013BF9D1E1
:1001F000641E03D0641E01F8015BFBD19142E4D37D
:10020000704700000023002400250026103A28BF74
:1002100078C1FBD8520728BF30C148BF0B60704778
:1002200066290EF07682782900F01082732900F09A
:100230009387002070471FB50EF05EFA9DE803001B
:1002400000F011FB01F033F80400002000210DF054
:10025000A5FFE06001F0C2F91FBD10B5002000F05D
:100260007FFF10BD00F0FEFF1146FFF7E4FF09F02D
:10027000CAFB01F019F903B4FFF7EFFF03BC00F06C
:10028000CFFA000080F309887047EFF309807047C8
:10029000684680F3098804480078C00714BF02202C
:1002A000032080F31488704770010020DFF818C025
:1002B000EFF305831B0618BF6047EFF31483DB07DA
:1002C00008BF604700DF704759C30008DFF818C057
:1002D000EFF305831B0618BF6047EFF31483DB07BA
:1002E00008BF604700DF7047D1C30008EFF3098003
:1002F000816911F8021CE1BB90E80F1010B5E047CE
:10030000BDE81040EFF3098C8CE80700214B93E81F
:100310000600914208BF704741B91EF0100F16D178
:100320001D49086820F00100086010E01EF0100F61
:1003300006BF2CED108A0120002081F838002CE93E
:10034000F00FC1F83CC00CB40DF02AFC0CBC1A60D4
:10035000D2F83CC0BCE8F00F92F8380000280EBF7D
:100360006FF0020E6FF0120E00F058B88CF309888F
:10037000704710B5094A1268914209D8084C54F8E0
:10038000214090E80F10A047EFF3098C8CE80F0094
:1003900010BD0000C800002034EF00E030A30008CA
:1003A00030A3000810B50DF0F5FABDE81040154B6C
:1003B00093E80600914208BF7047EFF3098C1EF0E6
:1003C000100F06BF2CED108A0120002081F83800A4
:1003D0002CE9F00FC1F83CC00CB40DF0E1FB0CBCF3
:1003E0001A60D2F83CC0BCE8F00F92F83800002840
:1003F0000EBF6FF0020E6FF0120E00F015B88CF306
:1004000009887047C800002010B50DF0EDFBCCE75F
:1004100010B50AF0CBFF0DF0E7FBC6E7BCEC088A8D
:10042000BCEC08CAFFF7A2BFBCEC088ABCEC08CA47
:10043000FFF7E5BF0948804709480047FEE7FEE7A8
:10044000FEE7FEE7FEE7FEE7FEE7FEE7FEE7FEE784
:1004500004480549054A064B70470000B557000897
:100460008D010008900C002090BC0020908C002092
:10047000908C002000487047B403002070B5A0FBAA
:100480000140B4F1805170F1000024BF002070BD24
:10049000204600F060FA05001CBF214600F0DFFB9B
:1004A000284670BD70B516460D46041F002808BFCB
:1004B00070BD002E1CBF05F10C0009F015FA2B468B
:1004C0005868002818BFA04238BF0346F8D31968FF
:1004D000CA18A24218BF5C6003D122681C461144AE
:1004E000196021680A19824218BF606004D142680D
:1004F0006260006808442060002E1CBF05F10C00FB
:1005000009F0F6F970BD10B5044600F08FF90168E6
:100510002046BDE810400122C4E753EA020C00F077
:1005200069802DE9F04B4FF00006002B1FBFB3FA96
:1005300083F503FA05F424FA05F65E4012BF16436C
:10054000B2FA82F502FA05F4C5F120051EBF22FABF
:1005500005FC44EA0C04203556EA044C4FEA1444E6
:1005600018BF641C4FF000084FF00009904271EB77
:10057000030C39D3002919BFB1FA81F701FA07F644
:10058000B0FA80F700FA07F6C7F120071EBF20FA7D
:1005900007FC46EA0C062037B6FBF4FCA7EB050780
:1005A000103F07F01F0BCBF120062CFA06F60CFAD1
:1005B0000BFB44BFB3460026202FA4BF5E464FF07E
:1005C000000B5BEA060C08BF4FF0010B19EB0B099F
:1005D00048EB0608ABFB027C06FB02CC0BFB03CC12
:1005E000C01B71EB0C01C1E70B4602464146484671
:1005F000BDE8F08B13B5084318BF4FF0FF3001463C
:10060000AFF30080BDE81C40704700000FB41CB57C
:100610000C0007AA009007D04142A14202D3204417
:10062000401E01E04FF0FF30074B7B4469460190CC
:10063000069800F022FA0021002C01D0009A1170D7
:100640001CBC5DF814FB00007304000070B5044688
:100650000D4621461068AFF300802188090502D5B8
:100660000F4A7A4402E00E4A7A440E32002104F125
:10067000240305E000F00F060009965D5E54491C56
:100680000028F7D120780023000704D5702D02D070
:1006900009B1022311322046BDE8704000F08EB946
:1006A000B0E000002DE9F0410F4605460020286229
:1006B0002846E968884770B3252805D0D5E9012187
:1006C0009047286A401CF2E7E968284600268847D8
:1006D0006C2804460AD0682C08D04C2C35D06A2CE3
:1006E00031D0742C31D07A2C2FD016E0E968064630
:1006F00028468847B042044608D16C2E23D04FF4D8
:1007000080662846E9688847044606E06C2E03D0D8
:100710004FF4807601E01EE04026E4B1A4F14100F0
:10072000192802D8203446F400663A462146284665
:100730002E60FFF775FD60B1012808D0FF1D27F07E
:1007400007070837B4E78026DBE70026D9E73F1D17
:10075000AEE72046B2E7286ABDE8F08110B5002078
:1007600000F0BDF9FFF779FDBDE81040012000F071
:1007700057B80B460146184600F09AB910B5431C0D
:1007800002E010F8011B71B18107FAD14FF001327C
:1007900002C88C1A8C4314EAC211F9D0C01A0A0696
:1007A00003D0C01E10BDC01A10BD0A0401D0801EA7
:1007B00010BD0902FCD0401E10BD02F0FF0343EA49
:1007C000032242EA024200F04CBA4FF0000200B5A8
:1007D000134694469646203922BFA0E80C50A0E864
:1007E0000C50B1F12001BFF4F7AF090728BFA0E812
:1007F0000C5048BF0CC05DF804EB890028BF40F8DE
:10080000042B08BF704748BF20F8022B11F0804F1F
:1008100018BF00F8012B7047704770477047000001
:1008200001491820ABBEFEE72600020010B5FFF715
:1008300021FE083010BD704770477047704738B5CB
:1008400004460A4600206946AFF30080002808BF2E
:1008500038BD02460099204600F039FA012038BD23
:10086000012000F0BBBCF8B5AFF3008005460020C6
:100870000C46102000BF0646A819A0420DD93246EA
:1008800069460020AFF30080070008BF00F0A6FC17
:100890000098A04218BF0546C419FFF7C7FF0560BE
:1008A0000746F01D20F007004619284600F0FFF922
:1008B000B44208BFF8BDA21B31463868BDE8F84015
:1008C00000F005BA0844401E491E884370470821BD
:1008D000001DF7E72DE9F04117460E460446FFF7E5
:1008E000F6FFA042054633D9002F1CBF06F10C00CD
:1008F00008F0FAFF30467468F4B12168A94217D3B2
:1009000005F1080291423CBF6168416007D362680B
:1009100061194A602268521B0A6041602560002FFD
:100920001CBF06F10C0008F0E3FF201DBDE8F081BC
:1009300020466468002CE0D129463046FFF77FFF4F
:100940000028D7D1002F1CBF06F10C0008F0D0FF03
:100950000020BDE8F08110B50446FFF767FF01688D
:100960002046BDE810400122B4E770B50C460546AC
:10097000012A05D02878800600D5EA69002302E024
:10098000012305E05B1C934202D2E05C0028F9D110
:10099000A869E618C01AA861286A1844286228467F
:1009A000AFF3008004E0D5E9012114F8010B904772
:1009B000B442F8D32846AFF3008070BD2DE9F0476C
:1009C0000D4699469246044600F1240801688806BF
:1009D00004D5E06921F01001216000E00120A84267
:1009E00001DD471B00E00027A1697A1902EB09002D
:1009F000081AA0612078C00602D42046AFF3008018
:100A0000002608E0D4E901211AF806009047206A80
:100A1000401C761C20624E45F4DB2078C0060AD5C7
:100A20002046AFF3008006E0D4E901213020904752
:100A3000206A401C2062381EA7F10107F4DC07E0A1
:100A4000D4E9012118F805009047206A401C206273
:100A5000281EA5F10105F3DC2046AFF300802078C5
:100A6000000602D50220BDE8F0870120FBE7000068
:100A700001694A1C02610878704700B58FB0CDE962
:100A800001310021059105497944CDE90310114652
:100A90006846FFF707FE0FB000BD0000E5FFFFFF4F
:100AA000D1E900239A4202D2531C0B6010707047A8
:100AB0002DE9F041074615460E461020FFF74BFF83
:100AC00004000AD06760C4E9026500F0EBF8016831
:100AD000216004600020BDE8F0810120FBE710B533
:100AE00000F064FBBDE8104000F05BBB032A40F25D
:100AF000308010F0030C00F0158011F8013BBCF1C0
:100B0000020F624498BF11F801CB00F8013B38BFD7
:100B100011F8013BA2F1040298BF00F801CB38BFE5
:100B200000F8013B11F0030300F06780083AC0F0C1
:100B3000088051F8043B083A51F804CBA0E80810AB
:100B4000F5E7121D5CBF51F8043B40F8043BAFF3DE
:100B50000080D20724BF11F8013B11F801CB48BF38
:100B600011F8012B24BF00F8013B00F801CB48BF6E
:100B700000F8012B7047431A28BF9A427FF6B6AFA0
:100B800010441144032A40F2268010F0030F1EBFC8
:100B900011F8013D521E00F8013D10F0030F7FF4E3
:100BA000F6AF11F0030300F03383083AC0F00B8076
:100BB00051F8043D083A51F804CD40F8043D40F89E
:100BC00004CDFFF7F3BF121D5CBF51F8043D40F8A0
:100BD000043DAFF30080D20724BF11F8013D11F8A6
:100BE00001CD48BF11F8012C24BF00F8013D00F8E9
:100BF00001CD48BF00F8012C704710B5203AC0F075
:100C00000B80B1E81850A0E81850B1E81850A0E8DF
:100C10001850203ABFF4F5AF5FEA027C24BFB1E878
:100C20001850A0E8185044BF18C918C0BDE81040BB
:100C30005FEA827C24BF51F8043B40F8043B08BFC4
:100C40007047D20728BF31F8023B48BF11F8012B8B
:100C500028BF20F8023B48BF00F8012B70474FF037
:100C600000020429C0F0128010F0030C3FF4AFAD75
:100C7000CCF1040CBCF1020F18BF00F8012BA8BF87
:100C800020F8022BA1EB0C01FFF7A1BD5FEAC17CAC
:100C900024BF00F8012B00F8012B48BF00F8012BFE
:100CA0007047704710B5FFF7E5FB383010BD0021E5
:100CB0000160C0E901100C3008F018BE1020704728
:100CC000801A0844401E491E88431044704770B57E
:100CD000144605468C464368002B18BF634538BF51
:100CE0001846F8D302681044604508D0664660464E
:100CF00004220821FFF7E4FF811B8446641A294679
:100D0000CCF80040BDE8704000220CF10400FFF771
:100D1000C9BB2DE9FF4F0C461E464FF0FF378BB085
:100D2000D2E90001DDF860800A908A46C1F30A55D5
:100D300005B93D46002108464FF00000BAF1000F0A
:100D400000F4400005DA00EB80004FF4400101EAB6
:100D500050004FEA9059B9F1010F00DDB9460A98E9
:100D600050EA4A000ED044F61050A5F2FF35454334
:100D70002F14B8F1000F1ED07542291E1EDDC9F1D7
:100D800000021CE0B8F1010F4FF0000001D030214B
:100D900003E0F24305E02154401CB042FBDB304647
:100DA0000022002121540B99C1F80880C1E90020DC
:100DB0000FB000F0BCB9BD1B6D1CDEE74A4600DA7F
:100DC000694206A800F0FEFA06AB93E8070003AB01
:100DD00083E8070050460A9908F0E2FE8DE8070014
:100DE000A0F500501F3800900398002D0ADD42F254
:100DF0001F014A460844002303A90390684609F0EE
:100E00004BF909E0A0F500504A461F38002303A91A
:100E10000390684609F055F98DE807000004000CBE
:100E200003D04FF0FF30410800E01046B8F1000F4A
:100E300003D00022009215461EE0751E05D400F076
:100E40003BFA303262556D1EF9D5B3460122084394
:100E500002D000227F1C04E02078302801D100223B
:100E60007F1E002A099784D01DE0112D07DA00F0BB
:100E700023FA303262556D1C50EA0102F5D1084365
:100E800002D00098C8B10EE00021681E05E0235C86
:100E9000625C63542254401E491C8142F7DBAB461E
:100EA000A81B401E0990002004F80B000B98099A1B
:100EB000C0F80880C0E9002B7AE711264FF000083F
:100EC00057E72DE9F04F88460446D21D22F007016E
:100ED00091B0D1E90001CDE90A0109F034FA0246E6
:100EE0000B98C00F01D02D2007E02068810701D5A5
:100EF0002B2002E0202101EAC000032A099001D042
:100F0000072A05DB03464146204600F01BFA0BE1A9
:100F10002078800601D5E06900E00620B8F1650F71
:100F2000814606D0B8F1660F18D0B8F1670F70D1BE
:100F300031E00020B9F1110F009001DB112301E035
:100F400009F101030AAA01A90CA8FFF7E2FEDDE9F5
:100F50000C70002609F10105834647E001204B464D
:100F600000904FF000470AAA01A90CA8FFF7D1FE94
:100F7000DDE90DB00C995D46002610B909F10100BC
:100F80000D18B9EB050003D4C0F1FF3609F10105D6
:100F9000A5EB09002BE0B9F1010F01DA4FF00109CF
:100FA0000020B9F1110F0090484601DD112300E047
:100FB00003460AAA01A90CA8FFF7ABFEDDE90C70F5
:100FC0004D4600268346207800070AD4AB4500DA58
:100FD0005D4601A8012D04DD411911F8011C3029DD
:100FE00007D04F4502DA17F1040F04DA01208246D8
:100FF0000FE06D1EEEE7002F02DCED1B3E4403E028
:10100000781CA84200DD7D1CB81B00F1010A4FF0DE
:1010100000472078000703D4AA4501DB4FF0FF3AD0
:101020000021B7F1004F0DF143088DF8431024D093
:1010300002202B23002F01DA7F422D230A21021EDA
:10104000A0F1010000DC5FB197FBF1FC97FBF1F22E
:1010500001FB1C7C17460CF1300C08F801CDEEE7C3
:10106000A8F1010003702188090501D5452100E0A0
:101070006521A0F1010800F8011C09980FA9A1EB56
:101080000807FF1D00B10120411901EBEA70A169B9
:101090003844081A401EA0612078C00602D42046B9
:1010A000AFF30080099828B1D4E901219047206A64
:1010B000401C20622078C00622D52046AFF3008075
:1010C0001EE0002E04DBB34502DD01A8805D00E0D8
:1010D0003020D4E901219047206A401C2062761C10
:1010E000AAF101005FEA000A0AD100F0E0F8C06846
:1010F0000168405CD4E901219047206A401C2062CD
:10110000281EA5F10105DCDC07E0D4E9012118F86F
:10111000010B9047206A401C2062381EA7F101078E
:10112000F3DC2046AFF30080032011B041E630BC71
:10113000BDE8C08F10B5436913B1AFF3008001E083
:10114000FFF713FC012010BD127800F124010A7092
:1011500000224A700122EDE711684FF0FF32E9E703
:101160002DE9F0410646FFF79DFD8046454613E018
:1011700016B1E068B0420ED120682860D4E90101C0
:10118000D8F8007088472046FFF7BDF9D8F800006E
:10119000B842EBD100E025462C68002CE8D1BDE830
:1011A000F081002801D0FFF73BBB704710B500214C
:1011B00002A000F082F9012010BD00005349474110
:1011C0004252543A2041626E6F726D616C207465B8
:1011D000726D696E6174696F6E00000010B500F089
:1011E00085F9BDE81040FFF7DCBF431A28BF9A42DB
:1011F0007FF603AD1044114410F0030F1EBF11F829
:10120000013D521E00F8013D10F0030F7FF4F6AFD0
:10121000103AC0F00A8010B531E9185020E9185092
:10122000103ABFF4F9AFBDE81040530724BF31E9CD
:10123000081020E9081044BF51F8043D40F8043D6F
:1012400012F0030F08BF7047D20728BF31F8023DE4
:1012500048BF11F8012C28BF20F8023D48BF00F814
:10126000012C70477546FFF705F9AE460500694643
:10127000534620F00700854618B020B5FFF7E8F880
:10128000BDE820404FF000064FF000074FF0000887
:101290004FF0000BAC46ACE8C009ACE8C009ACE8C4
:1012A000C009ACE8C00921F007018D46704710B5B0
:1012B000FFF7E0F8203010BD30B5B0F10A0271F14F
:1012C00000034FEA900E4EEA817EB0EB0E0061EB18
:1012D00091014FEA101E4EEA017E10EB0E0041EB29
:1012E00011114FEA102E4EEA016E10EB0E0041EB89
:1012F00011214FEA104E4EEA014E10EB0E0041EB69
:101300001141401841F100014FEAD00040EA41701C
:101310004FEAD1014FEA810444EA907410EB800552
:1013200044EB01046D1944EB0404521BA3414FF03C
:10133000000348BF0A3200D530BD401C41F1000116
:1013400030BD00002DE9F0411F4604460326016828
:10135000072A01F4006004DB08B116A505E016A514
:1013600003E008B115A500E015A521F010002060EC
:10137000A069C01EA0610FB1401EA0612046AFF35E
:1013800000804FB1D4E9012138469047206A401CC3
:101390002062C01C206206E0206AFAE7D4E901213D
:1013A00015F8010B9047761EF8D22046AFF3008067
:1013B000BDE8F0814E414E006E616E00494E460020
:1013C000696E66002DE9F047814616468AB03548B9
:1013D00078440DC88DE80D0032487844801C03AC79
:1013E0000DC884E80D0041F69B300844372190FB7E
:1013F000F1F290FBF1F5A5F1800501FB12041B3C15
:1014000002D56442012000E00020DFF898A0804669
:101410000027FA44AAF1BE0A0EE0E0070AD03246DD
:10142000684607EB470101230AEB810108F049FEFA
:101430008DE8070064107F1C002CEED1194F7F440B
:10144000AE3F19E0E80715D007EB04100DF1180ABC
:1014500090E80E008AE80E00C068F04201D19819A9
:1014600008903246012306A903A808F02AFE03AB20
:1014700083E807006D10641C002DE3D14FF00103D9
:1014800032466946B8F1000F03A802D008F004FE06
:1014900001E008F016FEC9E90001C9F808200AB009
:1014A000BDE8F087E8D3000010B50446AFF3008034
:1014B0002046BDE81040FEF7DEBE70B505460C467E
:1014C0000A2000E06D1C00F039F835B128780028BA
:1014D000F8D102E0641C00F031F814B12078002843
:1014E000F8D1BDE870400A2000F028B810B50128F6
:1014F00005D0002103A0FFF7E0FF012010BD09A1E6
:10150000F8E7000053494752544D454D3A204F7576
:1015100074206F662068656170206D656D6F7279EB
:10152000000000003A2048656170206D656D6F72A3
:101530007920636F727275707465640008B56946CE
:101540008DF800000320ABBE08BD000000000000C5
:1015500030B44FF0013C50F8042B51F8043BCCFA66
:1015600052F4D51A20D1FCB950F8042B51F8043BA1
:10157000CCFA52F4D51A17D1B4B950F8042B51F85B
:10158000043BCCFA52F4D51A0ED16CB950F8042BA6
:1015900051F8043BCCFA52F4D51A05D1002CDAD01C
:1015A00030BC4FF00000704729BAB1FA81F111F058
:1015B0001801D1F120008440F2D1CA40CB4012F092
:1015C000FF0213F0FF0330BCD01A704702F0FF0394
:1015D00043EA032242EA0242FFF7F9B870B5064C2B
:1015E0007C44064D7D4404E0204601680844804761
:1015F000241DAC42F8D170BD78D5000094D5000010
:1016000070B5044600688268836802F0040203F043
:101610000803D21855D0C268920114D5627E012AFF
:1016200011D1227E012A0ED10168490607D4012179
:10163000CAF2403101393AD002685206FAD5402147
:101640000160012104E0022902D10221082611E0F3
:10165000826852070AD58268920707D482684FF6DB
:10166000C073C7F6FF731A401032826001294FF031
:10167000040610D0826812070AD58268920707D440
:1016800082684FF6C073C7F6FF731A40203282603B
:10169000032908BF0C2601F04CFC05462068806831
:1016A00030420ED001F045FC401B0628F6D3A06D59
:1016B00040F01000A065E06D40F00100E065012001
:1016C00070BD002070BD0146806A836D826D13F08D
:1016D000500F07D0D20648BF00F0DCBA006D426B55
:1016E0000846104742F40071816501680B68CA68BA
:1016F0001B0703D4910707D500F0ACBA12F4406F72
:10170000FAD1C9688904F7D4816D21F480718165AB
:10171000816DC90448BF00F09DBA816D41F001019F
:10172000816500F097BA806A816D41F04001816562
:10173000C16D41F00401C16500F0ACBA806A00F0EF
:10174000A8BA0000B0B5016804468A688868C00776
:101750004FF0000028D012F0020218BFB0BD886818
:1017600000F00D00012816D188684FF6C072C7F648
:10177000FF721040023088600320086001F0D9FB3E
:10178000054600BF20688068C0070ED001F0D1FB7D
:10179000401B0328F6D3A06D40F01000A065E06D5B
:1017A00040F00100E0650120B0BD0020B0BD0000A8
:1017B00070B5044600688168C9072CD14FF6C07621
:1017C000C7F6FF76816806F17F02114219D1816860
:1017D000314041F00101816001F0ABFB054600BFE3
:1017E00020680168C90716D18168C90704D18168DA
:1017F000314041F00101816001F09BFB401B032857
:10180000EED3A06D40F01000A065E06D40F0010047
:10181000E065012070BD002070BD40F65410C2F29A
:10182000000000F0A1BD40F65410C2F2000000F02C
:101830009BBD40F6B810C2F2000001F061B840F65E
:10184000D820C2F2000001F05BB840F69020C2F24E
:10185000000001F055B840F64820C2F2000001F047
:101860004FB840F60020C2F2000001F049B87047BE
:1018700040F23C20C2F20000027F02F0FD0101298B
:1018800042F20001C4F202010BD10B6843F4006381
:101890000B600B6823F400630B600B6843F4007368
:1018A0000B6002F0FE02022A0BD10A6842F4805259
:1018B0000A600A6822F480520A600A6842F4806270
:1018C0000A60002101777047F0B581B042F210063E
:1018D0000446C4F2020601F02CFB3168C9030AD5A4
:1018E0000546671C27B101F024FB401BA0421AD219
:1018F0003068C003F6D430684CF2FA31C0F202010D
:10190000014008D040F23C20C2F2000042680A4385
:101910004260012005E03068C0074FF0000003D0AE
:101920000121316000E0032001B0F0BDF0B581B0CD
:101930000022009290F85420012A01D102217DE179
:101940000123076880F85430BB685B073FD44B68BD
:10195000052B07D8023B032B9ABFBAA555F82330B5
:1019600006234B60C3F3012407EB84040D68226B4C
:1019700003F01F031F269E40B243C5F3846606FA98
:1019800003F31A432263BA68BB6802F0040203F04F
:101990000803D21840F0A4800A6807F11403042653
:1019A000C2F34064D1F808E006EAD25C53F8245050
:1019B000C2F304540722A240BEF1004F25EA0205FB
:1019C0000BD143F80C501A6842F000430DE0816DD2
:1019D00041F02001816501212DE10EFA04F22A4334
:1019E00043F80C201A6822F000437B61D1E90434EB
:1019F000FD68042B5FD13A6E3A6E0B68C2F38462C5
:101A000093FAA3F6C3F3846C6FF3DF43B6FA86F55B
:101A1000002B2C464FF6FF7E08BF6446A242C0F260
:101A2000070E0CD13A6E22F000423A660A6802EACA
:101A30000E03C2F3846C92FAA2F2B2FA82F57A6EC5
:101A40007A6E002BC2F384622C4608BF6446A24221
:101A50000CD17A6E22F000427A660A6802EA0E031E
:101A6000C2F3846C92FAA2F2B2FA82F5BA6EBA6E3E
:101A7000002BC2F384622C4608BF6446A2420CD1FC
:101A8000BA6E22F00042BA660A6802EA0E03C2F396
:101A9000846C92FAA2F2B2FA82F5FA6EFA6E002B18
:101AA000C2F3846208BF6546AA4219D1FA6E22F0D9
:101AB0000042FA6614E0062202EA95020E6807EB7D
:101AC000830304FA02F21D6E4FF20004C0F2FF34E9
:101AD00006F0F846254032432A4342F000421A6697
:101AE000BA68D20744D10C68CA68D7F8B0602346F8
:101AF0006FF3DF4326EA030C4FF6FF7602F018057A
:101B0000C0F20706EE4000252640C4F27F0546EAF3
:101B10000C06AA42C7F8B0602AD194FAA4F2B2FA2D
:101B200082F2002B08BFC4F38462013202F01E036C
:101B300002F01F0201260025964002EB4202CFF67A
:101B4000206505EB0255354345F000750A2B38BF7B
:101B500046EA0255C5F3406307EB83038A685E6972
:101B6000C5F304550724AC40A643AA4032435A614A
:101B700009680022C8F2080211425BD040F2083323
:101B8000C5F204031C680022CCF25272914204F0A8
:101B9000E07C08BF14F400021DD00022CCF6843291
:101BA000914208BF14F0807238D00122C8F20002BE
:101BB00091424FF0000108BF14F480023BD1A3F51D
:101BC0004272974237D1196821F0E07141EA0C0165
:101BD00041F480012DE0A3F542718F422AD11968AA
:101BE00042F6635221F0E07141EA0C0141F4000138
:101BF000196040F23821C2F200010968C0F23E5279
:101C00008909A1FB0212910901EB4101890000BF82
:101C10000091009971B100990139F9E7A3F542717A
:101C20008F4207D1196821F0E07141EA0C0141F0BF
:101C3000807119600021002280F85420084601B00C
:101C4000F0BD00BF0C0000001200000018000000F2
:101C50000001000010B540F21424C2F20004E16952
:101C6000814200D010BD40F6E800C2F200000078CA
:101C7000C00708BF10BD606810B104F09FF801E014
:101C800004F082F861690029ECD0A069BDE8104039
:101C90000847704770470000B0B582B00446002086
:101CA000002C019041D0A06D30B9204600F0D5F84D
:101CB0000020E06584F8540021688868800006D51B
:101CC00088684FF6C072C5F6FF7210408860886859
:101CD000C0001DD44FF6C0728868C5F6FF7202F1CD
:101CE0008052104000F18050886040F23820C2F2EB
:101CF0000000006842F663528009C0F23E52A0FB29
:101D0000020290090190019810B101980138F9E799
:101D10008868C0000BD4A06D40F01000A065E06D95
:101D200040F00100E065012002E0012093E0002086
:101D30008A68A36D02F0040203F01003D218A26DAA
:101D400073D122F481720232A2658A68D20712D15D
:101D500040F208324FF60053C5F20402CFF6FF738B
:101D6000D358DB0707D1D4F804C0136823F47C13DD
:101D700043EA0C031360627E636B43EA4232D4E9A8
:101D800002C31A4394F8203042EA0C02012B42EAC3
:101D9000034207D1D4F824C00023CFF6FE7303EB2F
:101DA0004C431A43A36A33B103F47073D4F82CC0C4
:101DB0001A4342EA0C02D1F80CC04CF20703CFF6EA
:101DC000F07303EA0C031A43CA608A688B6802F056
:101DD000040203F00803D2182ED1D4F84CC0237E9D
:101DE00094F830204CEA833394F838E043EA420C0C
:101DF000CB6844F2060223EA020242EA0C02CA60FD
:101E00000A69BEF1010F14D140F2FD7322EA030CFE
:101E1000D4E90F32D4E911E543EA0C031A4342EA4C
:101E20000E022A4342F0010205E042F010010120B7
:101E300010E022F001020A6122690B6B012A23F0F3
:101E40000F0202D1E369013B1A430A63A16D01222B
:101E500062F30101A16502B0B0BDF0B5A1B00446C6
:101E60000020CDE91F0002A804306421FEF7ADFC7C
:101E700020680021C5F20401884266D14FF48040F9
:101E800002904FF04050199002A801F025FD08B1D2
:101E9000FFF7EDFC41F24C00C4F2020001681CADFA
:101EA00041F40051016001680B2701F400510191D8
:101EB00001990168002641F004010160016801F008
:101EC000040101910199016841F00101016000687C
:101ED000294600F00100019001980F201C9040F667
:101EE0000000C4F600001D971E9600F03FFF03207F
:101EF000CDE91C074FF0904029461E9600F036FFB2
:101F000040F6B8150820C2F20005C4F20200802194
:101F1000C5E9000605F110004FF480724FF48063AC
:101F200020278EC02846C5E902662E6200F035FDE6
:101F300008B1FFF79CFC1220002100222565AC624D
:101F400001F045FC122001F033FC21B0F0BD70B56A
:101F5000044600688068400703D494F854000128C0
:101F600001D1022070BD012084F85400204615469E
:101F70000E46FFF71DFC18B1002184F8541070BD07
:101F8000A06D40F60171884300F58070A065A06DDA
:101F900041F2C763C0044FF0000044BFE06D20F081
:101FA0000600E065206D41F23D712268C0F6000335
:101FB000C0F6000141F2277E4FF0000CC0F6000E83
:101FC000C0E90B311C21C0F834E0116084F854C022
:101FD00051682B4641F010015160D16841F0010178
:101FE000D16002F14001324600F038FD21684FF621
:101FF000C0738A68C7F6FF731A4004328A6070BDE6
:10200000B0B5044690F85400012801D1022537E00C
:10201000012084F8540020460321FFF7F1FA054619
:1020200058BB2168206DCA6822F00102CA6090F88E
:102030002520022A11D100F016FC68B1054620685F
:10204000A16D41F04001A165416821F0100141609E
:102050002046FFF777FB10E02168486820F0100069
:1020600048602046FFF76EFB054630B9A06D41F28F
:102070000111884301300025A065002084F8540038
:102080002846B0BD90F82020013A012A04D8006803
:1020900000F11402002004E000F1240201204FF4BA
:1020A0008021136819431160704710B590F820E043
:1020B000D0F800C0AEF1010EBEF1010FDCF808E06F
:1020C0000DD81EF0E05F10D0CEF3016EBEF1030F0D
:1020D00011D100F1240101204FF4000233E000F19E
:1020E000240101204FF480222DE000F12401012081
:1020F0004FF4001227E0012000FA0EF01860886803
:1021000018B14B6840EAC30001E008684005D1E916
:10211000033403430CEB0E10C0F88031C0F8844147
:10212000097D012905D100F5C2710B6843F4807364
:102130000B605168C0F88C11126800F5C071C0F8CE
:102140008821002001220B681A430A6010BDB0B537
:10215000026890F82030013B012B27D8D2F800020A
:10216000012340F00100C2F80002D1F814E0CC696C
:102170000EF01F0003FA00F0D2F81C326FEA000CD8
:102180008343012CC2F81C3216D064BBD2F80C3247
:1021900003EA0C03C2F80C32CB688C8844EA034390
:1021A00002EBCE04C4F840320B4614E0416A41F41D
:1021B000802141620120B0BDD2F80C320343C2F845
:1021C0000C320B688C8844EA034302EBCE04C4F85B
:1021D000403201F10C038C681B8843EA044302EB94
:1021E000CE04C4F84432D2F804328D6943EA0004C4
:1021F000D1F810E0096A002D08BF03EA0C04C2F808
:102200000442D2F81432BEF1000F43EA000408BFC2
:1022100003EA0C040129C2F8144204D1D2F81C12BA
:102220000843C2F81C02D2F8000220F00100C2F8F4
:1022300000020020B0BD90F82020013A012A06D803
:102240000068426922EA0101416100207047416A49
:1022500041F48021416201207047704710B590F829
:102260002040013C012C70D8D0F800C000290CBFE0
:10227000DCF80C40DCF81040A4076CD00CEB011C1F
:10228000DCF8B0410CF5D87E14F004049460DCF85E
:10229000B04119BFE4085460640D1460DEF80040DA
:1022A0000029C4F34004D460DCF8B44104F00F0406
:1022B0001461DCF8B441C4F307249461DCF8B44140
:1022C0004FEA14445461DCF8B8211A70026802EB3A
:1022D0000112D2F8B8214FEA12225A70026802EBBA
:1022E0000112D2F8B8214FEA12429A70026802EB4A
:1022F0000112D2F8B8214FEA1262DA70026802EBDA
:102300000112D2F8BC211A71026802EB0112D2F854
:10231000BC214FEA12225A71026802EB0112D2F874
:10232000BC214FEA12429A71026802EB0112D2F804
:10233000BC214FEA1262DA7100680CBF00F10C0197
:1023400000F11001002020220AE000F12401012008
:102350004FF4802204E000F1240101204FF4001228
:102360000B681A430A6010BD2DE9F04F81B0044696
:1023700000684669D0F804908768D0F80CB0D0F8AF
:1023800010A0D0F81880F10701D1002546E0F90728
:102390000FD00121BA07816006D478071CD4380712
:1023A00020D404F1340001E004F128000168204643
:1023B00088470025F8051AD520684FF48071BA05C2
:1023C000816005D478050AD438050ED4A16B00E0ED
:1023D000E16A204688470AE04FF40065EAE705F520
:1023E000005504E04FF48055E4E705F58045F80317
:1023F00014D520684FF48031BA03816005D4780386
:1024000007D4380308D4E16B00E0216B20468847ED
:1024100004E005F5004501E005F58035300707D5F6
:102420001BF0100004D0206845F400751021C16035
:10243000700708D51BF0080005D02068616C0822E1
:10244000C26020468847B00706D52068C06880076C
:1024500002D0216C20468847700607D51AF010007C
:1024600004D0206845F4806510210161B00608D5CC
:102470001AF0080005D02068E16C082202612046AD
:102480008847F00606D520680069800702D0A16C55
:1024900020468847B00308D519F0100005D0206801
:1024A000216D1022426020468847F00308D519F0BC
:1024B000080005D02068616D0822426020468847E8
:1024C000300440D55FEA49703AD506F4807008EAD6
:1024D000102028435FEA8871014648BF41F002019D
:1024E000B20558BF01465FEA48700D4648BF45F047
:1024F0000405700558BF0D46300521D518F0700051
:102500001ED010380009052815D8DFE800F00306B2
:10251000090C0F1245F008050DE045F010050AE022
:1025200045F0200507E045F0400504E045F0800552
:1025300001E045F480752068816921F070018161B6
:102540002068042141604DB1606AA16D40EA050236
:102550002046626201B000F004B8084701B000F004
:1025600005B830BCBDE8C04FFFF7F7BF30BCBDE8D1
:10257000C08F00002DE9F041002861D0044690F89A
:102580002000002849D142F2F77142F65B0542F67D
:102590005F0242F2F978C0F60001C0F60005C0F60D
:1025A000000242F6630342F66100C0F60008C0F67E
:1025B000000342F6590642F65D07C0F60000C4E982
:1025C0000A5204F130026164E16D42F2FD7C42F294
:1025D000FB7EC0F60006C0F60007C8C2C4E90F08BB
:1025E00042F2FF7042F6650242F25B23C0F6000C35
:1025F000C0F6000EC0F60000C0F60002C0F60003F0
:10260000C4E912CE20656265A36521B942F2F56185
:10261000C0F60001E165204688472068016821F086
:102620000201016000F085FC054600BF206841689A
:10263000890708D500F07DFC401B0B28F6D312E07B
:102640000120BDE8F081016841F00101016000F066
:1026500070FC054620684168C9070BD100F069FC91
:10266000401B0B28F6D3606A052140F400306062FD
:1026700001203BE0217E0268012922F0800208BF90
:1026800080320260617E0268012922F0400208BFA8
:1026900040320260A17E0268012922F0200208BFB8
:1026A00020320260E17E0268012922F0100218BF88
:1026B00010320260217F0268012922F0080208BF5F
:1026C00008320260617F0268012922F0040208BF1B
:1026D00004320260271D8ECF66691A433A433243A3
:1026E00001391143C16100200121606284F820108A
:1026F000BDE8F08180B586B0006846F20041C4F2C2
:102700000001884237D141F24C00C4F20200C16896
:1027100041F00071C160C16801F00071019101993F
:10272000016841F002010160006801A900F00200A7
:10273000019001984FF44070019002200290002017
:102740000390032004900920059040F20040C4F655
:10275000000000F00BFB13200021002201F037F8ED
:10276000132001F025F814200021002201F02FF899
:10277000142001F01DF806B080BD0000A2B190F851
:102780002030012B0DD10E290ED8DFE801F0081BF7
:102790001D1F21232527292B2D2F31171900826278
:1027A00027E090F820302BB1416A41F4800141626A
:1027B000012070470E2903D00D29F5D1C26518E01C
:1027C000026616E0C26214E0026312E0426310E0A7
:1027D00082630EE0C2630CE002640AE0426408E037
:1027E000826406E0C26404E0026502E0426500E043
:1027F0008265002070477047704770477047704788
:10280000B0B5044690F8200001281CD1022084F8BD
:1028100020002068016821F00101016000F089FBBF
:10282000054600BF20684068C00712D000F081FB59
:10283000401B0B28F6D3606A40F40030606205202C
:1028400084F8200003E0606A40F400206062012008
:10285000B0BD00206062B0BD7047704770477047E0
:10286000704770477047014690F82500022815D13F
:102870000868D1E910C3026822F00E020260026803
:1028800022F00102026003F01C00012202FA00F0B3
:10289000CCF80400002081F8252002E00420C86361
:1028A0000120002281F82420704780B590F825107F
:1028B000022920D10168D0F838E0D0E910C30A68B5
:1028C000BEF1000F22F00E020A600A6822F0010237
:1028D0000A6003F01C014FF0010202FA01F1CCF88A
:1028E00004104FF0000180F8252080F8241005D056
:1028F000F047002102E00421C1630121084680BDA8
:10290000B0B5D0E910C30268DCF8001003F01C0376
:102910000424D2F800E09C400C4218BF1EF00405CD
:102920001AD102249C400C4218BF1EF002051FD190
:10293000D94009071BD51EF0080118D0116821F0F5
:102940000E011160012101FA03F2CCF80420C163E9
:1029500080F82510416B18E01168890603D41168CE
:1029600021F004011160CCF80440016B91B9B0BDB5
:102970001168890606D4116821F00A01116001214D
:1029800080F82510CCF80440C16A0022002980F8A4
:102990002420ECD0BDE8B040084700285BD02DE9EA
:1029A000F04740F2004CC4F2020C02684FF6F831D6
:1029B0000CF1080ECBF6FD71724538BF01F5806150
:1029C0004CF6CD431144CCF6CC43A1FB03136FF07E
:1029D0000301674601EA930A4FF00203D0E9024976
:1029E000D0F8108038BFA7F58067C0E9107A80F86A
:1029F0002530136847F6F077BB432343D0E90576CB
:102A000043EA090343EA0803D0E907513B43334350
:102A10002B431943B4F5804F116012D00CF1A80478
:102A20000AF01C010F23724538BFACF556742268BA
:102A30008B409A4322604268236802FA01F11943ED
:102A4000216000210122C16380F8252080F8241034
:102A5000BDE8F04700E0012108467047F0B590F866
:102A600024C0BCF1010F35D04FF0010E80F824E0F6
:102A700090F825C0BCF1010F29D14FF0020C80F86D
:102A800025C04FF0000CC0F83CC0D0F800C08468EE
:102A9000056B066CDCF80070102C27F00107CCF8F1
:102AA0000070406C00F01C000EFA00F070600846E8
:102AB000CCF8043004BF10460A46CCF80800CCF825
:102AC0000C20DCF800003DB140F00E000CE00021CD
:102AD00080F824100220F0BD20F00400CCF80000A3
:102AE000DCF8000040F00A00CCF80000DCF8000040
:102AF00040F00100CCF800000020F0BD2DE9F04FBF
:102B000081B040F23C29C2F2000999F80020012A64
:102B100001D1022680E08246012089F800004CF2B3
:102B200050308846FEF7D0FE0646002871D142F2AA
:102B300014040020C4F20204C9F8040054F8141C60
:102B400054F8140C890503D440050BD4002012E07E
:102B500020F4007044F8140C54F8140C400503D40D
:102B6000012008E0022000E0032054F8141C21F4A6
:102B7000806144F8141C89F81C00DAF80000012870
:102B800015D19AF80400C00703D0206840F0040073
:102B90002060206840F4803020604CF25030FEF716
:102BA00093FE2168064621F0040020602FE04FF0DC
:102BB000FF30C8F80000DAE902703844874222D2B8
:102BC000FD0040F2FA7B00BF2068E90861F3CA000B
:102BD0002060206840F002002060206840F48030CF
:102BE00020604CF25030FEF76FFE2168064621EA65
:102BF0000B0020604EB9DAE9020101370844874230
:102C000005F10805E0D3002601E0C8F80070FEF7E2
:102C10002FFE002089F80000304601B000F000B817
:102C200030BCBDE8C08F40F23C20C2F200004068DA
:102C3000704742F21401C4F20201086840F00042F9
:102C400000200A60704700002DE9F04740F23C295F
:102C5000C2F20009144699F80020012A01D1022588
:102C600069E08046012089F800004CF250301F4690
:102C70000E46FEF729FE0546002859D142F2000A09
:102C80000020C4F2020AC9F80400DAF8001049056D
:102C900006D5DAF8000020F48060CAF800000220AF
:102CA000B8F1000F89F81C0024D0A8F10100022817
:102CB00037D2DAF8140040F48020CAF81400EFF399
:102CC0001080EFF3108172B6402100BF54F8042B3E
:102CD00001390B0646F8042BF8D180F310884CF22A
:102CE0005030FEF7F1FDB8F1020F05461ED16FF42A
:102CF000802010E0DAF8140040F00100CAF8140057
:102D000034604CF25030BFF36F8F7760FEF7DCFD1C
:102D100005466FF00100DAF814100840CAF81400F4
:102D200004E04CF25030FEF7CFFD0546FEF7A0FD63
:102D3000002089F800002846BDE8F08742F208002C
:102D4000C4F20200C168B1F1FF3FC4BF0020704768
:102D500040F22311C4F26751016048F6AB11CCF682
:102D6000EF510160C068C00F704700002DE9F04FBF
:102D700082B041F20002C4F6000290420A684FF0AD
:102D8000070308BF0423002A009300F0BA8000F173
:102D900038434FEAB32740F2004A009BC4F2010ACD
:102DA000042F38BF3B464FF0010E002500260127B7
:102DB000009300BFA7F1010C0EFA0CF912EA090802
:102DC00000F095804A6842F01004122C15D16FF083
:102DD000030202EA5C020244D2F820B006F01C03AF
:102DE0000F24D1F810E09C402BEA04040EFA03F300
:102DF000234313624A684FF0010E03680324AC407A
:102E00006FEA040BA34302F00304AC402343122AED
:102E1000036013D80EFA02F313F0061F0ED0836876
:102E2000CC6803EA0B03AC40234383604368140976
:102E300023EA090304FA0CF423434360C3688C6853
:102E400003EA0B03AC402343D200C3604FD541F2E9
:102E50006003C4F202031A684FF6084942F0010207
:102E60001A601A68CFF6FF7902F001020192019A06
:102E70002CF00302524452F809C006F00C040F2350
:102E8000A3402CEA030C009B03FA04F444EA0C036D
:102E900042F80930DAF800C04B684CEA0804DA035B
:102EA00058BF2CEA0804CAF80040DAF804C09A03B4
:102EB0004CEA080458BF2CEA0804CAF80440DAF8BF
:102EC00008C0DA024CEA080458BF2CEA080440F2B1
:102ED0000C4CCAF80840C4F2010CDCF800209B023C
:102EE00042EA080458BF22EA0804CCF800400A6805
:102EF000043632FA07F307F1010705F102057FF402
:102F000059AF02B000F000B830BCBDE8C08F006916
:102F1000084018BF01207047426928230A4208BFB1
:102F20001823C15070471823002A08BF2823C15016
:102F3000704780B540F26020C2F2000040688047D0
:102F400000B180BDBDE8804006F064BD90F841202E
:102F5000202A03D190F84020012A01D1022118E053
:102F6000242280F841200268136823F001031360D3
:102F7000136823F4805313601368194311601168B8
:102F800041F001011160202180F84110002180F8FA
:102F900040100846704790F84120202A03D190F84D
:102FA0004020012A01D1022117E0242280F841208B
:102FB0000268136823F001031360136823F470633D
:102FC00043EA01211160116841F0010111602021E3
:102FD00080F84110002180F8401008467047704783
:102FE0007047D0F800C0DCF81830DCF80020D905B4
:102FF00002F0800208D53AB1416C41F00101416410
:103000004FF48071CCF81C10590508D53AB1416CC9
:1030100041F0080141644FF48061CCF81C1099051F
:1030200008D53AB1416C41F0020141644FF400719E
:10303000CCF81C10416C11F00B0F18BF01F0CFBB86
:1030400070470268436B9169126803B11847704773
:10305000704708B310B5044690F8410028B9002025
:1030600084F84000204600F08DFA242084F84100C6
:1030700094E80910E2680168012A21F00101016069
:1030800023F070610161816821F40041816005D104
:103090004CF40041816009E0012070474CF4044188
:1030A000022A816004BF4FF400614160416804F16D
:1030B000100C41F0007141F400414160C16821F4FD
:1030C0000041C1609CE80E10114341EA0321C16038
:1030D000216A41EA0C010160016841F001010160CF
:1030E00000202021606484F84110206384F84200AD
:1030F00010BD00002DE9F04F83B00446002002907F
:1031000094F84100202808D120688A468169090482
:1031100003D494F84010012903D1022003B000F039
:1031200075B8012184F84010242184F84110002151
:1031300061640A21D14661F39F2948F208011D46C6
:10314000904661F39F2A5F1CE1680129494608BF48
:1031500051464160FFF7EDFE216806468A698B699A
:1031600002F0200203F01003D2180FD137B1FFF79D
:10317000E0FEADB3801BA84232D8216888698A6915
:1031800000F0200002F010028018EFD0D1F818B043
:103190002046202100222B46009601F09BFF5FEA8B
:1031A000CB6129D548BB20681021C1612021C161B4
:1031B000029941450ED14168002241F480414160AD
:1031C000204620212B46009601F084FFA8B92068F4
:1031D0002021C16102990131029102994145B3D385
:1031E000202084F84100606C40F0200060640120E1
:1031F000002184F8401091E708B101208EE7206893
:103200002021C16184F841100020F1E730BCBDE805
:10321000C08F704700B34EF6BC2C0021C0F6000CE6
:10322000002300BF0CEB830252681268824205D073
:103230002831A02903F10103F4D10DE0D8B21F28F1
:103240000AD040F2F860C2F2000008440021017187
:10325000416A09B1806A08477047000080B5B8B17B
:103260004EF6BC21C0F600010B1D00224FF0290EC6
:1032700019680968814207D028320EF1010EA02A90
:1032800003F10403F4D103E05FFA8EF0482800D183
:1032900080BD40F2F860C2F2000083189A686AB1FB
:1032A000D3F80CC0BCF1000F08D050F82E005979AB
:1032B0001FFA8CF3BDE8804000F009B800201871B7
:1032C000596A0029E4D0986ABDE8804008472DE992
:1032D000F041044690F84100202808D10D462168AD
:1032E0008869000403D494F84000012803D1022621
:1032F0003046BDE8F081012084F84000222084F8A7
:103300004100102084F8420000206064002044F650
:103310002548CFF6FF70C0F6000862626385E06260
:10332000C4F83480608D42F20047B0F5807FC8F267
:10333000002704D3FF23238507F17F4702E0638D35
:1033400023856BB3E06BE8B144F2356C44F2236E35
:10335000C0F6000CC0F6000E00262431C0E90BC6F2
:10336000C0E90DE6FFF77AFB90B3202084F8410016
:1033700084F84260606C40F01000606484F8406043
:103380000126B5E7202084F84100002084F842009F
:10339000616C012641F08001616484F84000A7E778
:1033A00044F66550C0F600006063486849F60002C4
:1033B000C7F6004210406FF39F252844384300268B
:1033C000486084F84060086840F0F20008608FE7C9
:1033D0002068218DD4F834C0436849F60002CFF646
:1033E00000421A406FF39F25CBB245EA03433B43AB
:1033F0001A434260628D511A618544F6C361C0F67A
:103400000001F22284F840608C4508BF90220168D8
:10341000C44508BF902211430160016841F4004196
:10342000016065E72DE9F041044690F8410020284D
:1034300008D10D4621688869000403D494F840003F
:10344000012803D102263046BDE8F081012084F82E
:103450004000212084F84100102084F84200002020
:103460006064002044F62548CFF6FF70C0F60008DF
:1034700062626385E062C4F83480608D42F20007C6
:10348000B0F5807FC8F2002704D3FF23238507F11E
:103490007F4702E0638D238583B3A06B00B344F2C2
:1034A000C36CC0F6000C002644F2236EC0E90BC6C4
:1034B00001F1280CC0F6000E11466246C0E90DE687
:1034C000FFF7CCFA90B3202084F8410084F84260E2
:1034D000606C40F01000606484F840600126B2E740
:1034E000202084F84100002084F84200616C01260D
:1034F00041F08001616484F84000A4E744F665501F
:10350000C0F600006063486849F60002C7F6004252
:1035100010406FF39F25284438430026486084F804
:103520004060086840F0F20008608CE72068218D58
:10353000D4F834C0436849F60002CFF600421A407E
:103540006FF39F25CBB245EA03433B431A434260E6
:10355000628D511A618544F6C361C0F60001F22202
:1035600084F840608C4508BF90220168C44508BFBC
:10357000902211430160016841F48041016062E7DB
:10358000704770472DE9F043A1B004461CA81421F0
:10359000FDF71BF902A86821FDF717F9206845F629
:1035A0000001C4F2000188426DD045F20041C4F22E
:1035B0000001884240F0DF804020029002A800F025
:1035C0008BF908B1FEF753F941F24C05C4F202053C
:1035D000286840F2440840F00200286028684FF054
:1035E000030900F0020001900198C0201C901220F5
:1035F0001D9001201E900420209040F20040C4F64F
:1036000000001CA9C4F20208CDF87C90FFF7AEFBC5
:10361000E868102140F40010E860E86840F64825AA
:1036200000F400100190019808F12800C2F2000592
:10363000C5E9000905F1080000268027C2C0284618
:10364000C5E90566C5E90766FFF7A7F908B1FEF702
:103650000EF9A563AC6240F6002508F13C00C2F209
:103660000005C5E900092846C5E90266C5E90476F2
:10367000C5E906662E62FFF790F9202600284FF074
:103680001F0764D165E04FF0800802A8CDF80880DC
:1036900000F022F908B1FEF7EAF841F24C05C4F255
:1036A0000205286840F2440940F0020028602868BA
:1036B000032600F00200019001984FF488401C900E
:1036C00012201D9001201E900420209040F2004006
:1036D000C4F600001CA9C4F202091F96FFF746FBBE
:1036E000E868002740F48000E860E86840F6D825E4
:1036F00000F4800001900198C2F20005102005F14D
:10370000080181E881012846C5E90096C5E90577E9
:10371000C5E90777FFF741F908B1FEF7A8F8A563F7
:10372000AC6240F6902509F11400C2F20005802138
:1037300085E8C1002846C5E90371C5E90577C5E9F3
:103740000777FFF72AF922264FF0210708B1FEF785
:103750008EF8384600210022E563AC6200F037F8AD
:10376000384600F025F830460021002200F02FF8FE
:10377000304600F01DF821B0BDE8F0837047704777
:1037800080B5032000F04EF8002000F007F808B1E3
:10379000012080BD00F00BF8002080BD80B540F214
:1037A0006020C2F2000000688047002080BD7047A2
:1037B00000280BD400F01F01012202FA01F14EF2A1
:1037C00000124009CEF2000242F82010704710B5F6
:1037D0004EF60C5CCEF2000CDCF80030C3F3022E87
:1037E0008EF00704042C28BF0424BEF103034FF01D
:1037F000FF3E0EFA04F438BF0023A14399400EFAAD
:1038000003F39A43114300F00F02043A62440901A2
:103810000C3200F16043B0F1FF3FC8BF03F56442D2
:10382000117010BD4EF60C51CEF200010A684FF631
:10383000FF031A4060F30A2242F0806040F0FD70FE
:103840000860704747F2000CC4F2000CDCF800205E
:10385000B0F5007F02F4C0602AD1B0F5007F31D00E
:10386000DCF80000012262F34A20CCF8000040F2AC
:103870003820C2F200000068322358434DF68363BB
:10388000C4F21B33A0FB030302EB9340002200BFF2
:10389000DCF81410013842F10003490501D5002B72
:1038A000F6D1DCF81400400544BF0320704709E05E
:1038B000B0F5806F06D0DCF80000022161F34A20E9
:1038C000CCF800000020704747F20000C4F200006E
:1038D000006800F4C06070472DE9F04381B00446F1
:1038E000407841F20C070007C4F202071BD5E06CD8
:1038F00068B1B0F5400F11D0B0F5000F40F037813E
:10390000386840F4803038604FF4000006E0201D35
:10391000002101F05DFE814638B9E06CF96F21F4B9
:1039200040010843F8674FF00009A078800753D59D
:10393000F86C10F0805808D1F86C40F08050F864B2
:10394000F86C00F080500090009847F20005C4F237
:103950000005286840F480702860FFF7EAFA064600
:103960002868C00507D4FFF7E4FA801B0228F7D9BE
:103970004FF0030929E0B9F1000F26D1D7F88400F0
:1039800010F4407017D0616E884211D0D7F88400CF
:10399000D7F8841020F4407041F48031C7F88410C7
:1039A000D7F8841021F48031C7F88410C7F8840058
:1039B000C00740F0DF80D7F88400616E20F44070CB
:1039C00008434FF00009C7F88400B8F1000F03D195
:1039D000F86C20F08050F8642168C80705D0F86FB3
:1039E000226A20F003001043F867880705D5F86FB6
:1039F000626A20F00C001043F867480705D5F86F9D
:103A0000A26A20F030001043F867080705D5F86F68
:103A1000E26A20F0C0001043F867880605D5F86F09
:103A2000226B20F440601043F867880505D5F86FD5
:103A3000626C20F440201043F867480505D5F86F04
:103A4000A26C20F440101043F867480605D5F86FC3
:103A5000626B20F440501043F867080605D5F86FF4
:103A6000A26B20F440401043F867C80505D5F86FF5
:103A7000E26B20F440301043F867C80207D5D7F84E
:103A80009000226C20F003001043C7F890008804D7
:103A900018D5FA6F206D22F040620243B0F1806FBA
:103AA000FA6707D0B0F1006F0CD1386840F480108D
:103AB000386007E0201D012101F08AFD21680028FF
:103AC00018BF8146080318D5FA6F606D22F0406276
:103AD0000243B0F1806FFA6707D0B0F1006F0CD1EC
:103AE000386840F48010386007E0201D012101F0A3
:103AF0006FFD2168002818BF8146480318D5FA6F6A
:103B0000A06D22F040620243B0F1806FFA6707D0E7
:103B1000B0F1006F0CD1386840F48010386007E0D5
:103B2000201D012101F054FD2168002818BF8146A5
:103B3000480410D5F86FE26D20F040501043B2F108
:103B4000805FF86707D1201D022101F041FD216847
:103B5000002818BF8146C80305D5F86F216E20F0F4
:103B600000400843F867484601B0BDE8F0834FF0D5
:103B70000109DAE6FFF7DDF9064641F288354FF034
:103B8000030900BFD7F8840080073FF514AFFFF7A3
:103B9000D0F9801BA842F5D917E700002DE9F043C2
:103BA00081B0002800F0A68042F20008C4F20208AA
:103BB0000446D8F800000D4600F0070088420DD2F8
:103BC000D8F8000020F007002843C8F80000D8F813
:103BD000000000F00700A84240F08C80206841F20D
:103BE0000809C107C4F2020934D0606840B1022854
:103BF0000BD003280ED159F8081C89010ED479E0A6
:103C000059F8081C890709D474E059F8081C89037D
:103C100004D46FE059F8081C49056BD5D9F8001099
:103C200021F003010843C9F80000FFF782F90646B6
:103C300041F28837D9F80000616800F00C00B0EB61
:103C4000810F06D0FFF775F9801BB842F2D9032027
:103C500051E02068810707D5D9F80010A26821F04B
:103C6000F0011143C9F80010D8F8001001F0070165
:103C7000A9420CD9D8F8001021F007012943C8F84F
:103C80000010D8F8001001F00701A94232D1410715
:103C900007D5D9F80010E26821F4E0611143C9F8B2
:103CA0000010000708D5D9F80000216920F4605001
:103CB00040EAC100C9F8000000F020F8D9F800106F
:103CC0004EF6D622C1F30311C0F60002515C40F259
:103CD000382201F01F0120FA01F140F26820C2F2FF
:103CE00000000068C2F20002116001B0BDE8F043BC
:103CF000FFF754BD012001B0BDE8F08341F200019F
:103D0000C4F20201886810F00C02C86805D00C2AC1
:103D100027D100F00300012823D10868000703D44D
:103D2000D1F89400000A01E0086800094EF6E82383
:103D300000F00F00C0F6000353F82030002A1846A8
:103D400018BF00200C2A18BF7047C86800F0030095
:103D500002280FD0032804BF49F28063C0F2980301
:103D60000CE0042A1DD0082A20D149F28060C0F25C
:103D70009800704742F20043C0F2F403C868CA6872
:103D8000C0F30210C2F30622C96801305A43B2FBE5
:103D9000F0F0C1F34161022202EB4101B0FBF1F00E
:103DA000704742F20040C0F2F40070470020002348
:103DB000C8E700002DE9F04381B0002800F05E82E2
:103DC00041F200060446C4F20206B068F1682278A7
:103DD00000F00C08D00601F003071BD42078C007C0
:103DE0004FD0B8F1080F45D0B8F10C0F08BF032F22
:103DF00040D06068B0F5803F07D0B0F5A02F40F00C
:103E00004182306840F480203060306840F4803077
:103E1000306040E2B8F1000F1CD0B8F10C0F08BFC1
:103E2000012F17D0A1693068002900F08E8140F081
:103E300001003060FFF77DF8054600BF306880075D
:103E400000F19681FFF775F8401B02284FF0030040
:103E5000F4D914E23068800703D5A069002800F087
:103E60000D82206A3168090700F10B81D6F89410A1
:103E7000090907E13068800303D56068002800F075
:103E8000FD81207880072CD5B8F1040F1BD0B8F144
:103E90000C0F08BF022F16D0E1683068002900F02F
:103EA000098240F480703060FFF743F8054600BF98
:103EB000306840050ED4FFF73CF8401B02284FF055
:103EC0000300F5D9DBE13068400503D5E068002840
:103ED00000F0D4817068216920F0FE4040EA016062
:103EE00070602078000760D42078400774D4207870
:103EF000800600F1AB80A06A002800F053820228FF
:103F000040F04881F068E16A00F003028A4240F024
:103F10006581226B6FF00F0300F0700103EB02125A
:103F2000914240F05B81616B00F4FE42B2EB012FE5
:103F300040F05481A16B00F07842B2EBC16F40F0C9
:103F40004D81E26B0023CFF6E07303EB025200F4E5
:103F5000C0016FF31402914240F04081216C4FF098
:103F60007E4202EB016100F0C06001F07E418842B8
:103F700040F034813068800100F11482306840F0F4
:103F800080703060F06840F08070F060FEF7D1FF24
:103F900004463068800100F10582FEF7CAFF001B6D
:103FA00002284FF00300F4D969E16169D6F8940062
:103FB000002900F0B58040F00100C6F89400FEF73B
:103FC000B8FF0546D6F8940080078DD4FEF7B1FF00
:103FD000401B0228F6D94AE1B06D10F0805908D193
:103FE000B06D40F08050B065B06D00F08050009032
:103FF000009847F20007C4F200073868C00512D4E1
:10400000386840F480703860FEF793FF054600BFC3
:104010003868C00507D4FEF78CFF401B02284FF01C
:104020000300F5D92BE1A068012808D0052840F04D
:104030000281D6F8900040F00400C6F89000D6F84F
:10404000900040F00100C6F8900002E1616AD6F8E5
:104050009800002900F0DB8040F00100C6F89800CD
:10406000FEF767FF054600BFD6F8980080073FF5CA
:1040700042AFFEF75EFF401B02284FF00300F3D96A
:10408000FDE0316801F0F001884216D901F04DFBE6
:10409000002840F0F380306840F00800306030685D
:1040A000D4E9072120F0F00008433060706820F464
:1040B0007F4040EA0220706014E03168B8F1000FE0
:1040C00041F008013160316821F0F00141EA00015E
:1040D00031607168E26921F47F4141EA0221716037
:1040E00000F0C780FFF70AFEB1684EF6D622C1F392
:1040F0000311C0F60002515C40F2382201F01F01AA
:1041000020FA01F140F26820C2F200000068C2F219
:1041100000021160FFF742FB002840F0B0805DE62E
:1041200020F00100C6F89400FEF703FF054600BF2B
:10413000D6F8940080077FF5D7AEFEF7FAFE401B55
:1041400002284FF00300F3D999E020F0010030601D
:10415000FEF7EFFE054600BF306880077FF53EAEF4
:10416000FEF7E7FE401B02284FF00300F4D986E07B
:10417000306840F0080030603068D4E9072120F052
:10418000F00008433060706820F47F4040EA02206D
:10419000706023E6B8F10C0F70D0306820F08070AA
:1041A00030603068000103D4F06820F00300F06054
:1041B000F0684FF6FF71CFF6EE610840F060FEF751
:1041C000B8FE04463068800140F1EC80FEF7B1FE95
:1041D000001B03284FF00300F4D350E0B8F10C0F9C
:1041E0004CD03068400149D4306820F08070306095
:1041F000FEF79FFE05463068800140F19680FEF78D
:1042000098FE401B02284FF00300F4D937E020F05D
:104210000100C6F89800FEF78CFE0546D6F8980017
:1042200080077FF568AEFEF784FE401B02284FF042
:104230000300F3D923E0D6F89010002821F0010103
:10424000C6F89010D6F8901021F00401C6F890102E
:1042500042D0FEF76EFE054641F28837D6F8900050
:1042600080074AD4FEF765FE401BB842F6D903200A
:1042700005E001F05AFA00283FF434AF012001B004
:10428000BDE8F083316821F480313160316821F478
:1042900080213160D0B3FEF74CFE054630688003C4
:1042A0003FF5EFADFEF745FE401B64284FF00300DD
:1042B000F4D9E4E720F480703060FEF73AFE05465A
:1042C000306840057FF50DAEFEF733FE401B022837
:1042D0004FF00300F4D9D2E7FEF72BFE054641F27A
:1042E0008837D6F89000800707D5FEF722FE401BDE
:1042F000B8424FF00300F4D9C1E7B9F1000F7FF4E1
:10430000F6ADB06D20F08050B065F0E5FEF711FE1F
:104310000546306880037FF5B4ADFEF70AFE401B0A
:1043200064284FF00300F4D9A9E7F06848F28C0143
:10433000C0F29D1104F12C0700EA010C8ECF6FF042
:104340000F00D4E90F5400EB02100022CFF6E07208
:1043500041EA0C0102EB055208436FF314024FF0DF
:104360007E4540EA032005EB0465104305F07E45D9
:1043700040EAC7602843F060306840F080703060E9
:10438000F06840F08070F060FEF7D3FD04463068BE
:10439000800107D4FEF7CDFD001B02284FF003007B
:1043A000F5D96CE700206AE7B0B528B30446407938
:1043B00020B900202071204600F025F8022060710D
:1043C0002068016841F0040101604068400611D492
:1043D000FEF7AFFD054600BF2068406840070DD5D9
:1043E000FEF7A7FD401B0328F6D3042060710220CE
:1043F000A06001E0042060710120B0BD0120607167
:104400000020A060B0BD10B59CB0044602A80430E6
:104410006421FCF7DAF9206840F60001C5F20601D4
:10442000884215D14FF48020029002A8FFF754FA79
:1044300008B1FDF71CFA41F24C00C4F20200016819
:1044400041F480210160006800F48020019001980F
:104450001CB010BD10B590F83C20012A4FF00202AC
:1044600037D080F83D20026842F6004C5368D2F8FD
:1044700008E0C4F2010C624503D14C6823F47003D8
:1044800023430C6823F07003234342F6FF34C4F245
:104490000104A242536009DCB2F1804F0ED040F219
:1044A0000043C4F200039A4208D00CE044F2000337
:1044B000C4F201039A4201D0624504D189682EF00A
:1044C0008003194391600121002280F83D1080F89B
:1044D0003C20104610BDB0B110B5044690F83D0028
:1044E00028B9002084F83C00204600F00EF8022095
:1044F00084F83D002068211D01F0BCF9012084F8FA
:104500003D00002010BD0120704710B582B000684A
:1045100044F20041C4F20101884214D041F200018A
:10452000C4F20001884227D141F25800C4F20200CF
:104530000168362441F010010160006800F01000AD
:10454000019001980DE041F25800C4F20200816828
:10455000192441F400318160806800F4003000903B
:104560000098204600210022FFF731F9204602B0D2
:10457000BDE81040FFF71CB902B010BD006807226B
:10458000C168C0F2010241F00101C16081681140BF
:10459000062906D0B1F5803F03D0016841F0010142
:1045A000016000207047006841F21112C16821F0DB
:1045B0000101C160016A114208D1016A40F244421E
:1045C000114203D1016821F0010101600020704710
:1045D00040F62030C2F20000FEF703BD40F6203066
:1045E000C2F20000FEF72DBD40F66C30C2F20000B2
:1045F000FEF7F7BC40F66C30C2F20000FEF721BDBA
:10460000806A0023D0E90E128B63936390F8411007
:10461000602918BFFEF71CBD202180F84110FEF76D
:10462000DEBC806A0268516841F400431021536087
:1046300000F0D5B810B5846A2168086820F40040FD
:104640000860608DA0B1208D626A243102446262EC
:10465000608DFF2894BF638DFF23E06B2385FEF7F9
:10466000FDF9C8B120461021BDE8104000F0B7B8F0
:10467000606B44F6C36344F62542C0F60003C0F6FF
:104680000002F424984208BF60249042086808BFE2
:1046900060242043086010BD616B44F6C36320684A
:1046A00044F62542C0F60003C0F60002F424994205
:1046B00008BF60249142016808BF60242143016063
:1046C00010BD10B5846A2268106820F48040106024
:1046D000608DA0B1208D616A283201446162608DD5
:1046E000FF2894BF638DFF23A06B2385FEF7B6F9E7
:1046F000C8B120461021BDE8104000F070B8606BD2
:1047000044F6C36344F62541C0F60003C0F6000139
:10471000F424984208BF60248842106808BF6024CF
:104720002043106010BD616B44F6C363206844F6FB
:104730002542C0F60003C0F60002F424994208BFE7
:1047400060249142016808BF60242143016010BDCC
:1047500010B590F84110036801F02801282919D1FB
:104760009969D3F818E09A68D3F80CC0C468C1F30B
:104770000041022C4FEA1E4E12D18EEAD21414F0E0
:10478000060F17D01C680CF0FE0224F0B8041C6061
:1047900000230CE00821D961002180F8401010BDF1
:1047A0001A6822F0B8021A6000230EF0FE0280F8A8
:1047B000403010E0846C01348464846C022C18BF97
:1047C00010BD4FF0000C08246FF39F22C0F848C0C2
:1047D000DC6180F840C0BDE81040FEF701BC10B5B8
:1047E000002304460022CFF6FF7390F8410084F8BE
:1047F0004220E3626285626C11436164A0F128018A
:1048000094F8410002291BD800F02800282894F8C9
:1048100041004FF0F20100F0280008BF4221282893
:1048200020684FF0B40208BF04220368114323EA52
:104830000101016044F6BB71C0F6000128220DE0C1
:1048400094F841002068016821F0FE01016094F8AD
:10485000411060294FF0000102D0202284F841204D
:1048600000222263616302680168520410D40904C3
:1048700020D494F84100602833D12020002184F80E
:104880004100204684F84010BDE81040FEF7A7BB69
:1048900021F480410160A06B10B344F20161C0F6C5
:1048A00000018163002184F84010FDF7FEFFB8B1DC
:1048B000A06B11E0016821F400410160E06B78B168
:1048C00044F20161C0F600018163002184F84010C8
:1048D000FDF7EBFF20B1E06B816BBDE810400847AE
:1048E00010BD0021204684F84010BDE81040FEF7BE
:1048F000AFBB0022CFF6FF72C2620022202349071D
:10490000026380F8413080F84220426311D501688B
:10491000436A496A1970436A018D0133436241B1A8
:1049200001390185418D01394185416C41F0040116
:10493000416490F8411090F8411001680B6823F031
:10494000FE030B601023CB6180F84020FEF761BCB2
:1049500002682023D361D2F804C04EF60003CFF6DC
:10496000006303EA0C0353600023036343630023E3
:10497000CFF6FF73C906C36205D51021D161416C22
:1049800041F0040141649169890744BF00219162AB
:104990009169C90703D1916941F00101916190F8D2
:1049A0004110F22301F02801282990F8411008BF96
:1049B000422301F0280CB421BCF1280F08BF0421C8
:1049C000D2F800C019432CEA01011160416C90F843
:1049D0004120602A14D099B990F84110212912D1B0
:1049E000202180F8411090F842100022402980F8E0
:1049F000422080F8402008BFFEF7C3BDFEF72EBC62
:104A0000416CFFF7ECBE90F84110222918BF7047A7
:104A1000202180F8411090F842100022402980F8AF
:104A2000422080F8402008BFFEF7AABDFEF7F2BB87
:104A30004FF0000C80F842C090F841202023212A3A
:104A400080F8413015D111220263C0F834C090F8CB
:104A50004120016802F02802282A0A686FF0F20358
:104A600008BF6FF042031A400A6080F840C0FEF7AA
:104A7000F5BB12210163C0F834C090F841100368FF
:104A800001F02801282919686FF0F40208BF6FF0BF
:104A900044021140196080F840C0FEF7BBBBB0B5BE
:104AA0000446006820230268C36194F8413094F8FA
:104AB000413003684EF6000523F0FE0303604368AF
:104AC000CFF6006543F40043436043682B404360E6
:104AD00083690D469B0744BF002181628169C90734
:104AE00003D1816941F001018161510403D41104B2
:104AF00006D5E16B00E0A16B11B1096849686185D9
:104B000069070ED5406A616A25F004050870606A7D
:104B1000411C208D616220B101382085608D0138F3
:104B20006085608D18B1606C40F004006064002006
:104B3000206384F842006063606C70B1616C204651
:104B4000FFF74DFE94F84100282818BFB0BD20465D
:104B50002946BDE8B040FFF7CCBEE06A10F5803FC3
:104B60000ED194F84100202184F841100021222820
:104B7000204684F8401015D1BDE8B040FEF7FEBDD8
:104B800000252046CFF6FF7500F010F82020002108
:104B9000E56284F84100204684F84010BDE8B0404A
:104BA000FEF737BBBDE8B040FEF7E9BD4FF0000CA3
:104BB00080F842C090F84120292A16D1282280F896
:104BC00041202122026390F84120016802F028026E
:104BD000282A0A686FF0F20308BF6FF042031A40F8
:104BE0000A6080F840C0FEF7CABD90F841102A293B
:104BF00018BF7047282180F841102221016390F8E6
:104C00004110036801F02801282919686FF0F402A7
:104C100008BF6FF0440211401960002180F8401075
:104C2000FEF7ACBD10B5044690F84000012804BF63
:104C3000022010BD02EA01004FF0010CC30684F807
:104C400040C01AD40B063FD512F040023CD0206879
:104C5000016821F040010160628D4168002A4AD05C
:104C6000628D6FF39F21B2F5807F4FD34FF0FF0E1F
:104C7000A4F828E04FF0807C54E020681022616B9B
:104C8000C261626C44F6C36342F0040244F6254CF0
:104C9000C0F600036264C0F6000CF422994208BF1B
:104CA00060226145016808BF60221143016081698B
:104CB000890744BF002181628169C9074ED181699A
:104CC00041F00101816149E0420605D4800645D5E5
:104CD0002046FFF73DFE41E0608D90B920684168B5
:104CE00089013BD4E16A11F5803F06D1416841F466
:104CF0008041416032E0880103D42046FFF798FEEE
:104D00002CE020464021FFF76AFD27E0B4F82AE0B6
:104D1000A4F828E0E36A13F5803F14BFD4F82CC050
:104D20004FF0007C436849F60042CFF600421A403B
:104D30005FFA8EF341EA034142EA0C0211434160FB
:104D4000618DA1EB0E01618594F841200168222A52
:104D500014BF41F4804141F400410160002084F817
:104D6000400010BD70B5044690F84000012804BF13
:104D7000022070BD0D4602EA050016460121C2065A
:104D800084F8401015D4410727D481072FD4290671
:104D900045D516F0400142D0608D10B1208D00281D
:104DA00046D02068406880013DD42046FFF740FE91
:104DB00029E020681021C161616C41F00401616447
:104DC0008169890744BF002181628169C9071AD1BD
:104DD000816941F00101816115E02068616A406AE2
:104DE00025F004050870606A218D013005E0606AD5
:104DF000216810F8012B8A62218D6062481E20858F
:104E0000608D0138608506EA0500800603D52046DE
:104E10002946FFF79DFD002084F8400070BD400644
:104E2000F1D5608DD0B120464021FFF7D8FCEAE7EC
:104E300020684168628D6FF39F21B2F5807F19D39E
:104E4000FF222285426849F60043CFF600431A400C
:104E5000114441F0807141F47F0130E020684168E5
:104E60008901D0D4E16A11F5803F9ED1416841F4B7
:104E7000804124E0628D2285E36A13F5803F0ED1E4
:104E8000D0F804C049F60043CFF60043D2B203EA9B
:104E90000C0341EA0241194401F100710FE0D4F81A
:104EA0002CC0D0F804E049F60043D2B2CFF600435C
:104EB00041EA024103EA0E0341EA0C011943416051
:104EC000A1E72DE9F0410446D0F82C8090F840008D
:104ED000012804BF0220BDE8F08102EA010716465E
:104EE0000D460120B90684F8400003D52046294626
:104EF000FFF7D5FDF80605D4380759D52046FFF74A
:104F000027FC55E016F4404F0ED0300406F48040E4
:104F10000ED5E16B61B10968496810B3A06B00B3AD
:104F2000B1FA81F1490907E020681021C1613FE031
:104F300030B1A06B20B100210068406898B191B9F0
:104F400020681021C161606C6FF0807118EA010F58
:104F500040F0040060642BD1616C2046FFF73FFCF9
:104F600026E00029ECD194F84100282808BFB8F1C8
:104F7000007F19D094F84110206810222929C261BD
:104F800016D118F5803F13D08169890744BF0021ED
:104F900081628169C90703D1816941F001018161A1
:104FA0002046FFF703FE03E020462946FFF7A1FC59
:104FB000002084F84000BDE8F081F0B581B00446DF
:104FC000C66A90F84000012801D102207AE002EA86
:104FD00001070D460120B90684F8400003D520469C
:104FE0002946FFF75CFDF80615D4780725D4380765
:104FF0005DD4B80763D5608D002865D0606A2168EC
:1050000010F8012B8A626062608D01386085208D06
:105010000138208553E0608D48B320681021C161BC
:10502000606C6FF080710E4240F00400606446D105
:10503000616C2046FFF7D3FB41E0608D60B12068D2
:10504000616A406A0870606A218D01306062481EA2
:105050002085608D01386085608D80BB0020CFF693
:10506000FF7086422BD02046FFF7A0FD27E094F882
:105070004100282808BFB6F1007F1CD094F84110E9
:10508000206810222929C26119D10021CFF6FF71B1
:105090008E4214D08169890744BF002181628169F1
:1050A000C907E0D1816941F001018161DBE7204658
:1050B000FFF74EFB03E020462946FFF71AFC0020CD
:1050C00084F8400001B0F0BD6FF080700642F6D168
:1050D000C9E700002DE9F04381B08146006815461C
:1050E00082690E461140891BB1FA81F14909A94232
:1050F00016D1DDF820801F465C1C00BF44B1FDF7CF
:1051000018FF7FB1A0EB0800B8420BD8D9F8000017
:1051100081693140891BB1FA81F14909A942EDD079
:1051200000200EE0D9F8440040F02000C9F8440007
:10513000202089F84100002089F8420089F84000C9
:10514000012001B0BDE8F083B0B586B068461821F3
:10515000FBF73BFB40F6EC000021C2F20000C5F279
:1051600004014FF48022002480E816004FF480717F
:10517000082501834FF480510123456106254163D1
:10518000102100F13C0CC0E90343C56180F82040C8
:10519000C0E90A4480F8303080F8383080228CE84A
:1051A00016008364FCF778FD08B1FCF760FB022071
:1051B000C0F23040CDE90005022002907F2003902C
:1051C0000420CDE9040440F6EC00C2F20000694678
:1051D000FCF7ACFB08B1FCF74AFB0420C0F660000A
:1051E00000900C20019040F6EC00C2F200006946ED
:1051F000FCF79CFB08B1FCF73AFB0820C0F6904096
:1052000000901220019040F6EC00C2F200006946C6
:10521000FCF78CFB08B1FCF72AFB1020C1F2C000A0
:1052200000901820019040F6EC00C2F200006946A0
:10523000FCF77CFB08B1FCF71AFB2020C1F2F04020
:1052400000904FF48070019040F6EC00C2F2000034
:105250006946FCF76BFB08B1FCF709FB4020C1F67F
:10526000201000904FF48370019040F6EC00C2F2E1
:1052700000006946FCF75AFB08B1FCF7F8FA06B0E3
:10528000B0BD10B540F6541046F20041C2F2000025
:10529000C4F2000140F200140A220023C0F20114FB
:1052A00080E80E0000F10C014FF4803C4FF4800EBA
:1052B00081E8085084618383FDF75CF918B1BDE88B
:1052C0001040FCF7D4BA10BD80B582B041F248005E
:1052D000C4F202000168002241F00101016001688E
:1052E00001F0010101910199016841F002010160A1
:1052F0000068002100F00200009000980B20FEF7EB
:1053000066FA0B20FEF754FA0E2000210022FEF769
:105310005EFA0E20FEF74CFA0F2000210022FEF765
:1053200056FA0F20FEF744FA102000210022FEF763
:105330004EFA1020FEF73CFA112000210022FEF761
:1053400046FA1120FEF734FA442000210022FEF72D
:105350003EFA4420FEF72CFA452000210022FEF7F9
:1053600036FA452002B0BDE88040FEF721BA2DE9AB
:10537000F04F87B0002741F24C00CDE90577C4F229
:105380000200016840F2004B41F004010160016835
:10539000C4F6000B01F004010191019901680BF5BD
:1053A000806541F0020101600168002201F0020104
:1053B00001910199016843F2F03A41F00101016065
:1053C000016801F0010101910199016841F080013A
:1053D0000160016801F0800101910199016841F0CB
:1053E00008010160006843F2F03100F0080001900C
:1053F00001982846FDF797FD4FF090404FF400616B
:1054000000224FF40069FDF78EFD584648F603016F
:10541000002248F60308FDF786FD4FF4484002AE2F
:105420000290032428463146CDE90347FDF79EFC50
:10543000CDF808A04FF0010A28463146CDE903A770
:105440000597FDF793FC41F23C0002A991C1584633
:105450003146FDF78BFC49F2F01002A991C14FF0E3
:1054600090403146FDF782FC0B2002A991C10BF55B
:10547000C0503146FDF77AFC042002A991C10BF51A
:1054800000603146FDF772FC4FF48060029000200E
:10549000C1F21100CDE9030728463146FDF766FC4D
:1054A0004FF090403146CDE9029ACDE90477FDF7FF
:1054B0005DFC58463146CDE9028ACDE90477FDF717
:1054C00055FC4FF40050CDE9020758463146049789
:1054D000FDF74CFC07B000F000B830BCBDE8C08F51
:1054E00010B540F6203445F2004042F69111C2F268
:1054F0000004C4F20000C0F270010022012384E81D
:105500000F0004F110001421FBF75FF92046FDF7AE
:10551000A0FD08B1FCF7ABF940F62030C2F2000064
:105520000021FDF713FD08B1FCF7A1F940F620308A
:10553000C2F200000021FDF72EFD18B1BDE81040B9
:10554000FCF795B910BD10B540F66C3445F6000077
:1055500042F69111C2F20004C4F20000C0F27001E0
:105560000022012384E80F0004F110001421FBF74E
:105570002CF92046FDF76DFD08B1FCF778F940F6EF
:105580006C30C2F200000021FDF7E0FC08B1FCF72E
:105590006EF940F66C30C2F200000021FDF7FBFC12
:1055A00018B1BDE81040FCF762B910BD80B540F6F7
:1055B000B83040F60001C2F20000C5F206010160F9
:1055C000FEF7F2FE18B1BDE88040FCF750B980BD8F
:1055D000F0B581B041F20007C4F20207FA680D4647
:1055E0009107044613D0F868216800F00300884250
:1055F0004FF0010040F09780002900F09480F86897
:105600006168C0F30210013088422FD130E0206879
:1056100003280BD0022814D0012827D13968012291
:1056200011F0020182EA510114D11EE039688903A8
:105630000FD43968012211F4802182EA914109D105
:1056400013E03968012211F4806182EA912101D1CD
:105650000BE00021FA68636822F073026FF00F0616
:1056600006EB031310431843F86009B101205AE018
:10567000386820F080603860FDF75BFC064600BFAC
:105680003868000105D5FDF754FC801B0228F7D9C6
:1056900042E0012D0DD0F5B9386948F2FF01C0F2A2
:1056A000FF710840D4E9021240EA012040EAC260DA
:1056B00022E048F2FF013869CFF6FF11226900238A
:1056C00001F1B461CFF6E0730840A16803EB025228
:1056D0006FF314020DE0386948F2FF016269CFF6FA
:1056E000FF114FF07E430840A16803EB026202F015
:1056F0007E4240EA012010433861386840F0806003
:105700003860FDF716FC05463868000106D4FDF741
:1057100010FC401B0228F7D9032004E0A069396976
:1057200008433861002001B0F0BDB0B582B041F24D
:105730005805C4F2020529680446C9000FD4286838
:1057400040F080502860286800F080500190019857
:10575000FEF7BAF8296821F08051296001E0FEF7D0
:10576000B3F8B0F5007F06D1812C08D30120A02C1E
:1057700088BF02200DE0802C03D9032009E000201F
:1057800007E0A4F17000B0FA80F04009802C08BF57
:10579000022042F20001C4F202010A6822F007026C
:1057A00002440A60096801F00701081A18BF0120C5
:1057B00002B0B0BD4EF60850CEF20000D0F8801016
:1057C0004FF0000C41F47001C0F8801041F200016C
:1057D000C4F202010A6842F001020A60C1F808C07E
:1057E0000B684FF6FF72CEF6F6221A400A604FF4AD
:1057F0008052CA600A6822F480220A60C1F818C088
:105800004FF000610160704740F6C830C2F20000FE
:1058100001680869C0071ABFC8685FEAC0707047AE
:105820006FF001020E200A6100F0F9BE40F6084058
:10583000C2F2000001680869C0071ABFC8685FEAC1
:10584000C07070476FF001020F200A6100F0E7BEE0
:1058500040F64840C2F2000001680869C0071ABF5C
:10586000C8685FEAC07070476FF0010205200A61E6
:1058700000F0D5BEB0B5036842F6004EB0F1804FDF
:10588000C4F2010E18BF704535D14A6823F0700389
:10589000134342F6FF32C4F2010244F2004C90423C
:1058A000C4F2010C08DD70450FD060450DD044F204
:1058B0000002C4F2010206E0B0F1804F05D040F2D0
:1058C0000042C4F20002904203D1CA6823F440733C
:1058D00013434C6923F080020B688D6822437045A6
:1058E0000260C562836218BF60450BD1096901631C
:1058F00001214161B0BD40F20042C4F20002904279
:10590000C3D0C6E744F20002C4F201029042EDD0D7
:10591000EEE710B540F2184040F64051C2F20000E8
:10592000C0F203010024C0E9001440F2204149F60E
:10593000A30040F20002C2F20001C0F60000C0F66F
:105940000002C1E900448C60FAF713FF40F23440D2
:10595000C2F200000460C0F8034040F23C4041F64F
:105960001F71C2F20000C0F20101016041F61F7117
:1059700081800A21816045F20151818110BDB0B55D
:1059800040F28464C2F200041F2020800025A01D84
:105990003021A570C4E90E0525716571FBF75FF92B
:1059A000C4E91055B0BD000070B540F2F864C2F211
:1059B0000004002504F1A40644F8045B201D19210D
:1059C00025706570C4E90855FAF7FFFE2834B44223
:1059D000F4D170BD80B540F6880CC2F2000C41F6DF
:1059E0001F7E0CF118020A2345F201500CF16001F0
:1059F000ACF813E0A2F800E0536010810C328A4248
:105A0000F8D100208CF801008CF800001F208CF8E1
:105A1000120080BD80B540F2B471C2F2000141F6BF
:105A20001F7CC0F2010C41F61F7E0A2245F2015391
:105A300001F16000C1F800C0A1F804E08A608B8128
:105A400010318142F6D16C21FAF7BFFE80BD000013
:105A500040F2D060C2F200001F21021D034600BFC9
:105A600023F8021B9342FBD100210022818000BF5A
:105A700083181032202A19615961F9D1704700004A
:105A800080B540F2405C0020C2F2000C4FF47A7EF8
:105A9000012300210CEB01021431B1F5A07FC2F803
:105AA00004E01372D0601061F4D180BD80B540F283
:105AB000E841C2F2000100200A4642F8040F886063
:105AC0000A6049F61B0040F20002C0F60000C0F672
:105AD0000002FAF74EFE45F61930C0F60000BDE8A8
