:020000040800F2
:10000000C8BC0020350400083D0400083F04000877
:1000100041040008430400084504000800000000F3
:10002000000000000000000000000000ED020008D9
:100030004904000800000000A503000809040008A6
:100040004F0400084F0400084F0400084F04000844
:100050004F0400084F0400084F0400084F04000834
:100060004F0400084F0400084F040008331800082C
:100070004F0400084F0400083F1800084B18000800
:1000800057180008631800084F04000827180008D4
:100090001B1800084F0400084F0400084F04000814
:1000A00075560008995600084F0400084F040008D0
:1000B0004F0400080000000000000000B7440008E2
:1000C000AB440008CF440008C34400084F040008B4
:1000D0004F0400084F0400084F0400084F040008B4
:1000E0004F0400084F04000800000000000000005A
:1000F0000000000000000000000000000000000000
:10010000000000004F040008000000004F04000839
:100110000000000000000000BD560008E156000885
:100120004F0400084F0400084F0400084F04000863
:100130004F04000800000000000000000000000064
:100140004F0400084F0400084F0400084F04000843
:100150004F0400084F0400084F0400084F04000833
:100160004F0400084F0400084F040008000000007E
:100170004F0400084F0400084F0400084F04000813
:100180004F0400084F0400084F04000800F002F874
:1001900000F068F80AA090E8000C82448344AAF1B9
:1001A0000107DA4501D100F05DF8AFF2090EBAE8B7
:1001B0000F0013F0010F18BFFB1A43F0010318479B
:1001C000A4EE0000C4EE00000A4410F8014B14F045
:1001D0000F0508BF10F8015B240908BF10F8014B98
:1001E0006D1E05D010F8013B6D1E01F8013BF9D1E1
:1001F000641E03D0641E01F8015BFBD19142E4D37D
:10020000704700000023002400250026103A28BF74
:1002100078C1FBD8520728BF30C148BF0B60704778
:1002200066290EF0EA84782900F01082732900F024
:100230009387002070471FB50EF0D2FC9DE80300A5
:1002400000F011FB01F033F80400002000210EF053
:1002500019FAE06001F0C2F91FBD10B5002000F0EE
:100260007FFF10BD00F0FEFF1146FFF7E4FF09F02D
:1002700010FE01F019F903B4FFF7EFFF03BC00F023
:10028000CFFA000080F309887047EFF309807047C8
:10029000684680F3098804480078C00714BF02202C
:1002A000032080F31488704770010020DFF818C025
:1002B000EFF305831B0618BF6047EFF31483DB07DA
:1002C00008BF604700DF704741C80008DFF818C06A
:1002D000EFF305831B0618BF6047EFF31483DB07BA
:1002E00008BF604700DF7047B9C80008EFF3098016
:1002F000816911F8021CE1BB90E80F1010B5E047CE
:10030000BDE81040EFF3098C8CE80700214B93E81F
:100310000600914208BF704741B91EF0100F16D178
:100320001D49086820F00100086010E01EF0100F61
:1003300006BF2CED108A0120002081F838002CE93E
:10034000F00FC1F83CC00CB40DF09EFE0CBC1A605E
:10035000D2F83CC0BCE8F00F92F8380000280EBF7D
:100360006FF0020E6FF0120E00F058B88CF309888F
:10037000704710B5094A1268914209D8084C54F8E0
:10038000214090E80F10A047EFF3098C8CE80F0094
:1003900010BD0000C800002034EF00E0A8A700084E
:1003A000A8A7000810B50DF069FDBDE81040154B79
:1003B00093E80600914208BF7047EFF3098C1EF0E6
:1003C000100F06BF2CED108A0120002081F83800A4
:1003D0002CE9F00FC1F83CC00CB40DF055FE0CBC7C
:1003E0001A60D2F83CC0BCE8F00F92F83800002840
:1003F0000EBF6FF0020E6FF0120E00F015B88CF306
:1004000009887047C800002010B50DF061FECCE7E8
:1004100010B50BF03FFA0DF05BFEC6E7BCEC088AA6
:10042000BCEC08CAFFF7A2BFBCEC088ABCEC08CA47
:10043000FFF7E5BF0948804709480047FEE7FEE7A8
:10044000FEE7FEE7FEE7FEE7FEE7FEE7FEE7FEE784
:1004500004480549054A064B70470000215600082C
:100460008D010008C80C0020C8BC0020C88C0020EA
:10047000C88C002000487047AC03002070B5A0FB7A
:100480000140B4F1805170F1000024BF002070BD24
:10049000204600F060FA05001CBF214600F0DFFB9B
:1004A000284670BD70B516460D46041F002808BFCB
:1004B00070BD002E1CBF05F10C0009F05BFC2B4643
:1004C0005868002818BFA04238BF0346F8D31968FF
:1004D000CA18A24218BF5C6003D122681C461144AE
:1004E000196021680A19824218BF606004D142680D
:1004F0006260006808442060002E1CBF05F10C00FB
:1005000009F03CFC70BD10B5044600F08FF901689D
:100510002046BDE810400122C4E753EA020C00F077
:1005200069802DE9F04B4FF00006002B1FBFB3FA96
:1005300083F503FA05F424FA05F65E4012BF16436C
:10054000B2FA82F502FA05F4C5F120051EBF22FABF
:1005500005FC44EA0C04203556EA044C4FEA1444E6
:1005600018BF641C4FF000084FF00009904271EB77
:10057000030C39D3002919BFB1FA81F701FA07F644
:10058000B0FA80F700FA07F6C7F120071EBF20FA7D
:1005900007FC46EA0C062037B6FBF4FCA7EB050780
:1005A000103F07F01F0BCBF120062CFA06F60CFAD1
:1005B0000BFB44BFB3460026202FA4BF5E464FF07E
:1005C000000B5BEA060C08BF4FF0010B19EB0B099F
:1005D00048EB0608ABFB027C06FB02CC0BFB03CC12
:1005E000C01B71EB0C01C1E70B4602464146484671
:1005F000BDE8F08B13B5084318BF4FF0FF3001463C
:10060000AFF30080BDE81C40704700000FB41CB57C
:100610000C0007AA009007D04142A14202D3204417
:10062000401E01E04FF0FF30074B7B4469460190CC
:10063000069800F022FA0021002C01D0009A1170D7
:100640001CBC5DF814FB00007304000070B5044688
:100650000D4621461068AFF300802188090502D5B8
:100660000F4A7A4402E00E4A7A440E32002104F125
:10067000240305E000F00F060009965D5E54491C56
:100680000028F7D120780023000704D5702D02D070
:1006900009B1022311322046BDE8704000F08EB946
:1006A00098E500002DE9F0410F460546002028623C
:1006B0002846E968884770B3252805D0D5E9012187
:1006C0009047286A401CF2E7E968284600268847D8
:1006D0006C2804460AD0682C08D04C2C35D06A2CE3
:1006E00031D0742C31D07A2C2FD016E0E968064630
:1006F00028468847B042044608D16C2E23D04FF4D8
:1007000080662846E9688847044606E06C2E03D0D8
:100710004FF4807601E01EE04026E4B1A4F14100F0
:10072000192802D8203446F400663A462146284665
:100730002E60FFF775FD60B1012808D0FF1D27F07E
:1007400007070837B4E78026DBE70026D9E73F1D17
:10075000AEE72046B2E7286ABDE8F08110B5002078
:1007600000F0BDF9FFF779FDBDE81040012000F071
:1007700057B80B460146184600F09AB910B5431C0D
:1007800002E010F8011B71B18107FAD14FF001327C
:1007900002C88C1A8C4314EAC211F9D0C01A0A0696
:1007A00003D0C01E10BDC01A10BD0A0401D0801EA7
:1007B00010BD0902FCD0401E10BD02F0FF0343EA49
:1007C000032242EA024200F04CBA4FF0000200B5A8
:1007D000134694469646203922BFA0E80C50A0E864
:1007E0000C50B1F12001BFF4F7AF090728BFA0E812
:1007F0000C5048BF0CC05DF804EB890028BF40F8DE
:10080000042B08BF704748BF20F8022B11F0804F1F
:1008100018BF00F8012B7047704770477047000001
:1008200001491820ABBEFEE72600020010B5FFF715
:1008300021FE083010BD704770477047704738B5CB
:1008400004460A4600206946AFF30080002808BF2E
:1008500038BD02460099204600F039FA012038BD23
:10086000012000F0BBBCF8B5AFF3008005460020C6
:100870000C46102000BF0646A819A0420DD93246EA
:1008800069460020AFF30080070008BF00F0A6FC17
:100890000098A04218BF0546C419FFF7C7FF0560BE
:1008A0000746F01D20F007004619284600F0FFF922
:1008B000B44208BFF8BDA21B31463868BDE8F84015
:1008C00000F005BA0844401E491E884370470821BD
:1008D000001DF7E72DE9F04117460E460446FFF7E5
:1008E000F6FFA042054633D9002F1CBF06F10C00CD
:1008F00009F040FA30467468F4B12168A94217D370
:1009000005F1080291423CBF6168416007D362680B
:1009100061194A602268521B0A6041602560002FFD
:100920001CBF06F10C0009F029FA201DBDE8F0817A
:1009300020466468002CE0D129463046FFF77FFF4F
:100940000028D7D1002F1CBF06F10C0009F016FAC1
:100950000020BDE8F08110B50446FFF767FF01688D
:100960002046BDE810400122B4E770B50C460546AC
:10097000012A05D02878800600D5EA69002302E024
:10098000012305E05B1C934202D2E05C0028F9D110
:10099000A869E618C01AA861286A1844286228467F
:1009A000AFF3008004E0D5E9012114F8010B904772
:1009B000B442F8D32846AFF3008070BD2DE9F0476C
:1009C0000D4699469246044600F1240801688806BF
:1009D00004D5E06921F01001216000E00120A84267
:1009E00001DD471B00E00027A1697A1902EB09002D
:1009F000081AA0612078C00602D42046AFF3008018
:100A0000002608E0D4E901211AF806009047206A80
:100A1000401C761C20624E45F4DB2078C0060AD5C7
:100A20002046AFF3008006E0D4E901213020904752
:100A3000206A401C2062381EA7F10107F4DC07E0A1
:100A4000D4E9012118F805009047206A401C206273
:100A5000281EA5F10105F3DC2046AFF300802078C5
:100A6000000602D50220BDE8F0870120FBE7000068
:100A700001694A1C02610878704700B58FB0CDE962
:100A800001310021059105497944CDE90310114652
:100A90006846FFF707FE0FB000BD0000E5FFFFFF4F
:100AA000D1E900239A4202D2531C0B6010707047A8
:100AB0002DE9F041074615460E461020FFF74BFF83
:100AC00004000AD06760C4E9026500F0EBF8016831
:100AD000216004600020BDE8F0810120FBE710B533
:100AE00000F064FBBDE8104000F05BBB032A40F25D
:100AF000308010F0030C00F0158011F8013BBCF1C0
:100B0000020F624498BF11F801CB00F8013B38BFD7
:100B100011F8013BA2F1040298BF00F801CB38BFE5
:100B200000F8013B11F0030300F06780083AC0F0C1
:100B3000088051F8043B083A51F804CBA0E80810AB
:100B4000F5E7121D5CBF51F8043B40F8043BAFF3DE
:100B50000080D20724BF11F8013B11F801CB48BF38
:100B600011F8012B24BF00F8013B00F801CB48BF6E
:100B700000F8012B7047431A28BF9A427FF6B6AFA0
:100B800010441144032A40F2268010F0030F1EBFC8
:100B900011F8013D521E00F8013D10F0030F7FF4E3
:100BA000F6AF11F0030300F03383083AC0F00B8076
:100BB00051F8043D083A51F804CD40F8043D40F89E
:100BC00004CDFFF7F3BF121D5CBF51F8043D40F8A0
:100BD000043DAFF30080D20724BF11F8013D11F8A6
:100BE00001CD48BF11F8012C24BF00F8013D00F8E9
:100BF00001CD48BF00F8012C704710B5203AC0F075
:100C00000B80B1E81850A0E81850B1E81850A0E8DF
:100C10001850203ABFF4F5AF5FEA027C24BFB1E878
:100C20001850A0E8185044BF18C918C0BDE81040BB
:100C30005FEA827C24BF51F8043B40F8043B08BFC4
:100C40007047D20728BF31F8023B48BF11F8012B8B
:100C500028BF20F8023B48BF00F8012B70474FF037
:100C600000020429C0F0128010F0030C3FF4AFAD75
:100C7000CCF1040CBCF1020F18BF00F8012BA8BF87
:100C800020F8022BA1EB0C01FFF7A1BD5FEAC17CAC
:100C900024BF00F8012B00F8012B48BF00F8012BFE
:100CA0007047704710B5FFF7E5FB383010BD0021E5
:100CB0000160C0E901100C3009F05EB810207047E7
:100CC000801A0844401E491E88431044704770B57E
:100CD000144605468C464368002B18BF634538BF51
:100CE0001846F8D302681044604508D0664660464E
:100CF00004220821FFF7E4FF811B8446641A294679
:100D0000CCF80040BDE8704000220CF10400FFF771
:100D1000C9BB2DE9FF4F0C461E464FF0FF378BB085
:100D2000D2E90001DDF860800A908A46C1F30A55D5
:100D300005B93D46002108464FF00000BAF1000F0A
:100D400000F4400005DA00EB80004FF4400101EAB6
:100D500050004FEA9059B9F1010F00DDB9460A98E9
:100D600050EA4A000ED044F61050A5F2FF35454334
:100D70002F14B8F1000F1ED07542291E1EDDC9F1D7
:100D800000021CE0B8F1010F4FF0000001D030214B
:100D900003E0F24305E02154401CB042FBDB304647
:100DA0000022002121540B99C1F80880C1E90020DC
:100DB0000FB000F0BCB9BD1B6D1CDEE74A4600DA7F
:100DC000694206A800F0FEFA06AB93E8070003AB01
:100DD00083E8070050460A9909F01EF98DE80700DC
:100DE000A0F500501F3800900398002D0ADD42F254
:100DF0001F014A460844002303A90390684609F0EE
:100E000087FB09E0A0F500504A461F38002303A9DC
:100E10000390684609F091FB8DE807000004000C80
:100E200003D04FF0FF30410800E01046B8F1000F4A
:100E300003D00022009215461EE0751E05D400F076
:100E40003BFA303262556D1EF9D5B3460122084394
:100E500002D000227F1C04E02078302801D100223B
:100E60007F1E002A099784D01DE0112D07DA00F0BB
:100E700023FA303262556D1C50EA0102F5D1084365
:100E800002D00098C8B10EE00021681E05E0235C86
:100E9000625C63542254401E491C8142F7DBAB461E
:100EA000A81B401E0990002004F80B000B98099A1B
:100EB000C0F80880C0E9002B7AE711264FF000083F
:100EC00057E72DE9F04F88460446D21D22F007016E
:100ED00091B0D1E90001CDE90A0109F070FC0246A8
:100EE0000B98C00F01D02D2007E02068810701D5A5
:100EF0002B2002E0202101EAC000032A099001D042
:100F0000072A05DB03464146204600F01BFA0BE1A9
:100F10002078800601D5E06900E00620B8F1650F71
:100F2000814606D0B8F1660F18D0B8F1670F70D1BE
:100F300031E00020B9F1110F009001DB112301E035
:100F400009F101030AAA01A90CA8FFF7E2FEDDE9F5
:100F50000C70002609F10105834647E001204B464D
:100F600000904FF000470AAA01A90CA8FFF7D1FE94
:100F7000DDE90DB00C995D46002610B909F10100BC
:100F80000D18B9EB050003D4C0F1FF3609F10105D6
:100F9000A5EB09002BE0B9F1010F01DA4FF00109CF
:100FA0000020B9F1110F0090484601DD112300E047
:100FB00003460AAA01A90CA8FFF7ABFEDDE90C70F5
:100FC0004D4600268346207800070AD4AB4500DA58
:100FD0005D4601A8012D04DD411911F8011C3029DD
:100FE00007D04F4502DA17F1040F04DA01208246D8
:100FF0000FE06D1EEEE7002F02DCED1B3E4403E028
:10100000781CA84200DD7D1CB81B00F1010A4FF0DE
:1010100000472078000703D4AA4501DB4FF0FF3AD0
:101020000021B7F1004F0DF143088DF8431024D093
:1010300002202B23002F01DA7F422D230A21021EDA
:10104000A0F1010000DC5FB197FBF1FC97FBF1F22E
:1010500001FB1C7C17460CF1300C08F801CDEEE7C3
:10106000A8F1010003702188090501D5452100E0A0
:101070006521A0F1010800F8011C09980FA9A1EB56
:101080000807FF1D00B10120411901EBEA70A169B9
:101090003844081A401EA0612078C00602D42046B9
:1010A000AFF30080099828B1D4E901219047206A64
:1010B000401C20622078C00622D52046AFF3008075
:1010C0001EE0002E04DBB34502DD01A8805D00E0D8
:1010D0003020D4E901219047206A401C2062761C10
:1010E000AAF101005FEA000A0AD100F0E0F8C06846
:1010F0000168405CD4E901219047206A401C2062CD
:10110000281EA5F10105DCDC07E0D4E9012118F86F
:10111000010B9047206A401C2062381EA7F101078E
:10112000F3DC2046AFF30080032011B041E630BC71
:10113000BDE8C08F10B5436913B1AFF3008001E083
:10114000FFF713FC012010BD127800F124010A7092
:1011500000224A700122EDE711684FF0FF32E9E703
:101160002DE9F0410646FFF79DFD8046454613E018
:1011700016B1E068B0420ED120682860D4E90101C0
:10118000D8F8007088472046FFF7BDF9D8F800006E
:10119000B842EBD100E025462C68002CE8D1BDE830
:1011A000F081002801D0FFF73BBB704710B500214C
:1011B00002A000F082F9012010BD00005349474110
:1011C0004252543A2041626E6F726D616C207465B8
:1011D000726D696E6174696F6E00000010B500F089
:1011E00085F9BDE81040FFF7DCBF431A28BF9A42DB
:1011F0007FF603AD1044114410F0030F1EBF11F829
:10120000013D521E00F8013D10F0030F7FF4F6AFD0
:10121000103AC0F00A8010B531E9185020E9185092
:10122000103ABFF4F9AFBDE81040530724BF31E9CD
:10123000081020E9081044BF51F8043D40F8043D6F
:1012400012F0030F08BF7047D20728BF31F8023DE4
:1012500048BF11F8012C28BF20F8023D48BF00F814
:10126000012C70477546FFF705F9AE460500694643
:10127000534620F00700854618B020B5FFF7E8F880
:10128000BDE820404FF000064FF000074FF0000887
:101290004FF0000BAC46ACE8C009ACE8C009ACE8C4
:1012A000C009ACE8C00921F007018D46704710B5B0
:1012B000FFF7E0F8203010BD30B5B0F10A0271F14F
:1012C00000034FEA900E4EEA817EB0EB0E0061EB18
:1012D00091014FEA101E4EEA017E10EB0E0041EB29
:1012E00011114FEA102E4EEA016E10EB0E0041EB89
:1012F00011214FEA104E4EEA014E10EB0E0041EB69
:101300001141401841F100014FEAD00040EA41701C
:101310004FEAD1014FEA810444EA907410EB800552
:1013200044EB01046D1944EB0404521BA3414FF03C
:10133000000348BF0A3200D530BD401C41F1000116
:1013400030BD00002DE9F0411F4604460326016828
:10135000072A01F4006004DB08B116A505E016A514
:1013600003E008B115A500E015A521F010002060EC
:10137000A069C01EA0610FB1401EA0612046AFF35E
:1013800000804FB1D4E9012138469047206A401CC3
:101390002062C01C206206E0206AFAE7D4E901213D
:1013A00015F8010B9047761EF8D22046AFF3008067
:1013B000BDE8F0814E414E006E616E00494E460020
:1013C000696E66002DE9F047814616468AB03548B9
:1013D00078440DC88DE80D0032487844801C03AC79
:1013E0000DC884E80D0041F69B300844372190FB7E
:1013F000F1F290FBF1F5A5F1800501FB12041B3C15
:1014000002D56442012000E00020DFF898A0804669
:101410000027FA44AAF1BE0A0EE0E0070AD03246DD
:10142000684607EB470101230AEB810109F085F8C3
:101430008DE8070064107F1C002CEED1194F7F440B
:10144000AE3F19E0E80715D007EB04100DF1180ABC
:1014500090E80E008AE80E00C068F04201D19819A9
:1014600008903246012306A903A809F066F803ABE9
:1014700083E807006D10641C002DE3D14FF00103D9
:1014800032466946B8F1000F03A802D009F040F8CF
:1014900001E009F052F8C9E90001C9F808200AB0D2
:1014A000BDE8F087D0D8000010B50446AFF3008047
:1014B0002046BDE81040FEF7DEBE70B505460C467E
:1014C0000A2000E06D1C00F039F835B128780028BA
:1014D000F8D102E0641C00F031F814B12078002843
:1014E000F8D1BDE870400A2000F028B810B50128F6
:1014F00005D0002103A0FFF7E0FF012010BD09A1E6
:10150000F8E7000053494752544D454D3A204F7576
:1015100074206F662068656170206D656D6F7279EB
:10152000000000003A2048656170206D656D6F72A3
:101530007920636F727275707465640008B56946CE
:101540008DF800000320ABBE08BD000000000000C5
:1015500030B44FF0013C50F8042B51F8043BCCFA66
:1015600052F4D51A20D1FCB950F8042B51F8043BA1
:10157000CCFA52F4D51A17D1B4B950F8042B51F85B
:10158000043BCCFA52F4D51A0ED16CB950F8042BA6
:1015900051F8043BCCFA52F4D51A05D1002CDAD01C
:1015A00030BC4FF00000704729BAB1FA81F111F058
:1015B0001801D1F120008440F2D1CA40CB4012F092
:1015C000FF0213F0FF0330BCD01A704702F0FF0394
:1015D00043EA032242EA0242FFF7F9B870B5064C2B
:1015E0007C44064D7D4404E0204601680844804761
:1015F000241DAC42F8D170BDBCDA0000D8DA00007E
:1016000070B50446006882688368DB0843EA92028A
:10161000D20701D1002070BDC268920115D5627E4B
:10162000012A12D1227E012A0FD10168490608D46D
:101630000121CAF2403100BF01393AD00268520696
:10164000FAD540210160012104E0022902D10221E2
:10165000082611E0826852070AD58268920707D4EB
:1016600082684FF6C073C7F6FF731A40103282606B
:1016700001294FF0040610D0826812070AD582684B
:10168000920707D482684FF6C073C7F6FF731A40FB
:1016900020328260032908BF0C2601F05DFC05465C
:1016A000206880683042B5D001F056FC401B062807
:1016B000F6D3606D40F010006065A06D40F0010051
:1016C000A065012070BD0146806A436D426D13F034
:1016D000500F07D0D20648BF00F016BBC06C426B5B
:1016E0000846104742F40071416501680B68CA68FA
:1016F0001B0703D4910707D500F0E6BA12F4406F38
:10170000FAD1C9688904F7D4416D21F4807141652B
:10171000416DC90448BF00F0D7BA416D41F00101E5
:10172000416500F0D1BA806A416D41F040014165E8
:10173000816D41F00401816500F0E6BA806A00F035
:10174000E2BA0000B0B50168044688688A6880077C
:101750004FF0000028D412F0010208BFB0BD886825
:1017600000F00D00012816D188684FF6C072C7F648
:10177000FF721040023088600320086001F0ECFB2B
:10178000054600BF20688068C0070ED001F0E4FB6A
:10179000401B0328F6D3606D40F010006065A06D1B
:1017A00040F00100A0650120B0BD0020B0BD0000E8
:1017B00070B5044600688168C9072CD14FF6C07621
:1017C000C7F6FF76816806F17F02114219D1816860
:1017D000314041F00101816001F0BEFB054600BFD0
:1017E00020680168C90716D18168C90704D18168DA
:1017F000314041F00101816001F0AEFB401B032844
:10180000EED3606D40F010006065A06D40F0010007
:10181000A065012070BD002070BD40F64810C2F2E6
:10182000000000F0C1BD40F64810C2F2000000F018
:10183000BBBD40F6AC10C2F2000001F085B840F626
:10184000CC20C2F2000001F07FB840F68420C2F242
:10185000000001F079B840F63C20C2F2000001F02F
:1018600073B840F6F410C2F2000001F06DB8704792
:1018700040F23C20C2F20000027F42F20001032A43
:10188000C4F2020103D0022A11D0012A1BD10B6835
:1018900002F0FE0243F400630B600B68022A23F49B
:1018A00000630B600B6843F400730B600BD10A6894
:1018B00042F480520A600A6822F480520A600A6880
:1018C00042F480620A60002101777047F0B581B070
:1018D00042F210060446C4F2020601F03DFB3168F4
:1018E000C9030AD50546671C27B101F035FB401B2B
:1018F000A04224D23068C003F6D430684CF2FA31EA
:10190000B268C0F20201084002F000410A180FD08C
:1019100040F23C23C2F200035F6842EA07025A60C9
:1019200011B1B2681143B16000B13060012007E02D
:101930003068C0071CBF01203060002000E0032099
:1019400001B0F0BDF0B581B00022009290F85020B7
:10195000012A01D10221B4E10123076880F8503047
:10196000BB685B070CD44B68052B11D8023B032BDB
:101970000CD84FF20C02C0F6000252F8233006E0F9
:10198000416D41F020014165012197E106234B6043
:101990000A68C3F3012407EB8404256B03F01F03DB
:1019A0001F269E40C2F3846225EA06069A4032430F
:1019B0002263BA68BB68DB0843EA9202D20740F0B0
:1019C00083800A688B68C2F3406607EB86067569F8
:1019D000C2F3045207249440A54303FA02F22A43B7
:1019E0007261D1E9043CD7F80CE0042B0AD13A6EBD
:1019F000C2F3846C0A6853031AD092FAA2F2B2FAC4
:101A000082F317E006220E6807EB830302EA9E02C8
:101A10001D6E4FF200040CFA02F2C0F2FF3406F021
:101A2000F846254032432A4342F000421A664BE012
:101A3000C2F3846302689C454FF6FF7CC0F2070C3A
:101A400003D1136E23F000431366526EC2F3846E0B
:101A50000A6812EA0C0F04D092FAA2F2B2FA82F2E9
:101A600001E0C2F384620368964503D15A6E22F006
:101A700000425A669A6EC2F3846E0A6812EA0C0F2C
:101A800004D092FAA2F2B2FA82F201E0C2F38462C6
:101A90000368964503D19A6E22F000429A66DA6E88
:101AA000C2F3846E0A6812EA0C0F04D092FAA2F212
:101AB000B2FA82F301E0C2F3846307689E4503D162
:101AC000FA6E22F00042FA66BA68D20740F09180BE
:101AD000D1F800E0CA684FF6FF7CC0F2070CD7F8D7
:101AE000B040734602F018056FF3DF432CFA05F59A
:101AF0009C431D402C430025C4F27F05AA42C7F831
:101B0000B04076D133B19EFAAEF2D1F800E0B2FA2D
:101B100082F301E0CEF384635A1C02F01E02092A0C
:101B20000EEA0C030ED81BB19EFAAEF2D1F800E01B
:101B30001EEA0C0F15D09EFAAEF2D1F800E0B2FA10
:101B400082F310E01BB19EFAAEF2D1F800E01EEA7B
:101B50000C0F16D09EFAAEF2D1F800E0B2FA82F382
:101B600011E0CEF384635A1C02F01F0201231EEA27
:101B70000C0F03FA02FC14D09EFAAEF2B2FA82F312
:101B800011E0CEF384635A1C02F01F0201231EEA07
:101B90000C0F03FA02FC0ED09EFAAEF2B2FA82F3F8
:101BA0000BE0CEF384635A1C02F01F0202EB4202E8
:101BB0004CEA02530FE0CEF384635A1C02F01F027A
:101BC000002302EB4202CFF6206303EB025242EA0B
:101BD0000C0242F000738A68C3F3406607EB860785
:101BE0007E69C3F3045307259D40AE439A403243B8
:101BF0007A6109680022C8F2080211425DD040F201
:101C00000832C5F2040213680027CCF25277B942B9
:101C100003F0E07C08BF13F400071ED00027CCF6C9
:101C20008437B94208BF13F0807739D00127C8F252
:101C30000007B9424FF0000108BF13F480033DD103
:101C40000168A2F54273994237D1116821F0E07121
:101C500041EA0C0141F480012EE00168A2F54273D3
:101C600099422AD1116821F0E07141EA0C0141F456
:101C70000001116040F23821C2F20001096842F609
:101C800063528909C0F23E52A1FB0212910901EB95
:101C9000410189000091009979B100990139F9E772
:101CA0000168A2F54273994207D1116821F0E071F1
:101CB00041EA0C0141F0807111600021002280F89E
:101CC0005020084601B0F0BD10B540F21424C2F215
:101CD0000004E169814200D010BD40F6E000C2F28C
:101CE00000000078C00708BF10BD606810B103F0A5
:101CF0008FFF01E003F072FF61690029ECD0A06959
:101D0000BDE810400847704770470000B0B582B08A
:101D100004460020002C019041D0606D30B920466F
:101D200000F0D1F80020A06584F850002168886890
:101D3000800006D588684FF6C072C5F6FF72104065
:101D400088608868C0001DD44FF6C0728868C5F6E8
:101D5000FF7202F18052104000F18050886040F222
:101D60003820C2F20000006842F663528009C0F2D7
:101D70003E52A0FB020290090190019810B1019817
:101D80000138F9E78868C0000BD4606D40F010009E
:101D90006065A06D40F00100A065012002E0012017
:101DA0008FE000208A68C2F38002636D03F01003A5
:101DB000D218626D03D042F01001012080E022F4BD
:101DC0008172023262658A68D20712D140F208320B
:101DD0004FF60053C5F20402CFF6FF73D358DB076A
:101DE00007D1D4F804C0136823F47C1343EA0C032E
:101DF0001360627E636B43EA4232D4E902C31A4342
:101E000094F8203042EA0C02012B42EA034207D147
:101E1000D4F824C00023CFF6FE7303EB4C431A43DF
:101E2000A36A33B103F47073D4F82CC01A4342EAA6
:101E30000C02D1F80CC04CF20703CFF6F07303EAA2
:101E40000C031A43CA608A688B68DB0843EA920273
:101E5000D20727D194F83030227E5B0094F838C046
:101E600043EA823ECB6844F2020223EA020242EADB
:101E70000E02CA600A69BCF1010F10D140F2FD7375
:101E800022EA030CD4E90F32D4E911E543EA0C034A
:101E90001A4342EA0E022A4342F0010201E022F014
:101EA00001020A6122690B6B012A23F00F0202D1A1
:101EB000E369013B1A430A63616D012262F3010188
:101EC000616502B0B0BDF0B587B0044602A8142128
:101ED000FEF77BFC20680021C5F2040188425AD13C
:101EE00041F24C00C4F20200016802AD41F400511D
:101EF000016001680B2701F400510191019901680B
:101F0000002641F004010160016801F00401019123
:101F10000199016841F0010101600068294600F063
:101F20000100019001980F20029040F60000C4F6D5
:101F300000000397049600F031FF0320CDE902076B
:101F40004FF090402946049600F028FF40F6AC156B
:101F50000820C2F20005C4F202008021C5E9000693
:101F600005F110004FF480724FF480632027C5E91B
:101F700002668EC028462E6200F035FD08B1FFF7DC
:101F800076FC122000210022E564AC6201F039FCED
:101F9000122001F029FC07B0F0BD70B504460068BE
:101FA0008068400703D494F85000012801D1022032
:101FB00070BD012084F85000204615460E46FFF7FC
:101FC000F7FB18B1002184F8501070BD606D40F629
:101FD0000171884300F580706065606D41F2C763F0
:101FE000C0044FF0000044BFA06D20F00600A065C3
:101FF000E06C41F23D712268C0F60003C0F60001BA
:1020000041F2277E4FF0000CC0F6000EC0E90B3104
:102010001C21C0F834E0116084F850C051682B4690
:1020200041F010015160D16841F00101D16002F12D
:102030004001324600F038FD21684FF6C0738A68CF
:10204000C7F6FF731A4004328A6070BDB0B504460B
:1020500090F85000012801D1022531E0012084F8D8
:10206000500020460321FFF7CBFA054628BB216824
:10207000E06CCA6822F00102CA6090F825100229BB
:1020800008D100F016FC28B10546606D40F0400014
:10209000606500E000252068416821F01001416082
:1020A0002046FFF74FFB45B9054630B9606D41F258
:1020B00001118843013000256065002084F850003C
:1020C0002846B0BD90F82020013A012A04D80068C3
:1020D00000F11402002004E000F1240201204FF47A
:1020E0008021136819431160704710B590F820E003
:1020F000D0F800C0AEF1010EBEF1010FDCF808E02F
:102100000DD81EF0E05F10D0CEF3016EBEF1030FCC
:1021100011D100F1240101204FF4000233E000F15D
:10212000240101204FF480222DE000F12401012040
:102130004FF4001227E0012000FA0EF018608868C2
:1021400018B14B6840EAC30001E008684005D1E9D6
:10215000033403430CEB0E10C0F88031C0F8844107
:10216000097D012905D100F5C2710B6843F4807324
:102170000B605168C0F88C11126800F5C071C0F88E
:102180008821002001220B681A430A6010BDB0B5F7
:10219000026890F82030013B012B27D8D2F80002CA
:1021A000012340F00100C2F80002D1F814E0CC692C
:1021B0000EF01F0003FA00F0D2F81C326FEA000C98
:1021C0008343012CC2F81C3216D064BBD2F80C3207
:1021D00003EA0C03C2F80C32CB688C8844EA034350
:1021E00002EBCE04C4F840320B4614E0416A41F4DD
:1021F000802141620120B0BDD2F80C320343C2F805
:102200000C320B688C8844EA034302EBCE04C4F81A
:10221000403201F10C038C681B8843EA044302EB53
:10222000CE04C4F84432D2F804328D6943EA000483
:10223000D1F810E0096A002D08BF03EA0C04C2F8C7
:102240000442D2F81432BEF1000F43EA000408BF82
:1022500003EA0C040129C2F8144204D1D2F81C127A
:102260000843C2F81C02D2F8000220F00100C2F8B4
:1022700000020020B0BD90F82020013A012A06D8C3
:102280000068426922EA0101416100207047416A09
:1022900041F48021416201207047704710B590F8E9
:1022A0002040013C012C70D8D0F800C000290CBFA0
:1022B000DCF80C40DCF81040A4076CD00CEB011CDF
:1022C000DCF8B0410CF5D87E14F004049460DCF81E
:1022D000B04119BFE4085460640D1460DEF800409A
:1022E0000029C4F34004D460DCF8B44104F00F04C6
:1022F0001461DCF8B441C4F307249461DCF8B44100
:102300004FEA14445461DCF8B8211A70026802EBF9
:102310000112D2F8B8214FEA12225A70026802EB79
:102320000112D2F8B8214FEA12429A70026802EB09
:102330000112D2F8B8214FEA1262DA70026802EB99
:102340000112D2F8BC211A71026802EB0112D2F814
:10235000BC214FEA12225A71026802EB0112D2F834
:10236000BC214FEA12429A71026802EB0112D2F8C4
:10237000BC214FEA1262DA7100680CBF00F10C0157
:1023800000F11001002020220AE000F124010120C8
:102390004FF4802204E000F1240101204FF40012E8
:1023A0000B681A430A6010BD2DE9F04F81B0044656
:1023B00000684669D0F804908768D0F80CB0D0F86F
:1023C00010A0D0F81880F10701D1002543E0F907EB
:1023D0000CD00121BA07816005D4780719D43807D9
:1023E0001DD4616B00E0A16A204688470025F805EE
:1023F0001AD520684FF48071BA05816005D478053C
:102400000AD438050ED4A16B00E0E16A2046884763
:102410000AE04FF40065EAE705F5005504E04FF4E3
:102420008055E4E705F58045F80314D520684FF49E
:102430008031BA03816005D4780307D4380308D407
:10244000E16B00E0216B2046884704E005F500457C
:1024500001E005F58035300707D51BF0100004D0EA
:10246000206845F400751021C160700708D51BF085
:10247000080005D02068616C0822C26020468847A9
:10248000B00706D52068C068800702D0216C2046BE
:102490008847700607D51AF0100004D0206845F46C
:1024A000806510210161B00608D51AF0080005D03A
:1024B0002068E16C0822026120468847F00606D5B4
:1024C00020680069800702D0A16C20468847B003CD
:1024D00008D519F0100005D02068216D1022426047
:1024E00020468847F00308D519F0080005D0206879
:1024F000616D0822426020468847300440D55FEA7B
:1025000049703AD506F4807008EA102028435FEA43
:102510008871014648BF41F00201B20558BF01462B
:102520005FEA48700D4648BF45F00405700558BF86
:102530000D46300521D518F070001ED01038000966
:10254000052815D8DFE800F00306090C0F1245F046
:1025500008050DE045F010050AE045F0200507E00C
:1025600045F0400504E045F0800501E045F4807544
:102570002068816921F07001816120680421416037
:102580004DB1606AA16D40EA05022046626201B069
:1025900000F004B8084701B000F005B830BCBDE851
:1025A000C04FFFF7F7BF30BCBDE8C08F2DE9F04149
:1025B000002861D0044690F82000002849D142F656
:1025C000A70542F6AB0242F6450842F6430142F641
:1025D000490C42F6470EC0F60005C0F6000242F66E
:1025E000AF0342F6AD00C0F60008C0F60001C0F629
:1025F000000CC0F6000EC0F6000342F6A50642F637
:10260000A907C0F60000C4E90A5204F13002C0F67E
:102610000006C0F60007C8C2C4E90F086164C4E937
:1026200012CEE16D42F64B0042F6B10242F29B231C
:10263000C0F60000C0F60002C0F600032065626527
:10264000A36521B942F23971C0F60001E165204667
:1026500088472068016821F00201016000F07CFCDD
:10266000054600BF20684168890708D500F074FC62
:10267000401B0B28F6D312E00120BDE8F081016871
:1026800041F00101016000F067FC054620684168E7
:10269000C9070BD100F060FC401B0B28F6D3606A21
:1026A000052140F400306062012041E0217E026893
:1026B000012922F0800308BF42F080030360617E9D
:1026C0000268012922F0400308BF42F04003036082
:1026D000A17E0268012922F0200308BF42F02003F6
:1026E0000360E17E0268012942F0100308BF22F076
:1026F00010030360217F0268012922F0080308BF4C
:1027000042F008030360617F0268012922F004039C
:1027100008BF42F004030360271D8ECF66691A4389
:102720003A43324301391143C16100200121606203
:1027300084F82010BDE8F08110B586B0044601A8E9
:102740001421FEF742F8206846F20041C4F200016D
:10275000884237D141F24C00C4F20200C16841F016
:102760000071C160C16801F00071009100990168B9
:1027700041F002010160006801A900F00200009030
:1027800000984FF4407001900220029000200390C6
:10279000032004900920059040F20040C4F6000098
:1027A00000F0FCFA13200021002201F02AF8132087
:1027B00001F01AF814200021002201F022F8142060
:1027C00001F012F806B010BDA2B190F82030012B34
:1027D0000DD10E290ED8DFE801F0081B1D1F2123A3
:1027E0002527292B2D2F31171900826227E090F819
:1027F00020302BB1416A41F48001416201207047D1
:102800000E2903D00D29F5D1C26518E0026616E045
:10281000C26214E0026312E0426310E082630EE0E1
:10282000C2630CE002640AE0426408E0826406E0ED
:10283000C26404E0026502E0426500E082650020B7
:10284000704770477047704770477047B0B504468F
:1028500090F8200001281CD1022084F82000206874
:10286000016821F00101016000F076FB054600BF20
:1028700020684068C00712D000F06EFB401B0B2898
:10288000F6D3606A40F400306062052084F82000CE
:1028900003E0606A40F4002060620120B0BD0020C7
:1028A0006062B0BD704770477047704770477047AF
:1028B0007047014600284FF0010008BF704780B5FF
:1028C0000A68D1E910CE136823F00E031360136871
:1028D00023F0010313600EF01C0200FA02F2CCF8A0
:1028E000042081F82500002081F82400BDE8804004
:1028F000704780B590F82510022920D10168D0F8E2
:1029000038E0D0E910C30A68BEF1000F22F00E02D1
:102910000A600A6822F001020A6003F01C014FF00D
:10292000010202FA01F1CCF804104FF0000180F826
:10293000252080F8241005D0F047002102E0042172
:10294000C1630121084680BDB0B50268D0E910C45A
:10295000DCF80050136804F01C0E590711D504214F
:1029600001FA0EF414EA05010BD01168890603D4AC
:10297000116821F004011160CCF80440016B71BBB7
:1029800030E0990713D5022101FA0EF414EA05018B
:102990000DD01168890606D4116821F00A01116072
:1029A000012180F82510CCF80440C16A13E0190712
:1029B00018D5082101FA0EF1294013D0116821F031
:1029C0000E011160012101FA0EF2CCF80420C1635E
:1029D00080F82510416B002280F8242011B1BDE859
:1029E000B0400847B0BD00285BD02DE9F04740F269
:1029F000004CC4F2020C02684FF6F8310CF1080EDC
:102A0000CBF6FD71724538BF01F580614CF6CD43C0
:102A10001144CCF6CC43A1FB03136FF003016746CE
:102A200001EA930A4FF00203D0E90249D0F810807E
:102A300038BFA7F58067C0E9107A80F825301368A1
:102A400047F6F077BB432343D0E9057643EA090311
:102A500043EA0803D0E907513B4333432B4319436F
:102A6000B4F5804F116012D00CF1A8040AF01C01DB
:102A70000F23724538BFACF5567422688B409A43D9
:102A800022604268236802FA01F1194321600021A3
:102A90000122C16380F8252080F82410BDE8F047AA
:102AA00000E0012108467047F0B590F824C0BCF161
:102AB000010F35D04FF0010E80F824E090F825C0CA
:102AC000BCF1010F29D14FF0020C80F825C04FF066
:102AD000000CC0F83CC0D0F800C08468056B066CE0
:102AE000DCF80070102C27F00107CCF80070406C67
:102AF00000F01C000EFA00F070600846CCF80430BC
:102B000004BF10460A46CCF80800CCF80C20DCF8CC
:102B100000003DB140F00E000CE0002180F82410D0
:102B20000220F0BD20F00400CCF80000DCF800002A
:102B300040F00A00CCF80000DCF8000040F0010092
:102B4000CCF800000020F0BD2DE9F04F81B040F23C
:102B50003C29C2F2000999F80020012A01D102267D
:102B60007EE08246012089F800004CF25030884611
:102B7000FEF7ACFE064600286FD142F200040020AA
:102B8000C4F20204C9F8040021682068890503D44E
:102B9000400509D4002012E020F400702060206875
:102BA000400507D401200AE0206820F480602060FE
:102BB000022004E0206820F480602060032089F86F
:102BC0001C00DAF80000012815D19AF80400C007AB
:102BD00003D0606940F004006061606940F48030B7
:102BE00060614CF25030FEF771FE6169064621F0DB
:102BF000040060612FE04FF0FF30C8F80000DAE910
:102C000002703844874222D2FD0040F2FA7B00BFB6
:102C10006069E90861F3CA006061606940F0020020
:102C20006061606940F4803060614CF25030FEF7C2
:102C30004DFE6169064621EA0B0060614EB9DAE992
:102C4000020101370844874205F10805E0D3002658
:102C500001E0C8F80070FEF70BFE002089F80000C4
:102C6000304601B000F000B830BCBDE8C08F40F283
:102C70003C20C2F200004068704742F21401C4F2E6
:102C80000201086840F0004200200A60704700001E
:102C90002DE9F04740F23C29C2F20009144699F8A8
:102CA0000020012A01D102265EE08046012089F839
:102CB00000004CF250301F460D46FEF707FE064658
:102CC00000284ED142F2000A0020C4F2020AC9F8DC
:102CD0000400DAF80010490506D5DAF8000020F4FF
:102CE0008060CAF800000220B8F1000F89F81C00CB
:102CF00020D0A8F10100012816D8DAF8140040F419
:102D00008020CAF8140072B6402000BF54F8041B9B
:102D10000138020645F8041BF8D162B6B8F1020F7B
:102D200002D16FF480240FE04CF25030FEF7CEFD5C
:102D3000064614E0DAF8140040F00100CAF8140066
:102D40002C606F606FF001044CF25030FEF7BEFD56
:102D5000DAF81410064601EA0400CAF81400FEF777
:102D600087FD002089F800003046BDE8F08742F278
:102D70000800C4F20200C168B1F1FF3FC4BF0020E7
:102D8000704740F22311C4F26751016048F6AB115D
:102D9000CCF6EF510160C068C00F70472DE9F04FCD
:102DA00082B00A68002A00F0C28041F2000500F1FA
:102DB0003847C4F60005072340F200494FEAB7261A
:102DC000A84208BF0423C4F20109042E38BF4FEA09
:102DD000B7234FF0010E002500260127009300BF06
:102DE000A7F1010C0EFA0CFA12EA0A0800F095801D
:102DF0004A6842F01004122C15D16FF0030202EA67
:102E00005C020244D2F820B006F01C030F24D1F873
:102E100010E09C402BEA04040EFA03F323431362F0
:102E20004A684FF0010E03680324AC406FEA040BBC
:102E3000A34302F00304AC402343122A036013D8D7
:102E40000EFA02F313F0061F0ED08368CC6803EA73
:102E50000B03AC40234383604368140923EA0A034D
:102E600004FA0CF423434360C3688C6803EA0B0341
:102E7000AC402343D200C3604FD541F26003C4F29B
:102E800002031A684FF6084A42F001021A601A68F3
:102E9000CFF6FF7A02F001020192019A2CF00302B0
:102EA0004A4452F80AC006F00C040F23A3402CEA4F
:102EB000030C009B03FA04F444EA0C0342F80A30C2
:102EC000D9F800C04B684CEA0804DA0358BF2CEA72
:102ED0000804C9F80040D9F804C09A034CEA080471
:102EE00058BF2CEA0804C9F80440D9F808C0DA022F
:102EF0004CEA080458BF2CEA080440F20C4CC9F80C
:102F00000840C4F2010CDCF800209B0242EA0804ED
:102F100058BF22EA0804CCF800400A68043632FAA6
:102F200007F307F1010705F102057FF459AF02B07D
:102F300000F000B830BCBDE8C08F0069084018BF81
:102F40000120704742695140416170471823002AAF
:102F500008BF2823C150704780B540F26020C2F2FC
:102F600000004068804700B180BDBDE8804006F0A9
:102F700097BF90F84120202A03D190F84020012AE1
:102F800001D1022118E0242280F841200268136850
:102F900023F001031360136823F480531360136854
:102FA00019431160116841F001011160202180F87E
:102FB0004110002180F840100846704790F84120E9
:102FC000202A03D190F84020012A01D1022117E0E4
:102FD000242280F841200268136823F00103136063
:102FE000136823F4706343EA01211160116841F012
:102FF00001011160202180F84110002180F840106B
:103000000846704770477047D0F800C0DCF81830A9
:10301000DCF80020D90502F0800208D53AB1416CF5
:1030200041F0010141644FF48071CCF81C10590546
:1030300008D53AB1416C41F0080141644FF4806118
:10304000CCF81C10990508D53AB1416C41F0020149
:1030500041644FF40071CCF81C10416C11F00B0F5F
:1030600018BF01F029BB70470268436B9169126871
:1030700003B118477047704708B310B5044690F87D
:10308000410028B9002084F84000204600F09CFA56
:10309000242084F8410094E80910E2680168012ABC
:1030A00021F00101016023F070610161816821F468
:1030B0000041816005D14CF40041816009E00120AC
:1030C00070474CF40441022A816004BF4FF4006150
:1030D0004160416804F1100C41F0007141F400417D
:1030E0004160C16821F40041C1609CE80E101143A9
:1030F00041EA0321C160216A41EA0C0101600168D3
:1031000041F00101016000202021606484F8411039
:10311000206384F8420010BD2DE9F04F83B00446CF
:103120000020029094F84100202808D120688946A8
:103130008169090403D494F84010012903D10220C5
:1031400003B000F075B8012184F8401024211D4619
:10315000904684F8411000216FF39F295F1C4FF0C7
:10316000200A6164E16801294FF4205104BF42F252
:103170000001C0F2002149444160FFF7EDFE2168E3
:1031800006468A698B691B0943EA5212D2070ED19F
:1031900037B1FFF7E1FEA5B3801BA84231D8216803
:1031A00088698A69120942EA5010C007F0D0D1F844
:1031B00018B02046202100222B46009601F0D8FEB0
:1031C0005FEACB6129D530BB20681021C161C0F80E
:1031D0001CA0029941450ED14168002241F4804172
:1031E0004160204620212B46009601F0C1FE90B997
:1031F0002068C0F81CA00299013102910299414552
:10320000B0D3202084F84100606C40F0200060645E
:10321000002084F84000012092E70028FBD12068BC
:103220002021C161002084F8411084F8400087E724
:1032300030BCBDE8C08F704700B34EF6B07C0021B3
:10324000C0F6000C002300BF0CEB8302526812682A
:10325000824205D02831A02903F10103F4D10DE009
:10326000D8B21F280AD040F2F060C2F20000084431
:1032700000210171416A09B1806A08477047000066
:1032800080B5B8B14EF6B071C0F600010B1D00223A
:103290004FF0290E19680968814207D028320EF1D3
:1032A000010EA02A03F10403F4D103E05FFA8EF0CB
:1032B000482800D180BD40F2F060C2F200008318BF
:1032C0009A686AB1D3F80CC0BCF1000F08D050F86E
:1032D0002E0059791FFA8CF3BDE8804000F009B840
:1032E00000201871596A0029E4D0986ABDE880402E
:1032F00008472DE9F04381B0044690F841002028AA
:1033000008D10D4621688869000403D494F8400070
:10331000012804D10226304601B0BDE8F083012027
:1033200084F84000222084F84100102084F84200F4
:1033300000206064002044F6F328CFF6FF70C0F64A
:10334000000862626385E062C4F83480608DB0F585
:10335000807F04D3FF2323854FF0807904E0638DC1
:1033600023857BB34FF00079E06BE8B144F20F574F
:1033700044F2FD4CC0F60007C0F6000C00262431D4
:10338000C0E90B76C0E90DC6FFF78EFBB0B3202075
:1033900084F8410084F84260606C40F01000606482
:1033A00084F840600126B6E7202084F84100002020
:1033B00084F84200616C012641F08001616484F868
:1033C0004000A8E744F63340C0F600006063486858
:1033D00049F60002C7F6004210406FF39F252844CB
:1033E00040F0004040F4105000F1007000264860AA
:1033F00084F84060086840F0F2002BE02168208DDE
:10340000626B4B6849F60007C7F600476FF39F25CC
:103410003B40C7B245EA090545EA07473B4343F04D
:10342000004343F410534B60638D181A608544F6D3
:103430008550C0F60000F22384F84060824208BF45
:1034400090230868424508BF902318430860086825
:1034500040F4004008605EE72DE9F04381B0044687
:1034600090F84100202808D10D46216888690004A1
:1034700003D494F84000012804D10226304601B05C
:10348000BDE8F083012084F84000212084F8410049
:10349000102084F8420000206064002044F6F328E5
:1034A000CFF6FF70C0F6000862626385E062C4F880
:1034B0003480608DB0F5807F04D3FF2323854FF0E7
:1034C000807904E0638D238593B34FF00079A06B7E
:1034D00000B344F29D5744F2FD4CC0F60007C0F61D
:1034E000000C0026C0E90B76C0E90DC601F1280CDE
:1034F00011466246FFF7D8FAB0B3202084F84100A5
:1035000084F84260606C40F01000606484F84060B1
:103510000126B3E7202084F84100002084F842000F
:10352000616C012641F08001616484F84000A5E7E8
:1035300044F63340C0F600006063486849F6000274
:10354000C7F6004210406FF39F25284440F000402A
:1035500040F4005000F100700026486084F840609C
:10356000086840F0F2002BE02168208D626B4B6808
:1035700049F60007C7F600476FF39F253B40C7B2E7
:1035800045EA090545EA07473B4343F0004343F456
:1035900000534B60638D181A608544F68550C0F661
:1035A0000000F22384F84060824208BF902308683C
:1035B000424508BF902318430860086840F48040E3
:1035C00008605BE7704770472DE9F04387B0044619
:1035D00002A81421FDF7F9F8206845F60001C4F2AD
:1035E000000188426AD045F20041C4F200018842DD
:1035F00040F0DD8041F24C05C4F20205286840F23B
:10360000440840F00200286028684FF0030900F0E9
:10361000020001900198C020029012200390012026
:1036200004900420069040F20040C4F6000002A975
:10363000C4F20208CDF81490FFF7B0FBE86810213F
:1036400040F40010E860E86840F63C2500F4001003
:103650000190019808F12800C2F20005C5E90009AF
:1036600005F1080000268027C2C02846C5E9056686
:10367000C5E90766FFF7B7F908B1FEF7F8F8A563E3
:10368000AC6240F6F41508F13C00C2F20005C5E951
:1036900000092846C5E90266C5E90476C5E906665B
:1036A0002E62FFF7A0F900286AD0FEF7E0F840F696
:1036B000F41520261F27C2F2000566E041F24C05F2
:1036C000C4F20205286840F2440840F00200286075
:1036D0002868032700F00200019001984FF4884009
:1036E000029012200390012004900420069040F2E2
:1036F0000040C4F6000002A9C4F202080597FFF7D3
:103700004DFBE868002640F48000E860E86840F679
:10371000CC2500F4800001900198C2F20005102031
:1037200005F108014FF08009C5E9008781E84102F1
:103730002846C5E90566C5E90766FFF754F908B1EB
:10374000FEF795F8A563AC6240F6842508F11400F5
:10375000C2F20005C5E900072846C5E90266C5E9C9
:103760000496C5E906662E62FFF73DF958B1FEF7EB
:103770007EF840F6842522262127C2F2000504E0C7
:1037800020261F2701E0222621273846002100227B
:10379000E563AC6200F035F8384600F025F83046B5
:1037A0000021002200F02DF8304600F01DF807B08F
:1037B000BDE8F0837047704780B5032000F04CF8F7
:1037C000002000F007F808B1012080BD00F00BF8E0
:1037D000002080BD80B540F26020C2F20000006889
:1037E0008047002080BD704700F01F01012202FACF
:1037F00001F14EF200124009CEF2000242F8201010
:10380000704710B54EF60C5CCEF2000CDCF80030C0
:10381000C3F3022E8EF00704042C28BF0424BEF14B
:1038200003034FF0FF3E0EFA04F438BF0023A14318
:1038300099400EFA03F39A43114300F00F0200F18E
:1038400060430901043A03F564436244002848BF19
:1038500002F10C03197010BD4EF60C51CEF20001AE
:103860000A684FF6FF031A4060F30A2242F08060B4
:1038700040F0FD700860704747F20001C4F200019B
:103880000A68B0F5007F02F4C06025D1B0F5007F72
:103890002AD00868012262F34A20086040F23820EA
:1038A000C2F200000068322358434DF68363C4F22D
:1038B0001B33A0FB030302EB934000BF4B69421E86
:1038C000824203D213F480601046F7D14869400564
:1038D00044BF0320704707E0B0F5806F04D008684C
:1038E000022262F34A2008600020704747F200007D
:1038F000C4F20000006800F4C06070472DE9F04396
:1039000081B00446407841F20C070007C4F2020778
:103910001BD5606C68B1B0F5400F11D0B0F5000F49
:1039200040F02981386840F4803038604FF400005E
:1039300006E0201D002101F099FD814638B9606C38
:10394000F96F21F440010843F8674FF00009A078AF
:10395000800757D5F86CC0000BD4F86C4FF0010805
:1039600040F08050F864F86C00F0805000900098AF
:1039700001E04FF0000847F20005C4F20005286896
:1039800040F480702860FFF7E7FA06462868C00513
:1039900007D4FFF7E1FA801B0228F7D94FF003099B
:1039A00029E0B9F1000F26D1D7F8840010F4407057
:1039B00017D0E16D884211D0D7F88400D7F8841071
:1039C00020F4407041F48031C7F88410D7F8841097
:1039D00021F48031C7F88410C7F88400C00740F094
:1039E000CD80D7F88400E16D20F4407008434FF09B
:1039F0000009C7F88400B8F1000F03D0F86C20F07C
:103A00008050F8642168C80705D0F86F226A20F05A
:103A100003001043F867880705D5F86F626A20F045
:103A20000C001043F867480705D5F86FA26A20F02C
:103A300030001043F867880605D5F86FE26A20F475
:103A400040601043F867880505D5F86FE26B20F4F5
:103A500040201043F867480505D5F86F226C20F424
:103A600040101043F867480605D5F86F226B20F424
:103A700040501043F867080605D5F86F626B20F4D4
:103A800040401043F867C80505D5F86FA26B20F4D5
:103A900040301043F867880418D5FA6FA06C22F004
:103AA00040620243B0F1806FFA6707D0B0F1006F57
:103AB0000CD1386840F48010386007E0201D0121E7
:103AC00001F0D4FC2168002818BF8146080318D5EE
:103AD000FA6FE06C22F040620243B0F1806FFA6747
:103AE00007D0B0F1006F0CD1386840F48010386016
:103AF00007E0201D012101F0B9FC2168002818BF52
:103B00008146480318D5FA6F206D22F040620243C7
:103B1000B0F1806FFA6707D0B0F1006F0CD1386850
:103B200040F48010386007E0201D012101F09EFC68
:103B30002168002818BF8146480410D5F86F626DCF
:103B400020F040501043B2F1805FF86707D1201D8C
:103B5000022101F08BFC2168002818BF814608046F
:103B600005D5F86FA16D20F080400843F8674846FE
:103B700001B0BDE8F0834FF00109E8E6FFF7ECF98A
:103B8000064641F288354FF0030900BFD7F884009C
:103B900080073FF526AFFFF7DFF9801BA842F5D974
:103BA00029E700002DE9F04381B0002800F0A08053
:103BB00042F20008C4F202080446D8F800000D469C
:103BC00000F0070088420DD2D8F8000020F007006E
:103BD0002843C8F80000D8F8000000F00700A84209
:103BE00040F08680206841F20809C107C4F202094A
:103BF00032D06068022806D0032809D159F8081C81
:103C000089010DD474E059F8081C890308D46FE0C9
:103C100059F8081C10B1490502D469E0890767D535
:103C2000D9F8001021F003010843C9F80000FFF79C
:103C300093F9064641F28837D9F80000616800F030
:103C40000C00B0EB810F06D0FFF786F9801BB8425D
:103C5000F2D903204DE02068810707D5D9F800107C
:103C6000A26821F0F0011143C9F80010D8F8001043
:103C700001F00701A9420CD9D8F8001021F0070182
:103C80002943C8F80010D8F8001001F00701A94234
:103C90002ED1410707D5D9F80010E26821F4E06180
:103CA0001143C9F80010000708D5D9F800002169B0
:103CB00020F4605040EAC100C9F8000000F01CF890
:103CC000D9F800104EF6CA72C1F30311C0F6000213
:103CD000515C40F2382201F01F0120FA01F1C2F2DA
:103CE00000020020116001B0BDE8F043FFF772BD93
:103CF000012001B0BDE8F08341F2000CC4F2020CD7
:103D0000DCF8080010F00C02DCF80C0005D00C2ADE
:103D100030D100F0030001282CD1DCF800000007AE
:103D200003D4DCF89400000A02E0DCF8000000098B
:103D30004EF6DC7300F00F00C0F6000353F820309D
:103D4000002A184618BF00200C2A18BF7047DCF85C
:103D50000C00DCF80C1000F00302C1F30210022A80
:103D600000F101000FD0032A04BF49F28063C0F2C2
:103D700098030CE0042A1BD0082A1ED149F2806067
:103D8000C0F29800704742F20043C0F2F403DCF83E
:103D90000C10B3FBF0F0C1F30621DCF80C20484313
:103DA000C2F34161022202EB4101B0FBF1F0704726
:103DB00042F20040C0F2F400704700200023C3E745
:103DC0002DE9F04381B0002800F0338141F2000674
:103DD0000446C4F20206B068F168227800F00C08CC
:103DE000D00601F0030728D42078C0075BD0B8F1D3
:103DF000080F51D0B8F10C0F08BF032F4CD06568E5
:103E0000B5F5803F07D03068B5F5A02F40F00F82A0
:103E100040F480203060306840F480303060FFF73C
:103E20009BF80546306880033DD4FFF795F8401BAA
:103E300064284FF00300F5D9FCE0B8F1000F1BD067
:103E4000B8F10C0F08BF012F16D0A1693068002906
:103E500000F05D8140F001003060FFF77DF805461D
:103E60003068800700F16681FFF776F8401B022872
:103E70004FF00300F4D9DDE03068800703D5A06976
:103E8000002800F0D680206A3168090700F1A4807C
:103E9000D6F894100909A0E03068800303D5606863
:103EA000002800F0C680207880072CD5B8F1040FD8
:103EB0001BD0B8F10C0F08BF022F16D0E168306894
:103EC000002900F05E8140F480703060FFF744F814
:103ED000054600BF306840050ED4FFF73DF8401B93
:103EE00002284FF00300F5D9A4E03068400503D55F
:103EF000E068002800F09D807068216920F0F8508B
:103F000040EA016070602078000723D420784007E1
:103F100038D42078800645D4A06A002800F0D481E7
:103F2000B8F10C0F00F085803168022821F0807113
:103F3000316040F05F81FFF70FF80546306880017F
:103F400040F18F81FFF708F8401B02284FF0030073
:103F5000F4D96FE06169D6F89400002900F08580FB
:103F600040F00100C6F89400FEF7F6FF054600BFDA
:103F7000D6F894008007C9D4FEF7EEFF401B022854
:103F8000F6D9C2E0B06DC00000F18380B06D4FF093
:103F9000010940F08050B065B06D00F08050009095
:103FA000009878E0616AD6F89800002900F0D48083
:103FB00040F00100C6F89800FEF7CEFF054600BFAE
:103FC000D6F898008007A7D4FEF7C6FF401B02284A
:103FD0004FF00300F4D92DE0316801F0F001884280
:103FE00014D901F0D8FA20BB306840F008003060E6
:103FF0003068D4E9072120F0F00008433060706891
:1040000020F47F4040EA0220706016E0316841F001
:1040100008013160316821F0F001014331607168BD
:10402000E26921F47F4141EA0221716001F0B3FAB3
:1040300018B1012001B0BDE8F083FFF75DFEB16863
:104040004EF6CA72C1F30311C0F60002515C01F0D2
:104050001F01C84040F23821C2F200010860002070
:10406000FFF7B8FB0028E5D1BEE620F00100C6F856
:104070009400FEF771FF0546D6F8940080077FF59F
:1040800045AFFEF769FF401B02284FF00300F3D94C
:10409000D0E74FF0000947F20007C4F20007386884
:1040A000C00512D4386840F480703860FEF754FFC1
:1040B000054600BF3868C00507D4FEF74DFF401B1A
:1040C00002284FF00300F5D9B4E7A568012D07D009
:1040D000D6F89000052D67D140F00400C6F8900096
:1040E000D6F8900040F00100C6F89000FEF734FFCB
:1040F000054641F2883700BFD6F89000800770D49B
:10410000FEF72AFF401BB842F6D9032092E720F0C1
:1041100001003060FEF720FF054600BF30688007D1
:104120007FF562AEFEF718FF401B02284FF0030038
:10413000F4D97FE7306840F0080030603068D4E997
:10414000072120F0F00008433060706820F47F40C1
:1041500040EA0220706047E620F00100C6F89800AF
:10416000FEF7FAFE054600BFD6F8980080077FF5F7
:10417000D3AEFEF7F1FE401B02284FF00300F3D947
:1041800058E720F480703060FEF7E6FE054600BF79
:10419000306840057FF5B7AEFEF7DEFE401B022813
:1041A0004FF00300F4D945E720F00100C6F8900075
:1041B000D6F8900020F00400C6F89000FEF7CCFE80
:1041C000002D054695D141F28837D6F8900080073A
:1041D00007D5FEF7C1FE401BB8424FF00300F4D9EB
:1041E00028E7B9F1000F3FF494AEB06D20F0805095
:1041F000B0658EE63068000103D4F06820F003005B
:10420000F060F0684FF6FF71CFF6EE610840F060A5
:10421000FEF7A2FE044600BF3068800154D5FEF7C9
:104220009BFE001B03284FF00300F5D302E720F4A8
:1042300080303060306820F480203060FEF78CFEE3
:10424000002D05467FF4EEAD07E0FEF785FE401B2E
:1042500064284FF003003FF6EDAE30688003F4D4DD
:1042600021E604F12C078FCF256C6FF00F0404EBCF
:10427000011141EA022108430021CFF6E07101EA71
:104280000751A1F5001108434FF07E4101EA056195
:1042900001F17E4140EAC3600843F060306840F0BD
:1042A00080703060F06840F08070F060FEF754FE7F
:1042B00004463068800107D4FEF74EFE001B02283A
:1042C0004FF00300F5D9B5E60020B3E6A0B110B574
:1042D0000446407920B900202071204600F00EF8F5
:1042E000022060712068016841F004010160012032
:1042F00060710020A06010BD0120704781B000688F
:1043000040F60001C5F2060188420CD141F24C0092
:10431000C4F20200016841F480210160006800F4E9
:1043200080200090009801B0704710B590F83C20B4
:10433000012A4FF0020222D04FF0010C80F83CC05D
:1043400080F83D20026842F600445368D2F808E045
:10435000C4F20104A24203D14C6823F47003234346
:104360000C6823F07003896823432EF080042143F6
:1043700053609160002280F83DC080F83C201046D8
:1043800010BDB0B110B5044690F83D0028B900202A
:1043900084F83C00204600F00EF8022084F83D002E
:1043A0002068211D01F0AEF9012084F83D000020B5
:1043B00010BD0120704710B584B0006844F2004180
:1043C000C4F2010188421CD041F20041C4F2000154
:1043D000884225D041F20001C4F2000188421CBF8E
:1043E00004B010BD41F25800C4F202000168362446
:1043F00041F010010160006800F010000390039884
:104400001CE041F25800C4F202008168192441F412
:1044100000318160806800F40030019001980DE067
:1044200041F25800C4F202000168372441F0200133
:104430000160006800F020000290029820460021F0
:104440000022FFF7DEF9204604B0BDE81040FFF778
:10445000CBB90068C16841F00101C16082680721E1
:10446000C0F201010A40062A08D082681140B1F565
:10447000803F03D0016841F00101016000207047D6
:10448000006841F21112C16821F00101C160016AA6
:10449000114208D1016A40F24442114203D101683D
:1044A00021F0010101600020704740F61430C2F293
:1044B0000000FEF7A9BD40F61430C2F20000FEF77E
:1044C000D3BD40F66030C2F20000FEF79DBD40F65D
:1044D0006030C2F20000FEF7C7BD806A0023D0E959
:1044E0000E128B63936390F84110602918BFFEF79A
:1044F000C2BD202180F84110FEF784BD806A0268A9
:10450000516841F400431021536000F0D5B810B554
:10451000846A2168086820F400400860608DA0B1BA
:10452000208D626A243102446262608DFF2894BF4C
:10453000638DFF23E06B2385FEF7B6FAC8B12046F2
:104540001021BDE8104000F0B7B8606B44F6855309
:1045500044F6F322C0F60003C0F60002F4249842A9
:1045600008BF60249042086808BF602420430860A8
:1045700010BD616B44F68553206844F6F322C0F603
:104580000003C0F60002F424994208BF602491425F
:10459000016808BF60242143016010BD10B5846A22
:1045A0002268106820F480401060608DA0B1208DDA
:1045B000616A283201446162608DFF2894BF638D77
:1045C000FF23A06B2385FEF76FFAC8B120461021A8
:1045D000BDE8104000F070B8606B44F6855344F6B7
:1045E000F321C0F60003C0F60001F424984208BF8E
:1045F00060248842106808BF60242043106010BD0A
:10460000616B44F68553206844F6F322C0F600033C
:10461000C0F60002F424994208BF60249142016868
:1046200008BF60242143016010BD10B590F841100F
:10463000036801F02801282919D19969C1F30041C3
:10464000D3F818E09A68D3F80CC0C4684FEA1E4E3D
:10465000022C12D18EEAD21414F0060F17D01C6867
:104660000CF0FE0224F0B8041C6000230CE00821CA
:10467000D961002180F8401010BD1A6822F0B802FC
:104680001A6000230EF0FE0280F8403010E0846CC7
:1046900001348464846C022C18BF10BD4FF0000CF0
:1046A00008246FF39F22C0F848C0DC6180F840C046
:1046B000BDE81040FEF7A7BC10B500230446002259
:1046C000CFF6FF7390F8410084F84220E3626285E0
:1046D000626C11436164A0F1280294F8410094F8DF
:1046E0004110022A18D801F02801B422282900F02C
:1046F000280008BF0422282820684FF0F20108BFD4
:1047000042210368114323EA0101016044F6636119
:10471000C0F6000128220BE02068016821F0FE01AC
:10472000016094F8411060294FF0000102D020226E
:1047300084F8412000222263616302680168520408
:1047400010D4090420D494F84100602833D12020EB
:10475000002184F84100204684F84010BDE8104054
:10476000FEF750BC21F480410160A06B10B344F20D
:10477000DB41C0F600018163002184F84010FEF7A0
:10478000B8F8B8B1A06B11E0016821F400410160F4
:10479000E06B78B144F2DB41C0F600018163002197
:1047A00084F84010FEF7A5F820B1E06B816BBDE8FE
:1047B0001040084710BD0021204684F84010BDE895
:1047C0001040FEF758BC0022CFF6FF72C2620022F2
:1047D00020234907026380F8413080F84220426379
:1047E00011D50168436A496A1970436A018D013322
:1047F000436241B101390185418D01394185416CE7
:1048000041F00401416490F8411090F841100168B2
:104810000B6823F0FE030B601023CB6180F840206F
:10482000FEF709BD02682023D361D2F804C04EF61A
:104830000003CFF6006303EA0C0353600023036315
:1048400043630023CFF6FF73C906C36205D5102169
:10485000D161416C41F0040141649169890744BF11
:10486000002191629169C90703D1916941F0010169
:10487000916190F84110F22301F02801282990F865
:10488000411008BF422301F0280CB421BCF1280FCD
:1048900008BF0421D2F800C019432CEA01011160BD
:1048A000426C90F84110AAB9602913D090F84110D9
:1048B000212912D1202180F8411090F842100022C5
:1048C000402980F8422080F8402008BFFEF77BBED8
:1048D000FEF7D6BC416CFFF7EFBE90F841102229DD
:1048E00018BF7047202180F8411090F84210002234
:1048F000402980F8422080F8402008BFFEF762BEC1
:10490000FEF79ABC4FF0000C80F842C090F84120AE
:104910002023212A80F8413015D111220263C0F8EA
:1049200034C090F84120016802F02802282A0A6861
:104930006FF0F20308BF6FF042031A400A6080F87C
:1049400040C0FEF79DBC12210163C0F834C090F84E
:104950004110036801F02801282919686FF0F4025A
:1049600008BF6FF044021140196080F840C0FEF7A4
:1049700063BCB0B50446006820230268C361082305
:10498000C36194F8413094F8413003684EF6000555
:1049900023F0FE0303604368CFF6006543F4004351
:1049A000436043682B40436083690D469B0744BFC7
:1049B000002181628169C90703D1816941F0010148
:1049C0008161510403D4110406D5E16B00E0A16BB1
:1049D00011B109684968618569070CD5406A616A47
:1049E0000870616A208D0131616220B10138208533
:1049F000608D01386085608D18B1606C40F00400F6
:104A000060640020206384F842006063606C70B1D1
:104A1000616C2046FFF750FE94F84100282818BF2B
:104A2000B0BD20462946BDE8B040FFF7CCBEE06AE5
:104A300010F5803F0ED194F84100202184F84110F8
:104A400000212228204684F8401012D1BDE8B04051
:104A5000FEF7B0BE0020CFF6FF70E06220200021FC
:104A600084F84100204684F84010BDE8B040FEF7CD
:104A7000E2BBBDE8B040FEF79EBE4FF0000C80F8F0
:104A800042C090F84120292A16D1282280F84120DE
:104A90002122026390F84120016802F02802282AAE
:104AA0000A686FF0F20308BF6FF042031A400A6011
:104AB00080F840C0FEF77FBE90F841102A2918BF49
:104AC0007047282180F841102221016390F841109D
:104AD000036801F02801282919686FF0F40208BF63
:104AE0006FF0440211401960002180F84010FEF779
:104AF00061BE10B5044690F84000012804BF0220B2
:104B000010BD02EA01004FF0010CC30684F840C05A
:104B10001AD40B063FD512F040023CD02068016841
:104B200021F040010160628D4168002A4AD0628D07
:104B30006FF39F21B2F5807F4FD34FF0FF0EA4F8A3
:104B400028E04FF0807C54E020681022616BC26145
:104B5000626C44F6855342F0040244F6F32CC0F62E
:104B600000036264C0F6000CF422994208BF602280
:104B70006145016808BF60221143016081698907AE
:104B800044BF002181628169C9074ED1816941F02A
:104B90000101816149E0420605D4800645D52046E1
:104BA000FFF740FE41E0608D90B9206841688901BF
:104BB0003BD4E16A11F5803F06D1416841F4804160
:104BC000416032E0880103D42046FFF79BFE2CE0D1
:104BD00020464021FFF770FD27E0B4F82AE0A4F852
:104BE00028E0E36A13F5803F14BFD4F82CC04FF0DF
:104BF000007C436849F60042CFF600421A4041EA81
:104C00000C015FFA8EF3114341EA03414160618D6B
:104C1000A1EB0E01618594F841200168222A14BF9E
:104C200041F4804141F400410160002084F84000DB
:104C300010BD70B5044690F84000012804BF022062
:104C400070BD02EA01060D460120F10684F840001D
:104C500015D4700727D4B0072CD4280640D512F0FD
:104C600040003DD0608D10B1208D002841D02068DB
:104C70004068800138D42046FFF744FE26E02068D3
:104C80001021C161616C41F004016164816989078F
:104C900044BF002181628169C90717D1816941F050
:104CA0000101816112E02068616A406A0870606AEF
:104CB000013004E0606A216810F8012B8A62218DBE
:104CC0006062481E2085608D01386085B00603D57E
:104CD00020462946FFF7A6FD002084F8400070BD5D
:104CE0007006F3D5608DD0B120464021FFF7E4FC7B
:104CF000ECE720684168628D6FF39F21B2F5807FF9
:104D000019D3FF222285426849F60043CFF60043BB
:104D10001A40114441F0807141F47F0130E0206875
:104D200041688901D2D4E16A11F5803FA3D141687D
:104D300041F4804124E0628D2285E36A13F5803FCF
:104D40000ED1D0F804C049F60043CFF60043D2B2EA
:104D500003EA0C0341EA0241194401F100710FE03A
:104D6000D4F82CC0D0F804E049F60043D2B2CFF614
:104D7000004341EA024103EA0E0341EA0C011943F0
:104D80004160A3E710B5D0F82CC090F84030012B5B
:104D900004BF022010BD02EA010304464FF0010ED9
:104DA000D80684F840E007D4180710D4980654D5E4
:104DB0002046FFF7DEFD50E012F4404F0BD0E26BCF
:104DC0006AB110684068B0FA80F0420908E02046F5
:104DD000FFF72BFC41E020681021C1613DE000227B
:104DE000A36BA3B1186843689AB993B120681021E6
:104DF000C161606C6FF080711CEA010F40F004002B
:104E000060642AD1616C2046FFF756FC25E0002A39
:104E1000ECD0BCF1007F94F8412008BF282A19D0BB
:104E200094F84120216810201CF5803FC86114D0FF
:104E3000292A12D18869800744BF002088628869C6
:104E4000C00703D1886940F0010088612046FFF760
:104E500014FE02E02046FFF7B6FC002084F8400074
:104E600010BD70B50446C06A94F84030012B04BFF1
:104E7000022070BD0D4602EA05060121F20684F803
:104E8000401015D4710725D4310759D4B1075FD527
:104E9000618D002966D0606A216810F8012B8A6252
:104EA0006062608D01386085208D013820854FE07B
:104EB000618D39B321681022CA61616C6FF0807214
:104EC000104241F00400606442D1616C2046FFF75B
:104ED000F3FB3DE0618D61B12168626A496A11703E
:104EE000616A228D01316162511E2185618D013916
:104EF0006185618D10F5803F2AD049BB2046FFF7C0
:104F0000BCFD25E0B0F1007F94F8411008BF2829CE
:104F10001AD094F841202168102310F5803FCB610E
:104F200016D0292A14D18869800744BF00208862DE
:104F30008869C007E2D1886940F001008861DDE737
:104F40002046FFF772FB03E020462946FFF73BFCB3
:104F5000B00603D520462946FFF70BFD002084F854
:104F6000400070BD6FF080710842F1D1C6E70000CB
:104F70002DE9F04381B081460068154682690E46EE
:104F80001140891BB1FA81F14909A94216D1DDF816
:104F900020801F465C1C00BF44B1FDF7DDFF7FB1E0
:104FA000A0EB0800B8420BD8D9F800008169314065
:104FB000891BB1FA81F14909A942EDD000200EE028
:104FC000D9F8440040F02000C9F84400202089F8B6
:104FD0004100002089F8420089F84000012001B01A
:104FE000BDE8F083B0B586B068461821FBF7EDFB4D
:104FF00040F6E4000021C2F20000C5F204014FF4C3
:10500000802200240123082580E816004FF48071D7
:10501000C0E903434561018306254FF48051C56112
:1050200080F82040C0E90A444163102100F13C0CA3
:1050300080F8303080F8383080228CE816008364A5
:10504000FCF764FE08B1FCF712FC0220C0F230400D
:10505000CDE900057F20039004200294CDE90404EB
:1050600040F6E400C2F200006946FCF76BFC08B1B0
:10507000FCF7FDFB0420C0F6600000900C200190BE
:105080000120029040F6E400C2F200006946FCF7FD
:1050900059FC08B1FCF7EBFB0820C0F690400090EB
:1050A0001220019040F6E400C2F200006946FCF7CD
:1050B00049FC08B1FCF7DBFB1020C1F2C0000090F6
:1050C0001820019040F6E400C2F200006946FCF7A7
:1050D00039FC08B1FCF7CBFB2020C1F2F040009076
:1050E0004FF48070019040F6E400C2F2000069467F
:1050F000FCF728FC08B1FCF7BAFB4020C1F62010F1
:1051000000904FF48370019040F6E400C2F200007A
:105110006946FCF717FC08B1FCF7A9FB06B0B0BD67
:1051200010B540F6481046F20041C2F20000C4F249
:105130000001022200234FF0012480E80E0000F15C
:105140000C014FF4803C4FF4800E81E808508461DC
:105150008383FDF72BFA18B1BDE81040FCF787BB3D
:1051600010BD80B582B041F24800C4F2020001686F
:10517000002241F001010160016801F0010101918B
:105180000199016841F0020101600068002100F00E
:105190000200009000980B20FEF733FB0B20FEF777
:1051A00023FB0E2000210022FEF72BFB0E20FEF732
:1051B0001BFB0F2000210022FEF723FB0F20FEF730
:1051C00013FB102000210022FEF71BFB1020FEF72E
:1051D0000BFB112000210022FEF713FB1120FEF72C
:1051E00003FB442000210022FEF70BFB4420FEF7C6
:1051F000FBFA452000210022FEF703FB452002B008
:10520000BDE88040FEF7F0BA2DE9F04F87B00027E7
:1052100041F24C00CDE90577C4F20200016840F28A
:10522000004B41F0040101600168C4F6000B01F07D
:1052300004010191019901680BF5806541F00201BB
:1052400001600168002201F00201019101990168E9
:1052500043F2F03A41F001010160016801F00101FF
:1052600001910199016841F080010160016801F03C
:10527000800101910199016841F008010160006815
:1052800043F2F03100F00800019001982846FDF744
:105290005DFE4FF090404FF4006100224FF4006932
:1052A000FDF754FE584648F60301002248F603086D
:1052B000FDF74CFE4FF4484002AE0290032428460E
:1052C0003146CDE90347FDF769FDCDF808A04FF061
:1052D000010A28463146CDE903A70597FDF75EFD93
:1052E00041F23C0002A991C158463146FDF756FDF6
:1052F00049F2F01002A991C14FF090403146FDF7FC
:105300004DFD0B2002A991C10BF5C0503146FDF7B0
:1053100045FD042002A991C10BF500603146FDF75F
:105320003DFD4FF4806002900020C1F21100CDE9F4
:10533000030728463146FDF731FD4FF090403146D6
:10534000CDE9029ACDE90477FDF728FD58463146AC
:10535000CDE9028ACDE90477FDF720FD4FF4005036
:10536000CDE90207584631460497FDF717FD07B00F
:1053700000F000B830BCBDE8C08F10B540F6143462
:1053800045F2004040F21A61C2F20004C4F200008B
:10539000C0F210010022012384E80F0004F1100084
:1053A0001421FBF712FA2046FDF766FE08B1FCF760
:1053B0005EFA40F61430C2F200000021FDF7D9FD7C
:1053C00008B1FCF754FA40F61430C2F20000002194
:1053D000FDF7F4FD18B1BDE81040FCF748BA10BD68
:1053E00010B540F6603445F6000040F21A61C2F292
:1053F0000004C4F20000C0F210010022012384E87E
:105400000F0004F110001421FBF7DFF92046FDF72F
:1054100033FE08B1FCF72BFA40F66030C2F2000010
:105420000021FDF7A6FD08B1FCF721FA40F6603037
:10543000C2F200000021FDF7C1FD18B1BDE8104027
:10544000FCF715BA10BD80B540F6AC3040F600014F
:10545000C2F20000C5F206010160FEF737FF18B185
:10546000BDE88040FCF703BA80BD0000F0B581B014
:1054700041F20007C4F20207FA680D46910704469C
:1054800012D0F868216800F0030088424FF0010054
:1054900040F07F8000297CD0F868C0F3021061687A
:1054A000013088420AD11DE02068032808D0022874
:1054B0003ED0012802D13968890708D4012068E06C
:1054C000396889035CBF39685FEA4131F6D5F9680C
:1054D000626821F073016FF00F0303EB02120843BF
:1054E0001043F860386820F080603860FDF734FDC4
:1054F000064600BF3868000105D5FDF72DFD801B6D
:105500000228F7D93EE0BDB1386948F2FF01CFF675
:10551000FF11012D1AD101F1B4610140206900236E
:10552000CFF6E073A26803EA0050A0F5001016E081
:1055300039684905C2D5CAE7386948F2FF01C0F2A7
:10554000FF710140D4E90220C00608E00140606913
:105550004FF07E43A26803EA006000F17E4041EA1A
:10556000022108433861386840F080603860FDF7F8
:10557000F3FC05463868000106D4FDF7EDFC401B3E
:105580000228F7D9032004E0A0693969084338618B
:10559000002001B0F0BDB0B582B041F25805C4F2B0
:1055A000020529680446C9000FD4286840F08050DD
:1055B0002860286800F0805001900198FEF796F965
:1055C000296821F08051296001E0FEF78FF9B0F5DC
:1055D000007F06D1812C08D30120A02C88BF022097
:1055E0000DE0802C03D9032009E0002007E0A4F19E
:1055F0007000B0FA80F04009802C08BF022042F20F
:105600000001C4F202010A6822F0070202440A60A3
:10561000096801F00701081A18BF012002B0B0BDE7
:105620004EF60850CEF20000D0F880104FF0000C7B
:1056300041F47001C0F8801041F20001C4F202018F
:105640000A6842F001020A60C1F808C00B684FF610
:10565000FF72CEF6F6221A400A604FF48052CA60FA
:105660000A6822F480220A60C1F818C04FF0006175
:105670000160704740F6BC30C2F200000168086962
:10568000C0071ABFC8685FEAC07070476FF00102B8
:105690000E200A6100F0FDBE40F6FC30C2F20000B0
:1056A00001680869C0071ABFC8685FEAC070704720
:1056B0006FF001020F200A6100F0EBBE40F63C40A3
:1056C000C2F2000001680869C0071ABFC8685FEA33
:1056D000C07070476FF0010205200A6100F0D9BE6A
:1056E00040F67C40C2F2000001680869C0071ABF9A
:1056F000C8685FEAC07070476FF0010206200A6157
:1057000000F0C7BEB0B542F6004E0368C4F2010E09
:10571000704502D0B0F1804F03D14A6823F0700386
:10572000134343F6FF72C4F2010244F2004C90426C
:10573000C4F2010C05DCB0F1804F0AD0704508D0EE
:105740000BE0604505D044F20002C4F20102904231
:1057500003D1CA6823F4407313434C6923F08002D9
:105760000B688D68224370450260C562836218BF72
:10577000604504D10969016301214161B0BD44F272
:105780000002C4F201029042F4D0F5E710B540F2F5
:10579000104040F64051C2F20000C0F20301002464
:1057A000C0E9001440F2184149F62F5040F20002BF
:1057B000C2F20001C0F60000C0F60002C1E90044D8
:1057C0008C60FAF7D6FF40F22C40C2F20000046071
:1057D000C0F8034040F2344041F61F71C2F20000AD
:1057E000C0F20101016041F61F7181800A218160D0
:1057F00045F20151818110BDB0B540F27C64C2F226
:1058000000041F2020800025A01D3021A570C4E9C0
:105810000E0525716571FBF722FAC4E91055B0BD7C
:1058200070B540F2F064C2F20004002504F1A40651
:1058300044F8045B201D192125706570C4E90855E2
:10584000FAF7C3FF2834B442F4D170BD80B540F6F6
:10585000800CC2F2000C41F61F7E0CF118020A23E4
:1058600045F201500CF16001ACF813E0A2F800E041
:10587000536010810C328A42F8D100208CF801006C
:105880008CF800001F208CF8120080BD80B540F21B
:10589000AC71C2F2000141F61F7CC0F2010C41F66E
:1058A0001F7E0A2245F2015301F16000C1F800C0D9
:1058B000A1F804E08A608B8110318142F6D16C211D
:1058C000FAF783FF80BD000040F2C860C2F200001A
:1058D0001F21021D034600BF23F8021B9342FBD188
:1058E00000210022818000BF83181032202A196114
:1058F0005961F9D17047000080B540F2385C002052
:10590000C2F2000C4FF47A7E012300210CEB01025D
:105910001431B1F5A07FC2F804E01372D0601061B9
:10592000F4D180BD80B540F2E041C2F20001002018
:105930000A4642F8040F88600A6049F6A74040F220
:105940000002C0F60000C0F60002FAF712FF45F6AA
:105950006D10C0F60000BDE8804006F08DBC016807
:1059600009690847016809690847000088B00020F4
:10597000079010461546FAF701FF10F1100F4BD2B1
:1059800004460B2804D201AE8DF80F406CB911E02B
:1059900004F1100020F00F07384606F0F3F9064630
:1059A000019047F00040CDE90240304629462246AA
:1059B000FBF79CF8002519A201A80021355504F039
:1059C00044F890E80E000DF1100C8CE80E0040F247
:1059D0005441C2F20001096805604560856009B163
:1059E00004A888479DF91B00B0F1FF3F05DC06992C
:1059F000049821F0004104F0ACF99DF90F00B0F1DA
:105A0000FF3F05DC0399019821F0004104F0A1F962
:105A1000079801300790FBE7FAF7A0FE6F73616CFF
:105A20005F696E69745F7072655F6D61696E5F74E6
:105A30003A3A6F6E5F666174616C2829202D3E20B2
:105A4000000000004068806870474268002093684A
:105A50008B4288BF7047D2681A448A4228BF01200F
:105A60007047F0B581B00746006815464268384671
:105A70001C460E46904780B13868A91942683846DE
:105A8000904701464FF0000044B139B120463146FD
:105A90002A46FBF770F8012000E0002001B0F0BDBD
:105AA00070B5044600681546426820460E46904789
:105AB00020B12068A919426820469047002070BD97
:105AC000F0B581B0044600681646426820461D467F
:105AD0000F469047E8B32068F11942682046904786
