:020000040800F2
:10000000D00800209D010008234300084733000862
:100010002143000801060008FD4F00080000000011
:100020000000000000000000000000000946000879
:100030007906000800000000254300084546000836
:10004000B7010008B7010008B7010008B7010008B0
:10005000B7010008B7010008B7010008B7010008A0
:10006000B7010008B7010008B7010008B701000890
:10007000B7010008B7010008B7010008B701000880
:10008000B7010008B7010008B50400081106000810
:1000900005060008B7010008B7010008B70100080D
:1000A000B7010008B7010008B7010008B701000850
:1000B000B7010008B7010008B7010008B701000840
:1000C000B7010008B7010008B7010008B701000830
:1000D000F5440008B7010008B7010008B70100089F
:1000E000B7010008B7010008B7010008B701000810
:1000F000B7010008B7010008B7010008B701000800
:10010000B7010008B7010008B70100080145000861
:10011000B7010008B701000825470008B70100082B
:10012000B7010008B7010008B7010008B7010008CF
:10013000B7010008B7010008B7010008B7010008BF
:10014000B7010008B7010008B7010008B7010008AF
:10015000B7010008B7010008B7010008B70100089F
:10016000B7010008B7010008B7010008B70100088F
:10017000B7010008B7010008B7010008000000003F
:10018000B7010008B7010008DFF80CD000F080F9D3
:10019000004800473D500008D0080020064880472E
:1001A00006480047FEE7FEE7FEE7FEE7FEE7FEE75C
:1001B000FEE7FEE7FEE7FEE7D146000889010008FA
:1001C0002DE9F05F0546002092469B46884606468C
:1001D000814640241BE0284641464746224600F01F
:1001E000EAF853465A46C01A914110D311461846B0
:1001F000224600F0D1F82D1A67EB01084F4622463F
:100200000120002100F0C8F817EB00094E41201E24
:10021000A4F10104DFDC484631462A464346BDE8E6
:10022000F09FD2B201E000F8012B491EFBD27047CB
:100230000022F6E710B513460A4604461946FFF7B2
:10024000F0FF204610BD2DE9FE4F81EA030404F0C3
:10025000004421F0004100944FF0000B23F00043D4
:1002600050EA01045ED052EA03045BD0C3F30A549F
:10027000C1F30A552C44A4F2F3340194A0FB0254B8
:10028000C1F3130141F48011C3F3130343F480134A
:1002900001FB024400FB034E840A970A44EA81549E
:1002A00047EA8357A4FB076802958D0A05FB07857B
:1002B0004FEA932C04FB0C542705029D4FEA065885
:1002C00047EA1637B5EB08056EEB070C870E920E62
:1002D00047EA811742EA8312A7FB0201B6EB0B0142
:1002E00064EB00042B0D43EA0C335E1844EB1C5006
:1002F000DA465146E7FB0201C5F313044FEA0B331C
:1003000043EA14534FEA0432019C43EA0603A4F182
:100310000C040294009CCDE900B400F06BF803B02B
:10032000BDE8F08F00200146F9E70EB5C10F80EA65
:10033000E0700844CA07002140F233438DE80E0004
:100340000A460B4600F056F803B000BD0EB540F269
:10035000334102910021CDE900110A460B4600F01D
:1003600049F803B000BDC1F30A5210B5C1F313013F
:1003700040F2FF3341F480119A4201DA002010BDAF
:1003800040F233439A42A2F2334203DC524200F07D
:1003900012F810BD904010BD202A04DB203A00FA6C
:1003A00002F1002070479140C2F1200320FA03F3CC
:1003B000194390407047202A04DB203A21FA02F0CA
:1003C0000021704721FA02F3D040C2F1200291408F
:1003D00008431946704710B5141E73F1000408DA7B
:1003E000401C41F1000192185B411A4301D120F0F9
:1003F000010010BD2DE9F04D92469B4611B1B1FAB6
:1004000081F202E0B0FA80F220329046FFF7C4FF9A
:1004100004460F4640EA0A0041EA0B0153465A4699
:10042000084313D0114653EA010019D0C8F1400225
:100430005046FFF7C0FF05460E4650465946424615
:10044000FFF7AAFF084305D0012004E02046394603
:10045000BDE8F08D0020054346EAE0762C433743A3
:100460000A986305E40AA0EB08000022FD0A44EAAA
:1004700047540A3002D500200146E9E7010510196A
:100480006941DDE9084500196941BDE8F04DA2E781
:10049000064C074D06E0E06840F0010394E80700D1
:1004A00098471034AC42F6D3FFF772FEF0530008C1
:1004B0001054000810B5054800F02DFA044800F06B
:1004C0002AFABDE81040034800F025BA6C0000206D
:1004D000B4000020FC000020464910B54A6822F410
:1004E00040324A604A6843681A434A6001684A6871
:1004F00022F480724A6001684A68036942EA032272
:100500004A6001684A6822F040724A6001684A689D
:1005100083681A434A6001688A6822F400628A602C
:1005200001688A68C3681A438A60816A6FF07062E2
:10053000D14201688A6822F070628A6001688A6824
:100540000CD0836A1A438A6001688A6822F040529C
:100550008A6001688A68C36A1A4301E022F0405247
:100560008A6001688A6822F002028A6001688A68EB
:10057000037E42EA43028A6090F820100029016855
:100580004A680FD042F400624A6001684A6822F467
:1005900060424A6001684A68174C436A04EB43337F
:1005A0001A4301E022F400624A600168CA6A22F438
:1005B0007002CA620168CA6A838B104C04EB035351
:1005C0001A43CA6201688A6822F400728A6001686C
:1005D0008A6890F8303042EA43228A6001688A686B
:1005E00022F480628A6001688A68406942EA802059
:1005F000886010BD0023014000E0FFFF0000F0FF15
:10060000FEE70000014800F02ABD00004401002080
:10061000014800F024BD00004401002010B58AB05C
:10062000134800F01AFE00240120CDE9064003948F
:10063000089004940E20059409900094019402946B
:1006400069460B4800F010FC094800F0EAFE03215F
:10065000074800F093FB074840F25151C460016025
:10066000C0E901140821016104750AB010BD000041
:100670004401002038000020704700002DE9F041BF
:10068000044621B14FF40060E060C000A060E06962
:100690000026002861D035462068402702683A4984
:1006A0000A40D4E902131943294341F4007111436C
:1006B000016020680568012000F0FEFE20680560EA
:1006C0002068476020684568012000F0F5FE20683A
:1006D0004560206886602068C660206881694FF6A2
:1006E0004172114041F080018161206885690120DB
:1006F00000F0E2FE206885612068C6612068C56957
:10070000012000F0D9FE2068C561206800F5805006
:1007100081691E4A11401E4A0A438261206800F521
:1007200080508569012000F0C7FE206800F58050E8
:1007300085612068174900F580500160206800F548
:1007400080500568012000F0B7FE206800F5805059
:100750000560A069012803D009E04FF480659BE79C
:10076000206800F58050C1690B4A1143C16160697E
:100770000A4A818811640178D0F8010041EA00201A
:100780005064BDE8F08100000F8120FF233FDEF8B8
:10079000040020028020C1024000010000800240CD
:1007A00010B502460221044801F06EF9BDE8104080
:1007B000642000F081BE00000010024070477047C6
:1007C00078B50024009490F83C20012A19D0012229
:1007D00080F83C200A6807250368092A13D9DE68D7
:1007E0000A3A02EB42029540AE43DE600A788B681B
:1007F0000A3A02EB420293400268D5682B43D36069
:1008000010E0022078BD1E6902EB42029540AE4323
:100810001E610A788B6802EB4202934002681569F8
:100820002B4313614A681F25072A13D203685E6BA6
:10083000521E02EB82029540AE435E630A8893B279
:100840000A79521E02EB820293400268556B2B43D9
:10085000536327E003680D2A12D21E6BD21F02EBEE
:1008600082029540AE431E630A8893B20A79D21F72
:1008700002EB820293400268156B2B43136311E075
:10088000DE6A0D3A02EB82029540AE43DE620A88D0
:1008900093B20A790D3A02EB820293400268D56A5C
:1008A0002B43D362164B0568144A9D4206D10D684E
:1008B000122D03D1556845F48005556005689D42A9
:1008C00018D10B68102B01D0112B13D1536843F4AE
:1008D00000035360096810290CD10A490A4A0968C3
:1008E000B1FBF2F101EB8101490000E0491E0091EA
:1008F0000029FBD180F83C40002078BD0023014056
:10090000002001403400002040420F007047704733
:100910000068C06C704770B5044600680168C1F398
:1009200040024168C1F3401152B349B3216CC9067A
:1009300003D4216C41F400712164816811F0405F9F
:1009400017D1217EA9B9C16A11F4700F02D0816854
:1009500049050ED4416821F020014160206C20F44B
:1009600080702064206CC00403D4206C40F001002F
:1009700020642046FFF7CAFF21686FF0120008606C
:10098000206801684268C1F38001C2F3C01289B3D4
:1009900082B3216CC90603D4216C41F40051216457
:1009A000816811F4401F1ED1816B11F4401F02D0E9
:1009B0008168490517D44168490514D4816811F04C
:1009C000405F10D1217E71B9416821F08001416002
:1009D000206C20F480502064206CC00503D4206C6F
:1009E00040F0010020642046FFF7E9FE21686FF027
:1009F0000C000860206801684268C1F30001C2F37E
:100A0000801271B16AB10068C0070AD0206C40F44E
:100A100080302064204600F046F821686FF0010025
:100A20000860206801684268C1F34011C2F3806227
:100A300000290DD0002A0BD0616C41F002016164E5
:100A40006FF0200505602046FFF761FF2068056014
:100A500070BD70B504004FF0000603D0206C002577
:100A600010B107E0012070BD204600F01DF865645C
:100A700084F83C50206CC00610D4206C20F48850C0
:100A800040F0020020642046FFF726FD6564206CDC
:100A900020F0020040F00100206400E0012684F80C
:100AA0003C50304670BD704730B587B004461421C5
:100AB0006846FFF7BDFB3748354B21680025354AAE
:100AC00014380324994215D1116841F480711160E2
:100AD000116801F480710591016841F00101016024
:100AE0000068694600F00100059038208DE831006B
:100AF000294826E0294B99422FD1116841F4007111
:100B00001160116801F400710591016841F0040160
:100B10000160016801F004010591016841F00201E2
:100B200001600068694600F00200059001208DE830
:100B300031001B4800F0C2FE009469461948CDE917
:100B4000014500F0BBFE00221146122001F0B8FA68
:100B5000122001F0A7FA07B030BD134B9942FAD129
:100B6000116841F480611160116801F480610591A0
:100B7000016841F0200101600068694600F0200032
:100B800005904FF44C708DE831000848D9E700001B
:100B90000020014044380240000002400021014092
:100BA00000080240000402400022014000140240FC
:100BB0002DE9F041044600680D4681684FF00007BA
:100BC00049050BD58068C00508D5206C40F0200091
:100BD000206484F83C700120BDE8F08100F05AFFE9
:100BE00006460FE0681C0DD025B100F053FF801BB6
:100BF000A84207D9206C40F00400206484F83C70BF
:100C00000320E9E7206800688007EBD521686FF0D2
:100C100012000860206C40F4007020642068816835
:100C200011F0405F13D1217E89B9C16A11F4700FB0
:100C300002D0806840050AD4206C20F480702064C3
:100C4000206CC00403D4206C40F00100206400201C
:100C5000C2E7000018B50022009290F83C1001296C
:100C600007D0012180F83C1001688B68DB0702D0B7
:100C700011E0022018BD8B6843F001038B602A4904
:100C80002A4B0968B1FBF3F101EB410100E0491E79
:100C900000910029FBD101688B68DB0741D0036C10
:100CA00040F20164A34343F4807303644B685B0523
:100CB00005D5036C23F4005343F480530364036CA1
:100CC000DB0404D5436C23F00603436400E0426474
:100CD00080F83C20164A6FF022030B6051680068D0
:100CE000CA06144906D088421BD1816811F0405FC2
:100CF00013D016E08842F8D00F4A904203D1D1F8C1
:100D00000423D206F1D00D4A90420AD1D1F804133F
:100D100001F01F011029E8D303E0816841F0804110
:100D20008160002018BD00003400002040420F0008
:100D30000023014000200140002101400022014029
:100D400090F83C1001290CD0012180F83C1001687A
:100D50008A6822F001028A6001688968C90702D0A6
:100D600007E002207047016C21F4885141F0010135
:100D70000164002180F83C100846704790F820205C
:100D8000012A07D0022A05D0416A41F4802141623C
:100D900001207047006842690A43426100207047A1
:100DA000F0B590F820500468A468012D05D0022DFC
:100DB00003D0416A41F4802153E014F0406F01D127
:100DC000E5004BD5C4F30164022C03D9416A41F418
:100DD000000146E00125A5401D608B684FF4C075F9
:100DE0009BB1CE6833434E6843EAC603066805EB01
:100DF0000417F3514FF4C273076803EB04130E6931
:100E0000FE50097D012905D009E00E88CB6843EA30
:100E10004653EBE70168CE5846F48076CE50117900
:100E2000D2F805304FF4C67641EA0323016806EB99
:100E300004168B511178D2F801204FF4C47341EAA3
:100E40000221026803EB0413D150006805EB041182
:100E5000425842F0010242500020F0BD416A41F484
:100E6000001141620120F0BD10B590F82020012A48
:100E700007D0022A05D0416A41F480214162012055
:100E800010BD3B48D0F8002242F00102C0F8002219
:100E9000D0F8002222F47C52C0F80022D0F80022C0
:100EA0004B6A42EA0322C0F800220A7D02F01F03C7
:100EB00001229A40D0F81C329343C0F81C32CB690F
:100EC000B3B9D0F80C329343C0F80C328C894B681C
:100ED00064F31F434C6900EBC404C4F840320C892E
:100EE0000B6864F31F434C6900EBC404C4F844323C
:100EF000CB69012B16D1D0F80C321343C0F80C3259
:100F00000C884B6864F31F434C6900EBC404C4F8BD
:100F100040320C89CB6864F31F434C6900EBC40476
:100F2000C4F844328B69002BD0F804320ED013433E
:100F3000C0F804320B69002BD0F8143208D01343E8
:100F4000C0F81432096A012904D008E09343EFE79E
:100F50009343F5E7D0F81C121143C0F81C12D0F8E7
:100F6000001221F00101C0F80012002010BD0000A5
:100F700000640040704730B590F82040012C05D047
:100F8000022C03D0416A41F480215DE0046800290D
:100F900055D02469A40754D04FF4D874056804EBE5
:100FA00001142D5915F00405956005682D594ED092
:100FB000ED08556005682C5904F00204D4604FF424
:100FC000DA74056804EB01142D5905F00F0515615D
:100FD00005682D59C5F30725956105682C59240C22
:100FE00054614FF4DC72046802EB0112A4581C70C7
:100FF0000468A458240A5C700468A458240C9C70EB
:101000000468A258120EDA704FF4DE72046802EB24
:101010000112A4581C710468A458240A5C71046865
:10102000A458240C9C710468A258120EDA7100684E
:1010300081B1016941F020010161002030BDE46807
:10104000A8E7416A41F400114162012030BD6D0DF5
:101050001560AFE7C16841F02001C160EDE72DE9FF
:10106000F05F0546006800244669D0F80490876860
:10107000D0F80CB0D0F810A0D0F81880F10748D004
:10108000F90714D001218160B80703D5284600F084
:10109000F5F90CE0780702D54FF4006407E0380753
:1010A00002D54FF4805402E0284600F0E5F9F80537
:1010B00016D529684FF480708860B80503D5284696
:1010C00000F0E3F90CE0780502D544F4005407E0A1
:1010D000380502D544F4804402E0284600F0D4F9F3
:1010E000F80316D529684FF480308860B80303D51B
:1010F000284600F0CCF90CE0780302D544F4004413
:1011000007E0380302D544F4803402E0284600F0BA
:10111000BDF9300707D55FEACB6004D529681020F8
:1011200044F40074C86070074FF0080707D55FEA01
:101130000B7004D52868C760284600F051F9B00745
:1011400006D52868C068800702D0284600F04AF912
:10115000700607D55FEACA6004D52968102044F4F8
:1011600080640861B00607D55FEA0A7004D5286874
:101170000761284600F052F9F00606D52868006994
:10118000800702D0284600F04AF9B00308D55FEA8C
:10119000C96005D5296810204860284600F040F94C
:1011A000F00307D55FEA097004D528684760284630
:1011B00000F06EF9300446D55FEA497040D5F0057D
:1011C00004D55FEAC87001D044F00104B00504D52D
:1011D0005FEA887001D544F00204700504D55FEA27
:1011E000487001D544F00404300529D518F0700F7B
:1011F00026D008F07000402815D006DC102809D051
:1012000020280AD0302816D10AE050280ED06028B5
:1012100011D10EE044F008040DE044F010040AE09F
:1012200044F0200407E044F0400404E044F080046B
:1012300001E044F480742868816921F070018161C3
:10124000296804204860002C05D0686A2043686241
:101250002846FFF78FFEBDE8F09F70B5040003D06D
:1012600094F8200010B104E0012070BD204600F089
:1012700081F82068016821F00201016000F00AFC99
:101280000546052604E000F005FC401B0A2811D89D
:10129000206840688007F6D42068016841F00101A9
:1012A000016000F0F7FB05460BE000F0F3FB401B8C
:1012B0000A2806D9606A40F40030606284F8206031
:1012C000D2E720684068C007EFD0207E0128206860
:1012D00001683DD021F080010160607E0128206816
:1012E000016838D021F040010160A07E012820680B
:1012F000016833D021F020010160E07E01282068E0
:1013000001682ED041F010010160207F0128206883
:10131000016829D021F008010160607F0128206860
:10132000016824D021F004010160D4E902010843DE
:10133000D4E90412114308436168491E0843216837
:10134000C86100206062012084F82000002070BD88
:1013500041F08001C0E741F04001C5E741F02001C4
:10136000CAE721F01001CFE741F00801D4E741F0CE
:101370000401D9E710B586B0044614216846FEF78B
:1013800057FF14492068884221D113480021026880
:1013900042F000720260006800F0007005900E4894
:1013A0001038026842F002020260006800F0020099
:1013B00005904FF4407000900220CDE90101032018
:1013C0000390092004906946044800F077FA06B0BB
:1013D00010BD00000064004040380240000402409C
:1013E0007047000010B5094B094A00210948FFF772
:1013F000C2FD06480178183881700121C170BDE82E
:1014000010402021044800F038BB000018000020E4
:101410005000002044010020001C0240704770472B
:10142000704770B5044690F82000012804D0606A27
:1014300040F40020606217E0022084F82000206859
:10144000016821F00101016000F024FB05460DE078
:1014500000F020FB401B0A2808D9606A40F40030E5
:101460006062052084F82000012070BD206840687B
:10147000C007EDD1606270BD7047000020210148B7
:1014800000F0FBBA001C024070477047704770477D
:10149000704790F83510022903D080214165012062
:1014A0007047052180F835100068016821F00101BE
:1014B000016000207047000070B5044600F0EAFAB1
:1014C0000546601C02D004480078044400F0E2FAAB
:1014D000401BA042FAD370BD280000202DE9FC4734
:1014E0004FF000060400B146009603D094F8440083
:1014F00018B107E00120BDE8FC8784F8456020466C
:1015000000F0E0F86548016841F48041016000683E
:1015100000F4804001906248016821F400010160FC
:101520000168226A11430160206800F5805001685B
:1015300041F00101016000F0ADFA05464FF4FA7781
:1015400008E000F0A7FA401BB84203D9032004F8D2
:10155000440F67E0206800F580500068C007F0D1B4
:101560002068006920F01C0500F076FE4D494E4AC7
:101570000144914202D245F0080516E04B494C4A1D
:101580000144914202D245F00C050EE049494A4A15
:101590000144914209D3494908444949884202D249
:1015A00045F0040501E045F01005206805614FF4A1
:1015B00000420021204600F046F90125A8BBFF208B
:1015C000FFF77AFF606888B300F064FA804641F262
:1015D00088376A460121204600F0F4F800F05AFAF4
:1015E000A0EB0800B84217D800984007F1D54FF497
:1015F00080520021204600F026F9B0B900F04AFAE6
:1016000080466A460121204600F0DCF800F042FAEC
:10161000A0EB0800B8420AD901212046FFF72EF8B6
:1016200004F8445F0320667065E724E018E0009842
:101630008006E6D56A461F21204600F0C3F8D0B9DF
:101640000098C10603D54FF40061E16000E0E66058
:10165000400701D5A66019E04FF48040A06015E076
:10166000E068A168C00840EA510082B2002120462B
:1016700000F0E9F830B101212046FEF7FFFF84F8C1
:10168000445037E740F6FF70FFF716FF4946204603
:10169000FEF7F4FF84F8445000202CE74438024061
:1016A0000438014000D3CEFEC0E1E40040F1E9FD82
:1016B00040787D0100796CFC005A6202001F0AFA32
:1016C00080F0FA02F0B587B0044614216846FEF7B0
:1016D000AFFD36492068884266D13548002401684C
:1016E00041F000710160016801F00071059101682D
:1016F00041F080610160016801F08061059101683D
:1017000041F000610160016801F00061059101682C
:1017100041F040010160016801F04001059101685C
:1017200041F004010160016801F0040105910168C4
:1017300041F001010160016801F0010105910168BA
:1017400041F0020101600068022500F002000590EE
:101750004FF48070CDE9000502AA03260B2782E82A
:10176000D0006946134800F0A9F83A20CDE90005F9
:1017700002AA694682E8D0000F4800F09FF8862050
:10178000CDE9000502AA694682E8D0000B4800F0C6
:1017900095F84FF46050CDE9000502AA694682E849
:1017A000D000074800F08AF807B0F0BD0080024082
:1017B0003038024000180240000802400000024099
:1017C000000402402DE9F047044690F84400914699
:1017D00082281DD0822084F84400206802694FF6D8
:1017E000FF7502F01C03228A05EAC2221A434FF455
:1017F000F86303EA8111114321F0020141F0010570
:10180000056100F047F9064601274FF480380FE0E4
:101810000220BDE8F08700F03DF9801B404505D36C
:1018200004F8447F002060700320F2E72068056917
:10183000E807F0D12068406981B2C9F8001084F847
:1018400044700020E5E72DE9F041044690F844009B
:1018500042281ED0422084F84400206803694FF6D5
:10186000FF7603F01C05238A06EAC3232B434FF4BB
:10187000F86505EA8111194341F0030591B2416110
:101880002068056100F006F9064601274FF480380C
:101890000FE00220BDE8F08100F0FCF8801B40451D
:1018A00005D304F8447F002060700320F2E720682D
:1018B0000569E807F0D184F84470EBE72DE9F84FAB
:1018C000DFF880B100224FF003094FF00F0A0BF14F
:1018D000040E01250B6895402B40AB4272D14C6839
:1018E000012C05D0022C03D0112C01D0122C10D1C8
:1018F0008668540009FA04F7BE43CF68A74037430F
:10190000876046680C79AE43C4F3001494403443B6
:101910004460C468570009FA07F58E68AC43BE40BE
:101920002643C6604C68022C01D0122C12D1D40878
:1019300000EB840CDCF820605407E40E0AFA04F88B
:1019400026EA0806D1F8108008FA04F848EA0608E2
:10195000CCF820800468AC430D7905F00305BD4048
:10196000254305604C68E40065D5374C256845F48F
:1019700080452560246822F0030504F48044009427
:10198000324C2E19D6F808789407250F0AFA05F478
:10199000A7432F4CA04201D1002424E02D4CA042AB
:1019A00001D101241FE02C4CA04201D102241AE0F5
:1019B0002A4CA04201D1032415E0294CA04202D1B7
:1019C000042410E037E0274CA04201D105240AE0AE
:1019D000254CA04201D1062405E0244CA04201D1AF
:1019E000072400E00824AC403C43C6F80848DBF874
:1019F00000405D464E689C43F60300D51C432C60B6
:101A0000DEF8004075464E689C43B60300D51C4383
:101A10002C600C4D08352C684E689C43F60200D5AE
:101A20001C432C60074D0C352C684E689C43B60255
:101A300000D51C432C60521C102AFFF44AAFBDE8AD
:101A4000F88F0000003C0140443802400030014063
:101A5000000002400004024000080240000C024066
:101A6000001002400014024000180240001C024016
:101A70000069084000D001207047426931EA020243
:101A800000D10904816170470AB18161704709047E
:101A9000FBE7000001488068704700002800002034
:101AA00070B5040025D094F83D00002520B984F8D5
:101AB0003C50204600F04CFA242084F83D00206879
:101AC000016821F0010101602068016841F40041D2
:101AD00001602068016821F40041016000F0C2FB50
:101AE0004D4B6168994201D84C4900E04C4988420D
:101AF00001D2012070BD4B492268B0FBF1F156685C
:101B000026F03F060E43566062689A4206D94FF4AB
:101B1000967251434FF47A72B1FBF2F12268491C7C
:101B2000166A26F03F06314311626168994210D867
:101B30004900401EB0FBF1F2521CC2F30B02042A12
:101B400001D2042022E0B0FBF1F0401CC0F30B00F6
:101B50001CE0A268F2B301EBC10303EB0116431EC4
:101B6000B3FBF6F35B1C43F480431B0549D092B3EF
:101B700001EBC10202EB0111401EB0FBF1F0401C71
:101B8000C0F30B0040F4804040F400402168CA6973
:101B90004CF6FF739A431043C861D4E90710014320
:101BA0002068026822F0C00211430160D4E90301F9
:101BB00001432068826848F2FF339A4311438160F1
:101BC000D4E9051001432068C26822F0FF021143E6
:101BD000C16001E00EE016E02068016841F00101FB
:101BE00001602564202084F83D00256384F83E5080
:101BF000002070BD01EB4106431EB3FBF6F35B1CF6
:101C0000B3E70120C2E701EB4101401EB0FBF1F058
:101C1000401CC0F30B00B7E7A086010080841E00C3
:101C200000093D0040420F002DE9FF4F83B09A4666
:101C3000DDE9119793460446DDF84080FFF72AFF5F
:101C4000054694F83D00202870D1192301227149DE
:101C50002046009501F096FC0028F5D194F83C0050
:101C6000012863D0012084F83C0020680168C9077E
:101C700003D1016841F0010101602068016821F48D
:101C800000610160222084F83D00402084F83E007D
:101C900000262664C4F82480A4F82A90608D20854C
:101CA0005D48E062CDE9007553465A4620460499E6
:101CB00001F070FB00287CD1208DD0B1012821D00B
:101CC0000228206824D0416980690090208D032873
:101CD00069D801282BD0514902283B464FF0000219
:101CE000009559D08846204601F04CFC002860D170
:101CF0003CE02068416981690091016841F400710C
:101D0000016077E02068016821F480610160F0E7FC
:101D1000016821F4806101602068016841F400617C
:101D20000160206841698069009063E06FE02A46A5
:101D30003946204601F0A6FC98BB20680069616A1C
:101D400008704EE02068016841F40071016020686D
:101D50000069616A0870606A401C6062218D491EDA
:101D60002185618D491E6185216838E02068016800
:101D700021F48061016020680069616A0870606A0E
:101D8000401C6062208D401E2085608D401E608555
:101D90003B46002241460095204601F0F3FB00B986
:101DA000D0E706E0FFE72A463946204601F06AFC04
:101DB00018B1012007B0BDE8F08F20680069616AA2
:101DC0000870606A401C6062218D491E2185618D0A
:101DD000491E618521684A69D24352070AD40969BC
:101DE0000170606A401C6062208D401E2085608DFD
:101DF000401E6085208D00287FF468AF202084F885
:101E00003D0084F83E6084F83C600020D2E7022068
:101E1000D0E70000020010000000FFFF04000100F6
:101E20002DE9FF4F83B09A46DDE9119793460446AA
:101E3000DDF84080FFF72EFE054694F83D0020288F
:101E40007FD11923012240492046009501F09AFBD9
:101E5000002876D194F83C00012872D0012084F843
:101E60003C0020680168C90703D1016841F0010105
:101E700001602068016821F400610160212084F87C
:101E80003D00402084F83E0000262664C4F82480EB
:101E9000A4F82A90608D20852C48E062CDE9007579
:101EA00053465A462046049901F0F2FA70B930E0E0
:101EB0002A463946204601F01AFC58B1206C042805
:101EC00004D12068016841F400710160012007B06D
:101ED000BDE8F08F606A216800780861626A521C70
:101EE0006262208D401E80B22085618D491E618511
:101EF00021684B69DB435B070BD468B1107808613C
:101F0000606A401C6062208D401E2085608D401EEE
:101F10006085208D0028CBD12A463946204601F025
:101F20000BFB0028CAD154F83D0B016841F4007145
:101F30000160202004F81E09E67766770020C6E7D6
:101F4000FFE70220C3E70000020010000000FFFFCF
:101F5000F0B587B0044614216846FEF769F9206899
:101F60001F4C1E4F1E491222012303250426103444
:101F7000B84216D1086840F0020008600868694657
:101F800000F002000590C0208DE86D001548FFF7B5
:101F900095FC206840F400102060206800F40010D8
:101FA00019E0114FB84217D1086840F0800008606E
:101FB0000868694600F0800005904FF4C0708DE815
:101FC0006D000A48FFF77AFC206840F400002060AA
:101FD000206800F40000059007B0F0BD00540040F8
:101FE0003038024000040240005C0040001C024007
:101FF00002488168027811448160704728000020FF
:102000000B4810B5016841F400710160016841F4AA
:1020100080610160016841F480710160032000F07B
:102020006FF8002000F006F800F024F8002010BD42
:10203000003C024070B50D4D04464FF47A7128788B
:10204000B1FBF0F00A490968B1FBF0F000F013FDB4
:1020500048B9102C07D200222146501E00F030F85B
:1020600000206C6070BD012070BD000028000020C1
:10207000340000200A4808B5016841F4804101603D
:10208000006800F4804000900548001F016841F09E
:1020900080510160006800F08050009008BD000091
:1020A00044380240002809DB00F01F020121914062
:1020B0004009800000F1E020C0F8001170470000E6
:1020C000F0B40E4B1B68C3F30223C3F10704042CC6
:1020D00000D904241D1D072D01D2002300E0DB1EC2
:1020E000012606FA04F56D1E0D409D409E40761EA9
:1020F000164045EA0601F0BC02F081BF0CED00E09D
:10210000064A00F0070110684FF6FF03184040EA46
:102110000120034908431060704700000CED00E007
:102120000000FA052DE9F0470D46040065D0DFF800
:102130001491D9F80000EFB200F00F00A84207D2C6
:1021400089F80070D9F8000000F00F00A84254D1BF
:1021500020683D4E810712D5400703D5306840F412
:10216000E05030602078000703D5306840F46040CC
:1021700030603068A16820F0F000084330602078BB
:10218000C0072DD0304960680839012812D00228D4
:1021900013D0032811D00968890700292DDA316886
:1021A00021F0030101433160FFF774FC804641F2E6
:1021B000883A0EE009688903EFE709688901ECE7CE
:1021C000FFF768FCA0EB0801514502D90320BDE8E8
:1021D000F0873068616800F00C00B0EB810FEFD140
:1021E000D9F80010484601F00F01A94207D907703D
:1021F000006800F00F00A84201D00120E7E7207836
:10220000400705D53068E16820F4E05008433060AD
:102210002078000706D53068216920F4604040EA44
:10222000C100306000F02EF83168084AC1F3031194
:10223000515CC8400649086006480068FFF7FAFE8E
:102240000020C4E7003C024008380240D853000890
:10225000340000202C000020014800687047000076
:10226000340000200448054900680968044AC1F3A5
:102270008221515CC8407047340000200838024079
:10228000E8530008154810B5006810F00C01144818
:1022900013D0144B04290FD008290ED10F4C241F42
:1022A000216801F03F022168490207D52068C0F388
:1022B0008810A0FB030106E0184610BD2168C1F399
:1022C0008811A1FB00010023FDF77AFF2168C1F30B
:1022D0000141491C4900B0FBF1F010BD0838024033
:1022E0000024F40080F0FA022DE9F84F040075D0C4
:1022F0002078DFF828A3C007AAF1040548D00AF126
:1023000004000168C1F38101012908D00068C0F30D
:10231000810002280AD1DAF80000400206D52868B8
:10232000800335D560680028E1D031E06068B0F501
:10233000803F10D0B0F5A02F286810D020F4803056
:102340002860286820F4802028606068A0B1FFF72A
:10235000A1FB06460CE0286840F48030F4E740F426
:1023600080202860F7E7FFF795FB801B642871D871
:1023700028688003F7D50BE0FFF78CFB064604E0E6
:10238000FFF788FB801B6428F1D828688003F7D406
:102390002078DFF88C9280074FF0000B3DD59F48E6
:1023A000001D016811F00C0F08D00068C0F3810017
:1023B00002280AD1DAF80000400206D42868800713
:1023C00015D5E068012809D111E0E068B8B1012114
:1023D000C9F80010FFF75EFB064605E01AE1FFF7BB
:1023E00059FB801B0228C2D828688007F7D52868C7
:1023F000216920F0F80040EAC10028600DE0C9F82A
:1024000000B0FFF747FB064604E0FFF743FB801BE5
:1024100002281FD828688007F7D42078000722D523
:102420007E4F80486169703771B101210160FFF70B
:1024300031FB064604E0FFF72DFB801B022809D87C
:1024400038688007F7D50EE0C0F800B0FFF722FB30
:10245000064605E082E0FFF71DFB801B02287DD8C1
:1024600038688007F7D42078400765D56B484FF06F
:1024700000083C300068C0000BD468483C3001685C
:1024800041F08051016000684FF0010800F0805079
:102490000090654F3868C0050FD4386840F48070EC
:1024A0003860FFF7F7FA064604E0FFF7F3FA801BFF
:1024B000022853D83868C005F7D5584FA0686C3744
:1024C00001280FD00528386810D020F001003860AE
:1024D000386820F004003860A068B0B1FFF7DAFA7D
:1024E00006460EE0386840F00100F4E740F00400D2
:1024F0003860F7E7FFF7CEFA811B41F2883081425E
:1025000063D838688007F5D50DE0FFF7C3FA0646B3
:1025100006E0FFF7BFFA811B41F28830814254D8B0
:1025200038688007F5D4B8F1000F05D03B483C303F
:10253000016821F080510160A069B8B33749091DD5
:102540000968C1F38101022946D00228584606D005
:10255000C9F86000FFF79EFA044639E035E04F46BF
:10256000C9F86000FFF796FA064604E0FFF792FA12
:10257000801B022829D828688001F7D4D4E90701F4
:102580000843A16A294A490802EB0141626A41EA0B
:102590008211084394F82C1040EA0161CAF8001037
:1025A00001203866FFF776FA044605E034E0FFF7CD
:1025B00071FA001B022808D828688001F7D52BE0A3
:1025C000FFF768FA001B022802D90320BDE8F88F44
:1025D00028688001F4D41FE00128F7D0DAF8000061
:1025E000E26900F48001914214D1226A00F03F01B7
:1025F00091420FD147F6C071626A0140914209D100
:10260000A26A00F44031914204D1E16A00F07060A6
:10261000884201D00120D9E70020D7E704380240E2
:1026200000004742800E4742007000400000FFFF5C
:102630007047000038B5016804464A688868C0439E
:10264000430606D5C30704D1D3435B0601D4216CEE
:1026500005E0830708D4D3431B0605D4616C01B0A1
:102660002046BDE830400847830603D5430601D520
:10267000C30551D4D3439B064ED443060AD494F8E1
:102680005130032B49D0636D43F004036365CB687D
:102690008B680093830609D4636D43F0010363657F
:1026A0008B6800930B6823F040030B60C00506D4D1
:1026B000606D40F008006065206880680090606D83
:1026C000002829D02068416821F0E0014160012004
:1026D00084F85100900701D4D00722D020684168C7
:1026E00021F003014160114DE06C40B10565E06CE3
:1026F000FEF7CFFE18B1606D40F040006065A06C41
:10270000002809D00565A06CFEF7C3FE002803D0A1
:10271000606D40F04000606538BDC8688868009012
:1027200038BD2046FFF784FF38BD00000D45000886
:1027300070B5040005D00025A56294F8510010B1D1
:1027400006E0012070BD84F85050204600F030F8BB
:10275000022084F851002068016821F040010160E6
:10276000D4E901010843D4E9031211430843616924
:102770000843218B01F400710843E1690843216A91
:102780000843A16A084321680860A069042101EA9E
:102790001040616A0843216848602068C16921F4DB
:1027A0000061C1616565012084F85100002070BDA1
:1027B0002DE9F04186B0044614216846FDF738FD46
:1027C0003248314B21680024304A10380225032654
:1027D000DFF8BC80994237D1116841F48041116023
:1027E000116801F480410591016841F48071016034
:1027F000016801F480710591016841F004010160F4
:10280000006802AB00F0040005900A20CDE9000545
:10281000052783E8D00069461E48FFF74FF80420DB
:10282000CDE9000502AB694683E8D0004046FFF7DA
:1028300045F8002211462420FFF742FC2420FFF730
:1028400031FC06B0BDE8F081134B9942F9D1116813
:1028500041F400411160116801F4004105910168E3
:1028600041F0040101600068029400F0040005904A
:102870004FF4E050CDE900050620CDE9036069463C
:102880004046FFF71BF8DCE70038004040380240C4
:102890000008024000200240003C00402DE9F84FB3
:1028A000044690F8500001250A9E1F4692468B462A
:1028B0004FF0000801280ED0012084F85000FFF7E7
:1028C000E9F8814694F85100616801280CD0B1F50F
:1028D000827F07D102E00220BDE8F88FA16809B924
:1028E000042801D00220B6E0BBF1000F27D0BAF1D6
:1028F000000F24D01FB394F85100042802D0052003
:1029000084F8510000206065C4F838A0E787A787E5
:10291000C4F830B0E786A786206460642068016848
:10292000490603D4016841F040010160E068B0F558
:10293000006F606805D0E8B3012F43D079E0012033
:1029400089E008B1012F34D1206B21680088C8606C
:10295000206B801C2063E08E401EE08629E020680A
:10296000816889070DD5E18E59B1012D09D1216BFF
:102970000988C160206B801C2063E08E401EE086C9
:10298000002520688168C9070BD0E18F49B1C06874
:10299000A16B0880A06B801CA063E08F401EE087C5
:1029A0000125FFF777F8A0EB0900B04201D3701CB6
:1029B00050D100E006E0E08E0028D0D1E08F002862
:1029C000CDD13CE0206B216800780873206B401C5F
:1029D0002063E08E401EE0862BE020688168890736
:1029E0000DD5E18E59B1012D09D1216B0978017303
:1029F000206B401C2063E08E401EE086002520688E
:102A00008168C9070BD0E18F49B1C068A16B08701C
:102A1000A06B401CA063E08F401EE0870125FFF7FC
:102A200039F8A0EB0900B04202D3701C01D011E0CC
:102A300086B1E08E0028D0D1E08F0028CDD14A4663
:102A40003146204601F06AFD38B120204FF00108E0
:102A5000606508E00320804605E0A06818B920689A
:102A6000C16880680090012084F85100002084F83B
:102A70005000404630E710B5401EB0F1807F01D3D2
:102A8000012010BD4FF0E02460610F21601702F0BB
:102A9000B6FA0020A06107202061002010BD704719
:102AA000704710B590F83C20012A22D0012280F80E
:102AB0003C20CA688C6822F4407222434C6822F49D
:102AC000806222430C6822F4006222430C6922F4E3
:102AD000805222434C6922F400522243C9690023E8
:102AE00022F480420A4301684A6480F83C300020A6
:102AF00010BD022010BD000070B590F83C20012AE6
:102B000032D0012580F83C50022280F83D20026836
:102B10005368946823F070060B6833435360134B7B
:102B200002689A4214D0B2F1804F11D0104B9A42F1
:102B30000ED0104B9A420BD00F4B9A4208D00F4B3D
:102B40009A4205D00E4B9A4202D00E4B9A4204D1C3
:102B5000496824F080031943916080F83D500021BA
:102B600080F83C10084670BD022070BD0000014096
:102B70000004004000080040000C00400004014038
:102B8000004001400018004010B5040003D094F844
:102B90003D0010B107E0012010BD002084F83C008A
:102BA000204600F00DF8022084F83D00211D206829
:102BB00001F0BEFD012084F83D00002010BD0000A2
:102BC00008B50068124A1349904207D1086840F0DE
:102BD00001000860086800F001000BE00E4A904216
:102BE0000AD10C48001F016841F010010160006823
:102BF00000F01000009008BD084A9042FBD1086820
:102C000040F002000860086800F00200F2E70000EF
:102C10000000014044380240001000400004014020
:102C20000168CA6842F00102CA600068816801F068
:102C30000701062903D0016841F00101016000206D
:102C400070470168CA6822F00102CA600068016A20
:102C500041F21112114207D1016A9210114203D1BF
:102C6000016821F0010101600020704770B5044641
:102C700090F83C00012817D0012584F83C50022030
:102C800084F83D002068826822F0770222F47F42B7
:102C900082600868502830D00DDC20284DD005DC3B
:102CA00098B310283BD148E0022070BD302844D0B2
:102CB000402834D139E0602828D0702806D0B0F5FB
:102CC000805F2CD0B0F5005F29D10AE0CB68D1E954
:102CD0000121206801F09DFD2068816841F07701A5
:102CE00009E0CB68D1E90121206801F092FD20685C
:102CF000816841F48041816011E0CA6849682068B8
:102D000001F05CFE5021206807E016E0CA684968BF
:102D1000206801F064FE6021206801F084FD84F8E1
:102D20003D50002084F83C0070BDCA6849682068A6
:102D300001F044FE40212068EFE72268014610467A
:102D4000EBE72DE9F0410D46040003D094F83D0077
:102D500018B108E00120BDE8F081002084F83C00B3
:102D6000204600F03BF8022084F83D00206881688E
:102D700044F2070291438160211D206801F0D8FCD4
:102D8000206881688269066A2B68AF690B4340F24C
:102D900003318A4342EA0722A968EF6911434FF6DB
:102DA000FC429143EA6841EA07210A4329692F6AF4
:102DB000090141EA073111436A686D6926F0AA06E4
:102DC00046EA05152A438360206881612068026213
:102DD000012084F83D000020BDE7000070B586B0FA
:102DE000044614216846FDF723FA4449206800246C
:102DF000424A103902250126B0F1804F19D0404BCC
:102E0000984243D1106840F002001060106800F052
:102E100002000590086840F00400086008686946F0
:102E200000F004000590C0200090CDE90154354821
:102E300060E0106840F001001060106800F00100D0
:102E40000590086840F002000860086800F0020081
:102E50000590086840F0010008600868694600F0C5
:102E60000100059008200090CDE90154CDE903460A
:102E70002548FEF723FD0096CDE90154CDE9034630
:102E800069462248FEF71AFD06B070BD204B9842F5
:102E900016D1106840F004001060106800F00400C3
:102EA0000590086840F0080008600868694600F06E
:102EB000080005904FF440508DE86100154819E076
:102EC000154B9842E0D1106840F00800106010687F
:102ED00000F008000590086840F08000086008686D
:102EE000694600F0800005904FF440600090CDE905
:102EF00001540A48CDE90345C4E7000040380240C8
:102F000000040040000802400004024000000240AB
:102F100000080040000C0240000C0040001C024071
:102F200010B50446006889B1042904D001220021AB
:102F300001F062FC20680122042101F05DFC2068A0
:102F4000016841F001010160002010BD0122002153
:102F5000F3E710B504460068D1B1042904D000227B
:102F6000114601F049FC20680022042101F044FCD4
:102F70002068016A41F21112114207D1016A9210D0
:102F8000114203D1016821F001010160002010BD50
:102F900000221146EAE7704770B5044600680169EF
:102FA0004FF00005C943890715D4C168C943890793
:102FB00011D4E91E01610120207720688069800713
:102FC000204602D0FFF7E7FF04E000F0DDF82046DE
:102FD00000F05FF9257720680169C943490717D4D4
:102FE000C168C943490713D46FF00401016102208D
:102FF00020772068806910F4407F204602D0FFF7D8
:10300000CAFF04E000F0C0F8204600F042F925773E
:1030100020680169C943090716D4C168C943090773
:1030200012D46FF008010161042020772068C06984
:103030008007204602D0FFF7AEFF04E000F0A4F8BE
:10304000204600F026F9257720680169C943C906A2
:1030500017D4C168C943C90613D46FF010010161C8
:10306000082020772068C06910F4407F204602D0F5
:10307000FFF791FF04E000F087F8204600F009F91F
:10308000257720680169C943C90708D1C168C943C8
:10309000C90704D1891E0161204600F04BF9206860
:1030A0000169C943090609D4C168C943090605D4A1
:1030B0006FF0800101612046FFF7F1FC2068016993
:1030C000C943490609D4C168C943490605D46FF00C
:1030D00040010161204600F035F920680169C943CB
:1030E00089060BD4C168C943890607D46FF0200153
:1030F00001612046BDE87040FFF7D2BC70BD000002
:1031000010B586B0044614216846FDF791F8206892
:10311000184C002218490223A04212D1086840F03E
:10312000010008600868694600F0010005904FF44E
:1031300070600090CDE901320120CDE903200F48F5
:1031400013E00F4CA04212D1086840F48070086070
:103150000868694600F480700590E4200090CDE98D
:1031600001320320CDE903200648FEF7A7FB06B095
:1031700010BD000000000140303802400000024055
:103180000004014000200240704770B5044690F8EA
:103190003C000D4601280DD0012684F83C60022039
:1031A00084F83D0042B1042A18D0082A2AD00C2AFB
:1031B0004DD139E0022070BD206801F03DFB206850
:1031C000816941F0080181612068816921F0040171
:1031D0008161206881692A69114311E0206801F04A
:1031E0005BFB2068816941F400618161206881692D
:1031F00021F480618161206881692A6941EA0221A4
:10320000816124E0206801F07DFB2068C16941F004
:103210000801C1612068C16921F00401C161206811
:10322000C1692A69114311E0206801F09FFB206801
:10323000C16941F40061C1612068C16921F4806104
:10324000C1612068C1692A6941EA0221C16184F82B
:103250003D60002084F83C0070BD10B5040003D030
:1032600094F83D0010B107E0012010BD002084F863
:103270003C00204600F00CF8022084F83D00211D9F
:10328000206801F055FA012084F83D00002010BDAF
:103290007047704710B504460068012201F0ACFA8F
:1032A0000B482168814202D00A48814203D1486C10
:1032B00040F4004048642068816801F00701062955
:1032C00003D0016841F001010160002010BD000041
:1032D000000001400004014010B5044600680022CF
:1032E00001F08AFA114841F21112216893108142CB
:1032F00002D00F48814209D1086A104206D1086AFB
:10330000184203D1486C20F4004048642068016AE8
:10331000114206D1016A194203D1016821F001016D
:103320000160012084F83D00002010BD0000014034
:103330000004014002480178491C017070470000F8
:10334000000000207047FEE710B510210348FEF78B
:1033500094FB03490020487010BD0000001C02408F
:103360000000002001684A69D24352050FD46FF46F
:1033700080624A61002140F8301F2022427381732D
:10338000026942F0040202610173012070470020CB
:10339000704700002DE9F84F0446006889460B9EEF
:1033A00001689846174641F4806101602068016811
:1033B00041F48071016000964FF0011B00225946D4
:1033C00020460A9B00F0DEF84FF4007A40B12068F6
:1033D0000068C00501D5C4F840A00320BDE8F88FFF
:1033E000216809F0FE0008613346284920460A9A00
:1033F00000F0FCF8F0BB206841698069009032461B
:1034000020460A9900F073F940B1206C04283AD1A3
:103410002068016841F40071016034E0FDB2B8F148
:10342000010F09D02168380A0861324620460A99FE
:1034300000F05DF90028E8D1206805613246204699
:103440000A9900F054F90028DFD12068016841F49E
:103450008071016000960022594620460A9B00F0C8
:1034600091F80028B3D1216809F0FF0040F0010075
:10347000086100E007E03346044920460A9A00F05C
:10348000B5F80028AAD00120A8E70000020001003A
:103490002DE9F843044600680D46DDE90897016808
:1034A0009846164641F4807101604B4600224FF069
:1034B00001112046009700F065F848B120680068C7
:1034C000C00502D54FF4007020640320BDE8F883E6
:1034D000216805F0FE0008613B464A461549204632
:1034E00000F084F888B920684169806900903A4604
:1034F0004946204600F0FBF848B1206C042804D16E
:103500002068016841F4007101600120DEE7F5B236
:10351000B8F1010F09D02168300A08613A464946DE
:10352000204600F0E4F80028E7D12068056100207B
:10353000CCE700000200010070B516460D460446B7
:103540000DE02046FFF70EFF08B1012070BD681C9A
:1035500005D0FEF79FFA801BA84207D835B1206836
:103560004069C0434007ECD4002070BD002044F8FF
:10357000300F20216173A073216941F02001216186
:103580002073E2E72DE9F0471D4690460E460446BB
:10359000C1F30747DDF8209008E0681C06D0FEF76D
:1035A00079FAA0EB0900A8420FD875B12068012F65
:1035B00018D0806926EA00000004000C14D0002016
:1035C0004045EAD00020BDE8F087002044F8300FE5
:1035D00020216173A073216941F0200121612073D2
:1035E0000120F0E74069E5E70120E9E72DE9F04730
:1035F000984615460E4604464FF000094FF0200A43
:10360000C1F3074723E020684069C043400515D453
:103610002068016841F40071016021686FF48060E6
:103620004861C4F8309084F83DA084F83E90216C45
:1036300041F00401216484F83C901EE0681C06D02F
:10364000FEF728FAA0EB0800A8420AD84DB120687E
:10365000012F15D0806926EA00000004000C0DD06F
:10366000D1E744F8309F84F80DA084F80E902169CA
:1036700041F02001216184F80C900120BDE8F08721
:103680004069E8E72DE9F04116460D46044600275B
:103690004FF0200817E04069C043C0060DD454F82D
:1036A000301B6FF01000486144F80D7B04F81D8951
:1036B000A777206A2062277717E0FEF7EBF9801BD7
:1036C000A84208D83DB120684169C9434906E2D4FF
:1036D0000020BDE8F08144F8307F84F80D80A773A6
:1036E000206940F02000206127730120F1E770B5C8
:1036F00016460D4604460DE02046FFF733FE08B19E
:10370000012070BD681C05D0FEF7C4F9801BA842DB
:1037100007D835B120684069C0430006ECD40020CA
:1037200070BD002044F8300F20216173A07321691F
:1037300041F0200121612073E2E7000070B50E4DD9
:1037400001223C212846FEF79FF94FF4FA70FDF75D
:10375000B3FE0A4C09E03C212846FEF78EF96420AE
:10376000FDF7AAFE6178491C617060780628F2D3E3
:103770000020607070BD0000001C024000000020AE
:103780002DE9FF414FF000085A48CDF80080CDF8F0
:103790000480CDF80880564ACDF80C8002600124E0
:1037A0004FF480320461C0E9012880F8188080F865
:1037B0002080514AC0E90A280525C0F80C804146FE
:1037C000C56180F830104461FDF743F908B1FCF79A
:1037D000F5FF0326CDE900640624694645480294B6
:1037E000FCF7EEFF08B1FCF7E9FF04270220CDE962
:1037F000007069463F48FCF7E3FF08B1FCF7DEFFC5
:10380000CDE9005669463B48FCF7DAFF08B1FCF702
:10381000D5FF0096CDE9017469463648FCF7D0FF24
:1038200008B1FCF7CBFF694632480195FCF7C8FFA9
:1038300008B1FCF7C3FFCDE9014869462D48FCF704
:10384000BFFF08B1FCF7BAFF07200190694629487D
:10385000FCF7B6FF08B1FCF7B1FF082001906946FC
:103860002448FCF7ADFF08B1FCF7A8FF0920019040
:1038700069462048FCF7A4FF08B1FCF79FFF0A2027
:10388000019069461B48FCF79BFF08B1FCF796FFC7
:103890000B20019069461748FCF792FF08B1FCF72E
:1038A0008DFF0C20019069461248FCF789FF08B192
:1038B000FCF784FF0D20019069460E48FCF780FF5D
:1038C00008B1FCF77BFF0E20019069460948FCF720
:1038D00077FF08B1FCF772FF0F2001906946054899
:1038E000FCF76EFF002801D0FCF768FFBDE8FF8100
:1038F000002001406C0000200100000F2DE9FF476F
:103900004FF000095B48CDF80090CDF80490CDF859
:103910000890574ACDF80C90026001254FF4803290
:103920000561C0E9012980F8189080F82090524A7A
:10393000C0E90A290524C0F80C904946C46180F802
:1039400030104561FDF785F808B1FCF737FF082610
:10395000CDE900650625694646480295FCF730FF2B
:1039600008B1FCF72BFF09270220CDE9007069465A
:103970004048FCF725FF08B1FCF720FF4FF00A088C
:103980000320CDE9008069463A48FCF719FF08B1E9
:10399000FCF714FF0420CDE9006069463548FCF7C8
:1039A0000FFF08B1FCF70AFF694632480194FCF7A3
:1039B00007FF08B1FCF702FF69462E480195FCF7A6
:1039C000FFFE08B1FCF7FAFE07200190694629487E
:1039D000FCF7F6FE08B1FCF7F1FE694625480196B2
:1039E000FCF7EEFE08B1FCF7E9FE694621480197B5
:1039F000FCF7E6FE08B1FCF7E1FE69461D48CDF88C
:103A00000480FCF7DDFE08B1FCF7D8FE0B20CDE901
:103A1000010969461748FCF7D3FE08B1FCF7CEFE52
:103A20000C20019069461348FCF7CAFE08B1FCF768
:103A3000C5FE0D20019069460E48FCF7C1FE08B195
:103A4000FCF7BCFE0E20019069460A48FCF7B8FE60
:103A500008B1FCF7B3FE0F20019069460548FCF75A
:103A6000AFFE002801D0FCF7A9FEBDE8FF870000EB
:103A700000210140B40000200100000F2DE9FF47A4
:103A80004FF000095B48CDF80090CDF80490CDF8D8
:103A90000890574ACDF80C90026001254FF480320F
:103AA0000561C0E9012980F8189080F82090524AF9
:103AB000C0E90A290524C0F80C904946C46180F881
:103AC00030104561FCF7C5FF08B1FCF777FE0E2604
:103AD000CDE900650625694646480295FCF770FE6B
:103AE00008B1FCF76BFE4FF00F080220CDE9008013
:103AF00069464048FCF764FE08B1FCF75FFE03200E
:103B0000CDE9005069463B48FCF75AFE08B1FCF786
:103B100055FE07270420CDE9007069463548FCF7BB
:103B20004FFE08B1FCF74AFECDE900546946314822
:103B3000FCF746FE08B1FCF741FE69462D480195A9
:103B4000FCF73EFE08B1FCF739FE694629480197AB
:103B5000FCF736FE08B1FCF731FE082001906946FB
:103B60002448FCF72DFE08B1FCF728FE092001903F
:103B700069462048FCF724FE08B1FCF71FFE0A2026
:103B8000019069461B48FCF71BFE08B1FCF716FEC6
:103B90000B20019069461748FCF712FE08B1FCF7AC
:103BA0000DFE0C20019069461248FCF709FE08B191
:103BB000FCF704FE0D20CDE9010969460D48FCF72C
:103BC000FFFD08B1FCF7FAFD69460A480196FCF7CB
:103BD000F7FD08B1FCF7F2FD69460648CDF8048010
:103BE000FCF7EEFD002801D0FCF7E8FDBDE8FF87FB
:103BF00000220140FC0000200100000F0F4810B51A
:103C00000D4901600321416000214FF420228160B1
:103C1000C0E903124FF48012426101764176817649
:103C2000C17601774177FDF718FB002803D0BDE886
:103C30001040FCF7C3BD10BD0064004044010020EB
:103C4000124810B5104901600121416001824269AA
:103C500000211170436980225A704369E1229A70F1
:103C60004269D17042691171426951718161C161CA
:103C70004FF400010162FDF731FC002803D0BDE8DC
:103C80001040FCF79BBD10BD008002406C0100207D
:103C90002DE9F04F87B014216846FCF7C9FA5F4858
:103CA0000024016841F010010160016801F0100179
:103CB0000591016841F002010160016801F0020113
:103CC0000591016841F040010160016801F0400187
:103CD0000591016841F004010160016801F00401EF
:103CE0000591016841F001010160016801F00101E5
:103CF0000591016841F008010160016801F00801C7
:103D00000591016841F480710160016801F48071DE
:103D10000591016841F080010160016801F08001B6
:103D20000591016841F0200101600068DFF8F08032
:103D300000F020004FF2020505900022294640467F
:103D4000FDF7A2FEDFF8DC904FF404560022314666
:103D50004846FDF799FEDFF8D0A000220121504629
:103D6000FDF792FEDFF8C4B000223C215846FDF773
:103D70008BFE4FF48067002239462D48FDF784FE04
:103D800000950125CDE90154694640460394FDF7AD
:103D900095FD4FF47040CDE9000469462548029432
:103DA000FDF78CFD0F20CDE9000469462048029400
:103DB000FDF784FD0096CDE9015469464846039419
:103DC000FDF77CFD1020CDE90004694650460294C1
:103DD000FDF774FD0095CDE9015469465046039402
:103DE000FDF76CFD3C200090CDE901546946584632
:103DF0000394FDF763FD0097CDE9015469460C4833
:103E00000394FDF75BFD4020CDE9000469460A48B4
:103E10000294FDF753FD07B0BDE8F08F3038024043
:103E2000001002400008024000200240001C024036
:103E3000000C024000180240000002400D4810B57E
:103E40000B4901600C49416000214FF480428160C0
:103E5000C0E9031241618161C1610162FDF720FE89
:103E6000002803D0BDE81040FCF7A8BC10BD00003E
:103E700000540040B4010020A08601000D4810B598
:103E80000B4901600C49416000214FF48042816080
:103E9000C0E9031241618161C1610162FDF700FE69
:103EA000002803D0BDE81040FCF788BC10BD00001E
:103EB000005C004008020020A0860100104810B5F8
:103EC0000E4901604FF48271416000214FF400629D
:103ED000C0E9021292100161C0E905122022C0E976
:103EE0000721416281620A21C162FEF721FC00289C
:103EF00003D0BDE81040FCF761BC10BD00380040A5
:103F00005C020020104810B50E4901604FF4827128
:103F1000416000214FF40062C0E902129210016179
:103F2000C0E905123822C0E90721416281620A21F5
:103F3000C162FEF7FDFB002803D0BDE81040FCF78E
:103F40003DBC10BD003C0040B402002010B596B04E
:103F500000240F9410941194129413941C21684619
:103F60001494FCF765F9202107A8FCF761F934489F
:103F700032490160A021C0E901146421C0E90314A1
:103F800044618461FEF700FE08B1FCF717FC4FF4B2
:103F900080500F900FA92A48FEF768FE08B1FCF781
:103FA0000DFC2748FFF759F908B1FCF707FC1394FB
:103FB00013A923481494FEF79FFD08B1FCF7FEFBFC
:103FC000602000903220CDE901040394049405940C
:103FD000002269461A480694FFF7D7F808B1FCF7A3
:103FE000EDFB042269461648FFF7CFF808B1FCF74D
:103FF000E5FB082269461248FFF7C7F808B1FCF74D
:10400000DDFB0C2269460E48FFF7BFF808B1FCF74C
:10401000D5FB0794089409944FF400500A94CDE915
:104020000B4007A906480E94FEF73BFD08B1FCF7CC
:10403000C5FB0348FFF764F816B010BD000001404F
:104040000C03002010B58CB024216846FCF7F0F872
:104050000024144809944FF080410A94C0E90014E8
:104060001021C0E90241046184610120CDE900040E
:10407000CDE902040494CDE9054007946946094856
:104080000894FEF75EFE08B1FCF798FB099409A9B5
:1040900004480A94FEF730FD002801D0FCF78EFB9F
:1040A0000CB010BD4C03002010B58CB02421684624
:1040B000FCF7BEF800241548099413490A94C0E996
:1040C00000141021C0E90241046184610120CDE99E
:1040D0000004CDE902040494CDE905400794694643
:1040E0000A480894FEF72DFE08B1FCF767FB099417
:1040F00009A906480A94FEF7FFFC002801D0FCF746
:104100005DFB0CB010BD0000000400408C030020DB
:1041100010B58CB024216846FCF78AF800241548B5
:10412000099413490A94C0E900141021C0E902411E
:10413000046184610120CDE90004CDE90204052178
:104140000491CDE90540CDE9074169460948FEF7EC
:10415000F8FD08B1FCF732FB099409A905480A9457
:10416000FEF7CAFC002801D0FCF728FB0CB010BDFC
:1041700000080040CC03002010B58CB02421684614
:10418000FCF756F800241548099413490A94C0E92D
:1041900000141021C0E90241046184610120CDE9CD
:1041A0000004CDE902040494CDE905400794694672
:1041B0000A480894FEF7C5FD08B1FCF7FFFA099418
:1041C00009A906480A94FEF797FC002801D0FCF7DD
:1041D000F5FA0CB010BD0000000C00400C040020EB
:1041E0001CB500240F4800940D490194016048F665
:1041F0009F41C0E901144FF4FA518461C160FEF798
:10420000C3FC08B1FCF7DAFA00946946054801944A
:10421000FEF772FC002801D0FCF7D0FA1CBD0000AC
:10422000001000404C04002010B596B000240F94FC
:1042300010941194129413941C2168461494FBF763
:10424000F7FF202107A8FBF7F3FF3448324901604C
:10425000A021C0E901146421C0E903144461846110
:10426000FEF792FC08B1FCF7A9FA4FF480500F90CA
:104270000FA92A48FEF7FAFC08B1FCF79FFA274875
:10428000FEF7EBFF08B1FCF799FA139413A9234842
:104290001494FEF731FC08B1FCF790FA602000900E
:1042A0003220CDE901040394049405940022694668
:1042B0001A480694FEF769FF08B1FCF77FFA04225A
:1042C00069461648FEF761FF08B1FCF777FA082245
:1042D00069461248FEF759FF08B1FCF76FFA0C2245
:1042E00069460E48FEF751FF08B1FCF767FA0794DC
:1042F000089409944FF400500A94CDE90B4007A9A3
:1043000006480E94FEF7CDFB08B1FCF757FA0348B8
:10431000FEF7F6FE16B010BD000401408C0400202C
:10432000FEE77047704700002DE9F041654C0546F7
:104330002DED068B002020806080A080E080284644
:10434000FCF788FC4FF4FA7739462846FCF730FC36
:104350002846FCF7DDFA208039462846FCF728FC81
:104360002846FCF7D5FA608039462846FCF720FC41
:104370002846FCF7CDFA544EA080B54207D1394605
:104380002846FCF715FC2846FCF7C2FAE0802846D0
:10439000FCF7D6FC4D489FED4EAB9FED4F8B9FED4C
:1043A000509B854225D12088A0F50060FBF7BDFF1A
:1043B00053EC1A2BFBF747FFFBF7D5FF20806088F3
:1043C000A0F50060FBF7B1FF53EC1A2BFBF73BFFA6
:1043D000FBF7C9FF6080A088FBF7B8FF53EC182BF0
:1043E000FBF731FF53EC192BFBF72DFFFBF7BBFF5E
:1043F000A0803D4885422BD12088FBF7A7FF53ECD6
:10440000182BFBF720FF53EC192BFBF71CFFFBF7D6
:10441000AAFF20806088FBF799FF53EC182BFBF76D
:1044200012FF53EC192BFBF70EFFFBF79CFF60808C
:10443000A088FBF78BFF9FED2D1B53EC112BFBF797
:1044400002FF53EC192BFBF7FEFEFBF78CFFA0805D
:10445000B54233D12088FBF779FF53EC182BFBF7DB
:10446000F2FE53EC192BFBF7EEFEFBF77CFF2080EE
:104470006088FBF76BFF53EC182BFBF7E4FE53EC63
:10448000192BFBF7E0FEFBF76EFF6080A088A0F51C
:104490000060FBF74AFF53EC1A2BFBF7D4FEFBF747
:1044A00062FFA080E088A0F50060FBF73EFF53ECC0
:1044B0001A2BFBF7C8FEFBF756FFE080BDEC068B1E
:1044C000BDE8F08120000020FC0000206C000020EE
:1044D00085EB51B81E85034000000000007CB5400C
:1044E000000000000000303FB40000200000000089
:1044F00040EBF0400148FEF79DB800005C02002050
:104500000148FEF797B80000B402002010B5806B98
:104510000021C187C186FEF78BF810BD38B504466F
:104520001248134D4FF47A730068B0FBF5F058430E
:1045300000906068B0F5827F0DD10B46009200229A
:104540008021204600F016F870B1606D40F0200028
:104550006065032038BD009830B1401E009020688F
:104560008068C0430006F6D5002038BD3400002026
:1045700000366E012DE9F0411D4617460E460446F1
:10458000DDF8188008E0681C06D0FDF783FAA0EB80
:104590000800A8420BD255B12068806836EA0000B6
:1045A00030D00020B842EED10020BDE8F081206874
:1045B000416821F0E00141606068B0F5827F0BD175
:1045C000A068B0F5004F02D0B0F5806F04D120682C
:1045D000016821F040010160A06AB0F5005F09D1D7
:1045E0002068016821F4005101602068016841F4ED
:1045F00000510160012084F85100002084F850002F
:104600000320D2E70120CDE770470000F0B404ACEE
:1046100094E8E010084C20706170A270E37025717E
:104620006671A771231F84F807C0F0BC1A1D0349E7
:104630000348FCF7B5BB0000100000203800002044
:1046400044010020FDF7D4BC30B593B0302168465A
:10465000FBF7EEFD14210CA8FBF7EAFD1A48002534
:10466000016841F080510160006800F080501190B5
:104670001648016841F4804101600068022400F49A
:1046800080401190012000904FF4A020019060051F
:10469000CDE9064019200890A820CDE9090404209E
:1046A0000B906846FDF720FE0CA90F2081E8310031
:1046B0004FF4A0500F90E002109005210CA8FDF7D8
:1046C00031FD13B030BD00004038024000700040A2
:1046D0001048016841F4700101600F48016841F021
:1046E000010101600C4A00210832116002680B4B85
:1046F0001A400260031D0A4A1A60026822F48022EE
:10470000026005480C300160024958068039086093
:104710007047000088ED00E000380240FFFFF6FE21
:10472000103000240148FEF737BC00004C04002084
:10473000F0B50268254D264E264FDFF89CC0274B6A
:104740004FF0804EA84209D0704507D0B04205D046
:10475000B84203D0604501D0984203D122F07004E2
:104760004A682243A8421BD0704519D0B04217D0E6
:10477000B84215D0604513D0984211D0184CA042D1
:104780000ED0184CA0420BD0174CA04208D0174CAA
:10479000A04205D0164CA04202D0164CA04203D134
:1047A00022F44074CA6822434C6922F080022243FA
:1047B00002608A68C2620A688262A84201D0984296
:1047C00001D10969016301214161F0BD000001408F
:1047D0000004004000080040000C004000040140BC
:1047E00000400140004401400048014000180040E2
:1047F000001C00400020004010B501F01F01012303
:10480000046A8B409C430462036A8A401343036238
:1048100010BD10B5846842EA032224F47F440A43A1
:104820002243826010BD826822F070020A4342F087
:104830000701816070470000F0B5026A22F00102B2
:104840000262026A43688469114E24F073050C68A1
:10485000104F2C4322F002058A682A43B04201D04F
:10486000B84205D122F00805CA682A4322F00402A2
:10487000B04201D0B84205D14D6923F440731D43C5
:104880008B692B4343608461496841630262F0BDD8
:104890000000014000040140F0B5026A22F010025D
:1048A0000262026A436884690D6824F4E64444EABB
:1048B00005248D6822F0200242EA05120F4D104EA9
:1048C000A84201D0B04206D1CF6822F0800242EA6D
:1048D000071222F04002A84201D0B04207D14D6930
:1048E00023F4406343EA85038D6943EA850343600B
:1048F0008461496881630262F0BD000000000140EC
:1049000000040140F0B5026A22F480720262026A79
:104910004368C46922F4007224F073050C68124ED7
:104920002C438D6842EA05220E4DA84201D0B042C8
:1049300006D1CF6822F4006242EA072222F48062A4
:10494000A84201D0B04207D14D6923F4405343EA55
:1049500005138D6943EA05134360C4614968C16367
:104960000262F0BD000001400004014030B5026A5F
:1049700022F480520262036A4268C4690D6824F41A
:10498000E64444EA05248D6823F4005343EA0533E2
:10499000084DA84202D0084DA84204D14D6922F426
:1049A000804242EA85124260C46149680164036240
:1049B00030BD0000000001400004014010B5046A51
:1049C000036A23F001030362836923F0F00343EADF
:1049D000021324F00A020A438361026210BD10B57B
:1049E000036A23F0100303628469036A24F47044A9
:1049F00044EA023223F0A00343EA0111826101621A
:104A000010BD00002DE9F04F3EA089B0006807906E
:104A10003CA00024006808903BA0DFF8F8B00068D4
:104A200005903AA04FF001080068069038A0C8260B
:104A300000684FF4005A0DF11009049014B1012CD4
:104A400003D101E0344F00E0344F0025012C4FF03A
:104A5000000229D001213248FDF716F83220FCF778
:104A60002BFD022305AA07A938460096FDF716FF7D
:104A70003220FCF721FD022306AA08A93846009639
:104A8000FDF70CFF3220FCF717FD012C4FF001025F
:104A90000DD001212248FCF7F7FF6D1C0A2DD5DB54
:104AA0009DF8140078B905E051465846D4E75146C0
:104AB0005846F0E79DF8150028B99DF8180010B980
:104AC0009DF8190018B14FF00008BB2100E0AA21A1
:104AD00009F80410641C022CB0DBFF209DF81120A3
:104AE0009DF81010B8F1000F009001900290039013
:104AF000034601D0AA2000E0BB20FFF787FD09B0E4
:104B0000BDE8F08F80000000AABB0000CCDD0000F3
:104B1000AAAA0000000802405C020020B4020020A3
:104B2000002002402DE9FF472649FF2340F2EF2AEB
:104B30000D884C888A88270A2E0A110AA5F64D0985
:104B4000A4F64D0C07281CD2DFE800F01B041D253D
:104B500030253000A2F59E40B038B0F5E15F07D9AE
:104B60000093019302930393D2B2FF23BB2006E08C
:104B70000093019302930393D2B2FF23AA20FFF77D
:104B800045FDBDE8FF87A2F580509A3840F2DD541C
:104B9000A042EDD3E4E70093019302930393D14540
:104BA000EAB24FF0FF033146E0D2E7E7009301930A
:104BB00002930393D445E2B24FF0FF033946D5D2B6
:104BC000DCE70000200000202DE9F04F87B026A090
:104BD0004FF00108006800240DF1100946464FF01F
:104BE0000A0A0DF1140B0490002509EB0407CDE926
:104BF0000076FF232A46A0211C48CDF808A0FDF727
:104C00000FF90A20FCF758FCCDE900B6FF232A462D
:104C1000A02116480296FDF707F80A20FCF74CFC85
:104C200019F804009DF81410884201D04FF00008D4
:104C30006D1CEDB2062DDAD3641CE4B2022CD3D382
:104C4000FF20B8F1000F0090019002900346024649
:104C50000146039001D0AA2000E0BB20FFF7D6FC5C
:104C600007B0BDE8F08F0000AA550000B401002095
:104C70002DE9FF5F0E4600259946924683460124A2
:104C80002F463C21FEF74CF92648FDF7C9FF0820C6
:104C90007062DFF894800AE049465046FCF7E8FE6F
:104CA000012804D098F80000042804D005E098F802
:104CB00000000428F0D3012700244FF0000988F8F1
:104CC000009004E0706AC5B20A20FCF7F5FB102DD5
:104CD00006D098F80000042802D2012CF2D005E09A
:104CE00098F80000042801D102270024C6F8249077
:104CF00088F800903C215846FEF72BF90948FDF74B
:104D0000A0FFFF2000900190029003460246394622
:104D100003900CB1AA2000E0BB20FFF777FCBDE8B0
:104D2000FF9F00004C040020000000207FB50446D7
:104D300040211048FCF79CFE054610210E48FCF768
:104D400097FEFF21A5420AD1A04208D1FF2300917E
:104D50000191029103911A461946AA2007E0FF2308
:104D600000910191029103911A461946BB20FFF769
:104D70004DFC7FBD00000240002002401FB5C8204E
:104D8000FCF79AFBFF200090019002900346024638
:104D9000039000210220FFF739FC1FBD70B51D4DA7
:104DA000002401223C212846FCF76EFE4FF4FA76DF
:104DB0003046FCF781FB04212846FCF75EFE3046B6
:104DC000FCF77AFB641C042CF5DB00240821284640
:104DD000FCF753FE3046FCF76FFB641C042CF5DB3C
:104DE000002410212846FCF748FE3046FCF764FBFF
:104DF000641C042CF5DB002420212846FCF73DFE32
:104E00003046FCF759FB641C042CF5DB02490020FA
:104E1000487070BD001C0240000000202DE9F047E2
:104E200028A086B00068059027A001250668002408
:104E30000DF11408A94642F2107A04AF3A198DE830
:104E4000040618F804200123BF212048FCF7ECFEDB
:104E50000A20FCF731FB24B1012C06D0022C15D11D
:104E60000BE09DF81000F1B20DE09DF81110C6F3B3
:104E70000720B0EB111F08D108E09DF81200C6F31F
:104E8000074100F00F00884200D00025641CE4B206
:104E9000032CD3D3FF2000900190029003909DF843
:104EA00012009DF8101000F00F039DF811004FEA5A
:104EB00010120DB1AA2000E0BB20FFF7A7FB06B03F
:104EC000BDE8F0870001010088020300080200200D
:104ED0002DE9FF4F074689B000208DF81C00DFF850
:104EE00018B11E4689464FF01E0804908DF81D002B
:104EF00004464FF0010AB9F1000F12D0B9F1040FC6
:104F000013D0305D3968B9F1080F12D008644946F2
:104F10003846FEF7BFF94FF4FA70FCF7CDFA0025DA
:104F200030E03968305D4863F1E73968305D8863A7
:104F3000EDE7C863EBE70B98FFF7F6F90A20FCF7FB
:104F4000BBFA2D4816991A3030F8110006A921F83D
:104F5000140014B1012C07D00CE0BBF800108842FB
:104F600008D98DF81CA005E0BBF80210884201D2D8
:104F70008DF81DA004A8055507A8005D00B14546A1
:104F80006D1C6DB24545D6DB49463846FEF7A4F99F
:104F9000641CE4B2022CAED39DF81C00FF21A0B12A
:104FA0009DF81D0088B1BDF81A009DF81120C4B20B
:104FB0009DF8103000940391CDE90132030ABDF849
:104FC0001800C2B2010AAA2010E0BDF81A009DF82C
:104FD00011309DF81040C2B2CDE90231CDE9002474
:104FE000030ABDF81800C2B2010ABB20FFF70EFB8E
:104FF0000DB0BDE8F08F000006000020FEE70907B5
:10500000090E002804DB00F1E02080F8001470474E
:1050100000F00F0000F1E02080F8141D704702E05E
:1050200008C8121F08C1002AFAD170477047002033
:1050300001E001C1121F002AFBD170471FB5FCF728
:10504000DFFFFFF701FBFEF723FEFEF7D7FDFEF7BC
:10505000F5FEFEF713FFFFF7E7F8FEF7F3FFFEF7A5
:1050600075FFFFF789F8FEF729FFFEF74BFFFEF704
:1050700087FBFEF743FCFEF701FDFFF715F8FFF78E
:1050800047F8FFF7ADF8FEF7DBFD00220121132002
:10509000FDF716F81320FDF705F80022114614203D
:1050A000FDF70EF81420FCF7FDFF00221146332017
:1050B000FDF706F83320FCF7F5FF002211463620F5
:1050C000FCF7FEFF3620FCF7EDFFFEF737FBFBF7A2
:1050D000A5FAB04F4FF00008AF4C87F803804FF4AB
:1050E00080594FF4005A4FF4804B7878042801D14E
:1050F000FEF72AF942E187F80380B8784546182878
:10510000F8D2DFE800F00C0F19111A212C39444FA6
:105110005A697B84909DA8B4CEE6FDFBFAF9FFF7AF
:105120002DFE2BE1012018E10120FBF739FB642063
:10513000FCF7C2F9FFF732FE0EE19848FFF7F4F8EA
:105140000120FFF7EFFC19E10120FBF729FB6420A8
:10515000FCF7B2F99248FFF7E7F8022009E00120D6
:10516000FBF71EFB6420FCF7A7F98C48FFF7DCF87F
:105170000320FFF7D7FCEFE00120FBF711FB6420D1
:10518000FCF79AF98548FFF7CFF80420F1E70120F2
:10519000FBF706FB6420FCF78FF98248FFF7C4F8A1
:1051A0000520E6E70120FBF7FBFA6420FCF784F911
:1051B0007C48FFF7B9F80620DBE77B4E4FF48065AB
:1051C000002229463046FCF75FFC6420FCF774F9A6
:1051D000FFF7FAFC01220CE00122744E1502294669
:1051E0003046FCF751FC6420FCF766F9FFF716FE29
:1051F000002229463046FCF747FCBFE00120FBF7C0
:10520000CFFA6420FCF758F9FFF7FCFBA4E001207B
:10521000FBF7C6FA6420FCF74FF94B46644A4FF09F
:105220008041644809E00120FBF7BAFA6420FCF7EA
:1052300043F953465E4A60496048FFF719FD8BE029
:105240000120FBF7ADFA6420FCF736F95B46584ABB
:105250005B495C48F1E70120FBF7A2FA6420FCF708
:105260002BF94FF40043524A57495848E5E70120CB
:10527000FBF796FA01224E4649462046FCF704FC0D
:105280006420FCF719F9434B454A1B1D0021504887
:105290000095FFF71DFE6420FCF70EF90022314651
:1052A00013E00120FBF77CFA0122554651462046C7
:1052B000FCF7EAFB6420FCF7FFF80120354B009077
:1052C0001B1D374A082142482DE02046FCF7DCFB35
:1052D00042E00120FBF764FA01225D465946204670
:1052E000FCF7D2FB6420FCF7E7F82A4B02201B1DD9
:1052F0002C4A0021009015E032E024E01BE0FFE79B
:105300000120FBF74DFA0122D50329462046FCF780
:10531000BBFB6420FCF7D0F81E4B03201B1D214A69
:10532000082100902B48FFF7D3FD6420FCF7C4F858
:1053300000222946C9E70120FBF732FA6420FCF776
:10534000BBF8002006E00120FBF72AFA6420FCF7F6
:10535000B3F80120FFF7EAFC0020FBF721FA0DE08B
:105360006420FCF7A9F8FF2000900190029003460A
:10537000024601460390AA20FFF748F9F878012871
:105380003FF4B9AE6420FCF797F87878401C787049
:10539000ABE600000000002000100240B400002036
:1053A0006C000020FC000020000C024000080240BD
:1053B000001802404C030020000400408C03002031
:1053C00000080040CC030020000C00400C0400202A
:1053D0000C0300208C0400200000000000000000EE
:1053E000010203040607080900000000010203048B
:1053F0001054000800000020380000001E50000873
:105400004854000838000020980800002E5000087A
:10541000000000000A5A0007F00000000000000031
:10542000000000000000000000000000000000007C
:10543000000000000000000001000000100000005B
:08544000000000000024F4004C
:040000050800018965
:00000001FF
